{
	"contracts/transaciones.sol": {
		"eviarEth": {
			"abi": [
				{
					"inputs": [],
					"stateMutability": "payable",
					"type": "constructor"
				},
				{
					"anonymous": false,
					"inputs": [
						{
							"indexed": false,
							"internalType": "bool",
							"name": "",
							"type": "bool"
						}
					],
					"name": "estadoEnvio",
					"type": "event"
				},
				{
					"anonymous": false,
					"inputs": [
						{
							"indexed": false,
							"internalType": "bool",
							"name": "",
							"type": "bool"
						},
						{
							"indexed": false,
							"internalType": "bytes",
							"name": "",
							"type": "bytes"
						}
					],
					"name": "llamadoEstado",
					"type": "event"
				},
				{
					"inputs": [
						{
							"internalType": "address payable",
							"name": "_direccion",
							"type": "address"
						}
					],
					"name": "enviarViaCall",
					"outputs": [],
					"stateMutability": "payable",
					"type": "function"
				},
				{
					"inputs": [
						{
							"internalType": "address payable",
							"name": "_direccion",
							"type": "address"
						}
					],
					"name": "enviarViaSend",
					"outputs": [],
					"stateMutability": "payable",
					"type": "function"
				},
				{
					"inputs": [
						{
							"internalType": "address payable",
							"name": "_direccion",
							"type": "address"
						}
					],
					"name": "enviarViaTransfer",
					"outputs": [],
					"stateMutability": "payable",
					"type": "function"
				},
				{
					"stateMutability": "payable",
					"type": "receive"
				}
			],
			"devdoc": {
				"kind": "dev",
				"methods": {},
				"version": 1
			},
			"evm": {
				"assembly": "    /* \"contracts/transaciones.sol\":68:1022  contract eviarEth{... */\n  mstore(0x40, 0x80)\n  dataSize(sub_0)\n  dup1\n  dataOffset(sub_0)\n  0x00\n  codecopy\n  0x00\n  return\nstop\n\nsub_0: assembly {\n        /* \"contracts/transaciones.sol\":68:1022  contract eviarEth{... */\n      mstore(0x40, 0x80)\n      jumpi(tag_1, lt(calldatasize, 0x04))\n      shr(0xe0, calldataload(0x00))\n      dup1\n      0x26126535\n      eq\n      tag_3\n      jumpi\n      dup1\n      0x3bdc5571\n      eq\n      tag_4\n      jumpi\n      dup1\n      0xb9cc8f78\n      eq\n      tag_5\n      jumpi\n      jump(tag_2)\n    tag_1:\n      jumpi(tag_2, calldatasize)\n      stop\n    tag_2:\n      0x00\n      dup1\n      revert\n        /* \"contracts/transaciones.sol\":753:1013  function enviarViaCall(address payable _direccion) public payable {... */\n    tag_3:\n      tag_8\n      0x04\n      dup1\n      calldatasize\n      sub\n      dup2\n      add\n      swap1\n      tag_9\n      swap2\n      swap1\n      tag_10\n      jump\t// in\n    tag_9:\n      tag_11\n      jump\t// in\n    tag_8:\n      stop\n        /* \"contracts/transaciones.sol\":227:345  function enviarViaTransfer(address payable _direccion) public payable{... */\n    tag_4:\n      tag_12\n      0x04\n      dup1\n      calldatasize\n      sub\n      dup2\n      add\n      swap1\n      tag_13\n      swap2\n      swap1\n      tag_10\n      jump\t// in\n    tag_13:\n      tag_14\n      jump\t// in\n    tag_12:\n      stop\n        /* \"contracts/transaciones.sol\":353:667  function enviarViaSend(address payable _direccion) public payable{... */\n    tag_5:\n      tag_15\n      0x04\n      dup1\n      calldatasize\n      sub\n      dup2\n      add\n      swap1\n      tag_16\n      swap2\n      swap1\n      tag_10\n      jump\t// in\n    tag_16:\n      tag_17\n      jump\t// in\n    tag_15:\n      stop\n        /* \"contracts/transaciones.sol\":753:1013  function enviarViaCall(address payable _direccion) public payable {... */\n    tag_11:\n        /* \"contracts/transaciones.sol\":831:842  bool estado */\n      0x00\n        /* \"contracts/transaciones.sol\":844:861  bytes memory data */\n      dup1\n        /* \"contracts/transaciones.sol\":865:875  _direccion */\n      dup3\n        /* \"contracts/transaciones.sol\":865:880  _direccion.call */\n      0xffffffffffffffffffffffffffffffffffffffff\n      and\n        /* \"contracts/transaciones.sol\":887:894  1 ether */\n      0x0de0b6b3a7640000\n        /* \"contracts/transaciones.sol\":865:899  _direccion.call{value:1 ether}(\"\") */\n      mload(0x40)\n      tag_19\n      swap1\n      tag_20\n      jump\t// in\n    tag_19:\n      0x00\n      mload(0x40)\n      dup1\n      dup4\n      sub\n      dup2\n      dup6\n      dup8\n      gas\n      call\n      swap3\n      pop\n      pop\n      pop\n      returndatasize\n      dup1\n      0x00\n      dup2\n      eq\n      tag_23\n      jumpi\n      mload(0x40)\n      swap2\n      pop\n      and(add(returndatasize, 0x3f), not(0x1f))\n      dup3\n      add\n      0x40\n      mstore\n      returndatasize\n      dup3\n      mstore\n      returndatasize\n      0x00\n      0x20\n      dup5\n      add\n      returndatacopy\n      jump(tag_22)\n    tag_23:\n      0x60\n      swap2\n      pop\n    tag_22:\n      pop\n        /* \"contracts/transaciones.sol\":830:899  (bool estado, bytes memory data) = _direccion.call{value:1 ether}(\"\") */\n      swap2\n      pop\n      swap2\n      pop\n        /* \"contracts/transaciones.sol\":915:942  llamadoEstado(estado,data ) */\n      0x85b4e3ba23cdc2e4be7a40d31cd16f14383877c57f19b0a02a0d8fb8819b15bb\n        /* \"contracts/transaciones.sol\":929:935  estado */\n      dup3\n        /* \"contracts/transaciones.sol\":936:940  data */\n      dup3\n        /* \"contracts/transaciones.sol\":915:942  llamadoEstado(estado,data ) */\n      mload(0x40)\n      tag_24\n      swap3\n      swap2\n      swap1\n      tag_25\n      jump\t// in\n    tag_24:\n      mload(0x40)\n      dup1\n      swap2\n      sub\n      swap1\n      log1\n        /* \"contracts/transaciones.sol\":971:975  true */\n      0x01\n        /* \"contracts/transaciones.sol\":961:975  estado == true */\n      iszero\n      iszero\n        /* \"contracts/transaciones.sol\":961:967  estado */\n      dup3\n        /* \"contracts/transaciones.sol\":961:975  estado == true */\n      iszero\n      iszero\n      eq\n        /* \"contracts/transaciones.sol\":953:999  require(estado == true, \"El envio ha fallado\") */\n      tag_26\n      jumpi\n      mload(0x40)\n      0x08c379a000000000000000000000000000000000000000000000000000000000\n      dup2\n      mstore\n      0x04\n      add\n      tag_27\n      swap1\n      tag_28\n      jump\t// in\n    tag_27:\n      mload(0x40)\n      dup1\n      swap2\n      sub\n      swap1\n      revert\n    tag_26:\n        /* \"contracts/transaciones.sol\":819:1013  {... */\n      pop\n      pop\n        /* \"contracts/transaciones.sol\":753:1013  function enviarViaCall(address payable _direccion) public payable {... */\n      pop\n      jump\t// out\n        /* \"contracts/transaciones.sol\":227:345  function enviarViaTransfer(address payable _direccion) public payable{... */\n    tag_14:\n        /* \"contracts/transaciones.sol\":307:317  _direccion */\n      dup1\n        /* \"contracts/transaciones.sol\":307:326  _direccion.transfer */\n      0xffffffffffffffffffffffffffffffffffffffff\n      and\n        /* \"contracts/transaciones.sol\":307:335  _direccion.transfer(1 ether) */\n      0x08fc\n        /* \"contracts/transaciones.sol\":327:334  1 ether */\n      0x0de0b6b3a7640000\n        /* \"contracts/transaciones.sol\":307:335  _direccion.transfer(1 ether) */\n      swap1\n      dup2\n      iszero\n      mul\n      swap1\n      mload(0x40)\n      0x00\n      mload(0x40)\n      dup1\n      dup4\n      sub\n      dup2\n      dup6\n      dup9\n      dup9\n      call\n      swap4\n      pop\n      pop\n      pop\n      pop\n      iszero\n      dup1\n      iszero\n      tag_31\n      jumpi\n      returndatasize\n      0x00\n      dup1\n      returndatacopy\n      revert(0x00, returndatasize)\n    tag_31:\n      pop\n        /* \"contracts/transaciones.sol\":227:345  function enviarViaTransfer(address payable _direccion) public payable{... */\n      pop\n      jump\t// out\n        /* \"contracts/transaciones.sol\":353:667  function enviarViaSend(address payable _direccion) public payable{... */\n    tag_17:\n        /* \"contracts/transaciones.sol\":429:443  bool resultado */\n      0x00\n        /* \"contracts/transaciones.sol\":446:456  _direccion */\n      dup2\n        /* \"contracts/transaciones.sol\":446:461  _direccion.send */\n      0xffffffffffffffffffffffffffffffffffffffff\n      and\n        /* \"contracts/transaciones.sol\":446:470  _direccion.send(1 ether) */\n      0x08fc\n        /* \"contracts/transaciones.sol\":462:469  1 ether */\n      0x0de0b6b3a7640000\n        /* \"contracts/transaciones.sol\":446:470  _direccion.send(1 ether) */\n      swap1\n      dup2\n      iszero\n      mul\n      swap1\n      mload(0x40)\n      0x00\n      mload(0x40)\n      dup1\n      dup4\n      sub\n      dup2\n      dup6\n      dup9\n      dup9\n      call\n      swap4\n      pop\n      pop\n      pop\n      pop\n        /* \"contracts/transaciones.sol\":429:470  bool resultado = _direccion.send(1 ether) */\n      swap1\n      pop\n        /* \"contracts/transaciones.sol\":575:597  estadoEnvio(resultado) */\n      0x141981ea06bb1fd729abcb759cdab90c3a4ee88eccd710db0762a64c00f94652\n        /* \"contracts/transaciones.sol\":587:596  resultado */\n      dup2\n        /* \"contracts/transaciones.sol\":575:597  estadoEnvio(resultado) */\n      mload(0x40)\n      tag_34\n      swap2\n      swap1\n      tag_35\n      jump\t// in\n    tag_34:\n      mload(0x40)\n      dup1\n      swap2\n      sub\n      swap1\n      log1\n        /* \"contracts/transaciones.sol\":629:633  true */\n      0x01\n        /* \"contracts/transaciones.sol\":616:633  resultado == true */\n      iszero\n      iszero\n        /* \"contracts/transaciones.sol\":616:625  resultado */\n      dup2\n        /* \"contracts/transaciones.sol\":616:633  resultado == true */\n      iszero\n      iszero\n      eq\n        /* \"contracts/transaciones.sol\":608:657  require(resultado == true, \"El envio ha fallado\") */\n      tag_36\n      jumpi\n      mload(0x40)\n      0x08c379a000000000000000000000000000000000000000000000000000000000\n      dup2\n      mstore\n      0x04\n      add\n      tag_37\n      swap1\n      tag_28\n      jump\t// in\n    tag_37:\n      mload(0x40)\n      dup1\n      swap2\n      sub\n      swap1\n      revert\n    tag_36:\n        /* \"contracts/transaciones.sol\":418:667  {... */\n      pop\n        /* \"contracts/transaciones.sol\":353:667  function enviarViaSend(address payable _direccion) public payable{... */\n      pop\n      jump\t// out\n        /* \"#utility.yul\":88:205   */\n    tag_39:\n        /* \"#utility.yul\":197:198   */\n      0x00\n        /* \"#utility.yul\":194:195   */\n      dup1\n        /* \"#utility.yul\":187:199   */\n      revert\n        /* \"#utility.yul\":334:460   */\n    tag_41:\n        /* \"#utility.yul\":371:378   */\n      0x00\n        /* \"#utility.yul\":411:453   */\n      0xffffffffffffffffffffffffffffffffffffffff\n        /* \"#utility.yul\":404:409   */\n      dup3\n        /* \"#utility.yul\":400:454   */\n      and\n        /* \"#utility.yul\":389:454   */\n      swap1\n      pop\n        /* \"#utility.yul\":334:460   */\n      swap2\n      swap1\n      pop\n      jump\t// out\n        /* \"#utility.yul\":466:570   */\n    tag_42:\n        /* \"#utility.yul\":511:518   */\n      0x00\n        /* \"#utility.yul\":540:564   */\n      tag_64\n        /* \"#utility.yul\":558:563   */\n      dup3\n        /* \"#utility.yul\":540:564   */\n      tag_41\n      jump\t// in\n    tag_64:\n        /* \"#utility.yul\":529:564   */\n      swap1\n      pop\n        /* \"#utility.yul\":466:570   */\n      swap2\n      swap1\n      pop\n      jump\t// out\n        /* \"#utility.yul\":576:714   */\n    tag_43:\n        /* \"#utility.yul\":657:689   */\n      tag_66\n        /* \"#utility.yul\":683:688   */\n      dup2\n        /* \"#utility.yul\":657:689   */\n      tag_42\n      jump\t// in\n    tag_66:\n        /* \"#utility.yul\":650:655   */\n      dup2\n        /* \"#utility.yul\":647:690   */\n      eq\n        /* \"#utility.yul\":637:708   */\n      tag_67\n      jumpi\n        /* \"#utility.yul\":704:705   */\n      0x00\n        /* \"#utility.yul\":701:702   */\n      dup1\n        /* \"#utility.yul\":694:706   */\n      revert\n        /* \"#utility.yul\":637:708   */\n    tag_67:\n        /* \"#utility.yul\":576:714   */\n      pop\n      jump\t// out\n        /* \"#utility.yul\":720:875   */\n    tag_44:\n        /* \"#utility.yul\":774:779   */\n      0x00\n        /* \"#utility.yul\":812:818   */\n      dup2\n        /* \"#utility.yul\":799:819   */\n      calldataload\n        /* \"#utility.yul\":790:819   */\n      swap1\n      pop\n        /* \"#utility.yul\":828:869   */\n      tag_69\n        /* \"#utility.yul\":863:868   */\n      dup2\n        /* \"#utility.yul\":828:869   */\n      tag_43\n      jump\t// in\n    tag_69:\n        /* \"#utility.yul\":720:875   */\n      swap3\n      swap2\n      pop\n      pop\n      jump\t// out\n        /* \"#utility.yul\":881:1226   */\n    tag_10:\n        /* \"#utility.yul\":948:954   */\n      0x00\n        /* \"#utility.yul\":997:999   */\n      0x20\n        /* \"#utility.yul\":985:994   */\n      dup3\n        /* \"#utility.yul\":976:983   */\n      dup5\n        /* \"#utility.yul\":972:995   */\n      sub\n        /* \"#utility.yul\":968:1000   */\n      slt\n        /* \"#utility.yul\":965:1084   */\n      iszero\n      tag_71\n      jumpi\n        /* \"#utility.yul\":1003:1082   */\n      tag_72\n      tag_39\n      jump\t// in\n    tag_72:\n        /* \"#utility.yul\":965:1084   */\n    tag_71:\n        /* \"#utility.yul\":1123:1124   */\n      0x00\n        /* \"#utility.yul\":1148:1209   */\n      tag_73\n        /* \"#utility.yul\":1201:1208   */\n      dup5\n        /* \"#utility.yul\":1192:1198   */\n      dup3\n        /* \"#utility.yul\":1181:1190   */\n      dup6\n        /* \"#utility.yul\":1177:1199   */\n      add\n        /* \"#utility.yul\":1148:1209   */\n      tag_44\n      jump\t// in\n    tag_73:\n        /* \"#utility.yul\":1138:1209   */\n      swap2\n      pop\n        /* \"#utility.yul\":1094:1219   */\n      pop\n        /* \"#utility.yul\":881:1226   */\n      swap3\n      swap2\n      pop\n      pop\n      jump\t// out\n        /* \"#utility.yul\":1232:1379   */\n    tag_45:\n        /* \"#utility.yul\":1333:1344   */\n      0x00\n        /* \"#utility.yul\":1370:1373   */\n      dup2\n        /* \"#utility.yul\":1355:1373   */\n      swap1\n      pop\n        /* \"#utility.yul\":1232:1379   */\n      swap3\n      swap2\n      pop\n      pop\n      jump\t// out\n        /* \"#utility.yul\":1385:1499   */\n    tag_46:\n      pop\n      jump\t// out\n        /* \"#utility.yul\":1505:1903   */\n    tag_47:\n        /* \"#utility.yul\":1664:1667   */\n      0x00\n        /* \"#utility.yul\":1685:1768   */\n      tag_77\n        /* \"#utility.yul\":1766:1767   */\n      0x00\n        /* \"#utility.yul\":1761:1764   */\n      dup4\n        /* \"#utility.yul\":1685:1768   */\n      tag_45\n      jump\t// in\n    tag_77:\n        /* \"#utility.yul\":1678:1768   */\n      swap2\n      pop\n        /* \"#utility.yul\":1777:1870   */\n      tag_78\n        /* \"#utility.yul\":1866:1869   */\n      dup3\n        /* \"#utility.yul\":1777:1870   */\n      tag_46\n      jump\t// in\n    tag_78:\n        /* \"#utility.yul\":1895:1896   */\n      0x00\n        /* \"#utility.yul\":1890:1893   */\n      dup3\n        /* \"#utility.yul\":1886:1897   */\n      add\n        /* \"#utility.yul\":1879:1897   */\n      swap1\n      pop\n        /* \"#utility.yul\":1505:1903   */\n      swap2\n      swap1\n      pop\n      jump\t// out\n        /* \"#utility.yul\":1909:2288   */\n    tag_20:\n        /* \"#utility.yul\":2093:2096   */\n      0x00\n        /* \"#utility.yul\":2115:2262   */\n      tag_80\n        /* \"#utility.yul\":2258:2261   */\n      dup3\n        /* \"#utility.yul\":2115:2262   */\n      tag_47\n      jump\t// in\n    tag_80:\n        /* \"#utility.yul\":2108:2262   */\n      swap2\n      pop\n        /* \"#utility.yul\":2279:2282   */\n      dup2\n        /* \"#utility.yul\":2272:2282   */\n      swap1\n      pop\n        /* \"#utility.yul\":1909:2288   */\n      swap2\n      swap1\n      pop\n      jump\t// out\n        /* \"#utility.yul\":2294:2384   */\n    tag_48:\n        /* \"#utility.yul\":2328:2335   */\n      0x00\n        /* \"#utility.yul\":2371:2376   */\n      dup2\n        /* \"#utility.yul\":2364:2377   */\n      iszero\n        /* \"#utility.yul\":2357:2378   */\n      iszero\n        /* \"#utility.yul\":2346:2378   */\n      swap1\n      pop\n        /* \"#utility.yul\":2294:2384   */\n      swap2\n      swap1\n      pop\n      jump\t// out\n        /* \"#utility.yul\":2390:2499   */\n    tag_49:\n        /* \"#utility.yul\":2471:2492   */\n      tag_83\n        /* \"#utility.yul\":2486:2491   */\n      dup2\n        /* \"#utility.yul\":2471:2492   */\n      tag_48\n      jump\t// in\n    tag_83:\n        /* \"#utility.yul\":2466:2469   */\n      dup3\n        /* \"#utility.yul\":2459:2493   */\n      mstore\n        /* \"#utility.yul\":2390:2499   */\n      pop\n      pop\n      jump\t// out\n        /* \"#utility.yul\":2505:2603   */\n    tag_50:\n        /* \"#utility.yul\":2556:2562   */\n      0x00\n        /* \"#utility.yul\":2590:2595   */\n      dup2\n        /* \"#utility.yul\":2584:2596   */\n      mload\n        /* \"#utility.yul\":2574:2596   */\n      swap1\n      pop\n        /* \"#utility.yul\":2505:2603   */\n      swap2\n      swap1\n      pop\n      jump\t// out\n        /* \"#utility.yul\":2609:2777   */\n    tag_51:\n        /* \"#utility.yul\":2692:2703   */\n      0x00\n        /* \"#utility.yul\":2726:2732   */\n      dup3\n        /* \"#utility.yul\":2721:2724   */\n      dup3\n        /* \"#utility.yul\":2714:2733   */\n      mstore\n        /* \"#utility.yul\":2766:2770   */\n      0x20\n        /* \"#utility.yul\":2761:2764   */\n      dup3\n        /* \"#utility.yul\":2757:2771   */\n      add\n        /* \"#utility.yul\":2742:2771   */\n      swap1\n      pop\n        /* \"#utility.yul\":2609:2777   */\n      swap3\n      swap2\n      pop\n      pop\n      jump\t// out\n        /* \"#utility.yul\":2783:3029   */\n    tag_52:\n        /* \"#utility.yul\":2864:2865   */\n      0x00\n        /* \"#utility.yul\":2874:2987   */\n    tag_87:\n        /* \"#utility.yul\":2888:2894   */\n      dup4\n        /* \"#utility.yul\":2885:2886   */\n      dup2\n        /* \"#utility.yul\":2882:2895   */\n      lt\n        /* \"#utility.yul\":2874:2987   */\n      iszero\n      tag_89\n      jumpi\n        /* \"#utility.yul\":2973:2974   */\n      dup1\n        /* \"#utility.yul\":2968:2971   */\n      dup3\n        /* \"#utility.yul\":2964:2975   */\n      add\n        /* \"#utility.yul\":2958:2976   */\n      mload\n        /* \"#utility.yul\":2954:2955   */\n      dup2\n        /* \"#utility.yul\":2949:2952   */\n      dup5\n        /* \"#utility.yul\":2945:2956   */\n      add\n        /* \"#utility.yul\":2938:2977   */\n      mstore\n        /* \"#utility.yul\":2910:2912   */\n      0x20\n        /* \"#utility.yul\":2907:2908   */\n      dup2\n        /* \"#utility.yul\":2903:2913   */\n      add\n        /* \"#utility.yul\":2898:2913   */\n      swap1\n      pop\n        /* \"#utility.yul\":2874:2987   */\n      jump(tag_87)\n    tag_89:\n        /* \"#utility.yul\":3021:3022   */\n      0x00\n        /* \"#utility.yul\":3012:3018   */\n      dup5\n        /* \"#utility.yul\":3007:3010   */\n      dup5\n        /* \"#utility.yul\":3003:3019   */\n      add\n        /* \"#utility.yul\":2996:3023   */\n      mstore\n        /* \"#utility.yul\":2845:3029   */\n      pop\n        /* \"#utility.yul\":2783:3029   */\n      pop\n      pop\n      pop\n      jump\t// out\n        /* \"#utility.yul\":3035:3137   */\n    tag_53:\n        /* \"#utility.yul\":3076:3082   */\n      0x00\n        /* \"#utility.yul\":3127:3129   */\n      0x1f\n        /* \"#utility.yul\":3123:3130   */\n      not\n        /* \"#utility.yul\":3118:3120   */\n      0x1f\n        /* \"#utility.yul\":3111:3116   */\n      dup4\n        /* \"#utility.yul\":3107:3121   */\n      add\n        /* \"#utility.yul\":3103:3131   */\n      and\n        /* \"#utility.yul\":3093:3131   */\n      swap1\n      pop\n        /* \"#utility.yul\":3035:3137   */\n      swap2\n      swap1\n      pop\n      jump\t// out\n        /* \"#utility.yul\":3143:3516   */\n    tag_54:\n        /* \"#utility.yul\":3229:3232   */\n      0x00\n        /* \"#utility.yul\":3257:3295   */\n      tag_92\n        /* \"#utility.yul\":3289:3294   */\n      dup3\n        /* \"#utility.yul\":3257:3295   */\n      tag_50\n      jump\t// in\n    tag_92:\n        /* \"#utility.yul\":3311:3381   */\n      tag_93\n        /* \"#utility.yul\":3374:3380   */\n      dup2\n        /* \"#utility.yul\":3369:3372   */\n      dup6\n        /* \"#utility.yul\":3311:3381   */\n      tag_51\n      jump\t// in\n    tag_93:\n        /* \"#utility.yul\":3304:3381   */\n      swap4\n      pop\n        /* \"#utility.yul\":3390:3455   */\n      tag_94\n        /* \"#utility.yul\":3448:3454   */\n      dup2\n        /* \"#utility.yul\":3443:3446   */\n      dup6\n        /* \"#utility.yul\":3436:3440   */\n      0x20\n        /* \"#utility.yul\":3429:3434   */\n      dup7\n        /* \"#utility.yul\":3425:3441   */\n      add\n        /* \"#utility.yul\":3390:3455   */\n      tag_52\n      jump\t// in\n    tag_94:\n        /* \"#utility.yul\":3480:3509   */\n      tag_95\n        /* \"#utility.yul\":3502:3508   */\n      dup2\n        /* \"#utility.yul\":3480:3509   */\n      tag_53\n      jump\t// in\n    tag_95:\n        /* \"#utility.yul\":3475:3478   */\n      dup5\n        /* \"#utility.yul\":3471:3510   */\n      add\n        /* \"#utility.yul\":3464:3510   */\n      swap2\n      pop\n        /* \"#utility.yul\":3233:3516   */\n      pop\n        /* \"#utility.yul\":3143:3516   */\n      swap3\n      swap2\n      pop\n      pop\n      jump\t// out\n        /* \"#utility.yul\":3522:3929   */\n    tag_25:\n        /* \"#utility.yul\":3655:3659   */\n      0x00\n        /* \"#utility.yul\":3693:3695   */\n      0x40\n        /* \"#utility.yul\":3682:3691   */\n      dup3\n        /* \"#utility.yul\":3678:3696   */\n      add\n        /* \"#utility.yul\":3670:3696   */\n      swap1\n      pop\n        /* \"#utility.yul\":3706:3771   */\n      tag_97\n        /* \"#utility.yul\":3768:3769   */\n      0x00\n        /* \"#utility.yul\":3757:3766   */\n      dup4\n        /* \"#utility.yul\":3753:3770   */\n      add\n        /* \"#utility.yul\":3744:3750   */\n      dup6\n        /* \"#utility.yul\":3706:3771   */\n      tag_49\n      jump\t// in\n    tag_97:\n        /* \"#utility.yul\":3818:3827   */\n      dup2\n        /* \"#utility.yul\":3812:3816   */\n      dup2\n        /* \"#utility.yul\":3808:3828   */\n      sub\n        /* \"#utility.yul\":3803:3805   */\n      0x20\n        /* \"#utility.yul\":3792:3801   */\n      dup4\n        /* \"#utility.yul\":3788:3806   */\n      add\n        /* \"#utility.yul\":3781:3829   */\n      mstore\n        /* \"#utility.yul\":3846:3922   */\n      tag_98\n        /* \"#utility.yul\":3917:3921   */\n      dup2\n        /* \"#utility.yul\":3908:3914   */\n      dup5\n        /* \"#utility.yul\":3846:3922   */\n      tag_54\n      jump\t// in\n    tag_98:\n        /* \"#utility.yul\":3838:3922   */\n      swap1\n      pop\n        /* \"#utility.yul\":3522:3929   */\n      swap4\n      swap3\n      pop\n      pop\n      pop\n      jump\t// out\n        /* \"#utility.yul\":3935:4104   */\n    tag_55:\n        /* \"#utility.yul\":4019:4030   */\n      0x00\n        /* \"#utility.yul\":4053:4059   */\n      dup3\n        /* \"#utility.yul\":4048:4051   */\n      dup3\n        /* \"#utility.yul\":4041:4060   */\n      mstore\n        /* \"#utility.yul\":4093:4097   */\n      0x20\n        /* \"#utility.yul\":4088:4091   */\n      dup3\n        /* \"#utility.yul\":4084:4098   */\n      add\n        /* \"#utility.yul\":4069:4098   */\n      swap1\n      pop\n        /* \"#utility.yul\":3935:4104   */\n      swap3\n      swap2\n      pop\n      pop\n      jump\t// out\n        /* \"#utility.yul\":4110:4279   */\n    tag_56:\n        /* \"#utility.yul\":4250:4271   */\n      0x456c20656e76696f2068612066616c6c61646f00000000000000000000000000\n        /* \"#utility.yul\":4246:4247   */\n      0x00\n        /* \"#utility.yul\":4238:4244   */\n      dup3\n        /* \"#utility.yul\":4234:4248   */\n      add\n        /* \"#utility.yul\":4227:4272   */\n      mstore\n        /* \"#utility.yul\":4110:4279   */\n      pop\n      jump\t// out\n        /* \"#utility.yul\":4285:4651   */\n    tag_57:\n        /* \"#utility.yul\":4427:4430   */\n      0x00\n        /* \"#utility.yul\":4448:4515   */\n      tag_102\n        /* \"#utility.yul\":4512:4514   */\n      0x13\n        /* \"#utility.yul\":4507:4510   */\n      dup4\n        /* \"#utility.yul\":4448:4515   */\n      tag_55\n      jump\t// in\n    tag_102:\n        /* \"#utility.yul\":4441:4515   */\n      swap2\n      pop\n        /* \"#utility.yul\":4524:4617   */\n      tag_103\n        /* \"#utility.yul\":4613:4616   */\n      dup3\n        /* \"#utility.yul\":4524:4617   */\n      tag_56\n      jump\t// in\n    tag_103:\n        /* \"#utility.yul\":4642:4644   */\n      0x20\n        /* \"#utility.yul\":4637:4640   */\n      dup3\n        /* \"#utility.yul\":4633:4645   */\n      add\n        /* \"#utility.yul\":4626:4645   */\n      swap1\n      pop\n        /* \"#utility.yul\":4285:4651   */\n      swap2\n      swap1\n      pop\n      jump\t// out\n        /* \"#utility.yul\":4657:5076   */\n    tag_28:\n        /* \"#utility.yul\":4823:4827   */\n      0x00\n        /* \"#utility.yul\":4861:4863   */\n      0x20\n        /* \"#utility.yul\":4850:4859   */\n      dup3\n        /* \"#utility.yul\":4846:4864   */\n      add\n        /* \"#utility.yul\":4838:4864   */\n      swap1\n      pop\n        /* \"#utility.yul\":4910:4919   */\n      dup2\n        /* \"#utility.yul\":4904:4908   */\n      dup2\n        /* \"#utility.yul\":4900:4920   */\n      sub\n        /* \"#utility.yul\":4896:4897   */\n      0x00\n        /* \"#utility.yul\":4885:4894   */\n      dup4\n        /* \"#utility.yul\":4881:4898   */\n      add\n        /* \"#utility.yul\":4874:4921   */\n      mstore\n        /* \"#utility.yul\":4938:5069   */\n      tag_105\n        /* \"#utility.yul\":5064:5068   */\n      dup2\n        /* \"#utility.yul\":4938:5069   */\n      tag_57\n      jump\t// in\n    tag_105:\n        /* \"#utility.yul\":4930:5069   */\n      swap1\n      pop\n        /* \"#utility.yul\":4657:5076   */\n      swap2\n      swap1\n      pop\n      jump\t// out\n        /* \"#utility.yul\":5082:5292   */\n    tag_35:\n        /* \"#utility.yul\":5169:5173   */\n      0x00\n        /* \"#utility.yul\":5207:5209   */\n      0x20\n        /* \"#utility.yul\":5196:5205   */\n      dup3\n        /* \"#utility.yul\":5192:5210   */\n      add\n        /* \"#utility.yul\":5184:5210   */\n      swap1\n      pop\n        /* \"#utility.yul\":5220:5285   */\n      tag_107\n        /* \"#utility.yul\":5282:5283   */\n      0x00\n        /* \"#utility.yul\":5271:5280   */\n      dup4\n        /* \"#utility.yul\":5267:5284   */\n      add\n        /* \"#utility.yul\":5258:5264   */\n      dup5\n        /* \"#utility.yul\":5220:5285   */\n      tag_49\n      jump\t// in\n    tag_107:\n        /* \"#utility.yul\":5082:5292   */\n      swap3\n      swap2\n      pop\n      pop\n      jump\t// out\n\n    auxdata: 0xa2646970667358221220f484799e4a9b4452a8a6db6261c25256f2de74540df2f283a3529c027126973164736f6c63430008120033\n}\n",
				"bytecode": {
					"linkReferences": {},
					"object": "6080604052610527806100136000396000f3fe6080604052600436106100385760003560e01c806326126535146100445780633bdc557114610060578063b9cc8f781461007c5761003f565b3661003f57005b600080fd5b61005e6004803603810190610059919061030b565b610098565b005b61007a6004803603810190610075919061030b565b610193565b005b6100966004803603810190610091919061030b565b6101e5565b005b6000808273ffffffffffffffffffffffffffffffffffffffff16670de0b6b3a76400006040516100c790610369565b60006040518083038185875af1925050503d8060008114610104576040519150601f19603f3d011682016040523d82523d6000602084013e610109565b606091505b50915091507f85b4e3ba23cdc2e4be7a40d31cd16f14383877c57f19b0a02a0d8fb8819b15bb828260405161013f929190610429565b60405180910390a1600115158215151461018e576040517f08c379a0000000000000000000000000000000000000000000000000000000008152600401610185906104b6565b60405180910390fd5b505050565b8073ffffffffffffffffffffffffffffffffffffffff166108fc670de0b6b3a76400009081150290604051600060405180830381858888f193505050501580156101e1573d6000803e3d6000fd5b5050565b60008173ffffffffffffffffffffffffffffffffffffffff166108fc670de0b6b3a76400009081150290604051600060405180830381858888f1935050505090507f141981ea06bb1fd729abcb759cdab90c3a4ee88eccd710db0762a64c00f946528160405161025591906104d6565b60405180910390a160011515811515146102a4576040517f08c379a000000000000000000000000000000000000000000000000000000000815260040161029b906104b6565b60405180910390fd5b5050565b600080fd5b600073ffffffffffffffffffffffffffffffffffffffff82169050919050565b60006102d8826102ad565b9050919050565b6102e8816102cd565b81146102f357600080fd5b50565b600081359050610305816102df565b92915050565b600060208284031215610321576103206102a8565b5b600061032f848285016102f6565b91505092915050565b600081905092915050565b50565b6000610353600083610338565b915061035e82610343565b600082019050919050565b600061037482610346565b9150819050919050565b60008115159050919050565b6103938161037e565b82525050565b600081519050919050565b600082825260208201905092915050565b60005b838110156103d35780820151818401526020810190506103b8565b60008484015250505050565b6000601f19601f8301169050919050565b60006103fb82610399565b61040581856103a4565b93506104158185602086016103b5565b61041e816103df565b840191505092915050565b600060408201905061043e600083018561038a565b818103602083015261045081846103f0565b90509392505050565b600082825260208201905092915050565b7f456c20656e76696f2068612066616c6c61646f00000000000000000000000000600082015250565b60006104a0601383610459565b91506104ab8261046a565b602082019050919050565b600060208201905081810360008301526104cf81610493565b9050919050565b60006020820190506104eb600083018461038a565b9291505056fea2646970667358221220f484799e4a9b4452a8a6db6261c25256f2de74540df2f283a3529c027126973164736f6c63430008120033",
					"opcodes": "PUSH1 0x80 PUSH1 0x40 MSTORE PUSH2 0x527 DUP1 PUSH2 0x13 PUSH1 0x0 CODECOPY PUSH1 0x0 RETURN INVALID PUSH1 0x80 PUSH1 0x40 MSTORE PUSH1 0x4 CALLDATASIZE LT PUSH2 0x38 JUMPI PUSH1 0x0 CALLDATALOAD PUSH1 0xE0 SHR DUP1 PUSH4 0x26126535 EQ PUSH2 0x44 JUMPI DUP1 PUSH4 0x3BDC5571 EQ PUSH2 0x60 JUMPI DUP1 PUSH4 0xB9CC8F78 EQ PUSH2 0x7C JUMPI PUSH2 0x3F JUMP JUMPDEST CALLDATASIZE PUSH2 0x3F JUMPI STOP JUMPDEST PUSH1 0x0 DUP1 REVERT JUMPDEST PUSH2 0x5E PUSH1 0x4 DUP1 CALLDATASIZE SUB DUP2 ADD SWAP1 PUSH2 0x59 SWAP2 SWAP1 PUSH2 0x30B JUMP JUMPDEST PUSH2 0x98 JUMP JUMPDEST STOP JUMPDEST PUSH2 0x7A PUSH1 0x4 DUP1 CALLDATASIZE SUB DUP2 ADD SWAP1 PUSH2 0x75 SWAP2 SWAP1 PUSH2 0x30B JUMP JUMPDEST PUSH2 0x193 JUMP JUMPDEST STOP JUMPDEST PUSH2 0x96 PUSH1 0x4 DUP1 CALLDATASIZE SUB DUP2 ADD SWAP1 PUSH2 0x91 SWAP2 SWAP1 PUSH2 0x30B JUMP JUMPDEST PUSH2 0x1E5 JUMP JUMPDEST STOP JUMPDEST PUSH1 0x0 DUP1 DUP3 PUSH20 0xFFFFFFFFFFFFFFFFFFFFFFFFFFFFFFFFFFFFFFFF AND PUSH8 0xDE0B6B3A7640000 PUSH1 0x40 MLOAD PUSH2 0xC7 SWAP1 PUSH2 0x369 JUMP JUMPDEST PUSH1 0x0 PUSH1 0x40 MLOAD DUP1 DUP4 SUB DUP2 DUP6 DUP8 GAS CALL SWAP3 POP POP POP RETURNDATASIZE DUP1 PUSH1 0x0 DUP2 EQ PUSH2 0x104 JUMPI PUSH1 0x40 MLOAD SWAP2 POP PUSH1 0x1F NOT PUSH1 0x3F RETURNDATASIZE ADD AND DUP3 ADD PUSH1 0x40 MSTORE RETURNDATASIZE DUP3 MSTORE RETURNDATASIZE PUSH1 0x0 PUSH1 0x20 DUP5 ADD RETURNDATACOPY PUSH2 0x109 JUMP JUMPDEST PUSH1 0x60 SWAP2 POP JUMPDEST POP SWAP2 POP SWAP2 POP PUSH32 0x85B4E3BA23CDC2E4BE7A40D31CD16F14383877C57F19B0A02A0D8FB8819B15BB DUP3 DUP3 PUSH1 0x40 MLOAD PUSH2 0x13F SWAP3 SWAP2 SWAP1 PUSH2 0x429 JUMP JUMPDEST PUSH1 0x40 MLOAD DUP1 SWAP2 SUB SWAP1 LOG1 PUSH1 0x1 ISZERO ISZERO DUP3 ISZERO ISZERO EQ PUSH2 0x18E JUMPI PUSH1 0x40 MLOAD PUSH32 0x8C379A000000000000000000000000000000000000000000000000000000000 DUP2 MSTORE PUSH1 0x4 ADD PUSH2 0x185 SWAP1 PUSH2 0x4B6 JUMP JUMPDEST PUSH1 0x40 MLOAD DUP1 SWAP2 SUB SWAP1 REVERT JUMPDEST POP POP POP JUMP JUMPDEST DUP1 PUSH20 0xFFFFFFFFFFFFFFFFFFFFFFFFFFFFFFFFFFFFFFFF AND PUSH2 0x8FC PUSH8 0xDE0B6B3A7640000 SWAP1 DUP2 ISZERO MUL SWAP1 PUSH1 0x40 MLOAD PUSH1 0x0 PUSH1 0x40 MLOAD DUP1 DUP4 SUB DUP2 DUP6 DUP9 DUP9 CALL SWAP4 POP POP POP POP ISZERO DUP1 ISZERO PUSH2 0x1E1 JUMPI RETURNDATASIZE PUSH1 0x0 DUP1 RETURNDATACOPY RETURNDATASIZE PUSH1 0x0 REVERT JUMPDEST POP POP JUMP JUMPDEST PUSH1 0x0 DUP2 PUSH20 0xFFFFFFFFFFFFFFFFFFFFFFFFFFFFFFFFFFFFFFFF AND PUSH2 0x8FC PUSH8 0xDE0B6B3A7640000 SWAP1 DUP2 ISZERO MUL SWAP1 PUSH1 0x40 MLOAD PUSH1 0x0 PUSH1 0x40 MLOAD DUP1 DUP4 SUB DUP2 DUP6 DUP9 DUP9 CALL SWAP4 POP POP POP POP SWAP1 POP PUSH32 0x141981EA06BB1FD729ABCB759CDAB90C3A4EE88ECCD710DB0762A64C00F94652 DUP2 PUSH1 0x40 MLOAD PUSH2 0x255 SWAP2 SWAP1 PUSH2 0x4D6 JUMP JUMPDEST PUSH1 0x40 MLOAD DUP1 SWAP2 SUB SWAP1 LOG1 PUSH1 0x1 ISZERO ISZERO DUP2 ISZERO ISZERO EQ PUSH2 0x2A4 JUMPI PUSH1 0x40 MLOAD PUSH32 0x8C379A000000000000000000000000000000000000000000000000000000000 DUP2 MSTORE PUSH1 0x4 ADD PUSH2 0x29B SWAP1 PUSH2 0x4B6 JUMP JUMPDEST PUSH1 0x40 MLOAD DUP1 SWAP2 SUB SWAP1 REVERT JUMPDEST POP POP JUMP JUMPDEST PUSH1 0x0 DUP1 REVERT JUMPDEST PUSH1 0x0 PUSH20 0xFFFFFFFFFFFFFFFFFFFFFFFFFFFFFFFFFFFFFFFF DUP3 AND SWAP1 POP SWAP2 SWAP1 POP JUMP JUMPDEST PUSH1 0x0 PUSH2 0x2D8 DUP3 PUSH2 0x2AD JUMP JUMPDEST SWAP1 POP SWAP2 SWAP1 POP JUMP JUMPDEST PUSH2 0x2E8 DUP2 PUSH2 0x2CD JUMP JUMPDEST DUP2 EQ PUSH2 0x2F3 JUMPI PUSH1 0x0 DUP1 REVERT JUMPDEST POP JUMP JUMPDEST PUSH1 0x0 DUP2 CALLDATALOAD SWAP1 POP PUSH2 0x305 DUP2 PUSH2 0x2DF JUMP JUMPDEST SWAP3 SWAP2 POP POP JUMP JUMPDEST PUSH1 0x0 PUSH1 0x20 DUP3 DUP5 SUB SLT ISZERO PUSH2 0x321 JUMPI PUSH2 0x320 PUSH2 0x2A8 JUMP JUMPDEST JUMPDEST PUSH1 0x0 PUSH2 0x32F DUP5 DUP3 DUP6 ADD PUSH2 0x2F6 JUMP JUMPDEST SWAP2 POP POP SWAP3 SWAP2 POP POP JUMP JUMPDEST PUSH1 0x0 DUP2 SWAP1 POP SWAP3 SWAP2 POP POP JUMP JUMPDEST POP JUMP JUMPDEST PUSH1 0x0 PUSH2 0x353 PUSH1 0x0 DUP4 PUSH2 0x338 JUMP JUMPDEST SWAP2 POP PUSH2 0x35E DUP3 PUSH2 0x343 JUMP JUMPDEST PUSH1 0x0 DUP3 ADD SWAP1 POP SWAP2 SWAP1 POP JUMP JUMPDEST PUSH1 0x0 PUSH2 0x374 DUP3 PUSH2 0x346 JUMP JUMPDEST SWAP2 POP DUP2 SWAP1 POP SWAP2 SWAP1 POP JUMP JUMPDEST PUSH1 0x0 DUP2 ISZERO ISZERO SWAP1 POP SWAP2 SWAP1 POP JUMP JUMPDEST PUSH2 0x393 DUP2 PUSH2 0x37E JUMP JUMPDEST DUP3 MSTORE POP POP JUMP JUMPDEST PUSH1 0x0 DUP2 MLOAD SWAP1 POP SWAP2 SWAP1 POP JUMP JUMPDEST PUSH1 0x0 DUP3 DUP3 MSTORE PUSH1 0x20 DUP3 ADD SWAP1 POP SWAP3 SWAP2 POP POP JUMP JUMPDEST PUSH1 0x0 JUMPDEST DUP4 DUP2 LT ISZERO PUSH2 0x3D3 JUMPI DUP1 DUP3 ADD MLOAD DUP2 DUP5 ADD MSTORE PUSH1 0x20 DUP2 ADD SWAP1 POP PUSH2 0x3B8 JUMP JUMPDEST PUSH1 0x0 DUP5 DUP5 ADD MSTORE POP POP POP POP JUMP JUMPDEST PUSH1 0x0 PUSH1 0x1F NOT PUSH1 0x1F DUP4 ADD AND SWAP1 POP SWAP2 SWAP1 POP JUMP JUMPDEST PUSH1 0x0 PUSH2 0x3FB DUP3 PUSH2 0x399 JUMP JUMPDEST PUSH2 0x405 DUP2 DUP6 PUSH2 0x3A4 JUMP JUMPDEST SWAP4 POP PUSH2 0x415 DUP2 DUP6 PUSH1 0x20 DUP7 ADD PUSH2 0x3B5 JUMP JUMPDEST PUSH2 0x41E DUP2 PUSH2 0x3DF JUMP JUMPDEST DUP5 ADD SWAP2 POP POP SWAP3 SWAP2 POP POP JUMP JUMPDEST PUSH1 0x0 PUSH1 0x40 DUP3 ADD SWAP1 POP PUSH2 0x43E PUSH1 0x0 DUP4 ADD DUP6 PUSH2 0x38A JUMP JUMPDEST DUP2 DUP2 SUB PUSH1 0x20 DUP4 ADD MSTORE PUSH2 0x450 DUP2 DUP5 PUSH2 0x3F0 JUMP JUMPDEST SWAP1 POP SWAP4 SWAP3 POP POP POP JUMP JUMPDEST PUSH1 0x0 DUP3 DUP3 MSTORE PUSH1 0x20 DUP3 ADD SWAP1 POP SWAP3 SWAP2 POP POP JUMP JUMPDEST PUSH32 0x456C20656E76696F2068612066616C6C61646F00000000000000000000000000 PUSH1 0x0 DUP3 ADD MSTORE POP JUMP JUMPDEST PUSH1 0x0 PUSH2 0x4A0 PUSH1 0x13 DUP4 PUSH2 0x459 JUMP JUMPDEST SWAP2 POP PUSH2 0x4AB DUP3 PUSH2 0x46A JUMP JUMPDEST PUSH1 0x20 DUP3 ADD SWAP1 POP SWAP2 SWAP1 POP JUMP JUMPDEST PUSH1 0x0 PUSH1 0x20 DUP3 ADD SWAP1 POP DUP2 DUP2 SUB PUSH1 0x0 DUP4 ADD MSTORE PUSH2 0x4CF DUP2 PUSH2 0x493 JUMP JUMPDEST SWAP1 POP SWAP2 SWAP1 POP JUMP JUMPDEST PUSH1 0x0 PUSH1 0x20 DUP3 ADD SWAP1 POP PUSH2 0x4EB PUSH1 0x0 DUP4 ADD DUP5 PUSH2 0x38A JUMP JUMPDEST SWAP3 SWAP2 POP POP JUMP INVALID LOG2 PUSH5 0x6970667358 0x22 SLT KECCAK256 DELEGATECALL DUP5 PUSH26 0x9E4A9B4452A8A6DB6261C25256F2DE74540DF2F283A3529C0271 0x26 SWAP8 BALANCE PUSH5 0x736F6C6343 STOP ADDMOD SLT STOP CALLER "
				},
				"gasEstimates": {
					"creation": {
						"codeDepositCost": "263800",
						"executionCost": "282",
						"totalCost": "264082"
					},
					"external": {
						"enviarViaCall(address)": "infinite",
						"enviarViaSend(address)": "infinite",
						"enviarViaTransfer(address)": "infinite"
					}
				},
				"methodIdentifiers": {
					"enviarViaCall(address)": "26126535",
					"enviarViaSend(address)": "b9cc8f78",
					"enviarViaTransfer(address)": "3bdc5571"
				}
			},
			"storageLayout": {
				"storage": [],
				"types": null
			},
			"userdoc": {
				"kind": "user",
				"methods": {},
				"version": 1
			}
		}
	}
}