{
	"contracts/agregarInvetarioPOS.sol": {
		"Productos": {
			"abi": [
				{
					"inputs": [],
					"stateMutability": "nonpayable",
					"type": "constructor"
				},
				{
					"anonymous": false,
					"inputs": [
						{
							"indexed": false,
							"internalType": "uint256",
							"name": "productId",
							"type": "uint256"
						},
						{
							"indexed": false,
							"internalType": "string",
							"name": "name",
							"type": "string"
						},
						{
							"indexed": false,
							"internalType": "string",
							"name": "description",
							"type": "string"
						},
						{
							"indexed": false,
							"internalType": "uint256",
							"name": "stock",
							"type": "uint256"
						},
						{
							"indexed": false,
							"internalType": "string",
							"name": "expirationDate",
							"type": "string"
						},
						{
							"indexed": false,
							"internalType": "uint256",
							"name": "price",
							"type": "uint256"
						},
						{
							"indexed": false,
							"internalType": "address",
							"name": "seller",
							"type": "address"
						}
					],
					"name": "ProductAdded",
					"type": "event"
				},
				{
					"anonymous": false,
					"inputs": [
						{
							"indexed": true,
							"internalType": "uint256",
							"name": "productId",
							"type": "uint256"
						},
						{
							"indexed": false,
							"internalType": "string",
							"name": "name",
							"type": "string"
						},
						{
							"indexed": false,
							"internalType": "string",
							"name": "description",
							"type": "string"
						},
						{
							"indexed": false,
							"internalType": "uint256",
							"name": "stock",
							"type": "uint256"
						},
						{
							"indexed": false,
							"internalType": "string",
							"name": "expirationDate",
							"type": "string"
						},
						{
							"indexed": false,
							"internalType": "uint256",
							"name": "price",
							"type": "uint256"
						}
					],
					"name": "ProductDeleted",
					"type": "event"
				},
				{
					"anonymous": false,
					"inputs": [
						{
							"indexed": true,
							"internalType": "uint256",
							"name": "productId",
							"type": "uint256"
						},
						{
							"indexed": false,
							"internalType": "string",
							"name": "newName",
							"type": "string"
						},
						{
							"indexed": false,
							"internalType": "string",
							"name": "newDescription",
							"type": "string"
						},
						{
							"indexed": false,
							"internalType": "uint256",
							"name": "newStock",
							"type": "uint256"
						},
						{
							"indexed": false,
							"internalType": "string",
							"name": "newExpirationDate",
							"type": "string"
						},
						{
							"indexed": false,
							"internalType": "uint256",
							"name": "newPrice",
							"type": "uint256"
						}
					],
					"name": "ProductEdited",
					"type": "event"
				},
				{
					"anonymous": false,
					"inputs": [
						{
							"indexed": false,
							"internalType": "uint256",
							"name": "productId",
							"type": "uint256"
						},
						{
							"indexed": false,
							"internalType": "string",
							"name": "name",
							"type": "string"
						},
						{
							"indexed": false,
							"internalType": "uint256",
							"name": "quantity",
							"type": "uint256"
						},
						{
							"indexed": false,
							"internalType": "uint256",
							"name": "totalPrice",
							"type": "uint256"
						},
						{
							"indexed": false,
							"internalType": "address",
							"name": "buyer",
							"type": "address"
						}
					],
					"name": "ProductPurchased",
					"type": "event"
				},
				{
					"inputs": [
						{
							"internalType": "string",
							"name": "_name",
							"type": "string"
						},
						{
							"internalType": "string",
							"name": "_description",
							"type": "string"
						},
						{
							"internalType": "uint256",
							"name": "_stock",
							"type": "uint256"
						},
						{
							"internalType": "string",
							"name": "_expirationDate",
							"type": "string"
						},
						{
							"internalType": "uint256",
							"name": "_price",
							"type": "uint256"
						}
					],
					"name": "addProduct",
					"outputs": [],
					"stateMutability": "nonpayable",
					"type": "function"
				},
				{
					"inputs": [
						{
							"internalType": "uint256",
							"name": "_productId",
							"type": "uint256"
						}
					],
					"name": "decrementarStock",
					"outputs": [],
					"stateMutability": "nonpayable",
					"type": "function"
				},
				{
					"inputs": [
						{
							"internalType": "uint256",
							"name": "_productId",
							"type": "uint256"
						}
					],
					"name": "deleteProduct",
					"outputs": [],
					"stateMutability": "nonpayable",
					"type": "function"
				},
				{
					"inputs": [
						{
							"internalType": "uint256",
							"name": "_productId",
							"type": "uint256"
						},
						{
							"internalType": "string",
							"name": "_newName",
							"type": "string"
						},
						{
							"internalType": "string",
							"name": "_newDescription",
							"type": "string"
						},
						{
							"internalType": "uint256",
							"name": "_newStock",
							"type": "uint256"
						},
						{
							"internalType": "string",
							"name": "_newExpirationDate",
							"type": "string"
						},
						{
							"internalType": "uint256",
							"name": "_newPrice",
							"type": "uint256"
						}
					],
					"name": "editProduct",
					"outputs": [],
					"stateMutability": "nonpayable",
					"type": "function"
				},
				{
					"inputs": [
						{
							"internalType": "uint256",
							"name": "_productId",
							"type": "uint256"
						}
					],
					"name": "getProductDetails",
					"outputs": [
						{
							"internalType": "string",
							"name": "name",
							"type": "string"
						},
						{
							"internalType": "string",
							"name": "description",
							"type": "string"
						},
						{
							"internalType": "uint256",
							"name": "stock",
							"type": "uint256"
						},
						{
							"internalType": "string",
							"name": "expirationDate",
							"type": "string"
						},
						{
							"internalType": "uint256",
							"name": "price",
							"type": "uint256"
						}
					],
					"stateMutability": "view",
					"type": "function"
				},
				{
					"inputs": [],
					"name": "owner",
					"outputs": [
						{
							"internalType": "address",
							"name": "",
							"type": "address"
						}
					],
					"stateMutability": "view",
					"type": "function"
				},
				{
					"inputs": [],
					"name": "productCount",
					"outputs": [
						{
							"internalType": "uint256",
							"name": "",
							"type": "uint256"
						}
					],
					"stateMutability": "view",
					"type": "function"
				},
				{
					"inputs": [
						{
							"internalType": "uint256",
							"name": "",
							"type": "uint256"
						}
					],
					"name": "products",
					"outputs": [
						{
							"internalType": "uint256",
							"name": "id",
							"type": "uint256"
						},
						{
							"internalType": "string",
							"name": "name",
							"type": "string"
						},
						{
							"internalType": "string",
							"name": "description",
							"type": "string"
						},
						{
							"internalType": "uint256",
							"name": "stock",
							"type": "uint256"
						},
						{
							"internalType": "string",
							"name": "expirationDate",
							"type": "string"
						},
						{
							"internalType": "uint256",
							"name": "price",
							"type": "uint256"
						}
					],
					"stateMutability": "view",
					"type": "function"
				},
				{
					"inputs": [
						{
							"internalType": "uint256",
							"name": "_productId",
							"type": "uint256"
						},
						{
							"internalType": "uint256",
							"name": "_quantity",
							"type": "uint256"
						}
					],
					"name": "purchaseProduct",
					"outputs": [],
					"stateMutability": "payable",
					"type": "function"
				}
			],
			"devdoc": {
				"kind": "dev",
				"methods": {},
				"version": 1
			},
			"evm": {
				"assembly": "    /* \"contracts/agregarInvetarioPOS.sol\":65:5022  contract Productos{... */\n  mstore(0x40, 0x80)\n    /* \"contracts/agregarInvetarioPOS.sol\":925:1000  constructor() {... */\n  callvalue\n  dup1\n  iszero\n  tag_1\n  jumpi\n  0x00\n  dup1\n  revert\ntag_1:\n  pop\n    /* \"contracts/agregarInvetarioPOS.sol\":957:967  msg.sender */\n  caller\n    /* \"contracts/agregarInvetarioPOS.sol\":949:954  owner */\n  0x00\n  dup1\n    /* \"contracts/agregarInvetarioPOS.sol\":949:967  owner = msg.sender */\n  0x0100\n  exp\n  dup2\n  sload\n  dup2\n  0xffffffffffffffffffffffffffffffffffffffff\n  mul\n  not\n  and\n  swap1\n  dup4\n  0xffffffffffffffffffffffffffffffffffffffff\n  and\n  mul\n  or\n  swap1\n  sstore\n  pop\n    /* \"contracts/agregarInvetarioPOS.sol\":992:993  0 */\n  0x00\n    /* \"contracts/agregarInvetarioPOS.sol\":977:989  productCount */\n  0x01\n    /* \"contracts/agregarInvetarioPOS.sol\":977:993  productCount = 0 */\n  dup2\n  swap1\n  sstore\n  pop\n    /* \"contracts/agregarInvetarioPOS.sol\":65:5022  contract Productos{... */\n  dataSize(sub_0)\n  dup1\n  dataOffset(sub_0)\n  0x00\n  codecopy\n  0x00\n  return\nstop\n\nsub_0: assembly {\n        /* \"contracts/agregarInvetarioPOS.sol\":65:5022  contract Productos{... */\n      mstore(0x40, 0x80)\n      jumpi(tag_1, lt(calldatasize, 0x04))\n      shr(0xe0, calldataload(0x00))\n      dup1\n      0xa0440426\n      gt\n      tag_11\n      jumpi\n      dup1\n      0xa0440426\n      eq\n      tag_6\n      jumpi\n      dup1\n      0xe0f6ef87\n      eq\n      tag_7\n      jumpi\n      dup1\n      0xe324eb43\n      eq\n      tag_8\n      jumpi\n      dup1\n      0xed90c7b7\n      eq\n      tag_9\n      jumpi\n      dup1\n      0xff466595\n      eq\n      tag_10\n      jumpi\n      jump(tag_1)\n    tag_11:\n      dup1\n      0x56641d73\n      eq\n      tag_2\n      jumpi\n      dup1\n      0x6813b53b\n      eq\n      tag_3\n      jumpi\n      dup1\n      0x7acc0b20\n      eq\n      tag_4\n      jumpi\n      dup1\n      0x8da5cb5b\n      eq\n      tag_5\n      jumpi\n    tag_1:\n      0x00\n      dup1\n      revert\n        /* \"contracts/agregarInvetarioPOS.sol\":1950:2714  function editProduct(uint256 _productId, string memory _newName, string memory _newDescription, uint256 _newStock, string memory _newExpirationDate, uint256 _newPrice) public {... */\n    tag_2:\n      callvalue\n      dup1\n      iszero\n      tag_12\n      jumpi\n      0x00\n      dup1\n      revert\n    tag_12:\n      pop\n      tag_13\n      0x04\n      dup1\n      calldatasize\n      sub\n      dup2\n      add\n      swap1\n      tag_14\n      swap2\n      swap1\n      tag_15\n      jump\t// in\n    tag_14:\n      tag_16\n      jump\t// in\n    tag_13:\n      stop\n        /* \"contracts/agregarInvetarioPOS.sol\":4129:4557  function getProductDetails(uint256 _productId) public view returns (string memory name, string memory description, uint256 stock, string memory expirationDate, uint256 price){... */\n    tag_3:\n      callvalue\n      dup1\n      iszero\n      tag_17\n      jumpi\n      0x00\n      dup1\n      revert\n    tag_17:\n      pop\n      tag_18\n      0x04\n      dup1\n      calldatasize\n      sub\n      dup2\n      add\n      swap1\n      tag_19\n      swap2\n      swap1\n      tag_20\n      jump\t// in\n    tag_19:\n      tag_21\n      jump\t// in\n    tag_18:\n      mload(0x40)\n      tag_22\n      swap6\n      swap5\n      swap4\n      swap3\n      swap2\n      swap1\n      tag_23\n      jump\t// in\n    tag_22:\n      mload(0x40)\n      dup1\n      swap2\n      sub\n      swap1\n      return\n        /* \"contracts/agregarInvetarioPOS.sol\":324:367  mapping(uint256 => Product) public products */\n    tag_4:\n      callvalue\n      dup1\n      iszero\n      tag_24\n      jumpi\n      0x00\n      dup1\n      revert\n    tag_24:\n      pop\n      tag_25\n      0x04\n      dup1\n      calldatasize\n      sub\n      dup2\n      add\n      swap1\n      tag_26\n      swap2\n      swap1\n      tag_20\n      jump\t// in\n    tag_26:\n      tag_27\n      jump\t// in\n    tag_25:\n      mload(0x40)\n      tag_28\n      swap7\n      swap6\n      swap5\n      swap4\n      swap3\n      swap2\n      swap1\n      tag_29\n      jump\t// in\n    tag_28:\n      mload(0x40)\n      dup1\n      swap2\n      sub\n      swap1\n      return\n        /* \"contracts/agregarInvetarioPOS.sol\":90:110  address public owner */\n    tag_5:\n      callvalue\n      dup1\n      iszero\n      tag_30\n      jumpi\n      0x00\n      dup1\n      revert\n    tag_30:\n      pop\n      tag_31\n      tag_32\n      jump\t// in\n    tag_31:\n      mload(0x40)\n      tag_33\n      swap2\n      swap1\n      tag_34\n      jump\t// in\n    tag_33:\n      mload(0x40)\n      dup1\n      swap2\n      sub\n      swap1\n      return\n        /* \"contracts/agregarInvetarioPOS.sol\":3473:4123  function purchaseProduct(uint256 _productId, uint256 _quantity) public payable {... */\n    tag_6:\n      tag_35\n      0x04\n      dup1\n      calldatasize\n      sub\n      dup2\n      add\n      swap1\n      tag_36\n      swap2\n      swap1\n      tag_37\n      jump\t// in\n    tag_36:\n      tag_38\n      jump\t// in\n    tag_35:\n      stop\n        /* \"contracts/agregarInvetarioPOS.sol\":116:143  uint256 public productCount */\n    tag_7:\n      callvalue\n      dup1\n      iszero\n      tag_39\n      jumpi\n      0x00\n      dup1\n      revert\n    tag_39:\n      pop\n      tag_40\n      tag_41\n      jump\t// in\n    tag_40:\n      mload(0x40)\n      tag_42\n      swap2\n      swap1\n      tag_43\n      jump\t// in\n    tag_42:\n      mload(0x40)\n      dup1\n      swap2\n      sub\n      swap1\n      return\n        /* \"contracts/agregarInvetarioPOS.sol\":1142:1944  function addProduct(string memory _name, string memory _description, uint256 _stock, string memory _expirationDate, uint256 _price) public {... */\n    tag_8:\n      callvalue\n      dup1\n      iszero\n      tag_44\n      jumpi\n      0x00\n      dup1\n      revert\n    tag_44:\n      pop\n      tag_45\n      0x04\n      dup1\n      calldatasize\n      sub\n      dup2\n      add\n      swap1\n      tag_46\n      swap2\n      swap1\n      tag_47\n      jump\t// in\n    tag_46:\n      tag_48\n      jump\t// in\n    tag_45:\n      stop\n        /* \"contracts/agregarInvetarioPOS.sol\":2720:3467  function deleteProduct(uint256 _productId) public  {... */\n    tag_9:\n      callvalue\n      dup1\n      iszero\n      tag_49\n      jumpi\n      0x00\n      dup1\n      revert\n    tag_49:\n      pop\n      tag_50\n      0x04\n      dup1\n      calldatasize\n      sub\n      dup2\n      add\n      swap1\n      tag_51\n      swap2\n      swap1\n      tag_20\n      jump\t// in\n    tag_51:\n      tag_52\n      jump\t// in\n    tag_50:\n      stop\n        /* \"contracts/agregarInvetarioPOS.sol\":4563:5020  function decrementarStock(uint256 _productId) public  {... */\n    tag_10:\n      callvalue\n      dup1\n      iszero\n      tag_53\n      jumpi\n      0x00\n      dup1\n      revert\n    tag_53:\n      pop\n      tag_54\n      0x04\n      dup1\n      calldatasize\n      sub\n      dup2\n      add\n      swap1\n      tag_55\n      swap2\n      swap1\n      tag_20\n      jump\t// in\n    tag_55:\n      tag_56\n      jump\t// in\n    tag_54:\n      stop\n        /* \"contracts/agregarInvetarioPOS.sol\":1950:2714  function editProduct(uint256 _productId, string memory _newName, string memory _newDescription, uint256 _newStock, string memory _newExpirationDate, uint256 _newPrice) public {... */\n    tag_16:\n        /* \"contracts/agregarInvetarioPOS.sol\":2303:2326  Product storage product */\n      0x00\n        /* \"contracts/agregarInvetarioPOS.sol\":2329:2337  products */\n      0x02\n        /* \"contracts/agregarInvetarioPOS.sol\":2329:2349  products[_productId] */\n      0x00\n        /* \"contracts/agregarInvetarioPOS.sol\":2338:2348  _productId */\n      dup9\n        /* \"contracts/agregarInvetarioPOS.sol\":2329:2349  products[_productId] */\n      dup2\n      mstore\n      0x20\n      add\n      swap1\n      dup2\n      mstore\n      0x20\n      add\n      0x00\n      keccak256\n        /* \"contracts/agregarInvetarioPOS.sol\":2303:2349  Product storage product = products[_productId] */\n      swap1\n      pop\n        /* \"contracts/agregarInvetarioPOS.sol\":2423:2431  _newName */\n      dup6\n        /* \"contracts/agregarInvetarioPOS.sol\":2408:2415  product */\n      dup2\n        /* \"contracts/agregarInvetarioPOS.sol\":2408:2420  product.name */\n      0x01\n      add\n        /* \"contracts/agregarInvetarioPOS.sol\":2408:2431  product.name = _newName */\n      swap1\n      dup2\n      tag_58\n      swap2\n      swap1\n      tag_59\n      jump\t// in\n    tag_58:\n      pop\n        /* \"contracts/agregarInvetarioPOS.sol\":2463:2478  _newDescription */\n      dup5\n        /* \"contracts/agregarInvetarioPOS.sol\":2441:2448  product */\n      dup2\n        /* \"contracts/agregarInvetarioPOS.sol\":2441:2460  product.description */\n      0x02\n      add\n        /* \"contracts/agregarInvetarioPOS.sol\":2441:2478  product.description = _newDescription */\n      swap1\n      dup2\n      tag_60\n      swap2\n      swap1\n      tag_59\n      jump\t// in\n    tag_60:\n      pop\n        /* \"contracts/agregarInvetarioPOS.sol\":2504:2513  _newStock */\n      dup4\n        /* \"contracts/agregarInvetarioPOS.sol\":2488:2495  product */\n      dup2\n        /* \"contracts/agregarInvetarioPOS.sol\":2488:2501  product.stock */\n      0x03\n      add\n        /* \"contracts/agregarInvetarioPOS.sol\":2488:2513  product.stock = _newStock */\n      dup2\n      swap1\n      sstore\n      pop\n        /* \"contracts/agregarInvetarioPOS.sol\":2548:2566  _newExpirationDate */\n      dup3\n        /* \"contracts/agregarInvetarioPOS.sol\":2523:2530  product */\n      dup2\n        /* \"contracts/agregarInvetarioPOS.sol\":2523:2545  product.expirationDate */\n      0x04\n      add\n        /* \"contracts/agregarInvetarioPOS.sol\":2523:2566  product.expirationDate = _newExpirationDate */\n      swap1\n      dup2\n      tag_61\n      swap2\n      swap1\n      tag_59\n      jump\t// in\n    tag_61:\n      pop\n        /* \"contracts/agregarInvetarioPOS.sol\":2592:2601  _newPrice */\n      dup2\n        /* \"contracts/agregarInvetarioPOS.sol\":2576:2583  product */\n      dup2\n        /* \"contracts/agregarInvetarioPOS.sol\":2576:2589  product.price */\n      0x05\n      add\n        /* \"contracts/agregarInvetarioPOS.sol\":2576:2601  product.price = _newPrice */\n      dup2\n      swap1\n      sstore\n      pop\n        /* \"contracts/agregarInvetarioPOS.sol\":2631:2641  _productId */\n      dup7\n        /* \"contracts/agregarInvetarioPOS.sol\":2617:2711  ProductEdited(_productId, _newName, _newDescription, _newStock, _newExpirationDate, _newPrice) */\n      0x43202ee2497bac5c3861fec10b2582c2a1291b84555dd19c5bddb0645c04c2a7\n        /* \"contracts/agregarInvetarioPOS.sol\":2643:2651  _newName */\n      dup8\n        /* \"contracts/agregarInvetarioPOS.sol\":2653:2668  _newDescription */\n      dup8\n        /* \"contracts/agregarInvetarioPOS.sol\":2670:2679  _newStock */\n      dup8\n        /* \"contracts/agregarInvetarioPOS.sol\":2681:2699  _newExpirationDate */\n      dup8\n        /* \"contracts/agregarInvetarioPOS.sol\":2701:2710  _newPrice */\n      dup8\n        /* \"contracts/agregarInvetarioPOS.sol\":2617:2711  ProductEdited(_productId, _newName, _newDescription, _newStock, _newExpirationDate, _newPrice) */\n      mload(0x40)\n      tag_62\n      swap6\n      swap5\n      swap4\n      swap3\n      swap2\n      swap1\n      tag_23\n      jump\t// in\n    tag_62:\n      mload(0x40)\n      dup1\n      swap2\n      sub\n      swap1\n      log2\n        /* \"contracts/agregarInvetarioPOS.sol\":2125:2714  {... */\n      pop\n        /* \"contracts/agregarInvetarioPOS.sol\":1950:2714  function editProduct(uint256 _productId, string memory _newName, string memory _newDescription, uint256 _newStock, string memory _newExpirationDate, uint256 _newPrice) public {... */\n      pop\n      pop\n      pop\n      pop\n      pop\n      pop\n      jump\t// out\n        /* \"contracts/agregarInvetarioPOS.sol\":4129:4557  function getProductDetails(uint256 _productId) public view returns (string memory name, string memory description, uint256 stock, string memory expirationDate, uint256 price){... */\n    tag_21:\n        /* \"contracts/agregarInvetarioPOS.sol\":4197:4215  string memory name */\n      0x60\n        /* \"contracts/agregarInvetarioPOS.sol\":4217:4242  string memory description */\n      dup1\n        /* \"contracts/agregarInvetarioPOS.sol\":4244:4257  uint256 stock */\n      0x00\n        /* \"contracts/agregarInvetarioPOS.sol\":4259:4287  string memory expirationDate */\n      0x60\n        /* \"contracts/agregarInvetarioPOS.sol\":4289:4302  uint256 price */\n      0x00\n        /* \"contracts/agregarInvetarioPOS.sol\":4334:4335  0 */\n      dup1\n        /* \"contracts/agregarInvetarioPOS.sol\":4321:4331  _productId */\n      dup7\n        /* \"contracts/agregarInvetarioPOS.sol\":4321:4335  _productId > 0 */\n      gt\n        /* \"contracts/agregarInvetarioPOS.sol\":4321:4365  _productId > 0 && _productId <= productCount */\n      dup1\n      iszero\n      tag_64\n      jumpi\n      pop\n        /* \"contracts/agregarInvetarioPOS.sol\":4353:4365  productCount */\n      sload(0x01)\n        /* \"contracts/agregarInvetarioPOS.sol\":4339:4349  _productId */\n      dup7\n        /* \"contracts/agregarInvetarioPOS.sol\":4339:4365  _productId <= productCount */\n      gt\n      iszero\n        /* \"contracts/agregarInvetarioPOS.sol\":4321:4365  _productId > 0 && _productId <= productCount */\n    tag_64:\n        /* \"contracts/agregarInvetarioPOS.sol\":4313:4388  require(_productId > 0 && _productId <= productCount, \"Invalid product ID\") */\n      tag_65\n      jumpi\n      mload(0x40)\n      0x08c379a000000000000000000000000000000000000000000000000000000000\n      dup2\n      mstore\n      0x04\n      add\n      tag_66\n      swap1\n      tag_67\n      jump\t// in\n    tag_66:\n      mload(0x40)\n      dup1\n      swap2\n      sub\n      swap1\n      revert\n    tag_65:\n        /* \"contracts/agregarInvetarioPOS.sol\":4398:4421  Product storage product */\n      0x00\n        /* \"contracts/agregarInvetarioPOS.sol\":4424:4432  products */\n      0x02\n        /* \"contracts/agregarInvetarioPOS.sol\":4424:4444  products[_productId] */\n      0x00\n        /* \"contracts/agregarInvetarioPOS.sol\":4433:4443  _productId */\n      dup9\n        /* \"contracts/agregarInvetarioPOS.sol\":4424:4444  products[_productId] */\n      dup2\n      mstore\n      0x20\n      add\n      swap1\n      dup2\n      mstore\n      0x20\n      add\n      0x00\n      keccak256\n        /* \"contracts/agregarInvetarioPOS.sol\":4398:4444  Product storage product = products[_productId] */\n      swap1\n      pop\n        /* \"contracts/agregarInvetarioPOS.sol\":4462:4469  product */\n      dup1\n        /* \"contracts/agregarInvetarioPOS.sol\":4462:4474  product.name */\n      0x01\n      add\n        /* \"contracts/agregarInvetarioPOS.sol\":4476:4483  product */\n      dup2\n        /* \"contracts/agregarInvetarioPOS.sol\":4476:4495  product.description */\n      0x02\n      add\n        /* \"contracts/agregarInvetarioPOS.sol\":4497:4504  product */\n      dup3\n        /* \"contracts/agregarInvetarioPOS.sol\":4497:4510  product.stock */\n      0x03\n      add\n      sload\n        /* \"contracts/agregarInvetarioPOS.sol\":4512:4519  product */\n      dup4\n        /* \"contracts/agregarInvetarioPOS.sol\":4512:4534  product.expirationDate */\n      0x04\n      add\n        /* \"contracts/agregarInvetarioPOS.sol\":4536:4543  product */\n      dup5\n        /* \"contracts/agregarInvetarioPOS.sol\":4536:4549  product.price */\n      0x05\n      add\n      sload\n        /* \"contracts/agregarInvetarioPOS.sol\":4454:4550  return (product.name, product.description, product.stock, product.expirationDate, product.price) */\n      dup5\n      dup1\n      sload\n      tag_68\n      swap1\n      tag_69\n      jump\t// in\n    tag_68:\n      dup1\n      0x1f\n      add\n      0x20\n      dup1\n      swap2\n      div\n      mul\n      0x20\n      add\n      mload(0x40)\n      swap1\n      dup2\n      add\n      0x40\n      mstore\n      dup1\n      swap3\n      swap2\n      swap1\n      dup2\n      dup2\n      mstore\n      0x20\n      add\n      dup3\n      dup1\n      sload\n      tag_70\n      swap1\n      tag_69\n      jump\t// in\n    tag_70:\n      dup1\n      iszero\n      tag_71\n      jumpi\n      dup1\n      0x1f\n      lt\n      tag_72\n      jumpi\n      0x0100\n      dup1\n      dup4\n      sload\n      div\n      mul\n      dup4\n      mstore\n      swap2\n      0x20\n      add\n      swap2\n      jump(tag_71)\n    tag_72:\n      dup3\n      add\n      swap2\n      swap1\n      0x00\n      mstore\n      keccak256(0x00, 0x20)\n      swap1\n    tag_73:\n      dup2\n      sload\n      dup2\n      mstore\n      swap1\n      0x01\n      add\n      swap1\n      0x20\n      add\n      dup1\n      dup4\n      gt\n      tag_73\n      jumpi\n      dup3\n      swap1\n      sub\n      0x1f\n      and\n      dup3\n      add\n      swap2\n    tag_71:\n      pop\n      pop\n      pop\n      pop\n      pop\n      swap5\n      pop\n      dup4\n      dup1\n      sload\n      tag_74\n      swap1\n      tag_69\n      jump\t// in\n    tag_74:\n      dup1\n      0x1f\n      add\n      0x20\n      dup1\n      swap2\n      div\n      mul\n      0x20\n      add\n      mload(0x40)\n      swap1\n      dup2\n      add\n      0x40\n      mstore\n      dup1\n      swap3\n      swap2\n      swap1\n      dup2\n      dup2\n      mstore\n      0x20\n      add\n      dup3\n      dup1\n      sload\n      tag_75\n      swap1\n      tag_69\n      jump\t// in\n    tag_75:\n      dup1\n      iszero\n      tag_76\n      jumpi\n      dup1\n      0x1f\n      lt\n      tag_77\n      jumpi\n      0x0100\n      dup1\n      dup4\n      sload\n      div\n      mul\n      dup4\n      mstore\n      swap2\n      0x20\n      add\n      swap2\n      jump(tag_76)\n    tag_77:\n      dup3\n      add\n      swap2\n      swap1\n      0x00\n      mstore\n      keccak256(0x00, 0x20)\n      swap1\n    tag_78:\n      dup2\n      sload\n      dup2\n      mstore\n      swap1\n      0x01\n      add\n      swap1\n      0x20\n      add\n      dup1\n      dup4\n      gt\n      tag_78\n      jumpi\n      dup3\n      swap1\n      sub\n      0x1f\n      and\n      dup3\n      add\n      swap2\n    tag_76:\n      pop\n      pop\n      pop\n      pop\n      pop\n      swap4\n      pop\n      dup2\n      dup1\n      sload\n      tag_79\n      swap1\n      tag_69\n      jump\t// in\n    tag_79:\n      dup1\n      0x1f\n      add\n      0x20\n      dup1\n      swap2\n      div\n      mul\n      0x20\n      add\n      mload(0x40)\n      swap1\n      dup2\n      add\n      0x40\n      mstore\n      dup1\n      swap3\n      swap2\n      swap1\n      dup2\n      dup2\n      mstore\n      0x20\n      add\n      dup3\n      dup1\n      sload\n      tag_80\n      swap1\n      tag_69\n      jump\t// in\n    tag_80:\n      dup1\n      iszero\n      tag_81\n      jumpi\n      dup1\n      0x1f\n      lt\n      tag_82\n      jumpi\n      0x0100\n      dup1\n      dup4\n      sload\n      div\n      mul\n      dup4\n      mstore\n      swap2\n      0x20\n      add\n      swap2\n      jump(tag_81)\n    tag_82:\n      dup3\n      add\n      swap2\n      swap1\n      0x00\n      mstore\n      keccak256(0x00, 0x20)\n      swap1\n    tag_83:\n      dup2\n      sload\n      dup2\n      mstore\n      swap1\n      0x01\n      add\n      swap1\n      0x20\n      add\n      dup1\n      dup4\n      gt\n      tag_83\n      jumpi\n      dup3\n      swap1\n      sub\n      0x1f\n      and\n      dup3\n      add\n      swap2\n    tag_81:\n      pop\n      pop\n      pop\n      pop\n      pop\n      swap2\n      pop\n      swap6\n      pop\n      swap6\n      pop\n      swap6\n      pop\n      swap6\n      pop\n      swap6\n      pop\n      pop\n        /* \"contracts/agregarInvetarioPOS.sol\":4129:4557  function getProductDetails(uint256 _productId) public view returns (string memory name, string memory description, uint256 stock, string memory expirationDate, uint256 price){... */\n      swap2\n      swap4\n      swap6\n      swap1\n      swap3\n      swap5\n      pop\n      jump\t// out\n        /* \"contracts/agregarInvetarioPOS.sol\":324:367  mapping(uint256 => Product) public products */\n    tag_27:\n      mstore(0x20, 0x02)\n      dup1\n      0x00\n      mstore\n      keccak256(0x00, 0x40)\n      0x00\n      swap2\n      pop\n      swap1\n      pop\n      dup1\n      0x00\n      add\n      sload\n      swap1\n      dup1\n      0x01\n      add\n      dup1\n      sload\n      tag_84\n      swap1\n      tag_69\n      jump\t// in\n    tag_84:\n      dup1\n      0x1f\n      add\n      0x20\n      dup1\n      swap2\n      div\n      mul\n      0x20\n      add\n      mload(0x40)\n      swap1\n      dup2\n      add\n      0x40\n      mstore\n      dup1\n      swap3\n      swap2\n      swap1\n      dup2\n      dup2\n      mstore\n      0x20\n      add\n      dup3\n      dup1\n      sload\n      tag_85\n      swap1\n      tag_69\n      jump\t// in\n    tag_85:\n      dup1\n      iszero\n      tag_86\n      jumpi\n      dup1\n      0x1f\n      lt\n      tag_87\n      jumpi\n      0x0100\n      dup1\n      dup4\n      sload\n      div\n      mul\n      dup4\n      mstore\n      swap2\n      0x20\n      add\n      swap2\n      jump(tag_86)\n    tag_87:\n      dup3\n      add\n      swap2\n      swap1\n      0x00\n      mstore\n      keccak256(0x00, 0x20)\n      swap1\n    tag_88:\n      dup2\n      sload\n      dup2\n      mstore\n      swap1\n      0x01\n      add\n      swap1\n      0x20\n      add\n      dup1\n      dup4\n      gt\n      tag_88\n      jumpi\n      dup3\n      swap1\n      sub\n      0x1f\n      and\n      dup3\n      add\n      swap2\n    tag_86:\n      pop\n      pop\n      pop\n      pop\n      pop\n      swap1\n      dup1\n      0x02\n      add\n      dup1\n      sload\n      tag_89\n      swap1\n      tag_69\n      jump\t// in\n    tag_89:\n      dup1\n      0x1f\n      add\n      0x20\n      dup1\n      swap2\n      div\n      mul\n      0x20\n      add\n      mload(0x40)\n      swap1\n      dup2\n      add\n      0x40\n      mstore\n      dup1\n      swap3\n      swap2\n      swap1\n      dup2\n      dup2\n      mstore\n      0x20\n      add\n      dup3\n      dup1\n      sload\n      tag_90\n      swap1\n      tag_69\n      jump\t// in\n    tag_90:\n      dup1\n      iszero\n      tag_91\n      jumpi\n      dup1\n      0x1f\n      lt\n      tag_92\n      jumpi\n      0x0100\n      dup1\n      dup4\n      sload\n      div\n      mul\n      dup4\n      mstore\n      swap2\n      0x20\n      add\n      swap2\n      jump(tag_91)\n    tag_92:\n      dup3\n      add\n      swap2\n      swap1\n      0x00\n      mstore\n      keccak256(0x00, 0x20)\n      swap1\n    tag_93:\n      dup2\n      sload\n      dup2\n      mstore\n      swap1\n      0x01\n      add\n      swap1\n      0x20\n      add\n      dup1\n      dup4\n      gt\n      tag_93\n      jumpi\n      dup3\n      swap1\n      sub\n      0x1f\n      and\n      dup3\n      add\n      swap2\n    tag_91:\n      pop\n      pop\n      pop\n      pop\n      pop\n      swap1\n      dup1\n      0x03\n      add\n      sload\n      swap1\n      dup1\n      0x04\n      add\n      dup1\n      sload\n      tag_94\n      swap1\n      tag_69\n      jump\t// in\n    tag_94:\n      dup1\n      0x1f\n      add\n      0x20\n      dup1\n      swap2\n      div\n      mul\n      0x20\n      add\n      mload(0x40)\n      swap1\n      dup2\n      add\n      0x40\n      mstore\n      dup1\n      swap3\n      swap2\n      swap1\n      dup2\n      dup2\n      mstore\n      0x20\n      add\n      dup3\n      dup1\n      sload\n      tag_95\n      swap1\n      tag_69\n      jump\t// in\n    tag_95:\n      dup1\n      iszero\n      tag_96\n      jumpi\n      dup1\n      0x1f\n      lt\n      tag_97\n      jumpi\n      0x0100\n      dup1\n      dup4\n      sload\n      div\n      mul\n      dup4\n      mstore\n      swap2\n      0x20\n      add\n      swap2\n      jump(tag_96)\n    tag_97:\n      dup3\n      add\n      swap2\n      swap1\n      0x00\n      mstore\n      keccak256(0x00, 0x20)\n      swap1\n    tag_98:\n      dup2\n      sload\n      dup2\n      mstore\n      swap1\n      0x01\n      add\n      swap1\n      0x20\n      add\n      dup1\n      dup4\n      gt\n      tag_98\n      jumpi\n      dup3\n      swap1\n      sub\n      0x1f\n      and\n      dup3\n      add\n      swap2\n    tag_96:\n      pop\n      pop\n      pop\n      pop\n      pop\n      swap1\n      dup1\n      0x05\n      add\n      sload\n      swap1\n      pop\n      dup7\n      jump\t// out\n        /* \"contracts/agregarInvetarioPOS.sol\":90:110  address public owner */\n    tag_32:\n      0x00\n      dup1\n      sload\n      swap1\n      0x0100\n      exp\n      swap1\n      div\n      0xffffffffffffffffffffffffffffffffffffffff\n      and\n      dup2\n      jump\t// out\n        /* \"contracts/agregarInvetarioPOS.sol\":3473:4123  function purchaseProduct(uint256 _productId, uint256 _quantity) public payable {... */\n    tag_38:\n        /* \"contracts/agregarInvetarioPOS.sol\":3583:3584  0 */\n      0x00\n        /* \"contracts/agregarInvetarioPOS.sol\":3570:3580  _productId */\n      dup3\n        /* \"contracts/agregarInvetarioPOS.sol\":3570:3584  _productId > 0 */\n      gt\n        /* \"contracts/agregarInvetarioPOS.sol\":3570:3614  _productId > 0 && _productId <= productCount */\n      dup1\n      iszero\n      tag_100\n      jumpi\n      pop\n        /* \"contracts/agregarInvetarioPOS.sol\":3602:3614  productCount */\n      sload(0x01)\n        /* \"contracts/agregarInvetarioPOS.sol\":3588:3598  _productId */\n      dup3\n        /* \"contracts/agregarInvetarioPOS.sol\":3588:3614  _productId <= productCount */\n      gt\n      iszero\n        /* \"contracts/agregarInvetarioPOS.sol\":3570:3614  _productId > 0 && _productId <= productCount */\n    tag_100:\n        /* \"contracts/agregarInvetarioPOS.sol\":3562:3637  require(_productId > 0 && _productId <= productCount, \"Invalid product ID\") */\n      tag_101\n      jumpi\n      mload(0x40)\n      0x08c379a000000000000000000000000000000000000000000000000000000000\n      dup2\n      mstore\n      0x04\n      add\n      tag_102\n      swap1\n      tag_67\n      jump\t// in\n    tag_102:\n      mload(0x40)\n      dup1\n      swap2\n      sub\n      swap1\n      revert\n    tag_101:\n        /* \"contracts/agregarInvetarioPOS.sol\":3647:3670  Product storage product */\n      0x00\n        /* \"contracts/agregarInvetarioPOS.sol\":3673:3681  products */\n      0x02\n        /* \"contracts/agregarInvetarioPOS.sol\":3673:3693  products[_productId] */\n      0x00\n        /* \"contracts/agregarInvetarioPOS.sol\":3682:3692  _productId */\n      dup5\n        /* \"contracts/agregarInvetarioPOS.sol\":3673:3693  products[_productId] */\n      dup2\n      mstore\n      0x20\n      add\n      swap1\n      dup2\n      mstore\n      0x20\n      add\n      0x00\n      keccak256\n        /* \"contracts/agregarInvetarioPOS.sol\":3647:3693  Product storage product = products[_productId] */\n      swap1\n      pop\n        /* \"contracts/agregarInvetarioPOS.sol\":3728:3737  _quantity */\n      dup2\n        /* \"contracts/agregarInvetarioPOS.sol\":3711:3718  product */\n      dup2\n        /* \"contracts/agregarInvetarioPOS.sol\":3711:3724  product.stock */\n      0x03\n      add\n      sload\n        /* \"contracts/agregarInvetarioPOS.sol\":3711:3737  product.stock >= _quantity */\n      lt\n      iszero\n        /* \"contracts/agregarInvetarioPOS.sol\":3703:3768  require(product.stock >= _quantity, \"Not enough stock available\") */\n      tag_103\n      jumpi\n      mload(0x40)\n      0x08c379a000000000000000000000000000000000000000000000000000000000\n      dup2\n      mstore\n      0x04\n      add\n      tag_104\n      swap1\n      tag_105\n      jump\t// in\n    tag_104:\n      mload(0x40)\n      dup1\n      swap2\n      sub\n      swap1\n      revert\n    tag_103:\n        /* \"contracts/agregarInvetarioPOS.sol\":3815:3824  _quantity */\n      dup2\n        /* \"contracts/agregarInvetarioPOS.sol\":3799:3806  product */\n      dup2\n        /* \"contracts/agregarInvetarioPOS.sol\":3799:3812  product.price */\n      0x05\n      add\n      sload\n        /* \"contracts/agregarInvetarioPOS.sol\":3799:3824  product.price * _quantity */\n      tag_106\n      swap2\n      swap1\n      tag_107\n      jump\t// in\n    tag_106:\n        /* \"contracts/agregarInvetarioPOS.sol\":3786:3795  msg.value */\n      callvalue\n        /* \"contracts/agregarInvetarioPOS.sol\":3786:3824  msg.value == product.price * _quantity */\n      eq\n        /* \"contracts/agregarInvetarioPOS.sol\":3778:3853  require(msg.value == product.price * _quantity, \"Incorrect payment amount\") */\n      tag_108\n      jumpi\n      mload(0x40)\n      0x08c379a000000000000000000000000000000000000000000000000000000000\n      dup2\n      mstore\n      0x04\n      add\n      tag_109\n      swap1\n      tag_110\n      jump\t// in\n    tag_109:\n      mload(0x40)\n      dup1\n      swap2\n      sub\n      swap1\n      revert\n    tag_108:\n        /* \"contracts/agregarInvetarioPOS.sol\":3918:3923  owner */\n      0x00\n      dup1\n      sload\n      swap1\n      0x0100\n      exp\n      swap1\n      div\n      0xffffffffffffffffffffffffffffffffffffffff\n      and\n        /* \"contracts/agregarInvetarioPOS.sol\":3910:3933  payable(owner).transfer */\n      0xffffffffffffffffffffffffffffffffffffffff\n      and\n        /* \"contracts/agregarInvetarioPOS.sol\":3910:3944  payable(owner).transfer(msg.value) */\n      0x08fc\n        /* \"contracts/agregarInvetarioPOS.sol\":3934:3943  msg.value */\n      callvalue\n        /* \"contracts/agregarInvetarioPOS.sol\":3910:3944  payable(owner).transfer(msg.value) */\n      swap1\n      dup2\n      iszero\n      mul\n      swap1\n      mload(0x40)\n      0x00\n      mload(0x40)\n      dup1\n      dup4\n      sub\n      dup2\n      dup6\n      dup9\n      dup9\n      call\n      swap4\n      pop\n      pop\n      pop\n      pop\n      iszero\n      dup1\n      iszero\n      tag_112\n      jumpi\n      returndatasize\n      0x00\n      dup1\n      returndatacopy\n      revert(0x00, returndatasize)\n    tag_112:\n      pop\n        /* \"contracts/agregarInvetarioPOS.sol\":4015:4024  _quantity */\n      dup2\n        /* \"contracts/agregarInvetarioPOS.sol\":3998:4005  product */\n      dup2\n        /* \"contracts/agregarInvetarioPOS.sol\":3998:4011  product.stock */\n      0x03\n      add\n      0x00\n        /* \"contracts/agregarInvetarioPOS.sol\":3998:4024  product.stock -= _quantity */\n      dup3\n      dup3\n      sload\n      tag_113\n      swap2\n      swap1\n      tag_114\n      jump\t// in\n    tag_113:\n      swap3\n      pop\n      pop\n      dup2\n      swap1\n      sstore\n      pop\n        /* \"contracts/agregarInvetarioPOS.sol\":4040:4116  ProductPurchased(_productId, product.name, _quantity, msg.value, msg.sender) */\n      0xd922a2fffde7c04efb85e105cb4324b2ebe96919a6a107b6c63afb85484b8da9\n        /* \"contracts/agregarInvetarioPOS.sol\":4057:4067  _productId */\n      dup4\n        /* \"contracts/agregarInvetarioPOS.sol\":4069:4076  product */\n      dup3\n        /* \"contracts/agregarInvetarioPOS.sol\":4069:4081  product.name */\n      0x01\n      add\n        /* \"contracts/agregarInvetarioPOS.sol\":4083:4092  _quantity */\n      dup5\n        /* \"contracts/agregarInvetarioPOS.sol\":4094:4103  msg.value */\n      callvalue\n        /* \"contracts/agregarInvetarioPOS.sol\":4105:4115  msg.sender */\n      caller\n        /* \"contracts/agregarInvetarioPOS.sol\":4040:4116  ProductPurchased(_productId, product.name, _quantity, msg.value, msg.sender) */\n      mload(0x40)\n      tag_115\n      swap6\n      swap5\n      swap4\n      swap3\n      swap2\n      swap1\n      tag_116\n      jump\t// in\n    tag_115:\n      mload(0x40)\n      dup1\n      swap2\n      sub\n      swap1\n      log1\n        /* \"contracts/agregarInvetarioPOS.sol\":3552:4123  {... */\n      pop\n        /* \"contracts/agregarInvetarioPOS.sol\":3473:4123  function purchaseProduct(uint256 _productId, uint256 _quantity) public payable {... */\n      pop\n      pop\n      jump\t// out\n        /* \"contracts/agregarInvetarioPOS.sol\":116:143  uint256 public productCount */\n    tag_41:\n      sload(0x01)\n      dup2\n      jump\t// out\n        /* \"contracts/agregarInvetarioPOS.sol\":1142:1944  function addProduct(string memory _name, string memory _description, uint256 _stock, string memory _expirationDate, uint256 _price) public {... */\n    tag_48:\n        /* \"contracts/agregarInvetarioPOS.sol\":1321:1322  0 */\n      0x00\n        /* \"contracts/agregarInvetarioPOS.sol\":1305:1310  _name */\n      dup6\n        /* \"contracts/agregarInvetarioPOS.sol\":1299:1318  bytes(_name).length */\n      mload\n        /* \"contracts/agregarInvetarioPOS.sol\":1299:1322  bytes(_name).length > 0 */\n      gt\n        /* \"contracts/agregarInvetarioPOS.sol\":1291:1355  require(bytes(_name).length > 0, \"Product name cannot be empty\") */\n      tag_118\n      jumpi\n      mload(0x40)\n      0x08c379a000000000000000000000000000000000000000000000000000000000\n      dup2\n      mstore\n      0x04\n      add\n      tag_119\n      swap1\n      tag_120\n      jump\t// in\n    tag_119:\n      mload(0x40)\n      dup1\n      swap2\n      sub\n      swap1\n      revert\n    tag_118:\n        /* \"contracts/agregarInvetarioPOS.sol\":1402:1403  0 */\n      0x00\n        /* \"contracts/agregarInvetarioPOS.sol\":1379:1391  _description */\n      dup5\n        /* \"contracts/agregarInvetarioPOS.sol\":1373:1399  bytes(_description).length */\n      mload\n        /* \"contracts/agregarInvetarioPOS.sol\":1373:1403  bytes(_description).length > 0 */\n      gt\n        /* \"contracts/agregarInvetarioPOS.sol\":1365:1443  require(bytes(_description).length > 0, \"Product description cannot be empty\") */\n      tag_121\n      jumpi\n      mload(0x40)\n      0x08c379a000000000000000000000000000000000000000000000000000000000\n      dup2\n      mstore\n      0x04\n      add\n      tag_122\n      swap1\n      tag_123\n      jump\t// in\n    tag_122:\n      mload(0x40)\n      dup1\n      swap2\n      sub\n      swap1\n      revert\n    tag_121:\n        /* \"contracts/agregarInvetarioPOS.sol\":1470:1471  0 */\n      0x00\n        /* \"contracts/agregarInvetarioPOS.sol\":1461:1467  _stock */\n      dup4\n        /* \"contracts/agregarInvetarioPOS.sol\":1461:1471  _stock > 0 */\n      gt\n        /* \"contracts/agregarInvetarioPOS.sol\":1453:1512  require(_stock > 0, \"Product stock must be greater than 0\") */\n      tag_124\n      jumpi\n      mload(0x40)\n      0x08c379a000000000000000000000000000000000000000000000000000000000\n      dup2\n      mstore\n      0x04\n      add\n      tag_125\n      swap1\n      tag_126\n      jump\t// in\n    tag_125:\n      mload(0x40)\n      dup1\n      swap2\n      sub\n      swap1\n      revert\n    tag_124:\n        /* \"contracts/agregarInvetarioPOS.sol\":1562:1563  0 */\n      0x00\n        /* \"contracts/agregarInvetarioPOS.sol\":1536:1551  _expirationDate */\n      dup3\n        /* \"contracts/agregarInvetarioPOS.sol\":1530:1559  bytes(_expirationDate).length */\n      mload\n        /* \"contracts/agregarInvetarioPOS.sol\":1530:1563  bytes(_expirationDate).length > 0 */\n      gt\n        /* \"contracts/agregarInvetarioPOS.sol\":1522:1607  require(bytes(_expirationDate).length > 0, \"Product expiration date cannot be empty\") */\n      tag_127\n      jumpi\n      mload(0x40)\n      0x08c379a000000000000000000000000000000000000000000000000000000000\n      dup2\n      mstore\n      0x04\n      add\n      tag_128\n      swap1\n      tag_129\n      jump\t// in\n    tag_128:\n      mload(0x40)\n      dup1\n      swap2\n      sub\n      swap1\n      revert\n    tag_127:\n        /* \"contracts/agregarInvetarioPOS.sol\":1635:1636  0 */\n      0x00\n        /* \"contracts/agregarInvetarioPOS.sol\":1625:1631  _price */\n      dup2\n        /* \"contracts/agregarInvetarioPOS.sol\":1625:1636  _price >= 0 */\n      lt\n      iszero\n        /* \"contracts/agregarInvetarioPOS.sol\":1617:1673  require(_price >= 0, \"Product price cannot be negative\") */\n      tag_130\n      jumpi\n      mload(0x40)\n      0x08c379a000000000000000000000000000000000000000000000000000000000\n      dup2\n      mstore\n      0x04\n      add\n      tag_131\n      swap1\n      tag_132\n      jump\t// in\n    tag_131:\n      mload(0x40)\n      dup1\n      swap2\n      sub\n      swap1\n      revert\n    tag_130:\n        /* \"contracts/agregarInvetarioPOS.sol\":1706:1718  productCount */\n      0x01\n      0x00\n        /* \"contracts/agregarInvetarioPOS.sol\":1706:1720  productCount++ */\n      dup2\n      sload\n      dup1\n      swap3\n      swap2\n      swap1\n      tag_133\n      swap1\n      tag_134\n      jump\t// in\n    tag_133:\n      swap2\n      swap1\n      pop\n      sstore\n      pop\n        /* \"contracts/agregarInvetarioPOS.sol\":1755:1830  Product(productCount, _name, _description, _stock, _expirationDate, _price) */\n      mload(0x40)\n      dup1\n      0xc0\n      add\n      0x40\n      mstore\n      dup1\n        /* \"contracts/agregarInvetarioPOS.sol\":1763:1775  productCount */\n      sload(0x01)\n        /* \"contracts/agregarInvetarioPOS.sol\":1755:1830  Product(productCount, _name, _description, _stock, _expirationDate, _price) */\n      dup2\n      mstore\n      0x20\n      add\n        /* \"contracts/agregarInvetarioPOS.sol\":1777:1782  _name */\n      dup7\n        /* \"contracts/agregarInvetarioPOS.sol\":1755:1830  Product(productCount, _name, _description, _stock, _expirationDate, _price) */\n      dup2\n      mstore\n      0x20\n      add\n        /* \"contracts/agregarInvetarioPOS.sol\":1784:1796  _description */\n      dup6\n        /* \"contracts/agregarInvetarioPOS.sol\":1755:1830  Product(productCount, _name, _description, _stock, _expirationDate, _price) */\n      dup2\n      mstore\n      0x20\n      add\n        /* \"contracts/agregarInvetarioPOS.sol\":1798:1804  _stock */\n      dup5\n        /* \"contracts/agregarInvetarioPOS.sol\":1755:1830  Product(productCount, _name, _description, _stock, _expirationDate, _price) */\n      dup2\n      mstore\n      0x20\n      add\n        /* \"contracts/agregarInvetarioPOS.sol\":1806:1821  _expirationDate */\n      dup4\n        /* \"contracts/agregarInvetarioPOS.sol\":1755:1830  Product(productCount, _name, _description, _stock, _expirationDate, _price) */\n      dup2\n      mstore\n      0x20\n      add\n        /* \"contracts/agregarInvetarioPOS.sol\":1823:1829  _price */\n      dup3\n        /* \"contracts/agregarInvetarioPOS.sol\":1755:1830  Product(productCount, _name, _description, _stock, _expirationDate, _price) */\n      dup2\n      mstore\n      pop\n        /* \"contracts/agregarInvetarioPOS.sol\":1730:1738  products */\n      0x02\n        /* \"contracts/agregarInvetarioPOS.sol\":1730:1752  products[productCount] */\n      0x00\n        /* \"contracts/agregarInvetarioPOS.sol\":1739:1751  productCount */\n      sload(0x01)\n        /* \"contracts/agregarInvetarioPOS.sol\":1730:1752  products[productCount] */\n      dup2\n      mstore\n      0x20\n      add\n      swap1\n      dup2\n      mstore\n      0x20\n      add\n      0x00\n      keccak256\n        /* \"contracts/agregarInvetarioPOS.sol\":1730:1830  products[productCount] = Product(productCount, _name, _description, _stock, _expirationDate, _price) */\n      0x00\n      dup3\n      add\n      mload\n      dup2\n      0x00\n      add\n      sstore\n      0x20\n      dup3\n      add\n      mload\n      dup2\n      0x01\n      add\n      swap1\n      dup2\n      tag_135\n      swap2\n      swap1\n      tag_59\n      jump\t// in\n    tag_135:\n      pop\n      0x40\n      dup3\n      add\n      mload\n      dup2\n      0x02\n      add\n      swap1\n      dup2\n      tag_136\n      swap2\n      swap1\n      tag_59\n      jump\t// in\n    tag_136:\n      pop\n      0x60\n      dup3\n      add\n      mload\n      dup2\n      0x03\n      add\n      sstore\n      0x80\n      dup3\n      add\n      mload\n      dup2\n      0x04\n      add\n      swap1\n      dup2\n      tag_137\n      swap2\n      swap1\n      tag_59\n      jump\t// in\n    tag_137:\n      pop\n      0xa0\n      dup3\n      add\n      mload\n      dup2\n      0x05\n      add\n      sstore\n      swap1\n      pop\n      pop\n        /* \"contracts/agregarInvetarioPOS.sol\":1845:1937  ProductAdded(productCount, _name, _description, _stock, _expirationDate, _price, msg.sender) */\n      0x5b97192fbdac5f86e3c2357b10ae099eb30b9263a92be777b80f46d3c59c8648\n        /* \"contracts/agregarInvetarioPOS.sol\":1858:1870  productCount */\n      sload(0x01)\n        /* \"contracts/agregarInvetarioPOS.sol\":1872:1877  _name */\n      dup7\n        /* \"contracts/agregarInvetarioPOS.sol\":1879:1891  _description */\n      dup7\n        /* \"contracts/agregarInvetarioPOS.sol\":1893:1899  _stock */\n      dup7\n        /* \"contracts/agregarInvetarioPOS.sol\":1901:1916  _expirationDate */\n      dup7\n        /* \"contracts/agregarInvetarioPOS.sol\":1918:1924  _price */\n      dup7\n        /* \"contracts/agregarInvetarioPOS.sol\":1926:1936  msg.sender */\n      caller\n        /* \"contracts/agregarInvetarioPOS.sol\":1845:1937  ProductAdded(productCount, _name, _description, _stock, _expirationDate, _price, msg.sender) */\n      mload(0x40)\n      tag_138\n      swap8\n      swap7\n      swap6\n      swap5\n      swap4\n      swap3\n      swap2\n      swap1\n      tag_139\n      jump\t// in\n    tag_138:\n      mload(0x40)\n      dup1\n      swap2\n      sub\n      swap1\n      log1\n        /* \"contracts/agregarInvetarioPOS.sol\":1142:1944  function addProduct(string memory _name, string memory _description, uint256 _stock, string memory _expirationDate, uint256 _price) public {... */\n      pop\n      pop\n      pop\n      pop\n      pop\n      jump\t// out\n        /* \"contracts/agregarInvetarioPOS.sol\":2720:3467  function deleteProduct(uint256 _productId) public  {... */\n    tag_52:\n        /* \"contracts/agregarInvetarioPOS.sol\":2952:2975  Product storage product */\n      0x00\n        /* \"contracts/agregarInvetarioPOS.sol\":2978:2986  products */\n      0x02\n        /* \"contracts/agregarInvetarioPOS.sol\":2978:2998  products[_productId] */\n      0x00\n        /* \"contracts/agregarInvetarioPOS.sol\":2987:2997  _productId */\n      dup4\n        /* \"contracts/agregarInvetarioPOS.sol\":2978:2998  products[_productId] */\n      dup2\n      mstore\n      0x20\n      add\n      swap1\n      dup2\n      mstore\n      0x20\n      add\n      0x00\n      keccak256\n        /* \"contracts/agregarInvetarioPOS.sol\":2952:2998  Product storage product = products[_productId] */\n      swap1\n      pop\n        /* \"contracts/agregarInvetarioPOS.sol\":3073:3091  string memory name */\n      0x00\n        /* \"contracts/agregarInvetarioPOS.sol\":3094:3101  product */\n      dup2\n        /* \"contracts/agregarInvetarioPOS.sol\":3094:3106  product.name */\n      0x01\n      add\n        /* \"contracts/agregarInvetarioPOS.sol\":3073:3106  string memory name = product.name */\n      dup1\n      sload\n      tag_141\n      swap1\n      tag_69\n      jump\t// in\n    tag_141:\n      dup1\n      0x1f\n      add\n      0x20\n      dup1\n      swap2\n      div\n      mul\n      0x20\n      add\n      mload(0x40)\n      swap1\n      dup2\n      add\n      0x40\n      mstore\n      dup1\n      swap3\n      swap2\n      swap1\n      dup2\n      dup2\n      mstore\n      0x20\n      add\n      dup3\n      dup1\n      sload\n      tag_142\n      swap1\n      tag_69\n      jump\t// in\n    tag_142:\n      dup1\n      iszero\n      tag_143\n      jumpi\n      dup1\n      0x1f\n      lt\n      tag_144\n      jumpi\n      0x0100\n      dup1\n      dup4\n      sload\n      div\n      mul\n      dup4\n      mstore\n      swap2\n      0x20\n      add\n      swap2\n      jump(tag_143)\n    tag_144:\n      dup3\n      add\n      swap2\n      swap1\n      0x00\n      mstore\n      keccak256(0x00, 0x20)\n      swap1\n    tag_145:\n      dup2\n      sload\n      dup2\n      mstore\n      swap1\n      0x01\n      add\n      swap1\n      0x20\n      add\n      dup1\n      dup4\n      gt\n      tag_145\n      jumpi\n      dup3\n      swap1\n      sub\n      0x1f\n      and\n      dup3\n      add\n      swap2\n    tag_143:\n      pop\n      pop\n      pop\n      pop\n      pop\n      swap1\n      pop\n        /* \"contracts/agregarInvetarioPOS.sol\":3116:3141  string memory description */\n      0x00\n        /* \"contracts/agregarInvetarioPOS.sol\":3144:3151  product */\n      dup3\n        /* \"contracts/agregarInvetarioPOS.sol\":3144:3163  product.description */\n      0x02\n      add\n        /* \"contracts/agregarInvetarioPOS.sol\":3116:3163  string memory description = product.description */\n      dup1\n      sload\n      tag_146\n      swap1\n      tag_69\n      jump\t// in\n    tag_146:\n      dup1\n      0x1f\n      add\n      0x20\n      dup1\n      swap2\n      div\n      mul\n      0x20\n      add\n      mload(0x40)\n      swap1\n      dup2\n      add\n      0x40\n      mstore\n      dup1\n      swap3\n      swap2\n      swap1\n      dup2\n      dup2\n      mstore\n      0x20\n      add\n      dup3\n      dup1\n      sload\n      tag_147\n      swap1\n      tag_69\n      jump\t// in\n    tag_147:\n      dup1\n      iszero\n      tag_148\n      jumpi\n      dup1\n      0x1f\n      lt\n      tag_149\n      jumpi\n      0x0100\n      dup1\n      dup4\n      sload\n      div\n      mul\n      dup4\n      mstore\n      swap2\n      0x20\n      add\n      swap2\n      jump(tag_148)\n    tag_149:\n      dup3\n      add\n      swap2\n      swap1\n      0x00\n      mstore\n      keccak256(0x00, 0x20)\n      swap1\n    tag_150:\n      dup2\n      sload\n      dup2\n      mstore\n      swap1\n      0x01\n      add\n      swap1\n      0x20\n      add\n      dup1\n      dup4\n      gt\n      tag_150\n      jumpi\n      dup3\n      swap1\n      sub\n      0x1f\n      and\n      dup3\n      add\n      swap2\n    tag_148:\n      pop\n      pop\n      pop\n      pop\n      pop\n      swap1\n      pop\n        /* \"contracts/agregarInvetarioPOS.sol\":3173:3186  uint256 stock */\n      0x00\n        /* \"contracts/agregarInvetarioPOS.sol\":3189:3196  product */\n      dup4\n        /* \"contracts/agregarInvetarioPOS.sol\":3189:3202  product.stock */\n      0x03\n      add\n      sload\n        /* \"contracts/agregarInvetarioPOS.sol\":3173:3202  uint256 stock = product.stock */\n      swap1\n      pop\n        /* \"contracts/agregarInvetarioPOS.sol\":3212:3240  string memory expirationDate */\n      0x00\n        /* \"contracts/agregarInvetarioPOS.sol\":3243:3250  product */\n      dup5\n        /* \"contracts/agregarInvetarioPOS.sol\":3243:3265  product.expirationDate */\n      0x04\n      add\n        /* \"contracts/agregarInvetarioPOS.sol\":3212:3265  string memory expirationDate = product.expirationDate */\n      dup1\n      sload\n      tag_151\n      swap1\n      tag_69\n      jump\t// in\n    tag_151:\n      dup1\n      0x1f\n      add\n      0x20\n      dup1\n      swap2\n      div\n      mul\n      0x20\n      add\n      mload(0x40)\n      swap1\n      dup2\n      add\n      0x40\n      mstore\n      dup1\n      swap3\n      swap2\n      swap1\n      dup2\n      dup2\n      mstore\n      0x20\n      add\n      dup3\n      dup1\n      sload\n      tag_152\n      swap1\n      tag_69\n      jump\t// in\n    tag_152:\n      dup1\n      iszero\n      tag_153\n      jumpi\n      dup1\n      0x1f\n      lt\n      tag_154\n      jumpi\n      0x0100\n      dup1\n      dup4\n      sload\n      div\n      mul\n      dup4\n      mstore\n      swap2\n      0x20\n      add\n      swap2\n      jump(tag_153)\n    tag_154:\n      dup3\n      add\n      swap2\n      swap1\n      0x00\n      mstore\n      keccak256(0x00, 0x20)\n      swap1\n    tag_155:\n      dup2\n      sload\n      dup2\n      mstore\n      swap1\n      0x01\n      add\n      swap1\n      0x20\n      add\n      dup1\n      dup4\n      gt\n      tag_155\n      jumpi\n      dup3\n      swap1\n      sub\n      0x1f\n      and\n      dup3\n      add\n      swap2\n    tag_153:\n      pop\n      pop\n      pop\n      pop\n      pop\n      swap1\n      pop\n        /* \"contracts/agregarInvetarioPOS.sol\":3275:3288  uint256 price */\n      0x00\n        /* \"contracts/agregarInvetarioPOS.sol\":3291:3298  product */\n      dup6\n        /* \"contracts/agregarInvetarioPOS.sol\":3291:3304  product.price */\n      0x05\n      add\n      sload\n        /* \"contracts/agregarInvetarioPOS.sol\":3275:3304  uint256 price = product.price */\n      swap1\n      pop\n        /* \"contracts/agregarInvetarioPOS.sol\":3353:3361  products */\n      0x02\n        /* \"contracts/agregarInvetarioPOS.sol\":3353:3373  products[_productId] */\n      0x00\n        /* \"contracts/agregarInvetarioPOS.sol\":3362:3372  _productId */\n      dup9\n        /* \"contracts/agregarInvetarioPOS.sol\":3353:3373  products[_productId] */\n      dup2\n      mstore\n      0x20\n      add\n      swap1\n      dup2\n      mstore\n      0x20\n      add\n      0x00\n      keccak256\n      0x00\n        /* \"contracts/agregarInvetarioPOS.sol\":3346:3373  delete products[_productId] */\n      dup1\n      dup3\n      add\n      0x00\n      swap1\n      sstore\n      0x01\n      dup3\n      add\n      0x00\n      tag_156\n      swap2\n      swap1\n      tag_157\n      jump\t// in\n    tag_156:\n      0x02\n      dup3\n      add\n      0x00\n      tag_158\n      swap2\n      swap1\n      tag_157\n      jump\t// in\n    tag_158:\n      0x03\n      dup3\n      add\n      0x00\n      swap1\n      sstore\n      0x04\n      dup3\n      add\n      0x00\n      tag_159\n      swap2\n      swap1\n      tag_157\n      jump\t// in\n    tag_159:\n      0x05\n      dup3\n      add\n      0x00\n      swap1\n      sstore\n      pop\n      pop\n        /* \"contracts/agregarInvetarioPOS.sol\":3404:3414  _productId */\n      dup7\n        /* \"contracts/agregarInvetarioPOS.sol\":3389:3464  ProductDeleted(_productId, name, description, stock, expirationDate, price) */\n      0xdbda2c6220968aa575be89715035f7593b361e9daef1b59ec7be0d7390a3c666\n        /* \"contracts/agregarInvetarioPOS.sol\":3416:3420  name */\n      dup7\n        /* \"contracts/agregarInvetarioPOS.sol\":3422:3433  description */\n      dup7\n        /* \"contracts/agregarInvetarioPOS.sol\":3435:3440  stock */\n      dup7\n        /* \"contracts/agregarInvetarioPOS.sol\":3442:3456  expirationDate */\n      dup7\n        /* \"contracts/agregarInvetarioPOS.sol\":3458:3463  price */\n      dup7\n        /* \"contracts/agregarInvetarioPOS.sol\":3389:3464  ProductDeleted(_productId, name, description, stock, expirationDate, price) */\n      mload(0x40)\n      tag_160\n      swap6\n      swap5\n      swap4\n      swap3\n      swap2\n      swap1\n      tag_23\n      jump\t// in\n    tag_160:\n      mload(0x40)\n      dup1\n      swap2\n      sub\n      swap1\n      log2\n        /* \"contracts/agregarInvetarioPOS.sol\":2771:3467  {... */\n      pop\n      pop\n      pop\n      pop\n      pop\n      pop\n        /* \"contracts/agregarInvetarioPOS.sol\":2720:3467  function deleteProduct(uint256 _productId) public  {... */\n      pop\n      jump\t// out\n        /* \"contracts/agregarInvetarioPOS.sol\":4563:5020  function decrementarStock(uint256 _productId) public  {... */\n    tag_56:\n        /* \"contracts/agregarInvetarioPOS.sol\":4644:4645  0 */\n      0x00\n        /* \"contracts/agregarInvetarioPOS.sol\":4631:4641  _productId */\n      dup2\n        /* \"contracts/agregarInvetarioPOS.sol\":4631:4645  _productId > 0 */\n      gt\n        /* \"contracts/agregarInvetarioPOS.sol\":4631:4675  _productId > 0 && _productId <= productCount */\n      dup1\n      iszero\n      tag_162\n      jumpi\n      pop\n        /* \"contracts/agregarInvetarioPOS.sol\":4663:4675  productCount */\n      sload(0x01)\n        /* \"contracts/agregarInvetarioPOS.sol\":4649:4659  _productId */\n      dup2\n        /* \"contracts/agregarInvetarioPOS.sol\":4649:4675  _productId <= productCount */\n      gt\n      iszero\n        /* \"contracts/agregarInvetarioPOS.sol\":4631:4675  _productId > 0 && _productId <= productCount */\n    tag_162:\n        /* \"contracts/agregarInvetarioPOS.sol\":4623:4698  require(_productId > 0 && _productId <= productCount, \"Invalid product ID\") */\n      tag_163\n      jumpi\n      mload(0x40)\n      0x08c379a000000000000000000000000000000000000000000000000000000000\n      dup2\n      mstore\n      0x04\n      add\n      tag_164\n      swap1\n      tag_67\n      jump\t// in\n    tag_164:\n      mload(0x40)\n      dup1\n      swap2\n      sub\n      swap1\n      revert\n    tag_163:\n        /* \"contracts/agregarInvetarioPOS.sol\":4704:4727  Product storage product */\n      0x00\n        /* \"contracts/agregarInvetarioPOS.sol\":4730:4738  products */\n      0x02\n        /* \"contracts/agregarInvetarioPOS.sol\":4730:4750  products[_productId] */\n      0x00\n        /* \"contracts/agregarInvetarioPOS.sol\":4739:4749  _productId */\n      dup4\n        /* \"contracts/agregarInvetarioPOS.sol\":4730:4750  products[_productId] */\n      dup2\n      mstore\n      0x20\n      add\n      swap1\n      dup2\n      mstore\n      0x20\n      add\n      0x00\n      keccak256\n        /* \"contracts/agregarInvetarioPOS.sol\":4704:4750  Product storage product = products[_productId] */\n      swap1\n      pop\n        /* \"contracts/agregarInvetarioPOS.sol\":4780:4781  0 */\n      0x00\n        /* \"contracts/agregarInvetarioPOS.sol\":4764:4771  product */\n      dup2\n        /* \"contracts/agregarInvetarioPOS.sol\":4764:4777  product.stock */\n      0x03\n      add\n      sload\n        /* \"contracts/agregarInvetarioPOS.sol\":4764:4781  product.stock > 0 */\n      gt\n        /* \"contracts/agregarInvetarioPOS.sol\":4756:4828  require(product.stock > 0, \"No hay stock disponible para este producto\") */\n      tag_165\n      jumpi\n      mload(0x40)\n      0x08c379a000000000000000000000000000000000000000000000000000000000\n      dup2\n      mstore\n      0x04\n      add\n      tag_166\n      swap1\n      tag_167\n      jump\t// in\n    tag_166:\n      mload(0x40)\n      dup1\n      swap2\n      sub\n      swap1\n      revert\n    tag_165:\n        /* \"contracts/agregarInvetarioPOS.sol\":4872:4879  product */\n      dup1\n        /* \"contracts/agregarInvetarioPOS.sol\":4872:4885  product.stock */\n      0x03\n      add\n      0x00\n        /* \"contracts/agregarInvetarioPOS.sol\":4872:4887  product.stock-- */\n      dup2\n      sload\n      dup1\n      swap3\n      swap2\n      swap1\n      tag_168\n      swap1\n      tag_169\n      jump\t// in\n    tag_168:\n      swap2\n      swap1\n      pop\n      sstore\n      pop\n        /* \"contracts/agregarInvetarioPOS.sol\":4913:4923  _productId */\n      dup2\n        /* \"contracts/agregarInvetarioPOS.sol\":4899:5013  ProductEdited(_productId, product.name, product.description, product.stock, product.expirationDate, product.price) */\n      0x43202ee2497bac5c3861fec10b2582c2a1291b84555dd19c5bddb0645c04c2a7\n        /* \"contracts/agregarInvetarioPOS.sol\":4925:4932  product */\n      dup3\n        /* \"contracts/agregarInvetarioPOS.sol\":4925:4937  product.name */\n      0x01\n      add\n        /* \"contracts/agregarInvetarioPOS.sol\":4939:4946  product */\n      dup4\n        /* \"contracts/agregarInvetarioPOS.sol\":4939:4958  product.description */\n      0x02\n      add\n        /* \"contracts/agregarInvetarioPOS.sol\":4960:4967  product */\n      dup5\n        /* \"contracts/agregarInvetarioPOS.sol\":4960:4973  product.stock */\n      0x03\n      add\n      sload\n        /* \"contracts/agregarInvetarioPOS.sol\":4975:4982  product */\n      dup6\n        /* \"contracts/agregarInvetarioPOS.sol\":4975:4997  product.expirationDate */\n      0x04\n      add\n        /* \"contracts/agregarInvetarioPOS.sol\":4999:5006  product */\n      dup7\n        /* \"contracts/agregarInvetarioPOS.sol\":4999:5012  product.price */\n      0x05\n      add\n      sload\n        /* \"contracts/agregarInvetarioPOS.sol\":4899:5013  ProductEdited(_productId, product.name, product.description, product.stock, product.expirationDate, product.price) */\n      mload(0x40)\n      tag_170\n      swap6\n      swap5\n      swap4\n      swap3\n      swap2\n      swap1\n      tag_171\n      jump\t// in\n    tag_170:\n      mload(0x40)\n      dup1\n      swap2\n      sub\n      swap1\n      log2\n        /* \"contracts/agregarInvetarioPOS.sol\":4617:5020  {... */\n      pop\n        /* \"contracts/agregarInvetarioPOS.sol\":4563:5020  function decrementarStock(uint256 _productId) public  {... */\n      pop\n      jump\t// out\n    tag_157:\n      pop\n      dup1\n      sload\n      tag_172\n      swap1\n      tag_69\n      jump\t// in\n    tag_172:\n      0x00\n      dup3\n      sstore\n      dup1\n      0x1f\n      lt\n      tag_174\n      jumpi\n      pop\n      jump(tag_173)\n    tag_174:\n      0x1f\n      add\n      0x20\n      swap1\n      div\n      swap1\n      0x00\n      mstore\n      keccak256(0x00, 0x20)\n      swap1\n      dup2\n      add\n      swap1\n      tag_175\n      swap2\n      swap1\n      tag_176\n      jump\t// in\n    tag_175:\n    tag_173:\n      pop\n      jump\t// out\n    tag_176:\n    tag_177:\n      dup1\n      dup3\n      gt\n      iszero\n      tag_178\n      jumpi\n      0x00\n      dup2\n      0x00\n      swap1\n      sstore\n      pop\n      0x01\n      add\n      jump(tag_177)\n    tag_178:\n      pop\n      swap1\n      jump\t// out\n        /* \"#utility.yul\":7:82   */\n    tag_179:\n        /* \"#utility.yul\":40:46   */\n      0x00\n        /* \"#utility.yul\":73:75   */\n      0x40\n        /* \"#utility.yul\":67:76   */\n      mload\n        /* \"#utility.yul\":57:76   */\n      swap1\n      pop\n        /* \"#utility.yul\":7:82   */\n      swap1\n      jump\t// out\n        /* \"#utility.yul\":88:205   */\n    tag_180:\n        /* \"#utility.yul\":197:198   */\n      0x00\n        /* \"#utility.yul\":194:195   */\n      dup1\n        /* \"#utility.yul\":187:199   */\n      revert\n        /* \"#utility.yul\":211:328   */\n    tag_181:\n        /* \"#utility.yul\":320:321   */\n      0x00\n        /* \"#utility.yul\":317:318   */\n      dup1\n        /* \"#utility.yul\":310:322   */\n      revert\n        /* \"#utility.yul\":334:411   */\n    tag_182:\n        /* \"#utility.yul\":371:378   */\n      0x00\n        /* \"#utility.yul\":400:405   */\n      dup2\n        /* \"#utility.yul\":389:405   */\n      swap1\n      pop\n        /* \"#utility.yul\":334:411   */\n      swap2\n      swap1\n      pop\n      jump\t// out\n        /* \"#utility.yul\":417:539   */\n    tag_183:\n        /* \"#utility.yul\":490:514   */\n      tag_245\n        /* \"#utility.yul\":508:513   */\n      dup2\n        /* \"#utility.yul\":490:514   */\n      tag_182\n      jump\t// in\n    tag_245:\n        /* \"#utility.yul\":483:488   */\n      dup2\n        /* \"#utility.yul\":480:515   */\n      eq\n        /* \"#utility.yul\":470:533   */\n      tag_246\n      jumpi\n        /* \"#utility.yul\":529:530   */\n      0x00\n        /* \"#utility.yul\":526:527   */\n      dup1\n        /* \"#utility.yul\":519:531   */\n      revert\n        /* \"#utility.yul\":470:533   */\n    tag_246:\n        /* \"#utility.yul\":417:539   */\n      pop\n      jump\t// out\n        /* \"#utility.yul\":545:684   */\n    tag_184:\n        /* \"#utility.yul\":591:596   */\n      0x00\n        /* \"#utility.yul\":629:635   */\n      dup2\n        /* \"#utility.yul\":616:636   */\n      calldataload\n        /* \"#utility.yul\":607:636   */\n      swap1\n      pop\n        /* \"#utility.yul\":645:678   */\n      tag_248\n        /* \"#utility.yul\":672:677   */\n      dup2\n        /* \"#utility.yul\":645:678   */\n      tag_183\n      jump\t// in\n    tag_248:\n        /* \"#utility.yul\":545:684   */\n      swap3\n      swap2\n      pop\n      pop\n      jump\t// out\n        /* \"#utility.yul\":690:807   */\n    tag_185:\n        /* \"#utility.yul\":799:800   */\n      0x00\n        /* \"#utility.yul\":796:797   */\n      dup1\n        /* \"#utility.yul\":789:801   */\n      revert\n        /* \"#utility.yul\":813:930   */\n    tag_186:\n        /* \"#utility.yul\":922:923   */\n      0x00\n        /* \"#utility.yul\":919:920   */\n      dup1\n        /* \"#utility.yul\":912:924   */\n      revert\n        /* \"#utility.yul\":936:1038   */\n    tag_187:\n        /* \"#utility.yul\":977:983   */\n      0x00\n        /* \"#utility.yul\":1028:1030   */\n      0x1f\n        /* \"#utility.yul\":1024:1031   */\n      not\n        /* \"#utility.yul\":1019:1021   */\n      0x1f\n        /* \"#utility.yul\":1012:1017   */\n      dup4\n        /* \"#utility.yul\":1008:1022   */\n      add\n        /* \"#utility.yul\":1004:1032   */\n      and\n        /* \"#utility.yul\":994:1032   */\n      swap1\n      pop\n        /* \"#utility.yul\":936:1038   */\n      swap2\n      swap1\n      pop\n      jump\t// out\n        /* \"#utility.yul\":1044:1224   */\n    tag_188:\n        /* \"#utility.yul\":1092:1169   */\n      0x4e487b7100000000000000000000000000000000000000000000000000000000\n        /* \"#utility.yul\":1089:1090   */\n      0x00\n        /* \"#utility.yul\":1082:1170   */\n      mstore\n        /* \"#utility.yul\":1189:1193   */\n      0x41\n        /* \"#utility.yul\":1186:1187   */\n      0x04\n        /* \"#utility.yul\":1179:1194   */\n      mstore\n        /* \"#utility.yul\":1213:1217   */\n      0x24\n        /* \"#utility.yul\":1210:1211   */\n      0x00\n        /* \"#utility.yul\":1203:1218   */\n      revert\n        /* \"#utility.yul\":1230:1511   */\n    tag_189:\n        /* \"#utility.yul\":1313:1340   */\n      tag_254\n        /* \"#utility.yul\":1335:1339   */\n      dup3\n        /* \"#utility.yul\":1313:1340   */\n      tag_187\n      jump\t// in\n    tag_254:\n        /* \"#utility.yul\":1305:1311   */\n      dup2\n        /* \"#utility.yul\":1301:1341   */\n      add\n        /* \"#utility.yul\":1443:1449   */\n      dup2\n        /* \"#utility.yul\":1431:1441   */\n      dup2\n        /* \"#utility.yul\":1428:1450   */\n      lt\n        /* \"#utility.yul\":1407:1425   */\n      0xffffffffffffffff\n        /* \"#utility.yul\":1395:1405   */\n      dup3\n        /* \"#utility.yul\":1392:1426   */\n      gt\n        /* \"#utility.yul\":1389:1451   */\n      or\n        /* \"#utility.yul\":1386:1474   */\n      iszero\n      tag_255\n      jumpi\n        /* \"#utility.yul\":1454:1472   */\n      tag_256\n      tag_188\n      jump\t// in\n    tag_256:\n        /* \"#utility.yul\":1386:1474   */\n    tag_255:\n        /* \"#utility.yul\":1494:1504   */\n      dup1\n        /* \"#utility.yul\":1490:1492   */\n      0x40\n        /* \"#utility.yul\":1483:1505   */\n      mstore\n        /* \"#utility.yul\":1273:1511   */\n      pop\n        /* \"#utility.yul\":1230:1511   */\n      pop\n      pop\n      jump\t// out\n        /* \"#utility.yul\":1517:1646   */\n    tag_190:\n        /* \"#utility.yul\":1551:1557   */\n      0x00\n        /* \"#utility.yul\":1578:1598   */\n      tag_258\n      tag_179\n      jump\t// in\n    tag_258:\n        /* \"#utility.yul\":1568:1598   */\n      swap1\n      pop\n        /* \"#utility.yul\":1607:1640   */\n      tag_259\n        /* \"#utility.yul\":1635:1639   */\n      dup3\n        /* \"#utility.yul\":1627:1633   */\n      dup3\n        /* \"#utility.yul\":1607:1640   */\n      tag_189\n      jump\t// in\n    tag_259:\n        /* \"#utility.yul\":1517:1646   */\n      swap2\n      swap1\n      pop\n      jump\t// out\n        /* \"#utility.yul\":1652:1960   */\n    tag_191:\n        /* \"#utility.yul\":1714:1718   */\n      0x00\n        /* \"#utility.yul\":1804:1822   */\n      0xffffffffffffffff\n        /* \"#utility.yul\":1796:1802   */\n      dup3\n        /* \"#utility.yul\":1793:1823   */\n      gt\n        /* \"#utility.yul\":1790:1846   */\n      iszero\n      tag_261\n      jumpi\n        /* \"#utility.yul\":1826:1844   */\n      tag_262\n      tag_188\n      jump\t// in\n    tag_262:\n        /* \"#utility.yul\":1790:1846   */\n    tag_261:\n        /* \"#utility.yul\":1864:1893   */\n      tag_263\n        /* \"#utility.yul\":1886:1892   */\n      dup3\n        /* \"#utility.yul\":1864:1893   */\n      tag_187\n      jump\t// in\n    tag_263:\n        /* \"#utility.yul\":1856:1893   */\n      swap1\n      pop\n        /* \"#utility.yul\":1948:1952   */\n      0x20\n        /* \"#utility.yul\":1942:1946   */\n      dup2\n        /* \"#utility.yul\":1938:1953   */\n      add\n        /* \"#utility.yul\":1930:1953   */\n      swap1\n      pop\n        /* \"#utility.yul\":1652:1960   */\n      swap2\n      swap1\n      pop\n      jump\t// out\n        /* \"#utility.yul\":1966:2112   */\n    tag_192:\n        /* \"#utility.yul\":2063:2069   */\n      dup3\n        /* \"#utility.yul\":2058:2061   */\n      dup2\n        /* \"#utility.yul\":2053:2056   */\n      dup4\n        /* \"#utility.yul\":2040:2070   */\n      calldatacopy\n        /* \"#utility.yul\":2104:2105   */\n      0x00\n        /* \"#utility.yul\":2095:2101   */\n      dup4\n        /* \"#utility.yul\":2090:2093   */\n      dup4\n        /* \"#utility.yul\":2086:2102   */\n      add\n        /* \"#utility.yul\":2079:2106   */\n      mstore\n        /* \"#utility.yul\":1966:2112   */\n      pop\n      pop\n      pop\n      jump\t// out\n        /* \"#utility.yul\":2118:2543   */\n    tag_193:\n        /* \"#utility.yul\":2196:2201   */\n      0x00\n        /* \"#utility.yul\":2221:2287   */\n      tag_266\n        /* \"#utility.yul\":2237:2286   */\n      tag_267\n        /* \"#utility.yul\":2279:2285   */\n      dup5\n        /* \"#utility.yul\":2237:2286   */\n      tag_191\n      jump\t// in\n    tag_267:\n        /* \"#utility.yul\":2221:2287   */\n      tag_190\n      jump\t// in\n    tag_266:\n        /* \"#utility.yul\":2212:2287   */\n      swap1\n      pop\n        /* \"#utility.yul\":2310:2316   */\n      dup3\n        /* \"#utility.yul\":2303:2308   */\n      dup2\n        /* \"#utility.yul\":2296:2317   */\n      mstore\n        /* \"#utility.yul\":2348:2352   */\n      0x20\n        /* \"#utility.yul\":2341:2346   */\n      dup2\n        /* \"#utility.yul\":2337:2353   */\n      add\n        /* \"#utility.yul\":2386:2389   */\n      dup5\n        /* \"#utility.yul\":2377:2383   */\n      dup5\n        /* \"#utility.yul\":2372:2375   */\n      dup5\n        /* \"#utility.yul\":2368:2384   */\n      add\n        /* \"#utility.yul\":2365:2390   */\n      gt\n        /* \"#utility.yul\":2362:2474   */\n      iszero\n      tag_268\n      jumpi\n        /* \"#utility.yul\":2393:2472   */\n      tag_269\n      tag_186\n      jump\t// in\n    tag_269:\n        /* \"#utility.yul\":2362:2474   */\n    tag_268:\n        /* \"#utility.yul\":2483:2537   */\n      tag_270\n        /* \"#utility.yul\":2530:2536   */\n      dup5\n        /* \"#utility.yul\":2525:2528   */\n      dup3\n        /* \"#utility.yul\":2520:2523   */\n      dup6\n        /* \"#utility.yul\":2483:2537   */\n      tag_192\n      jump\t// in\n    tag_270:\n        /* \"#utility.yul\":2202:2543   */\n      pop\n        /* \"#utility.yul\":2118:2543   */\n      swap4\n      swap3\n      pop\n      pop\n      pop\n      jump\t// out\n        /* \"#utility.yul\":2563:2903   */\n    tag_194:\n        /* \"#utility.yul\":2619:2624   */\n      0x00\n        /* \"#utility.yul\":2668:2671   */\n      dup3\n        /* \"#utility.yul\":2661:2665   */\n      0x1f\n        /* \"#utility.yul\":2653:2659   */\n      dup4\n        /* \"#utility.yul\":2649:2666   */\n      add\n        /* \"#utility.yul\":2645:2672   */\n      slt\n        /* \"#utility.yul\":2635:2757   */\n      tag_272\n      jumpi\n        /* \"#utility.yul\":2676:2755   */\n      tag_273\n      tag_185\n      jump\t// in\n    tag_273:\n        /* \"#utility.yul\":2635:2757   */\n    tag_272:\n        /* \"#utility.yul\":2793:2799   */\n      dup2\n        /* \"#utility.yul\":2780:2800   */\n      calldataload\n        /* \"#utility.yul\":2818:2897   */\n      tag_274\n        /* \"#utility.yul\":2893:2896   */\n      dup5\n        /* \"#utility.yul\":2885:2891   */\n      dup3\n        /* \"#utility.yul\":2878:2882   */\n      0x20\n        /* \"#utility.yul\":2870:2876   */\n      dup7\n        /* \"#utility.yul\":2866:2883   */\n      add\n        /* \"#utility.yul\":2818:2897   */\n      tag_193\n      jump\t// in\n    tag_274:\n        /* \"#utility.yul\":2809:2897   */\n      swap2\n      pop\n        /* \"#utility.yul\":2625:2903   */\n      pop\n        /* \"#utility.yul\":2563:2903   */\n      swap3\n      swap2\n      pop\n      pop\n      jump\t// out\n        /* \"#utility.yul\":2909:4506   */\n    tag_15:\n        /* \"#utility.yul\":3043:3049   */\n      0x00\n        /* \"#utility.yul\":3051:3057   */\n      dup1\n        /* \"#utility.yul\":3059:3065   */\n      0x00\n        /* \"#utility.yul\":3067:3073   */\n      dup1\n        /* \"#utility.yul\":3075:3081   */\n      0x00\n        /* \"#utility.yul\":3083:3089   */\n      dup1\n        /* \"#utility.yul\":3132:3135   */\n      0xc0\n        /* \"#utility.yul\":3120:3129   */\n      dup8\n        /* \"#utility.yul\":3111:3118   */\n      dup10\n        /* \"#utility.yul\":3107:3130   */\n      sub\n        /* \"#utility.yul\":3103:3136   */\n      slt\n        /* \"#utility.yul\":3100:3220   */\n      iszero\n      tag_276\n      jumpi\n        /* \"#utility.yul\":3139:3218   */\n      tag_277\n      tag_180\n      jump\t// in\n    tag_277:\n        /* \"#utility.yul\":3100:3220   */\n    tag_276:\n        /* \"#utility.yul\":3259:3260   */\n      0x00\n        /* \"#utility.yul\":3284:3337   */\n      tag_278\n        /* \"#utility.yul\":3329:3336   */\n      dup10\n        /* \"#utility.yul\":3320:3326   */\n      dup3\n        /* \"#utility.yul\":3309:3318   */\n      dup11\n        /* \"#utility.yul\":3305:3327   */\n      add\n        /* \"#utility.yul\":3284:3337   */\n      tag_184\n      jump\t// in\n    tag_278:\n        /* \"#utility.yul\":3274:3337   */\n      swap7\n      pop\n        /* \"#utility.yul\":3230:3347   */\n      pop\n        /* \"#utility.yul\":3414:3416   */\n      0x20\n        /* \"#utility.yul\":3403:3412   */\n      dup8\n        /* \"#utility.yul\":3399:3417   */\n      add\n        /* \"#utility.yul\":3386:3418   */\n      calldataload\n        /* \"#utility.yul\":3445:3463   */\n      0xffffffffffffffff\n        /* \"#utility.yul\":3437:3443   */\n      dup2\n        /* \"#utility.yul\":3434:3464   */\n      gt\n        /* \"#utility.yul\":3431:3548   */\n      iszero\n      tag_279\n      jumpi\n        /* \"#utility.yul\":3467:3546   */\n      tag_280\n      tag_181\n      jump\t// in\n    tag_280:\n        /* \"#utility.yul\":3431:3548   */\n    tag_279:\n        /* \"#utility.yul\":3572:3635   */\n      tag_281\n        /* \"#utility.yul\":3627:3634   */\n      dup10\n        /* \"#utility.yul\":3618:3624   */\n      dup3\n        /* \"#utility.yul\":3607:3616   */\n      dup11\n        /* \"#utility.yul\":3603:3625   */\n      add\n        /* \"#utility.yul\":3572:3635   */\n      tag_194\n      jump\t// in\n    tag_281:\n        /* \"#utility.yul\":3562:3635   */\n      swap6\n      pop\n        /* \"#utility.yul\":3357:3645   */\n      pop\n        /* \"#utility.yul\":3712:3714   */\n      0x40\n        /* \"#utility.yul\":3701:3710   */\n      dup8\n        /* \"#utility.yul\":3697:3715   */\n      add\n        /* \"#utility.yul\":3684:3716   */\n      calldataload\n        /* \"#utility.yul\":3743:3761   */\n      0xffffffffffffffff\n        /* \"#utility.yul\":3735:3741   */\n      dup2\n        /* \"#utility.yul\":3732:3762   */\n      gt\n        /* \"#utility.yul\":3729:3846   */\n      iszero\n      tag_282\n      jumpi\n        /* \"#utility.yul\":3765:3844   */\n      tag_283\n      tag_181\n      jump\t// in\n    tag_283:\n        /* \"#utility.yul\":3729:3846   */\n    tag_282:\n        /* \"#utility.yul\":3870:3933   */\n      tag_284\n        /* \"#utility.yul\":3925:3932   */\n      dup10\n        /* \"#utility.yul\":3916:3922   */\n      dup3\n        /* \"#utility.yul\":3905:3914   */\n      dup11\n        /* \"#utility.yul\":3901:3923   */\n      add\n        /* \"#utility.yul\":3870:3933   */\n      tag_194\n      jump\t// in\n    tag_284:\n        /* \"#utility.yul\":3860:3933   */\n      swap5\n      pop\n        /* \"#utility.yul\":3655:3943   */\n      pop\n        /* \"#utility.yul\":3982:3984   */\n      0x60\n        /* \"#utility.yul\":4008:4061   */\n      tag_285\n        /* \"#utility.yul\":4053:4060   */\n      dup10\n        /* \"#utility.yul\":4044:4050   */\n      dup3\n        /* \"#utility.yul\":4033:4042   */\n      dup11\n        /* \"#utility.yul\":4029:4051   */\n      add\n        /* \"#utility.yul\":4008:4061   */\n      tag_184\n      jump\t// in\n    tag_285:\n        /* \"#utility.yul\":3998:4061   */\n      swap4\n      pop\n        /* \"#utility.yul\":3953:4071   */\n      pop\n        /* \"#utility.yul\":4138:4141   */\n      0x80\n        /* \"#utility.yul\":4127:4136   */\n      dup8\n        /* \"#utility.yul\":4123:4142   */\n      add\n        /* \"#utility.yul\":4110:4143   */\n      calldataload\n        /* \"#utility.yul\":4170:4188   */\n      0xffffffffffffffff\n        /* \"#utility.yul\":4162:4168   */\n      dup2\n        /* \"#utility.yul\":4159:4189   */\n      gt\n        /* \"#utility.yul\":4156:4273   */\n      iszero\n      tag_286\n      jumpi\n        /* \"#utility.yul\":4192:4271   */\n      tag_287\n      tag_181\n      jump\t// in\n    tag_287:\n        /* \"#utility.yul\":4156:4273   */\n    tag_286:\n        /* \"#utility.yul\":4297:4360   */\n      tag_288\n        /* \"#utility.yul\":4352:4359   */\n      dup10\n        /* \"#utility.yul\":4343:4349   */\n      dup3\n        /* \"#utility.yul\":4332:4341   */\n      dup11\n        /* \"#utility.yul\":4328:4350   */\n      add\n        /* \"#utility.yul\":4297:4360   */\n      tag_194\n      jump\t// in\n    tag_288:\n        /* \"#utility.yul\":4287:4360   */\n      swap3\n      pop\n        /* \"#utility.yul\":4081:4370   */\n      pop\n        /* \"#utility.yul\":4409:4412   */\n      0xa0\n        /* \"#utility.yul\":4436:4489   */\n      tag_289\n        /* \"#utility.yul\":4481:4488   */\n      dup10\n        /* \"#utility.yul\":4472:4478   */\n      dup3\n        /* \"#utility.yul\":4461:4470   */\n      dup11\n        /* \"#utility.yul\":4457:4479   */\n      add\n        /* \"#utility.yul\":4436:4489   */\n      tag_184\n      jump\t// in\n    tag_289:\n        /* \"#utility.yul\":4426:4489   */\n      swap2\n      pop\n        /* \"#utility.yul\":4380:4499   */\n      pop\n        /* \"#utility.yul\":2909:4506   */\n      swap3\n      swap6\n      pop\n      swap3\n      swap6\n      pop\n      swap3\n      swap6\n      jump\t// out\n        /* \"#utility.yul\":4512:4841   */\n    tag_20:\n        /* \"#utility.yul\":4571:4577   */\n      0x00\n        /* \"#utility.yul\":4620:4622   */\n      0x20\n        /* \"#utility.yul\":4608:4617   */\n      dup3\n        /* \"#utility.yul\":4599:4606   */\n      dup5\n        /* \"#utility.yul\":4595:4618   */\n      sub\n        /* \"#utility.yul\":4591:4623   */\n      slt\n        /* \"#utility.yul\":4588:4707   */\n      iszero\n      tag_291\n      jumpi\n        /* \"#utility.yul\":4626:4705   */\n      tag_292\n      tag_180\n      jump\t// in\n    tag_292:\n        /* \"#utility.yul\":4588:4707   */\n    tag_291:\n        /* \"#utility.yul\":4746:4747   */\n      0x00\n        /* \"#utility.yul\":4771:4824   */\n      tag_293\n        /* \"#utility.yul\":4816:4823   */\n      dup5\n        /* \"#utility.yul\":4807:4813   */\n      dup3\n        /* \"#utility.yul\":4796:4805   */\n      dup6\n        /* \"#utility.yul\":4792:4814   */\n      add\n        /* \"#utility.yul\":4771:4824   */\n      tag_184\n      jump\t// in\n    tag_293:\n        /* \"#utility.yul\":4761:4824   */\n      swap2\n      pop\n        /* \"#utility.yul\":4717:4834   */\n      pop\n        /* \"#utility.yul\":4512:4841   */\n      swap3\n      swap2\n      pop\n      pop\n      jump\t// out\n        /* \"#utility.yul\":4847:4946   */\n    tag_195:\n        /* \"#utility.yul\":4899:4905   */\n      0x00\n        /* \"#utility.yul\":4933:4938   */\n      dup2\n        /* \"#utility.yul\":4927:4939   */\n      mload\n        /* \"#utility.yul\":4917:4939   */\n      swap1\n      pop\n        /* \"#utility.yul\":4847:4946   */\n      swap2\n      swap1\n      pop\n      jump\t// out\n        /* \"#utility.yul\":4952:5121   */\n    tag_196:\n        /* \"#utility.yul\":5036:5047   */\n      0x00\n        /* \"#utility.yul\":5070:5076   */\n      dup3\n        /* \"#utility.yul\":5065:5068   */\n      dup3\n        /* \"#utility.yul\":5058:5077   */\n      mstore\n        /* \"#utility.yul\":5110:5114   */\n      0x20\n        /* \"#utility.yul\":5105:5108   */\n      dup3\n        /* \"#utility.yul\":5101:5115   */\n      add\n        /* \"#utility.yul\":5086:5115   */\n      swap1\n      pop\n        /* \"#utility.yul\":4952:5121   */\n      swap3\n      swap2\n      pop\n      pop\n      jump\t// out\n        /* \"#utility.yul\":5127:5373   */\n    tag_197:\n        /* \"#utility.yul\":5208:5209   */\n      0x00\n        /* \"#utility.yul\":5218:5331   */\n    tag_297:\n        /* \"#utility.yul\":5232:5238   */\n      dup4\n        /* \"#utility.yul\":5229:5230   */\n      dup2\n        /* \"#utility.yul\":5226:5239   */\n      lt\n        /* \"#utility.yul\":5218:5331   */\n      iszero\n      tag_299\n      jumpi\n        /* \"#utility.yul\":5317:5318   */\n      dup1\n        /* \"#utility.yul\":5312:5315   */\n      dup3\n        /* \"#utility.yul\":5308:5319   */\n      add\n        /* \"#utility.yul\":5302:5320   */\n      mload\n        /* \"#utility.yul\":5298:5299   */\n      dup2\n        /* \"#utility.yul\":5293:5296   */\n      dup5\n        /* \"#utility.yul\":5289:5300   */\n      add\n        /* \"#utility.yul\":5282:5321   */\n      mstore\n        /* \"#utility.yul\":5254:5256   */\n      0x20\n        /* \"#utility.yul\":5251:5252   */\n      dup2\n        /* \"#utility.yul\":5247:5257   */\n      add\n        /* \"#utility.yul\":5242:5257   */\n      swap1\n      pop\n        /* \"#utility.yul\":5218:5331   */\n      jump(tag_297)\n    tag_299:\n        /* \"#utility.yul\":5365:5366   */\n      0x00\n        /* \"#utility.yul\":5356:5362   */\n      dup5\n        /* \"#utility.yul\":5351:5354   */\n      dup5\n        /* \"#utility.yul\":5347:5363   */\n      add\n        /* \"#utility.yul\":5340:5367   */\n      mstore\n        /* \"#utility.yul\":5189:5373   */\n      pop\n        /* \"#utility.yul\":5127:5373   */\n      pop\n      pop\n      pop\n      jump\t// out\n        /* \"#utility.yul\":5379:5756   */\n    tag_198:\n        /* \"#utility.yul\":5467:5470   */\n      0x00\n        /* \"#utility.yul\":5495:5534   */\n      tag_301\n        /* \"#utility.yul\":5528:5533   */\n      dup3\n        /* \"#utility.yul\":5495:5534   */\n      tag_195\n      jump\t// in\n    tag_301:\n        /* \"#utility.yul\":5550:5621   */\n      tag_302\n        /* \"#utility.yul\":5614:5620   */\n      dup2\n        /* \"#utility.yul\":5609:5612   */\n      dup6\n        /* \"#utility.yul\":5550:5621   */\n      tag_196\n      jump\t// in\n    tag_302:\n        /* \"#utility.yul\":5543:5621   */\n      swap4\n      pop\n        /* \"#utility.yul\":5630:5695   */\n      tag_303\n        /* \"#utility.yul\":5688:5694   */\n      dup2\n        /* \"#utility.yul\":5683:5686   */\n      dup6\n        /* \"#utility.yul\":5676:5680   */\n      0x20\n        /* \"#utility.yul\":5669:5674   */\n      dup7\n        /* \"#utility.yul\":5665:5681   */\n      add\n        /* \"#utility.yul\":5630:5695   */\n      tag_197\n      jump\t// in\n    tag_303:\n        /* \"#utility.yul\":5720:5749   */\n      tag_304\n        /* \"#utility.yul\":5742:5748   */\n      dup2\n        /* \"#utility.yul\":5720:5749   */\n      tag_187\n      jump\t// in\n    tag_304:\n        /* \"#utility.yul\":5715:5718   */\n      dup5\n        /* \"#utility.yul\":5711:5750   */\n      add\n        /* \"#utility.yul\":5704:5750   */\n      swap2\n      pop\n        /* \"#utility.yul\":5471:5756   */\n      pop\n        /* \"#utility.yul\":5379:5756   */\n      swap3\n      swap2\n      pop\n      pop\n      jump\t// out\n        /* \"#utility.yul\":5762:5880   */\n    tag_199:\n        /* \"#utility.yul\":5849:5873   */\n      tag_306\n        /* \"#utility.yul\":5867:5872   */\n      dup2\n        /* \"#utility.yul\":5849:5873   */\n      tag_182\n      jump\t// in\n    tag_306:\n        /* \"#utility.yul\":5844:5847   */\n      dup3\n        /* \"#utility.yul\":5837:5874   */\n      mstore\n        /* \"#utility.yul\":5762:5880   */\n      pop\n      pop\n      jump\t// out\n        /* \"#utility.yul\":5886:6823   */\n    tag_23:\n        /* \"#utility.yul\":6151:6155   */\n      0x00\n        /* \"#utility.yul\":6189:6192   */\n      0xa0\n        /* \"#utility.yul\":6178:6187   */\n      dup3\n        /* \"#utility.yul\":6174:6193   */\n      add\n        /* \"#utility.yul\":6166:6193   */\n      swap1\n      pop\n        /* \"#utility.yul\":6239:6248   */\n      dup2\n        /* \"#utility.yul\":6233:6237   */\n      dup2\n        /* \"#utility.yul\":6229:6249   */\n      sub\n        /* \"#utility.yul\":6225:6226   */\n      0x00\n        /* \"#utility.yul\":6214:6223   */\n      dup4\n        /* \"#utility.yul\":6210:6227   */\n      add\n        /* \"#utility.yul\":6203:6250   */\n      mstore\n        /* \"#utility.yul\":6267:6345   */\n      tag_308\n        /* \"#utility.yul\":6340:6344   */\n      dup2\n        /* \"#utility.yul\":6331:6337   */\n      dup9\n        /* \"#utility.yul\":6267:6345   */\n      tag_198\n      jump\t// in\n    tag_308:\n        /* \"#utility.yul\":6259:6345   */\n      swap1\n      pop\n        /* \"#utility.yul\":6392:6401   */\n      dup2\n        /* \"#utility.yul\":6386:6390   */\n      dup2\n        /* \"#utility.yul\":6382:6402   */\n      sub\n        /* \"#utility.yul\":6377:6379   */\n      0x20\n        /* \"#utility.yul\":6366:6375   */\n      dup4\n        /* \"#utility.yul\":6362:6380   */\n      add\n        /* \"#utility.yul\":6355:6403   */\n      mstore\n        /* \"#utility.yul\":6420:6498   */\n      tag_309\n        /* \"#utility.yul\":6493:6497   */\n      dup2\n        /* \"#utility.yul\":6484:6490   */\n      dup8\n        /* \"#utility.yul\":6420:6498   */\n      tag_198\n      jump\t// in\n    tag_309:\n        /* \"#utility.yul\":6412:6498   */\n      swap1\n      pop\n        /* \"#utility.yul\":6508:6580   */\n      tag_310\n        /* \"#utility.yul\":6576:6578   */\n      0x40\n        /* \"#utility.yul\":6565:6574   */\n      dup4\n        /* \"#utility.yul\":6561:6579   */\n      add\n        /* \"#utility.yul\":6552:6558   */\n      dup7\n        /* \"#utility.yul\":6508:6580   */\n      tag_199\n      jump\t// in\n    tag_310:\n        /* \"#utility.yul\":6627:6636   */\n      dup2\n        /* \"#utility.yul\":6621:6625   */\n      dup2\n        /* \"#utility.yul\":6617:6637   */\n      sub\n        /* \"#utility.yul\":6612:6614   */\n      0x60\n        /* \"#utility.yul\":6601:6610   */\n      dup4\n        /* \"#utility.yul\":6597:6615   */\n      add\n        /* \"#utility.yul\":6590:6638   */\n      mstore\n        /* \"#utility.yul\":6655:6733   */\n      tag_311\n        /* \"#utility.yul\":6728:6732   */\n      dup2\n        /* \"#utility.yul\":6719:6725   */\n      dup6\n        /* \"#utility.yul\":6655:6733   */\n      tag_198\n      jump\t// in\n    tag_311:\n        /* \"#utility.yul\":6647:6733   */\n      swap1\n      pop\n        /* \"#utility.yul\":6743:6816   */\n      tag_312\n        /* \"#utility.yul\":6811:6814   */\n      0x80\n        /* \"#utility.yul\":6800:6809   */\n      dup4\n        /* \"#utility.yul\":6796:6815   */\n      add\n        /* \"#utility.yul\":6787:6793   */\n      dup5\n        /* \"#utility.yul\":6743:6816   */\n      tag_199\n      jump\t// in\n    tag_312:\n        /* \"#utility.yul\":5886:6823   */\n      swap7\n      swap6\n      pop\n      pop\n      pop\n      pop\n      pop\n      pop\n      jump\t// out\n        /* \"#utility.yul\":6829:7877   */\n    tag_29:\n        /* \"#utility.yul\":7122:7126   */\n      0x00\n        /* \"#utility.yul\":7160:7163   */\n      0xc0\n        /* \"#utility.yul\":7149:7158   */\n      dup3\n        /* \"#utility.yul\":7145:7164   */\n      add\n        /* \"#utility.yul\":7137:7164   */\n      swap1\n      pop\n        /* \"#utility.yul\":7174:7245   */\n      tag_314\n        /* \"#utility.yul\":7242:7243   */\n      0x00\n        /* \"#utility.yul\":7231:7240   */\n      dup4\n        /* \"#utility.yul\":7227:7244   */\n      add\n        /* \"#utility.yul\":7218:7224   */\n      dup10\n        /* \"#utility.yul\":7174:7245   */\n      tag_199\n      jump\t// in\n    tag_314:\n        /* \"#utility.yul\":7292:7301   */\n      dup2\n        /* \"#utility.yul\":7286:7290   */\n      dup2\n        /* \"#utility.yul\":7282:7302   */\n      sub\n        /* \"#utility.yul\":7277:7279   */\n      0x20\n        /* \"#utility.yul\":7266:7275   */\n      dup4\n        /* \"#utility.yul\":7262:7280   */\n      add\n        /* \"#utility.yul\":7255:7303   */\n      mstore\n        /* \"#utility.yul\":7320:7398   */\n      tag_315\n        /* \"#utility.yul\":7393:7397   */\n      dup2\n        /* \"#utility.yul\":7384:7390   */\n      dup9\n        /* \"#utility.yul\":7320:7398   */\n      tag_198\n      jump\t// in\n    tag_315:\n        /* \"#utility.yul\":7312:7398   */\n      swap1\n      pop\n        /* \"#utility.yul\":7445:7454   */\n      dup2\n        /* \"#utility.yul\":7439:7443   */\n      dup2\n        /* \"#utility.yul\":7435:7455   */\n      sub\n        /* \"#utility.yul\":7430:7432   */\n      0x40\n        /* \"#utility.yul\":7419:7428   */\n      dup4\n        /* \"#utility.yul\":7415:7433   */\n      add\n        /* \"#utility.yul\":7408:7456   */\n      mstore\n        /* \"#utility.yul\":7473:7551   */\n      tag_316\n        /* \"#utility.yul\":7546:7550   */\n      dup2\n        /* \"#utility.yul\":7537:7543   */\n      dup8\n        /* \"#utility.yul\":7473:7551   */\n      tag_198\n      jump\t// in\n    tag_316:\n        /* \"#utility.yul\":7465:7551   */\n      swap1\n      pop\n        /* \"#utility.yul\":7561:7633   */\n      tag_317\n        /* \"#utility.yul\":7629:7631   */\n      0x60\n        /* \"#utility.yul\":7618:7627   */\n      dup4\n        /* \"#utility.yul\":7614:7632   */\n      add\n        /* \"#utility.yul\":7605:7611   */\n      dup7\n        /* \"#utility.yul\":7561:7633   */\n      tag_199\n      jump\t// in\n    tag_317:\n        /* \"#utility.yul\":7681:7690   */\n      dup2\n        /* \"#utility.yul\":7675:7679   */\n      dup2\n        /* \"#utility.yul\":7671:7691   */\n      sub\n        /* \"#utility.yul\":7665:7668   */\n      0x80\n        /* \"#utility.yul\":7654:7663   */\n      dup4\n        /* \"#utility.yul\":7650:7669   */\n      add\n        /* \"#utility.yul\":7643:7692   */\n      mstore\n        /* \"#utility.yul\":7709:7787   */\n      tag_318\n        /* \"#utility.yul\":7782:7786   */\n      dup2\n        /* \"#utility.yul\":7773:7779   */\n      dup6\n        /* \"#utility.yul\":7709:7787   */\n      tag_198\n      jump\t// in\n    tag_318:\n        /* \"#utility.yul\":7701:7787   */\n      swap1\n      pop\n        /* \"#utility.yul\":7797:7870   */\n      tag_319\n        /* \"#utility.yul\":7865:7868   */\n      0xa0\n        /* \"#utility.yul\":7854:7863   */\n      dup4\n        /* \"#utility.yul\":7850:7869   */\n      add\n        /* \"#utility.yul\":7841:7847   */\n      dup5\n        /* \"#utility.yul\":7797:7870   */\n      tag_199\n      jump\t// in\n    tag_319:\n        /* \"#utility.yul\":6829:7877   */\n      swap8\n      swap7\n      pop\n      pop\n      pop\n      pop\n      pop\n      pop\n      pop\n      jump\t// out\n        /* \"#utility.yul\":7883:8009   */\n    tag_200:\n        /* \"#utility.yul\":7920:7927   */\n      0x00\n        /* \"#utility.yul\":7960:8002   */\n      0xffffffffffffffffffffffffffffffffffffffff\n        /* \"#utility.yul\":7953:7958   */\n      dup3\n        /* \"#utility.yul\":7949:8003   */\n      and\n        /* \"#utility.yul\":7938:8003   */\n      swap1\n      pop\n        /* \"#utility.yul\":7883:8009   */\n      swap2\n      swap1\n      pop\n      jump\t// out\n        /* \"#utility.yul\":8015:8111   */\n    tag_201:\n        /* \"#utility.yul\":8052:8059   */\n      0x00\n        /* \"#utility.yul\":8081:8105   */\n      tag_322\n        /* \"#utility.yul\":8099:8104   */\n      dup3\n        /* \"#utility.yul\":8081:8105   */\n      tag_200\n      jump\t// in\n    tag_322:\n        /* \"#utility.yul\":8070:8105   */\n      swap1\n      pop\n        /* \"#utility.yul\":8015:8111   */\n      swap2\n      swap1\n      pop\n      jump\t// out\n        /* \"#utility.yul\":8117:8235   */\n    tag_202:\n        /* \"#utility.yul\":8204:8228   */\n      tag_324\n        /* \"#utility.yul\":8222:8227   */\n      dup2\n        /* \"#utility.yul\":8204:8228   */\n      tag_201\n      jump\t// in\n    tag_324:\n        /* \"#utility.yul\":8199:8202   */\n      dup3\n        /* \"#utility.yul\":8192:8229   */\n      mstore\n        /* \"#utility.yul\":8117:8235   */\n      pop\n      pop\n      jump\t// out\n        /* \"#utility.yul\":8241:8463   */\n    tag_34:\n        /* \"#utility.yul\":8334:8338   */\n      0x00\n        /* \"#utility.yul\":8372:8374   */\n      0x20\n        /* \"#utility.yul\":8361:8370   */\n      dup3\n        /* \"#utility.yul\":8357:8375   */\n      add\n        /* \"#utility.yul\":8349:8375   */\n      swap1\n      pop\n        /* \"#utility.yul\":8385:8456   */\n      tag_326\n        /* \"#utility.yul\":8453:8454   */\n      0x00\n        /* \"#utility.yul\":8442:8451   */\n      dup4\n        /* \"#utility.yul\":8438:8455   */\n      add\n        /* \"#utility.yul\":8429:8435   */\n      dup5\n        /* \"#utility.yul\":8385:8456   */\n      tag_202\n      jump\t// in\n    tag_326:\n        /* \"#utility.yul\":8241:8463   */\n      swap3\n      swap2\n      pop\n      pop\n      jump\t// out\n        /* \"#utility.yul\":8469:8943   */\n    tag_37:\n        /* \"#utility.yul\":8537:8543   */\n      0x00\n        /* \"#utility.yul\":8545:8551   */\n      dup1\n        /* \"#utility.yul\":8594:8596   */\n      0x40\n        /* \"#utility.yul\":8582:8591   */\n      dup4\n        /* \"#utility.yul\":8573:8580   */\n      dup6\n        /* \"#utility.yul\":8569:8592   */\n      sub\n        /* \"#utility.yul\":8565:8597   */\n      slt\n        /* \"#utility.yul\":8562:8681   */\n      iszero\n      tag_328\n      jumpi\n        /* \"#utility.yul\":8600:8679   */\n      tag_329\n      tag_180\n      jump\t// in\n    tag_329:\n        /* \"#utility.yul\":8562:8681   */\n    tag_328:\n        /* \"#utility.yul\":8720:8721   */\n      0x00\n        /* \"#utility.yul\":8745:8798   */\n      tag_330\n        /* \"#utility.yul\":8790:8797   */\n      dup6\n        /* \"#utility.yul\":8781:8787   */\n      dup3\n        /* \"#utility.yul\":8770:8779   */\n      dup7\n        /* \"#utility.yul\":8766:8788   */\n      add\n        /* \"#utility.yul\":8745:8798   */\n      tag_184\n      jump\t// in\n    tag_330:\n        /* \"#utility.yul\":8735:8798   */\n      swap3\n      pop\n        /* \"#utility.yul\":8691:8808   */\n      pop\n        /* \"#utility.yul\":8847:8849   */\n      0x20\n        /* \"#utility.yul\":8873:8926   */\n      tag_331\n        /* \"#utility.yul\":8918:8925   */\n      dup6\n        /* \"#utility.yul\":8909:8915   */\n      dup3\n        /* \"#utility.yul\":8898:8907   */\n      dup7\n        /* \"#utility.yul\":8894:8916   */\n      add\n        /* \"#utility.yul\":8873:8926   */\n      tag_184\n      jump\t// in\n    tag_331:\n        /* \"#utility.yul\":8863:8926   */\n      swap2\n      pop\n        /* \"#utility.yul\":8818:8936   */\n      pop\n        /* \"#utility.yul\":8469:8943   */\n      swap3\n      pop\n      swap3\n      swap1\n      pop\n      jump\t// out\n        /* \"#utility.yul\":8949:9171   */\n    tag_43:\n        /* \"#utility.yul\":9042:9046   */\n      0x00\n        /* \"#utility.yul\":9080:9082   */\n      0x20\n        /* \"#utility.yul\":9069:9078   */\n      dup3\n        /* \"#utility.yul\":9065:9083   */\n      add\n        /* \"#utility.yul\":9057:9083   */\n      swap1\n      pop\n        /* \"#utility.yul\":9093:9164   */\n      tag_333\n        /* \"#utility.yul\":9161:9162   */\n      0x00\n        /* \"#utility.yul\":9150:9159   */\n      dup4\n        /* \"#utility.yul\":9146:9163   */\n      add\n        /* \"#utility.yul\":9137:9143   */\n      dup5\n        /* \"#utility.yul\":9093:9164   */\n      tag_199\n      jump\t// in\n    tag_333:\n        /* \"#utility.yul\":8949:9171   */\n      swap3\n      swap2\n      pop\n      pop\n      jump\t// out\n        /* \"#utility.yul\":9177:10628   */\n    tag_47:\n        /* \"#utility.yul\":9302:9308   */\n      0x00\n        /* \"#utility.yul\":9310:9316   */\n      dup1\n        /* \"#utility.yul\":9318:9324   */\n      0x00\n        /* \"#utility.yul\":9326:9332   */\n      dup1\n        /* \"#utility.yul\":9334:9340   */\n      0x00\n        /* \"#utility.yul\":9383:9386   */\n      0xa0\n        /* \"#utility.yul\":9371:9380   */\n      dup7\n        /* \"#utility.yul\":9362:9369   */\n      dup9\n        /* \"#utility.yul\":9358:9381   */\n      sub\n        /* \"#utility.yul\":9354:9387   */\n      slt\n        /* \"#utility.yul\":9351:9471   */\n      iszero\n      tag_335\n      jumpi\n        /* \"#utility.yul\":9390:9469   */\n      tag_336\n      tag_180\n      jump\t// in\n    tag_336:\n        /* \"#utility.yul\":9351:9471   */\n    tag_335:\n        /* \"#utility.yul\":9538:9539   */\n      0x00\n        /* \"#utility.yul\":9527:9536   */\n      dup7\n        /* \"#utility.yul\":9523:9540   */\n      add\n        /* \"#utility.yul\":9510:9541   */\n      calldataload\n        /* \"#utility.yul\":9568:9586   */\n      0xffffffffffffffff\n        /* \"#utility.yul\":9560:9566   */\n      dup2\n        /* \"#utility.yul\":9557:9587   */\n      gt\n        /* \"#utility.yul\":9554:9671   */\n      iszero\n      tag_337\n      jumpi\n        /* \"#utility.yul\":9590:9669   */\n      tag_338\n      tag_181\n      jump\t// in\n    tag_338:\n        /* \"#utility.yul\":9554:9671   */\n    tag_337:\n        /* \"#utility.yul\":9695:9758   */\n      tag_339\n        /* \"#utility.yul\":9750:9757   */\n      dup9\n        /* \"#utility.yul\":9741:9747   */\n      dup3\n        /* \"#utility.yul\":9730:9739   */\n      dup10\n        /* \"#utility.yul\":9726:9748   */\n      add\n        /* \"#utility.yul\":9695:9758   */\n      tag_194\n      jump\t// in\n    tag_339:\n        /* \"#utility.yul\":9685:9758   */\n      swap6\n      pop\n        /* \"#utility.yul\":9481:9768   */\n      pop\n        /* \"#utility.yul\":9835:9837   */\n      0x20\n        /* \"#utility.yul\":9824:9833   */\n      dup7\n        /* \"#utility.yul\":9820:9838   */\n      add\n        /* \"#utility.yul\":9807:9839   */\n      calldataload\n        /* \"#utility.yul\":9866:9884   */\n      0xffffffffffffffff\n        /* \"#utility.yul\":9858:9864   */\n      dup2\n        /* \"#utility.yul\":9855:9885   */\n      gt\n        /* \"#utility.yul\":9852:9969   */\n      iszero\n      tag_340\n      jumpi\n        /* \"#utility.yul\":9888:9967   */\n      tag_341\n      tag_181\n      jump\t// in\n    tag_341:\n        /* \"#utility.yul\":9852:9969   */\n    tag_340:\n        /* \"#utility.yul\":9993:10056   */\n      tag_342\n        /* \"#utility.yul\":10048:10055   */\n      dup9\n        /* \"#utility.yul\":10039:10045   */\n      dup3\n        /* \"#utility.yul\":10028:10037   */\n      dup10\n        /* \"#utility.yul\":10024:10046   */\n      add\n        /* \"#utility.yul\":9993:10056   */\n      tag_194\n      jump\t// in\n    tag_342:\n        /* \"#utility.yul\":9983:10056   */\n      swap5\n      pop\n        /* \"#utility.yul\":9778:10066   */\n      pop\n        /* \"#utility.yul\":10105:10107   */\n      0x40\n        /* \"#utility.yul\":10131:10184   */\n      tag_343\n        /* \"#utility.yul\":10176:10183   */\n      dup9\n        /* \"#utility.yul\":10167:10173   */\n      dup3\n        /* \"#utility.yul\":10156:10165   */\n      dup10\n        /* \"#utility.yul\":10152:10174   */\n      add\n        /* \"#utility.yul\":10131:10184   */\n      tag_184\n      jump\t// in\n    tag_343:\n        /* \"#utility.yul\":10121:10184   */\n      swap4\n      pop\n        /* \"#utility.yul\":10076:10194   */\n      pop\n        /* \"#utility.yul\":10261:10263   */\n      0x60\n        /* \"#utility.yul\":10250:10259   */\n      dup7\n        /* \"#utility.yul\":10246:10264   */\n      add\n        /* \"#utility.yul\":10233:10265   */\n      calldataload\n        /* \"#utility.yul\":10292:10310   */\n      0xffffffffffffffff\n        /* \"#utility.yul\":10284:10290   */\n      dup2\n        /* \"#utility.yul\":10281:10311   */\n      gt\n        /* \"#utility.yul\":10278:10395   */\n      iszero\n      tag_344\n      jumpi\n        /* \"#utility.yul\":10314:10393   */\n      tag_345\n      tag_181\n      jump\t// in\n    tag_345:\n        /* \"#utility.yul\":10278:10395   */\n    tag_344:\n        /* \"#utility.yul\":10419:10482   */\n      tag_346\n        /* \"#utility.yul\":10474:10481   */\n      dup9\n        /* \"#utility.yul\":10465:10471   */\n      dup3\n        /* \"#utility.yul\":10454:10463   */\n      dup10\n        /* \"#utility.yul\":10450:10472   */\n      add\n        /* \"#utility.yul\":10419:10482   */\n      tag_194\n      jump\t// in\n    tag_346:\n        /* \"#utility.yul\":10409:10482   */\n      swap3\n      pop\n        /* \"#utility.yul\":10204:10492   */\n      pop\n        /* \"#utility.yul\":10531:10534   */\n      0x80\n        /* \"#utility.yul\":10558:10611   */\n      tag_347\n        /* \"#utility.yul\":10603:10610   */\n      dup9\n        /* \"#utility.yul\":10594:10600   */\n      dup3\n        /* \"#utility.yul\":10583:10592   */\n      dup10\n        /* \"#utility.yul\":10579:10601   */\n      add\n        /* \"#utility.yul\":10558:10611   */\n      tag_184\n      jump\t// in\n    tag_347:\n        /* \"#utility.yul\":10548:10611   */\n      swap2\n      pop\n        /* \"#utility.yul\":10502:10621   */\n      pop\n        /* \"#utility.yul\":9177:10628   */\n      swap3\n      swap6\n      pop\n      swap3\n      swap6\n      swap1\n      swap4\n      pop\n      jump\t// out\n        /* \"#utility.yul\":10634:10814   */\n    tag_203:\n        /* \"#utility.yul\":10682:10759   */\n      0x4e487b7100000000000000000000000000000000000000000000000000000000\n        /* \"#utility.yul\":10679:10680   */\n      0x00\n        /* \"#utility.yul\":10672:10760   */\n      mstore\n        /* \"#utility.yul\":10779:10783   */\n      0x22\n        /* \"#utility.yul\":10776:10777   */\n      0x04\n        /* \"#utility.yul\":10769:10784   */\n      mstore\n        /* \"#utility.yul\":10803:10807   */\n      0x24\n        /* \"#utility.yul\":10800:10801   */\n      0x00\n        /* \"#utility.yul\":10793:10808   */\n      revert\n        /* \"#utility.yul\":10820:11140   */\n    tag_69:\n        /* \"#utility.yul\":10864:10870   */\n      0x00\n        /* \"#utility.yul\":10901:10902   */\n      0x02\n        /* \"#utility.yul\":10895:10899   */\n      dup3\n        /* \"#utility.yul\":10891:10903   */\n      div\n        /* \"#utility.yul\":10881:10903   */\n      swap1\n      pop\n        /* \"#utility.yul\":10948:10949   */\n      0x01\n        /* \"#utility.yul\":10942:10946   */\n      dup3\n        /* \"#utility.yul\":10938:10950   */\n      and\n        /* \"#utility.yul\":10969:10987   */\n      dup1\n        /* \"#utility.yul\":10959:11040   */\n      tag_350\n      jumpi\n        /* \"#utility.yul\":11025:11029   */\n      0x7f\n        /* \"#utility.yul\":11017:11023   */\n      dup3\n        /* \"#utility.yul\":11013:11030   */\n      and\n        /* \"#utility.yul\":11003:11030   */\n      swap2\n      pop\n        /* \"#utility.yul\":10959:11040   */\n    tag_350:\n        /* \"#utility.yul\":11087:11089   */\n      0x20\n        /* \"#utility.yul\":11079:11085   */\n      dup3\n        /* \"#utility.yul\":11076:11090   */\n      lt\n        /* \"#utility.yul\":11056:11074   */\n      dup2\n        /* \"#utility.yul\":11053:11091   */\n      sub\n        /* \"#utility.yul\":11050:11134   */\n      tag_351\n      jumpi\n        /* \"#utility.yul\":11106:11124   */\n      tag_352\n      tag_203\n      jump\t// in\n    tag_352:\n        /* \"#utility.yul\":11050:11134   */\n    tag_351:\n        /* \"#utility.yul\":10871:11140   */\n      pop\n        /* \"#utility.yul\":10820:11140   */\n      swap2\n      swap1\n      pop\n      jump\t// out\n        /* \"#utility.yul\":11146:11287   */\n    tag_204:\n        /* \"#utility.yul\":11195:11199   */\n      0x00\n        /* \"#utility.yul\":11218:11221   */\n      dup2\n        /* \"#utility.yul\":11210:11221   */\n      swap1\n      pop\n        /* \"#utility.yul\":11241:11244   */\n      dup2\n        /* \"#utility.yul\":11238:11239   */\n      0x00\n        /* \"#utility.yul\":11231:11245   */\n      mstore\n        /* \"#utility.yul\":11275:11279   */\n      0x20\n        /* \"#utility.yul\":11272:11273   */\n      0x00\n        /* \"#utility.yul\":11262:11280   */\n      keccak256\n        /* \"#utility.yul\":11254:11280   */\n      swap1\n      pop\n        /* \"#utility.yul\":11146:11287   */\n      swap2\n      swap1\n      pop\n      jump\t// out\n        /* \"#utility.yul\":11293:11386   */\n    tag_205:\n        /* \"#utility.yul\":11330:11336   */\n      0x00\n        /* \"#utility.yul\":11377:11379   */\n      0x20\n        /* \"#utility.yul\":11372:11374   */\n      0x1f\n        /* \"#utility.yul\":11365:11370   */\n      dup4\n        /* \"#utility.yul\":11361:11375   */\n      add\n        /* \"#utility.yul\":11357:11380   */\n      div\n        /* \"#utility.yul\":11347:11380   */\n      swap1\n      pop\n        /* \"#utility.yul\":11293:11386   */\n      swap2\n      swap1\n      pop\n      jump\t// out\n        /* \"#utility.yul\":11392:11499   */\n    tag_206:\n        /* \"#utility.yul\":11436:11444   */\n      0x00\n        /* \"#utility.yul\":11486:11491   */\n      dup3\n        /* \"#utility.yul\":11480:11484   */\n      dup3\n        /* \"#utility.yul\":11476:11492   */\n      shl\n        /* \"#utility.yul\":11455:11492   */\n      swap1\n      pop\n        /* \"#utility.yul\":11392:11499   */\n      swap3\n      swap2\n      pop\n      pop\n      jump\t// out\n        /* \"#utility.yul\":11505:11898   */\n    tag_207:\n        /* \"#utility.yul\":11574:11580   */\n      0x00\n        /* \"#utility.yul\":11624:11625   */\n      0x08\n        /* \"#utility.yul\":11612:11622   */\n      dup4\n        /* \"#utility.yul\":11608:11626   */\n      mul\n        /* \"#utility.yul\":11647:11744   */\n      tag_357\n        /* \"#utility.yul\":11677:11743   */\n      0xffffffffffffffffffffffffffffffffffffffffffffffffffffffffffffffff\n        /* \"#utility.yul\":11666:11675   */\n      dup3\n        /* \"#utility.yul\":11647:11744   */\n      tag_206\n      jump\t// in\n    tag_357:\n        /* \"#utility.yul\":11765:11804   */\n      tag_358\n        /* \"#utility.yul\":11795:11803   */\n      dup7\n        /* \"#utility.yul\":11784:11793   */\n      dup4\n        /* \"#utility.yul\":11765:11804   */\n      tag_206\n      jump\t// in\n    tag_358:\n        /* \"#utility.yul\":11753:11804   */\n      swap6\n      pop\n        /* \"#utility.yul\":11837:11841   */\n      dup1\n        /* \"#utility.yul\":11833:11842   */\n      not\n        /* \"#utility.yul\":11826:11831   */\n      dup5\n        /* \"#utility.yul\":11822:11843   */\n      and\n        /* \"#utility.yul\":11813:11843   */\n      swap4\n      pop\n        /* \"#utility.yul\":11886:11890   */\n      dup1\n        /* \"#utility.yul\":11876:11884   */\n      dup7\n        /* \"#utility.yul\":11872:11891   */\n      and\n        /* \"#utility.yul\":11865:11870   */\n      dup5\n        /* \"#utility.yul\":11862:11892   */\n      or\n        /* \"#utility.yul\":11852:11892   */\n      swap3\n      pop\n        /* \"#utility.yul\":11581:11898   */\n      pop\n      pop\n        /* \"#utility.yul\":11505:11898   */\n      swap4\n      swap3\n      pop\n      pop\n      pop\n      jump\t// out\n        /* \"#utility.yul\":11904:11964   */\n    tag_208:\n        /* \"#utility.yul\":11932:11935   */\n      0x00\n        /* \"#utility.yul\":11953:11958   */\n      dup2\n        /* \"#utility.yul\":11946:11958   */\n      swap1\n      pop\n        /* \"#utility.yul\":11904:11964   */\n      swap2\n      swap1\n      pop\n      jump\t// out\n        /* \"#utility.yul\":11970:12112   */\n    tag_209:\n        /* \"#utility.yul\":12020:12029   */\n      0x00\n        /* \"#utility.yul\":12053:12106   */\n      tag_361\n        /* \"#utility.yul\":12071:12105   */\n      tag_362\n        /* \"#utility.yul\":12080:12104   */\n      tag_363\n        /* \"#utility.yul\":12098:12103   */\n      dup5\n        /* \"#utility.yul\":12080:12104   */\n      tag_182\n      jump\t// in\n    tag_363:\n        /* \"#utility.yul\":12071:12105   */\n      tag_208\n      jump\t// in\n    tag_362:\n        /* \"#utility.yul\":12053:12106   */\n      tag_182\n      jump\t// in\n    tag_361:\n        /* \"#utility.yul\":12040:12106   */\n      swap1\n      pop\n        /* \"#utility.yul\":11970:12112   */\n      swap2\n      swap1\n      pop\n      jump\t// out\n        /* \"#utility.yul\":12118:12193   */\n    tag_210:\n        /* \"#utility.yul\":12161:12164   */\n      0x00\n        /* \"#utility.yul\":12182:12187   */\n      dup2\n        /* \"#utility.yul\":12175:12187   */\n      swap1\n      pop\n        /* \"#utility.yul\":12118:12193   */\n      swap2\n      swap1\n      pop\n      jump\t// out\n        /* \"#utility.yul\":12199:12468   */\n    tag_211:\n        /* \"#utility.yul\":12309:12348   */\n      tag_366\n        /* \"#utility.yul\":12340:12347   */\n      dup4\n        /* \"#utility.yul\":12309:12348   */\n      tag_209\n      jump\t// in\n    tag_366:\n        /* \"#utility.yul\":12370:12461   */\n      tag_367\n        /* \"#utility.yul\":12419:12460   */\n      tag_368\n        /* \"#utility.yul\":12443:12459   */\n      dup3\n        /* \"#utility.yul\":12419:12460   */\n      tag_210\n      jump\t// in\n    tag_368:\n        /* \"#utility.yul\":12411:12417   */\n      dup5\n        /* \"#utility.yul\":12404:12408   */\n      dup5\n        /* \"#utility.yul\":12398:12409   */\n      sload\n        /* \"#utility.yul\":12370:12461   */\n      tag_207\n      jump\t// in\n    tag_367:\n        /* \"#utility.yul\":12364:12368   */\n      dup3\n        /* \"#utility.yul\":12357:12462   */\n      sstore\n        /* \"#utility.yul\":12275:12468   */\n      pop\n        /* \"#utility.yul\":12199:12468   */\n      pop\n      pop\n      pop\n      jump\t// out\n        /* \"#utility.yul\":12474:12547   */\n    tag_212:\n        /* \"#utility.yul\":12519:12522   */\n      0x00\n        /* \"#utility.yul\":12474:12547   */\n      swap1\n      jump\t// out\n        /* \"#utility.yul\":12553:12742   */\n    tag_213:\n        /* \"#utility.yul\":12630:12662   */\n      tag_371\n      tag_212\n      jump\t// in\n    tag_371:\n        /* \"#utility.yul\":12671:12736   */\n      tag_372\n        /* \"#utility.yul\":12729:12735   */\n      dup2\n        /* \"#utility.yul\":12721:12727   */\n      dup5\n        /* \"#utility.yul\":12715:12719   */\n      dup5\n        /* \"#utility.yul\":12671:12736   */\n      tag_211\n      jump\t// in\n    tag_372:\n        /* \"#utility.yul\":12606:12742   */\n      pop\n        /* \"#utility.yul\":12553:12742   */\n      pop\n      pop\n      jump\t// out\n        /* \"#utility.yul\":12748:12934   */\n    tag_214:\n        /* \"#utility.yul\":12808:12928   */\n    tag_374:\n        /* \"#utility.yul\":12825:12828   */\n      dup2\n        /* \"#utility.yul\":12818:12823   */\n      dup2\n        /* \"#utility.yul\":12815:12829   */\n      lt\n        /* \"#utility.yul\":12808:12928   */\n      iszero\n      tag_376\n      jumpi\n        /* \"#utility.yul\":12879:12918   */\n      tag_377\n        /* \"#utility.yul\":12916:12917   */\n      0x00\n        /* \"#utility.yul\":12909:12914   */\n      dup3\n        /* \"#utility.yul\":12879:12918   */\n      tag_213\n      jump\t// in\n    tag_377:\n        /* \"#utility.yul\":12852:12853   */\n      0x01\n        /* \"#utility.yul\":12845:12850   */\n      dup2\n        /* \"#utility.yul\":12841:12854   */\n      add\n        /* \"#utility.yul\":12832:12854   */\n      swap1\n      pop\n        /* \"#utility.yul\":12808:12928   */\n      jump(tag_374)\n    tag_376:\n        /* \"#utility.yul\":12748:12934   */\n      pop\n      pop\n      jump\t// out\n        /* \"#utility.yul\":12940:13483   */\n    tag_215:\n        /* \"#utility.yul\":13041:13043   */\n      0x1f\n        /* \"#utility.yul\":13036:13039   */\n      dup3\n        /* \"#utility.yul\":13033:13044   */\n      gt\n        /* \"#utility.yul\":13030:13476   */\n      iszero\n      tag_379\n      jumpi\n        /* \"#utility.yul\":13075:13113   */\n      tag_380\n        /* \"#utility.yul\":13107:13112   */\n      dup2\n        /* \"#utility.yul\":13075:13113   */\n      tag_204\n      jump\t// in\n    tag_380:\n        /* \"#utility.yul\":13159:13188   */\n      tag_381\n        /* \"#utility.yul\":13177:13187   */\n      dup5\n        /* \"#utility.yul\":13159:13188   */\n      tag_205\n      jump\t// in\n    tag_381:\n        /* \"#utility.yul\":13149:13157   */\n      dup2\n        /* \"#utility.yul\":13145:13189   */\n      add\n        /* \"#utility.yul\":13342:13344   */\n      0x20\n        /* \"#utility.yul\":13330:13340   */\n      dup6\n        /* \"#utility.yul\":13327:13345   */\n      lt\n        /* \"#utility.yul\":13324:13373   */\n      iszero\n      tag_382\n      jumpi\n        /* \"#utility.yul\":13363:13371   */\n      dup2\n        /* \"#utility.yul\":13348:13371   */\n      swap1\n      pop\n        /* \"#utility.yul\":13324:13373   */\n    tag_382:\n        /* \"#utility.yul\":13386:13466   */\n      tag_383\n        /* \"#utility.yul\":13442:13464   */\n      tag_384\n        /* \"#utility.yul\":13460:13463   */\n      dup6\n        /* \"#utility.yul\":13442:13464   */\n      tag_205\n      jump\t// in\n    tag_384:\n        /* \"#utility.yul\":13432:13440   */\n      dup4\n        /* \"#utility.yul\":13428:13465   */\n      add\n        /* \"#utility.yul\":13415:13426   */\n      dup3\n        /* \"#utility.yul\":13386:13466   */\n      tag_214\n      jump\t// in\n    tag_383:\n        /* \"#utility.yul\":13045:13476   */\n      pop\n      pop\n        /* \"#utility.yul\":13030:13476   */\n    tag_379:\n        /* \"#utility.yul\":12940:13483   */\n      pop\n      pop\n      pop\n      jump\t// out\n        /* \"#utility.yul\":13489:13606   */\n    tag_216:\n        /* \"#utility.yul\":13543:13551   */\n      0x00\n        /* \"#utility.yul\":13593:13598   */\n      dup3\n        /* \"#utility.yul\":13587:13591   */\n      dup3\n        /* \"#utility.yul\":13583:13599   */\n      shr\n        /* \"#utility.yul\":13562:13599   */\n      swap1\n      pop\n        /* \"#utility.yul\":13489:13606   */\n      swap3\n      swap2\n      pop\n      pop\n      jump\t// out\n        /* \"#utility.yul\":13612:13781   */\n    tag_217:\n        /* \"#utility.yul\":13656:13662   */\n      0x00\n        /* \"#utility.yul\":13689:13740   */\n      tag_387\n        /* \"#utility.yul\":13737:13738   */\n      0x00\n        /* \"#utility.yul\":13733:13739   */\n      not\n        /* \"#utility.yul\":13725:13730   */\n      dup5\n        /* \"#utility.yul\":13722:13723   */\n      0x08\n        /* \"#utility.yul\":13718:13731   */\n      mul\n        /* \"#utility.yul\":13689:13740   */\n      tag_216\n      jump\t// in\n    tag_387:\n        /* \"#utility.yul\":13685:13741   */\n      not\n        /* \"#utility.yul\":13770:13774   */\n      dup1\n        /* \"#utility.yul\":13764:13768   */\n      dup4\n        /* \"#utility.yul\":13760:13775   */\n      and\n        /* \"#utility.yul\":13750:13775   */\n      swap2\n      pop\n        /* \"#utility.yul\":13663:13781   */\n      pop\n        /* \"#utility.yul\":13612:13781   */\n      swap3\n      swap2\n      pop\n      pop\n      jump\t// out\n        /* \"#utility.yul\":13786:14081   */\n    tag_218:\n        /* \"#utility.yul\":13862:13866   */\n      0x00\n        /* \"#utility.yul\":14008:14037   */\n      tag_389\n        /* \"#utility.yul\":14033:14036   */\n      dup4\n        /* \"#utility.yul\":14027:14031   */\n      dup4\n        /* \"#utility.yul\":14008:14037   */\n      tag_217\n      jump\t// in\n    tag_389:\n        /* \"#utility.yul\":14000:14037   */\n      swap2\n      pop\n        /* \"#utility.yul\":14070:14073   */\n      dup3\n        /* \"#utility.yul\":14067:14068   */\n      0x02\n        /* \"#utility.yul\":14063:14074   */\n      mul\n        /* \"#utility.yul\":14057:14061   */\n      dup3\n        /* \"#utility.yul\":14054:14075   */\n      or\n        /* \"#utility.yul\":14046:14075   */\n      swap1\n      pop\n        /* \"#utility.yul\":13786:14081   */\n      swap3\n      swap2\n      pop\n      pop\n      jump\t// out\n        /* \"#utility.yul\":14086:15481   */\n    tag_59:\n        /* \"#utility.yul\":14203:14240   */\n      tag_391\n        /* \"#utility.yul\":14236:14239   */\n      dup3\n        /* \"#utility.yul\":14203:14240   */\n      tag_195\n      jump\t// in\n    tag_391:\n        /* \"#utility.yul\":14305:14323   */\n      0xffffffffffffffff\n        /* \"#utility.yul\":14297:14303   */\n      dup2\n        /* \"#utility.yul\":14294:14324   */\n      gt\n        /* \"#utility.yul\":14291:14347   */\n      iszero\n      tag_392\n      jumpi\n        /* \"#utility.yul\":14327:14345   */\n      tag_393\n      tag_188\n      jump\t// in\n    tag_393:\n        /* \"#utility.yul\":14291:14347   */\n    tag_392:\n        /* \"#utility.yul\":14371:14409   */\n      tag_394\n        /* \"#utility.yul\":14403:14407   */\n      dup3\n        /* \"#utility.yul\":14397:14408   */\n      sload\n        /* \"#utility.yul\":14371:14409   */\n      tag_69\n      jump\t// in\n    tag_394:\n        /* \"#utility.yul\":14456:14523   */\n      tag_395\n        /* \"#utility.yul\":14516:14522   */\n      dup3\n        /* \"#utility.yul\":14508:14514   */\n      dup3\n        /* \"#utility.yul\":14502:14506   */\n      dup6\n        /* \"#utility.yul\":14456:14523   */\n      tag_215\n      jump\t// in\n    tag_395:\n        /* \"#utility.yul\":14550:14551   */\n      0x00\n        /* \"#utility.yul\":14574:14578   */\n      0x20\n        /* \"#utility.yul\":14561:14578   */\n      swap1\n      pop\n        /* \"#utility.yul\":14606:14608   */\n      0x1f\n        /* \"#utility.yul\":14598:14604   */\n      dup4\n        /* \"#utility.yul\":14595:14609   */\n      gt\n        /* \"#utility.yul\":14623:14624   */\n      0x01\n        /* \"#utility.yul\":14618:15236   */\n      dup2\n      eq\n      tag_397\n      jumpi\n        /* \"#utility.yul\":15280:15281   */\n      0x00\n        /* \"#utility.yul\":15297:15303   */\n      dup5\n        /* \"#utility.yul\":15294:15371   */\n      iszero\n      tag_398\n      jumpi\n        /* \"#utility.yul\":15346:15355   */\n      dup3\n        /* \"#utility.yul\":15341:15344   */\n      dup8\n        /* \"#utility.yul\":15337:15356   */\n      add\n        /* \"#utility.yul\":15331:15357   */\n      mload\n        /* \"#utility.yul\":15322:15357   */\n      swap1\n      pop\n        /* \"#utility.yul\":15294:15371   */\n    tag_398:\n        /* \"#utility.yul\":15397:15464   */\n      tag_399\n        /* \"#utility.yul\":15457:15463   */\n      dup6\n        /* \"#utility.yul\":15450:15455   */\n      dup3\n        /* \"#utility.yul\":15397:15464   */\n      tag_218\n      jump\t// in\n    tag_399:\n        /* \"#utility.yul\":15391:15395   */\n      dup7\n        /* \"#utility.yul\":15384:15465   */\n      sstore\n        /* \"#utility.yul\":15253:15475   */\n      pop\n        /* \"#utility.yul\":14588:15475   */\n      jump(tag_396)\n        /* \"#utility.yul\":14618:15236   */\n    tag_397:\n        /* \"#utility.yul\":14670:14674   */\n      0x1f\n        /* \"#utility.yul\":14666:14675   */\n      not\n        /* \"#utility.yul\":14658:14664   */\n      dup5\n        /* \"#utility.yul\":14654:14676   */\n      and\n        /* \"#utility.yul\":14704:14741   */\n      tag_400\n        /* \"#utility.yul\":14736:14740   */\n      dup7\n        /* \"#utility.yul\":14704:14741   */\n      tag_204\n      jump\t// in\n    tag_400:\n        /* \"#utility.yul\":14763:14764   */\n      0x00\n        /* \"#utility.yul\":14777:14985   */\n    tag_401:\n        /* \"#utility.yul\":14791:14798   */\n      dup3\n        /* \"#utility.yul\":14788:14789   */\n      dup2\n        /* \"#utility.yul\":14785:14799   */\n      lt\n        /* \"#utility.yul\":14777:14985   */\n      iszero\n      tag_403\n      jumpi\n        /* \"#utility.yul\":14870:14879   */\n      dup5\n        /* \"#utility.yul\":14865:14868   */\n      dup10\n        /* \"#utility.yul\":14861:14880   */\n      add\n        /* \"#utility.yul\":14855:14881   */\n      mload\n        /* \"#utility.yul\":14847:14853   */\n      dup3\n        /* \"#utility.yul\":14840:14882   */\n      sstore\n        /* \"#utility.yul\":14921:14922   */\n      0x01\n        /* \"#utility.yul\":14913:14919   */\n      dup3\n        /* \"#utility.yul\":14909:14923   */\n      add\n        /* \"#utility.yul\":14899:14923   */\n      swap2\n      pop\n        /* \"#utility.yul\":14968:14970   */\n      0x20\n        /* \"#utility.yul\":14957:14966   */\n      dup6\n        /* \"#utility.yul\":14953:14971   */\n      add\n        /* \"#utility.yul\":14940:14971   */\n      swap5\n      pop\n        /* \"#utility.yul\":14814:14818   */\n      0x20\n        /* \"#utility.yul\":14811:14812   */\n      dup2\n        /* \"#utility.yul\":14807:14819   */\n      add\n        /* \"#utility.yul\":14802:14819   */\n      swap1\n      pop\n        /* \"#utility.yul\":14777:14985   */\n      jump(tag_401)\n    tag_403:\n        /* \"#utility.yul\":15013:15019   */\n      dup7\n        /* \"#utility.yul\":15004:15011   */\n      dup4\n        /* \"#utility.yul\":15001:15020   */\n      lt\n        /* \"#utility.yul\":14998:15177   */\n      iszero\n      tag_404\n      jumpi\n        /* \"#utility.yul\":15071:15080   */\n      dup5\n        /* \"#utility.yul\":15066:15069   */\n      dup10\n        /* \"#utility.yul\":15062:15081   */\n      add\n        /* \"#utility.yul\":15056:15082   */\n      mload\n        /* \"#utility.yul\":15114:15162   */\n      tag_405\n        /* \"#utility.yul\":15156:15160   */\n      0x1f\n        /* \"#utility.yul\":15148:15154   */\n      dup10\n        /* \"#utility.yul\":15144:15161   */\n      and\n        /* \"#utility.yul\":15133:15142   */\n      dup3\n        /* \"#utility.yul\":15114:15162   */\n      tag_217\n      jump\t// in\n    tag_405:\n        /* \"#utility.yul\":15106:15112   */\n      dup4\n        /* \"#utility.yul\":15099:15163   */\n      sstore\n        /* \"#utility.yul\":15021:15177   */\n      pop\n        /* \"#utility.yul\":14998:15177   */\n    tag_404:\n        /* \"#utility.yul\":15223:15224   */\n      0x01\n        /* \"#utility.yul\":15219:15220   */\n      0x02\n        /* \"#utility.yul\":15211:15217   */\n      dup9\n        /* \"#utility.yul\":15207:15221   */\n      mul\n        /* \"#utility.yul\":15203:15225   */\n      add\n        /* \"#utility.yul\":15197:15201   */\n      dup9\n        /* \"#utility.yul\":15190:15226   */\n      sstore\n        /* \"#utility.yul\":14625:15236   */\n      pop\n      pop\n      pop\n        /* \"#utility.yul\":14588:15475   */\n    tag_396:\n      pop\n        /* \"#utility.yul\":14178:15481   */\n      pop\n      pop\n      pop\n        /* \"#utility.yul\":14086:15481   */\n      pop\n      pop\n      jump\t// out\n        /* \"#utility.yul\":15487:15655   */\n    tag_219:\n        /* \"#utility.yul\":15627:15647   */\n      0x496e76616c69642070726f647563742049440000000000000000000000000000\n        /* \"#utility.yul\":15623:15624   */\n      0x00\n        /* \"#utility.yul\":15615:15621   */\n      dup3\n        /* \"#utility.yul\":15611:15625   */\n      add\n        /* \"#utility.yul\":15604:15648   */\n      mstore\n        /* \"#utility.yul\":15487:15655   */\n      pop\n      jump\t// out\n        /* \"#utility.yul\":15661:16027   */\n    tag_220:\n        /* \"#utility.yul\":15803:15806   */\n      0x00\n        /* \"#utility.yul\":15824:15891   */\n      tag_408\n        /* \"#utility.yul\":15888:15890   */\n      0x12\n        /* \"#utility.yul\":15883:15886   */\n      dup4\n        /* \"#utility.yul\":15824:15891   */\n      tag_196\n      jump\t// in\n    tag_408:\n        /* \"#utility.yul\":15817:15891   */\n      swap2\n      pop\n        /* \"#utility.yul\":15900:15993   */\n      tag_409\n        /* \"#utility.yul\":15989:15992   */\n      dup3\n        /* \"#utility.yul\":15900:15993   */\n      tag_219\n      jump\t// in\n    tag_409:\n        /* \"#utility.yul\":16018:16020   */\n      0x20\n        /* \"#utility.yul\":16013:16016   */\n      dup3\n        /* \"#utility.yul\":16009:16021   */\n      add\n        /* \"#utility.yul\":16002:16021   */\n      swap1\n      pop\n        /* \"#utility.yul\":15661:16027   */\n      swap2\n      swap1\n      pop\n      jump\t// out\n        /* \"#utility.yul\":16033:16452   */\n    tag_67:\n        /* \"#utility.yul\":16199:16203   */\n      0x00\n        /* \"#utility.yul\":16237:16239   */\n      0x20\n        /* \"#utility.yul\":16226:16235   */\n      dup3\n        /* \"#utility.yul\":16222:16240   */\n      add\n        /* \"#utility.yul\":16214:16240   */\n      swap1\n      pop\n        /* \"#utility.yul\":16286:16295   */\n      dup2\n        /* \"#utility.yul\":16280:16284   */\n      dup2\n        /* \"#utility.yul\":16276:16296   */\n      sub\n        /* \"#utility.yul\":16272:16273   */\n      0x00\n        /* \"#utility.yul\":16261:16270   */\n      dup4\n        /* \"#utility.yul\":16257:16274   */\n      add\n        /* \"#utility.yul\":16250:16297   */\n      mstore\n        /* \"#utility.yul\":16314:16445   */\n      tag_411\n        /* \"#utility.yul\":16440:16444   */\n      dup2\n        /* \"#utility.yul\":16314:16445   */\n      tag_220\n      jump\t// in\n    tag_411:\n        /* \"#utility.yul\":16306:16445   */\n      swap1\n      pop\n        /* \"#utility.yul\":16033:16452   */\n      swap2\n      swap1\n      pop\n      jump\t// out\n        /* \"#utility.yul\":16458:16634   */\n    tag_221:\n        /* \"#utility.yul\":16598:16626   */\n      0x4e6f7420656e6f7567682073746f636b20617661696c61626c65000000000000\n        /* \"#utility.yul\":16594:16595   */\n      0x00\n        /* \"#utility.yul\":16586:16592   */\n      dup3\n        /* \"#utility.yul\":16582:16596   */\n      add\n        /* \"#utility.yul\":16575:16627   */\n      mstore\n        /* \"#utility.yul\":16458:16634   */\n      pop\n      jump\t// out\n        /* \"#utility.yul\":16640:17006   */\n    tag_222:\n        /* \"#utility.yul\":16782:16785   */\n      0x00\n        /* \"#utility.yul\":16803:16870   */\n      tag_414\n        /* \"#utility.yul\":16867:16869   */\n      0x1a\n        /* \"#utility.yul\":16862:16865   */\n      dup4\n        /* \"#utility.yul\":16803:16870   */\n      tag_196\n      jump\t// in\n    tag_414:\n        /* \"#utility.yul\":16796:16870   */\n      swap2\n      pop\n        /* \"#utility.yul\":16879:16972   */\n      tag_415\n        /* \"#utility.yul\":16968:16971   */\n      dup3\n        /* \"#utility.yul\":16879:16972   */\n      tag_221\n      jump\t// in\n    tag_415:\n        /* \"#utility.yul\":16997:16999   */\n      0x20\n        /* \"#utility.yul\":16992:16995   */\n      dup3\n        /* \"#utility.yul\":16988:17000   */\n      add\n        /* \"#utility.yul\":16981:17000   */\n      swap1\n      pop\n        /* \"#utility.yul\":16640:17006   */\n      swap2\n      swap1\n      pop\n      jump\t// out\n        /* \"#utility.yul\":17012:17431   */\n    tag_105:\n        /* \"#utility.yul\":17178:17182   */\n      0x00\n        /* \"#utility.yul\":17216:17218   */\n      0x20\n        /* \"#utility.yul\":17205:17214   */\n      dup3\n        /* \"#utility.yul\":17201:17219   */\n      add\n        /* \"#utility.yul\":17193:17219   */\n      swap1\n      pop\n        /* \"#utility.yul\":17265:17274   */\n      dup2\n        /* \"#utility.yul\":17259:17263   */\n      dup2\n        /* \"#utility.yul\":17255:17275   */\n      sub\n        /* \"#utility.yul\":17251:17252   */\n      0x00\n        /* \"#utility.yul\":17240:17249   */\n      dup4\n        /* \"#utility.yul\":17236:17253   */\n      add\n        /* \"#utility.yul\":17229:17276   */\n      mstore\n        /* \"#utility.yul\":17293:17424   */\n      tag_417\n        /* \"#utility.yul\":17419:17423   */\n      dup2\n        /* \"#utility.yul\":17293:17424   */\n      tag_222\n      jump\t// in\n    tag_417:\n        /* \"#utility.yul\":17285:17424   */\n      swap1\n      pop\n        /* \"#utility.yul\":17012:17431   */\n      swap2\n      swap1\n      pop\n      jump\t// out\n        /* \"#utility.yul\":17437:17617   */\n    tag_223:\n        /* \"#utility.yul\":17485:17562   */\n      0x4e487b7100000000000000000000000000000000000000000000000000000000\n        /* \"#utility.yul\":17482:17483   */\n      0x00\n        /* \"#utility.yul\":17475:17563   */\n      mstore\n        /* \"#utility.yul\":17582:17586   */\n      0x11\n        /* \"#utility.yul\":17579:17580   */\n      0x04\n        /* \"#utility.yul\":17572:17587   */\n      mstore\n        /* \"#utility.yul\":17606:17610   */\n      0x24\n        /* \"#utility.yul\":17603:17604   */\n      0x00\n        /* \"#utility.yul\":17596:17611   */\n      revert\n        /* \"#utility.yul\":17623:18033   */\n    tag_107:\n        /* \"#utility.yul\":17663:17670   */\n      0x00\n        /* \"#utility.yul\":17686:17706   */\n      tag_420\n        /* \"#utility.yul\":17704:17705   */\n      dup3\n        /* \"#utility.yul\":17686:17706   */\n      tag_182\n      jump\t// in\n    tag_420:\n        /* \"#utility.yul\":17681:17706   */\n      swap2\n      pop\n        /* \"#utility.yul\":17720:17740   */\n      tag_421\n        /* \"#utility.yul\":17738:17739   */\n      dup4\n        /* \"#utility.yul\":17720:17740   */\n      tag_182\n      jump\t// in\n    tag_421:\n        /* \"#utility.yul\":17715:17740   */\n      swap3\n      pop\n        /* \"#utility.yul\":17775:17776   */\n      dup3\n        /* \"#utility.yul\":17772:17773   */\n      dup3\n        /* \"#utility.yul\":17768:17777   */\n      mul\n        /* \"#utility.yul\":17797:17827   */\n      tag_422\n        /* \"#utility.yul\":17815:17826   */\n      dup2\n        /* \"#utility.yul\":17797:17827   */\n      tag_182\n      jump\t// in\n    tag_422:\n        /* \"#utility.yul\":17786:17827   */\n      swap2\n      pop\n        /* \"#utility.yul\":17976:17977   */\n      dup3\n        /* \"#utility.yul\":17967:17974   */\n      dup3\n        /* \"#utility.yul\":17963:17978   */\n      div\n        /* \"#utility.yul\":17960:17961   */\n      dup5\n        /* \"#utility.yul\":17957:17979   */\n      eq\n        /* \"#utility.yul\":17937:17938   */\n      dup4\n        /* \"#utility.yul\":17930:17939   */\n      iszero\n        /* \"#utility.yul\":17910:17993   */\n      or\n        /* \"#utility.yul\":17887:18026   */\n      tag_423\n      jumpi\n        /* \"#utility.yul\":18006:18024   */\n      tag_424\n      tag_223\n      jump\t// in\n    tag_424:\n        /* \"#utility.yul\":17887:18026   */\n    tag_423:\n        /* \"#utility.yul\":17671:18033   */\n      pop\n        /* \"#utility.yul\":17623:18033   */\n      swap3\n      swap2\n      pop\n      pop\n      jump\t// out\n        /* \"#utility.yul\":18039:18213   */\n    tag_224:\n        /* \"#utility.yul\":18179:18205   */\n      0x496e636f7272656374207061796d656e7420616d6f756e740000000000000000\n        /* \"#utility.yul\":18175:18176   */\n      0x00\n        /* \"#utility.yul\":18167:18173   */\n      dup3\n        /* \"#utility.yul\":18163:18177   */\n      add\n        /* \"#utility.yul\":18156:18206   */\n      mstore\n        /* \"#utility.yul\":18039:18213   */\n      pop\n      jump\t// out\n        /* \"#utility.yul\":18219:18585   */\n    tag_225:\n        /* \"#utility.yul\":18361:18364   */\n      0x00\n        /* \"#utility.yul\":18382:18449   */\n      tag_427\n        /* \"#utility.yul\":18446:18448   */\n      0x18\n        /* \"#utility.yul\":18441:18444   */\n      dup4\n        /* \"#utility.yul\":18382:18449   */\n      tag_196\n      jump\t// in\n    tag_427:\n        /* \"#utility.yul\":18375:18449   */\n      swap2\n      pop\n        /* \"#utility.yul\":18458:18551   */\n      tag_428\n        /* \"#utility.yul\":18547:18550   */\n      dup3\n        /* \"#utility.yul\":18458:18551   */\n      tag_224\n      jump\t// in\n    tag_428:\n        /* \"#utility.yul\":18576:18578   */\n      0x20\n        /* \"#utility.yul\":18571:18574   */\n      dup3\n        /* \"#utility.yul\":18567:18579   */\n      add\n        /* \"#utility.yul\":18560:18579   */\n      swap1\n      pop\n        /* \"#utility.yul\":18219:18585   */\n      swap2\n      swap1\n      pop\n      jump\t// out\n        /* \"#utility.yul\":18591:19010   */\n    tag_110:\n        /* \"#utility.yul\":18757:18761   */\n      0x00\n        /* \"#utility.yul\":18795:18797   */\n      0x20\n        /* \"#utility.yul\":18784:18793   */\n      dup3\n        /* \"#utility.yul\":18780:18798   */\n      add\n        /* \"#utility.yul\":18772:18798   */\n      swap1\n      pop\n        /* \"#utility.yul\":18844:18853   */\n      dup2\n        /* \"#utility.yul\":18838:18842   */\n      dup2\n        /* \"#utility.yul\":18834:18854   */\n      sub\n        /* \"#utility.yul\":18830:18831   */\n      0x00\n        /* \"#utility.yul\":18819:18828   */\n      dup4\n        /* \"#utility.yul\":18815:18832   */\n      add\n        /* \"#utility.yul\":18808:18855   */\n      mstore\n        /* \"#utility.yul\":18872:19003   */\n      tag_430\n        /* \"#utility.yul\":18998:19002   */\n      dup2\n        /* \"#utility.yul\":18872:19003   */\n      tag_225\n      jump\t// in\n    tag_430:\n        /* \"#utility.yul\":18864:19003   */\n      swap1\n      pop\n        /* \"#utility.yul\":18591:19010   */\n      swap2\n      swap1\n      pop\n      jump\t// out\n        /* \"#utility.yul\":19016:19210   */\n    tag_114:\n        /* \"#utility.yul\":19056:19060   */\n      0x00\n        /* \"#utility.yul\":19076:19096   */\n      tag_432\n        /* \"#utility.yul\":19094:19095   */\n      dup3\n        /* \"#utility.yul\":19076:19096   */\n      tag_182\n      jump\t// in\n    tag_432:\n        /* \"#utility.yul\":19071:19096   */\n      swap2\n      pop\n        /* \"#utility.yul\":19110:19130   */\n      tag_433\n        /* \"#utility.yul\":19128:19129   */\n      dup4\n        /* \"#utility.yul\":19110:19130   */\n      tag_182\n      jump\t// in\n    tag_433:\n        /* \"#utility.yul\":19105:19130   */\n      swap3\n      pop\n        /* \"#utility.yul\":19154:19155   */\n      dup3\n        /* \"#utility.yul\":19151:19152   */\n      dup3\n        /* \"#utility.yul\":19147:19156   */\n      sub\n        /* \"#utility.yul\":19139:19156   */\n      swap1\n      pop\n        /* \"#utility.yul\":19178:19179   */\n      dup2\n        /* \"#utility.yul\":19172:19176   */\n      dup2\n        /* \"#utility.yul\":19169:19180   */\n      gt\n        /* \"#utility.yul\":19166:19203   */\n      iszero\n      tag_434\n      jumpi\n        /* \"#utility.yul\":19183:19201   */\n      tag_435\n      tag_223\n      jump\t// in\n    tag_435:\n        /* \"#utility.yul\":19166:19203   */\n    tag_434:\n        /* \"#utility.yul\":19016:19210   */\n      swap3\n      swap2\n      pop\n      pop\n      jump\t// out\n        /* \"#utility.yul\":19240:20071   */\n    tag_226:\n        /* \"#utility.yul\":19325:19328   */\n      0x00\n        /* \"#utility.yul\":19362:19367   */\n      dup2\n        /* \"#utility.yul\":19356:19368   */\n      sload\n        /* \"#utility.yul\":19391:19427   */\n      tag_437\n        /* \"#utility.yul\":19417:19426   */\n      dup2\n        /* \"#utility.yul\":19391:19427   */\n      tag_69\n      jump\t// in\n    tag_437:\n        /* \"#utility.yul\":19443:19514   */\n      tag_438\n        /* \"#utility.yul\":19507:19513   */\n      dup2\n        /* \"#utility.yul\":19502:19505   */\n      dup7\n        /* \"#utility.yul\":19443:19514   */\n      tag_196\n      jump\t// in\n    tag_438:\n        /* \"#utility.yul\":19436:19514   */\n      swap5\n      pop\n        /* \"#utility.yul\":19545:19546   */\n      0x01\n        /* \"#utility.yul\":19534:19543   */\n      dup3\n        /* \"#utility.yul\":19530:19547   */\n      and\n        /* \"#utility.yul\":19561:19562   */\n      0x00\n        /* \"#utility.yul\":19556:19720   */\n      dup2\n      eq\n      tag_440\n      jumpi\n        /* \"#utility.yul\":19734:19735   */\n      0x01\n        /* \"#utility.yul\":19729:20065   */\n      dup2\n      eq\n      tag_441\n      jumpi\n        /* \"#utility.yul\":19523:20065   */\n      jump(tag_439)\n        /* \"#utility.yul\":19556:19720   */\n    tag_440:\n        /* \"#utility.yul\":19640:19644   */\n      0xff\n        /* \"#utility.yul\":19636:19645   */\n      not\n        /* \"#utility.yul\":19625:19634   */\n      dup4\n        /* \"#utility.yul\":19621:19646   */\n      and\n        /* \"#utility.yul\":19616:19619   */\n      dup7\n        /* \"#utility.yul\":19609:19647   */\n      mstore\n        /* \"#utility.yul\":19700:19706   */\n      dup2\n        /* \"#utility.yul\":19693:19707   */\n      iszero\n        /* \"#utility.yul\":19686:19708   */\n      iszero\n        /* \"#utility.yul\":19680:19684   */\n      0x20\n        /* \"#utility.yul\":19676:19709   */\n      mul\n        /* \"#utility.yul\":19671:19674   */\n      dup7\n        /* \"#utility.yul\":19667:19710   */\n      add\n        /* \"#utility.yul\":19660:19710   */\n      swap4\n      pop\n        /* \"#utility.yul\":19556:19720   */\n      jump(tag_439)\n        /* \"#utility.yul\":19729:20065   */\n    tag_441:\n        /* \"#utility.yul\":19796:19834   */\n      tag_442\n        /* \"#utility.yul\":19828:19833   */\n      dup6\n        /* \"#utility.yul\":19796:19834   */\n      tag_204\n      jump\t// in\n    tag_442:\n        /* \"#utility.yul\":19856:19857   */\n      0x00\n        /* \"#utility.yul\":19870:20024   */\n    tag_443:\n        /* \"#utility.yul\":19884:19890   */\n      dup4\n        /* \"#utility.yul\":19881:19882   */\n      dup2\n        /* \"#utility.yul\":19878:19891   */\n      lt\n        /* \"#utility.yul\":19870:20024   */\n      iszero\n      tag_445\n      jumpi\n        /* \"#utility.yul\":19958:19965   */\n      dup2\n        /* \"#utility.yul\":19952:19966   */\n      sload\n        /* \"#utility.yul\":19948:19949   */\n      dup2\n        /* \"#utility.yul\":19943:19946   */\n      dup10\n        /* \"#utility.yul\":19939:19950   */\n      add\n        /* \"#utility.yul\":19932:19967   */\n      mstore\n        /* \"#utility.yul\":20008:20009   */\n      0x01\n        /* \"#utility.yul\":19999:20006   */\n      dup3\n        /* \"#utility.yul\":19995:20010   */\n      add\n        /* \"#utility.yul\":19984:20010   */\n      swap2\n      pop\n        /* \"#utility.yul\":19906:19910   */\n      0x20\n        /* \"#utility.yul\":19903:19904   */\n      dup2\n        /* \"#utility.yul\":19899:19911   */\n      add\n        /* \"#utility.yul\":19894:19911   */\n      swap1\n      pop\n        /* \"#utility.yul\":19870:20024   */\n      jump(tag_443)\n    tag_445:\n        /* \"#utility.yul\":20053:20054   */\n      dup1\n        /* \"#utility.yul\":20048:20051   */\n      dup9\n        /* \"#utility.yul\":20044:20055   */\n      add\n        /* \"#utility.yul\":20037:20055   */\n      swap6\n      pop\n        /* \"#utility.yul\":19736:20065   */\n      pop\n      pop\n        /* \"#utility.yul\":19523:20065   */\n    tag_439:\n      pop\n        /* \"#utility.yul\":19329:20071   */\n      pop\n      pop\n        /* \"#utility.yul\":19240:20071   */\n      swap3\n      swap2\n      pop\n      pop\n      jump\t// out\n        /* \"#utility.yul\":20077:20826   */\n    tag_116:\n        /* \"#utility.yul\":20299:20303   */\n      0x00\n        /* \"#utility.yul\":20337:20340   */\n      0xa0\n        /* \"#utility.yul\":20326:20335   */\n      dup3\n        /* \"#utility.yul\":20322:20341   */\n      add\n        /* \"#utility.yul\":20314:20341   */\n      swap1\n      pop\n        /* \"#utility.yul\":20351:20422   */\n      tag_447\n        /* \"#utility.yul\":20419:20420   */\n      0x00\n        /* \"#utility.yul\":20408:20417   */\n      dup4\n        /* \"#utility.yul\":20404:20421   */\n      add\n        /* \"#utility.yul\":20395:20401   */\n      dup9\n        /* \"#utility.yul\":20351:20422   */\n      tag_199\n      jump\t// in\n    tag_447:\n        /* \"#utility.yul\":20469:20478   */\n      dup2\n        /* \"#utility.yul\":20463:20467   */\n      dup2\n        /* \"#utility.yul\":20459:20479   */\n      sub\n        /* \"#utility.yul\":20454:20456   */\n      0x20\n        /* \"#utility.yul\":20443:20452   */\n      dup4\n        /* \"#utility.yul\":20439:20457   */\n      add\n        /* \"#utility.yul\":20432:20480   */\n      mstore\n        /* \"#utility.yul\":20497:20572   */\n      tag_448\n        /* \"#utility.yul\":20567:20571   */\n      dup2\n        /* \"#utility.yul\":20558:20564   */\n      dup8\n        /* \"#utility.yul\":20497:20572   */\n      tag_226\n      jump\t// in\n    tag_448:\n        /* \"#utility.yul\":20489:20572   */\n      swap1\n      pop\n        /* \"#utility.yul\":20582:20654   */\n      tag_449\n        /* \"#utility.yul\":20650:20652   */\n      0x40\n        /* \"#utility.yul\":20639:20648   */\n      dup4\n        /* \"#utility.yul\":20635:20653   */\n      add\n        /* \"#utility.yul\":20626:20632   */\n      dup7\n        /* \"#utility.yul\":20582:20654   */\n      tag_199\n      jump\t// in\n    tag_449:\n        /* \"#utility.yul\":20664:20736   */\n      tag_450\n        /* \"#utility.yul\":20732:20734   */\n      0x60\n        /* \"#utility.yul\":20721:20730   */\n      dup4\n        /* \"#utility.yul\":20717:20735   */\n      add\n        /* \"#utility.yul\":20708:20714   */\n      dup6\n        /* \"#utility.yul\":20664:20736   */\n      tag_199\n      jump\t// in\n    tag_450:\n        /* \"#utility.yul\":20746:20819   */\n      tag_451\n        /* \"#utility.yul\":20814:20817   */\n      0x80\n        /* \"#utility.yul\":20803:20812   */\n      dup4\n        /* \"#utility.yul\":20799:20818   */\n      add\n        /* \"#utility.yul\":20790:20796   */\n      dup5\n        /* \"#utility.yul\":20746:20819   */\n      tag_202\n      jump\t// in\n    tag_451:\n        /* \"#utility.yul\":20077:20826   */\n      swap7\n      swap6\n      pop\n      pop\n      pop\n      pop\n      pop\n      pop\n      jump\t// out\n        /* \"#utility.yul\":20832:21010   */\n    tag_227:\n        /* \"#utility.yul\":20972:21002   */\n      0x50726f64756374206e616d652063616e6e6f7420626520656d70747900000000\n        /* \"#utility.yul\":20968:20969   */\n      0x00\n        /* \"#utility.yul\":20960:20966   */\n      dup3\n        /* \"#utility.yul\":20956:20970   */\n      add\n        /* \"#utility.yul\":20949:21003   */\n      mstore\n        /* \"#utility.yul\":20832:21010   */\n      pop\n      jump\t// out\n        /* \"#utility.yul\":21016:21382   */\n    tag_228:\n        /* \"#utility.yul\":21158:21161   */\n      0x00\n        /* \"#utility.yul\":21179:21246   */\n      tag_454\n        /* \"#utility.yul\":21243:21245   */\n      0x1c\n        /* \"#utility.yul\":21238:21241   */\n      dup4\n        /* \"#utility.yul\":21179:21246   */\n      tag_196\n      jump\t// in\n    tag_454:\n        /* \"#utility.yul\":21172:21246   */\n      swap2\n      pop\n        /* \"#utility.yul\":21255:21348   */\n      tag_455\n        /* \"#utility.yul\":21344:21347   */\n      dup3\n        /* \"#utility.yul\":21255:21348   */\n      tag_227\n      jump\t// in\n    tag_455:\n        /* \"#utility.yul\":21373:21375   */\n      0x20\n        /* \"#utility.yul\":21368:21371   */\n      dup3\n        /* \"#utility.yul\":21364:21376   */\n      add\n        /* \"#utility.yul\":21357:21376   */\n      swap1\n      pop\n        /* \"#utility.yul\":21016:21382   */\n      swap2\n      swap1\n      pop\n      jump\t// out\n        /* \"#utility.yul\":21388:21807   */\n    tag_120:\n        /* \"#utility.yul\":21554:21558   */\n      0x00\n        /* \"#utility.yul\":21592:21594   */\n      0x20\n        /* \"#utility.yul\":21581:21590   */\n      dup3\n        /* \"#utility.yul\":21577:21595   */\n      add\n        /* \"#utility.yul\":21569:21595   */\n      swap1\n      pop\n        /* \"#utility.yul\":21641:21650   */\n      dup2\n        /* \"#utility.yul\":21635:21639   */\n      dup2\n        /* \"#utility.yul\":21631:21651   */\n      sub\n        /* \"#utility.yul\":21627:21628   */\n      0x00\n        /* \"#utility.yul\":21616:21625   */\n      dup4\n        /* \"#utility.yul\":21612:21629   */\n      add\n        /* \"#utility.yul\":21605:21652   */\n      mstore\n        /* \"#utility.yul\":21669:21800   */\n      tag_457\n        /* \"#utility.yul\":21795:21799   */\n      dup2\n        /* \"#utility.yul\":21669:21800   */\n      tag_228\n      jump\t// in\n    tag_457:\n        /* \"#utility.yul\":21661:21800   */\n      swap1\n      pop\n        /* \"#utility.yul\":21388:21807   */\n      swap2\n      swap1\n      pop\n      jump\t// out\n        /* \"#utility.yul\":21813:22035   */\n    tag_229:\n        /* \"#utility.yul\":21953:21987   */\n      0x50726f64756374206465736372697074696f6e2063616e6e6f7420626520656d\n        /* \"#utility.yul\":21949:21950   */\n      0x00\n        /* \"#utility.yul\":21941:21947   */\n      dup3\n        /* \"#utility.yul\":21937:21951   */\n      add\n        /* \"#utility.yul\":21930:21988   */\n      mstore\n        /* \"#utility.yul\":22022:22027   */\n      0x7074790000000000000000000000000000000000000000000000000000000000\n        /* \"#utility.yul\":22017:22019   */\n      0x20\n        /* \"#utility.yul\":22009:22015   */\n      dup3\n        /* \"#utility.yul\":22005:22020   */\n      add\n        /* \"#utility.yul\":21998:22028   */\n      mstore\n        /* \"#utility.yul\":21813:22035   */\n      pop\n      jump\t// out\n        /* \"#utility.yul\":22041:22407   */\n    tag_230:\n        /* \"#utility.yul\":22183:22186   */\n      0x00\n        /* \"#utility.yul\":22204:22271   */\n      tag_460\n        /* \"#utility.yul\":22268:22270   */\n      0x23\n        /* \"#utility.yul\":22263:22266   */\n      dup4\n        /* \"#utility.yul\":22204:22271   */\n      tag_196\n      jump\t// in\n    tag_460:\n        /* \"#utility.yul\":22197:22271   */\n      swap2\n      pop\n        /* \"#utility.yul\":22280:22373   */\n      tag_461\n        /* \"#utility.yul\":22369:22372   */\n      dup3\n        /* \"#utility.yul\":22280:22373   */\n      tag_229\n      jump\t// in\n    tag_461:\n        /* \"#utility.yul\":22398:22400   */\n      0x40\n        /* \"#utility.yul\":22393:22396   */\n      dup3\n        /* \"#utility.yul\":22389:22401   */\n      add\n        /* \"#utility.yul\":22382:22401   */\n      swap1\n      pop\n        /* \"#utility.yul\":22041:22407   */\n      swap2\n      swap1\n      pop\n      jump\t// out\n        /* \"#utility.yul\":22413:22832   */\n    tag_123:\n        /* \"#utility.yul\":22579:22583   */\n      0x00\n        /* \"#utility.yul\":22617:22619   */\n      0x20\n        /* \"#utility.yul\":22606:22615   */\n      dup3\n        /* \"#utility.yul\":22602:22620   */\n      add\n        /* \"#utility.yul\":22594:22620   */\n      swap1\n      pop\n        /* \"#utility.yul\":22666:22675   */\n      dup2\n        /* \"#utility.yul\":22660:22664   */\n      dup2\n        /* \"#utility.yul\":22656:22676   */\n      sub\n        /* \"#utility.yul\":22652:22653   */\n      0x00\n        /* \"#utility.yul\":22641:22650   */\n      dup4\n        /* \"#utility.yul\":22637:22654   */\n      add\n        /* \"#utility.yul\":22630:22677   */\n      mstore\n        /* \"#utility.yul\":22694:22825   */\n      tag_463\n        /* \"#utility.yul\":22820:22824   */\n      dup2\n        /* \"#utility.yul\":22694:22825   */\n      tag_230\n      jump\t// in\n    tag_463:\n        /* \"#utility.yul\":22686:22825   */\n      swap1\n      pop\n        /* \"#utility.yul\":22413:22832   */\n      swap2\n      swap1\n      pop\n      jump\t// out\n        /* \"#utility.yul\":22838:23061   */\n    tag_231:\n        /* \"#utility.yul\":22978:23012   */\n      0x50726f647563742073746f636b206d7573742062652067726561746572207468\n        /* \"#utility.yul\":22974:22975   */\n      0x00\n        /* \"#utility.yul\":22966:22972   */\n      dup3\n        /* \"#utility.yul\":22962:22976   */\n      add\n        /* \"#utility.yul\":22955:23013   */\n      mstore\n        /* \"#utility.yul\":23047:23053   */\n      0x616e203000000000000000000000000000000000000000000000000000000000\n        /* \"#utility.yul\":23042:23044   */\n      0x20\n        /* \"#utility.yul\":23034:23040   */\n      dup3\n        /* \"#utility.yul\":23030:23045   */\n      add\n        /* \"#utility.yul\":23023:23054   */\n      mstore\n        /* \"#utility.yul\":22838:23061   */\n      pop\n      jump\t// out\n        /* \"#utility.yul\":23067:23433   */\n    tag_232:\n        /* \"#utility.yul\":23209:23212   */\n      0x00\n        /* \"#utility.yul\":23230:23297   */\n      tag_466\n        /* \"#utility.yul\":23294:23296   */\n      0x24\n        /* \"#utility.yul\":23289:23292   */\n      dup4\n        /* \"#utility.yul\":23230:23297   */\n      tag_196\n      jump\t// in\n    tag_466:\n        /* \"#utility.yul\":23223:23297   */\n      swap2\n      pop\n        /* \"#utility.yul\":23306:23399   */\n      tag_467\n        /* \"#utility.yul\":23395:23398   */\n      dup3\n        /* \"#utility.yul\":23306:23399   */\n      tag_231\n      jump\t// in\n    tag_467:\n        /* \"#utility.yul\":23424:23426   */\n      0x40\n        /* \"#utility.yul\":23419:23422   */\n      dup3\n        /* \"#utility.yul\":23415:23427   */\n      add\n        /* \"#utility.yul\":23408:23427   */\n      swap1\n      pop\n        /* \"#utility.yul\":23067:23433   */\n      swap2\n      swap1\n      pop\n      jump\t// out\n        /* \"#utility.yul\":23439:23858   */\n    tag_126:\n        /* \"#utility.yul\":23605:23609   */\n      0x00\n        /* \"#utility.yul\":23643:23645   */\n      0x20\n        /* \"#utility.yul\":23632:23641   */\n      dup3\n        /* \"#utility.yul\":23628:23646   */\n      add\n        /* \"#utility.yul\":23620:23646   */\n      swap1\n      pop\n        /* \"#utility.yul\":23692:23701   */\n      dup2\n        /* \"#utility.yul\":23686:23690   */\n      dup2\n        /* \"#utility.yul\":23682:23702   */\n      sub\n        /* \"#utility.yul\":23678:23679   */\n      0x00\n        /* \"#utility.yul\":23667:23676   */\n      dup4\n        /* \"#utility.yul\":23663:23680   */\n      add\n        /* \"#utility.yul\":23656:23703   */\n      mstore\n        /* \"#utility.yul\":23720:23851   */\n      tag_469\n        /* \"#utility.yul\":23846:23850   */\n      dup2\n        /* \"#utility.yul\":23720:23851   */\n      tag_232\n      jump\t// in\n    tag_469:\n        /* \"#utility.yul\":23712:23851   */\n      swap1\n      pop\n        /* \"#utility.yul\":23439:23858   */\n      swap2\n      swap1\n      pop\n      jump\t// out\n        /* \"#utility.yul\":23864:24090   */\n    tag_233:\n        /* \"#utility.yul\":24004:24038   */\n      0x50726f647563742065787069726174696f6e20646174652063616e6e6f742062\n        /* \"#utility.yul\":24000:24001   */\n      0x00\n        /* \"#utility.yul\":23992:23998   */\n      dup3\n        /* \"#utility.yul\":23988:24002   */\n      add\n        /* \"#utility.yul\":23981:24039   */\n      mstore\n        /* \"#utility.yul\":24073:24082   */\n      0x6520656d70747900000000000000000000000000000000000000000000000000\n        /* \"#utility.yul\":24068:24070   */\n      0x20\n        /* \"#utility.yul\":24060:24066   */\n      dup3\n        /* \"#utility.yul\":24056:24071   */\n      add\n        /* \"#utility.yul\":24049:24083   */\n      mstore\n        /* \"#utility.yul\":23864:24090   */\n      pop\n      jump\t// out\n        /* \"#utility.yul\":24096:24462   */\n    tag_234:\n        /* \"#utility.yul\":24238:24241   */\n      0x00\n        /* \"#utility.yul\":24259:24326   */\n      tag_472\n        /* \"#utility.yul\":24323:24325   */\n      0x27\n        /* \"#utility.yul\":24318:24321   */\n      dup4\n        /* \"#utility.yul\":24259:24326   */\n      tag_196\n      jump\t// in\n    tag_472:\n        /* \"#utility.yul\":24252:24326   */\n      swap2\n      pop\n        /* \"#utility.yul\":24335:24428   */\n      tag_473\n        /* \"#utility.yul\":24424:24427   */\n      dup3\n        /* \"#utility.yul\":24335:24428   */\n      tag_233\n      jump\t// in\n    tag_473:\n        /* \"#utility.yul\":24453:24455   */\n      0x40\n        /* \"#utility.yul\":24448:24451   */\n      dup3\n        /* \"#utility.yul\":24444:24456   */\n      add\n        /* \"#utility.yul\":24437:24456   */\n      swap1\n      pop\n        /* \"#utility.yul\":24096:24462   */\n      swap2\n      swap1\n      pop\n      jump\t// out\n        /* \"#utility.yul\":24468:24887   */\n    tag_129:\n        /* \"#utility.yul\":24634:24638   */\n      0x00\n        /* \"#utility.yul\":24672:24674   */\n      0x20\n        /* \"#utility.yul\":24661:24670   */\n      dup3\n        /* \"#utility.yul\":24657:24675   */\n      add\n        /* \"#utility.yul\":24649:24675   */\n      swap1\n      pop\n        /* \"#utility.yul\":24721:24730   */\n      dup2\n        /* \"#utility.yul\":24715:24719   */\n      dup2\n        /* \"#utility.yul\":24711:24731   */\n      sub\n        /* \"#utility.yul\":24707:24708   */\n      0x00\n        /* \"#utility.yul\":24696:24705   */\n      dup4\n        /* \"#utility.yul\":24692:24709   */\n      add\n        /* \"#utility.yul\":24685:24732   */\n      mstore\n        /* \"#utility.yul\":24749:24880   */\n      tag_475\n        /* \"#utility.yul\":24875:24879   */\n      dup2\n        /* \"#utility.yul\":24749:24880   */\n      tag_234\n      jump\t// in\n    tag_475:\n        /* \"#utility.yul\":24741:24880   */\n      swap1\n      pop\n        /* \"#utility.yul\":24468:24887   */\n      swap2\n      swap1\n      pop\n      jump\t// out\n        /* \"#utility.yul\":24893:25075   */\n    tag_235:\n        /* \"#utility.yul\":25033:25067   */\n      0x50726f647563742070726963652063616e6e6f74206265206e65676174697665\n        /* \"#utility.yul\":25029:25030   */\n      0x00\n        /* \"#utility.yul\":25021:25027   */\n      dup3\n        /* \"#utility.yul\":25017:25031   */\n      add\n        /* \"#utility.yul\":25010:25068   */\n      mstore\n        /* \"#utility.yul\":24893:25075   */\n      pop\n      jump\t// out\n        /* \"#utility.yul\":25081:25447   */\n    tag_236:\n        /* \"#utility.yul\":25223:25226   */\n      0x00\n        /* \"#utility.yul\":25244:25311   */\n      tag_478\n        /* \"#utility.yul\":25308:25310   */\n      0x20\n        /* \"#utility.yul\":25303:25306   */\n      dup4\n        /* \"#utility.yul\":25244:25311   */\n      tag_196\n      jump\t// in\n    tag_478:\n        /* \"#utility.yul\":25237:25311   */\n      swap2\n      pop\n        /* \"#utility.yul\":25320:25413   */\n      tag_479\n        /* \"#utility.yul\":25409:25412   */\n      dup3\n        /* \"#utility.yul\":25320:25413   */\n      tag_235\n      jump\t// in\n    tag_479:\n        /* \"#utility.yul\":25438:25440   */\n      0x20\n        /* \"#utility.yul\":25433:25436   */\n      dup3\n        /* \"#utility.yul\":25429:25441   */\n      add\n        /* \"#utility.yul\":25422:25441   */\n      swap1\n      pop\n        /* \"#utility.yul\":25081:25447   */\n      swap2\n      swap1\n      pop\n      jump\t// out\n        /* \"#utility.yul\":25453:25872   */\n    tag_132:\n        /* \"#utility.yul\":25619:25623   */\n      0x00\n        /* \"#utility.yul\":25657:25659   */\n      0x20\n        /* \"#utility.yul\":25646:25655   */\n      dup3\n        /* \"#utility.yul\":25642:25660   */\n      add\n        /* \"#utility.yul\":25634:25660   */\n      swap1\n      pop\n        /* \"#utility.yul\":25706:25715   */\n      dup2\n        /* \"#utility.yul\":25700:25704   */\n      dup2\n        /* \"#utility.yul\":25696:25716   */\n      sub\n        /* \"#utility.yul\":25692:25693   */\n      0x00\n        /* \"#utility.yul\":25681:25690   */\n      dup4\n        /* \"#utility.yul\":25677:25694   */\n      add\n        /* \"#utility.yul\":25670:25717   */\n      mstore\n        /* \"#utility.yul\":25734:25865   */\n      tag_481\n        /* \"#utility.yul\":25860:25864   */\n      dup2\n        /* \"#utility.yul\":25734:25865   */\n      tag_236\n      jump\t// in\n    tag_481:\n        /* \"#utility.yul\":25726:25865   */\n      swap1\n      pop\n        /* \"#utility.yul\":25453:25872   */\n      swap2\n      swap1\n      pop\n      jump\t// out\n        /* \"#utility.yul\":25878:26111   */\n    tag_134:\n        /* \"#utility.yul\":25917:25920   */\n      0x00\n        /* \"#utility.yul\":25940:25964   */\n      tag_483\n        /* \"#utility.yul\":25958:25963   */\n      dup3\n        /* \"#utility.yul\":25940:25964   */\n      tag_182\n      jump\t// in\n    tag_483:\n        /* \"#utility.yul\":25931:25964   */\n      swap2\n      pop\n        /* \"#utility.yul\":25986:26052   */\n      0xffffffffffffffffffffffffffffffffffffffffffffffffffffffffffffffff\n        /* \"#utility.yul\":25979:25984   */\n      dup3\n        /* \"#utility.yul\":25976:26053   */\n      sub\n        /* \"#utility.yul\":25973:26076   */\n      tag_484\n      jumpi\n        /* \"#utility.yul\":26056:26074   */\n      tag_485\n      tag_223\n      jump\t// in\n    tag_485:\n        /* \"#utility.yul\":25973:26076   */\n    tag_484:\n        /* \"#utility.yul\":26103:26104   */\n      0x01\n        /* \"#utility.yul\":26096:26101   */\n      dup3\n        /* \"#utility.yul\":26092:26105   */\n      add\n        /* \"#utility.yul\":26085:26105   */\n      swap1\n      pop\n        /* \"#utility.yul\":25878:26111   */\n      swap2\n      swap1\n      pop\n      jump\t// out\n        /* \"#utility.yul\":26117:27276   */\n    tag_139:\n        /* \"#utility.yul\":26438:26442   */\n      0x00\n        /* \"#utility.yul\":26476:26479   */\n      0xe0\n        /* \"#utility.yul\":26465:26474   */\n      dup3\n        /* \"#utility.yul\":26461:26480   */\n      add\n        /* \"#utility.yul\":26453:26480   */\n      swap1\n      pop\n        /* \"#utility.yul\":26490:26561   */\n      tag_487\n        /* \"#utility.yul\":26558:26559   */\n      0x00\n        /* \"#utility.yul\":26547:26556   */\n      dup4\n        /* \"#utility.yul\":26543:26560   */\n      add\n        /* \"#utility.yul\":26534:26540   */\n      dup11\n        /* \"#utility.yul\":26490:26561   */\n      tag_199\n      jump\t// in\n    tag_487:\n        /* \"#utility.yul\":26608:26617   */\n      dup2\n        /* \"#utility.yul\":26602:26606   */\n      dup2\n        /* \"#utility.yul\":26598:26618   */\n      sub\n        /* \"#utility.yul\":26593:26595   */\n      0x20\n        /* \"#utility.yul\":26582:26591   */\n      dup4\n        /* \"#utility.yul\":26578:26596   */\n      add\n        /* \"#utility.yul\":26571:26619   */\n      mstore\n        /* \"#utility.yul\":26636:26714   */\n      tag_488\n        /* \"#utility.yul\":26709:26713   */\n      dup2\n        /* \"#utility.yul\":26700:26706   */\n      dup10\n        /* \"#utility.yul\":26636:26714   */\n      tag_198\n      jump\t// in\n    tag_488:\n        /* \"#utility.yul\":26628:26714   */\n      swap1\n      pop\n        /* \"#utility.yul\":26761:26770   */\n      dup2\n        /* \"#utility.yul\":26755:26759   */\n      dup2\n        /* \"#utility.yul\":26751:26771   */\n      sub\n        /* \"#utility.yul\":26746:26748   */\n      0x40\n        /* \"#utility.yul\":26735:26744   */\n      dup4\n        /* \"#utility.yul\":26731:26749   */\n      add\n        /* \"#utility.yul\":26724:26772   */\n      mstore\n        /* \"#utility.yul\":26789:26867   */\n      tag_489\n        /* \"#utility.yul\":26862:26866   */\n      dup2\n        /* \"#utility.yul\":26853:26859   */\n      dup9\n        /* \"#utility.yul\":26789:26867   */\n      tag_198\n      jump\t// in\n    tag_489:\n        /* \"#utility.yul\":26781:26867   */\n      swap1\n      pop\n        /* \"#utility.yul\":26877:26949   */\n      tag_490\n        /* \"#utility.yul\":26945:26947   */\n      0x60\n        /* \"#utility.yul\":26934:26943   */\n      dup4\n        /* \"#utility.yul\":26930:26948   */\n      add\n        /* \"#utility.yul\":26921:26927   */\n      dup8\n        /* \"#utility.yul\":26877:26949   */\n      tag_199\n      jump\t// in\n    tag_490:\n        /* \"#utility.yul\":26997:27006   */\n      dup2\n        /* \"#utility.yul\":26991:26995   */\n      dup2\n        /* \"#utility.yul\":26987:27007   */\n      sub\n        /* \"#utility.yul\":26981:26984   */\n      0x80\n        /* \"#utility.yul\":26970:26979   */\n      dup4\n        /* \"#utility.yul\":26966:26985   */\n      add\n        /* \"#utility.yul\":26959:27008   */\n      mstore\n        /* \"#utility.yul\":27025:27103   */\n      tag_491\n        /* \"#utility.yul\":27098:27102   */\n      dup2\n        /* \"#utility.yul\":27089:27095   */\n      dup7\n        /* \"#utility.yul\":27025:27103   */\n      tag_198\n      jump\t// in\n    tag_491:\n        /* \"#utility.yul\":27017:27103   */\n      swap1\n      pop\n        /* \"#utility.yul\":27113:27186   */\n      tag_492\n        /* \"#utility.yul\":27181:27184   */\n      0xa0\n        /* \"#utility.yul\":27170:27179   */\n      dup4\n        /* \"#utility.yul\":27166:27185   */\n      add\n        /* \"#utility.yul\":27157:27163   */\n      dup6\n        /* \"#utility.yul\":27113:27186   */\n      tag_199\n      jump\t// in\n    tag_492:\n        /* \"#utility.yul\":27196:27269   */\n      tag_493\n        /* \"#utility.yul\":27264:27267   */\n      0xc0\n        /* \"#utility.yul\":27253:27262   */\n      dup4\n        /* \"#utility.yul\":27249:27268   */\n      add\n        /* \"#utility.yul\":27240:27246   */\n      dup5\n        /* \"#utility.yul\":27196:27269   */\n      tag_202\n      jump\t// in\n    tag_493:\n        /* \"#utility.yul\":26117:27276   */\n      swap9\n      swap8\n      pop\n      pop\n      pop\n      pop\n      pop\n      pop\n      pop\n      pop\n      jump\t// out\n        /* \"#utility.yul\":27282:27511   */\n    tag_237:\n        /* \"#utility.yul\":27422:27456   */\n      0x4e6f206861792073746f636b20646973706f6e69626c65207061726120657374\n        /* \"#utility.yul\":27418:27419   */\n      0x00\n        /* \"#utility.yul\":27410:27416   */\n      dup3\n        /* \"#utility.yul\":27406:27420   */\n      add\n        /* \"#utility.yul\":27399:27457   */\n      mstore\n        /* \"#utility.yul\":27491:27503   */\n      0x652070726f647563746f00000000000000000000000000000000000000000000\n        /* \"#utility.yul\":27486:27488   */\n      0x20\n        /* \"#utility.yul\":27478:27484   */\n      dup3\n        /* \"#utility.yul\":27474:27489   */\n      add\n        /* \"#utility.yul\":27467:27504   */\n      mstore\n        /* \"#utility.yul\":27282:27511   */\n      pop\n      jump\t// out\n        /* \"#utility.yul\":27517:27883   */\n    tag_238:\n        /* \"#utility.yul\":27659:27662   */\n      0x00\n        /* \"#utility.yul\":27680:27747   */\n      tag_496\n        /* \"#utility.yul\":27744:27746   */\n      0x2a\n        /* \"#utility.yul\":27739:27742   */\n      dup4\n        /* \"#utility.yul\":27680:27747   */\n      tag_196\n      jump\t// in\n    tag_496:\n        /* \"#utility.yul\":27673:27747   */\n      swap2\n      pop\n        /* \"#utility.yul\":27756:27849   */\n      tag_497\n        /* \"#utility.yul\":27845:27848   */\n      dup3\n        /* \"#utility.yul\":27756:27849   */\n      tag_237\n      jump\t// in\n    tag_497:\n        /* \"#utility.yul\":27874:27876   */\n      0x40\n        /* \"#utility.yul\":27869:27872   */\n      dup3\n        /* \"#utility.yul\":27865:27877   */\n      add\n        /* \"#utility.yul\":27858:27877   */\n      swap1\n      pop\n        /* \"#utility.yul\":27517:27883   */\n      swap2\n      swap1\n      pop\n      jump\t// out\n        /* \"#utility.yul\":27889:28308   */\n    tag_167:\n        /* \"#utility.yul\":28055:28059   */\n      0x00\n        /* \"#utility.yul\":28093:28095   */\n      0x20\n        /* \"#utility.yul\":28082:28091   */\n      dup3\n        /* \"#utility.yul\":28078:28096   */\n      add\n        /* \"#utility.yul\":28070:28096   */\n      swap1\n      pop\n        /* \"#utility.yul\":28142:28151   */\n      dup2\n        /* \"#utility.yul\":28136:28140   */\n      dup2\n        /* \"#utility.yul\":28132:28152   */\n      sub\n        /* \"#utility.yul\":28128:28129   */\n      0x00\n        /* \"#utility.yul\":28117:28126   */\n      dup4\n        /* \"#utility.yul\":28113:28130   */\n      add\n        /* \"#utility.yul\":28106:28153   */\n      mstore\n        /* \"#utility.yul\":28170:28301   */\n      tag_499\n        /* \"#utility.yul\":28296:28300   */\n      dup2\n        /* \"#utility.yul\":28170:28301   */\n      tag_238\n      jump\t// in\n    tag_499:\n        /* \"#utility.yul\":28162:28301   */\n      swap1\n      pop\n        /* \"#utility.yul\":27889:28308   */\n      swap2\n      swap1\n      pop\n      jump\t// out\n        /* \"#utility.yul\":28314:28485   */\n    tag_169:\n        /* \"#utility.yul\":28353:28356   */\n      0x00\n        /* \"#utility.yul\":28376:28400   */\n      tag_501\n        /* \"#utility.yul\":28394:28399   */\n      dup3\n        /* \"#utility.yul\":28376:28400   */\n      tag_182\n      jump\t// in\n    tag_501:\n        /* \"#utility.yul\":28367:28400   */\n      swap2\n      pop\n        /* \"#utility.yul\":28422:28426   */\n      0x00\n        /* \"#utility.yul\":28415:28420   */\n      dup3\n        /* \"#utility.yul\":28412:28427   */\n      sub\n        /* \"#utility.yul\":28409:28450   */\n      tag_502\n      jumpi\n        /* \"#utility.yul\":28430:28448   */\n      tag_503\n      tag_223\n      jump\t// in\n    tag_503:\n        /* \"#utility.yul\":28409:28450   */\n    tag_502:\n        /* \"#utility.yul\":28477:28478   */\n      0x01\n        /* \"#utility.yul\":28470:28475   */\n      dup3\n        /* \"#utility.yul\":28466:28479   */\n      sub\n        /* \"#utility.yul\":28459:28479   */\n      swap1\n      pop\n        /* \"#utility.yul\":28314:28485   */\n      swap2\n      swap1\n      pop\n      jump\t// out\n        /* \"#utility.yul\":28491:29410   */\n    tag_171:\n        /* \"#utility.yul\":28747:28751   */\n      0x00\n        /* \"#utility.yul\":28785:28788   */\n      0xa0\n        /* \"#utility.yul\":28774:28783   */\n      dup3\n        /* \"#utility.yul\":28770:28789   */\n      add\n        /* \"#utility.yul\":28762:28789   */\n      swap1\n      pop\n        /* \"#utility.yul\":28835:28844   */\n      dup2\n        /* \"#utility.yul\":28829:28833   */\n      dup2\n        /* \"#utility.yul\":28825:28845   */\n      sub\n        /* \"#utility.yul\":28821:28822   */\n      0x00\n        /* \"#utility.yul\":28810:28819   */\n      dup4\n        /* \"#utility.yul\":28806:28823   */\n      add\n        /* \"#utility.yul\":28799:28846   */\n      mstore\n        /* \"#utility.yul\":28863:28938   */\n      tag_505\n        /* \"#utility.yul\":28933:28937   */\n      dup2\n        /* \"#utility.yul\":28924:28930   */\n      dup9\n        /* \"#utility.yul\":28863:28938   */\n      tag_226\n      jump\t// in\n    tag_505:\n        /* \"#utility.yul\":28855:28938   */\n      swap1\n      pop\n        /* \"#utility.yul\":28985:28994   */\n      dup2\n        /* \"#utility.yul\":28979:28983   */\n      dup2\n        /* \"#utility.yul\":28975:28995   */\n      sub\n        /* \"#utility.yul\":28970:28972   */\n      0x20\n        /* \"#utility.yul\":28959:28968   */\n      dup4\n        /* \"#utility.yul\":28955:28973   */\n      add\n        /* \"#utility.yul\":28948:28996   */\n      mstore\n        /* \"#utility.yul\":29013:29088   */\n      tag_506\n        /* \"#utility.yul\":29083:29087   */\n      dup2\n        /* \"#utility.yul\":29074:29080   */\n      dup8\n        /* \"#utility.yul\":29013:29088   */\n      tag_226\n      jump\t// in\n    tag_506:\n        /* \"#utility.yul\":29005:29088   */\n      swap1\n      pop\n        /* \"#utility.yul\":29098:29170   */\n      tag_507\n        /* \"#utility.yul\":29166:29168   */\n      0x40\n        /* \"#utility.yul\":29155:29164   */\n      dup4\n        /* \"#utility.yul\":29151:29169   */\n      add\n        /* \"#utility.yul\":29142:29148   */\n      dup7\n        /* \"#utility.yul\":29098:29170   */\n      tag_199\n      jump\t// in\n    tag_507:\n        /* \"#utility.yul\":29217:29226   */\n      dup2\n        /* \"#utility.yul\":29211:29215   */\n      dup2\n        /* \"#utility.yul\":29207:29227   */\n      sub\n        /* \"#utility.yul\":29202:29204   */\n      0x60\n        /* \"#utility.yul\":29191:29200   */\n      dup4\n        /* \"#utility.yul\":29187:29205   */\n      add\n        /* \"#utility.yul\":29180:29228   */\n      mstore\n        /* \"#utility.yul\":29245:29320   */\n      tag_508\n        /* \"#utility.yul\":29315:29319   */\n      dup2\n        /* \"#utility.yul\":29306:29312   */\n      dup6\n        /* \"#utility.yul\":29245:29320   */\n      tag_226\n      jump\t// in\n    tag_508:\n        /* \"#utility.yul\":29237:29320   */\n      swap1\n      pop\n        /* \"#utility.yul\":29330:29403   */\n      tag_509\n        /* \"#utility.yul\":29398:29401   */\n      0x80\n        /* \"#utility.yul\":29387:29396   */\n      dup4\n        /* \"#utility.yul\":29383:29402   */\n      add\n        /* \"#utility.yul\":29374:29380   */\n      dup5\n        /* \"#utility.yul\":29330:29403   */\n      tag_199\n      jump\t// in\n    tag_509:\n        /* \"#utility.yul\":28491:29410   */\n      swap7\n      swap6\n      pop\n      pop\n      pop\n      pop\n      pop\n      pop\n      jump\t// out\n\n    auxdata: 0xa264697066735822122088220aa22680de5defebedcdad2ff904c867dd9fc80f4fe24edc3893370ee96e64736f6c63430008120033\n}\n",
				"bytecode": {
					"linkReferences": {},
					"object": "608060405234801561001057600080fd5b50336000806101000a81548173ffffffffffffffffffffffffffffffffffffffff021916908373ffffffffffffffffffffffffffffffffffffffff1602179055506000600181905550611f15806100686000396000f3fe6080604052600436106100865760003560e01c8063a044042611610059578063a044042614610162578063e0f6ef871461017e578063e324eb43146101a9578063ed90c7b7146101d2578063ff466595146101fb57610086565b806356641d731461008b5780636813b53b146100b45780637acc0b20146100f55780638da5cb5b14610137575b600080fd5b34801561009757600080fd5b506100b260048036038101906100ad91906110bd565b610224565b005b3480156100c057600080fd5b506100db60048036038101906100d6919061119e565b6102cc565b6040516100ec959493929190611259565b60405180910390f35b34801561010157600080fd5b5061011c6004803603810190610117919061119e565b61050a565b60405161012e969594939291906112c1565b60405180910390f35b34801561014357600080fd5b5061014c6106de565b6040516101599190611378565b60405180910390f35b61017c60048036038101906101779190611393565b610702565b005b34801561018a57600080fd5b506101936108cb565b6040516101a091906113d3565b60405180910390f35b3480156101b557600080fd5b506101d060048036038101906101cb91906113ee565b6108d1565b005b3480156101de57600080fd5b506101f960048036038101906101f4919061119e565b610b2f565b005b34801561020757600080fd5b50610222600480360381019061021d919061119e565b610db2565b005b60006002600088815260200190815260200160002090508581600101908161024c91906116c9565b508481600201908161025e91906116c9565b508381600301819055508281600401908161027991906116c9565b50818160050181905550867f43202ee2497bac5c3861fec10b2582c2a1291b84555dd19c5bddb0645c04c2a787878787876040516102bb959493929190611259565b60405180910390a250505050505050565b60608060006060600080861180156102e657506001548611155b610325576040517f08c379a000000000000000000000000000000000000000000000000000000000815260040161031c906117e7565b60405180910390fd5b60006002600088815260200190815260200160002090508060010181600201826003015483600401846005015484805461035e906114ec565b80601f016020809104026020016040519081016040528092919081815260200182805461038a906114ec565b80156103d75780601f106103ac576101008083540402835291602001916103d7565b820191906000526020600020905b8154815290600101906020018083116103ba57829003601f168201915b505050505094508380546103ea906114ec565b80601f0160208091040260200160405190810160405280929190818152602001828054610416906114ec565b80156104635780601f1061043857610100808354040283529160200191610463565b820191906000526020600020905b81548152906001019060200180831161044657829003601f168201915b50505050509350818054610476906114ec565b80601f01602080910402602001604051908101604052809291908181526020018280546104a2906114ec565b80156104ef5780601f106104c4576101008083540402835291602001916104ef565b820191906000526020600020905b8154815290600101906020018083116104d257829003601f168201915b50505050509150955095509550955095505091939590929450565b6002602052806000526040600020600091509050806000015490806001018054610533906114ec565b80601f016020809104026020016040519081016040528092919081815260200182805461055f906114ec565b80156105ac5780601f10610581576101008083540402835291602001916105ac565b820191906000526020600020905b81548152906001019060200180831161058f57829003601f168201915b5050505050908060020180546105c1906114ec565b80601f01602080910402602001604051908101604052809291908181526020018280546105ed906114ec565b801561063a5780601f1061060f5761010080835404028352916020019161063a565b820191906000526020600020905b81548152906001019060200180831161061d57829003601f168201915b505050505090806003015490806004018054610655906114ec565b80601f0160208091040260200160405190810160405280929190818152602001828054610681906114ec565b80156106ce5780601f106106a3576101008083540402835291602001916106ce565b820191906000526020600020905b8154815290600101906020018083116106b157829003601f168201915b5050505050908060050154905086565b60008054906101000a900473ffffffffffffffffffffffffffffffffffffffff1681565b60008211801561071457506001548211155b610753576040517f08c379a000000000000000000000000000000000000000000000000000000000815260040161074a906117e7565b60405180910390fd5b600060026000848152602001908152602001600020905081816003015410156107b1576040517f08c379a00000000000000000000000000000000000000000000000000000000081526004016107a890611853565b60405180910390fd5b8181600501546107c191906118a2565b3414610802576040517f08c379a00000000000000000000000000000000000000000000000000000000081526004016107f990611930565b60405180910390fd5b60008054906101000a900473ffffffffffffffffffffffffffffffffffffffff1673ffffffffffffffffffffffffffffffffffffffff166108fc349081150290604051600060405180830381858888f19350505050158015610868573d6000803e3d6000fd5b508181600301600082825461087d9190611950565b925050819055507fd922a2fffde7c04efb85e105cb4324b2ebe96919a6a107b6c63afb85484b8da983826001018434336040516108be959493929190611a08565b60405180910390a1505050565b60015481565b6000855111610915576040517f08c379a000000000000000000000000000000000000000000000000000000000815260040161090c90611aae565b60405180910390fd5b6000845111610959576040517f08c379a000000000000000000000000000000000000000000000000000000000815260040161095090611b40565b60405180910390fd5b6000831161099c576040517f08c379a000000000000000000000000000000000000000000000000000000000815260040161099390611bd2565b60405180910390fd5b60008251116109e0576040517f08c379a00000000000000000000000000000000000000000000000000000000081526004016109d790611c64565b60405180910390fd5b6000811015610a24576040517f08c379a0000000000000000000000000000000000000000000000000000000008152600401610a1b90611cd0565b60405180910390fd5b60016000815480929190610a3790611cf0565b91905055506040518060c00160405280600154815260200186815260200185815260200184815260200183815260200182815250600260006001548152602001908152602001600020600082015181600001556020820151816001019081610a9f91906116c9565b506040820151816002019081610ab591906116c9565b50606082015181600301556080820151816004019081610ad591906116c9565b5060a082015181600501559050507f5b97192fbdac5f86e3c2357b10ae099eb30b9263a92be777b80f46d3c59c8648600154868686868633604051610b209796959493929190611d38565b60405180910390a15050505050565b60006002600083815260200190815260200160002090506000816001018054610b57906114ec565b80601f0160208091040260200160405190810160405280929190818152602001828054610b83906114ec565b8015610bd05780601f10610ba557610100808354040283529160200191610bd0565b820191906000526020600020905b815481529060010190602001808311610bb357829003601f168201915b505050505090506000826002018054610be8906114ec565b80601f0160208091040260200160405190810160405280929190818152602001828054610c14906114ec565b8015610c615780601f10610c3657610100808354040283529160200191610c61565b820191906000526020600020905b815481529060010190602001808311610c4457829003601f168201915b505050505090506000836003015490506000846004018054610c82906114ec565b80601f0160208091040260200160405190810160405280929190818152602001828054610cae906114ec565b8015610cfb5780601f10610cd057610100808354040283529160200191610cfb565b820191906000526020600020905b815481529060010190602001808311610cde57829003601f168201915b5050505050905060008560050154905060026000888152602001908152602001600020600080820160009055600182016000610d379190610ed0565b600282016000610d479190610ed0565b6003820160009055600482016000610d5f9190610ed0565b60058201600090555050867fdbda2c6220968aa575be89715035f7593b361e9daef1b59ec7be0d7390a3c6668686868686604051610da1959493929190611259565b60405180910390a250505050505050565b600081118015610dc457506001548111155b610e03576040517f08c379a0000000000000000000000000000000000000000000000000000000008152600401610dfa906117e7565b60405180910390fd5b60006002600083815260200190815260200160002090506000816003015411610e61576040517f08c379a0000000000000000000000000000000000000000000000000000000008152600401610e5890611e2e565b60405180910390fd5b806003016000815480929190610e7690611e4e565b9190505550817f43202ee2497bac5c3861fec10b2582c2a1291b84555dd19c5bddb0645c04c2a782600101836002018460030154856004018660050154604051610ec4959493929190611e77565b60405180910390a25050565b508054610edc906114ec565b6000825580601f10610eee5750610f0d565b601f016020900490600052602060002090810190610f0c9190610f10565b5b50565b5b80821115610f29576000816000905550600101610f11565b5090565b6000604051905090565b600080fd5b600080fd5b6000819050919050565b610f5481610f41565b8114610f5f57600080fd5b50565b600081359050610f7181610f4b565b92915050565b600080fd5b600080fd5b6000601f19601f8301169050919050565b7f4e487b7100000000000000000000000000000000000000000000000000000000600052604160045260246000fd5b610fca82610f81565b810181811067ffffffffffffffff82111715610fe957610fe8610f92565b5b80604052505050565b6000610ffc610f2d565b90506110088282610fc1565b919050565b600067ffffffffffffffff82111561102857611027610f92565b5b61103182610f81565b9050602081019050919050565b82818337600083830152505050565b600061106061105b8461100d565b610ff2565b90508281526020810184848401111561107c5761107b610f7c565b5b61108784828561103e565b509392505050565b600082601f8301126110a4576110a3610f77565b5b81356110b484826020860161104d565b91505092915050565b60008060008060008060c087890312156110da576110d9610f37565b5b60006110e889828a01610f62565b965050602087013567ffffffffffffffff81111561110957611108610f3c565b5b61111589828a0161108f565b955050604087013567ffffffffffffffff81111561113657611135610f3c565b5b61114289828a0161108f565b945050606061115389828a01610f62565b935050608087013567ffffffffffffffff81111561117457611173610f3c565b5b61118089828a0161108f565b92505060a061119189828a01610f62565b9150509295509295509295565b6000602082840312156111b4576111b3610f37565b5b60006111c284828501610f62565b91505092915050565b600081519050919050565b600082825260208201905092915050565b60005b838110156112055780820151818401526020810190506111ea565b60008484015250505050565b600061121c826111cb565b61122681856111d6565b93506112368185602086016111e7565b61123f81610f81565b840191505092915050565b61125381610f41565b82525050565b600060a08201905081810360008301526112738188611211565b905081810360208301526112878187611211565b9050611296604083018661124a565b81810360608301526112a88185611211565b90506112b7608083018461124a565b9695505050505050565b600060c0820190506112d6600083018961124a565b81810360208301526112e88188611211565b905081810360408301526112fc8187611211565b905061130b606083018661124a565b818103608083015261131d8185611211565b905061132c60a083018461124a565b979650505050505050565b600073ffffffffffffffffffffffffffffffffffffffff82169050919050565b600061136282611337565b9050919050565b61137281611357565b82525050565b600060208201905061138d6000830184611369565b92915050565b600080604083850312156113aa576113a9610f37565b5b60006113b885828601610f62565b92505060206113c985828601610f62565b9150509250929050565b60006020820190506113e8600083018461124a565b92915050565b600080600080600060a0868803121561140a57611409610f37565b5b600086013567ffffffffffffffff81111561142857611427610f3c565b5b6114348882890161108f565b955050602086013567ffffffffffffffff81111561145557611454610f3c565b5b6114618882890161108f565b945050604061147288828901610f62565b935050606086013567ffffffffffffffff81111561149357611492610f3c565b5b61149f8882890161108f565b92505060806114b088828901610f62565b9150509295509295909350565b7f4e487b7100000000000000000000000000000000000000000000000000000000600052602260045260246000fd5b6000600282049050600182168061150457607f821691505b602082108103611517576115166114bd565b5b50919050565b60008190508160005260206000209050919050565b60006020601f8301049050919050565b600082821b905092915050565b60006008830261157f7fffffffffffffffffffffffffffffffffffffffffffffffffffffffffffffffff82611542565b6115898683611542565b95508019841693508086168417925050509392505050565b6000819050919050565b60006115c66115c16115bc84610f41565b6115a1565b610f41565b9050919050565b6000819050919050565b6115e0836115ab565b6115f46115ec826115cd565b84845461154f565b825550505050565b600090565b6116096115fc565b6116148184846115d7565b505050565b5b818110156116385761162d600082611601565b60018101905061161a565b5050565b601f82111561167d5761164e8161151d565b61165784611532565b81016020851015611666578190505b61167a61167285611532565b830182611619565b50505b505050565b600082821c905092915050565b60006116a060001984600802611682565b1980831691505092915050565b60006116b9838361168f565b9150826002028217905092915050565b6116d2826111cb565b67ffffffffffffffff8111156116eb576116ea610f92565b5b6116f582546114ec565b61170082828561163c565b600060209050601f8311600181146117335760008415611721578287015190505b61172b85826116ad565b865550611793565b601f1984166117418661151d565b60005b8281101561176957848901518255600182019150602085019450602081019050611744565b868310156117865784890151611782601f89168261168f565b8355505b6001600288020188555050505b505050505050565b7f496e76616c69642070726f647563742049440000000000000000000000000000600082015250565b60006117d16012836111d6565b91506117dc8261179b565b602082019050919050565b60006020820190508181036000830152611800816117c4565b9050919050565b7f4e6f7420656e6f7567682073746f636b20617661696c61626c65000000000000600082015250565b600061183d601a836111d6565b915061184882611807565b602082019050919050565b6000602082019050818103600083015261186c81611830565b9050919050565b7f4e487b7100000000000000000000000000000000000000000000000000000000600052601160045260246000fd5b60006118ad82610f41565b91506118b883610f41565b92508282026118c681610f41565b915082820484148315176118dd576118dc611873565b5b5092915050565b7f496e636f7272656374207061796d656e7420616d6f756e740000000000000000600082015250565b600061191a6018836111d6565b9150611925826118e4565b602082019050919050565b600060208201905081810360008301526119498161190d565b9050919050565b600061195b82610f41565b915061196683610f41565b925082820390508181111561197e5761197d611873565b5b92915050565b60008154611991816114ec565b61199b81866111d6565b945060018216600081146119b657600181146119cc576119ff565b60ff1983168652811515602002860193506119ff565b6119d58561151d565b60005b838110156119f7578154818901526001820191506020810190506119d8565b808801955050505b50505092915050565b600060a082019050611a1d600083018861124a565b8181036020830152611a2f8187611984565b9050611a3e604083018661124a565b611a4b606083018561124a565b611a586080830184611369565b9695505050505050565b7f50726f64756374206e616d652063616e6e6f7420626520656d70747900000000600082015250565b6000611a98601c836111d6565b9150611aa382611a62565b602082019050919050565b60006020820190508181036000830152611ac781611a8b565b9050919050565b7f50726f64756374206465736372697074696f6e2063616e6e6f7420626520656d60008201527f7074790000000000000000000000000000000000000000000000000000000000602082015250565b6000611b2a6023836111d6565b9150611b3582611ace565b604082019050919050565b60006020820190508181036000830152611b5981611b1d565b9050919050565b7f50726f647563742073746f636b206d757374206265206772656174657220746860008201527f616e203000000000000000000000000000000000000000000000000000000000602082015250565b6000611bbc6024836111d6565b9150611bc782611b60565b604082019050919050565b60006020820190508181036000830152611beb81611baf565b9050919050565b7f50726f647563742065787069726174696f6e20646174652063616e6e6f74206260008201527f6520656d70747900000000000000000000000000000000000000000000000000602082015250565b6000611c4e6027836111d6565b9150611c5982611bf2565b604082019050919050565b60006020820190508181036000830152611c7d81611c41565b9050919050565b7f50726f647563742070726963652063616e6e6f74206265206e65676174697665600082015250565b6000611cba6020836111d6565b9150611cc582611c84565b602082019050919050565b60006020820190508181036000830152611ce981611cad565b9050919050565b6000611cfb82610f41565b91507fffffffffffffffffffffffffffffffffffffffffffffffffffffffffffffffff8203611d2d57611d2c611873565b5b600182019050919050565b600060e082019050611d4d600083018a61124a565b8181036020830152611d5f8189611211565b90508181036040830152611d738188611211565b9050611d82606083018761124a565b8181036080830152611d948186611211565b9050611da360a083018561124a565b611db060c0830184611369565b98975050505050505050565b7f4e6f206861792073746f636b20646973706f6e69626c6520706172612065737460008201527f652070726f647563746f00000000000000000000000000000000000000000000602082015250565b6000611e18602a836111d6565b9150611e2382611dbc565b604082019050919050565b60006020820190508181036000830152611e4781611e0b565b9050919050565b6000611e5982610f41565b915060008203611e6c57611e6b611873565b5b600182039050919050565b600060a0820190508181036000830152611e918188611984565b90508181036020830152611ea58187611984565b9050611eb4604083018661124a565b8181036060830152611ec68185611984565b9050611ed5608083018461124a565b969550505050505056fea264697066735822122088220aa22680de5defebedcdad2ff904c867dd9fc80f4fe24edc3893370ee96e64736f6c63430008120033",
					"opcodes": "PUSH1 0x80 PUSH1 0x40 MSTORE CALLVALUE DUP1 ISZERO PUSH2 0x10 JUMPI PUSH1 0x0 DUP1 REVERT JUMPDEST POP CALLER PUSH1 0x0 DUP1 PUSH2 0x100 EXP DUP2 SLOAD DUP2 PUSH20 0xFFFFFFFFFFFFFFFFFFFFFFFFFFFFFFFFFFFFFFFF MUL NOT AND SWAP1 DUP4 PUSH20 0xFFFFFFFFFFFFFFFFFFFFFFFFFFFFFFFFFFFFFFFF AND MUL OR SWAP1 SSTORE POP PUSH1 0x0 PUSH1 0x1 DUP2 SWAP1 SSTORE POP PUSH2 0x1F15 DUP1 PUSH2 0x68 PUSH1 0x0 CODECOPY PUSH1 0x0 RETURN INVALID PUSH1 0x80 PUSH1 0x40 MSTORE PUSH1 0x4 CALLDATASIZE LT PUSH2 0x86 JUMPI PUSH1 0x0 CALLDATALOAD PUSH1 0xE0 SHR DUP1 PUSH4 0xA0440426 GT PUSH2 0x59 JUMPI DUP1 PUSH4 0xA0440426 EQ PUSH2 0x162 JUMPI DUP1 PUSH4 0xE0F6EF87 EQ PUSH2 0x17E JUMPI DUP1 PUSH4 0xE324EB43 EQ PUSH2 0x1A9 JUMPI DUP1 PUSH4 0xED90C7B7 EQ PUSH2 0x1D2 JUMPI DUP1 PUSH4 0xFF466595 EQ PUSH2 0x1FB JUMPI PUSH2 0x86 JUMP JUMPDEST DUP1 PUSH4 0x56641D73 EQ PUSH2 0x8B JUMPI DUP1 PUSH4 0x6813B53B EQ PUSH2 0xB4 JUMPI DUP1 PUSH4 0x7ACC0B20 EQ PUSH2 0xF5 JUMPI DUP1 PUSH4 0x8DA5CB5B EQ PUSH2 0x137 JUMPI JUMPDEST PUSH1 0x0 DUP1 REVERT JUMPDEST CALLVALUE DUP1 ISZERO PUSH2 0x97 JUMPI PUSH1 0x0 DUP1 REVERT JUMPDEST POP PUSH2 0xB2 PUSH1 0x4 DUP1 CALLDATASIZE SUB DUP2 ADD SWAP1 PUSH2 0xAD SWAP2 SWAP1 PUSH2 0x10BD JUMP JUMPDEST PUSH2 0x224 JUMP JUMPDEST STOP JUMPDEST CALLVALUE DUP1 ISZERO PUSH2 0xC0 JUMPI PUSH1 0x0 DUP1 REVERT JUMPDEST POP PUSH2 0xDB PUSH1 0x4 DUP1 CALLDATASIZE SUB DUP2 ADD SWAP1 PUSH2 0xD6 SWAP2 SWAP1 PUSH2 0x119E JUMP JUMPDEST PUSH2 0x2CC JUMP JUMPDEST PUSH1 0x40 MLOAD PUSH2 0xEC SWAP6 SWAP5 SWAP4 SWAP3 SWAP2 SWAP1 PUSH2 0x1259 JUMP JUMPDEST PUSH1 0x40 MLOAD DUP1 SWAP2 SUB SWAP1 RETURN JUMPDEST CALLVALUE DUP1 ISZERO PUSH2 0x101 JUMPI PUSH1 0x0 DUP1 REVERT JUMPDEST POP PUSH2 0x11C PUSH1 0x4 DUP1 CALLDATASIZE SUB DUP2 ADD SWAP1 PUSH2 0x117 SWAP2 SWAP1 PUSH2 0x119E JUMP JUMPDEST PUSH2 0x50A JUMP JUMPDEST PUSH1 0x40 MLOAD PUSH2 0x12E SWAP7 SWAP6 SWAP5 SWAP4 SWAP3 SWAP2 SWAP1 PUSH2 0x12C1 JUMP JUMPDEST PUSH1 0x40 MLOAD DUP1 SWAP2 SUB SWAP1 RETURN JUMPDEST CALLVALUE DUP1 ISZERO PUSH2 0x143 JUMPI PUSH1 0x0 DUP1 REVERT JUMPDEST POP PUSH2 0x14C PUSH2 0x6DE JUMP JUMPDEST PUSH1 0x40 MLOAD PUSH2 0x159 SWAP2 SWAP1 PUSH2 0x1378 JUMP JUMPDEST PUSH1 0x40 MLOAD DUP1 SWAP2 SUB SWAP1 RETURN JUMPDEST PUSH2 0x17C PUSH1 0x4 DUP1 CALLDATASIZE SUB DUP2 ADD SWAP1 PUSH2 0x177 SWAP2 SWAP1 PUSH2 0x1393 JUMP JUMPDEST PUSH2 0x702 JUMP JUMPDEST STOP JUMPDEST CALLVALUE DUP1 ISZERO PUSH2 0x18A JUMPI PUSH1 0x0 DUP1 REVERT JUMPDEST POP PUSH2 0x193 PUSH2 0x8CB JUMP JUMPDEST PUSH1 0x40 MLOAD PUSH2 0x1A0 SWAP2 SWAP1 PUSH2 0x13D3 JUMP JUMPDEST PUSH1 0x40 MLOAD DUP1 SWAP2 SUB SWAP1 RETURN JUMPDEST CALLVALUE DUP1 ISZERO PUSH2 0x1B5 JUMPI PUSH1 0x0 DUP1 REVERT JUMPDEST POP PUSH2 0x1D0 PUSH1 0x4 DUP1 CALLDATASIZE SUB DUP2 ADD SWAP1 PUSH2 0x1CB SWAP2 SWAP1 PUSH2 0x13EE JUMP JUMPDEST PUSH2 0x8D1 JUMP JUMPDEST STOP JUMPDEST CALLVALUE DUP1 ISZERO PUSH2 0x1DE JUMPI PUSH1 0x0 DUP1 REVERT JUMPDEST POP PUSH2 0x1F9 PUSH1 0x4 DUP1 CALLDATASIZE SUB DUP2 ADD SWAP1 PUSH2 0x1F4 SWAP2 SWAP1 PUSH2 0x119E JUMP JUMPDEST PUSH2 0xB2F JUMP JUMPDEST STOP JUMPDEST CALLVALUE DUP1 ISZERO PUSH2 0x207 JUMPI PUSH1 0x0 DUP1 REVERT JUMPDEST POP PUSH2 0x222 PUSH1 0x4 DUP1 CALLDATASIZE SUB DUP2 ADD SWAP1 PUSH2 0x21D SWAP2 SWAP1 PUSH2 0x119E JUMP JUMPDEST PUSH2 0xDB2 JUMP JUMPDEST STOP JUMPDEST PUSH1 0x0 PUSH1 0x2 PUSH1 0x0 DUP9 DUP2 MSTORE PUSH1 0x20 ADD SWAP1 DUP2 MSTORE PUSH1 0x20 ADD PUSH1 0x0 KECCAK256 SWAP1 POP DUP6 DUP2 PUSH1 0x1 ADD SWAP1 DUP2 PUSH2 0x24C SWAP2 SWAP1 PUSH2 0x16C9 JUMP JUMPDEST POP DUP5 DUP2 PUSH1 0x2 ADD SWAP1 DUP2 PUSH2 0x25E SWAP2 SWAP1 PUSH2 0x16C9 JUMP JUMPDEST POP DUP4 DUP2 PUSH1 0x3 ADD DUP2 SWAP1 SSTORE POP DUP3 DUP2 PUSH1 0x4 ADD SWAP1 DUP2 PUSH2 0x279 SWAP2 SWAP1 PUSH2 0x16C9 JUMP JUMPDEST POP DUP2 DUP2 PUSH1 0x5 ADD DUP2 SWAP1 SSTORE POP DUP7 PUSH32 0x43202EE2497BAC5C3861FEC10B2582C2A1291B84555DD19C5BDDB0645C04C2A7 DUP8 DUP8 DUP8 DUP8 DUP8 PUSH1 0x40 MLOAD PUSH2 0x2BB SWAP6 SWAP5 SWAP4 SWAP3 SWAP2 SWAP1 PUSH2 0x1259 JUMP JUMPDEST PUSH1 0x40 MLOAD DUP1 SWAP2 SUB SWAP1 LOG2 POP POP POP POP POP POP POP JUMP JUMPDEST PUSH1 0x60 DUP1 PUSH1 0x0 PUSH1 0x60 PUSH1 0x0 DUP1 DUP7 GT DUP1 ISZERO PUSH2 0x2E6 JUMPI POP PUSH1 0x1 SLOAD DUP7 GT ISZERO JUMPDEST PUSH2 0x325 JUMPI PUSH1 0x40 MLOAD PUSH32 0x8C379A000000000000000000000000000000000000000000000000000000000 DUP2 MSTORE PUSH1 0x4 ADD PUSH2 0x31C SWAP1 PUSH2 0x17E7 JUMP JUMPDEST PUSH1 0x40 MLOAD DUP1 SWAP2 SUB SWAP1 REVERT JUMPDEST PUSH1 0x0 PUSH1 0x2 PUSH1 0x0 DUP9 DUP2 MSTORE PUSH1 0x20 ADD SWAP1 DUP2 MSTORE PUSH1 0x20 ADD PUSH1 0x0 KECCAK256 SWAP1 POP DUP1 PUSH1 0x1 ADD DUP2 PUSH1 0x2 ADD DUP3 PUSH1 0x3 ADD SLOAD DUP4 PUSH1 0x4 ADD DUP5 PUSH1 0x5 ADD SLOAD DUP5 DUP1 SLOAD PUSH2 0x35E SWAP1 PUSH2 0x14EC JUMP JUMPDEST DUP1 PUSH1 0x1F ADD PUSH1 0x20 DUP1 SWAP2 DIV MUL PUSH1 0x20 ADD PUSH1 0x40 MLOAD SWAP1 DUP2 ADD PUSH1 0x40 MSTORE DUP1 SWAP3 SWAP2 SWAP1 DUP2 DUP2 MSTORE PUSH1 0x20 ADD DUP3 DUP1 SLOAD PUSH2 0x38A SWAP1 PUSH2 0x14EC JUMP JUMPDEST DUP1 ISZERO PUSH2 0x3D7 JUMPI DUP1 PUSH1 0x1F LT PUSH2 0x3AC JUMPI PUSH2 0x100 DUP1 DUP4 SLOAD DIV MUL DUP4 MSTORE SWAP2 PUSH1 0x20 ADD SWAP2 PUSH2 0x3D7 JUMP JUMPDEST DUP3 ADD SWAP2 SWAP1 PUSH1 0x0 MSTORE PUSH1 0x20 PUSH1 0x0 KECCAK256 SWAP1 JUMPDEST DUP2 SLOAD DUP2 MSTORE SWAP1 PUSH1 0x1 ADD SWAP1 PUSH1 0x20 ADD DUP1 DUP4 GT PUSH2 0x3BA JUMPI DUP3 SWAP1 SUB PUSH1 0x1F AND DUP3 ADD SWAP2 JUMPDEST POP POP POP POP POP SWAP5 POP DUP4 DUP1 SLOAD PUSH2 0x3EA SWAP1 PUSH2 0x14EC JUMP JUMPDEST DUP1 PUSH1 0x1F ADD PUSH1 0x20 DUP1 SWAP2 DIV MUL PUSH1 0x20 ADD PUSH1 0x40 MLOAD SWAP1 DUP2 ADD PUSH1 0x40 MSTORE DUP1 SWAP3 SWAP2 SWAP1 DUP2 DUP2 MSTORE PUSH1 0x20 ADD DUP3 DUP1 SLOAD PUSH2 0x416 SWAP1 PUSH2 0x14EC JUMP JUMPDEST DUP1 ISZERO PUSH2 0x463 JUMPI DUP1 PUSH1 0x1F LT PUSH2 0x438 JUMPI PUSH2 0x100 DUP1 DUP4 SLOAD DIV MUL DUP4 MSTORE SWAP2 PUSH1 0x20 ADD SWAP2 PUSH2 0x463 JUMP JUMPDEST DUP3 ADD SWAP2 SWAP1 PUSH1 0x0 MSTORE PUSH1 0x20 PUSH1 0x0 KECCAK256 SWAP1 JUMPDEST DUP2 SLOAD DUP2 MSTORE SWAP1 PUSH1 0x1 ADD SWAP1 PUSH1 0x20 ADD DUP1 DUP4 GT PUSH2 0x446 JUMPI DUP3 SWAP1 SUB PUSH1 0x1F AND DUP3 ADD SWAP2 JUMPDEST POP POP POP POP POP SWAP4 POP DUP2 DUP1 SLOAD PUSH2 0x476 SWAP1 PUSH2 0x14EC JUMP JUMPDEST DUP1 PUSH1 0x1F ADD PUSH1 0x20 DUP1 SWAP2 DIV MUL PUSH1 0x20 ADD PUSH1 0x40 MLOAD SWAP1 DUP2 ADD PUSH1 0x40 MSTORE DUP1 SWAP3 SWAP2 SWAP1 DUP2 DUP2 MSTORE PUSH1 0x20 ADD DUP3 DUP1 SLOAD PUSH2 0x4A2 SWAP1 PUSH2 0x14EC JUMP JUMPDEST DUP1 ISZERO PUSH2 0x4EF JUMPI DUP1 PUSH1 0x1F LT PUSH2 0x4C4 JUMPI PUSH2 0x100 DUP1 DUP4 SLOAD DIV MUL DUP4 MSTORE SWAP2 PUSH1 0x20 ADD SWAP2 PUSH2 0x4EF JUMP JUMPDEST DUP3 ADD SWAP2 SWAP1 PUSH1 0x0 MSTORE PUSH1 0x20 PUSH1 0x0 KECCAK256 SWAP1 JUMPDEST DUP2 SLOAD DUP2 MSTORE SWAP1 PUSH1 0x1 ADD SWAP1 PUSH1 0x20 ADD DUP1 DUP4 GT PUSH2 0x4D2 JUMPI DUP3 SWAP1 SUB PUSH1 0x1F AND DUP3 ADD SWAP2 JUMPDEST POP POP POP POP POP SWAP2 POP SWAP6 POP SWAP6 POP SWAP6 POP SWAP6 POP SWAP6 POP POP SWAP2 SWAP4 SWAP6 SWAP1 SWAP3 SWAP5 POP JUMP JUMPDEST PUSH1 0x2 PUSH1 0x20 MSTORE DUP1 PUSH1 0x0 MSTORE PUSH1 0x40 PUSH1 0x0 KECCAK256 PUSH1 0x0 SWAP2 POP SWAP1 POP DUP1 PUSH1 0x0 ADD SLOAD SWAP1 DUP1 PUSH1 0x1 ADD DUP1 SLOAD PUSH2 0x533 SWAP1 PUSH2 0x14EC JUMP JUMPDEST DUP1 PUSH1 0x1F ADD PUSH1 0x20 DUP1 SWAP2 DIV MUL PUSH1 0x20 ADD PUSH1 0x40 MLOAD SWAP1 DUP2 ADD PUSH1 0x40 MSTORE DUP1 SWAP3 SWAP2 SWAP1 DUP2 DUP2 MSTORE PUSH1 0x20 ADD DUP3 DUP1 SLOAD PUSH2 0x55F SWAP1 PUSH2 0x14EC JUMP JUMPDEST DUP1 ISZERO PUSH2 0x5AC JUMPI DUP1 PUSH1 0x1F LT PUSH2 0x581 JUMPI PUSH2 0x100 DUP1 DUP4 SLOAD DIV MUL DUP4 MSTORE SWAP2 PUSH1 0x20 ADD SWAP2 PUSH2 0x5AC JUMP JUMPDEST DUP3 ADD SWAP2 SWAP1 PUSH1 0x0 MSTORE PUSH1 0x20 PUSH1 0x0 KECCAK256 SWAP1 JUMPDEST DUP2 SLOAD DUP2 MSTORE SWAP1 PUSH1 0x1 ADD SWAP1 PUSH1 0x20 ADD DUP1 DUP4 GT PUSH2 0x58F JUMPI DUP3 SWAP1 SUB PUSH1 0x1F AND DUP3 ADD SWAP2 JUMPDEST POP POP POP POP POP SWAP1 DUP1 PUSH1 0x2 ADD DUP1 SLOAD PUSH2 0x5C1 SWAP1 PUSH2 0x14EC JUMP JUMPDEST DUP1 PUSH1 0x1F ADD PUSH1 0x20 DUP1 SWAP2 DIV MUL PUSH1 0x20 ADD PUSH1 0x40 MLOAD SWAP1 DUP2 ADD PUSH1 0x40 MSTORE DUP1 SWAP3 SWAP2 SWAP1 DUP2 DUP2 MSTORE PUSH1 0x20 ADD DUP3 DUP1 SLOAD PUSH2 0x5ED SWAP1 PUSH2 0x14EC JUMP JUMPDEST DUP1 ISZERO PUSH2 0x63A JUMPI DUP1 PUSH1 0x1F LT PUSH2 0x60F JUMPI PUSH2 0x100 DUP1 DUP4 SLOAD DIV MUL DUP4 MSTORE SWAP2 PUSH1 0x20 ADD SWAP2 PUSH2 0x63A JUMP JUMPDEST DUP3 ADD SWAP2 SWAP1 PUSH1 0x0 MSTORE PUSH1 0x20 PUSH1 0x0 KECCAK256 SWAP1 JUMPDEST DUP2 SLOAD DUP2 MSTORE SWAP1 PUSH1 0x1 ADD SWAP1 PUSH1 0x20 ADD DUP1 DUP4 GT PUSH2 0x61D JUMPI DUP3 SWAP1 SUB PUSH1 0x1F AND DUP3 ADD SWAP2 JUMPDEST POP POP POP POP POP SWAP1 DUP1 PUSH1 0x3 ADD SLOAD SWAP1 DUP1 PUSH1 0x4 ADD DUP1 SLOAD PUSH2 0x655 SWAP1 PUSH2 0x14EC JUMP JUMPDEST DUP1 PUSH1 0x1F ADD PUSH1 0x20 DUP1 SWAP2 DIV MUL PUSH1 0x20 ADD PUSH1 0x40 MLOAD SWAP1 DUP2 ADD PUSH1 0x40 MSTORE DUP1 SWAP3 SWAP2 SWAP1 DUP2 DUP2 MSTORE PUSH1 0x20 ADD DUP3 DUP1 SLOAD PUSH2 0x681 SWAP1 PUSH2 0x14EC JUMP JUMPDEST DUP1 ISZERO PUSH2 0x6CE JUMPI DUP1 PUSH1 0x1F LT PUSH2 0x6A3 JUMPI PUSH2 0x100 DUP1 DUP4 SLOAD DIV MUL DUP4 MSTORE SWAP2 PUSH1 0x20 ADD SWAP2 PUSH2 0x6CE JUMP JUMPDEST DUP3 ADD SWAP2 SWAP1 PUSH1 0x0 MSTORE PUSH1 0x20 PUSH1 0x0 KECCAK256 SWAP1 JUMPDEST DUP2 SLOAD DUP2 MSTORE SWAP1 PUSH1 0x1 ADD SWAP1 PUSH1 0x20 ADD DUP1 DUP4 GT PUSH2 0x6B1 JUMPI DUP3 SWAP1 SUB PUSH1 0x1F AND DUP3 ADD SWAP2 JUMPDEST POP POP POP POP POP SWAP1 DUP1 PUSH1 0x5 ADD SLOAD SWAP1 POP DUP7 JUMP JUMPDEST PUSH1 0x0 DUP1 SLOAD SWAP1 PUSH2 0x100 EXP SWAP1 DIV PUSH20 0xFFFFFFFFFFFFFFFFFFFFFFFFFFFFFFFFFFFFFFFF AND DUP2 JUMP JUMPDEST PUSH1 0x0 DUP3 GT DUP1 ISZERO PUSH2 0x714 JUMPI POP PUSH1 0x1 SLOAD DUP3 GT ISZERO JUMPDEST PUSH2 0x753 JUMPI PUSH1 0x40 MLOAD PUSH32 0x8C379A000000000000000000000000000000000000000000000000000000000 DUP2 MSTORE PUSH1 0x4 ADD PUSH2 0x74A SWAP1 PUSH2 0x17E7 JUMP JUMPDEST PUSH1 0x40 MLOAD DUP1 SWAP2 SUB SWAP1 REVERT JUMPDEST PUSH1 0x0 PUSH1 0x2 PUSH1 0x0 DUP5 DUP2 MSTORE PUSH1 0x20 ADD SWAP1 DUP2 MSTORE PUSH1 0x20 ADD PUSH1 0x0 KECCAK256 SWAP1 POP DUP2 DUP2 PUSH1 0x3 ADD SLOAD LT ISZERO PUSH2 0x7B1 JUMPI PUSH1 0x40 MLOAD PUSH32 0x8C379A000000000000000000000000000000000000000000000000000000000 DUP2 MSTORE PUSH1 0x4 ADD PUSH2 0x7A8 SWAP1 PUSH2 0x1853 JUMP JUMPDEST PUSH1 0x40 MLOAD DUP1 SWAP2 SUB SWAP1 REVERT JUMPDEST DUP2 DUP2 PUSH1 0x5 ADD SLOAD PUSH2 0x7C1 SWAP2 SWAP1 PUSH2 0x18A2 JUMP JUMPDEST CALLVALUE EQ PUSH2 0x802 JUMPI PUSH1 0x40 MLOAD PUSH32 0x8C379A000000000000000000000000000000000000000000000000000000000 DUP2 MSTORE PUSH1 0x4 ADD PUSH2 0x7F9 SWAP1 PUSH2 0x1930 JUMP JUMPDEST PUSH1 0x40 MLOAD DUP1 SWAP2 SUB SWAP1 REVERT JUMPDEST PUSH1 0x0 DUP1 SLOAD SWAP1 PUSH2 0x100 EXP SWAP1 DIV PUSH20 0xFFFFFFFFFFFFFFFFFFFFFFFFFFFFFFFFFFFFFFFF AND PUSH20 0xFFFFFFFFFFFFFFFFFFFFFFFFFFFFFFFFFFFFFFFF AND PUSH2 0x8FC CALLVALUE SWAP1 DUP2 ISZERO MUL SWAP1 PUSH1 0x40 MLOAD PUSH1 0x0 PUSH1 0x40 MLOAD DUP1 DUP4 SUB DUP2 DUP6 DUP9 DUP9 CALL SWAP4 POP POP POP POP ISZERO DUP1 ISZERO PUSH2 0x868 JUMPI RETURNDATASIZE PUSH1 0x0 DUP1 RETURNDATACOPY RETURNDATASIZE PUSH1 0x0 REVERT JUMPDEST POP DUP2 DUP2 PUSH1 0x3 ADD PUSH1 0x0 DUP3 DUP3 SLOAD PUSH2 0x87D SWAP2 SWAP1 PUSH2 0x1950 JUMP JUMPDEST SWAP3 POP POP DUP2 SWAP1 SSTORE POP PUSH32 0xD922A2FFFDE7C04EFB85E105CB4324B2EBE96919A6A107B6C63AFB85484B8DA9 DUP4 DUP3 PUSH1 0x1 ADD DUP5 CALLVALUE CALLER PUSH1 0x40 MLOAD PUSH2 0x8BE SWAP6 SWAP5 SWAP4 SWAP3 SWAP2 SWAP1 PUSH2 0x1A08 JUMP JUMPDEST PUSH1 0x40 MLOAD DUP1 SWAP2 SUB SWAP1 LOG1 POP POP POP JUMP JUMPDEST PUSH1 0x1 SLOAD DUP2 JUMP JUMPDEST PUSH1 0x0 DUP6 MLOAD GT PUSH2 0x915 JUMPI PUSH1 0x40 MLOAD PUSH32 0x8C379A000000000000000000000000000000000000000000000000000000000 DUP2 MSTORE PUSH1 0x4 ADD PUSH2 0x90C SWAP1 PUSH2 0x1AAE JUMP JUMPDEST PUSH1 0x40 MLOAD DUP1 SWAP2 SUB SWAP1 REVERT JUMPDEST PUSH1 0x0 DUP5 MLOAD GT PUSH2 0x959 JUMPI PUSH1 0x40 MLOAD PUSH32 0x8C379A000000000000000000000000000000000000000000000000000000000 DUP2 MSTORE PUSH1 0x4 ADD PUSH2 0x950 SWAP1 PUSH2 0x1B40 JUMP JUMPDEST PUSH1 0x40 MLOAD DUP1 SWAP2 SUB SWAP1 REVERT JUMPDEST PUSH1 0x0 DUP4 GT PUSH2 0x99C JUMPI PUSH1 0x40 MLOAD PUSH32 0x8C379A000000000000000000000000000000000000000000000000000000000 DUP2 MSTORE PUSH1 0x4 ADD PUSH2 0x993 SWAP1 PUSH2 0x1BD2 JUMP JUMPDEST PUSH1 0x40 MLOAD DUP1 SWAP2 SUB SWAP1 REVERT JUMPDEST PUSH1 0x0 DUP3 MLOAD GT PUSH2 0x9E0 JUMPI PUSH1 0x40 MLOAD PUSH32 0x8C379A000000000000000000000000000000000000000000000000000000000 DUP2 MSTORE PUSH1 0x4 ADD PUSH2 0x9D7 SWAP1 PUSH2 0x1C64 JUMP JUMPDEST PUSH1 0x40 MLOAD DUP1 SWAP2 SUB SWAP1 REVERT JUMPDEST PUSH1 0x0 DUP2 LT ISZERO PUSH2 0xA24 JUMPI PUSH1 0x40 MLOAD PUSH32 0x8C379A000000000000000000000000000000000000000000000000000000000 DUP2 MSTORE PUSH1 0x4 ADD PUSH2 0xA1B SWAP1 PUSH2 0x1CD0 JUMP JUMPDEST PUSH1 0x40 MLOAD DUP1 SWAP2 SUB SWAP1 REVERT JUMPDEST PUSH1 0x1 PUSH1 0x0 DUP2 SLOAD DUP1 SWAP3 SWAP2 SWAP1 PUSH2 0xA37 SWAP1 PUSH2 0x1CF0 JUMP JUMPDEST SWAP2 SWAP1 POP SSTORE POP PUSH1 0x40 MLOAD DUP1 PUSH1 0xC0 ADD PUSH1 0x40 MSTORE DUP1 PUSH1 0x1 SLOAD DUP2 MSTORE PUSH1 0x20 ADD DUP7 DUP2 MSTORE PUSH1 0x20 ADD DUP6 DUP2 MSTORE PUSH1 0x20 ADD DUP5 DUP2 MSTORE PUSH1 0x20 ADD DUP4 DUP2 MSTORE PUSH1 0x20 ADD DUP3 DUP2 MSTORE POP PUSH1 0x2 PUSH1 0x0 PUSH1 0x1 SLOAD DUP2 MSTORE PUSH1 0x20 ADD SWAP1 DUP2 MSTORE PUSH1 0x20 ADD PUSH1 0x0 KECCAK256 PUSH1 0x0 DUP3 ADD MLOAD DUP2 PUSH1 0x0 ADD SSTORE PUSH1 0x20 DUP3 ADD MLOAD DUP2 PUSH1 0x1 ADD SWAP1 DUP2 PUSH2 0xA9F SWAP2 SWAP1 PUSH2 0x16C9 JUMP JUMPDEST POP PUSH1 0x40 DUP3 ADD MLOAD DUP2 PUSH1 0x2 ADD SWAP1 DUP2 PUSH2 0xAB5 SWAP2 SWAP1 PUSH2 0x16C9 JUMP JUMPDEST POP PUSH1 0x60 DUP3 ADD MLOAD DUP2 PUSH1 0x3 ADD SSTORE PUSH1 0x80 DUP3 ADD MLOAD DUP2 PUSH1 0x4 ADD SWAP1 DUP2 PUSH2 0xAD5 SWAP2 SWAP1 PUSH2 0x16C9 JUMP JUMPDEST POP PUSH1 0xA0 DUP3 ADD MLOAD DUP2 PUSH1 0x5 ADD SSTORE SWAP1 POP POP PUSH32 0x5B97192FBDAC5F86E3C2357B10AE099EB30B9263A92BE777B80F46D3C59C8648 PUSH1 0x1 SLOAD DUP7 DUP7 DUP7 DUP7 DUP7 CALLER PUSH1 0x40 MLOAD PUSH2 0xB20 SWAP8 SWAP7 SWAP6 SWAP5 SWAP4 SWAP3 SWAP2 SWAP1 PUSH2 0x1D38 JUMP JUMPDEST PUSH1 0x40 MLOAD DUP1 SWAP2 SUB SWAP1 LOG1 POP POP POP POP POP JUMP JUMPDEST PUSH1 0x0 PUSH1 0x2 PUSH1 0x0 DUP4 DUP2 MSTORE PUSH1 0x20 ADD SWAP1 DUP2 MSTORE PUSH1 0x20 ADD PUSH1 0x0 KECCAK256 SWAP1 POP PUSH1 0x0 DUP2 PUSH1 0x1 ADD DUP1 SLOAD PUSH2 0xB57 SWAP1 PUSH2 0x14EC JUMP JUMPDEST DUP1 PUSH1 0x1F ADD PUSH1 0x20 DUP1 SWAP2 DIV MUL PUSH1 0x20 ADD PUSH1 0x40 MLOAD SWAP1 DUP2 ADD PUSH1 0x40 MSTORE DUP1 SWAP3 SWAP2 SWAP1 DUP2 DUP2 MSTORE PUSH1 0x20 ADD DUP3 DUP1 SLOAD PUSH2 0xB83 SWAP1 PUSH2 0x14EC JUMP JUMPDEST DUP1 ISZERO PUSH2 0xBD0 JUMPI DUP1 PUSH1 0x1F LT PUSH2 0xBA5 JUMPI PUSH2 0x100 DUP1 DUP4 SLOAD DIV MUL DUP4 MSTORE SWAP2 PUSH1 0x20 ADD SWAP2 PUSH2 0xBD0 JUMP JUMPDEST DUP3 ADD SWAP2 SWAP1 PUSH1 0x0 MSTORE PUSH1 0x20 PUSH1 0x0 KECCAK256 SWAP1 JUMPDEST DUP2 SLOAD DUP2 MSTORE SWAP1 PUSH1 0x1 ADD SWAP1 PUSH1 0x20 ADD DUP1 DUP4 GT PUSH2 0xBB3 JUMPI DUP3 SWAP1 SUB PUSH1 0x1F AND DUP3 ADD SWAP2 JUMPDEST POP POP POP POP POP SWAP1 POP PUSH1 0x0 DUP3 PUSH1 0x2 ADD DUP1 SLOAD PUSH2 0xBE8 SWAP1 PUSH2 0x14EC JUMP JUMPDEST DUP1 PUSH1 0x1F ADD PUSH1 0x20 DUP1 SWAP2 DIV MUL PUSH1 0x20 ADD PUSH1 0x40 MLOAD SWAP1 DUP2 ADD PUSH1 0x40 MSTORE DUP1 SWAP3 SWAP2 SWAP1 DUP2 DUP2 MSTORE PUSH1 0x20 ADD DUP3 DUP1 SLOAD PUSH2 0xC14 SWAP1 PUSH2 0x14EC JUMP JUMPDEST DUP1 ISZERO PUSH2 0xC61 JUMPI DUP1 PUSH1 0x1F LT PUSH2 0xC36 JUMPI PUSH2 0x100 DUP1 DUP4 SLOAD DIV MUL DUP4 MSTORE SWAP2 PUSH1 0x20 ADD SWAP2 PUSH2 0xC61 JUMP JUMPDEST DUP3 ADD SWAP2 SWAP1 PUSH1 0x0 MSTORE PUSH1 0x20 PUSH1 0x0 KECCAK256 SWAP1 JUMPDEST DUP2 SLOAD DUP2 MSTORE SWAP1 PUSH1 0x1 ADD SWAP1 PUSH1 0x20 ADD DUP1 DUP4 GT PUSH2 0xC44 JUMPI DUP3 SWAP1 SUB PUSH1 0x1F AND DUP3 ADD SWAP2 JUMPDEST POP POP POP POP POP SWAP1 POP PUSH1 0x0 DUP4 PUSH1 0x3 ADD SLOAD SWAP1 POP PUSH1 0x0 DUP5 PUSH1 0x4 ADD DUP1 SLOAD PUSH2 0xC82 SWAP1 PUSH2 0x14EC JUMP JUMPDEST DUP1 PUSH1 0x1F ADD PUSH1 0x20 DUP1 SWAP2 DIV MUL PUSH1 0x20 ADD PUSH1 0x40 MLOAD SWAP1 DUP2 ADD PUSH1 0x40 MSTORE DUP1 SWAP3 SWAP2 SWAP1 DUP2 DUP2 MSTORE PUSH1 0x20 ADD DUP3 DUP1 SLOAD PUSH2 0xCAE SWAP1 PUSH2 0x14EC JUMP JUMPDEST DUP1 ISZERO PUSH2 0xCFB JUMPI DUP1 PUSH1 0x1F LT PUSH2 0xCD0 JUMPI PUSH2 0x100 DUP1 DUP4 SLOAD DIV MUL DUP4 MSTORE SWAP2 PUSH1 0x20 ADD SWAP2 PUSH2 0xCFB JUMP JUMPDEST DUP3 ADD SWAP2 SWAP1 PUSH1 0x0 MSTORE PUSH1 0x20 PUSH1 0x0 KECCAK256 SWAP1 JUMPDEST DUP2 SLOAD DUP2 MSTORE SWAP1 PUSH1 0x1 ADD SWAP1 PUSH1 0x20 ADD DUP1 DUP4 GT PUSH2 0xCDE JUMPI DUP3 SWAP1 SUB PUSH1 0x1F AND DUP3 ADD SWAP2 JUMPDEST POP POP POP POP POP SWAP1 POP PUSH1 0x0 DUP6 PUSH1 0x5 ADD SLOAD SWAP1 POP PUSH1 0x2 PUSH1 0x0 DUP9 DUP2 MSTORE PUSH1 0x20 ADD SWAP1 DUP2 MSTORE PUSH1 0x20 ADD PUSH1 0x0 KECCAK256 PUSH1 0x0 DUP1 DUP3 ADD PUSH1 0x0 SWAP1 SSTORE PUSH1 0x1 DUP3 ADD PUSH1 0x0 PUSH2 0xD37 SWAP2 SWAP1 PUSH2 0xED0 JUMP JUMPDEST PUSH1 0x2 DUP3 ADD PUSH1 0x0 PUSH2 0xD47 SWAP2 SWAP1 PUSH2 0xED0 JUMP JUMPDEST PUSH1 0x3 DUP3 ADD PUSH1 0x0 SWAP1 SSTORE PUSH1 0x4 DUP3 ADD PUSH1 0x0 PUSH2 0xD5F SWAP2 SWAP1 PUSH2 0xED0 JUMP JUMPDEST PUSH1 0x5 DUP3 ADD PUSH1 0x0 SWAP1 SSTORE POP POP DUP7 PUSH32 0xDBDA2C6220968AA575BE89715035F7593B361E9DAEF1B59EC7BE0D7390A3C666 DUP7 DUP7 DUP7 DUP7 DUP7 PUSH1 0x40 MLOAD PUSH2 0xDA1 SWAP6 SWAP5 SWAP4 SWAP3 SWAP2 SWAP1 PUSH2 0x1259 JUMP JUMPDEST PUSH1 0x40 MLOAD DUP1 SWAP2 SUB SWAP1 LOG2 POP POP POP POP POP POP POP JUMP JUMPDEST PUSH1 0x0 DUP2 GT DUP1 ISZERO PUSH2 0xDC4 JUMPI POP PUSH1 0x1 SLOAD DUP2 GT ISZERO JUMPDEST PUSH2 0xE03 JUMPI PUSH1 0x40 MLOAD PUSH32 0x8C379A000000000000000000000000000000000000000000000000000000000 DUP2 MSTORE PUSH1 0x4 ADD PUSH2 0xDFA SWAP1 PUSH2 0x17E7 JUMP JUMPDEST PUSH1 0x40 MLOAD DUP1 SWAP2 SUB SWAP1 REVERT JUMPDEST PUSH1 0x0 PUSH1 0x2 PUSH1 0x0 DUP4 DUP2 MSTORE PUSH1 0x20 ADD SWAP1 DUP2 MSTORE PUSH1 0x20 ADD PUSH1 0x0 KECCAK256 SWAP1 POP PUSH1 0x0 DUP2 PUSH1 0x3 ADD SLOAD GT PUSH2 0xE61 JUMPI PUSH1 0x40 MLOAD PUSH32 0x8C379A000000000000000000000000000000000000000000000000000000000 DUP2 MSTORE PUSH1 0x4 ADD PUSH2 0xE58 SWAP1 PUSH2 0x1E2E JUMP JUMPDEST PUSH1 0x40 MLOAD DUP1 SWAP2 SUB SWAP1 REVERT JUMPDEST DUP1 PUSH1 0x3 ADD PUSH1 0x0 DUP2 SLOAD DUP1 SWAP3 SWAP2 SWAP1 PUSH2 0xE76 SWAP1 PUSH2 0x1E4E JUMP JUMPDEST SWAP2 SWAP1 POP SSTORE POP DUP2 PUSH32 0x43202EE2497BAC5C3861FEC10B2582C2A1291B84555DD19C5BDDB0645C04C2A7 DUP3 PUSH1 0x1 ADD DUP4 PUSH1 0x2 ADD DUP5 PUSH1 0x3 ADD SLOAD DUP6 PUSH1 0x4 ADD DUP7 PUSH1 0x5 ADD SLOAD PUSH1 0x40 MLOAD PUSH2 0xEC4 SWAP6 SWAP5 SWAP4 SWAP3 SWAP2 SWAP1 PUSH2 0x1E77 JUMP JUMPDEST PUSH1 0x40 MLOAD DUP1 SWAP2 SUB SWAP1 LOG2 POP POP JUMP JUMPDEST POP DUP1 SLOAD PUSH2 0xEDC SWAP1 PUSH2 0x14EC JUMP JUMPDEST PUSH1 0x0 DUP3 SSTORE DUP1 PUSH1 0x1F LT PUSH2 0xEEE JUMPI POP PUSH2 0xF0D JUMP JUMPDEST PUSH1 0x1F ADD PUSH1 0x20 SWAP1 DIV SWAP1 PUSH1 0x0 MSTORE PUSH1 0x20 PUSH1 0x0 KECCAK256 SWAP1 DUP2 ADD SWAP1 PUSH2 0xF0C SWAP2 SWAP1 PUSH2 0xF10 JUMP JUMPDEST JUMPDEST POP JUMP JUMPDEST JUMPDEST DUP1 DUP3 GT ISZERO PUSH2 0xF29 JUMPI PUSH1 0x0 DUP2 PUSH1 0x0 SWAP1 SSTORE POP PUSH1 0x1 ADD PUSH2 0xF11 JUMP JUMPDEST POP SWAP1 JUMP JUMPDEST PUSH1 0x0 PUSH1 0x40 MLOAD SWAP1 POP SWAP1 JUMP JUMPDEST PUSH1 0x0 DUP1 REVERT JUMPDEST PUSH1 0x0 DUP1 REVERT JUMPDEST PUSH1 0x0 DUP2 SWAP1 POP SWAP2 SWAP1 POP JUMP JUMPDEST PUSH2 0xF54 DUP2 PUSH2 0xF41 JUMP JUMPDEST DUP2 EQ PUSH2 0xF5F JUMPI PUSH1 0x0 DUP1 REVERT JUMPDEST POP JUMP JUMPDEST PUSH1 0x0 DUP2 CALLDATALOAD SWAP1 POP PUSH2 0xF71 DUP2 PUSH2 0xF4B JUMP JUMPDEST SWAP3 SWAP2 POP POP JUMP JUMPDEST PUSH1 0x0 DUP1 REVERT JUMPDEST PUSH1 0x0 DUP1 REVERT JUMPDEST PUSH1 0x0 PUSH1 0x1F NOT PUSH1 0x1F DUP4 ADD AND SWAP1 POP SWAP2 SWAP1 POP JUMP JUMPDEST PUSH32 0x4E487B7100000000000000000000000000000000000000000000000000000000 PUSH1 0x0 MSTORE PUSH1 0x41 PUSH1 0x4 MSTORE PUSH1 0x24 PUSH1 0x0 REVERT JUMPDEST PUSH2 0xFCA DUP3 PUSH2 0xF81 JUMP JUMPDEST DUP2 ADD DUP2 DUP2 LT PUSH8 0xFFFFFFFFFFFFFFFF DUP3 GT OR ISZERO PUSH2 0xFE9 JUMPI PUSH2 0xFE8 PUSH2 0xF92 JUMP JUMPDEST JUMPDEST DUP1 PUSH1 0x40 MSTORE POP POP POP JUMP JUMPDEST PUSH1 0x0 PUSH2 0xFFC PUSH2 0xF2D JUMP JUMPDEST SWAP1 POP PUSH2 0x1008 DUP3 DUP3 PUSH2 0xFC1 JUMP JUMPDEST SWAP2 SWAP1 POP JUMP JUMPDEST PUSH1 0x0 PUSH8 0xFFFFFFFFFFFFFFFF DUP3 GT ISZERO PUSH2 0x1028 JUMPI PUSH2 0x1027 PUSH2 0xF92 JUMP JUMPDEST JUMPDEST PUSH2 0x1031 DUP3 PUSH2 0xF81 JUMP JUMPDEST SWAP1 POP PUSH1 0x20 DUP2 ADD SWAP1 POP SWAP2 SWAP1 POP JUMP JUMPDEST DUP3 DUP2 DUP4 CALLDATACOPY PUSH1 0x0 DUP4 DUP4 ADD MSTORE POP POP POP JUMP JUMPDEST PUSH1 0x0 PUSH2 0x1060 PUSH2 0x105B DUP5 PUSH2 0x100D JUMP JUMPDEST PUSH2 0xFF2 JUMP JUMPDEST SWAP1 POP DUP3 DUP2 MSTORE PUSH1 0x20 DUP2 ADD DUP5 DUP5 DUP5 ADD GT ISZERO PUSH2 0x107C JUMPI PUSH2 0x107B PUSH2 0xF7C JUMP JUMPDEST JUMPDEST PUSH2 0x1087 DUP5 DUP3 DUP6 PUSH2 0x103E JUMP JUMPDEST POP SWAP4 SWAP3 POP POP POP JUMP JUMPDEST PUSH1 0x0 DUP3 PUSH1 0x1F DUP4 ADD SLT PUSH2 0x10A4 JUMPI PUSH2 0x10A3 PUSH2 0xF77 JUMP JUMPDEST JUMPDEST DUP2 CALLDATALOAD PUSH2 0x10B4 DUP5 DUP3 PUSH1 0x20 DUP7 ADD PUSH2 0x104D JUMP JUMPDEST SWAP2 POP POP SWAP3 SWAP2 POP POP JUMP JUMPDEST PUSH1 0x0 DUP1 PUSH1 0x0 DUP1 PUSH1 0x0 DUP1 PUSH1 0xC0 DUP8 DUP10 SUB SLT ISZERO PUSH2 0x10DA JUMPI PUSH2 0x10D9 PUSH2 0xF37 JUMP JUMPDEST JUMPDEST PUSH1 0x0 PUSH2 0x10E8 DUP10 DUP3 DUP11 ADD PUSH2 0xF62 JUMP JUMPDEST SWAP7 POP POP PUSH1 0x20 DUP8 ADD CALLDATALOAD PUSH8 0xFFFFFFFFFFFFFFFF DUP2 GT ISZERO PUSH2 0x1109 JUMPI PUSH2 0x1108 PUSH2 0xF3C JUMP JUMPDEST JUMPDEST PUSH2 0x1115 DUP10 DUP3 DUP11 ADD PUSH2 0x108F JUMP JUMPDEST SWAP6 POP POP PUSH1 0x40 DUP8 ADD CALLDATALOAD PUSH8 0xFFFFFFFFFFFFFFFF DUP2 GT ISZERO PUSH2 0x1136 JUMPI PUSH2 0x1135 PUSH2 0xF3C JUMP JUMPDEST JUMPDEST PUSH2 0x1142 DUP10 DUP3 DUP11 ADD PUSH2 0x108F JUMP JUMPDEST SWAP5 POP POP PUSH1 0x60 PUSH2 0x1153 DUP10 DUP3 DUP11 ADD PUSH2 0xF62 JUMP JUMPDEST SWAP4 POP POP PUSH1 0x80 DUP8 ADD CALLDATALOAD PUSH8 0xFFFFFFFFFFFFFFFF DUP2 GT ISZERO PUSH2 0x1174 JUMPI PUSH2 0x1173 PUSH2 0xF3C JUMP JUMPDEST JUMPDEST PUSH2 0x1180 DUP10 DUP3 DUP11 ADD PUSH2 0x108F JUMP JUMPDEST SWAP3 POP POP PUSH1 0xA0 PUSH2 0x1191 DUP10 DUP3 DUP11 ADD PUSH2 0xF62 JUMP JUMPDEST SWAP2 POP POP SWAP3 SWAP6 POP SWAP3 SWAP6 POP SWAP3 SWAP6 JUMP JUMPDEST PUSH1 0x0 PUSH1 0x20 DUP3 DUP5 SUB SLT ISZERO PUSH2 0x11B4 JUMPI PUSH2 0x11B3 PUSH2 0xF37 JUMP JUMPDEST JUMPDEST PUSH1 0x0 PUSH2 0x11C2 DUP5 DUP3 DUP6 ADD PUSH2 0xF62 JUMP JUMPDEST SWAP2 POP POP SWAP3 SWAP2 POP POP JUMP JUMPDEST PUSH1 0x0 DUP2 MLOAD SWAP1 POP SWAP2 SWAP1 POP JUMP JUMPDEST PUSH1 0x0 DUP3 DUP3 MSTORE PUSH1 0x20 DUP3 ADD SWAP1 POP SWAP3 SWAP2 POP POP JUMP JUMPDEST PUSH1 0x0 JUMPDEST DUP4 DUP2 LT ISZERO PUSH2 0x1205 JUMPI DUP1 DUP3 ADD MLOAD DUP2 DUP5 ADD MSTORE PUSH1 0x20 DUP2 ADD SWAP1 POP PUSH2 0x11EA JUMP JUMPDEST PUSH1 0x0 DUP5 DUP5 ADD MSTORE POP POP POP POP JUMP JUMPDEST PUSH1 0x0 PUSH2 0x121C DUP3 PUSH2 0x11CB JUMP JUMPDEST PUSH2 0x1226 DUP2 DUP6 PUSH2 0x11D6 JUMP JUMPDEST SWAP4 POP PUSH2 0x1236 DUP2 DUP6 PUSH1 0x20 DUP7 ADD PUSH2 0x11E7 JUMP JUMPDEST PUSH2 0x123F DUP2 PUSH2 0xF81 JUMP JUMPDEST DUP5 ADD SWAP2 POP POP SWAP3 SWAP2 POP POP JUMP JUMPDEST PUSH2 0x1253 DUP2 PUSH2 0xF41 JUMP JUMPDEST DUP3 MSTORE POP POP JUMP JUMPDEST PUSH1 0x0 PUSH1 0xA0 DUP3 ADD SWAP1 POP DUP2 DUP2 SUB PUSH1 0x0 DUP4 ADD MSTORE PUSH2 0x1273 DUP2 DUP9 PUSH2 0x1211 JUMP JUMPDEST SWAP1 POP DUP2 DUP2 SUB PUSH1 0x20 DUP4 ADD MSTORE PUSH2 0x1287 DUP2 DUP8 PUSH2 0x1211 JUMP JUMPDEST SWAP1 POP PUSH2 0x1296 PUSH1 0x40 DUP4 ADD DUP7 PUSH2 0x124A JUMP JUMPDEST DUP2 DUP2 SUB PUSH1 0x60 DUP4 ADD MSTORE PUSH2 0x12A8 DUP2 DUP6 PUSH2 0x1211 JUMP JUMPDEST SWAP1 POP PUSH2 0x12B7 PUSH1 0x80 DUP4 ADD DUP5 PUSH2 0x124A JUMP JUMPDEST SWAP7 SWAP6 POP POP POP POP POP POP JUMP JUMPDEST PUSH1 0x0 PUSH1 0xC0 DUP3 ADD SWAP1 POP PUSH2 0x12D6 PUSH1 0x0 DUP4 ADD DUP10 PUSH2 0x124A JUMP JUMPDEST DUP2 DUP2 SUB PUSH1 0x20 DUP4 ADD MSTORE PUSH2 0x12E8 DUP2 DUP9 PUSH2 0x1211 JUMP JUMPDEST SWAP1 POP DUP2 DUP2 SUB PUSH1 0x40 DUP4 ADD MSTORE PUSH2 0x12FC DUP2 DUP8 PUSH2 0x1211 JUMP JUMPDEST SWAP1 POP PUSH2 0x130B PUSH1 0x60 DUP4 ADD DUP7 PUSH2 0x124A JUMP JUMPDEST DUP2 DUP2 SUB PUSH1 0x80 DUP4 ADD MSTORE PUSH2 0x131D DUP2 DUP6 PUSH2 0x1211 JUMP JUMPDEST SWAP1 POP PUSH2 0x132C PUSH1 0xA0 DUP4 ADD DUP5 PUSH2 0x124A JUMP JUMPDEST SWAP8 SWAP7 POP POP POP POP POP POP POP JUMP JUMPDEST PUSH1 0x0 PUSH20 0xFFFFFFFFFFFFFFFFFFFFFFFFFFFFFFFFFFFFFFFF DUP3 AND SWAP1 POP SWAP2 SWAP1 POP JUMP JUMPDEST PUSH1 0x0 PUSH2 0x1362 DUP3 PUSH2 0x1337 JUMP JUMPDEST SWAP1 POP SWAP2 SWAP1 POP JUMP JUMPDEST PUSH2 0x1372 DUP2 PUSH2 0x1357 JUMP JUMPDEST DUP3 MSTORE POP POP JUMP JUMPDEST PUSH1 0x0 PUSH1 0x20 DUP3 ADD SWAP1 POP PUSH2 0x138D PUSH1 0x0 DUP4 ADD DUP5 PUSH2 0x1369 JUMP JUMPDEST SWAP3 SWAP2 POP POP JUMP JUMPDEST PUSH1 0x0 DUP1 PUSH1 0x40 DUP4 DUP6 SUB SLT ISZERO PUSH2 0x13AA JUMPI PUSH2 0x13A9 PUSH2 0xF37 JUMP JUMPDEST JUMPDEST PUSH1 0x0 PUSH2 0x13B8 DUP6 DUP3 DUP7 ADD PUSH2 0xF62 JUMP JUMPDEST SWAP3 POP POP PUSH1 0x20 PUSH2 0x13C9 DUP6 DUP3 DUP7 ADD PUSH2 0xF62 JUMP JUMPDEST SWAP2 POP POP SWAP3 POP SWAP3 SWAP1 POP JUMP JUMPDEST PUSH1 0x0 PUSH1 0x20 DUP3 ADD SWAP1 POP PUSH2 0x13E8 PUSH1 0x0 DUP4 ADD DUP5 PUSH2 0x124A JUMP JUMPDEST SWAP3 SWAP2 POP POP JUMP JUMPDEST PUSH1 0x0 DUP1 PUSH1 0x0 DUP1 PUSH1 0x0 PUSH1 0xA0 DUP7 DUP9 SUB SLT ISZERO PUSH2 0x140A JUMPI PUSH2 0x1409 PUSH2 0xF37 JUMP JUMPDEST JUMPDEST PUSH1 0x0 DUP7 ADD CALLDATALOAD PUSH8 0xFFFFFFFFFFFFFFFF DUP2 GT ISZERO PUSH2 0x1428 JUMPI PUSH2 0x1427 PUSH2 0xF3C JUMP JUMPDEST JUMPDEST PUSH2 0x1434 DUP9 DUP3 DUP10 ADD PUSH2 0x108F JUMP JUMPDEST SWAP6 POP POP PUSH1 0x20 DUP7 ADD CALLDATALOAD PUSH8 0xFFFFFFFFFFFFFFFF DUP2 GT ISZERO PUSH2 0x1455 JUMPI PUSH2 0x1454 PUSH2 0xF3C JUMP JUMPDEST JUMPDEST PUSH2 0x1461 DUP9 DUP3 DUP10 ADD PUSH2 0x108F JUMP JUMPDEST SWAP5 POP POP PUSH1 0x40 PUSH2 0x1472 DUP9 DUP3 DUP10 ADD PUSH2 0xF62 JUMP JUMPDEST SWAP4 POP POP PUSH1 0x60 DUP7 ADD CALLDATALOAD PUSH8 0xFFFFFFFFFFFFFFFF DUP2 GT ISZERO PUSH2 0x1493 JUMPI PUSH2 0x1492 PUSH2 0xF3C JUMP JUMPDEST JUMPDEST PUSH2 0x149F DUP9 DUP3 DUP10 ADD PUSH2 0x108F JUMP JUMPDEST SWAP3 POP POP PUSH1 0x80 PUSH2 0x14B0 DUP9 DUP3 DUP10 ADD PUSH2 0xF62 JUMP JUMPDEST SWAP2 POP POP SWAP3 SWAP6 POP SWAP3 SWAP6 SWAP1 SWAP4 POP JUMP JUMPDEST PUSH32 0x4E487B7100000000000000000000000000000000000000000000000000000000 PUSH1 0x0 MSTORE PUSH1 0x22 PUSH1 0x4 MSTORE PUSH1 0x24 PUSH1 0x0 REVERT JUMPDEST PUSH1 0x0 PUSH1 0x2 DUP3 DIV SWAP1 POP PUSH1 0x1 DUP3 AND DUP1 PUSH2 0x1504 JUMPI PUSH1 0x7F DUP3 AND SWAP2 POP JUMPDEST PUSH1 0x20 DUP3 LT DUP2 SUB PUSH2 0x1517 JUMPI PUSH2 0x1516 PUSH2 0x14BD JUMP JUMPDEST JUMPDEST POP SWAP2 SWAP1 POP JUMP JUMPDEST PUSH1 0x0 DUP2 SWAP1 POP DUP2 PUSH1 0x0 MSTORE PUSH1 0x20 PUSH1 0x0 KECCAK256 SWAP1 POP SWAP2 SWAP1 POP JUMP JUMPDEST PUSH1 0x0 PUSH1 0x20 PUSH1 0x1F DUP4 ADD DIV SWAP1 POP SWAP2 SWAP1 POP JUMP JUMPDEST PUSH1 0x0 DUP3 DUP3 SHL SWAP1 POP SWAP3 SWAP2 POP POP JUMP JUMPDEST PUSH1 0x0 PUSH1 0x8 DUP4 MUL PUSH2 0x157F PUSH32 0xFFFFFFFFFFFFFFFFFFFFFFFFFFFFFFFFFFFFFFFFFFFFFFFFFFFFFFFFFFFFFFFF DUP3 PUSH2 0x1542 JUMP JUMPDEST PUSH2 0x1589 DUP7 DUP4 PUSH2 0x1542 JUMP JUMPDEST SWAP6 POP DUP1 NOT DUP5 AND SWAP4 POP DUP1 DUP7 AND DUP5 OR SWAP3 POP POP POP SWAP4 SWAP3 POP POP POP JUMP JUMPDEST PUSH1 0x0 DUP2 SWAP1 POP SWAP2 SWAP1 POP JUMP JUMPDEST PUSH1 0x0 PUSH2 0x15C6 PUSH2 0x15C1 PUSH2 0x15BC DUP5 PUSH2 0xF41 JUMP JUMPDEST PUSH2 0x15A1 JUMP JUMPDEST PUSH2 0xF41 JUMP JUMPDEST SWAP1 POP SWAP2 SWAP1 POP JUMP JUMPDEST PUSH1 0x0 DUP2 SWAP1 POP SWAP2 SWAP1 POP JUMP JUMPDEST PUSH2 0x15E0 DUP4 PUSH2 0x15AB JUMP JUMPDEST PUSH2 0x15F4 PUSH2 0x15EC DUP3 PUSH2 0x15CD JUMP JUMPDEST DUP5 DUP5 SLOAD PUSH2 0x154F JUMP JUMPDEST DUP3 SSTORE POP POP POP POP JUMP JUMPDEST PUSH1 0x0 SWAP1 JUMP JUMPDEST PUSH2 0x1609 PUSH2 0x15FC JUMP JUMPDEST PUSH2 0x1614 DUP2 DUP5 DUP5 PUSH2 0x15D7 JUMP JUMPDEST POP POP POP JUMP JUMPDEST JUMPDEST DUP2 DUP2 LT ISZERO PUSH2 0x1638 JUMPI PUSH2 0x162D PUSH1 0x0 DUP3 PUSH2 0x1601 JUMP JUMPDEST PUSH1 0x1 DUP2 ADD SWAP1 POP PUSH2 0x161A JUMP JUMPDEST POP POP JUMP JUMPDEST PUSH1 0x1F DUP3 GT ISZERO PUSH2 0x167D JUMPI PUSH2 0x164E DUP2 PUSH2 0x151D JUMP JUMPDEST PUSH2 0x1657 DUP5 PUSH2 0x1532 JUMP JUMPDEST DUP2 ADD PUSH1 0x20 DUP6 LT ISZERO PUSH2 0x1666 JUMPI DUP2 SWAP1 POP JUMPDEST PUSH2 0x167A PUSH2 0x1672 DUP6 PUSH2 0x1532 JUMP JUMPDEST DUP4 ADD DUP3 PUSH2 0x1619 JUMP JUMPDEST POP POP JUMPDEST POP POP POP JUMP JUMPDEST PUSH1 0x0 DUP3 DUP3 SHR SWAP1 POP SWAP3 SWAP2 POP POP JUMP JUMPDEST PUSH1 0x0 PUSH2 0x16A0 PUSH1 0x0 NOT DUP5 PUSH1 0x8 MUL PUSH2 0x1682 JUMP JUMPDEST NOT DUP1 DUP4 AND SWAP2 POP POP SWAP3 SWAP2 POP POP JUMP JUMPDEST PUSH1 0x0 PUSH2 0x16B9 DUP4 DUP4 PUSH2 0x168F JUMP JUMPDEST SWAP2 POP DUP3 PUSH1 0x2 MUL DUP3 OR SWAP1 POP SWAP3 SWAP2 POP POP JUMP JUMPDEST PUSH2 0x16D2 DUP3 PUSH2 0x11CB JUMP JUMPDEST PUSH8 0xFFFFFFFFFFFFFFFF DUP2 GT ISZERO PUSH2 0x16EB JUMPI PUSH2 0x16EA PUSH2 0xF92 JUMP JUMPDEST JUMPDEST PUSH2 0x16F5 DUP3 SLOAD PUSH2 0x14EC JUMP JUMPDEST PUSH2 0x1700 DUP3 DUP3 DUP6 PUSH2 0x163C JUMP JUMPDEST PUSH1 0x0 PUSH1 0x20 SWAP1 POP PUSH1 0x1F DUP4 GT PUSH1 0x1 DUP2 EQ PUSH2 0x1733 JUMPI PUSH1 0x0 DUP5 ISZERO PUSH2 0x1721 JUMPI DUP3 DUP8 ADD MLOAD SWAP1 POP JUMPDEST PUSH2 0x172B DUP6 DUP3 PUSH2 0x16AD JUMP JUMPDEST DUP7 SSTORE POP PUSH2 0x1793 JUMP JUMPDEST PUSH1 0x1F NOT DUP5 AND PUSH2 0x1741 DUP7 PUSH2 0x151D JUMP JUMPDEST PUSH1 0x0 JUMPDEST DUP3 DUP2 LT ISZERO PUSH2 0x1769 JUMPI DUP5 DUP10 ADD MLOAD DUP3 SSTORE PUSH1 0x1 DUP3 ADD SWAP2 POP PUSH1 0x20 DUP6 ADD SWAP5 POP PUSH1 0x20 DUP2 ADD SWAP1 POP PUSH2 0x1744 JUMP JUMPDEST DUP7 DUP4 LT ISZERO PUSH2 0x1786 JUMPI DUP5 DUP10 ADD MLOAD PUSH2 0x1782 PUSH1 0x1F DUP10 AND DUP3 PUSH2 0x168F JUMP JUMPDEST DUP4 SSTORE POP JUMPDEST PUSH1 0x1 PUSH1 0x2 DUP9 MUL ADD DUP9 SSTORE POP POP POP JUMPDEST POP POP POP POP POP POP JUMP JUMPDEST PUSH32 0x496E76616C69642070726F647563742049440000000000000000000000000000 PUSH1 0x0 DUP3 ADD MSTORE POP JUMP JUMPDEST PUSH1 0x0 PUSH2 0x17D1 PUSH1 0x12 DUP4 PUSH2 0x11D6 JUMP JUMPDEST SWAP2 POP PUSH2 0x17DC DUP3 PUSH2 0x179B JUMP JUMPDEST PUSH1 0x20 DUP3 ADD SWAP1 POP SWAP2 SWAP1 POP JUMP JUMPDEST PUSH1 0x0 PUSH1 0x20 DUP3 ADD SWAP1 POP DUP2 DUP2 SUB PUSH1 0x0 DUP4 ADD MSTORE PUSH2 0x1800 DUP2 PUSH2 0x17C4 JUMP JUMPDEST SWAP1 POP SWAP2 SWAP1 POP JUMP JUMPDEST PUSH32 0x4E6F7420656E6F7567682073746F636B20617661696C61626C65000000000000 PUSH1 0x0 DUP3 ADD MSTORE POP JUMP JUMPDEST PUSH1 0x0 PUSH2 0x183D PUSH1 0x1A DUP4 PUSH2 0x11D6 JUMP JUMPDEST SWAP2 POP PUSH2 0x1848 DUP3 PUSH2 0x1807 JUMP JUMPDEST PUSH1 0x20 DUP3 ADD SWAP1 POP SWAP2 SWAP1 POP JUMP JUMPDEST PUSH1 0x0 PUSH1 0x20 DUP3 ADD SWAP1 POP DUP2 DUP2 SUB PUSH1 0x0 DUP4 ADD MSTORE PUSH2 0x186C DUP2 PUSH2 0x1830 JUMP JUMPDEST SWAP1 POP SWAP2 SWAP1 POP JUMP JUMPDEST PUSH32 0x4E487B7100000000000000000000000000000000000000000000000000000000 PUSH1 0x0 MSTORE PUSH1 0x11 PUSH1 0x4 MSTORE PUSH1 0x24 PUSH1 0x0 REVERT JUMPDEST PUSH1 0x0 PUSH2 0x18AD DUP3 PUSH2 0xF41 JUMP JUMPDEST SWAP2 POP PUSH2 0x18B8 DUP4 PUSH2 0xF41 JUMP JUMPDEST SWAP3 POP DUP3 DUP3 MUL PUSH2 0x18C6 DUP2 PUSH2 0xF41 JUMP JUMPDEST SWAP2 POP DUP3 DUP3 DIV DUP5 EQ DUP4 ISZERO OR PUSH2 0x18DD JUMPI PUSH2 0x18DC PUSH2 0x1873 JUMP JUMPDEST JUMPDEST POP SWAP3 SWAP2 POP POP JUMP JUMPDEST PUSH32 0x496E636F7272656374207061796D656E7420616D6F756E740000000000000000 PUSH1 0x0 DUP3 ADD MSTORE POP JUMP JUMPDEST PUSH1 0x0 PUSH2 0x191A PUSH1 0x18 DUP4 PUSH2 0x11D6 JUMP JUMPDEST SWAP2 POP PUSH2 0x1925 DUP3 PUSH2 0x18E4 JUMP JUMPDEST PUSH1 0x20 DUP3 ADD SWAP1 POP SWAP2 SWAP1 POP JUMP JUMPDEST PUSH1 0x0 PUSH1 0x20 DUP3 ADD SWAP1 POP DUP2 DUP2 SUB PUSH1 0x0 DUP4 ADD MSTORE PUSH2 0x1949 DUP2 PUSH2 0x190D JUMP JUMPDEST SWAP1 POP SWAP2 SWAP1 POP JUMP JUMPDEST PUSH1 0x0 PUSH2 0x195B DUP3 PUSH2 0xF41 JUMP JUMPDEST SWAP2 POP PUSH2 0x1966 DUP4 PUSH2 0xF41 JUMP JUMPDEST SWAP3 POP DUP3 DUP3 SUB SWAP1 POP DUP2 DUP2 GT ISZERO PUSH2 0x197E JUMPI PUSH2 0x197D PUSH2 0x1873 JUMP JUMPDEST JUMPDEST SWAP3 SWAP2 POP POP JUMP JUMPDEST PUSH1 0x0 DUP2 SLOAD PUSH2 0x1991 DUP2 PUSH2 0x14EC JUMP JUMPDEST PUSH2 0x199B DUP2 DUP7 PUSH2 0x11D6 JUMP JUMPDEST SWAP5 POP PUSH1 0x1 DUP3 AND PUSH1 0x0 DUP2 EQ PUSH2 0x19B6 JUMPI PUSH1 0x1 DUP2 EQ PUSH2 0x19CC JUMPI PUSH2 0x19FF JUMP JUMPDEST PUSH1 0xFF NOT DUP4 AND DUP7 MSTORE DUP2 ISZERO ISZERO PUSH1 0x20 MUL DUP7 ADD SWAP4 POP PUSH2 0x19FF JUMP JUMPDEST PUSH2 0x19D5 DUP6 PUSH2 0x151D JUMP JUMPDEST PUSH1 0x0 JUMPDEST DUP4 DUP2 LT ISZERO PUSH2 0x19F7 JUMPI DUP2 SLOAD DUP2 DUP10 ADD MSTORE PUSH1 0x1 DUP3 ADD SWAP2 POP PUSH1 0x20 DUP2 ADD SWAP1 POP PUSH2 0x19D8 JUMP JUMPDEST DUP1 DUP9 ADD SWAP6 POP POP POP JUMPDEST POP POP POP SWAP3 SWAP2 POP POP JUMP JUMPDEST PUSH1 0x0 PUSH1 0xA0 DUP3 ADD SWAP1 POP PUSH2 0x1A1D PUSH1 0x0 DUP4 ADD DUP9 PUSH2 0x124A JUMP JUMPDEST DUP2 DUP2 SUB PUSH1 0x20 DUP4 ADD MSTORE PUSH2 0x1A2F DUP2 DUP8 PUSH2 0x1984 JUMP JUMPDEST SWAP1 POP PUSH2 0x1A3E PUSH1 0x40 DUP4 ADD DUP7 PUSH2 0x124A JUMP JUMPDEST PUSH2 0x1A4B PUSH1 0x60 DUP4 ADD DUP6 PUSH2 0x124A JUMP JUMPDEST PUSH2 0x1A58 PUSH1 0x80 DUP4 ADD DUP5 PUSH2 0x1369 JUMP JUMPDEST SWAP7 SWAP6 POP POP POP POP POP POP JUMP JUMPDEST PUSH32 0x50726F64756374206E616D652063616E6E6F7420626520656D70747900000000 PUSH1 0x0 DUP3 ADD MSTORE POP JUMP JUMPDEST PUSH1 0x0 PUSH2 0x1A98 PUSH1 0x1C DUP4 PUSH2 0x11D6 JUMP JUMPDEST SWAP2 POP PUSH2 0x1AA3 DUP3 PUSH2 0x1A62 JUMP JUMPDEST PUSH1 0x20 DUP3 ADD SWAP1 POP SWAP2 SWAP1 POP JUMP JUMPDEST PUSH1 0x0 PUSH1 0x20 DUP3 ADD SWAP1 POP DUP2 DUP2 SUB PUSH1 0x0 DUP4 ADD MSTORE PUSH2 0x1AC7 DUP2 PUSH2 0x1A8B JUMP JUMPDEST SWAP1 POP SWAP2 SWAP1 POP JUMP JUMPDEST PUSH32 0x50726F64756374206465736372697074696F6E2063616E6E6F7420626520656D PUSH1 0x0 DUP3 ADD MSTORE PUSH32 0x7074790000000000000000000000000000000000000000000000000000000000 PUSH1 0x20 DUP3 ADD MSTORE POP JUMP JUMPDEST PUSH1 0x0 PUSH2 0x1B2A PUSH1 0x23 DUP4 PUSH2 0x11D6 JUMP JUMPDEST SWAP2 POP PUSH2 0x1B35 DUP3 PUSH2 0x1ACE JUMP JUMPDEST PUSH1 0x40 DUP3 ADD SWAP1 POP SWAP2 SWAP1 POP JUMP JUMPDEST PUSH1 0x0 PUSH1 0x20 DUP3 ADD SWAP1 POP DUP2 DUP2 SUB PUSH1 0x0 DUP4 ADD MSTORE PUSH2 0x1B59 DUP2 PUSH2 0x1B1D JUMP JUMPDEST SWAP1 POP SWAP2 SWAP1 POP JUMP JUMPDEST PUSH32 0x50726F647563742073746F636B206D7573742062652067726561746572207468 PUSH1 0x0 DUP3 ADD MSTORE PUSH32 0x616E203000000000000000000000000000000000000000000000000000000000 PUSH1 0x20 DUP3 ADD MSTORE POP JUMP JUMPDEST PUSH1 0x0 PUSH2 0x1BBC PUSH1 0x24 DUP4 PUSH2 0x11D6 JUMP JUMPDEST SWAP2 POP PUSH2 0x1BC7 DUP3 PUSH2 0x1B60 JUMP JUMPDEST PUSH1 0x40 DUP3 ADD SWAP1 POP SWAP2 SWAP1 POP JUMP JUMPDEST PUSH1 0x0 PUSH1 0x20 DUP3 ADD SWAP1 POP DUP2 DUP2 SUB PUSH1 0x0 DUP4 ADD MSTORE PUSH2 0x1BEB DUP2 PUSH2 0x1BAF JUMP JUMPDEST SWAP1 POP SWAP2 SWAP1 POP JUMP JUMPDEST PUSH32 0x50726F647563742065787069726174696F6E20646174652063616E6E6F742062 PUSH1 0x0 DUP3 ADD MSTORE PUSH32 0x6520656D70747900000000000000000000000000000000000000000000000000 PUSH1 0x20 DUP3 ADD MSTORE POP JUMP JUMPDEST PUSH1 0x0 PUSH2 0x1C4E PUSH1 0x27 DUP4 PUSH2 0x11D6 JUMP JUMPDEST SWAP2 POP PUSH2 0x1C59 DUP3 PUSH2 0x1BF2 JUMP JUMPDEST PUSH1 0x40 DUP3 ADD SWAP1 POP SWAP2 SWAP1 POP JUMP JUMPDEST PUSH1 0x0 PUSH1 0x20 DUP3 ADD SWAP1 POP DUP2 DUP2 SUB PUSH1 0x0 DUP4 ADD MSTORE PUSH2 0x1C7D DUP2 PUSH2 0x1C41 JUMP JUMPDEST SWAP1 POP SWAP2 SWAP1 POP JUMP JUMPDEST PUSH32 0x50726F647563742070726963652063616E6E6F74206265206E65676174697665 PUSH1 0x0 DUP3 ADD MSTORE POP JUMP JUMPDEST PUSH1 0x0 PUSH2 0x1CBA PUSH1 0x20 DUP4 PUSH2 0x11D6 JUMP JUMPDEST SWAP2 POP PUSH2 0x1CC5 DUP3 PUSH2 0x1C84 JUMP JUMPDEST PUSH1 0x20 DUP3 ADD SWAP1 POP SWAP2 SWAP1 POP JUMP JUMPDEST PUSH1 0x0 PUSH1 0x20 DUP3 ADD SWAP1 POP DUP2 DUP2 SUB PUSH1 0x0 DUP4 ADD MSTORE PUSH2 0x1CE9 DUP2 PUSH2 0x1CAD JUMP JUMPDEST SWAP1 POP SWAP2 SWAP1 POP JUMP JUMPDEST PUSH1 0x0 PUSH2 0x1CFB DUP3 PUSH2 0xF41 JUMP JUMPDEST SWAP2 POP PUSH32 0xFFFFFFFFFFFFFFFFFFFFFFFFFFFFFFFFFFFFFFFFFFFFFFFFFFFFFFFFFFFFFFFF DUP3 SUB PUSH2 0x1D2D JUMPI PUSH2 0x1D2C PUSH2 0x1873 JUMP JUMPDEST JUMPDEST PUSH1 0x1 DUP3 ADD SWAP1 POP SWAP2 SWAP1 POP JUMP JUMPDEST PUSH1 0x0 PUSH1 0xE0 DUP3 ADD SWAP1 POP PUSH2 0x1D4D PUSH1 0x0 DUP4 ADD DUP11 PUSH2 0x124A JUMP JUMPDEST DUP2 DUP2 SUB PUSH1 0x20 DUP4 ADD MSTORE PUSH2 0x1D5F DUP2 DUP10 PUSH2 0x1211 JUMP JUMPDEST SWAP1 POP DUP2 DUP2 SUB PUSH1 0x40 DUP4 ADD MSTORE PUSH2 0x1D73 DUP2 DUP9 PUSH2 0x1211 JUMP JUMPDEST SWAP1 POP PUSH2 0x1D82 PUSH1 0x60 DUP4 ADD DUP8 PUSH2 0x124A JUMP JUMPDEST DUP2 DUP2 SUB PUSH1 0x80 DUP4 ADD MSTORE PUSH2 0x1D94 DUP2 DUP7 PUSH2 0x1211 JUMP JUMPDEST SWAP1 POP PUSH2 0x1DA3 PUSH1 0xA0 DUP4 ADD DUP6 PUSH2 0x124A JUMP JUMPDEST PUSH2 0x1DB0 PUSH1 0xC0 DUP4 ADD DUP5 PUSH2 0x1369 JUMP JUMPDEST SWAP9 SWAP8 POP POP POP POP POP POP POP POP JUMP JUMPDEST PUSH32 0x4E6F206861792073746F636B20646973706F6E69626C65207061726120657374 PUSH1 0x0 DUP3 ADD MSTORE PUSH32 0x652070726F647563746F00000000000000000000000000000000000000000000 PUSH1 0x20 DUP3 ADD MSTORE POP JUMP JUMPDEST PUSH1 0x0 PUSH2 0x1E18 PUSH1 0x2A DUP4 PUSH2 0x11D6 JUMP JUMPDEST SWAP2 POP PUSH2 0x1E23 DUP3 PUSH2 0x1DBC JUMP JUMPDEST PUSH1 0x40 DUP3 ADD SWAP1 POP SWAP2 SWAP1 POP JUMP JUMPDEST PUSH1 0x0 PUSH1 0x20 DUP3 ADD SWAP1 POP DUP2 DUP2 SUB PUSH1 0x0 DUP4 ADD MSTORE PUSH2 0x1E47 DUP2 PUSH2 0x1E0B JUMP JUMPDEST SWAP1 POP SWAP2 SWAP1 POP JUMP JUMPDEST PUSH1 0x0 PUSH2 0x1E59 DUP3 PUSH2 0xF41 JUMP JUMPDEST SWAP2 POP PUSH1 0x0 DUP3 SUB PUSH2 0x1E6C JUMPI PUSH2 0x1E6B PUSH2 0x1873 JUMP JUMPDEST JUMPDEST PUSH1 0x1 DUP3 SUB SWAP1 POP SWAP2 SWAP1 POP JUMP JUMPDEST PUSH1 0x0 PUSH1 0xA0 DUP3 ADD SWAP1 POP DUP2 DUP2 SUB PUSH1 0x0 DUP4 ADD MSTORE PUSH2 0x1E91 DUP2 DUP9 PUSH2 0x1984 JUMP JUMPDEST SWAP1 POP DUP2 DUP2 SUB PUSH1 0x20 DUP4 ADD MSTORE PUSH2 0x1EA5 DUP2 DUP8 PUSH2 0x1984 JUMP JUMPDEST SWAP1 POP PUSH2 0x1EB4 PUSH1 0x40 DUP4 ADD DUP7 PUSH2 0x124A JUMP JUMPDEST DUP2 DUP2 SUB PUSH1 0x60 DUP4 ADD MSTORE PUSH2 0x1EC6 DUP2 DUP6 PUSH2 0x1984 JUMP JUMPDEST SWAP1 POP PUSH2 0x1ED5 PUSH1 0x80 DUP4 ADD DUP5 PUSH2 0x124A JUMP JUMPDEST SWAP7 SWAP6 POP POP POP POP POP POP JUMP INVALID LOG2 PUSH5 0x6970667358 0x22 SLT KECCAK256 DUP9 0x22 EXP LOG2 0x26 DUP1 0xDE 0x5D 0xEF 0xEB 0xED 0xCD 0xAD 0x2F 0xF9 DIV 0xC8 PUSH8 0xDD9FC80F4FE24EDC CODESIZE SWAP4 CALLDATACOPY 0xE 0xE9 PUSH15 0x64736F6C6343000812003300000000 "
				},
				"gasEstimates": {
					"creation": {
						"codeDepositCost": "1591400",
						"executionCost": "30946",
						"totalCost": "1622346"
					},
					"external": {
						"addProduct(string,string,uint256,string,uint256)": "infinite",
						"decrementarStock(uint256)": "infinite",
						"deleteProduct(uint256)": "infinite",
						"editProduct(uint256,string,string,uint256,string,uint256)": "infinite",
						"getProductDetails(uint256)": "infinite",
						"owner()": "2578",
						"productCount()": "2451",
						"products(uint256)": "infinite",
						"purchaseProduct(uint256,uint256)": "infinite"
					}
				},
				"methodIdentifiers": {
					"addProduct(string,string,uint256,string,uint256)": "e324eb43",
					"decrementarStock(uint256)": "ff466595",
					"deleteProduct(uint256)": "ed90c7b7",
					"editProduct(uint256,string,string,uint256,string,uint256)": "56641d73",
					"getProductDetails(uint256)": "6813b53b",
					"owner()": "8da5cb5b",
					"productCount()": "e0f6ef87",
					"products(uint256)": "7acc0b20",
					"purchaseProduct(uint256,uint256)": "a0440426"
				}
			},
			"storageLayout": {
				"storage": [
					{
						"astId": 3,
						"contract": "contracts/agregarInvetarioPOS.sol:Productos",
						"label": "owner",
						"offset": 0,
						"slot": "0",
						"type": "t_address"
					},
					{
						"astId": 5,
						"contract": "contracts/agregarInvetarioPOS.sol:Productos",
						"label": "productCount",
						"offset": 0,
						"slot": "1",
						"type": "t_uint256"
					},
					{
						"astId": 23,
						"contract": "contracts/agregarInvetarioPOS.sol:Productos",
						"label": "products",
						"offset": 0,
						"slot": "2",
						"type": "t_mapping(t_uint256,t_struct(Product)18_storage)"
					}
				],
				"types": {
					"t_address": {
						"encoding": "inplace",
						"label": "address",
						"numberOfBytes": "20"
					},
					"t_mapping(t_uint256,t_struct(Product)18_storage)": {
						"encoding": "mapping",
						"key": "t_uint256",
						"label": "mapping(uint256 => struct Productos.Product)",
						"numberOfBytes": "32",
						"value": "t_struct(Product)18_storage"
					},
					"t_string_storage": {
						"encoding": "bytes",
						"label": "string",
						"numberOfBytes": "32"
					},
					"t_struct(Product)18_storage": {
						"encoding": "inplace",
						"label": "struct Productos.Product",
						"members": [
							{
								"astId": 7,
								"contract": "contracts/agregarInvetarioPOS.sol:Productos",
								"label": "id",
								"offset": 0,
								"slot": "0",
								"type": "t_uint256"
							},
							{
								"astId": 9,
								"contract": "contracts/agregarInvetarioPOS.sol:Productos",
								"label": "name",
								"offset": 0,
								"slot": "1",
								"type": "t_string_storage"
							},
							{
								"astId": 11,
								"contract": "contracts/agregarInvetarioPOS.sol:Productos",
								"label": "description",
								"offset": 0,
								"slot": "2",
								"type": "t_string_storage"
							},
							{
								"astId": 13,
								"contract": "contracts/agregarInvetarioPOS.sol:Productos",
								"label": "stock",
								"offset": 0,
								"slot": "3",
								"type": "t_uint256"
							},
							{
								"astId": 15,
								"contract": "contracts/agregarInvetarioPOS.sol:Productos",
								"label": "expirationDate",
								"offset": 0,
								"slot": "4",
								"type": "t_string_storage"
							},
							{
								"astId": 17,
								"contract": "contracts/agregarInvetarioPOS.sol:Productos",
								"label": "price",
								"offset": 0,
								"slot": "5",
								"type": "t_uint256"
							}
						],
						"numberOfBytes": "192"
					},
					"t_uint256": {
						"encoding": "inplace",
						"label": "uint256",
						"numberOfBytes": "32"
					}
				}
			},
			"userdoc": {
				"kind": "user",
				"methods": {},
				"version": 1
			}
		}
	}
}