{
	"contracts/credencialesUsuarios.sol": {
		"TaskContract": {
			"abi": [
				{
					"anonymous": false,
					"inputs": [
						{
							"indexed": false,
							"internalType": "uint256",
							"name": "_id",
							"type": "uint256"
						},
						{
							"indexed": false,
							"internalType": "bool",
							"name": "estado",
							"type": "bool"
						}
					],
					"name": "CambioDeMiTarea",
					"type": "event"
				},
				{
					"anonymous": false,
					"inputs": [
						{
							"indexed": false,
							"internalType": "uint256",
							"name": "id",
							"type": "uint256"
						},
						{
							"indexed": false,
							"internalType": "string",
							"name": "title",
							"type": "string"
						},
						{
							"indexed": false,
							"internalType": "string",
							"name": "description",
							"type": "string"
						},
						{
							"indexed": false,
							"internalType": "bool",
							"name": "done",
							"type": "bool"
						},
						{
							"indexed": false,
							"internalType": "uint256",
							"name": "creatAt",
							"type": "uint256"
						}
					],
					"name": "TaskCreated",
					"type": "event"
				},
				{
					"inputs": [
						{
							"internalType": "uint256",
							"name": "_id",
							"type": "uint256"
						}
					],
					"name": "cambioEstado",
					"outputs": [],
					"stateMutability": "nonpayable",
					"type": "function"
				},
				{
					"inputs": [
						{
							"internalType": "string",
							"name": "_title",
							"type": "string"
						},
						{
							"internalType": "string",
							"name": "_description",
							"type": "string"
						}
					],
					"name": "createTask",
					"outputs": [],
					"stateMutability": "nonpayable",
					"type": "function"
				},
				{
					"inputs": [],
					"name": "taskCounter",
					"outputs": [
						{
							"internalType": "uint256",
							"name": "",
							"type": "uint256"
						}
					],
					"stateMutability": "view",
					"type": "function"
				},
				{
					"inputs": [
						{
							"internalType": "uint256",
							"name": "",
							"type": "uint256"
						}
					],
					"name": "tasks",
					"outputs": [
						{
							"internalType": "uint256",
							"name": "id",
							"type": "uint256"
						},
						{
							"internalType": "string",
							"name": "title",
							"type": "string"
						},
						{
							"internalType": "string",
							"name": "description",
							"type": "string"
						},
						{
							"internalType": "bool",
							"name": "done",
							"type": "bool"
						},
						{
							"internalType": "uint256",
							"name": "creatAt",
							"type": "uint256"
						}
					],
					"stateMutability": "view",
					"type": "function"
				}
			],
			"devdoc": {
				"kind": "dev",
				"methods": {},
				"version": 1
			},
			"evm": {
				"assembly": "    /* \"contracts/credencialesUsuarios.sol\":61:1142  contract TaskContract{... */\n  mstore(0x40, 0x80)\n    /* \"contracts/credencialesUsuarios.sol\":148:149  0 */\n  0x00\n    /* \"contracts/credencialesUsuarios.sol\":122:149  uint public taskCounter = 0 */\n  dup1\n  sstore\n    /* \"contracts/credencialesUsuarios.sol\":61:1142  contract TaskContract{... */\n  callvalue\n  dup1\n  iszero\n  tag_1\n  jumpi\n  0x00\n  dup1\n  revert\ntag_1:\n  pop\n  dataSize(sub_0)\n  dup1\n  dataOffset(sub_0)\n  0x00\n  codecopy\n  0x00\n  return\nstop\n\nsub_0: assembly {\n        /* \"contracts/credencialesUsuarios.sol\":61:1142  contract TaskContract{... */\n      mstore(0x40, 0x80)\n      callvalue\n      dup1\n      iszero\n      tag_1\n      jumpi\n      0x00\n      dup1\n      revert\n    tag_1:\n      pop\n      jumpi(tag_2, lt(calldatasize, 0x04))\n      shr(0xe0, calldataload(0x00))\n      dup1\n      0x292a4585\n      eq\n      tag_3\n      jumpi\n      dup1\n      0x58671730\n      eq\n      tag_4\n      jumpi\n      dup1\n      0x8d977672\n      eq\n      tag_5\n      jumpi\n      dup1\n      0xa49eefa0\n      eq\n      tag_6\n      jumpi\n    tag_2:\n      0x00\n      dup1\n      revert\n        /* \"contracts/credencialesUsuarios.sol\":573:869  function createTask(string memory _title, string memory _description) public {... */\n    tag_3:\n      tag_7\n      0x04\n      dup1\n      calldatasize\n      sub\n      dup2\n      add\n      swap1\n      tag_8\n      swap2\n      swap1\n      tag_9\n      jump\t// in\n    tag_8:\n      tag_10\n      jump\t// in\n    tag_7:\n      stop\n        /* \"contracts/credencialesUsuarios.sol\":122:149  uint public taskCounter = 0 */\n    tag_4:\n      tag_11\n      tag_12\n      jump\t// in\n    tag_11:\n      mload(0x40)\n      tag_13\n      swap2\n      swap1\n      tag_14\n      jump\t// in\n    tag_13:\n      mload(0x40)\n      dup1\n      swap2\n      sub\n      swap1\n      return\n        /* \"contracts/credencialesUsuarios.sol\":524:564  mapping ( uint256 => Task ) public tasks */\n    tag_5:\n      tag_15\n      0x04\n      dup1\n      calldatasize\n      sub\n      dup2\n      add\n      swap1\n      tag_16\n      swap2\n      swap1\n      tag_17\n      jump\t// in\n    tag_16:\n      tag_18\n      jump\t// in\n    tag_15:\n      mload(0x40)\n      tag_19\n      swap6\n      swap5\n      swap4\n      swap3\n      swap2\n      swap1\n      tag_20\n      jump\t// in\n    tag_19:\n      mload(0x40)\n      dup1\n      swap2\n      sub\n      swap1\n      return\n        /* \"contracts/credencialesUsuarios.sol\":877:1139  function cambioEstado(uint _id) public {... */\n    tag_6:\n      tag_21\n      0x04\n      dup1\n      calldatasize\n      sub\n      dup2\n      add\n      swap1\n      tag_22\n      swap2\n      swap1\n      tag_17\n      jump\t// in\n    tag_22:\n      tag_23\n      jump\t// in\n    tag_21:\n      stop\n        /* \"contracts/credencialesUsuarios.sol\":573:869  function createTask(string memory _title, string memory _description) public {... */\n    tag_10:\n        /* \"contracts/credencialesUsuarios.sol\":663:674  taskCounter */\n      0x00\n      dup1\n        /* \"contracts/credencialesUsuarios.sol\":663:676  taskCounter++ */\n      dup2\n      sload\n      dup1\n      swap3\n      swap2\n      swap1\n      tag_25\n      swap1\n      tag_26\n      jump\t// in\n    tag_25:\n      swap2\n      swap1\n      pop\n      sstore\n      pop\n        /* \"contracts/credencialesUsuarios.sol\":708:771  Task(taskCounter, _title, _description, false, block.timestamp) */\n      mload(0x40)\n      dup1\n      0xa0\n      add\n      0x40\n      mstore\n      dup1\n        /* \"contracts/credencialesUsuarios.sol\":713:724  taskCounter */\n      sload(0x00)\n        /* \"contracts/credencialesUsuarios.sol\":708:771  Task(taskCounter, _title, _description, false, block.timestamp) */\n      dup2\n      mstore\n      0x20\n      add\n        /* \"contracts/credencialesUsuarios.sol\":726:732  _title */\n      dup4\n        /* \"contracts/credencialesUsuarios.sol\":708:771  Task(taskCounter, _title, _description, false, block.timestamp) */\n      dup2\n      mstore\n      0x20\n      add\n        /* \"contracts/credencialesUsuarios.sol\":734:746  _description */\n      dup3\n        /* \"contracts/credencialesUsuarios.sol\":708:771  Task(taskCounter, _title, _description, false, block.timestamp) */\n      dup2\n      mstore\n      0x20\n      add\n        /* \"contracts/credencialesUsuarios.sol\":748:753  false */\n      0x00\n        /* \"contracts/credencialesUsuarios.sol\":708:771  Task(taskCounter, _title, _description, false, block.timestamp) */\n      iszero\n      iszero\n      dup2\n      mstore\n      0x20\n      add\n        /* \"contracts/credencialesUsuarios.sol\":755:770  block.timestamp */\n      timestamp\n        /* \"contracts/credencialesUsuarios.sol\":708:771  Task(taskCounter, _title, _description, false, block.timestamp) */\n      dup2\n      mstore\n      pop\n        /* \"contracts/credencialesUsuarios.sol\":687:692  tasks */\n      0x01\n        /* \"contracts/credencialesUsuarios.sol\":687:705  tasks[taskCounter] */\n      0x00\n        /* \"contracts/credencialesUsuarios.sol\":693:704  taskCounter */\n      dup1\n      sload\n        /* \"contracts/credencialesUsuarios.sol\":687:705  tasks[taskCounter] */\n      dup2\n      mstore\n      0x20\n      add\n      swap1\n      dup2\n      mstore\n      0x20\n      add\n      0x00\n      keccak256\n        /* \"contracts/credencialesUsuarios.sol\":687:771  tasks[taskCounter] = Task(taskCounter, _title, _description, false, block.timestamp) */\n      0x00\n      dup3\n      add\n      mload\n      dup2\n      0x00\n      add\n      sstore\n      0x20\n      dup3\n      add\n      mload\n      dup2\n      0x01\n      add\n      swap1\n      dup2\n      tag_27\n      swap2\n      swap1\n      tag_28\n      jump\t// in\n    tag_27:\n      pop\n      0x40\n      dup3\n      add\n      mload\n      dup2\n      0x02\n      add\n      swap1\n      dup2\n      tag_29\n      swap2\n      swap1\n      tag_28\n      jump\t// in\n    tag_29:\n      pop\n      0x60\n      dup3\n      add\n      mload\n      dup2\n      0x03\n      add\n      exp(0x0100, 0x00)\n      dup2\n      sload\n      dup2\n      0xff\n      mul\n      not\n      and\n      swap1\n      dup4\n      iszero\n      iszero\n      mul\n      or\n      swap1\n      sstore\n      pop\n      0x80\n      dup3\n      add\n      mload\n      dup2\n      0x04\n      add\n      sstore\n      swap1\n      pop\n      pop\n        /* \"contracts/credencialesUsuarios.sol\":789:859  TaskCreated(taskCounter, _title, _description, false, block.timestamp) */\n      0x6549102bed7d1bb5ec529ee14e2ca60ffc1f47f66d4cc6ca713220613cc64c25\n        /* \"contracts/credencialesUsuarios.sol\":801:812  taskCounter */\n      sload(0x00)\n        /* \"contracts/credencialesUsuarios.sol\":814:820  _title */\n      dup4\n        /* \"contracts/credencialesUsuarios.sol\":822:834  _description */\n      dup4\n        /* \"contracts/credencialesUsuarios.sol\":836:841  false */\n      0x00\n        /* \"contracts/credencialesUsuarios.sol\":843:858  block.timestamp */\n      timestamp\n        /* \"contracts/credencialesUsuarios.sol\":789:859  TaskCreated(taskCounter, _title, _description, false, block.timestamp) */\n      mload(0x40)\n      tag_30\n      swap6\n      swap5\n      swap4\n      swap3\n      swap2\n      swap1\n      tag_20\n      jump\t// in\n    tag_30:\n      mload(0x40)\n      dup1\n      swap2\n      sub\n      swap1\n      log1\n        /* \"contracts/credencialesUsuarios.sol\":573:869  function createTask(string memory _title, string memory _description) public {... */\n      pop\n      pop\n      jump\t// out\n        /* \"contracts/credencialesUsuarios.sol\":122:149  uint public taskCounter = 0 */\n    tag_12:\n      sload(0x00)\n      dup2\n      jump\t// out\n        /* \"contracts/credencialesUsuarios.sol\":524:564  mapping ( uint256 => Task ) public tasks */\n    tag_18:\n      mstore(0x20, 0x01)\n      dup1\n      0x00\n      mstore\n      keccak256(0x00, 0x40)\n      0x00\n      swap2\n      pop\n      swap1\n      pop\n      dup1\n      0x00\n      add\n      sload\n      swap1\n      dup1\n      0x01\n      add\n      dup1\n      sload\n      tag_31\n      swap1\n      tag_32\n      jump\t// in\n    tag_31:\n      dup1\n      0x1f\n      add\n      0x20\n      dup1\n      swap2\n      div\n      mul\n      0x20\n      add\n      mload(0x40)\n      swap1\n      dup2\n      add\n      0x40\n      mstore\n      dup1\n      swap3\n      swap2\n      swap1\n      dup2\n      dup2\n      mstore\n      0x20\n      add\n      dup3\n      dup1\n      sload\n      tag_33\n      swap1\n      tag_32\n      jump\t// in\n    tag_33:\n      dup1\n      iszero\n      tag_34\n      jumpi\n      dup1\n      0x1f\n      lt\n      tag_35\n      jumpi\n      0x0100\n      dup1\n      dup4\n      sload\n      div\n      mul\n      dup4\n      mstore\n      swap2\n      0x20\n      add\n      swap2\n      jump(tag_34)\n    tag_35:\n      dup3\n      add\n      swap2\n      swap1\n      0x00\n      mstore\n      keccak256(0x00, 0x20)\n      swap1\n    tag_36:\n      dup2\n      sload\n      dup2\n      mstore\n      swap1\n      0x01\n      add\n      swap1\n      0x20\n      add\n      dup1\n      dup4\n      gt\n      tag_36\n      jumpi\n      dup3\n      swap1\n      sub\n      0x1f\n      and\n      dup3\n      add\n      swap2\n    tag_34:\n      pop\n      pop\n      pop\n      pop\n      pop\n      swap1\n      dup1\n      0x02\n      add\n      dup1\n      sload\n      tag_37\n      swap1\n      tag_32\n      jump\t// in\n    tag_37:\n      dup1\n      0x1f\n      add\n      0x20\n      dup1\n      swap2\n      div\n      mul\n      0x20\n      add\n      mload(0x40)\n      swap1\n      dup2\n      add\n      0x40\n      mstore\n      dup1\n      swap3\n      swap2\n      swap1\n      dup2\n      dup2\n      mstore\n      0x20\n      add\n      dup3\n      dup1\n      sload\n      tag_38\n      swap1\n      tag_32\n      jump\t// in\n    tag_38:\n      dup1\n      iszero\n      tag_39\n      jumpi\n      dup1\n      0x1f\n      lt\n      tag_40\n      jumpi\n      0x0100\n      dup1\n      dup4\n      sload\n      div\n      mul\n      dup4\n      mstore\n      swap2\n      0x20\n      add\n      swap2\n      jump(tag_39)\n    tag_40:\n      dup3\n      add\n      swap2\n      swap1\n      0x00\n      mstore\n      keccak256(0x00, 0x20)\n      swap1\n    tag_41:\n      dup2\n      sload\n      dup2\n      mstore\n      swap1\n      0x01\n      add\n      swap1\n      0x20\n      add\n      dup1\n      dup4\n      gt\n      tag_41\n      jumpi\n      dup3\n      swap1\n      sub\n      0x1f\n      and\n      dup3\n      add\n      swap2\n    tag_39:\n      pop\n      pop\n      pop\n      pop\n      pop\n      swap1\n      dup1\n      0x03\n      add\n      0x00\n      swap1\n      sload\n      swap1\n      0x0100\n      exp\n      swap1\n      div\n      0xff\n      and\n      swap1\n      dup1\n      0x04\n      add\n      sload\n      swap1\n      pop\n      dup6\n      jump\t// out\n        /* \"contracts/credencialesUsuarios.sol\":877:1139  function cambioEstado(uint _id) public {... */\n    tag_23:\n        /* \"contracts/credencialesUsuarios.sol\":929:946  Task memory _task */\n      0x00\n        /* \"contracts/credencialesUsuarios.sol\":949:954  tasks */\n      0x01\n        /* \"contracts/credencialesUsuarios.sol\":949:959  tasks[_id] */\n      0x00\n        /* \"contracts/credencialesUsuarios.sol\":955:958  _id */\n      dup4\n        /* \"contracts/credencialesUsuarios.sol\":949:959  tasks[_id] */\n      dup2\n      mstore\n      0x20\n      add\n      swap1\n      dup2\n      mstore\n      0x20\n      add\n      0x00\n      keccak256\n        /* \"contracts/credencialesUsuarios.sol\":929:959  Task memory _task = tasks[_id] */\n      mload(0x40)\n      dup1\n      0xa0\n      add\n      0x40\n      mstore\n      swap1\n      dup2\n      0x00\n      dup3\n      add\n      sload\n      dup2\n      mstore\n      0x20\n      add\n      0x01\n      dup3\n      add\n      dup1\n      sload\n      tag_43\n      swap1\n      tag_32\n      jump\t// in\n    tag_43:\n      dup1\n      0x1f\n      add\n      0x20\n      dup1\n      swap2\n      div\n      mul\n      0x20\n      add\n      mload(0x40)\n      swap1\n      dup2\n      add\n      0x40\n      mstore\n      dup1\n      swap3\n      swap2\n      swap1\n      dup2\n      dup2\n      mstore\n      0x20\n      add\n      dup3\n      dup1\n      sload\n      tag_44\n      swap1\n      tag_32\n      jump\t// in\n    tag_44:\n      dup1\n      iszero\n      tag_45\n      jumpi\n      dup1\n      0x1f\n      lt\n      tag_46\n      jumpi\n      0x0100\n      dup1\n      dup4\n      sload\n      div\n      mul\n      dup4\n      mstore\n      swap2\n      0x20\n      add\n      swap2\n      jump(tag_45)\n    tag_46:\n      dup3\n      add\n      swap2\n      swap1\n      0x00\n      mstore\n      keccak256(0x00, 0x20)\n      swap1\n    tag_47:\n      dup2\n      sload\n      dup2\n      mstore\n      swap1\n      0x01\n      add\n      swap1\n      0x20\n      add\n      dup1\n      dup4\n      gt\n      tag_47\n      jumpi\n      dup3\n      swap1\n      sub\n      0x1f\n      and\n      dup3\n      add\n      swap2\n    tag_45:\n      pop\n      pop\n      pop\n      pop\n      pop\n      dup2\n      mstore\n      0x20\n      add\n      0x02\n      dup3\n      add\n      dup1\n      sload\n      tag_48\n      swap1\n      tag_32\n      jump\t// in\n    tag_48:\n      dup1\n      0x1f\n      add\n      0x20\n      dup1\n      swap2\n      div\n      mul\n      0x20\n      add\n      mload(0x40)\n      swap1\n      dup2\n      add\n      0x40\n      mstore\n      dup1\n      swap3\n      swap2\n      swap1\n      dup2\n      dup2\n      mstore\n      0x20\n      add\n      dup3\n      dup1\n      sload\n      tag_49\n      swap1\n      tag_32\n      jump\t// in\n    tag_49:\n      dup1\n      iszero\n      tag_50\n      jumpi\n      dup1\n      0x1f\n      lt\n      tag_51\n      jumpi\n      0x0100\n      dup1\n      dup4\n      sload\n      div\n      mul\n      dup4\n      mstore\n      swap2\n      0x20\n      add\n      swap2\n      jump(tag_50)\n    tag_51:\n      dup3\n      add\n      swap2\n      swap1\n      0x00\n      mstore\n      keccak256(0x00, 0x20)\n      swap1\n    tag_52:\n      dup2\n      sload\n      dup2\n      mstore\n      swap1\n      0x01\n      add\n      swap1\n      0x20\n      add\n      dup1\n      dup4\n      gt\n      tag_52\n      jumpi\n      dup3\n      swap1\n      sub\n      0x1f\n      and\n      dup3\n      add\n      swap2\n    tag_50:\n      pop\n      pop\n      pop\n      pop\n      pop\n      dup2\n      mstore\n      0x20\n      add\n      0x03\n      dup3\n      add\n      0x00\n      swap1\n      sload\n      swap1\n      0x0100\n      exp\n      swap1\n      div\n      0xff\n      and\n      iszero\n      iszero\n      iszero\n      iszero\n      dup2\n      mstore\n      0x20\n      add\n      0x04\n      dup3\n      add\n      sload\n      dup2\n      mstore\n      pop\n      pop\n      swap1\n      pop\n        /* \"contracts/credencialesUsuarios.sol\":1002:1007  _task */\n      dup1\n        /* \"contracts/credencialesUsuarios.sol\":1002:1012  _task.done */\n      0x60\n      add\n      mload\n        /* \"contracts/credencialesUsuarios.sol\":1001:1012  !_task.done */\n      iszero\n        /* \"contracts/credencialesUsuarios.sol\":988:993  _task */\n      dup2\n        /* \"contracts/credencialesUsuarios.sol\":988:998  _task.done */\n      0x60\n      add\n        /* \"contracts/credencialesUsuarios.sol\":988:1012  _task.done = !_task.done */\n      swap1\n      iszero\n      iszero\n      swap1\n      dup2\n      iszero\n      iszero\n      dup2\n      mstore\n      pop\n      pop\n        /* \"contracts/credencialesUsuarios.sol\":1056:1061  _task */\n      dup1\n        /* \"contracts/credencialesUsuarios.sol\":1043:1048  tasks */\n      0x01\n        /* \"contracts/credencialesUsuarios.sol\":1043:1053  tasks[_id] */\n      0x00\n        /* \"contracts/credencialesUsuarios.sol\":1049:1052  _id */\n      dup5\n        /* \"contracts/credencialesUsuarios.sol\":1043:1053  tasks[_id] */\n      dup2\n      mstore\n      0x20\n      add\n      swap1\n      dup2\n      mstore\n      0x20\n      add\n      0x00\n      keccak256\n        /* \"contracts/credencialesUsuarios.sol\":1043:1061  tasks[_id] = _task */\n      0x00\n      dup3\n      add\n      mload\n      dup2\n      0x00\n      add\n      sstore\n      0x20\n      dup3\n      add\n      mload\n      dup2\n      0x01\n      add\n      swap1\n      dup2\n      tag_53\n      swap2\n      swap1\n      tag_28\n      jump\t// in\n    tag_53:\n      pop\n      0x40\n      dup3\n      add\n      mload\n      dup2\n      0x02\n      add\n      swap1\n      dup2\n      tag_54\n      swap2\n      swap1\n      tag_28\n      jump\t// in\n    tag_54:\n      pop\n      0x60\n      dup3\n      add\n      mload\n      dup2\n      0x03\n      add\n      exp(0x0100, 0x00)\n      dup2\n      sload\n      dup2\n      0xff\n      mul\n      not\n      and\n      swap1\n      dup4\n      iszero\n      iszero\n      mul\n      or\n      swap1\n      sstore\n      pop\n      0x80\n      dup3\n      add\n      mload\n      dup2\n      0x04\n      add\n      sstore\n      swap1\n      pop\n      pop\n        /* \"contracts/credencialesUsuarios.sol\":1099:1131  CambioDeMiTarea(_id, _task.done) */\n      0x54cf0d6dc9bb13ae254bd967765b3f04057bb2b7a01ca4207bd72e7f5f32c5cd\n        /* \"contracts/credencialesUsuarios.sol\":1115:1118  _id */\n      dup3\n        /* \"contracts/credencialesUsuarios.sol\":1120:1125  _task */\n      dup3\n        /* \"contracts/credencialesUsuarios.sol\":1120:1130  _task.done */\n      0x60\n      add\n      mload\n        /* \"contracts/credencialesUsuarios.sol\":1099:1131  CambioDeMiTarea(_id, _task.done) */\n      mload(0x40)\n      tag_55\n      swap3\n      swap2\n      swap1\n      tag_56\n      jump\t// in\n    tag_55:\n      mload(0x40)\n      dup1\n      swap2\n      sub\n      swap1\n      log1\n        /* \"contracts/credencialesUsuarios.sol\":916:1139  {... */\n      pop\n        /* \"contracts/credencialesUsuarios.sol\":877:1139  function cambioEstado(uint _id) public {... */\n      pop\n      jump\t// out\n        /* \"#utility.yul\":7:82   */\n    tag_57:\n        /* \"#utility.yul\":40:46   */\n      0x00\n        /* \"#utility.yul\":73:75   */\n      0x40\n        /* \"#utility.yul\":67:76   */\n      mload\n        /* \"#utility.yul\":57:76   */\n      swap1\n      pop\n        /* \"#utility.yul\":7:82   */\n      swap1\n      jump\t// out\n        /* \"#utility.yul\":88:205   */\n    tag_58:\n        /* \"#utility.yul\":197:198   */\n      0x00\n        /* \"#utility.yul\":194:195   */\n      dup1\n        /* \"#utility.yul\":187:199   */\n      revert\n        /* \"#utility.yul\":211:328   */\n    tag_59:\n        /* \"#utility.yul\":320:321   */\n      0x00\n        /* \"#utility.yul\":317:318   */\n      dup1\n        /* \"#utility.yul\":310:322   */\n      revert\n        /* \"#utility.yul\":334:451   */\n    tag_60:\n        /* \"#utility.yul\":443:444   */\n      0x00\n        /* \"#utility.yul\":440:441   */\n      dup1\n        /* \"#utility.yul\":433:445   */\n      revert\n        /* \"#utility.yul\":457:574   */\n    tag_61:\n        /* \"#utility.yul\":566:567   */\n      0x00\n        /* \"#utility.yul\":563:564   */\n      dup1\n        /* \"#utility.yul\":556:568   */\n      revert\n        /* \"#utility.yul\":580:682   */\n    tag_62:\n        /* \"#utility.yul\":621:627   */\n      0x00\n        /* \"#utility.yul\":672:674   */\n      0x1f\n        /* \"#utility.yul\":668:675   */\n      not\n        /* \"#utility.yul\":663:665   */\n      0x1f\n        /* \"#utility.yul\":656:661   */\n      dup4\n        /* \"#utility.yul\":652:666   */\n      add\n        /* \"#utility.yul\":648:676   */\n      and\n        /* \"#utility.yul\":638:676   */\n      swap1\n      pop\n        /* \"#utility.yul\":580:682   */\n      swap2\n      swap1\n      pop\n      jump\t// out\n        /* \"#utility.yul\":688:868   */\n    tag_63:\n        /* \"#utility.yul\":736:813   */\n      0x4e487b7100000000000000000000000000000000000000000000000000000000\n        /* \"#utility.yul\":733:734   */\n      0x00\n        /* \"#utility.yul\":726:814   */\n      mstore\n        /* \"#utility.yul\":833:837   */\n      0x41\n        /* \"#utility.yul\":830:831   */\n      0x04\n        /* \"#utility.yul\":823:838   */\n      mstore\n        /* \"#utility.yul\":857:861   */\n      0x24\n        /* \"#utility.yul\":854:855   */\n      0x00\n        /* \"#utility.yul\":847:862   */\n      revert\n        /* \"#utility.yul\":874:1155   */\n    tag_64:\n        /* \"#utility.yul\":957:984   */\n      tag_106\n        /* \"#utility.yul\":979:983   */\n      dup3\n        /* \"#utility.yul\":957:984   */\n      tag_62\n      jump\t// in\n    tag_106:\n        /* \"#utility.yul\":949:955   */\n      dup2\n        /* \"#utility.yul\":945:985   */\n      add\n        /* \"#utility.yul\":1087:1093   */\n      dup2\n        /* \"#utility.yul\":1075:1085   */\n      dup2\n        /* \"#utility.yul\":1072:1094   */\n      lt\n        /* \"#utility.yul\":1051:1069   */\n      0xffffffffffffffff\n        /* \"#utility.yul\":1039:1049   */\n      dup3\n        /* \"#utility.yul\":1036:1070   */\n      gt\n        /* \"#utility.yul\":1033:1095   */\n      or\n        /* \"#utility.yul\":1030:1118   */\n      iszero\n      tag_107\n      jumpi\n        /* \"#utility.yul\":1098:1116   */\n      tag_108\n      tag_63\n      jump\t// in\n    tag_108:\n        /* \"#utility.yul\":1030:1118   */\n    tag_107:\n        /* \"#utility.yul\":1138:1148   */\n      dup1\n        /* \"#utility.yul\":1134:1136   */\n      0x40\n        /* \"#utility.yul\":1127:1149   */\n      mstore\n        /* \"#utility.yul\":917:1155   */\n      pop\n        /* \"#utility.yul\":874:1155   */\n      pop\n      pop\n      jump\t// out\n        /* \"#utility.yul\":1161:1290   */\n    tag_65:\n        /* \"#utility.yul\":1195:1201   */\n      0x00\n        /* \"#utility.yul\":1222:1242   */\n      tag_110\n      tag_57\n      jump\t// in\n    tag_110:\n        /* \"#utility.yul\":1212:1242   */\n      swap1\n      pop\n        /* \"#utility.yul\":1251:1284   */\n      tag_111\n        /* \"#utility.yul\":1279:1283   */\n      dup3\n        /* \"#utility.yul\":1271:1277   */\n      dup3\n        /* \"#utility.yul\":1251:1284   */\n      tag_64\n      jump\t// in\n    tag_111:\n        /* \"#utility.yul\":1161:1290   */\n      swap2\n      swap1\n      pop\n      jump\t// out\n        /* \"#utility.yul\":1296:1604   */\n    tag_66:\n        /* \"#utility.yul\":1358:1362   */\n      0x00\n        /* \"#utility.yul\":1448:1466   */\n      0xffffffffffffffff\n        /* \"#utility.yul\":1440:1446   */\n      dup3\n        /* \"#utility.yul\":1437:1467   */\n      gt\n        /* \"#utility.yul\":1434:1490   */\n      iszero\n      tag_113\n      jumpi\n        /* \"#utility.yul\":1470:1488   */\n      tag_114\n      tag_63\n      jump\t// in\n    tag_114:\n        /* \"#utility.yul\":1434:1490   */\n    tag_113:\n        /* \"#utility.yul\":1508:1537   */\n      tag_115\n        /* \"#utility.yul\":1530:1536   */\n      dup3\n        /* \"#utility.yul\":1508:1537   */\n      tag_62\n      jump\t// in\n    tag_115:\n        /* \"#utility.yul\":1500:1537   */\n      swap1\n      pop\n        /* \"#utility.yul\":1592:1596   */\n      0x20\n        /* \"#utility.yul\":1586:1590   */\n      dup2\n        /* \"#utility.yul\":1582:1597   */\n      add\n        /* \"#utility.yul\":1574:1597   */\n      swap1\n      pop\n        /* \"#utility.yul\":1296:1604   */\n      swap2\n      swap1\n      pop\n      jump\t// out\n        /* \"#utility.yul\":1610:1756   */\n    tag_67:\n        /* \"#utility.yul\":1707:1713   */\n      dup3\n        /* \"#utility.yul\":1702:1705   */\n      dup2\n        /* \"#utility.yul\":1697:1700   */\n      dup4\n        /* \"#utility.yul\":1684:1714   */\n      calldatacopy\n        /* \"#utility.yul\":1748:1749   */\n      0x00\n        /* \"#utility.yul\":1739:1745   */\n      dup4\n        /* \"#utility.yul\":1734:1737   */\n      dup4\n        /* \"#utility.yul\":1730:1746   */\n      add\n        /* \"#utility.yul\":1723:1750   */\n      mstore\n        /* \"#utility.yul\":1610:1756   */\n      pop\n      pop\n      pop\n      jump\t// out\n        /* \"#utility.yul\":1762:2187   */\n    tag_68:\n        /* \"#utility.yul\":1840:1845   */\n      0x00\n        /* \"#utility.yul\":1865:1931   */\n      tag_118\n        /* \"#utility.yul\":1881:1930   */\n      tag_119\n        /* \"#utility.yul\":1923:1929   */\n      dup5\n        /* \"#utility.yul\":1881:1930   */\n      tag_66\n      jump\t// in\n    tag_119:\n        /* \"#utility.yul\":1865:1931   */\n      tag_65\n      jump\t// in\n    tag_118:\n        /* \"#utility.yul\":1856:1931   */\n      swap1\n      pop\n        /* \"#utility.yul\":1954:1960   */\n      dup3\n        /* \"#utility.yul\":1947:1952   */\n      dup2\n        /* \"#utility.yul\":1940:1961   */\n      mstore\n        /* \"#utility.yul\":1992:1996   */\n      0x20\n        /* \"#utility.yul\":1985:1990   */\n      dup2\n        /* \"#utility.yul\":1981:1997   */\n      add\n        /* \"#utility.yul\":2030:2033   */\n      dup5\n        /* \"#utility.yul\":2021:2027   */\n      dup5\n        /* \"#utility.yul\":2016:2019   */\n      dup5\n        /* \"#utility.yul\":2012:2028   */\n      add\n        /* \"#utility.yul\":2009:2034   */\n      gt\n        /* \"#utility.yul\":2006:2118   */\n      iszero\n      tag_120\n      jumpi\n        /* \"#utility.yul\":2037:2116   */\n      tag_121\n      tag_61\n      jump\t// in\n    tag_121:\n        /* \"#utility.yul\":2006:2118   */\n    tag_120:\n        /* \"#utility.yul\":2127:2181   */\n      tag_122\n        /* \"#utility.yul\":2174:2180   */\n      dup5\n        /* \"#utility.yul\":2169:2172   */\n      dup3\n        /* \"#utility.yul\":2164:2167   */\n      dup6\n        /* \"#utility.yul\":2127:2181   */\n      tag_67\n      jump\t// in\n    tag_122:\n        /* \"#utility.yul\":1846:2187   */\n      pop\n        /* \"#utility.yul\":1762:2187   */\n      swap4\n      swap3\n      pop\n      pop\n      pop\n      jump\t// out\n        /* \"#utility.yul\":2207:2547   */\n    tag_69:\n        /* \"#utility.yul\":2263:2268   */\n      0x00\n        /* \"#utility.yul\":2312:2315   */\n      dup3\n        /* \"#utility.yul\":2305:2309   */\n      0x1f\n        /* \"#utility.yul\":2297:2303   */\n      dup4\n        /* \"#utility.yul\":2293:2310   */\n      add\n        /* \"#utility.yul\":2289:2316   */\n      slt\n        /* \"#utility.yul\":2279:2401   */\n      tag_124\n      jumpi\n        /* \"#utility.yul\":2320:2399   */\n      tag_125\n      tag_60\n      jump\t// in\n    tag_125:\n        /* \"#utility.yul\":2279:2401   */\n    tag_124:\n        /* \"#utility.yul\":2437:2443   */\n      dup2\n        /* \"#utility.yul\":2424:2444   */\n      calldataload\n        /* \"#utility.yul\":2462:2541   */\n      tag_126\n        /* \"#utility.yul\":2537:2540   */\n      dup5\n        /* \"#utility.yul\":2529:2535   */\n      dup3\n        /* \"#utility.yul\":2522:2526   */\n      0x20\n        /* \"#utility.yul\":2514:2520   */\n      dup7\n        /* \"#utility.yul\":2510:2527   */\n      add\n        /* \"#utility.yul\":2462:2541   */\n      tag_68\n      jump\t// in\n    tag_126:\n        /* \"#utility.yul\":2453:2541   */\n      swap2\n      pop\n        /* \"#utility.yul\":2269:2547   */\n      pop\n        /* \"#utility.yul\":2207:2547   */\n      swap3\n      swap2\n      pop\n      pop\n      jump\t// out\n        /* \"#utility.yul\":2553:3387   */\n    tag_9:\n        /* \"#utility.yul\":2641:2647   */\n      0x00\n        /* \"#utility.yul\":2649:2655   */\n      dup1\n        /* \"#utility.yul\":2698:2700   */\n      0x40\n        /* \"#utility.yul\":2686:2695   */\n      dup4\n        /* \"#utility.yul\":2677:2684   */\n      dup6\n        /* \"#utility.yul\":2673:2696   */\n      sub\n        /* \"#utility.yul\":2669:2701   */\n      slt\n        /* \"#utility.yul\":2666:2785   */\n      iszero\n      tag_128\n      jumpi\n        /* \"#utility.yul\":2704:2783   */\n      tag_129\n      tag_58\n      jump\t// in\n    tag_129:\n        /* \"#utility.yul\":2666:2785   */\n    tag_128:\n        /* \"#utility.yul\":2852:2853   */\n      0x00\n        /* \"#utility.yul\":2841:2850   */\n      dup4\n        /* \"#utility.yul\":2837:2854   */\n      add\n        /* \"#utility.yul\":2824:2855   */\n      calldataload\n        /* \"#utility.yul\":2882:2900   */\n      0xffffffffffffffff\n        /* \"#utility.yul\":2874:2880   */\n      dup2\n        /* \"#utility.yul\":2871:2901   */\n      gt\n        /* \"#utility.yul\":2868:2985   */\n      iszero\n      tag_130\n      jumpi\n        /* \"#utility.yul\":2904:2983   */\n      tag_131\n      tag_59\n      jump\t// in\n    tag_131:\n        /* \"#utility.yul\":2868:2985   */\n    tag_130:\n        /* \"#utility.yul\":3009:3072   */\n      tag_132\n        /* \"#utility.yul\":3064:3071   */\n      dup6\n        /* \"#utility.yul\":3055:3061   */\n      dup3\n        /* \"#utility.yul\":3044:3053   */\n      dup7\n        /* \"#utility.yul\":3040:3062   */\n      add\n        /* \"#utility.yul\":3009:3072   */\n      tag_69\n      jump\t// in\n    tag_132:\n        /* \"#utility.yul\":2999:3072   */\n      swap3\n      pop\n        /* \"#utility.yul\":2795:3082   */\n      pop\n        /* \"#utility.yul\":3149:3151   */\n      0x20\n        /* \"#utility.yul\":3138:3147   */\n      dup4\n        /* \"#utility.yul\":3134:3152   */\n      add\n        /* \"#utility.yul\":3121:3153   */\n      calldataload\n        /* \"#utility.yul\":3180:3198   */\n      0xffffffffffffffff\n        /* \"#utility.yul\":3172:3178   */\n      dup2\n        /* \"#utility.yul\":3169:3199   */\n      gt\n        /* \"#utility.yul\":3166:3283   */\n      iszero\n      tag_133\n      jumpi\n        /* \"#utility.yul\":3202:3281   */\n      tag_134\n      tag_59\n      jump\t// in\n    tag_134:\n        /* \"#utility.yul\":3166:3283   */\n    tag_133:\n        /* \"#utility.yul\":3307:3370   */\n      tag_135\n        /* \"#utility.yul\":3362:3369   */\n      dup6\n        /* \"#utility.yul\":3353:3359   */\n      dup3\n        /* \"#utility.yul\":3342:3351   */\n      dup7\n        /* \"#utility.yul\":3338:3360   */\n      add\n        /* \"#utility.yul\":3307:3370   */\n      tag_69\n      jump\t// in\n    tag_135:\n        /* \"#utility.yul\":3297:3370   */\n      swap2\n      pop\n        /* \"#utility.yul\":3092:3380   */\n      pop\n        /* \"#utility.yul\":2553:3387   */\n      swap3\n      pop\n      swap3\n      swap1\n      pop\n      jump\t// out\n        /* \"#utility.yul\":3393:3470   */\n    tag_70:\n        /* \"#utility.yul\":3430:3437   */\n      0x00\n        /* \"#utility.yul\":3459:3464   */\n      dup2\n        /* \"#utility.yul\":3448:3464   */\n      swap1\n      pop\n        /* \"#utility.yul\":3393:3470   */\n      swap2\n      swap1\n      pop\n      jump\t// out\n        /* \"#utility.yul\":3476:3594   */\n    tag_71:\n        /* \"#utility.yul\":3563:3587   */\n      tag_138\n        /* \"#utility.yul\":3581:3586   */\n      dup2\n        /* \"#utility.yul\":3563:3587   */\n      tag_70\n      jump\t// in\n    tag_138:\n        /* \"#utility.yul\":3558:3561   */\n      dup3\n        /* \"#utility.yul\":3551:3588   */\n      mstore\n        /* \"#utility.yul\":3476:3594   */\n      pop\n      pop\n      jump\t// out\n        /* \"#utility.yul\":3600:3822   */\n    tag_14:\n        /* \"#utility.yul\":3693:3697   */\n      0x00\n        /* \"#utility.yul\":3731:3733   */\n      0x20\n        /* \"#utility.yul\":3720:3729   */\n      dup3\n        /* \"#utility.yul\":3716:3734   */\n      add\n        /* \"#utility.yul\":3708:3734   */\n      swap1\n      pop\n        /* \"#utility.yul\":3744:3815   */\n      tag_140\n        /* \"#utility.yul\":3812:3813   */\n      0x00\n        /* \"#utility.yul\":3801:3810   */\n      dup4\n        /* \"#utility.yul\":3797:3814   */\n      add\n        /* \"#utility.yul\":3788:3794   */\n      dup5\n        /* \"#utility.yul\":3744:3815   */\n      tag_71\n      jump\t// in\n    tag_140:\n        /* \"#utility.yul\":3600:3822   */\n      swap3\n      swap2\n      pop\n      pop\n      jump\t// out\n        /* \"#utility.yul\":3828:3950   */\n    tag_72:\n        /* \"#utility.yul\":3901:3925   */\n      tag_142\n        /* \"#utility.yul\":3919:3924   */\n      dup2\n        /* \"#utility.yul\":3901:3925   */\n      tag_70\n      jump\t// in\n    tag_142:\n        /* \"#utility.yul\":3894:3899   */\n      dup2\n        /* \"#utility.yul\":3891:3926   */\n      eq\n        /* \"#utility.yul\":3881:3944   */\n      tag_143\n      jumpi\n        /* \"#utility.yul\":3940:3941   */\n      0x00\n        /* \"#utility.yul\":3937:3938   */\n      dup1\n        /* \"#utility.yul\":3930:3942   */\n      revert\n        /* \"#utility.yul\":3881:3944   */\n    tag_143:\n        /* \"#utility.yul\":3828:3950   */\n      pop\n      jump\t// out\n        /* \"#utility.yul\":3956:4095   */\n    tag_73:\n        /* \"#utility.yul\":4002:4007   */\n      0x00\n        /* \"#utility.yul\":4040:4046   */\n      dup2\n        /* \"#utility.yul\":4027:4047   */\n      calldataload\n        /* \"#utility.yul\":4018:4047   */\n      swap1\n      pop\n        /* \"#utility.yul\":4056:4089   */\n      tag_145\n        /* \"#utility.yul\":4083:4088   */\n      dup2\n        /* \"#utility.yul\":4056:4089   */\n      tag_72\n      jump\t// in\n    tag_145:\n        /* \"#utility.yul\":3956:4095   */\n      swap3\n      swap2\n      pop\n      pop\n      jump\t// out\n        /* \"#utility.yul\":4101:4430   */\n    tag_17:\n        /* \"#utility.yul\":4160:4166   */\n      0x00\n        /* \"#utility.yul\":4209:4211   */\n      0x20\n        /* \"#utility.yul\":4197:4206   */\n      dup3\n        /* \"#utility.yul\":4188:4195   */\n      dup5\n        /* \"#utility.yul\":4184:4207   */\n      sub\n        /* \"#utility.yul\":4180:4212   */\n      slt\n        /* \"#utility.yul\":4177:4296   */\n      iszero\n      tag_147\n      jumpi\n        /* \"#utility.yul\":4215:4294   */\n      tag_148\n      tag_58\n      jump\t// in\n    tag_148:\n        /* \"#utility.yul\":4177:4296   */\n    tag_147:\n        /* \"#utility.yul\":4335:4336   */\n      0x00\n        /* \"#utility.yul\":4360:4413   */\n      tag_149\n        /* \"#utility.yul\":4405:4412   */\n      dup5\n        /* \"#utility.yul\":4396:4402   */\n      dup3\n        /* \"#utility.yul\":4385:4394   */\n      dup6\n        /* \"#utility.yul\":4381:4403   */\n      add\n        /* \"#utility.yul\":4360:4413   */\n      tag_73\n      jump\t// in\n    tag_149:\n        /* \"#utility.yul\":4350:4413   */\n      swap2\n      pop\n        /* \"#utility.yul\":4306:4423   */\n      pop\n        /* \"#utility.yul\":4101:4430   */\n      swap3\n      swap2\n      pop\n      pop\n      jump\t// out\n        /* \"#utility.yul\":4436:4535   */\n    tag_74:\n        /* \"#utility.yul\":4488:4494   */\n      0x00\n        /* \"#utility.yul\":4522:4527   */\n      dup2\n        /* \"#utility.yul\":4516:4528   */\n      mload\n        /* \"#utility.yul\":4506:4528   */\n      swap1\n      pop\n        /* \"#utility.yul\":4436:4535   */\n      swap2\n      swap1\n      pop\n      jump\t// out\n        /* \"#utility.yul\":4541:4710   */\n    tag_75:\n        /* \"#utility.yul\":4625:4636   */\n      0x00\n        /* \"#utility.yul\":4659:4665   */\n      dup3\n        /* \"#utility.yul\":4654:4657   */\n      dup3\n        /* \"#utility.yul\":4647:4666   */\n      mstore\n        /* \"#utility.yul\":4699:4703   */\n      0x20\n        /* \"#utility.yul\":4694:4697   */\n      dup3\n        /* \"#utility.yul\":4690:4704   */\n      add\n        /* \"#utility.yul\":4675:4704   */\n      swap1\n      pop\n        /* \"#utility.yul\":4541:4710   */\n      swap3\n      swap2\n      pop\n      pop\n      jump\t// out\n        /* \"#utility.yul\":4716:4962   */\n    tag_76:\n        /* \"#utility.yul\":4797:4798   */\n      0x00\n        /* \"#utility.yul\":4807:4920   */\n    tag_153:\n        /* \"#utility.yul\":4821:4827   */\n      dup4\n        /* \"#utility.yul\":4818:4819   */\n      dup2\n        /* \"#utility.yul\":4815:4828   */\n      lt\n        /* \"#utility.yul\":4807:4920   */\n      iszero\n      tag_155\n      jumpi\n        /* \"#utility.yul\":4906:4907   */\n      dup1\n        /* \"#utility.yul\":4901:4904   */\n      dup3\n        /* \"#utility.yul\":4897:4908   */\n      add\n        /* \"#utility.yul\":4891:4909   */\n      mload\n        /* \"#utility.yul\":4887:4888   */\n      dup2\n        /* \"#utility.yul\":4882:4885   */\n      dup5\n        /* \"#utility.yul\":4878:4889   */\n      add\n        /* \"#utility.yul\":4871:4910   */\n      mstore\n        /* \"#utility.yul\":4843:4845   */\n      0x20\n        /* \"#utility.yul\":4840:4841   */\n      dup2\n        /* \"#utility.yul\":4836:4846   */\n      add\n        /* \"#utility.yul\":4831:4846   */\n      swap1\n      pop\n        /* \"#utility.yul\":4807:4920   */\n      jump(tag_153)\n    tag_155:\n        /* \"#utility.yul\":4954:4955   */\n      0x00\n        /* \"#utility.yul\":4945:4951   */\n      dup5\n        /* \"#utility.yul\":4940:4943   */\n      dup5\n        /* \"#utility.yul\":4936:4952   */\n      add\n        /* \"#utility.yul\":4929:4956   */\n      mstore\n        /* \"#utility.yul\":4778:4962   */\n      pop\n        /* \"#utility.yul\":4716:4962   */\n      pop\n      pop\n      pop\n      jump\t// out\n        /* \"#utility.yul\":4968:5345   */\n    tag_77:\n        /* \"#utility.yul\":5056:5059   */\n      0x00\n        /* \"#utility.yul\":5084:5123   */\n      tag_157\n        /* \"#utility.yul\":5117:5122   */\n      dup3\n        /* \"#utility.yul\":5084:5123   */\n      tag_74\n      jump\t// in\n    tag_157:\n        /* \"#utility.yul\":5139:5210   */\n      tag_158\n        /* \"#utility.yul\":5203:5209   */\n      dup2\n        /* \"#utility.yul\":5198:5201   */\n      dup6\n        /* \"#utility.yul\":5139:5210   */\n      tag_75\n      jump\t// in\n    tag_158:\n        /* \"#utility.yul\":5132:5210   */\n      swap4\n      pop\n        /* \"#utility.yul\":5219:5284   */\n      tag_159\n        /* \"#utility.yul\":5277:5283   */\n      dup2\n        /* \"#utility.yul\":5272:5275   */\n      dup6\n        /* \"#utility.yul\":5265:5269   */\n      0x20\n        /* \"#utility.yul\":5258:5263   */\n      dup7\n        /* \"#utility.yul\":5254:5270   */\n      add\n        /* \"#utility.yul\":5219:5284   */\n      tag_76\n      jump\t// in\n    tag_159:\n        /* \"#utility.yul\":5309:5338   */\n      tag_160\n        /* \"#utility.yul\":5331:5337   */\n      dup2\n        /* \"#utility.yul\":5309:5338   */\n      tag_62\n      jump\t// in\n    tag_160:\n        /* \"#utility.yul\":5304:5307   */\n      dup5\n        /* \"#utility.yul\":5300:5339   */\n      add\n        /* \"#utility.yul\":5293:5339   */\n      swap2\n      pop\n        /* \"#utility.yul\":5060:5345   */\n      pop\n        /* \"#utility.yul\":4968:5345   */\n      swap3\n      swap2\n      pop\n      pop\n      jump\t// out\n        /* \"#utility.yul\":5351:5441   */\n    tag_78:\n        /* \"#utility.yul\":5385:5392   */\n      0x00\n        /* \"#utility.yul\":5428:5433   */\n      dup2\n        /* \"#utility.yul\":5421:5434   */\n      iszero\n        /* \"#utility.yul\":5414:5435   */\n      iszero\n        /* \"#utility.yul\":5403:5435   */\n      swap1\n      pop\n        /* \"#utility.yul\":5351:5441   */\n      swap2\n      swap1\n      pop\n      jump\t// out\n        /* \"#utility.yul\":5447:5556   */\n    tag_79:\n        /* \"#utility.yul\":5528:5549   */\n      tag_163\n        /* \"#utility.yul\":5543:5548   */\n      dup2\n        /* \"#utility.yul\":5528:5549   */\n      tag_78\n      jump\t// in\n    tag_163:\n        /* \"#utility.yul\":5523:5526   */\n      dup3\n        /* \"#utility.yul\":5516:5550   */\n      mstore\n        /* \"#utility.yul\":5447:5556   */\n      pop\n      pop\n      jump\t// out\n        /* \"#utility.yul\":5562:6396   */\n    tag_20:\n        /* \"#utility.yul\":5801:5805   */\n      0x00\n        /* \"#utility.yul\":5839:5842   */\n      0xa0\n        /* \"#utility.yul\":5828:5837   */\n      dup3\n        /* \"#utility.yul\":5824:5843   */\n      add\n        /* \"#utility.yul\":5816:5843   */\n      swap1\n      pop\n        /* \"#utility.yul\":5853:5924   */\n      tag_165\n        /* \"#utility.yul\":5921:5922   */\n      0x00\n        /* \"#utility.yul\":5910:5919   */\n      dup4\n        /* \"#utility.yul\":5906:5923   */\n      add\n        /* \"#utility.yul\":5897:5903   */\n      dup9\n        /* \"#utility.yul\":5853:5924   */\n      tag_71\n      jump\t// in\n    tag_165:\n        /* \"#utility.yul\":5971:5980   */\n      dup2\n        /* \"#utility.yul\":5965:5969   */\n      dup2\n        /* \"#utility.yul\":5961:5981   */\n      sub\n        /* \"#utility.yul\":5956:5958   */\n      0x20\n        /* \"#utility.yul\":5945:5954   */\n      dup4\n        /* \"#utility.yul\":5941:5959   */\n      add\n        /* \"#utility.yul\":5934:5982   */\n      mstore\n        /* \"#utility.yul\":5999:6077   */\n      tag_166\n        /* \"#utility.yul\":6072:6076   */\n      dup2\n        /* \"#utility.yul\":6063:6069   */\n      dup8\n        /* \"#utility.yul\":5999:6077   */\n      tag_77\n      jump\t// in\n    tag_166:\n        /* \"#utility.yul\":5991:6077   */\n      swap1\n      pop\n        /* \"#utility.yul\":6124:6133   */\n      dup2\n        /* \"#utility.yul\":6118:6122   */\n      dup2\n        /* \"#utility.yul\":6114:6134   */\n      sub\n        /* \"#utility.yul\":6109:6111   */\n      0x40\n        /* \"#utility.yul\":6098:6107   */\n      dup4\n        /* \"#utility.yul\":6094:6112   */\n      add\n        /* \"#utility.yul\":6087:6135   */\n      mstore\n        /* \"#utility.yul\":6152:6230   */\n      tag_167\n        /* \"#utility.yul\":6225:6229   */\n      dup2\n        /* \"#utility.yul\":6216:6222   */\n      dup7\n        /* \"#utility.yul\":6152:6230   */\n      tag_77\n      jump\t// in\n    tag_167:\n        /* \"#utility.yul\":6144:6230   */\n      swap1\n      pop\n        /* \"#utility.yul\":6240:6306   */\n      tag_168\n        /* \"#utility.yul\":6302:6304   */\n      0x60\n        /* \"#utility.yul\":6291:6300   */\n      dup4\n        /* \"#utility.yul\":6287:6305   */\n      add\n        /* \"#utility.yul\":6278:6284   */\n      dup6\n        /* \"#utility.yul\":6240:6306   */\n      tag_79\n      jump\t// in\n    tag_168:\n        /* \"#utility.yul\":6316:6389   */\n      tag_169\n        /* \"#utility.yul\":6384:6387   */\n      0x80\n        /* \"#utility.yul\":6373:6382   */\n      dup4\n        /* \"#utility.yul\":6369:6388   */\n      add\n        /* \"#utility.yul\":6360:6366   */\n      dup5\n        /* \"#utility.yul\":6316:6389   */\n      tag_71\n      jump\t// in\n    tag_169:\n        /* \"#utility.yul\":5562:6396   */\n      swap7\n      swap6\n      pop\n      pop\n      pop\n      pop\n      pop\n      pop\n      jump\t// out\n        /* \"#utility.yul\":6402:6582   */\n    tag_80:\n        /* \"#utility.yul\":6450:6527   */\n      0x4e487b7100000000000000000000000000000000000000000000000000000000\n        /* \"#utility.yul\":6447:6448   */\n      0x00\n        /* \"#utility.yul\":6440:6528   */\n      mstore\n        /* \"#utility.yul\":6547:6551   */\n      0x11\n        /* \"#utility.yul\":6544:6545   */\n      0x04\n        /* \"#utility.yul\":6537:6552   */\n      mstore\n        /* \"#utility.yul\":6571:6575   */\n      0x24\n        /* \"#utility.yul\":6568:6569   */\n      0x00\n        /* \"#utility.yul\":6561:6576   */\n      revert\n        /* \"#utility.yul\":6588:6821   */\n    tag_26:\n        /* \"#utility.yul\":6627:6630   */\n      0x00\n        /* \"#utility.yul\":6650:6674   */\n      tag_172\n        /* \"#utility.yul\":6668:6673   */\n      dup3\n        /* \"#utility.yul\":6650:6674   */\n      tag_70\n      jump\t// in\n    tag_172:\n        /* \"#utility.yul\":6641:6674   */\n      swap2\n      pop\n        /* \"#utility.yul\":6696:6762   */\n      0xffffffffffffffffffffffffffffffffffffffffffffffffffffffffffffffff\n        /* \"#utility.yul\":6689:6694   */\n      dup3\n        /* \"#utility.yul\":6686:6763   */\n      sub\n        /* \"#utility.yul\":6683:6786   */\n      tag_173\n      jumpi\n        /* \"#utility.yul\":6766:6784   */\n      tag_174\n      tag_80\n      jump\t// in\n    tag_174:\n        /* \"#utility.yul\":6683:6786   */\n    tag_173:\n        /* \"#utility.yul\":6813:6814   */\n      0x01\n        /* \"#utility.yul\":6806:6811   */\n      dup3\n        /* \"#utility.yul\":6802:6815   */\n      add\n        /* \"#utility.yul\":6795:6815   */\n      swap1\n      pop\n        /* \"#utility.yul\":6588:6821   */\n      swap2\n      swap1\n      pop\n      jump\t// out\n        /* \"#utility.yul\":6827:7007   */\n    tag_81:\n        /* \"#utility.yul\":6875:6952   */\n      0x4e487b7100000000000000000000000000000000000000000000000000000000\n        /* \"#utility.yul\":6872:6873   */\n      0x00\n        /* \"#utility.yul\":6865:6953   */\n      mstore\n        /* \"#utility.yul\":6972:6976   */\n      0x22\n        /* \"#utility.yul\":6969:6970   */\n      0x04\n        /* \"#utility.yul\":6962:6977   */\n      mstore\n        /* \"#utility.yul\":6996:7000   */\n      0x24\n        /* \"#utility.yul\":6993:6994   */\n      0x00\n        /* \"#utility.yul\":6986:7001   */\n      revert\n        /* \"#utility.yul\":7013:7333   */\n    tag_32:\n        /* \"#utility.yul\":7057:7063   */\n      0x00\n        /* \"#utility.yul\":7094:7095   */\n      0x02\n        /* \"#utility.yul\":7088:7092   */\n      dup3\n        /* \"#utility.yul\":7084:7096   */\n      div\n        /* \"#utility.yul\":7074:7096   */\n      swap1\n      pop\n        /* \"#utility.yul\":7141:7142   */\n      0x01\n        /* \"#utility.yul\":7135:7139   */\n      dup3\n        /* \"#utility.yul\":7131:7143   */\n      and\n        /* \"#utility.yul\":7162:7180   */\n      dup1\n        /* \"#utility.yul\":7152:7233   */\n      tag_177\n      jumpi\n        /* \"#utility.yul\":7218:7222   */\n      0x7f\n        /* \"#utility.yul\":7210:7216   */\n      dup3\n        /* \"#utility.yul\":7206:7223   */\n      and\n        /* \"#utility.yul\":7196:7223   */\n      swap2\n      pop\n        /* \"#utility.yul\":7152:7233   */\n    tag_177:\n        /* \"#utility.yul\":7280:7282   */\n      0x20\n        /* \"#utility.yul\":7272:7278   */\n      dup3\n        /* \"#utility.yul\":7269:7283   */\n      lt\n        /* \"#utility.yul\":7249:7267   */\n      dup2\n        /* \"#utility.yul\":7246:7284   */\n      sub\n        /* \"#utility.yul\":7243:7327   */\n      tag_178\n      jumpi\n        /* \"#utility.yul\":7299:7317   */\n      tag_179\n      tag_81\n      jump\t// in\n    tag_179:\n        /* \"#utility.yul\":7243:7327   */\n    tag_178:\n        /* \"#utility.yul\":7064:7333   */\n      pop\n        /* \"#utility.yul\":7013:7333   */\n      swap2\n      swap1\n      pop\n      jump\t// out\n        /* \"#utility.yul\":7339:7480   */\n    tag_82:\n        /* \"#utility.yul\":7388:7392   */\n      0x00\n        /* \"#utility.yul\":7411:7414   */\n      dup2\n        /* \"#utility.yul\":7403:7414   */\n      swap1\n      pop\n        /* \"#utility.yul\":7434:7437   */\n      dup2\n        /* \"#utility.yul\":7431:7432   */\n      0x00\n        /* \"#utility.yul\":7424:7438   */\n      mstore\n        /* \"#utility.yul\":7468:7472   */\n      0x20\n        /* \"#utility.yul\":7465:7466   */\n      0x00\n        /* \"#utility.yul\":7455:7473   */\n      keccak256\n        /* \"#utility.yul\":7447:7473   */\n      swap1\n      pop\n        /* \"#utility.yul\":7339:7480   */\n      swap2\n      swap1\n      pop\n      jump\t// out\n        /* \"#utility.yul\":7486:7579   */\n    tag_83:\n        /* \"#utility.yul\":7523:7529   */\n      0x00\n        /* \"#utility.yul\":7570:7572   */\n      0x20\n        /* \"#utility.yul\":7565:7567   */\n      0x1f\n        /* \"#utility.yul\":7558:7563   */\n      dup4\n        /* \"#utility.yul\":7554:7568   */\n      add\n        /* \"#utility.yul\":7550:7573   */\n      div\n        /* \"#utility.yul\":7540:7573   */\n      swap1\n      pop\n        /* \"#utility.yul\":7486:7579   */\n      swap2\n      swap1\n      pop\n      jump\t// out\n        /* \"#utility.yul\":7585:7692   */\n    tag_84:\n        /* \"#utility.yul\":7629:7637   */\n      0x00\n        /* \"#utility.yul\":7679:7684   */\n      dup3\n        /* \"#utility.yul\":7673:7677   */\n      dup3\n        /* \"#utility.yul\":7669:7685   */\n      shl\n        /* \"#utility.yul\":7648:7685   */\n      swap1\n      pop\n        /* \"#utility.yul\":7585:7692   */\n      swap3\n      swap2\n      pop\n      pop\n      jump\t// out\n        /* \"#utility.yul\":7698:8091   */\n    tag_85:\n        /* \"#utility.yul\":7767:7773   */\n      0x00\n        /* \"#utility.yul\":7817:7818   */\n      0x08\n        /* \"#utility.yul\":7805:7815   */\n      dup4\n        /* \"#utility.yul\":7801:7819   */\n      mul\n        /* \"#utility.yul\":7840:7937   */\n      tag_184\n        /* \"#utility.yul\":7870:7936   */\n      0xffffffffffffffffffffffffffffffffffffffffffffffffffffffffffffffff\n        /* \"#utility.yul\":7859:7868   */\n      dup3\n        /* \"#utility.yul\":7840:7937   */\n      tag_84\n      jump\t// in\n    tag_184:\n        /* \"#utility.yul\":7958:7997   */\n      tag_185\n        /* \"#utility.yul\":7988:7996   */\n      dup7\n        /* \"#utility.yul\":7977:7986   */\n      dup4\n        /* \"#utility.yul\":7958:7997   */\n      tag_84\n      jump\t// in\n    tag_185:\n        /* \"#utility.yul\":7946:7997   */\n      swap6\n      pop\n        /* \"#utility.yul\":8030:8034   */\n      dup1\n        /* \"#utility.yul\":8026:8035   */\n      not\n        /* \"#utility.yul\":8019:8024   */\n      dup5\n        /* \"#utility.yul\":8015:8036   */\n      and\n        /* \"#utility.yul\":8006:8036   */\n      swap4\n      pop\n        /* \"#utility.yul\":8079:8083   */\n      dup1\n        /* \"#utility.yul\":8069:8077   */\n      dup7\n        /* \"#utility.yul\":8065:8084   */\n      and\n        /* \"#utility.yul\":8058:8063   */\n      dup5\n        /* \"#utility.yul\":8055:8085   */\n      or\n        /* \"#utility.yul\":8045:8085   */\n      swap3\n      pop\n        /* \"#utility.yul\":7774:8091   */\n      pop\n      pop\n        /* \"#utility.yul\":7698:8091   */\n      swap4\n      swap3\n      pop\n      pop\n      pop\n      jump\t// out\n        /* \"#utility.yul\":8097:8157   */\n    tag_86:\n        /* \"#utility.yul\":8125:8128   */\n      0x00\n        /* \"#utility.yul\":8146:8151   */\n      dup2\n        /* \"#utility.yul\":8139:8151   */\n      swap1\n      pop\n        /* \"#utility.yul\":8097:8157   */\n      swap2\n      swap1\n      pop\n      jump\t// out\n        /* \"#utility.yul\":8163:8305   */\n    tag_87:\n        /* \"#utility.yul\":8213:8222   */\n      0x00\n        /* \"#utility.yul\":8246:8299   */\n      tag_188\n        /* \"#utility.yul\":8264:8298   */\n      tag_189\n        /* \"#utility.yul\":8273:8297   */\n      tag_190\n        /* \"#utility.yul\":8291:8296   */\n      dup5\n        /* \"#utility.yul\":8273:8297   */\n      tag_70\n      jump\t// in\n    tag_190:\n        /* \"#utility.yul\":8264:8298   */\n      tag_86\n      jump\t// in\n    tag_189:\n        /* \"#utility.yul\":8246:8299   */\n      tag_70\n      jump\t// in\n    tag_188:\n        /* \"#utility.yul\":8233:8299   */\n      swap1\n      pop\n        /* \"#utility.yul\":8163:8305   */\n      swap2\n      swap1\n      pop\n      jump\t// out\n        /* \"#utility.yul\":8311:8386   */\n    tag_88:\n        /* \"#utility.yul\":8354:8357   */\n      0x00\n        /* \"#utility.yul\":8375:8380   */\n      dup2\n        /* \"#utility.yul\":8368:8380   */\n      swap1\n      pop\n        /* \"#utility.yul\":8311:8386   */\n      swap2\n      swap1\n      pop\n      jump\t// out\n        /* \"#utility.yul\":8392:8661   */\n    tag_89:\n        /* \"#utility.yul\":8502:8541   */\n      tag_193\n        /* \"#utility.yul\":8533:8540   */\n      dup4\n        /* \"#utility.yul\":8502:8541   */\n      tag_87\n      jump\t// in\n    tag_193:\n        /* \"#utility.yul\":8563:8654   */\n      tag_194\n        /* \"#utility.yul\":8612:8653   */\n      tag_195\n        /* \"#utility.yul\":8636:8652   */\n      dup3\n        /* \"#utility.yul\":8612:8653   */\n      tag_88\n      jump\t// in\n    tag_195:\n        /* \"#utility.yul\":8604:8610   */\n      dup5\n        /* \"#utility.yul\":8597:8601   */\n      dup5\n        /* \"#utility.yul\":8591:8602   */\n      sload\n        /* \"#utility.yul\":8563:8654   */\n      tag_85\n      jump\t// in\n    tag_194:\n        /* \"#utility.yul\":8557:8561   */\n      dup3\n        /* \"#utility.yul\":8550:8655   */\n      sstore\n        /* \"#utility.yul\":8468:8661   */\n      pop\n        /* \"#utility.yul\":8392:8661   */\n      pop\n      pop\n      pop\n      jump\t// out\n        /* \"#utility.yul\":8667:8740   */\n    tag_90:\n        /* \"#utility.yul\":8712:8715   */\n      0x00\n        /* \"#utility.yul\":8667:8740   */\n      swap1\n      jump\t// out\n        /* \"#utility.yul\":8746:8935   */\n    tag_91:\n        /* \"#utility.yul\":8823:8855   */\n      tag_198\n      tag_90\n      jump\t// in\n    tag_198:\n        /* \"#utility.yul\":8864:8929   */\n      tag_199\n        /* \"#utility.yul\":8922:8928   */\n      dup2\n        /* \"#utility.yul\":8914:8920   */\n      dup5\n        /* \"#utility.yul\":8908:8912   */\n      dup5\n        /* \"#utility.yul\":8864:8929   */\n      tag_89\n      jump\t// in\n    tag_199:\n        /* \"#utility.yul\":8799:8935   */\n      pop\n        /* \"#utility.yul\":8746:8935   */\n      pop\n      pop\n      jump\t// out\n        /* \"#utility.yul\":8941:9127   */\n    tag_92:\n        /* \"#utility.yul\":9001:9121   */\n    tag_201:\n        /* \"#utility.yul\":9018:9021   */\n      dup2\n        /* \"#utility.yul\":9011:9016   */\n      dup2\n        /* \"#utility.yul\":9008:9022   */\n      lt\n        /* \"#utility.yul\":9001:9121   */\n      iszero\n      tag_203\n      jumpi\n        /* \"#utility.yul\":9072:9111   */\n      tag_204\n        /* \"#utility.yul\":9109:9110   */\n      0x00\n        /* \"#utility.yul\":9102:9107   */\n      dup3\n        /* \"#utility.yul\":9072:9111   */\n      tag_91\n      jump\t// in\n    tag_204:\n        /* \"#utility.yul\":9045:9046   */\n      0x01\n        /* \"#utility.yul\":9038:9043   */\n      dup2\n        /* \"#utility.yul\":9034:9047   */\n      add\n        /* \"#utility.yul\":9025:9047   */\n      swap1\n      pop\n        /* \"#utility.yul\":9001:9121   */\n      jump(tag_201)\n    tag_203:\n        /* \"#utility.yul\":8941:9127   */\n      pop\n      pop\n      jump\t// out\n        /* \"#utility.yul\":9133:9676   */\n    tag_93:\n        /* \"#utility.yul\":9234:9236   */\n      0x1f\n        /* \"#utility.yul\":9229:9232   */\n      dup3\n        /* \"#utility.yul\":9226:9237   */\n      gt\n        /* \"#utility.yul\":9223:9669   */\n      iszero\n      tag_206\n      jumpi\n        /* \"#utility.yul\":9268:9306   */\n      tag_207\n        /* \"#utility.yul\":9300:9305   */\n      dup2\n        /* \"#utility.yul\":9268:9306   */\n      tag_82\n      jump\t// in\n    tag_207:\n        /* \"#utility.yul\":9352:9381   */\n      tag_208\n        /* \"#utility.yul\":9370:9380   */\n      dup5\n        /* \"#utility.yul\":9352:9381   */\n      tag_83\n      jump\t// in\n    tag_208:\n        /* \"#utility.yul\":9342:9350   */\n      dup2\n        /* \"#utility.yul\":9338:9382   */\n      add\n        /* \"#utility.yul\":9535:9537   */\n      0x20\n        /* \"#utility.yul\":9523:9533   */\n      dup6\n        /* \"#utility.yul\":9520:9538   */\n      lt\n        /* \"#utility.yul\":9517:9566   */\n      iszero\n      tag_209\n      jumpi\n        /* \"#utility.yul\":9556:9564   */\n      dup2\n        /* \"#utility.yul\":9541:9564   */\n      swap1\n      pop\n        /* \"#utility.yul\":9517:9566   */\n    tag_209:\n        /* \"#utility.yul\":9579:9659   */\n      tag_210\n        /* \"#utility.yul\":9635:9657   */\n      tag_211\n        /* \"#utility.yul\":9653:9656   */\n      dup6\n        /* \"#utility.yul\":9635:9657   */\n      tag_83\n      jump\t// in\n    tag_211:\n        /* \"#utility.yul\":9625:9633   */\n      dup4\n        /* \"#utility.yul\":9621:9658   */\n      add\n        /* \"#utility.yul\":9608:9619   */\n      dup3\n        /* \"#utility.yul\":9579:9659   */\n      tag_92\n      jump\t// in\n    tag_210:\n        /* \"#utility.yul\":9238:9669   */\n      pop\n      pop\n        /* \"#utility.yul\":9223:9669   */\n    tag_206:\n        /* \"#utility.yul\":9133:9676   */\n      pop\n      pop\n      pop\n      jump\t// out\n        /* \"#utility.yul\":9682:9799   */\n    tag_94:\n        /* \"#utility.yul\":9736:9744   */\n      0x00\n        /* \"#utility.yul\":9786:9791   */\n      dup3\n        /* \"#utility.yul\":9780:9784   */\n      dup3\n        /* \"#utility.yul\":9776:9792   */\n      shr\n        /* \"#utility.yul\":9755:9792   */\n      swap1\n      pop\n        /* \"#utility.yul\":9682:9799   */\n      swap3\n      swap2\n      pop\n      pop\n      jump\t// out\n        /* \"#utility.yul\":9805:9974   */\n    tag_95:\n        /* \"#utility.yul\":9849:9855   */\n      0x00\n        /* \"#utility.yul\":9882:9933   */\n      tag_214\n        /* \"#utility.yul\":9930:9931   */\n      0x00\n        /* \"#utility.yul\":9926:9932   */\n      not\n        /* \"#utility.yul\":9918:9923   */\n      dup5\n        /* \"#utility.yul\":9915:9916   */\n      0x08\n        /* \"#utility.yul\":9911:9924   */\n      mul\n        /* \"#utility.yul\":9882:9933   */\n      tag_94\n      jump\t// in\n    tag_214:\n        /* \"#utility.yul\":9878:9934   */\n      not\n        /* \"#utility.yul\":9963:9967   */\n      dup1\n        /* \"#utility.yul\":9957:9961   */\n      dup4\n        /* \"#utility.yul\":9953:9968   */\n      and\n        /* \"#utility.yul\":9943:9968   */\n      swap2\n      pop\n        /* \"#utility.yul\":9856:9974   */\n      pop\n        /* \"#utility.yul\":9805:9974   */\n      swap3\n      swap2\n      pop\n      pop\n      jump\t// out\n        /* \"#utility.yul\":9979:10274   */\n    tag_96:\n        /* \"#utility.yul\":10055:10059   */\n      0x00\n        /* \"#utility.yul\":10201:10230   */\n      tag_216\n        /* \"#utility.yul\":10226:10229   */\n      dup4\n        /* \"#utility.yul\":10220:10224   */\n      dup4\n        /* \"#utility.yul\":10201:10230   */\n      tag_95\n      jump\t// in\n    tag_216:\n        /* \"#utility.yul\":10193:10230   */\n      swap2\n      pop\n        /* \"#utility.yul\":10263:10266   */\n      dup3\n        /* \"#utility.yul\":10260:10261   */\n      0x02\n        /* \"#utility.yul\":10256:10267   */\n      mul\n        /* \"#utility.yul\":10250:10254   */\n      dup3\n        /* \"#utility.yul\":10247:10268   */\n      or\n        /* \"#utility.yul\":10239:10268   */\n      swap1\n      pop\n        /* \"#utility.yul\":9979:10274   */\n      swap3\n      swap2\n      pop\n      pop\n      jump\t// out\n        /* \"#utility.yul\":10279:11674   */\n    tag_28:\n        /* \"#utility.yul\":10396:10433   */\n      tag_218\n        /* \"#utility.yul\":10429:10432   */\n      dup3\n        /* \"#utility.yul\":10396:10433   */\n      tag_74\n      jump\t// in\n    tag_218:\n        /* \"#utility.yul\":10498:10516   */\n      0xffffffffffffffff\n        /* \"#utility.yul\":10490:10496   */\n      dup2\n        /* \"#utility.yul\":10487:10517   */\n      gt\n        /* \"#utility.yul\":10484:10540   */\n      iszero\n      tag_219\n      jumpi\n        /* \"#utility.yul\":10520:10538   */\n      tag_220\n      tag_63\n      jump\t// in\n    tag_220:\n        /* \"#utility.yul\":10484:10540   */\n    tag_219:\n        /* \"#utility.yul\":10564:10602   */\n      tag_221\n        /* \"#utility.yul\":10596:10600   */\n      dup3\n        /* \"#utility.yul\":10590:10601   */\n      sload\n        /* \"#utility.yul\":10564:10602   */\n      tag_32\n      jump\t// in\n    tag_221:\n        /* \"#utility.yul\":10649:10716   */\n      tag_222\n        /* \"#utility.yul\":10709:10715   */\n      dup3\n        /* \"#utility.yul\":10701:10707   */\n      dup3\n        /* \"#utility.yul\":10695:10699   */\n      dup6\n        /* \"#utility.yul\":10649:10716   */\n      tag_93\n      jump\t// in\n    tag_222:\n        /* \"#utility.yul\":10743:10744   */\n      0x00\n        /* \"#utility.yul\":10767:10771   */\n      0x20\n        /* \"#utility.yul\":10754:10771   */\n      swap1\n      pop\n        /* \"#utility.yul\":10799:10801   */\n      0x1f\n        /* \"#utility.yul\":10791:10797   */\n      dup4\n        /* \"#utility.yul\":10788:10802   */\n      gt\n        /* \"#utility.yul\":10816:10817   */\n      0x01\n        /* \"#utility.yul\":10811:11429   */\n      dup2\n      eq\n      tag_224\n      jumpi\n        /* \"#utility.yul\":11473:11474   */\n      0x00\n        /* \"#utility.yul\":11490:11496   */\n      dup5\n        /* \"#utility.yul\":11487:11564   */\n      iszero\n      tag_225\n      jumpi\n        /* \"#utility.yul\":11539:11548   */\n      dup3\n        /* \"#utility.yul\":11534:11537   */\n      dup8\n        /* \"#utility.yul\":11530:11549   */\n      add\n        /* \"#utility.yul\":11524:11550   */\n      mload\n        /* \"#utility.yul\":11515:11550   */\n      swap1\n      pop\n        /* \"#utility.yul\":11487:11564   */\n    tag_225:\n        /* \"#utility.yul\":11590:11657   */\n      tag_226\n        /* \"#utility.yul\":11650:11656   */\n      dup6\n        /* \"#utility.yul\":11643:11648   */\n      dup3\n        /* \"#utility.yul\":11590:11657   */\n      tag_96\n      jump\t// in\n    tag_226:\n        /* \"#utility.yul\":11584:11588   */\n      dup7\n        /* \"#utility.yul\":11577:11658   */\n      sstore\n        /* \"#utility.yul\":11446:11668   */\n      pop\n        /* \"#utility.yul\":10781:11668   */\n      jump(tag_223)\n        /* \"#utility.yul\":10811:11429   */\n    tag_224:\n        /* \"#utility.yul\":10863:10867   */\n      0x1f\n        /* \"#utility.yul\":10859:10868   */\n      not\n        /* \"#utility.yul\":10851:10857   */\n      dup5\n        /* \"#utility.yul\":10847:10869   */\n      and\n        /* \"#utility.yul\":10897:10934   */\n      tag_227\n        /* \"#utility.yul\":10929:10933   */\n      dup7\n        /* \"#utility.yul\":10897:10934   */\n      tag_82\n      jump\t// in\n    tag_227:\n        /* \"#utility.yul\":10956:10957   */\n      0x00\n        /* \"#utility.yul\":10970:11178   */\n    tag_228:\n        /* \"#utility.yul\":10984:10991   */\n      dup3\n        /* \"#utility.yul\":10981:10982   */\n      dup2\n        /* \"#utility.yul\":10978:10992   */\n      lt\n        /* \"#utility.yul\":10970:11178   */\n      iszero\n      tag_230\n      jumpi\n        /* \"#utility.yul\":11063:11072   */\n      dup5\n        /* \"#utility.yul\":11058:11061   */\n      dup10\n        /* \"#utility.yul\":11054:11073   */\n      add\n        /* \"#utility.yul\":11048:11074   */\n      mload\n        /* \"#utility.yul\":11040:11046   */\n      dup3\n        /* \"#utility.yul\":11033:11075   */\n      sstore\n        /* \"#utility.yul\":11114:11115   */\n      0x01\n        /* \"#utility.yul\":11106:11112   */\n      dup3\n        /* \"#utility.yul\":11102:11116   */\n      add\n        /* \"#utility.yul\":11092:11116   */\n      swap2\n      pop\n        /* \"#utility.yul\":11161:11163   */\n      0x20\n        /* \"#utility.yul\":11150:11159   */\n      dup6\n        /* \"#utility.yul\":11146:11164   */\n      add\n        /* \"#utility.yul\":11133:11164   */\n      swap5\n      pop\n        /* \"#utility.yul\":11007:11011   */\n      0x20\n        /* \"#utility.yul\":11004:11005   */\n      dup2\n        /* \"#utility.yul\":11000:11012   */\n      add\n        /* \"#utility.yul\":10995:11012   */\n      swap1\n      pop\n        /* \"#utility.yul\":10970:11178   */\n      jump(tag_228)\n    tag_230:\n        /* \"#utility.yul\":11206:11212   */\n      dup7\n        /* \"#utility.yul\":11197:11204   */\n      dup4\n        /* \"#utility.yul\":11194:11213   */\n      lt\n        /* \"#utility.yul\":11191:11370   */\n      iszero\n      tag_231\n      jumpi\n        /* \"#utility.yul\":11264:11273   */\n      dup5\n        /* \"#utility.yul\":11259:11262   */\n      dup10\n        /* \"#utility.yul\":11255:11274   */\n      add\n        /* \"#utility.yul\":11249:11275   */\n      mload\n        /* \"#utility.yul\":11307:11355   */\n      tag_232\n        /* \"#utility.yul\":11349:11353   */\n      0x1f\n        /* \"#utility.yul\":11341:11347   */\n      dup10\n        /* \"#utility.yul\":11337:11354   */\n      and\n        /* \"#utility.yul\":11326:11335   */\n      dup3\n        /* \"#utility.yul\":11307:11355   */\n      tag_95\n      jump\t// in\n    tag_232:\n        /* \"#utility.yul\":11299:11305   */\n      dup4\n        /* \"#utility.yul\":11292:11356   */\n      sstore\n        /* \"#utility.yul\":11214:11370   */\n      pop\n        /* \"#utility.yul\":11191:11370   */\n    tag_231:\n        /* \"#utility.yul\":11416:11417   */\n      0x01\n        /* \"#utility.yul\":11412:11413   */\n      0x02\n        /* \"#utility.yul\":11404:11410   */\n      dup9\n        /* \"#utility.yul\":11400:11414   */\n      mul\n        /* \"#utility.yul\":11396:11418   */\n      add\n        /* \"#utility.yul\":11390:11394   */\n      dup9\n        /* \"#utility.yul\":11383:11419   */\n      sstore\n        /* \"#utility.yul\":10818:11429   */\n      pop\n      pop\n      pop\n        /* \"#utility.yul\":10781:11668   */\n    tag_223:\n      pop\n        /* \"#utility.yul\":10371:11674   */\n      pop\n      pop\n      pop\n        /* \"#utility.yul\":10279:11674   */\n      pop\n      pop\n      jump\t// out\n        /* \"#utility.yul\":11680:12000   */\n    tag_56:\n        /* \"#utility.yul\":11795:11799   */\n      0x00\n        /* \"#utility.yul\":11833:11835   */\n      0x40\n        /* \"#utility.yul\":11822:11831   */\n      dup3\n        /* \"#utility.yul\":11818:11836   */\n      add\n        /* \"#utility.yul\":11810:11836   */\n      swap1\n      pop\n        /* \"#utility.yul\":11846:11917   */\n      tag_234\n        /* \"#utility.yul\":11914:11915   */\n      0x00\n        /* \"#utility.yul\":11903:11912   */\n      dup4\n        /* \"#utility.yul\":11899:11916   */\n      add\n        /* \"#utility.yul\":11890:11896   */\n      dup6\n        /* \"#utility.yul\":11846:11917   */\n      tag_71\n      jump\t// in\n    tag_234:\n        /* \"#utility.yul\":11927:11993   */\n      tag_235\n        /* \"#utility.yul\":11989:11991   */\n      0x20\n        /* \"#utility.yul\":11978:11987   */\n      dup4\n        /* \"#utility.yul\":11974:11992   */\n      add\n        /* \"#utility.yul\":11965:11971   */\n      dup5\n        /* \"#utility.yul\":11927:11993   */\n      tag_79\n      jump\t// in\n    tag_235:\n        /* \"#utility.yul\":11680:12000   */\n      swap4\n      swap3\n      pop\n      pop\n      pop\n      jump\t// out\n\n    auxdata: 0xa2646970667358221220ec7d436be86a61d5fe831163b7019310ce5afb38208153f44fb04770ce8f751564736f6c63430008120033\n}\n",
				"bytecode": {
					"linkReferences": {},
					"object": "60806040526000805534801561001457600080fd5b50610c84806100246000396000f3fe608060405234801561001057600080fd5b506004361061004c5760003560e01c8063292a458514610051578063586717301461006d5780638d9776721461008b578063a49eefa0146100bf575b600080fd5b61006b600480360381019061006691906106d0565b6100db565b005b6100756101db565b6040516100829190610761565b60405180910390f35b6100a560048036038101906100a091906107a8565b6101e1565b6040516100b695949392919061086f565b60405180910390f35b6100d960048036038101906100d491906107a8565b610334565b005b6000808154809291906100ed906108ff565b91905055506040518060a0016040528060005481526020018381526020018281526020016000151581526020014281525060016000805481526020019081526020016000206000820151816000015560208201518160010190816101519190610b53565b5060408201518160020190816101679190610b53565b5060608201518160030160006101000a81548160ff021916908315150217905550608082015181600401559050507f6549102bed7d1bb5ec529ee14e2ca60ffc1f47f66d4cc6ca713220613cc64c2560005483836000426040516101cf95949392919061086f565b60405180910390a15050565b60005481565b600160205280600052604060002060009150905080600001549080600101805461020a90610976565b80601f016020809104026020016040519081016040528092919081815260200182805461023690610976565b80156102835780601f1061025857610100808354040283529160200191610283565b820191906000526020600020905b81548152906001019060200180831161026657829003601f168201915b50505050509080600201805461029890610976565b80601f01602080910402602001604051908101604052809291908181526020018280546102c490610976565b80156103115780601f106102e657610100808354040283529160200191610311565b820191906000526020600020905b8154815290600101906020018083116102f457829003601f168201915b5050505050908060030160009054906101000a900460ff16908060040154905085565b6000600160008381526020019081526020016000206040518060a00160405290816000820154815260200160018201805461036e90610976565b80601f016020809104026020016040519081016040528092919081815260200182805461039a90610976565b80156103e75780601f106103bc576101008083540402835291602001916103e7565b820191906000526020600020905b8154815290600101906020018083116103ca57829003601f168201915b5050505050815260200160028201805461040090610976565b80601f016020809104026020016040519081016040528092919081815260200182805461042c90610976565b80156104795780601f1061044e57610100808354040283529160200191610479565b820191906000526020600020905b81548152906001019060200180831161045c57829003601f168201915b505050505081526020016003820160009054906101000a900460ff16151515158152602001600482015481525050905080606001511581606001901515908115158152505080600160008481526020019081526020016000206000820151816000015560208201518160010190816104f19190610b53565b5060408201518160020190816105079190610b53565b5060608201518160030160006101000a81548160ff021916908315150217905550608082015181600401559050507f54cf0d6dc9bb13ae254bd967765b3f04057bb2b7a01ca4207bd72e7f5f32c5cd82826060015160405161056a929190610c25565b60405180910390a15050565b6000604051905090565b600080fd5b600080fd5b600080fd5b600080fd5b6000601f19601f8301169050919050565b7f4e487b7100000000000000000000000000000000000000000000000000000000600052604160045260246000fd5b6105dd82610594565b810181811067ffffffffffffffff821117156105fc576105fb6105a5565b5b80604052505050565b600061060f610576565b905061061b82826105d4565b919050565b600067ffffffffffffffff82111561063b5761063a6105a5565b5b61064482610594565b9050602081019050919050565b82818337600083830152505050565b600061067361066e84610620565b610605565b90508281526020810184848401111561068f5761068e61058f565b5b61069a848285610651565b509392505050565b600082601f8301126106b7576106b661058a565b5b81356106c7848260208601610660565b91505092915050565b600080604083850312156106e7576106e6610580565b5b600083013567ffffffffffffffff81111561070557610704610585565b5b610711858286016106a2565b925050602083013567ffffffffffffffff81111561073257610731610585565b5b61073e858286016106a2565b9150509250929050565b6000819050919050565b61075b81610748565b82525050565b60006020820190506107766000830184610752565b92915050565b61078581610748565b811461079057600080fd5b50565b6000813590506107a28161077c565b92915050565b6000602082840312156107be576107bd610580565b5b60006107cc84828501610793565b91505092915050565b600081519050919050565b600082825260208201905092915050565b60005b8381101561080f5780820151818401526020810190506107f4565b60008484015250505050565b6000610826826107d5565b61083081856107e0565b93506108408185602086016107f1565b61084981610594565b840191505092915050565b60008115159050919050565b61086981610854565b82525050565b600060a0820190506108846000830188610752565b8181036020830152610896818761081b565b905081810360408301526108aa818661081b565b90506108b96060830185610860565b6108c66080830184610752565b9695505050505050565b7f4e487b7100000000000000000000000000000000000000000000000000000000600052601160045260246000fd5b600061090a82610748565b91507fffffffffffffffffffffffffffffffffffffffffffffffffffffffffffffffff820361093c5761093b6108d0565b5b600182019050919050565b7f4e487b7100000000000000000000000000000000000000000000000000000000600052602260045260246000fd5b6000600282049050600182168061098e57607f821691505b6020821081036109a1576109a0610947565b5b50919050565b60008190508160005260206000209050919050565b60006020601f8301049050919050565b600082821b905092915050565b600060088302610a097fffffffffffffffffffffffffffffffffffffffffffffffffffffffffffffffff826109cc565b610a1386836109cc565b95508019841693508086168417925050509392505050565b6000819050919050565b6000610a50610a4b610a4684610748565b610a2b565b610748565b9050919050565b6000819050919050565b610a6a83610a35565b610a7e610a7682610a57565b8484546109d9565b825550505050565b600090565b610a93610a86565b610a9e818484610a61565b505050565b5b81811015610ac257610ab7600082610a8b565b600181019050610aa4565b5050565b601f821115610b0757610ad8816109a7565b610ae1846109bc565b81016020851015610af0578190505b610b04610afc856109bc565b830182610aa3565b50505b505050565b600082821c905092915050565b6000610b2a60001984600802610b0c565b1980831691505092915050565b6000610b438383610b19565b9150826002028217905092915050565b610b5c826107d5565b67ffffffffffffffff811115610b7557610b746105a5565b5b610b7f8254610976565b610b8a828285610ac6565b600060209050601f831160018114610bbd5760008415610bab578287015190505b610bb58582610b37565b865550610c1d565b601f198416610bcb866109a7565b60005b82811015610bf357848901518255600182019150602085019450602081019050610bce565b86831015610c105784890151610c0c601f891682610b19565b8355505b6001600288020188555050505b505050505050565b6000604082019050610c3a6000830185610752565b610c476020830184610860565b939250505056fea2646970667358221220ec7d436be86a61d5fe831163b7019310ce5afb38208153f44fb04770ce8f751564736f6c63430008120033",
					"opcodes": "PUSH1 0x80 PUSH1 0x40 MSTORE PUSH1 0x0 DUP1 SSTORE CALLVALUE DUP1 ISZERO PUSH2 0x14 JUMPI PUSH1 0x0 DUP1 REVERT JUMPDEST POP PUSH2 0xC84 DUP1 PUSH2 0x24 PUSH1 0x0 CODECOPY PUSH1 0x0 RETURN INVALID PUSH1 0x80 PUSH1 0x40 MSTORE CALLVALUE DUP1 ISZERO PUSH2 0x10 JUMPI PUSH1 0x0 DUP1 REVERT JUMPDEST POP PUSH1 0x4 CALLDATASIZE LT PUSH2 0x4C JUMPI PUSH1 0x0 CALLDATALOAD PUSH1 0xE0 SHR DUP1 PUSH4 0x292A4585 EQ PUSH2 0x51 JUMPI DUP1 PUSH4 0x58671730 EQ PUSH2 0x6D JUMPI DUP1 PUSH4 0x8D977672 EQ PUSH2 0x8B JUMPI DUP1 PUSH4 0xA49EEFA0 EQ PUSH2 0xBF JUMPI JUMPDEST PUSH1 0x0 DUP1 REVERT JUMPDEST PUSH2 0x6B PUSH1 0x4 DUP1 CALLDATASIZE SUB DUP2 ADD SWAP1 PUSH2 0x66 SWAP2 SWAP1 PUSH2 0x6D0 JUMP JUMPDEST PUSH2 0xDB JUMP JUMPDEST STOP JUMPDEST PUSH2 0x75 PUSH2 0x1DB JUMP JUMPDEST PUSH1 0x40 MLOAD PUSH2 0x82 SWAP2 SWAP1 PUSH2 0x761 JUMP JUMPDEST PUSH1 0x40 MLOAD DUP1 SWAP2 SUB SWAP1 RETURN JUMPDEST PUSH2 0xA5 PUSH1 0x4 DUP1 CALLDATASIZE SUB DUP2 ADD SWAP1 PUSH2 0xA0 SWAP2 SWAP1 PUSH2 0x7A8 JUMP JUMPDEST PUSH2 0x1E1 JUMP JUMPDEST PUSH1 0x40 MLOAD PUSH2 0xB6 SWAP6 SWAP5 SWAP4 SWAP3 SWAP2 SWAP1 PUSH2 0x86F JUMP JUMPDEST PUSH1 0x40 MLOAD DUP1 SWAP2 SUB SWAP1 RETURN JUMPDEST PUSH2 0xD9 PUSH1 0x4 DUP1 CALLDATASIZE SUB DUP2 ADD SWAP1 PUSH2 0xD4 SWAP2 SWAP1 PUSH2 0x7A8 JUMP JUMPDEST PUSH2 0x334 JUMP JUMPDEST STOP JUMPDEST PUSH1 0x0 DUP1 DUP2 SLOAD DUP1 SWAP3 SWAP2 SWAP1 PUSH2 0xED SWAP1 PUSH2 0x8FF JUMP JUMPDEST SWAP2 SWAP1 POP SSTORE POP PUSH1 0x40 MLOAD DUP1 PUSH1 0xA0 ADD PUSH1 0x40 MSTORE DUP1 PUSH1 0x0 SLOAD DUP2 MSTORE PUSH1 0x20 ADD DUP4 DUP2 MSTORE PUSH1 0x20 ADD DUP3 DUP2 MSTORE PUSH1 0x20 ADD PUSH1 0x0 ISZERO ISZERO DUP2 MSTORE PUSH1 0x20 ADD TIMESTAMP DUP2 MSTORE POP PUSH1 0x1 PUSH1 0x0 DUP1 SLOAD DUP2 MSTORE PUSH1 0x20 ADD SWAP1 DUP2 MSTORE PUSH1 0x20 ADD PUSH1 0x0 KECCAK256 PUSH1 0x0 DUP3 ADD MLOAD DUP2 PUSH1 0x0 ADD SSTORE PUSH1 0x20 DUP3 ADD MLOAD DUP2 PUSH1 0x1 ADD SWAP1 DUP2 PUSH2 0x151 SWAP2 SWAP1 PUSH2 0xB53 JUMP JUMPDEST POP PUSH1 0x40 DUP3 ADD MLOAD DUP2 PUSH1 0x2 ADD SWAP1 DUP2 PUSH2 0x167 SWAP2 SWAP1 PUSH2 0xB53 JUMP JUMPDEST POP PUSH1 0x60 DUP3 ADD MLOAD DUP2 PUSH1 0x3 ADD PUSH1 0x0 PUSH2 0x100 EXP DUP2 SLOAD DUP2 PUSH1 0xFF MUL NOT AND SWAP1 DUP4 ISZERO ISZERO MUL OR SWAP1 SSTORE POP PUSH1 0x80 DUP3 ADD MLOAD DUP2 PUSH1 0x4 ADD SSTORE SWAP1 POP POP PUSH32 0x6549102BED7D1BB5EC529EE14E2CA60FFC1F47F66D4CC6CA713220613CC64C25 PUSH1 0x0 SLOAD DUP4 DUP4 PUSH1 0x0 TIMESTAMP PUSH1 0x40 MLOAD PUSH2 0x1CF SWAP6 SWAP5 SWAP4 SWAP3 SWAP2 SWAP1 PUSH2 0x86F JUMP JUMPDEST PUSH1 0x40 MLOAD DUP1 SWAP2 SUB SWAP1 LOG1 POP POP JUMP JUMPDEST PUSH1 0x0 SLOAD DUP2 JUMP JUMPDEST PUSH1 0x1 PUSH1 0x20 MSTORE DUP1 PUSH1 0x0 MSTORE PUSH1 0x40 PUSH1 0x0 KECCAK256 PUSH1 0x0 SWAP2 POP SWAP1 POP DUP1 PUSH1 0x0 ADD SLOAD SWAP1 DUP1 PUSH1 0x1 ADD DUP1 SLOAD PUSH2 0x20A SWAP1 PUSH2 0x976 JUMP JUMPDEST DUP1 PUSH1 0x1F ADD PUSH1 0x20 DUP1 SWAP2 DIV MUL PUSH1 0x20 ADD PUSH1 0x40 MLOAD SWAP1 DUP2 ADD PUSH1 0x40 MSTORE DUP1 SWAP3 SWAP2 SWAP1 DUP2 DUP2 MSTORE PUSH1 0x20 ADD DUP3 DUP1 SLOAD PUSH2 0x236 SWAP1 PUSH2 0x976 JUMP JUMPDEST DUP1 ISZERO PUSH2 0x283 JUMPI DUP1 PUSH1 0x1F LT PUSH2 0x258 JUMPI PUSH2 0x100 DUP1 DUP4 SLOAD DIV MUL DUP4 MSTORE SWAP2 PUSH1 0x20 ADD SWAP2 PUSH2 0x283 JUMP JUMPDEST DUP3 ADD SWAP2 SWAP1 PUSH1 0x0 MSTORE PUSH1 0x20 PUSH1 0x0 KECCAK256 SWAP1 JUMPDEST DUP2 SLOAD DUP2 MSTORE SWAP1 PUSH1 0x1 ADD SWAP1 PUSH1 0x20 ADD DUP1 DUP4 GT PUSH2 0x266 JUMPI DUP3 SWAP1 SUB PUSH1 0x1F AND DUP3 ADD SWAP2 JUMPDEST POP POP POP POP POP SWAP1 DUP1 PUSH1 0x2 ADD DUP1 SLOAD PUSH2 0x298 SWAP1 PUSH2 0x976 JUMP JUMPDEST DUP1 PUSH1 0x1F ADD PUSH1 0x20 DUP1 SWAP2 DIV MUL PUSH1 0x20 ADD PUSH1 0x40 MLOAD SWAP1 DUP2 ADD PUSH1 0x40 MSTORE DUP1 SWAP3 SWAP2 SWAP1 DUP2 DUP2 MSTORE PUSH1 0x20 ADD DUP3 DUP1 SLOAD PUSH2 0x2C4 SWAP1 PUSH2 0x976 JUMP JUMPDEST DUP1 ISZERO PUSH2 0x311 JUMPI DUP1 PUSH1 0x1F LT PUSH2 0x2E6 JUMPI PUSH2 0x100 DUP1 DUP4 SLOAD DIV MUL DUP4 MSTORE SWAP2 PUSH1 0x20 ADD SWAP2 PUSH2 0x311 JUMP JUMPDEST DUP3 ADD SWAP2 SWAP1 PUSH1 0x0 MSTORE PUSH1 0x20 PUSH1 0x0 KECCAK256 SWAP1 JUMPDEST DUP2 SLOAD DUP2 MSTORE SWAP1 PUSH1 0x1 ADD SWAP1 PUSH1 0x20 ADD DUP1 DUP4 GT PUSH2 0x2F4 JUMPI DUP3 SWAP1 SUB PUSH1 0x1F AND DUP3 ADD SWAP2 JUMPDEST POP POP POP POP POP SWAP1 DUP1 PUSH1 0x3 ADD PUSH1 0x0 SWAP1 SLOAD SWAP1 PUSH2 0x100 EXP SWAP1 DIV PUSH1 0xFF AND SWAP1 DUP1 PUSH1 0x4 ADD SLOAD SWAP1 POP DUP6 JUMP JUMPDEST PUSH1 0x0 PUSH1 0x1 PUSH1 0x0 DUP4 DUP2 MSTORE PUSH1 0x20 ADD SWAP1 DUP2 MSTORE PUSH1 0x20 ADD PUSH1 0x0 KECCAK256 PUSH1 0x40 MLOAD DUP1 PUSH1 0xA0 ADD PUSH1 0x40 MSTORE SWAP1 DUP2 PUSH1 0x0 DUP3 ADD SLOAD DUP2 MSTORE PUSH1 0x20 ADD PUSH1 0x1 DUP3 ADD DUP1 SLOAD PUSH2 0x36E SWAP1 PUSH2 0x976 JUMP JUMPDEST DUP1 PUSH1 0x1F ADD PUSH1 0x20 DUP1 SWAP2 DIV MUL PUSH1 0x20 ADD PUSH1 0x40 MLOAD SWAP1 DUP2 ADD PUSH1 0x40 MSTORE DUP1 SWAP3 SWAP2 SWAP1 DUP2 DUP2 MSTORE PUSH1 0x20 ADD DUP3 DUP1 SLOAD PUSH2 0x39A SWAP1 PUSH2 0x976 JUMP JUMPDEST DUP1 ISZERO PUSH2 0x3E7 JUMPI DUP1 PUSH1 0x1F LT PUSH2 0x3BC JUMPI PUSH2 0x100 DUP1 DUP4 SLOAD DIV MUL DUP4 MSTORE SWAP2 PUSH1 0x20 ADD SWAP2 PUSH2 0x3E7 JUMP JUMPDEST DUP3 ADD SWAP2 SWAP1 PUSH1 0x0 MSTORE PUSH1 0x20 PUSH1 0x0 KECCAK256 SWAP1 JUMPDEST DUP2 SLOAD DUP2 MSTORE SWAP1 PUSH1 0x1 ADD SWAP1 PUSH1 0x20 ADD DUP1 DUP4 GT PUSH2 0x3CA JUMPI DUP3 SWAP1 SUB PUSH1 0x1F AND DUP3 ADD SWAP2 JUMPDEST POP POP POP POP POP DUP2 MSTORE PUSH1 0x20 ADD PUSH1 0x2 DUP3 ADD DUP1 SLOAD PUSH2 0x400 SWAP1 PUSH2 0x976 JUMP JUMPDEST DUP1 PUSH1 0x1F ADD PUSH1 0x20 DUP1 SWAP2 DIV MUL PUSH1 0x20 ADD PUSH1 0x40 MLOAD SWAP1 DUP2 ADD PUSH1 0x40 MSTORE DUP1 SWAP3 SWAP2 SWAP1 DUP2 DUP2 MSTORE PUSH1 0x20 ADD DUP3 DUP1 SLOAD PUSH2 0x42C SWAP1 PUSH2 0x976 JUMP JUMPDEST DUP1 ISZERO PUSH2 0x479 JUMPI DUP1 PUSH1 0x1F LT PUSH2 0x44E JUMPI PUSH2 0x100 DUP1 DUP4 SLOAD DIV MUL DUP4 MSTORE SWAP2 PUSH1 0x20 ADD SWAP2 PUSH2 0x479 JUMP JUMPDEST DUP3 ADD SWAP2 SWAP1 PUSH1 0x0 MSTORE PUSH1 0x20 PUSH1 0x0 KECCAK256 SWAP1 JUMPDEST DUP2 SLOAD DUP2 MSTORE SWAP1 PUSH1 0x1 ADD SWAP1 PUSH1 0x20 ADD DUP1 DUP4 GT PUSH2 0x45C JUMPI DUP3 SWAP1 SUB PUSH1 0x1F AND DUP3 ADD SWAP2 JUMPDEST POP POP POP POP POP DUP2 MSTORE PUSH1 0x20 ADD PUSH1 0x3 DUP3 ADD PUSH1 0x0 SWAP1 SLOAD SWAP1 PUSH2 0x100 EXP SWAP1 DIV PUSH1 0xFF AND ISZERO ISZERO ISZERO ISZERO DUP2 MSTORE PUSH1 0x20 ADD PUSH1 0x4 DUP3 ADD SLOAD DUP2 MSTORE POP POP SWAP1 POP DUP1 PUSH1 0x60 ADD MLOAD ISZERO DUP2 PUSH1 0x60 ADD SWAP1 ISZERO ISZERO SWAP1 DUP2 ISZERO ISZERO DUP2 MSTORE POP POP DUP1 PUSH1 0x1 PUSH1 0x0 DUP5 DUP2 MSTORE PUSH1 0x20 ADD SWAP1 DUP2 MSTORE PUSH1 0x20 ADD PUSH1 0x0 KECCAK256 PUSH1 0x0 DUP3 ADD MLOAD DUP2 PUSH1 0x0 ADD SSTORE PUSH1 0x20 DUP3 ADD MLOAD DUP2 PUSH1 0x1 ADD SWAP1 DUP2 PUSH2 0x4F1 SWAP2 SWAP1 PUSH2 0xB53 JUMP JUMPDEST POP PUSH1 0x40 DUP3 ADD MLOAD DUP2 PUSH1 0x2 ADD SWAP1 DUP2 PUSH2 0x507 SWAP2 SWAP1 PUSH2 0xB53 JUMP JUMPDEST POP PUSH1 0x60 DUP3 ADD MLOAD DUP2 PUSH1 0x3 ADD PUSH1 0x0 PUSH2 0x100 EXP DUP2 SLOAD DUP2 PUSH1 0xFF MUL NOT AND SWAP1 DUP4 ISZERO ISZERO MUL OR SWAP1 SSTORE POP PUSH1 0x80 DUP3 ADD MLOAD DUP2 PUSH1 0x4 ADD SSTORE SWAP1 POP POP PUSH32 0x54CF0D6DC9BB13AE254BD967765B3F04057BB2B7A01CA4207BD72E7F5F32C5CD DUP3 DUP3 PUSH1 0x60 ADD MLOAD PUSH1 0x40 MLOAD PUSH2 0x56A SWAP3 SWAP2 SWAP1 PUSH2 0xC25 JUMP JUMPDEST PUSH1 0x40 MLOAD DUP1 SWAP2 SUB SWAP1 LOG1 POP POP JUMP JUMPDEST PUSH1 0x0 PUSH1 0x40 MLOAD SWAP1 POP SWAP1 JUMP JUMPDEST PUSH1 0x0 DUP1 REVERT JUMPDEST PUSH1 0x0 DUP1 REVERT JUMPDEST PUSH1 0x0 DUP1 REVERT JUMPDEST PUSH1 0x0 DUP1 REVERT JUMPDEST PUSH1 0x0 PUSH1 0x1F NOT PUSH1 0x1F DUP4 ADD AND SWAP1 POP SWAP2 SWAP1 POP JUMP JUMPDEST PUSH32 0x4E487B7100000000000000000000000000000000000000000000000000000000 PUSH1 0x0 MSTORE PUSH1 0x41 PUSH1 0x4 MSTORE PUSH1 0x24 PUSH1 0x0 REVERT JUMPDEST PUSH2 0x5DD DUP3 PUSH2 0x594 JUMP JUMPDEST DUP2 ADD DUP2 DUP2 LT PUSH8 0xFFFFFFFFFFFFFFFF DUP3 GT OR ISZERO PUSH2 0x5FC JUMPI PUSH2 0x5FB PUSH2 0x5A5 JUMP JUMPDEST JUMPDEST DUP1 PUSH1 0x40 MSTORE POP POP POP JUMP JUMPDEST PUSH1 0x0 PUSH2 0x60F PUSH2 0x576 JUMP JUMPDEST SWAP1 POP PUSH2 0x61B DUP3 DUP3 PUSH2 0x5D4 JUMP JUMPDEST SWAP2 SWAP1 POP JUMP JUMPDEST PUSH1 0x0 PUSH8 0xFFFFFFFFFFFFFFFF DUP3 GT ISZERO PUSH2 0x63B JUMPI PUSH2 0x63A PUSH2 0x5A5 JUMP JUMPDEST JUMPDEST PUSH2 0x644 DUP3 PUSH2 0x594 JUMP JUMPDEST SWAP1 POP PUSH1 0x20 DUP2 ADD SWAP1 POP SWAP2 SWAP1 POP JUMP JUMPDEST DUP3 DUP2 DUP4 CALLDATACOPY PUSH1 0x0 DUP4 DUP4 ADD MSTORE POP POP POP JUMP JUMPDEST PUSH1 0x0 PUSH2 0x673 PUSH2 0x66E DUP5 PUSH2 0x620 JUMP JUMPDEST PUSH2 0x605 JUMP JUMPDEST SWAP1 POP DUP3 DUP2 MSTORE PUSH1 0x20 DUP2 ADD DUP5 DUP5 DUP5 ADD GT ISZERO PUSH2 0x68F JUMPI PUSH2 0x68E PUSH2 0x58F JUMP JUMPDEST JUMPDEST PUSH2 0x69A DUP5 DUP3 DUP6 PUSH2 0x651 JUMP JUMPDEST POP SWAP4 SWAP3 POP POP POP JUMP JUMPDEST PUSH1 0x0 DUP3 PUSH1 0x1F DUP4 ADD SLT PUSH2 0x6B7 JUMPI PUSH2 0x6B6 PUSH2 0x58A JUMP JUMPDEST JUMPDEST DUP2 CALLDATALOAD PUSH2 0x6C7 DUP5 DUP3 PUSH1 0x20 DUP7 ADD PUSH2 0x660 JUMP JUMPDEST SWAP2 POP POP SWAP3 SWAP2 POP POP JUMP JUMPDEST PUSH1 0x0 DUP1 PUSH1 0x40 DUP4 DUP6 SUB SLT ISZERO PUSH2 0x6E7 JUMPI PUSH2 0x6E6 PUSH2 0x580 JUMP JUMPDEST JUMPDEST PUSH1 0x0 DUP4 ADD CALLDATALOAD PUSH8 0xFFFFFFFFFFFFFFFF DUP2 GT ISZERO PUSH2 0x705 JUMPI PUSH2 0x704 PUSH2 0x585 JUMP JUMPDEST JUMPDEST PUSH2 0x711 DUP6 DUP3 DUP7 ADD PUSH2 0x6A2 JUMP JUMPDEST SWAP3 POP POP PUSH1 0x20 DUP4 ADD CALLDATALOAD PUSH8 0xFFFFFFFFFFFFFFFF DUP2 GT ISZERO PUSH2 0x732 JUMPI PUSH2 0x731 PUSH2 0x585 JUMP JUMPDEST JUMPDEST PUSH2 0x73E DUP6 DUP3 DUP7 ADD PUSH2 0x6A2 JUMP JUMPDEST SWAP2 POP POP SWAP3 POP SWAP3 SWAP1 POP JUMP JUMPDEST PUSH1 0x0 DUP2 SWAP1 POP SWAP2 SWAP1 POP JUMP JUMPDEST PUSH2 0x75B DUP2 PUSH2 0x748 JUMP JUMPDEST DUP3 MSTORE POP POP JUMP JUMPDEST PUSH1 0x0 PUSH1 0x20 DUP3 ADD SWAP1 POP PUSH2 0x776 PUSH1 0x0 DUP4 ADD DUP5 PUSH2 0x752 JUMP JUMPDEST SWAP3 SWAP2 POP POP JUMP JUMPDEST PUSH2 0x785 DUP2 PUSH2 0x748 JUMP JUMPDEST DUP2 EQ PUSH2 0x790 JUMPI PUSH1 0x0 DUP1 REVERT JUMPDEST POP JUMP JUMPDEST PUSH1 0x0 DUP2 CALLDATALOAD SWAP1 POP PUSH2 0x7A2 DUP2 PUSH2 0x77C JUMP JUMPDEST SWAP3 SWAP2 POP POP JUMP JUMPDEST PUSH1 0x0 PUSH1 0x20 DUP3 DUP5 SUB SLT ISZERO PUSH2 0x7BE JUMPI PUSH2 0x7BD PUSH2 0x580 JUMP JUMPDEST JUMPDEST PUSH1 0x0 PUSH2 0x7CC DUP5 DUP3 DUP6 ADD PUSH2 0x793 JUMP JUMPDEST SWAP2 POP POP SWAP3 SWAP2 POP POP JUMP JUMPDEST PUSH1 0x0 DUP2 MLOAD SWAP1 POP SWAP2 SWAP1 POP JUMP JUMPDEST PUSH1 0x0 DUP3 DUP3 MSTORE PUSH1 0x20 DUP3 ADD SWAP1 POP SWAP3 SWAP2 POP POP JUMP JUMPDEST PUSH1 0x0 JUMPDEST DUP4 DUP2 LT ISZERO PUSH2 0x80F JUMPI DUP1 DUP3 ADD MLOAD DUP2 DUP5 ADD MSTORE PUSH1 0x20 DUP2 ADD SWAP1 POP PUSH2 0x7F4 JUMP JUMPDEST PUSH1 0x0 DUP5 DUP5 ADD MSTORE POP POP POP POP JUMP JUMPDEST PUSH1 0x0 PUSH2 0x826 DUP3 PUSH2 0x7D5 JUMP JUMPDEST PUSH2 0x830 DUP2 DUP6 PUSH2 0x7E0 JUMP JUMPDEST SWAP4 POP PUSH2 0x840 DUP2 DUP6 PUSH1 0x20 DUP7 ADD PUSH2 0x7F1 JUMP JUMPDEST PUSH2 0x849 DUP2 PUSH2 0x594 JUMP JUMPDEST DUP5 ADD SWAP2 POP POP SWAP3 SWAP2 POP POP JUMP JUMPDEST PUSH1 0x0 DUP2 ISZERO ISZERO SWAP1 POP SWAP2 SWAP1 POP JUMP JUMPDEST PUSH2 0x869 DUP2 PUSH2 0x854 JUMP JUMPDEST DUP3 MSTORE POP POP JUMP JUMPDEST PUSH1 0x0 PUSH1 0xA0 DUP3 ADD SWAP1 POP PUSH2 0x884 PUSH1 0x0 DUP4 ADD DUP9 PUSH2 0x752 JUMP JUMPDEST DUP2 DUP2 SUB PUSH1 0x20 DUP4 ADD MSTORE PUSH2 0x896 DUP2 DUP8 PUSH2 0x81B JUMP JUMPDEST SWAP1 POP DUP2 DUP2 SUB PUSH1 0x40 DUP4 ADD MSTORE PUSH2 0x8AA DUP2 DUP7 PUSH2 0x81B JUMP JUMPDEST SWAP1 POP PUSH2 0x8B9 PUSH1 0x60 DUP4 ADD DUP6 PUSH2 0x860 JUMP JUMPDEST PUSH2 0x8C6 PUSH1 0x80 DUP4 ADD DUP5 PUSH2 0x752 JUMP JUMPDEST SWAP7 SWAP6 POP POP POP POP POP POP JUMP JUMPDEST PUSH32 0x4E487B7100000000000000000000000000000000000000000000000000000000 PUSH1 0x0 MSTORE PUSH1 0x11 PUSH1 0x4 MSTORE PUSH1 0x24 PUSH1 0x0 REVERT JUMPDEST PUSH1 0x0 PUSH2 0x90A DUP3 PUSH2 0x748 JUMP JUMPDEST SWAP2 POP PUSH32 0xFFFFFFFFFFFFFFFFFFFFFFFFFFFFFFFFFFFFFFFFFFFFFFFFFFFFFFFFFFFFFFFF DUP3 SUB PUSH2 0x93C JUMPI PUSH2 0x93B PUSH2 0x8D0 JUMP JUMPDEST JUMPDEST PUSH1 0x1 DUP3 ADD SWAP1 POP SWAP2 SWAP1 POP JUMP JUMPDEST PUSH32 0x4E487B7100000000000000000000000000000000000000000000000000000000 PUSH1 0x0 MSTORE PUSH1 0x22 PUSH1 0x4 MSTORE PUSH1 0x24 PUSH1 0x0 REVERT JUMPDEST PUSH1 0x0 PUSH1 0x2 DUP3 DIV SWAP1 POP PUSH1 0x1 DUP3 AND DUP1 PUSH2 0x98E JUMPI PUSH1 0x7F DUP3 AND SWAP2 POP JUMPDEST PUSH1 0x20 DUP3 LT DUP2 SUB PUSH2 0x9A1 JUMPI PUSH2 0x9A0 PUSH2 0x947 JUMP JUMPDEST JUMPDEST POP SWAP2 SWAP1 POP JUMP JUMPDEST PUSH1 0x0 DUP2 SWAP1 POP DUP2 PUSH1 0x0 MSTORE PUSH1 0x20 PUSH1 0x0 KECCAK256 SWAP1 POP SWAP2 SWAP1 POP JUMP JUMPDEST PUSH1 0x0 PUSH1 0x20 PUSH1 0x1F DUP4 ADD DIV SWAP1 POP SWAP2 SWAP1 POP JUMP JUMPDEST PUSH1 0x0 DUP3 DUP3 SHL SWAP1 POP SWAP3 SWAP2 POP POP JUMP JUMPDEST PUSH1 0x0 PUSH1 0x8 DUP4 MUL PUSH2 0xA09 PUSH32 0xFFFFFFFFFFFFFFFFFFFFFFFFFFFFFFFFFFFFFFFFFFFFFFFFFFFFFFFFFFFFFFFF DUP3 PUSH2 0x9CC JUMP JUMPDEST PUSH2 0xA13 DUP7 DUP4 PUSH2 0x9CC JUMP JUMPDEST SWAP6 POP DUP1 NOT DUP5 AND SWAP4 POP DUP1 DUP7 AND DUP5 OR SWAP3 POP POP POP SWAP4 SWAP3 POP POP POP JUMP JUMPDEST PUSH1 0x0 DUP2 SWAP1 POP SWAP2 SWAP1 POP JUMP JUMPDEST PUSH1 0x0 PUSH2 0xA50 PUSH2 0xA4B PUSH2 0xA46 DUP5 PUSH2 0x748 JUMP JUMPDEST PUSH2 0xA2B JUMP JUMPDEST PUSH2 0x748 JUMP JUMPDEST SWAP1 POP SWAP2 SWAP1 POP JUMP JUMPDEST PUSH1 0x0 DUP2 SWAP1 POP SWAP2 SWAP1 POP JUMP JUMPDEST PUSH2 0xA6A DUP4 PUSH2 0xA35 JUMP JUMPDEST PUSH2 0xA7E PUSH2 0xA76 DUP3 PUSH2 0xA57 JUMP JUMPDEST DUP5 DUP5 SLOAD PUSH2 0x9D9 JUMP JUMPDEST DUP3 SSTORE POP POP POP POP JUMP JUMPDEST PUSH1 0x0 SWAP1 JUMP JUMPDEST PUSH2 0xA93 PUSH2 0xA86 JUMP JUMPDEST PUSH2 0xA9E DUP2 DUP5 DUP5 PUSH2 0xA61 JUMP JUMPDEST POP POP POP JUMP JUMPDEST JUMPDEST DUP2 DUP2 LT ISZERO PUSH2 0xAC2 JUMPI PUSH2 0xAB7 PUSH1 0x0 DUP3 PUSH2 0xA8B JUMP JUMPDEST PUSH1 0x1 DUP2 ADD SWAP1 POP PUSH2 0xAA4 JUMP JUMPDEST POP POP JUMP JUMPDEST PUSH1 0x1F DUP3 GT ISZERO PUSH2 0xB07 JUMPI PUSH2 0xAD8 DUP2 PUSH2 0x9A7 JUMP JUMPDEST PUSH2 0xAE1 DUP5 PUSH2 0x9BC JUMP JUMPDEST DUP2 ADD PUSH1 0x20 DUP6 LT ISZERO PUSH2 0xAF0 JUMPI DUP2 SWAP1 POP JUMPDEST PUSH2 0xB04 PUSH2 0xAFC DUP6 PUSH2 0x9BC JUMP JUMPDEST DUP4 ADD DUP3 PUSH2 0xAA3 JUMP JUMPDEST POP POP JUMPDEST POP POP POP JUMP JUMPDEST PUSH1 0x0 DUP3 DUP3 SHR SWAP1 POP SWAP3 SWAP2 POP POP JUMP JUMPDEST PUSH1 0x0 PUSH2 0xB2A PUSH1 0x0 NOT DUP5 PUSH1 0x8 MUL PUSH2 0xB0C JUMP JUMPDEST NOT DUP1 DUP4 AND SWAP2 POP POP SWAP3 SWAP2 POP POP JUMP JUMPDEST PUSH1 0x0 PUSH2 0xB43 DUP4 DUP4 PUSH2 0xB19 JUMP JUMPDEST SWAP2 POP DUP3 PUSH1 0x2 MUL DUP3 OR SWAP1 POP SWAP3 SWAP2 POP POP JUMP JUMPDEST PUSH2 0xB5C DUP3 PUSH2 0x7D5 JUMP JUMPDEST PUSH8 0xFFFFFFFFFFFFFFFF DUP2 GT ISZERO PUSH2 0xB75 JUMPI PUSH2 0xB74 PUSH2 0x5A5 JUMP JUMPDEST JUMPDEST PUSH2 0xB7F DUP3 SLOAD PUSH2 0x976 JUMP JUMPDEST PUSH2 0xB8A DUP3 DUP3 DUP6 PUSH2 0xAC6 JUMP JUMPDEST PUSH1 0x0 PUSH1 0x20 SWAP1 POP PUSH1 0x1F DUP4 GT PUSH1 0x1 DUP2 EQ PUSH2 0xBBD JUMPI PUSH1 0x0 DUP5 ISZERO PUSH2 0xBAB JUMPI DUP3 DUP8 ADD MLOAD SWAP1 POP JUMPDEST PUSH2 0xBB5 DUP6 DUP3 PUSH2 0xB37 JUMP JUMPDEST DUP7 SSTORE POP PUSH2 0xC1D JUMP JUMPDEST PUSH1 0x1F NOT DUP5 AND PUSH2 0xBCB DUP7 PUSH2 0x9A7 JUMP JUMPDEST PUSH1 0x0 JUMPDEST DUP3 DUP2 LT ISZERO PUSH2 0xBF3 JUMPI DUP5 DUP10 ADD MLOAD DUP3 SSTORE PUSH1 0x1 DUP3 ADD SWAP2 POP PUSH1 0x20 DUP6 ADD SWAP5 POP PUSH1 0x20 DUP2 ADD SWAP1 POP PUSH2 0xBCE JUMP JUMPDEST DUP7 DUP4 LT ISZERO PUSH2 0xC10 JUMPI DUP5 DUP10 ADD MLOAD PUSH2 0xC0C PUSH1 0x1F DUP10 AND DUP3 PUSH2 0xB19 JUMP JUMPDEST DUP4 SSTORE POP JUMPDEST PUSH1 0x1 PUSH1 0x2 DUP9 MUL ADD DUP9 SSTORE POP POP POP JUMPDEST POP POP POP POP POP POP JUMP JUMPDEST PUSH1 0x0 PUSH1 0x40 DUP3 ADD SWAP1 POP PUSH2 0xC3A PUSH1 0x0 DUP4 ADD DUP6 PUSH2 0x752 JUMP JUMPDEST PUSH2 0xC47 PUSH1 0x20 DUP4 ADD DUP5 PUSH2 0x860 JUMP JUMPDEST SWAP4 SWAP3 POP POP POP JUMP INVALID LOG2 PUSH5 0x6970667358 0x22 SLT KECCAK256 0xEC PUSH30 0x436BE86A61D5FE831163B7019310CE5AFB38208153F44FB04770CE8F7515 PUSH5 0x736F6C6343 STOP ADDMOD SLT STOP CALLER "
				},
				"gasEstimates": {
					"creation": {
						"codeDepositCost": "640800",
						"executionCost": "5682",
						"totalCost": "646482"
					},
					"external": {
						"cambioEstado(uint256)": "infinite",
						"createTask(string,string)": "infinite",
						"taskCounter()": "2429",
						"tasks(uint256)": "infinite"
					}
				},
				"methodIdentifiers": {
					"cambioEstado(uint256)": "a49eefa0",
					"createTask(string,string)": "292a4585",
					"taskCounter()": "58671730",
					"tasks(uint256)": "8d977672"
				}
			},
			"storageLayout": {
				"storage": [
					{
						"astId": 4,
						"contract": "contracts/credencialesUsuarios.sol:TaskContract",
						"label": "taskCounter",
						"offset": 0,
						"slot": "0",
						"type": "t_uint256"
					},
					{
						"astId": 38,
						"contract": "contracts/credencialesUsuarios.sol:TaskContract",
						"label": "tasks",
						"offset": 0,
						"slot": "1",
						"type": "t_mapping(t_uint256,t_struct(Task)33_storage)"
					}
				],
				"types": {
					"t_bool": {
						"encoding": "inplace",
						"label": "bool",
						"numberOfBytes": "1"
					},
					"t_mapping(t_uint256,t_struct(Task)33_storage)": {
						"encoding": "mapping",
						"key": "t_uint256",
						"label": "mapping(uint256 => struct TaskContract.Task)",
						"numberOfBytes": "32",
						"value": "t_struct(Task)33_storage"
					},
					"t_string_storage": {
						"encoding": "bytes",
						"label": "string",
						"numberOfBytes": "32"
					},
					"t_struct(Task)33_storage": {
						"encoding": "inplace",
						"label": "struct TaskContract.Task",
						"members": [
							{
								"astId": 24,
								"contract": "contracts/credencialesUsuarios.sol:TaskContract",
								"label": "id",
								"offset": 0,
								"slot": "0",
								"type": "t_uint256"
							},
							{
								"astId": 26,
								"contract": "contracts/credencialesUsuarios.sol:TaskContract",
								"label": "title",
								"offset": 0,
								"slot": "1",
								"type": "t_string_storage"
							},
							{
								"astId": 28,
								"contract": "contracts/credencialesUsuarios.sol:TaskContract",
								"label": "description",
								"offset": 0,
								"slot": "2",
								"type": "t_string_storage"
							},
							{
								"astId": 30,
								"contract": "contracts/credencialesUsuarios.sol:TaskContract",
								"label": "done",
								"offset": 0,
								"slot": "3",
								"type": "t_bool"
							},
							{
								"astId": 32,
								"contract": "contracts/credencialesUsuarios.sol:TaskContract",
								"label": "creatAt",
								"offset": 0,
								"slot": "4",
								"type": "t_uint256"
							}
						],
						"numberOfBytes": "160"
					},
					"t_uint256": {
						"encoding": "inplace",
						"label": "uint256",
						"numberOfBytes": "32"
					}
				}
			},
			"userdoc": {
				"kind": "user",
				"methods": {},
				"version": 1
			}
		}
	}
}