{
	"contracts/donacionesOrg.sol": {
		"donacionesOrg": {
			"abi": [
				{
					"inputs": [],
					"stateMutability": "nonpayable",
					"type": "constructor"
				},
				{
					"anonymous": false,
					"inputs": [
						{
							"indexed": false,
							"internalType": "address",
							"name": "donante",
							"type": "address"
						},
						{
							"indexed": false,
							"internalType": "address",
							"name": "caridad",
							"type": "address"
						},
						{
							"indexed": false,
							"internalType": "uint256",
							"name": "cantidad",
							"type": "uint256"
						}
					],
					"name": "DonacionRealizada",
					"type": "event"
				},
				{
					"anonymous": false,
					"inputs": [
						{
							"indexed": false,
							"internalType": "address",
							"name": "caridad",
							"type": "address"
						},
						{
							"indexed": false,
							"internalType": "string",
							"name": "nombre",
							"type": "string"
						}
					],
					"name": "registroOrganizacion",
					"type": "event"
				},
				{
					"inputs": [
						{
							"internalType": "uint256",
							"name": "",
							"type": "uint256"
						}
					],
					"name": "Organizaciones",
					"outputs": [
						{
							"internalType": "string",
							"name": "nombre",
							"type": "string"
						},
						{
							"internalType": "address",
							"name": "direccion",
							"type": "address"
						}
					],
					"stateMutability": "view",
					"type": "function"
				},
				{
					"inputs": [],
					"name": "contadorOrganizaciones",
					"outputs": [
						{
							"internalType": "uint256",
							"name": "",
							"type": "uint256"
						}
					],
					"stateMutability": "view",
					"type": "function"
				},
				{
					"inputs": [],
					"name": "direccionProhibida",
					"outputs": [
						{
							"internalType": "address",
							"name": "",
							"type": "address"
						}
					],
					"stateMutability": "view",
					"type": "function"
				},
				{
					"inputs": [
						{
							"internalType": "address",
							"name": "",
							"type": "address"
						}
					],
					"name": "direccionRegistrada",
					"outputs": [
						{
							"internalType": "bool",
							"name": "",
							"type": "bool"
						}
					],
					"stateMutability": "view",
					"type": "function"
				},
				{
					"inputs": [
						{
							"internalType": "address",
							"name": "_caridad",
							"type": "address"
						},
						{
							"internalType": "uint256",
							"name": "_cantidad",
							"type": "uint256"
						}
					],
					"name": "donar",
					"outputs": [],
					"stateMutability": "payable",
					"type": "function"
				},
				{
					"inputs": [
						{
							"internalType": "address",
							"name": "",
							"type": "address"
						}
					],
					"name": "organizacionesBeneficas",
					"outputs": [
						{
							"internalType": "string",
							"name": "",
							"type": "string"
						}
					],
					"stateMutability": "view",
					"type": "function"
				},
				{
					"inputs": [],
					"name": "propietario",
					"outputs": [
						{
							"internalType": "address",
							"name": "",
							"type": "address"
						}
					],
					"stateMutability": "view",
					"type": "function"
				},
				{
					"inputs": [
						{
							"internalType": "string",
							"name": "_nombre",
							"type": "string"
						},
						{
							"internalType": "address",
							"name": "_direccion",
							"type": "address"
						}
					],
					"name": "registrarOrganizacion",
					"outputs": [],
					"stateMutability": "nonpayable",
					"type": "function"
				}
			],
			"devdoc": {
				"kind": "dev",
				"methods": {},
				"version": 1
			},
			"evm": {
				"assembly": "    /* \"contracts/donacionesOrg.sol\":70:2675  contract donacionesOrg {... */\n  mstore(0x40, 0x80)\n    /* \"contracts/donacionesOrg.sol\":214:331  constructor() {... */\n  callvalue\n  dup1\n  iszero\n  tag_1\n  jumpi\n  0x00\n  dup1\n  revert\ntag_1:\n  pop\n    /* \"contracts/donacionesOrg.sol\":252:262  msg.sender */\n  caller\n    /* \"contracts/donacionesOrg.sol\":238:249  propietario */\n  0x00\n  dup1\n    /* \"contracts/donacionesOrg.sol\":238:262  propietario = msg.sender */\n  0x0100\n  exp\n  dup2\n  sload\n  dup2\n  0xffffffffffffffffffffffffffffffffffffffff\n  mul\n  not\n  and\n  swap1\n  dup4\n  0xffffffffffffffffffffffffffffffffffffffff\n  and\n  mul\n  or\n  swap1\n  sstore\n  pop\n    /* \"contracts/donacionesOrg.sol\":272:294  contadorOrganizaciones */\n  0x01\n  0x00\n    /* \"contracts/donacionesOrg.sol\":272:296  contadorOrganizaciones++ */\n  dup2\n  sload\n  dup1\n  swap3\n  swap2\n  swap1\n  tag_4\n  swap1\n  tag_5\n  jump\t// in\ntag_4:\n  swap2\n  swap1\n  pop\n  sstore\n  pop\n    /* \"contracts/donacionesOrg.sol\":306:324  direccionProhibida */\n  0x02\n  0x00\n  swap1\n  sload\n  swap1\n  0x0100\n  exp\n  swap1\n  pop\n  pop\n    /* \"contracts/donacionesOrg.sol\":70:2675  contract donacionesOrg {... */\n  jump(tag_6)\n    /* \"#utility.yul\":7:187   */\ntag_7:\n    /* \"#utility.yul\":55:132   */\n  0x4e487b7100000000000000000000000000000000000000000000000000000000\n    /* \"#utility.yul\":52:53   */\n  0x00\n    /* \"#utility.yul\":45:133   */\n  mstore\n    /* \"#utility.yul\":152:156   */\n  0x11\n    /* \"#utility.yul\":149:150   */\n  0x04\n    /* \"#utility.yul\":142:157   */\n  mstore\n    /* \"#utility.yul\":176:180   */\n  0x24\n    /* \"#utility.yul\":173:174   */\n  0x00\n    /* \"#utility.yul\":166:181   */\n  revert\n    /* \"#utility.yul\":193:270   */\ntag_8:\n    /* \"#utility.yul\":230:237   */\n  0x00\n    /* \"#utility.yul\":259:264   */\n  dup2\n    /* \"#utility.yul\":248:264   */\n  swap1\n  pop\n    /* \"#utility.yul\":193:270   */\n  swap2\n  swap1\n  pop\n  jump\t// out\n    /* \"#utility.yul\":276:509   */\ntag_5:\n    /* \"#utility.yul\":315:318   */\n  0x00\n    /* \"#utility.yul\":338:362   */\n  tag_13\n    /* \"#utility.yul\":356:361   */\n  dup3\n    /* \"#utility.yul\":338:362   */\n  tag_8\n  jump\t// in\ntag_13:\n    /* \"#utility.yul\":329:362   */\n  swap2\n  pop\n    /* \"#utility.yul\":384:450   */\n  0xffffffffffffffffffffffffffffffffffffffffffffffffffffffffffffffff\n    /* \"#utility.yul\":377:382   */\n  dup3\n    /* \"#utility.yul\":374:451   */\n  sub\n    /* \"#utility.yul\":371:474   */\n  tag_14\n  jumpi\n    /* \"#utility.yul\":454:472   */\n  tag_15\n  tag_7\n  jump\t// in\ntag_15:\n    /* \"#utility.yul\":371:474   */\ntag_14:\n    /* \"#utility.yul\":501:502   */\n  0x01\n    /* \"#utility.yul\":494:499   */\n  dup3\n    /* \"#utility.yul\":490:503   */\n  add\n    /* \"#utility.yul\":483:503   */\n  swap1\n  pop\n    /* \"#utility.yul\":276:509   */\n  swap2\n  swap1\n  pop\n  jump\t// out\n    /* \"contracts/donacionesOrg.sol\":70:2675  contract donacionesOrg {... */\ntag_6:\n  dataSize(sub_0)\n  dup1\n  dataOffset(sub_0)\n  0x00\n  codecopy\n  0x00\n  return\nstop\n\nsub_0: assembly {\n        /* \"contracts/donacionesOrg.sol\":70:2675  contract donacionesOrg {... */\n      mstore(0x40, 0x80)\n      jumpi(tag_1, lt(calldatasize, 0x04))\n      shr(0xe0, calldataload(0x00))\n      dup1\n      0x439e04e4\n      gt\n      tag_10\n      jumpi\n      dup1\n      0x439e04e4\n      eq\n      tag_6\n      jumpi\n      dup1\n      0x8f764ac4\n      eq\n      tag_7\n      jumpi\n      dup1\n      0xa71c7ca4\n      eq\n      tag_8\n      jumpi\n      dup1\n      0xf124516a\n      eq\n      tag_9\n      jumpi\n      jump(tag_1)\n    tag_10:\n      dup1\n      0x07a4f5a7\n      eq\n      tag_2\n      jumpi\n      dup1\n      0x1a78db75\n      eq\n      tag_3\n      jumpi\n      dup1\n      0x2a306d74\n      eq\n      tag_4\n      jumpi\n      dup1\n      0x3c4f81cd\n      eq\n      tag_5\n      jumpi\n    tag_1:\n      0x00\n      dup1\n      revert\n        /* \"contracts/donacionesOrg.sol\":428:485  mapping(address => string) public organizacionesBeneficas */\n    tag_2:\n      callvalue\n      dup1\n      iszero\n      tag_11\n      jumpi\n      0x00\n      dup1\n      revert\n    tag_11:\n      pop\n      tag_12\n      0x04\n      dup1\n      calldatasize\n      sub\n      dup2\n      add\n      swap1\n      tag_13\n      swap2\n      swap1\n      tag_14\n      jump\t// in\n    tag_13:\n      tag_15\n      jump\t// in\n    tag_12:\n      mload(0x40)\n      tag_16\n      swap2\n      swap1\n      tag_17\n      jump\t// in\n    tag_16:\n      mload(0x40)\n      dup1\n      swap2\n      sub\n      swap1\n      return\n        /* \"contracts/donacionesOrg.sol\":491:542  mapping(address => bool) public direccionRegistrada */\n    tag_3:\n      callvalue\n      dup1\n      iszero\n      tag_18\n      jumpi\n      0x00\n      dup1\n      revert\n    tag_18:\n      pop\n      tag_19\n      0x04\n      dup1\n      calldatasize\n      sub\n      dup2\n      add\n      swap1\n      tag_20\n      swap2\n      swap1\n      tag_14\n      jump\t// in\n    tag_20:\n      tag_21\n      jump\t// in\n    tag_19:\n      mload(0x40)\n      tag_22\n      swap2\n      swap1\n      tag_23\n      jump\t// in\n    tag_22:\n      mload(0x40)\n      dup1\n      swap2\n      sub\n      swap1\n      return\n        /* \"contracts/donacionesOrg.sol\":1718:2673  function donar(address _caridad, uint _cantidad) public payable {... */\n    tag_4:\n      tag_24\n      0x04\n      dup1\n      calldatasize\n      sub\n      dup2\n      add\n      swap1\n      tag_25\n      swap2\n      swap1\n      tag_26\n      jump\t// in\n    tag_25:\n      tag_27\n      jump\t// in\n    tag_24:\n      stop\n        /* \"contracts/donacionesOrg.sol\":99:125  address public propietario */\n    tag_5:\n      callvalue\n      dup1\n      iszero\n      tag_28\n      jumpi\n      0x00\n      dup1\n      revert\n    tag_28:\n      pop\n      tag_29\n      tag_30\n      jump\t// in\n    tag_29:\n      mload(0x40)\n      tag_31\n      swap2\n      swap1\n      tag_32\n      jump\t// in\n    tag_31:\n      mload(0x40)\n      dup1\n      swap2\n      sub\n      swap1\n      return\n        /* \"contracts/donacionesOrg.sol\":924:978  mapping(uint256 => Organizacion) public Organizaciones */\n    tag_6:\n      callvalue\n      dup1\n      iszero\n      tag_33\n      jumpi\n      0x00\n      dup1\n      revert\n    tag_33:\n      pop\n      tag_34\n      0x04\n      dup1\n      calldatasize\n      sub\n      dup2\n      add\n      swap1\n      tag_35\n      swap2\n      swap1\n      tag_36\n      jump\t// in\n    tag_35:\n      tag_37\n      jump\t// in\n    tag_34:\n      mload(0x40)\n      tag_38\n      swap3\n      swap2\n      swap1\n      tag_39\n      jump\t// in\n    tag_38:\n      mload(0x40)\n      dup1\n      swap2\n      sub\n      swap1\n      return\n        /* \"contracts/donacionesOrg.sol\":174:207  address public direccionProhibida */\n    tag_7:\n      callvalue\n      dup1\n      iszero\n      tag_40\n      jumpi\n      0x00\n      dup1\n      revert\n    tag_40:\n      pop\n      tag_41\n      tag_42\n      jump\t// in\n    tag_41:\n      mload(0x40)\n      tag_43\n      swap2\n      swap1\n      tag_32\n      jump\t// in\n    tag_43:\n      mload(0x40)\n      dup1\n      swap2\n      sub\n      swap1\n      return\n        /* \"contracts/donacionesOrg.sol\":131:168  uint256 public contadorOrganizaciones */\n    tag_8:\n      callvalue\n      dup1\n      iszero\n      tag_44\n      jumpi\n      0x00\n      dup1\n      revert\n    tag_44:\n      pop\n      tag_45\n      tag_46\n      jump\t// in\n    tag_45:\n      mload(0x40)\n      tag_47\n      swap2\n      swap1\n      tag_48\n      jump\t// in\n    tag_47:\n      mload(0x40)\n      dup1\n      swap2\n      sub\n      swap1\n      return\n        /* \"contracts/donacionesOrg.sol\":985:1549  function registrarOrganizacion(string memory _nombre, address _direccion) public {... */\n    tag_9:\n      callvalue\n      dup1\n      iszero\n      tag_49\n      jumpi\n      0x00\n      dup1\n      revert\n    tag_49:\n      pop\n      tag_50\n      0x04\n      dup1\n      calldatasize\n      sub\n      dup2\n      add\n      swap1\n      tag_51\n      swap2\n      swap1\n      tag_52\n      jump\t// in\n    tag_51:\n      tag_53\n      jump\t// in\n    tag_50:\n      stop\n        /* \"contracts/donacionesOrg.sol\":428:485  mapping(address => string) public organizacionesBeneficas */\n    tag_15:\n      mstore(0x20, 0x03)\n      dup1\n      0x00\n      mstore\n      keccak256(0x00, 0x40)\n      0x00\n      swap2\n      pop\n      swap1\n      pop\n      dup1\n      sload\n      tag_54\n      swap1\n      tag_55\n      jump\t// in\n    tag_54:\n      dup1\n      0x1f\n      add\n      0x20\n      dup1\n      swap2\n      div\n      mul\n      0x20\n      add\n      mload(0x40)\n      swap1\n      dup2\n      add\n      0x40\n      mstore\n      dup1\n      swap3\n      swap2\n      swap1\n      dup2\n      dup2\n      mstore\n      0x20\n      add\n      dup3\n      dup1\n      sload\n      tag_56\n      swap1\n      tag_55\n      jump\t// in\n    tag_56:\n      dup1\n      iszero\n      tag_57\n      jumpi\n      dup1\n      0x1f\n      lt\n      tag_58\n      jumpi\n      0x0100\n      dup1\n      dup4\n      sload\n      div\n      mul\n      dup4\n      mstore\n      swap2\n      0x20\n      add\n      swap2\n      jump(tag_57)\n    tag_58:\n      dup3\n      add\n      swap2\n      swap1\n      0x00\n      mstore\n      keccak256(0x00, 0x20)\n      swap1\n    tag_59:\n      dup2\n      sload\n      dup2\n      mstore\n      swap1\n      0x01\n      add\n      swap1\n      0x20\n      add\n      dup1\n      dup4\n      gt\n      tag_59\n      jumpi\n      dup3\n      swap1\n      sub\n      0x1f\n      and\n      dup3\n      add\n      swap2\n    tag_57:\n      pop\n      pop\n      pop\n      pop\n      pop\n      dup2\n      jump\t// out\n        /* \"contracts/donacionesOrg.sol\":491:542  mapping(address => bool) public direccionRegistrada */\n    tag_21:\n      mstore(0x20, 0x04)\n      dup1\n      0x00\n      mstore\n      keccak256(0x00, 0x40)\n      0x00\n      swap2\n      pop\n      sload\n      swap1\n      0x0100\n      exp\n      swap1\n      div\n      0xff\n      and\n      dup2\n      jump\t// out\n        /* \"contracts/donacionesOrg.sol\":1718:2673  function donar(address _caridad, uint _cantidad) public payable {... */\n    tag_27:\n        /* \"contracts/donacionesOrg.sol\":1887:1896  _cantidad */\n      dup1\n        /* \"contracts/donacionesOrg.sol\":1874:1883  msg.value */\n      callvalue\n        /* \"contracts/donacionesOrg.sol\":1874:1896  msg.value == _cantidad */\n      eq\n        /* \"contracts/donacionesOrg.sol\":1866:1949  require(msg.value == _cantidad, \"La donacion debe ser igual a la cantidad enviada\") */\n      tag_61\n      jumpi\n      mload(0x40)\n      0x08c379a000000000000000000000000000000000000000000000000000000000\n      dup2\n      mstore\n      0x04\n      add\n      tag_62\n      swap1\n      tag_63\n      jump\t// in\n    tag_62:\n      mload(0x40)\n      dup1\n      swap2\n      sub\n      swap1\n      revert\n    tag_61:\n        /* \"contracts/donacionesOrg.sol\":2043:2044  0 */\n      0x00\n        /* \"contracts/donacionesOrg.sol\":2031:2040  _cantidad */\n      dup2\n        /* \"contracts/donacionesOrg.sol\":2031:2044  _cantidad > 0 */\n      gt\n        /* \"contracts/donacionesOrg.sol\":2023:2087  require(_cantidad > 0, \"La donacion debe ser un valor positivo\") */\n      tag_64\n      jumpi\n      mload(0x40)\n      0x08c379a000000000000000000000000000000000000000000000000000000000\n      dup2\n      mstore\n      0x04\n      add\n      tag_65\n      swap1\n      tag_66\n      jump\t// in\n    tag_65:\n      mload(0x40)\n      dup1\n      swap2\n      sub\n      swap1\n      revert\n    tag_64:\n        /* \"contracts/donacionesOrg.sol\":2229:2230  0 */\n      0x00\n        /* \"contracts/donacionesOrg.sol\":2185:2208  organizacionesBeneficas */\n      0x03\n        /* \"contracts/donacionesOrg.sol\":2185:2218  organizacionesBeneficas[_caridad] */\n      0x00\n        /* \"contracts/donacionesOrg.sol\":2209:2217  _caridad */\n      dup5\n        /* \"contracts/donacionesOrg.sol\":2185:2218  organizacionesBeneficas[_caridad] */\n      0xffffffffffffffffffffffffffffffffffffffff\n      and\n      0xffffffffffffffffffffffffffffffffffffffff\n      and\n      dup2\n      mstore\n      0x20\n      add\n      swap1\n      dup2\n      mstore\n      0x20\n      add\n      0x00\n      keccak256\n        /* \"contracts/donacionesOrg.sol\":2179:2226  bytes(organizacionesBeneficas[_caridad]).length */\n      dup1\n      sload\n      tag_67\n      swap1\n      tag_55\n      jump\t// in\n    tag_67:\n      swap1\n      pop\n        /* \"contracts/donacionesOrg.sol\":2179:2230  bytes(organizacionesBeneficas[_caridad]).length > 0 */\n      gt\n        /* \"contracts/donacionesOrg.sol\":2171:2280  require(bytes(organizacionesBeneficas[_caridad]).length > 0, \"La organizacion de caridad no esta registrada\") */\n      tag_68\n      jumpi\n      mload(0x40)\n      0x08c379a000000000000000000000000000000000000000000000000000000000\n      dup2\n      mstore\n      0x04\n      add\n      tag_69\n      swap1\n      tag_70\n      jump\t// in\n    tag_69:\n      mload(0x40)\n      dup1\n      swap2\n      sub\n      swap1\n      revert\n    tag_68:\n        /* \"contracts/donacionesOrg.sol\":2383:2401  direccionProhibida */\n      0x02\n      0x00\n      swap1\n      sload\n      swap1\n      0x0100\n      exp\n      swap1\n      div\n      0xffffffffffffffffffffffffffffffffffffffff\n      and\n        /* \"contracts/donacionesOrg.sol\":2369:2401  msg.sender != direccionProhibida */\n      0xffffffffffffffffffffffffffffffffffffffff\n      and\n        /* \"contracts/donacionesOrg.sol\":2369:2379  msg.sender */\n      caller\n        /* \"contracts/donacionesOrg.sol\":2369:2401  msg.sender != direccionProhibida */\n      0xffffffffffffffffffffffffffffffffffffffff\n      and\n      sub\n        /* \"contracts/donacionesOrg.sol\":2361:2435  require(msg.sender != direccionProhibida, \"Esta direccion esta prohibida\") */\n      tag_71\n      jumpi\n      mload(0x40)\n      0x08c379a000000000000000000000000000000000000000000000000000000000\n      dup2\n      mstore\n      0x04\n      add\n      tag_72\n      swap1\n      tag_73\n      jump\t// in\n    tag_72:\n      mload(0x40)\n      dup1\n      swap2\n      sub\n      swap1\n      revert\n    tag_71:\n        /* \"contracts/donacionesOrg.sol\":2531:2539  _caridad */\n      dup2\n        /* \"contracts/donacionesOrg.sol\":2523:2549  payable(_caridad).transfer */\n      0xffffffffffffffffffffffffffffffffffffffff\n      and\n        /* \"contracts/donacionesOrg.sol\":2523:2560  payable(_caridad).transfer(_cantidad) */\n      0x08fc\n        /* \"contracts/donacionesOrg.sol\":2550:2559  _cantidad */\n      dup3\n        /* \"contracts/donacionesOrg.sol\":2523:2560  payable(_caridad).transfer(_cantidad) */\n      swap1\n      dup2\n      iszero\n      mul\n      swap1\n      mload(0x40)\n      0x00\n      mload(0x40)\n      dup1\n      dup4\n      sub\n      dup2\n      dup6\n      dup9\n      dup9\n      call\n      swap4\n      pop\n      pop\n      pop\n      pop\n      iszero\n      dup1\n      iszero\n      tag_75\n      jumpi\n      returndatasize\n      0x00\n      dup1\n      returndatacopy\n      revert(0x00, returndatasize)\n    tag_75:\n      pop\n        /* \"contracts/donacionesOrg.sol\":2616:2666  DonacionRealizada(msg.sender, _caridad, _cantidad) */\n      0x2f641ba41d9ffcd1429d0ba546668473c4ca6ce96378f7df063a257fbf5a6d8d\n        /* \"contracts/donacionesOrg.sol\":2634:2644  msg.sender */\n      caller\n        /* \"contracts/donacionesOrg.sol\":2646:2654  _caridad */\n      dup4\n        /* \"contracts/donacionesOrg.sol\":2656:2665  _cantidad */\n      dup4\n        /* \"contracts/donacionesOrg.sol\":2616:2666  DonacionRealizada(msg.sender, _caridad, _cantidad) */\n      mload(0x40)\n      tag_76\n      swap4\n      swap3\n      swap2\n      swap1\n      tag_77\n      jump\t// in\n    tag_76:\n      mload(0x40)\n      dup1\n      swap2\n      sub\n      swap1\n      log1\n        /* \"contracts/donacionesOrg.sol\":1718:2673  function donar(address _caridad, uint _cantidad) public payable {... */\n      pop\n      pop\n      jump\t// out\n        /* \"contracts/donacionesOrg.sol\":99:125  address public propietario */\n    tag_30:\n      0x00\n      dup1\n      sload\n      swap1\n      0x0100\n      exp\n      swap1\n      div\n      0xffffffffffffffffffffffffffffffffffffffff\n      and\n      dup2\n      jump\t// out\n        /* \"contracts/donacionesOrg.sol\":924:978  mapping(uint256 => Organizacion) public Organizaciones */\n    tag_37:\n      mstore(0x20, 0x05)\n      dup1\n      0x00\n      mstore\n      keccak256(0x00, 0x40)\n      0x00\n      swap2\n      pop\n      swap1\n      pop\n      dup1\n      0x00\n      add\n      dup1\n      sload\n      tag_78\n      swap1\n      tag_55\n      jump\t// in\n    tag_78:\n      dup1\n      0x1f\n      add\n      0x20\n      dup1\n      swap2\n      div\n      mul\n      0x20\n      add\n      mload(0x40)\n      swap1\n      dup2\n      add\n      0x40\n      mstore\n      dup1\n      swap3\n      swap2\n      swap1\n      dup2\n      dup2\n      mstore\n      0x20\n      add\n      dup3\n      dup1\n      sload\n      tag_79\n      swap1\n      tag_55\n      jump\t// in\n    tag_79:\n      dup1\n      iszero\n      tag_80\n      jumpi\n      dup1\n      0x1f\n      lt\n      tag_81\n      jumpi\n      0x0100\n      dup1\n      dup4\n      sload\n      div\n      mul\n      dup4\n      mstore\n      swap2\n      0x20\n      add\n      swap2\n      jump(tag_80)\n    tag_81:\n      dup3\n      add\n      swap2\n      swap1\n      0x00\n      mstore\n      keccak256(0x00, 0x20)\n      swap1\n    tag_82:\n      dup2\n      sload\n      dup2\n      mstore\n      swap1\n      0x01\n      add\n      swap1\n      0x20\n      add\n      dup1\n      dup4\n      gt\n      tag_82\n      jumpi\n      dup3\n      swap1\n      sub\n      0x1f\n      and\n      dup3\n      add\n      swap2\n    tag_80:\n      pop\n      pop\n      pop\n      pop\n      pop\n      swap1\n      dup1\n      0x01\n      add\n      0x00\n      swap1\n      sload\n      swap1\n      0x0100\n      exp\n      swap1\n      div\n      0xffffffffffffffffffffffffffffffffffffffff\n      and\n      swap1\n      pop\n      dup3\n      jump\t// out\n        /* \"contracts/donacionesOrg.sol\":174:207  address public direccionProhibida */\n    tag_42:\n      0x02\n      0x00\n      swap1\n      sload\n      swap1\n      0x0100\n      exp\n      swap1\n      div\n      0xffffffffffffffffffffffffffffffffffffffff\n      and\n      dup2\n      jump\t// out\n        /* \"contracts/donacionesOrg.sol\":131:168  uint256 public contadorOrganizaciones */\n    tag_46:\n      sload(0x01)\n      dup2\n      jump\t// out\n        /* \"contracts/donacionesOrg.sol\":985:1549  function registrarOrganizacion(string memory _nombre, address _direccion) public {... */\n    tag_53:\n        /* \"contracts/donacionesOrg.sol\":1085:1104  direccionRegistrada */\n      0x04\n        /* \"contracts/donacionesOrg.sol\":1085:1116  direccionRegistrada[_direccion] */\n      0x00\n        /* \"contracts/donacionesOrg.sol\":1105:1115  _direccion */\n      dup3\n        /* \"contracts/donacionesOrg.sol\":1085:1116  direccionRegistrada[_direccion] */\n      0xffffffffffffffffffffffffffffffffffffffff\n      and\n      0xffffffffffffffffffffffffffffffffffffffff\n      and\n      dup2\n      mstore\n      0x20\n      add\n      swap1\n      dup2\n      mstore\n      0x20\n      add\n      0x00\n      keccak256\n      0x00\n      swap1\n      sload\n      swap1\n      0x0100\n      exp\n      swap1\n      div\n      0xff\n      and\n        /* \"contracts/donacionesOrg.sol\":1084:1116  !direccionRegistrada[_direccion] */\n      iszero\n        /* \"contracts/donacionesOrg.sol\":1076:1154  require(!direccionRegistrada[_direccion], \"Esta direccion ya esta registrada\") */\n      tag_84\n      jumpi\n      mload(0x40)\n      0x08c379a000000000000000000000000000000000000000000000000000000000\n      dup2\n      mstore\n      0x04\n      add\n      tag_85\n      swap1\n      tag_86\n      jump\t// in\n    tag_85:\n      mload(0x40)\n      dup1\n      swap2\n      sub\n      swap1\n      revert\n    tag_84:\n        /* \"contracts/donacionesOrg.sol\":1196:1197  0 */\n      0x00\n        /* \"contracts/donacionesOrg.sol\":1178:1185  _nombre */\n      dup3\n        /* \"contracts/donacionesOrg.sol\":1172:1193  bytes(_nombre).length */\n      mload\n        /* \"contracts/donacionesOrg.sol\":1172:1197  bytes(_nombre).length > 0 */\n      gt\n        /* \"contracts/donacionesOrg.sol\":1164:1233  require(bytes(_nombre).length > 0 , \"El nombre no puede estar vacio\") */\n      tag_87\n      jumpi\n      mload(0x40)\n      0x08c379a000000000000000000000000000000000000000000000000000000000\n      dup2\n      mstore\n      0x04\n      add\n      tag_88\n      swap1\n      tag_89\n      jump\t// in\n    tag_88:\n      mload(0x40)\n      dup1\n      swap2\n      sub\n      swap1\n      revert\n    tag_87:\n        /* \"contracts/donacionesOrg.sol\":1370:1403  Organizacion(_nombre, _direccion) */\n      mload(0x40)\n      dup1\n      0x40\n      add\n      0x40\n      mstore\n      dup1\n        /* \"contracts/donacionesOrg.sol\":1383:1390  _nombre */\n      dup4\n        /* \"contracts/donacionesOrg.sol\":1370:1403  Organizacion(_nombre, _direccion) */\n      dup2\n      mstore\n      0x20\n      add\n        /* \"contracts/donacionesOrg.sol\":1392:1402  _direccion */\n      dup3\n        /* \"contracts/donacionesOrg.sol\":1370:1403  Organizacion(_nombre, _direccion) */\n      0xffffffffffffffffffffffffffffffffffffffff\n      and\n      dup2\n      mstore\n      pop\n        /* \"contracts/donacionesOrg.sol\":1329:1343  Organizaciones */\n      0x05\n        /* \"contracts/donacionesOrg.sol\":1329:1367  Organizaciones[contadorOrganizaciones] */\n      0x00\n        /* \"contracts/donacionesOrg.sol\":1344:1366  contadorOrganizaciones */\n      sload(0x01)\n        /* \"contracts/donacionesOrg.sol\":1329:1367  Organizaciones[contadorOrganizaciones] */\n      dup2\n      mstore\n      0x20\n      add\n      swap1\n      dup2\n      mstore\n      0x20\n      add\n      0x00\n      keccak256\n        /* \"contracts/donacionesOrg.sol\":1329:1403  Organizaciones[contadorOrganizaciones] = Organizacion(_nombre, _direccion) */\n      0x00\n      dup3\n      add\n      mload\n      dup2\n      0x00\n      add\n      swap1\n      dup2\n      tag_90\n      swap2\n      swap1\n      tag_91\n      jump\t// in\n    tag_90:\n      pop\n      0x20\n      dup3\n      add\n      mload\n      dup2\n      0x01\n      add\n      exp(0x0100, 0x00)\n      dup2\n      sload\n      dup2\n      0xffffffffffffffffffffffffffffffffffffffff\n      mul\n      not\n      and\n      swap1\n      dup4\n      0xffffffffffffffffffffffffffffffffffffffff\n      and\n      mul\n      or\n      swap1\n      sstore\n      pop\n      swap1\n      pop\n      pop\n        /* \"contracts/donacionesOrg.sol\":1447:1451  true */\n      0x01\n        /* \"contracts/donacionesOrg.sol\":1413:1432  direccionRegistrada */\n      0x04\n        /* \"contracts/donacionesOrg.sol\":1413:1444  direccionRegistrada[_direccion] */\n      0x00\n        /* \"contracts/donacionesOrg.sol\":1433:1443  _direccion */\n      dup4\n        /* \"contracts/donacionesOrg.sol\":1413:1444  direccionRegistrada[_direccion] */\n      0xffffffffffffffffffffffffffffffffffffffff\n      and\n      0xffffffffffffffffffffffffffffffffffffffff\n      and\n      dup2\n      mstore\n      0x20\n      add\n      swap1\n      dup2\n      mstore\n      0x20\n      add\n      0x00\n      keccak256\n      0x00\n        /* \"contracts/donacionesOrg.sol\":1413:1451  direccionRegistrada[_direccion] = true */\n      0x0100\n      exp\n      dup2\n      sload\n      dup2\n      0xff\n      mul\n      not\n      and\n      swap1\n      dup4\n      iszero\n      iszero\n      mul\n      or\n      swap1\n      sstore\n      pop\n        /* \"contracts/donacionesOrg.sol\":1467:1508  registroOrganizacion(msg.sender, _nombre) */\n      0xf25bbb4ba1e76aa825e9a6d9e2fc02876f02bb78e95e79f4a5a541387dc5b3a0\n        /* \"contracts/donacionesOrg.sol\":1488:1498  msg.sender */\n      caller\n        /* \"contracts/donacionesOrg.sol\":1500:1507  _nombre */\n      dup4\n        /* \"contracts/donacionesOrg.sol\":1467:1508  registroOrganizacion(msg.sender, _nombre) */\n      mload(0x40)\n      tag_92\n      swap3\n      swap2\n      swap1\n      tag_93\n      jump\t// in\n    tag_92:\n      mload(0x40)\n      dup1\n      swap2\n      sub\n      swap1\n      log1\n        /* \"contracts/donacionesOrg.sol\":1518:1540  contadorOrganizaciones */\n      0x01\n      0x00\n        /* \"contracts/donacionesOrg.sol\":1518:1542  contadorOrganizaciones++ */\n      dup2\n      sload\n      dup1\n      swap3\n      swap2\n      swap1\n      tag_94\n      swap1\n      tag_95\n      jump\t// in\n    tag_94:\n      swap2\n      swap1\n      pop\n      sstore\n      pop\n        /* \"contracts/donacionesOrg.sol\":985:1549  function registrarOrganizacion(string memory _nombre, address _direccion) public {... */\n      pop\n      pop\n      jump\t// out\n        /* \"#utility.yul\":7:82   */\n    tag_96:\n        /* \"#utility.yul\":40:46   */\n      0x00\n        /* \"#utility.yul\":73:75   */\n      0x40\n        /* \"#utility.yul\":67:76   */\n      mload\n        /* \"#utility.yul\":57:76   */\n      swap1\n      pop\n        /* \"#utility.yul\":7:82   */\n      swap1\n      jump\t// out\n        /* \"#utility.yul\":88:205   */\n    tag_97:\n        /* \"#utility.yul\":197:198   */\n      0x00\n        /* \"#utility.yul\":194:195   */\n      dup1\n        /* \"#utility.yul\":187:199   */\n      revert\n        /* \"#utility.yul\":211:328   */\n    tag_98:\n        /* \"#utility.yul\":320:321   */\n      0x00\n        /* \"#utility.yul\":317:318   */\n      dup1\n        /* \"#utility.yul\":310:322   */\n      revert\n        /* \"#utility.yul\":334:460   */\n    tag_99:\n        /* \"#utility.yul\":371:378   */\n      0x00\n        /* \"#utility.yul\":411:453   */\n      0xffffffffffffffffffffffffffffffffffffffff\n        /* \"#utility.yul\":404:409   */\n      dup3\n        /* \"#utility.yul\":400:454   */\n      and\n        /* \"#utility.yul\":389:454   */\n      swap1\n      pop\n        /* \"#utility.yul\":334:460   */\n      swap2\n      swap1\n      pop\n      jump\t// out\n        /* \"#utility.yul\":466:562   */\n    tag_100:\n        /* \"#utility.yul\":503:510   */\n      0x00\n        /* \"#utility.yul\":532:556   */\n      tag_159\n        /* \"#utility.yul\":550:555   */\n      dup3\n        /* \"#utility.yul\":532:556   */\n      tag_99\n      jump\t// in\n    tag_159:\n        /* \"#utility.yul\":521:556   */\n      swap1\n      pop\n        /* \"#utility.yul\":466:562   */\n      swap2\n      swap1\n      pop\n      jump\t// out\n        /* \"#utility.yul\":568:690   */\n    tag_101:\n        /* \"#utility.yul\":641:665   */\n      tag_161\n        /* \"#utility.yul\":659:664   */\n      dup2\n        /* \"#utility.yul\":641:665   */\n      tag_100\n      jump\t// in\n    tag_161:\n        /* \"#utility.yul\":634:639   */\n      dup2\n        /* \"#utility.yul\":631:666   */\n      eq\n        /* \"#utility.yul\":621:684   */\n      tag_162\n      jumpi\n        /* \"#utility.yul\":680:681   */\n      0x00\n        /* \"#utility.yul\":677:678   */\n      dup1\n        /* \"#utility.yul\":670:682   */\n      revert\n        /* \"#utility.yul\":621:684   */\n    tag_162:\n        /* \"#utility.yul\":568:690   */\n      pop\n      jump\t// out\n        /* \"#utility.yul\":696:835   */\n    tag_102:\n        /* \"#utility.yul\":742:747   */\n      0x00\n        /* \"#utility.yul\":780:786   */\n      dup2\n        /* \"#utility.yul\":767:787   */\n      calldataload\n        /* \"#utility.yul\":758:787   */\n      swap1\n      pop\n        /* \"#utility.yul\":796:829   */\n      tag_164\n        /* \"#utility.yul\":823:828   */\n      dup2\n        /* \"#utility.yul\":796:829   */\n      tag_101\n      jump\t// in\n    tag_164:\n        /* \"#utility.yul\":696:835   */\n      swap3\n      swap2\n      pop\n      pop\n      jump\t// out\n        /* \"#utility.yul\":841:1170   */\n    tag_14:\n        /* \"#utility.yul\":900:906   */\n      0x00\n        /* \"#utility.yul\":949:951   */\n      0x20\n        /* \"#utility.yul\":937:946   */\n      dup3\n        /* \"#utility.yul\":928:935   */\n      dup5\n        /* \"#utility.yul\":924:947   */\n      sub\n        /* \"#utility.yul\":920:952   */\n      slt\n        /* \"#utility.yul\":917:1036   */\n      iszero\n      tag_166\n      jumpi\n        /* \"#utility.yul\":955:1034   */\n      tag_167\n      tag_97\n      jump\t// in\n    tag_167:\n        /* \"#utility.yul\":917:1036   */\n    tag_166:\n        /* \"#utility.yul\":1075:1076   */\n      0x00\n        /* \"#utility.yul\":1100:1153   */\n      tag_168\n        /* \"#utility.yul\":1145:1152   */\n      dup5\n        /* \"#utility.yul\":1136:1142   */\n      dup3\n        /* \"#utility.yul\":1125:1134   */\n      dup6\n        /* \"#utility.yul\":1121:1143   */\n      add\n        /* \"#utility.yul\":1100:1153   */\n      tag_102\n      jump\t// in\n    tag_168:\n        /* \"#utility.yul\":1090:1153   */\n      swap2\n      pop\n        /* \"#utility.yul\":1046:1163   */\n      pop\n        /* \"#utility.yul\":841:1170   */\n      swap3\n      swap2\n      pop\n      pop\n      jump\t// out\n        /* \"#utility.yul\":1176:1275   */\n    tag_103:\n        /* \"#utility.yul\":1228:1234   */\n      0x00\n        /* \"#utility.yul\":1262:1267   */\n      dup2\n        /* \"#utility.yul\":1256:1268   */\n      mload\n        /* \"#utility.yul\":1246:1268   */\n      swap1\n      pop\n        /* \"#utility.yul\":1176:1275   */\n      swap2\n      swap1\n      pop\n      jump\t// out\n        /* \"#utility.yul\":1281:1450   */\n    tag_104:\n        /* \"#utility.yul\":1365:1376   */\n      0x00\n        /* \"#utility.yul\":1399:1405   */\n      dup3\n        /* \"#utility.yul\":1394:1397   */\n      dup3\n        /* \"#utility.yul\":1387:1406   */\n      mstore\n        /* \"#utility.yul\":1439:1443   */\n      0x20\n        /* \"#utility.yul\":1434:1437   */\n      dup3\n        /* \"#utility.yul\":1430:1444   */\n      add\n        /* \"#utility.yul\":1415:1444   */\n      swap1\n      pop\n        /* \"#utility.yul\":1281:1450   */\n      swap3\n      swap2\n      pop\n      pop\n      jump\t// out\n        /* \"#utility.yul\":1456:1702   */\n    tag_105:\n        /* \"#utility.yul\":1537:1538   */\n      0x00\n        /* \"#utility.yul\":1547:1660   */\n    tag_172:\n        /* \"#utility.yul\":1561:1567   */\n      dup4\n        /* \"#utility.yul\":1558:1559   */\n      dup2\n        /* \"#utility.yul\":1555:1568   */\n      lt\n        /* \"#utility.yul\":1547:1660   */\n      iszero\n      tag_174\n      jumpi\n        /* \"#utility.yul\":1646:1647   */\n      dup1\n        /* \"#utility.yul\":1641:1644   */\n      dup3\n        /* \"#utility.yul\":1637:1648   */\n      add\n        /* \"#utility.yul\":1631:1649   */\n      mload\n        /* \"#utility.yul\":1627:1628   */\n      dup2\n        /* \"#utility.yul\":1622:1625   */\n      dup5\n        /* \"#utility.yul\":1618:1629   */\n      add\n        /* \"#utility.yul\":1611:1650   */\n      mstore\n        /* \"#utility.yul\":1583:1585   */\n      0x20\n        /* \"#utility.yul\":1580:1581   */\n      dup2\n        /* \"#utility.yul\":1576:1586   */\n      add\n        /* \"#utility.yul\":1571:1586   */\n      swap1\n      pop\n        /* \"#utility.yul\":1547:1660   */\n      jump(tag_172)\n    tag_174:\n        /* \"#utility.yul\":1694:1695   */\n      0x00\n        /* \"#utility.yul\":1685:1691   */\n      dup5\n        /* \"#utility.yul\":1680:1683   */\n      dup5\n        /* \"#utility.yul\":1676:1692   */\n      add\n        /* \"#utility.yul\":1669:1696   */\n      mstore\n        /* \"#utility.yul\":1518:1702   */\n      pop\n        /* \"#utility.yul\":1456:1702   */\n      pop\n      pop\n      pop\n      jump\t// out\n        /* \"#utility.yul\":1708:1810   */\n    tag_106:\n        /* \"#utility.yul\":1749:1755   */\n      0x00\n        /* \"#utility.yul\":1800:1802   */\n      0x1f\n        /* \"#utility.yul\":1796:1803   */\n      not\n        /* \"#utility.yul\":1791:1793   */\n      0x1f\n        /* \"#utility.yul\":1784:1789   */\n      dup4\n        /* \"#utility.yul\":1780:1794   */\n      add\n        /* \"#utility.yul\":1776:1804   */\n      and\n        /* \"#utility.yul\":1766:1804   */\n      swap1\n      pop\n        /* \"#utility.yul\":1708:1810   */\n      swap2\n      swap1\n      pop\n      jump\t// out\n        /* \"#utility.yul\":1816:2193   */\n    tag_107:\n        /* \"#utility.yul\":1904:1907   */\n      0x00\n        /* \"#utility.yul\":1932:1971   */\n      tag_177\n        /* \"#utility.yul\":1965:1970   */\n      dup3\n        /* \"#utility.yul\":1932:1971   */\n      tag_103\n      jump\t// in\n    tag_177:\n        /* \"#utility.yul\":1987:2058   */\n      tag_178\n        /* \"#utility.yul\":2051:2057   */\n      dup2\n        /* \"#utility.yul\":2046:2049   */\n      dup6\n        /* \"#utility.yul\":1987:2058   */\n      tag_104\n      jump\t// in\n    tag_178:\n        /* \"#utility.yul\":1980:2058   */\n      swap4\n      pop\n        /* \"#utility.yul\":2067:2132   */\n      tag_179\n        /* \"#utility.yul\":2125:2131   */\n      dup2\n        /* \"#utility.yul\":2120:2123   */\n      dup6\n        /* \"#utility.yul\":2113:2117   */\n      0x20\n        /* \"#utility.yul\":2106:2111   */\n      dup7\n        /* \"#utility.yul\":2102:2118   */\n      add\n        /* \"#utility.yul\":2067:2132   */\n      tag_105\n      jump\t// in\n    tag_179:\n        /* \"#utility.yul\":2157:2186   */\n      tag_180\n        /* \"#utility.yul\":2179:2185   */\n      dup2\n        /* \"#utility.yul\":2157:2186   */\n      tag_106\n      jump\t// in\n    tag_180:\n        /* \"#utility.yul\":2152:2155   */\n      dup5\n        /* \"#utility.yul\":2148:2187   */\n      add\n        /* \"#utility.yul\":2141:2187   */\n      swap2\n      pop\n        /* \"#utility.yul\":1908:2193   */\n      pop\n        /* \"#utility.yul\":1816:2193   */\n      swap3\n      swap2\n      pop\n      pop\n      jump\t// out\n        /* \"#utility.yul\":2199:2512   */\n    tag_17:\n        /* \"#utility.yul\":2312:2316   */\n      0x00\n        /* \"#utility.yul\":2350:2352   */\n      0x20\n        /* \"#utility.yul\":2339:2348   */\n      dup3\n        /* \"#utility.yul\":2335:2353   */\n      add\n        /* \"#utility.yul\":2327:2353   */\n      swap1\n      pop\n        /* \"#utility.yul\":2399:2408   */\n      dup2\n        /* \"#utility.yul\":2393:2397   */\n      dup2\n        /* \"#utility.yul\":2389:2409   */\n      sub\n        /* \"#utility.yul\":2385:2386   */\n      0x00\n        /* \"#utility.yul\":2374:2383   */\n      dup4\n        /* \"#utility.yul\":2370:2387   */\n      add\n        /* \"#utility.yul\":2363:2410   */\n      mstore\n        /* \"#utility.yul\":2427:2505   */\n      tag_182\n        /* \"#utility.yul\":2500:2504   */\n      dup2\n        /* \"#utility.yul\":2491:2497   */\n      dup5\n        /* \"#utility.yul\":2427:2505   */\n      tag_107\n      jump\t// in\n    tag_182:\n        /* \"#utility.yul\":2419:2505   */\n      swap1\n      pop\n        /* \"#utility.yul\":2199:2512   */\n      swap3\n      swap2\n      pop\n      pop\n      jump\t// out\n        /* \"#utility.yul\":2518:2608   */\n    tag_108:\n        /* \"#utility.yul\":2552:2559   */\n      0x00\n        /* \"#utility.yul\":2595:2600   */\n      dup2\n        /* \"#utility.yul\":2588:2601   */\n      iszero\n        /* \"#utility.yul\":2581:2602   */\n      iszero\n        /* \"#utility.yul\":2570:2602   */\n      swap1\n      pop\n        /* \"#utility.yul\":2518:2608   */\n      swap2\n      swap1\n      pop\n      jump\t// out\n        /* \"#utility.yul\":2614:2723   */\n    tag_109:\n        /* \"#utility.yul\":2695:2716   */\n      tag_185\n        /* \"#utility.yul\":2710:2715   */\n      dup2\n        /* \"#utility.yul\":2695:2716   */\n      tag_108\n      jump\t// in\n    tag_185:\n        /* \"#utility.yul\":2690:2693   */\n      dup3\n        /* \"#utility.yul\":2683:2717   */\n      mstore\n        /* \"#utility.yul\":2614:2723   */\n      pop\n      pop\n      jump\t// out\n        /* \"#utility.yul\":2729:2939   */\n    tag_23:\n        /* \"#utility.yul\":2816:2820   */\n      0x00\n        /* \"#utility.yul\":2854:2856   */\n      0x20\n        /* \"#utility.yul\":2843:2852   */\n      dup3\n        /* \"#utility.yul\":2839:2857   */\n      add\n        /* \"#utility.yul\":2831:2857   */\n      swap1\n      pop\n        /* \"#utility.yul\":2867:2932   */\n      tag_187\n        /* \"#utility.yul\":2929:2930   */\n      0x00\n        /* \"#utility.yul\":2918:2927   */\n      dup4\n        /* \"#utility.yul\":2914:2931   */\n      add\n        /* \"#utility.yul\":2905:2911   */\n      dup5\n        /* \"#utility.yul\":2867:2932   */\n      tag_109\n      jump\t// in\n    tag_187:\n        /* \"#utility.yul\":2729:2939   */\n      swap3\n      swap2\n      pop\n      pop\n      jump\t// out\n        /* \"#utility.yul\":2945:3022   */\n    tag_110:\n        /* \"#utility.yul\":2982:2989   */\n      0x00\n        /* \"#utility.yul\":3011:3016   */\n      dup2\n        /* \"#utility.yul\":3000:3016   */\n      swap1\n      pop\n        /* \"#utility.yul\":2945:3022   */\n      swap2\n      swap1\n      pop\n      jump\t// out\n        /* \"#utility.yul\":3028:3150   */\n    tag_111:\n        /* \"#utility.yul\":3101:3125   */\n      tag_190\n        /* \"#utility.yul\":3119:3124   */\n      dup2\n        /* \"#utility.yul\":3101:3125   */\n      tag_110\n      jump\t// in\n    tag_190:\n        /* \"#utility.yul\":3094:3099   */\n      dup2\n        /* \"#utility.yul\":3091:3126   */\n      eq\n        /* \"#utility.yul\":3081:3144   */\n      tag_191\n      jumpi\n        /* \"#utility.yul\":3140:3141   */\n      0x00\n        /* \"#utility.yul\":3137:3138   */\n      dup1\n        /* \"#utility.yul\":3130:3142   */\n      revert\n        /* \"#utility.yul\":3081:3144   */\n    tag_191:\n        /* \"#utility.yul\":3028:3150   */\n      pop\n      jump\t// out\n        /* \"#utility.yul\":3156:3295   */\n    tag_112:\n        /* \"#utility.yul\":3202:3207   */\n      0x00\n        /* \"#utility.yul\":3240:3246   */\n      dup2\n        /* \"#utility.yul\":3227:3247   */\n      calldataload\n        /* \"#utility.yul\":3218:3247   */\n      swap1\n      pop\n        /* \"#utility.yul\":3256:3289   */\n      tag_193\n        /* \"#utility.yul\":3283:3288   */\n      dup2\n        /* \"#utility.yul\":3256:3289   */\n      tag_111\n      jump\t// in\n    tag_193:\n        /* \"#utility.yul\":3156:3295   */\n      swap3\n      swap2\n      pop\n      pop\n      jump\t// out\n        /* \"#utility.yul\":3301:3775   */\n    tag_26:\n        /* \"#utility.yul\":3369:3375   */\n      0x00\n        /* \"#utility.yul\":3377:3383   */\n      dup1\n        /* \"#utility.yul\":3426:3428   */\n      0x40\n        /* \"#utility.yul\":3414:3423   */\n      dup4\n        /* \"#utility.yul\":3405:3412   */\n      dup6\n        /* \"#utility.yul\":3401:3424   */\n      sub\n        /* \"#utility.yul\":3397:3429   */\n      slt\n        /* \"#utility.yul\":3394:3513   */\n      iszero\n      tag_195\n      jumpi\n        /* \"#utility.yul\":3432:3511   */\n      tag_196\n      tag_97\n      jump\t// in\n    tag_196:\n        /* \"#utility.yul\":3394:3513   */\n    tag_195:\n        /* \"#utility.yul\":3552:3553   */\n      0x00\n        /* \"#utility.yul\":3577:3630   */\n      tag_197\n        /* \"#utility.yul\":3622:3629   */\n      dup6\n        /* \"#utility.yul\":3613:3619   */\n      dup3\n        /* \"#utility.yul\":3602:3611   */\n      dup7\n        /* \"#utility.yul\":3598:3620   */\n      add\n        /* \"#utility.yul\":3577:3630   */\n      tag_102\n      jump\t// in\n    tag_197:\n        /* \"#utility.yul\":3567:3630   */\n      swap3\n      pop\n        /* \"#utility.yul\":3523:3640   */\n      pop\n        /* \"#utility.yul\":3679:3681   */\n      0x20\n        /* \"#utility.yul\":3705:3758   */\n      tag_198\n        /* \"#utility.yul\":3750:3757   */\n      dup6\n        /* \"#utility.yul\":3741:3747   */\n      dup3\n        /* \"#utility.yul\":3730:3739   */\n      dup7\n        /* \"#utility.yul\":3726:3748   */\n      add\n        /* \"#utility.yul\":3705:3758   */\n      tag_112\n      jump\t// in\n    tag_198:\n        /* \"#utility.yul\":3695:3758   */\n      swap2\n      pop\n        /* \"#utility.yul\":3650:3768   */\n      pop\n        /* \"#utility.yul\":3301:3775   */\n      swap3\n      pop\n      swap3\n      swap1\n      pop\n      jump\t// out\n        /* \"#utility.yul\":3781:3899   */\n    tag_113:\n        /* \"#utility.yul\":3868:3892   */\n      tag_200\n        /* \"#utility.yul\":3886:3891   */\n      dup2\n        /* \"#utility.yul\":3868:3892   */\n      tag_100\n      jump\t// in\n    tag_200:\n        /* \"#utility.yul\":3863:3866   */\n      dup3\n        /* \"#utility.yul\":3856:3893   */\n      mstore\n        /* \"#utility.yul\":3781:3899   */\n      pop\n      pop\n      jump\t// out\n        /* \"#utility.yul\":3905:4127   */\n    tag_32:\n        /* \"#utility.yul\":3998:4002   */\n      0x00\n        /* \"#utility.yul\":4036:4038   */\n      0x20\n        /* \"#utility.yul\":4025:4034   */\n      dup3\n        /* \"#utility.yul\":4021:4039   */\n      add\n        /* \"#utility.yul\":4013:4039   */\n      swap1\n      pop\n        /* \"#utility.yul\":4049:4120   */\n      tag_202\n        /* \"#utility.yul\":4117:4118   */\n      0x00\n        /* \"#utility.yul\":4106:4115   */\n      dup4\n        /* \"#utility.yul\":4102:4119   */\n      add\n        /* \"#utility.yul\":4093:4099   */\n      dup5\n        /* \"#utility.yul\":4049:4120   */\n      tag_113\n      jump\t// in\n    tag_202:\n        /* \"#utility.yul\":3905:4127   */\n      swap3\n      swap2\n      pop\n      pop\n      jump\t// out\n        /* \"#utility.yul\":4133:4462   */\n    tag_36:\n        /* \"#utility.yul\":4192:4198   */\n      0x00\n        /* \"#utility.yul\":4241:4243   */\n      0x20\n        /* \"#utility.yul\":4229:4238   */\n      dup3\n        /* \"#utility.yul\":4220:4227   */\n      dup5\n        /* \"#utility.yul\":4216:4239   */\n      sub\n        /* \"#utility.yul\":4212:4244   */\n      slt\n        /* \"#utility.yul\":4209:4328   */\n      iszero\n      tag_204\n      jumpi\n        /* \"#utility.yul\":4247:4326   */\n      tag_205\n      tag_97\n      jump\t// in\n    tag_205:\n        /* \"#utility.yul\":4209:4328   */\n    tag_204:\n        /* \"#utility.yul\":4367:4368   */\n      0x00\n        /* \"#utility.yul\":4392:4445   */\n      tag_206\n        /* \"#utility.yul\":4437:4444   */\n      dup5\n        /* \"#utility.yul\":4428:4434   */\n      dup3\n        /* \"#utility.yul\":4417:4426   */\n      dup6\n        /* \"#utility.yul\":4413:4435   */\n      add\n        /* \"#utility.yul\":4392:4445   */\n      tag_112\n      jump\t// in\n    tag_206:\n        /* \"#utility.yul\":4382:4445   */\n      swap2\n      pop\n        /* \"#utility.yul\":4338:4455   */\n      pop\n        /* \"#utility.yul\":4133:4462   */\n      swap3\n      swap2\n      pop\n      pop\n      jump\t// out\n        /* \"#utility.yul\":4468:4891   */\n    tag_39:\n        /* \"#utility.yul\":4609:4613   */\n      0x00\n        /* \"#utility.yul\":4647:4649   */\n      0x40\n        /* \"#utility.yul\":4636:4645   */\n      dup3\n        /* \"#utility.yul\":4632:4650   */\n      add\n        /* \"#utility.yul\":4624:4650   */\n      swap1\n      pop\n        /* \"#utility.yul\":4696:4705   */\n      dup2\n        /* \"#utility.yul\":4690:4694   */\n      dup2\n        /* \"#utility.yul\":4686:4706   */\n      sub\n        /* \"#utility.yul\":4682:4683   */\n      0x00\n        /* \"#utility.yul\":4671:4680   */\n      dup4\n        /* \"#utility.yul\":4667:4684   */\n      add\n        /* \"#utility.yul\":4660:4707   */\n      mstore\n        /* \"#utility.yul\":4724:4802   */\n      tag_208\n        /* \"#utility.yul\":4797:4801   */\n      dup2\n        /* \"#utility.yul\":4788:4794   */\n      dup6\n        /* \"#utility.yul\":4724:4802   */\n      tag_107\n      jump\t// in\n    tag_208:\n        /* \"#utility.yul\":4716:4802   */\n      swap1\n      pop\n        /* \"#utility.yul\":4812:4884   */\n      tag_209\n        /* \"#utility.yul\":4880:4882   */\n      0x20\n        /* \"#utility.yul\":4869:4878   */\n      dup4\n        /* \"#utility.yul\":4865:4883   */\n      add\n        /* \"#utility.yul\":4856:4862   */\n      dup5\n        /* \"#utility.yul\":4812:4884   */\n      tag_113\n      jump\t// in\n    tag_209:\n        /* \"#utility.yul\":4468:4891   */\n      swap4\n      swap3\n      pop\n      pop\n      pop\n      jump\t// out\n        /* \"#utility.yul\":4897:5015   */\n    tag_114:\n        /* \"#utility.yul\":4984:5008   */\n      tag_211\n        /* \"#utility.yul\":5002:5007   */\n      dup2\n        /* \"#utility.yul\":4984:5008   */\n      tag_110\n      jump\t// in\n    tag_211:\n        /* \"#utility.yul\":4979:4982   */\n      dup3\n        /* \"#utility.yul\":4972:5009   */\n      mstore\n        /* \"#utility.yul\":4897:5015   */\n      pop\n      pop\n      jump\t// out\n        /* \"#utility.yul\":5021:5243   */\n    tag_48:\n        /* \"#utility.yul\":5114:5118   */\n      0x00\n        /* \"#utility.yul\":5152:5154   */\n      0x20\n        /* \"#utility.yul\":5141:5150   */\n      dup3\n        /* \"#utility.yul\":5137:5155   */\n      add\n        /* \"#utility.yul\":5129:5155   */\n      swap1\n      pop\n        /* \"#utility.yul\":5165:5236   */\n      tag_213\n        /* \"#utility.yul\":5233:5234   */\n      0x00\n        /* \"#utility.yul\":5222:5231   */\n      dup4\n        /* \"#utility.yul\":5218:5235   */\n      add\n        /* \"#utility.yul\":5209:5215   */\n      dup5\n        /* \"#utility.yul\":5165:5236   */\n      tag_114\n      jump\t// in\n    tag_213:\n        /* \"#utility.yul\":5021:5243   */\n      swap3\n      swap2\n      pop\n      pop\n      jump\t// out\n        /* \"#utility.yul\":5249:5366   */\n    tag_115:\n        /* \"#utility.yul\":5358:5359   */\n      0x00\n        /* \"#utility.yul\":5355:5356   */\n      dup1\n        /* \"#utility.yul\":5348:5360   */\n      revert\n        /* \"#utility.yul\":5372:5489   */\n    tag_116:\n        /* \"#utility.yul\":5481:5482   */\n      0x00\n        /* \"#utility.yul\":5478:5479   */\n      dup1\n        /* \"#utility.yul\":5471:5483   */\n      revert\n        /* \"#utility.yul\":5495:5675   */\n    tag_117:\n        /* \"#utility.yul\":5543:5620   */\n      0x4e487b7100000000000000000000000000000000000000000000000000000000\n        /* \"#utility.yul\":5540:5541   */\n      0x00\n        /* \"#utility.yul\":5533:5621   */\n      mstore\n        /* \"#utility.yul\":5640:5644   */\n      0x41\n        /* \"#utility.yul\":5637:5638   */\n      0x04\n        /* \"#utility.yul\":5630:5645   */\n      mstore\n        /* \"#utility.yul\":5664:5668   */\n      0x24\n        /* \"#utility.yul\":5661:5662   */\n      0x00\n        /* \"#utility.yul\":5654:5669   */\n      revert\n        /* \"#utility.yul\":5681:5962   */\n    tag_118:\n        /* \"#utility.yul\":5764:5791   */\n      tag_218\n        /* \"#utility.yul\":5786:5790   */\n      dup3\n        /* \"#utility.yul\":5764:5791   */\n      tag_106\n      jump\t// in\n    tag_218:\n        /* \"#utility.yul\":5756:5762   */\n      dup2\n        /* \"#utility.yul\":5752:5792   */\n      add\n        /* \"#utility.yul\":5894:5900   */\n      dup2\n        /* \"#utility.yul\":5882:5892   */\n      dup2\n        /* \"#utility.yul\":5879:5901   */\n      lt\n        /* \"#utility.yul\":5858:5876   */\n      0xffffffffffffffff\n        /* \"#utility.yul\":5846:5856   */\n      dup3\n        /* \"#utility.yul\":5843:5877   */\n      gt\n        /* \"#utility.yul\":5840:5902   */\n      or\n        /* \"#utility.yul\":5837:5925   */\n      iszero\n      tag_219\n      jumpi\n        /* \"#utility.yul\":5905:5923   */\n      tag_220\n      tag_117\n      jump\t// in\n    tag_220:\n        /* \"#utility.yul\":5837:5925   */\n    tag_219:\n        /* \"#utility.yul\":5945:5955   */\n      dup1\n        /* \"#utility.yul\":5941:5943   */\n      0x40\n        /* \"#utility.yul\":5934:5956   */\n      mstore\n        /* \"#utility.yul\":5724:5962   */\n      pop\n        /* \"#utility.yul\":5681:5962   */\n      pop\n      pop\n      jump\t// out\n        /* \"#utility.yul\":5968:6097   */\n    tag_119:\n        /* \"#utility.yul\":6002:6008   */\n      0x00\n        /* \"#utility.yul\":6029:6049   */\n      tag_222\n      tag_96\n      jump\t// in\n    tag_222:\n        /* \"#utility.yul\":6019:6049   */\n      swap1\n      pop\n        /* \"#utility.yul\":6058:6091   */\n      tag_223\n        /* \"#utility.yul\":6086:6090   */\n      dup3\n        /* \"#utility.yul\":6078:6084   */\n      dup3\n        /* \"#utility.yul\":6058:6091   */\n      tag_118\n      jump\t// in\n    tag_223:\n        /* \"#utility.yul\":5968:6097   */\n      swap2\n      swap1\n      pop\n      jump\t// out\n        /* \"#utility.yul\":6103:6411   */\n    tag_120:\n        /* \"#utility.yul\":6165:6169   */\n      0x00\n        /* \"#utility.yul\":6255:6273   */\n      0xffffffffffffffff\n        /* \"#utility.yul\":6247:6253   */\n      dup3\n        /* \"#utility.yul\":6244:6274   */\n      gt\n        /* \"#utility.yul\":6241:6297   */\n      iszero\n      tag_225\n      jumpi\n        /* \"#utility.yul\":6277:6295   */\n      tag_226\n      tag_117\n      jump\t// in\n    tag_226:\n        /* \"#utility.yul\":6241:6297   */\n    tag_225:\n        /* \"#utility.yul\":6315:6344   */\n      tag_227\n        /* \"#utility.yul\":6337:6343   */\n      dup3\n        /* \"#utility.yul\":6315:6344   */\n      tag_106\n      jump\t// in\n    tag_227:\n        /* \"#utility.yul\":6307:6344   */\n      swap1\n      pop\n        /* \"#utility.yul\":6399:6403   */\n      0x20\n        /* \"#utility.yul\":6393:6397   */\n      dup2\n        /* \"#utility.yul\":6389:6404   */\n      add\n        /* \"#utility.yul\":6381:6404   */\n      swap1\n      pop\n        /* \"#utility.yul\":6103:6411   */\n      swap2\n      swap1\n      pop\n      jump\t// out\n        /* \"#utility.yul\":6417:6563   */\n    tag_121:\n        /* \"#utility.yul\":6514:6520   */\n      dup3\n        /* \"#utility.yul\":6509:6512   */\n      dup2\n        /* \"#utility.yul\":6504:6507   */\n      dup4\n        /* \"#utility.yul\":6491:6521   */\n      calldatacopy\n        /* \"#utility.yul\":6555:6556   */\n      0x00\n        /* \"#utility.yul\":6546:6552   */\n      dup4\n        /* \"#utility.yul\":6541:6544   */\n      dup4\n        /* \"#utility.yul\":6537:6553   */\n      add\n        /* \"#utility.yul\":6530:6557   */\n      mstore\n        /* \"#utility.yul\":6417:6563   */\n      pop\n      pop\n      pop\n      jump\t// out\n        /* \"#utility.yul\":6569:6994   */\n    tag_122:\n        /* \"#utility.yul\":6647:6652   */\n      0x00\n        /* \"#utility.yul\":6672:6738   */\n      tag_230\n        /* \"#utility.yul\":6688:6737   */\n      tag_231\n        /* \"#utility.yul\":6730:6736   */\n      dup5\n        /* \"#utility.yul\":6688:6737   */\n      tag_120\n      jump\t// in\n    tag_231:\n        /* \"#utility.yul\":6672:6738   */\n      tag_119\n      jump\t// in\n    tag_230:\n        /* \"#utility.yul\":6663:6738   */\n      swap1\n      pop\n        /* \"#utility.yul\":6761:6767   */\n      dup3\n        /* \"#utility.yul\":6754:6759   */\n      dup2\n        /* \"#utility.yul\":6747:6768   */\n      mstore\n        /* \"#utility.yul\":6799:6803   */\n      0x20\n        /* \"#utility.yul\":6792:6797   */\n      dup2\n        /* \"#utility.yul\":6788:6804   */\n      add\n        /* \"#utility.yul\":6837:6840   */\n      dup5\n        /* \"#utility.yul\":6828:6834   */\n      dup5\n        /* \"#utility.yul\":6823:6826   */\n      dup5\n        /* \"#utility.yul\":6819:6835   */\n      add\n        /* \"#utility.yul\":6816:6841   */\n      gt\n        /* \"#utility.yul\":6813:6925   */\n      iszero\n      tag_232\n      jumpi\n        /* \"#utility.yul\":6844:6923   */\n      tag_233\n      tag_116\n      jump\t// in\n    tag_233:\n        /* \"#utility.yul\":6813:6925   */\n    tag_232:\n        /* \"#utility.yul\":6934:6988   */\n      tag_234\n        /* \"#utility.yul\":6981:6987   */\n      dup5\n        /* \"#utility.yul\":6976:6979   */\n      dup3\n        /* \"#utility.yul\":6971:6974   */\n      dup6\n        /* \"#utility.yul\":6934:6988   */\n      tag_121\n      jump\t// in\n    tag_234:\n        /* \"#utility.yul\":6653:6994   */\n      pop\n        /* \"#utility.yul\":6569:6994   */\n      swap4\n      swap3\n      pop\n      pop\n      pop\n      jump\t// out\n        /* \"#utility.yul\":7014:7354   */\n    tag_123:\n        /* \"#utility.yul\":7070:7075   */\n      0x00\n        /* \"#utility.yul\":7119:7122   */\n      dup3\n        /* \"#utility.yul\":7112:7116   */\n      0x1f\n        /* \"#utility.yul\":7104:7110   */\n      dup4\n        /* \"#utility.yul\":7100:7117   */\n      add\n        /* \"#utility.yul\":7096:7123   */\n      slt\n        /* \"#utility.yul\":7086:7208   */\n      tag_236\n      jumpi\n        /* \"#utility.yul\":7127:7206   */\n      tag_237\n      tag_115\n      jump\t// in\n    tag_237:\n        /* \"#utility.yul\":7086:7208   */\n    tag_236:\n        /* \"#utility.yul\":7244:7250   */\n      dup2\n        /* \"#utility.yul\":7231:7251   */\n      calldataload\n        /* \"#utility.yul\":7269:7348   */\n      tag_238\n        /* \"#utility.yul\":7344:7347   */\n      dup5\n        /* \"#utility.yul\":7336:7342   */\n      dup3\n        /* \"#utility.yul\":7329:7333   */\n      0x20\n        /* \"#utility.yul\":7321:7327   */\n      dup7\n        /* \"#utility.yul\":7317:7334   */\n      add\n        /* \"#utility.yul\":7269:7348   */\n      tag_122\n      jump\t// in\n    tag_238:\n        /* \"#utility.yul\":7260:7348   */\n      swap2\n      pop\n        /* \"#utility.yul\":7076:7354   */\n      pop\n        /* \"#utility.yul\":7014:7354   */\n      swap3\n      swap2\n      pop\n      pop\n      jump\t// out\n        /* \"#utility.yul\":7360:8014   */\n    tag_52:\n        /* \"#utility.yul\":7438:7444   */\n      0x00\n        /* \"#utility.yul\":7446:7452   */\n      dup1\n        /* \"#utility.yul\":7495:7497   */\n      0x40\n        /* \"#utility.yul\":7483:7492   */\n      dup4\n        /* \"#utility.yul\":7474:7481   */\n      dup6\n        /* \"#utility.yul\":7470:7493   */\n      sub\n        /* \"#utility.yul\":7466:7498   */\n      slt\n        /* \"#utility.yul\":7463:7582   */\n      iszero\n      tag_240\n      jumpi\n        /* \"#utility.yul\":7501:7580   */\n      tag_241\n      tag_97\n      jump\t// in\n    tag_241:\n        /* \"#utility.yul\":7463:7582   */\n    tag_240:\n        /* \"#utility.yul\":7649:7650   */\n      0x00\n        /* \"#utility.yul\":7638:7647   */\n      dup4\n        /* \"#utility.yul\":7634:7651   */\n      add\n        /* \"#utility.yul\":7621:7652   */\n      calldataload\n        /* \"#utility.yul\":7679:7697   */\n      0xffffffffffffffff\n        /* \"#utility.yul\":7671:7677   */\n      dup2\n        /* \"#utility.yul\":7668:7698   */\n      gt\n        /* \"#utility.yul\":7665:7782   */\n      iszero\n      tag_242\n      jumpi\n        /* \"#utility.yul\":7701:7780   */\n      tag_243\n      tag_98\n      jump\t// in\n    tag_243:\n        /* \"#utility.yul\":7665:7782   */\n    tag_242:\n        /* \"#utility.yul\":7806:7869   */\n      tag_244\n        /* \"#utility.yul\":7861:7868   */\n      dup6\n        /* \"#utility.yul\":7852:7858   */\n      dup3\n        /* \"#utility.yul\":7841:7850   */\n      dup7\n        /* \"#utility.yul\":7837:7859   */\n      add\n        /* \"#utility.yul\":7806:7869   */\n      tag_123\n      jump\t// in\n    tag_244:\n        /* \"#utility.yul\":7796:7869   */\n      swap3\n      pop\n        /* \"#utility.yul\":7592:7879   */\n      pop\n        /* \"#utility.yul\":7918:7920   */\n      0x20\n        /* \"#utility.yul\":7944:7997   */\n      tag_245\n        /* \"#utility.yul\":7989:7996   */\n      dup6\n        /* \"#utility.yul\":7980:7986   */\n      dup3\n        /* \"#utility.yul\":7969:7978   */\n      dup7\n        /* \"#utility.yul\":7965:7987   */\n      add\n        /* \"#utility.yul\":7944:7997   */\n      tag_102\n      jump\t// in\n    tag_245:\n        /* \"#utility.yul\":7934:7997   */\n      swap2\n      pop\n        /* \"#utility.yul\":7889:8007   */\n      pop\n        /* \"#utility.yul\":7360:8014   */\n      swap3\n      pop\n      swap3\n      swap1\n      pop\n      jump\t// out\n        /* \"#utility.yul\":8020:8200   */\n    tag_124:\n        /* \"#utility.yul\":8068:8145   */\n      0x4e487b7100000000000000000000000000000000000000000000000000000000\n        /* \"#utility.yul\":8065:8066   */\n      0x00\n        /* \"#utility.yul\":8058:8146   */\n      mstore\n        /* \"#utility.yul\":8165:8169   */\n      0x22\n        /* \"#utility.yul\":8162:8163   */\n      0x04\n        /* \"#utility.yul\":8155:8170   */\n      mstore\n        /* \"#utility.yul\":8189:8193   */\n      0x24\n        /* \"#utility.yul\":8186:8187   */\n      0x00\n        /* \"#utility.yul\":8179:8194   */\n      revert\n        /* \"#utility.yul\":8206:8526   */\n    tag_55:\n        /* \"#utility.yul\":8250:8256   */\n      0x00\n        /* \"#utility.yul\":8287:8288   */\n      0x02\n        /* \"#utility.yul\":8281:8285   */\n      dup3\n        /* \"#utility.yul\":8277:8289   */\n      div\n        /* \"#utility.yul\":8267:8289   */\n      swap1\n      pop\n        /* \"#utility.yul\":8334:8335   */\n      0x01\n        /* \"#utility.yul\":8328:8332   */\n      dup3\n        /* \"#utility.yul\":8324:8336   */\n      and\n        /* \"#utility.yul\":8355:8373   */\n      dup1\n        /* \"#utility.yul\":8345:8426   */\n      tag_248\n      jumpi\n        /* \"#utility.yul\":8411:8415   */\n      0x7f\n        /* \"#utility.yul\":8403:8409   */\n      dup3\n        /* \"#utility.yul\":8399:8416   */\n      and\n        /* \"#utility.yul\":8389:8416   */\n      swap2\n      pop\n        /* \"#utility.yul\":8345:8426   */\n    tag_248:\n        /* \"#utility.yul\":8473:8475   */\n      0x20\n        /* \"#utility.yul\":8465:8471   */\n      dup3\n        /* \"#utility.yul\":8462:8476   */\n      lt\n        /* \"#utility.yul\":8442:8460   */\n      dup2\n        /* \"#utility.yul\":8439:8477   */\n      sub\n        /* \"#utility.yul\":8436:8520   */\n      tag_249\n      jumpi\n        /* \"#utility.yul\":8492:8510   */\n      tag_250\n      tag_124\n      jump\t// in\n    tag_250:\n        /* \"#utility.yul\":8436:8520   */\n    tag_249:\n        /* \"#utility.yul\":8257:8526   */\n      pop\n        /* \"#utility.yul\":8206:8526   */\n      swap2\n      swap1\n      pop\n      jump\t// out\n        /* \"#utility.yul\":8532:8767   */\n    tag_125:\n        /* \"#utility.yul\":8672:8706   */\n      0x4c6120646f6e6163696f6e20646562652073657220696775616c2061206c6120\n        /* \"#utility.yul\":8668:8669   */\n      0x00\n        /* \"#utility.yul\":8660:8666   */\n      dup3\n        /* \"#utility.yul\":8656:8670   */\n      add\n        /* \"#utility.yul\":8649:8707   */\n      mstore\n        /* \"#utility.yul\":8741:8759   */\n      0x63616e746964616420656e766961646100000000000000000000000000000000\n        /* \"#utility.yul\":8736:8738   */\n      0x20\n        /* \"#utility.yul\":8728:8734   */\n      dup3\n        /* \"#utility.yul\":8724:8739   */\n      add\n        /* \"#utility.yul\":8717:8760   */\n      mstore\n        /* \"#utility.yul\":8532:8767   */\n      pop\n      jump\t// out\n        /* \"#utility.yul\":8773:9139   */\n    tag_126:\n        /* \"#utility.yul\":8915:8918   */\n      0x00\n        /* \"#utility.yul\":8936:9003   */\n      tag_253\n        /* \"#utility.yul\":9000:9002   */\n      0x30\n        /* \"#utility.yul\":8995:8998   */\n      dup4\n        /* \"#utility.yul\":8936:9003   */\n      tag_104\n      jump\t// in\n    tag_253:\n        /* \"#utility.yul\":8929:9003   */\n      swap2\n      pop\n        /* \"#utility.yul\":9012:9105   */\n      tag_254\n        /* \"#utility.yul\":9101:9104   */\n      dup3\n        /* \"#utility.yul\":9012:9105   */\n      tag_125\n      jump\t// in\n    tag_254:\n        /* \"#utility.yul\":9130:9132   */\n      0x40\n        /* \"#utility.yul\":9125:9128   */\n      dup3\n        /* \"#utility.yul\":9121:9133   */\n      add\n        /* \"#utility.yul\":9114:9133   */\n      swap1\n      pop\n        /* \"#utility.yul\":8773:9139   */\n      swap2\n      swap1\n      pop\n      jump\t// out\n        /* \"#utility.yul\":9145:9564   */\n    tag_63:\n        /* \"#utility.yul\":9311:9315   */\n      0x00\n        /* \"#utility.yul\":9349:9351   */\n      0x20\n        /* \"#utility.yul\":9338:9347   */\n      dup3\n        /* \"#utility.yul\":9334:9352   */\n      add\n        /* \"#utility.yul\":9326:9352   */\n      swap1\n      pop\n        /* \"#utility.yul\":9398:9407   */\n      dup2\n        /* \"#utility.yul\":9392:9396   */\n      dup2\n        /* \"#utility.yul\":9388:9408   */\n      sub\n        /* \"#utility.yul\":9384:9385   */\n      0x00\n        /* \"#utility.yul\":9373:9382   */\n      dup4\n        /* \"#utility.yul\":9369:9386   */\n      add\n        /* \"#utility.yul\":9362:9409   */\n      mstore\n        /* \"#utility.yul\":9426:9557   */\n      tag_256\n        /* \"#utility.yul\":9552:9556   */\n      dup2\n        /* \"#utility.yul\":9426:9557   */\n      tag_126\n      jump\t// in\n    tag_256:\n        /* \"#utility.yul\":9418:9557   */\n      swap1\n      pop\n        /* \"#utility.yul\":9145:9564   */\n      swap2\n      swap1\n      pop\n      jump\t// out\n        /* \"#utility.yul\":9570:9795   */\n    tag_127:\n        /* \"#utility.yul\":9710:9744   */\n      0x4c6120646f6e6163696f6e20646562652073657220756e2076616c6f7220706f\n        /* \"#utility.yul\":9706:9707   */\n      0x00\n        /* \"#utility.yul\":9698:9704   */\n      dup3\n        /* \"#utility.yul\":9694:9708   */\n      add\n        /* \"#utility.yul\":9687:9745   */\n      mstore\n        /* \"#utility.yul\":9779:9787   */\n      0x73697469766f0000000000000000000000000000000000000000000000000000\n        /* \"#utility.yul\":9774:9776   */\n      0x20\n        /* \"#utility.yul\":9766:9772   */\n      dup3\n        /* \"#utility.yul\":9762:9777   */\n      add\n        /* \"#utility.yul\":9755:9788   */\n      mstore\n        /* \"#utility.yul\":9570:9795   */\n      pop\n      jump\t// out\n        /* \"#utility.yul\":9801:10167   */\n    tag_128:\n        /* \"#utility.yul\":9943:9946   */\n      0x00\n        /* \"#utility.yul\":9964:10031   */\n      tag_259\n        /* \"#utility.yul\":10028:10030   */\n      0x26\n        /* \"#utility.yul\":10023:10026   */\n      dup4\n        /* \"#utility.yul\":9964:10031   */\n      tag_104\n      jump\t// in\n    tag_259:\n        /* \"#utility.yul\":9957:10031   */\n      swap2\n      pop\n        /* \"#utility.yul\":10040:10133   */\n      tag_260\n        /* \"#utility.yul\":10129:10132   */\n      dup3\n        /* \"#utility.yul\":10040:10133   */\n      tag_127\n      jump\t// in\n    tag_260:\n        /* \"#utility.yul\":10158:10160   */\n      0x40\n        /* \"#utility.yul\":10153:10156   */\n      dup3\n        /* \"#utility.yul\":10149:10161   */\n      add\n        /* \"#utility.yul\":10142:10161   */\n      swap1\n      pop\n        /* \"#utility.yul\":9801:10167   */\n      swap2\n      swap1\n      pop\n      jump\t// out\n        /* \"#utility.yul\":10173:10592   */\n    tag_66:\n        /* \"#utility.yul\":10339:10343   */\n      0x00\n        /* \"#utility.yul\":10377:10379   */\n      0x20\n        /* \"#utility.yul\":10366:10375   */\n      dup3\n        /* \"#utility.yul\":10362:10380   */\n      add\n        /* \"#utility.yul\":10354:10380   */\n      swap1\n      pop\n        /* \"#utility.yul\":10426:10435   */\n      dup2\n        /* \"#utility.yul\":10420:10424   */\n      dup2\n        /* \"#utility.yul\":10416:10436   */\n      sub\n        /* \"#utility.yul\":10412:10413   */\n      0x00\n        /* \"#utility.yul\":10401:10410   */\n      dup4\n        /* \"#utility.yul\":10397:10414   */\n      add\n        /* \"#utility.yul\":10390:10437   */\n      mstore\n        /* \"#utility.yul\":10454:10585   */\n      tag_262\n        /* \"#utility.yul\":10580:10584   */\n      dup2\n        /* \"#utility.yul\":10454:10585   */\n      tag_128\n      jump\t// in\n    tag_262:\n        /* \"#utility.yul\":10446:10585   */\n      swap1\n      pop\n        /* \"#utility.yul\":10173:10592   */\n      swap2\n      swap1\n      pop\n      jump\t// out\n        /* \"#utility.yul\":10598:10830   */\n    tag_129:\n        /* \"#utility.yul\":10738:10772   */\n      0x4c61206f7267616e697a6163696f6e2064652063617269646164206e6f206573\n        /* \"#utility.yul\":10734:10735   */\n      0x00\n        /* \"#utility.yul\":10726:10732   */\n      dup3\n        /* \"#utility.yul\":10722:10736   */\n      add\n        /* \"#utility.yul\":10715:10773   */\n      mstore\n        /* \"#utility.yul\":10807:10822   */\n      0x7461207265676973747261646100000000000000000000000000000000000000\n        /* \"#utility.yul\":10802:10804   */\n      0x20\n        /* \"#utility.yul\":10794:10800   */\n      dup3\n        /* \"#utility.yul\":10790:10805   */\n      add\n        /* \"#utility.yul\":10783:10823   */\n      mstore\n        /* \"#utility.yul\":10598:10830   */\n      pop\n      jump\t// out\n        /* \"#utility.yul\":10836:11202   */\n    tag_130:\n        /* \"#utility.yul\":10978:10981   */\n      0x00\n        /* \"#utility.yul\":10999:11066   */\n      tag_265\n        /* \"#utility.yul\":11063:11065   */\n      0x2d\n        /* \"#utility.yul\":11058:11061   */\n      dup4\n        /* \"#utility.yul\":10999:11066   */\n      tag_104\n      jump\t// in\n    tag_265:\n        /* \"#utility.yul\":10992:11066   */\n      swap2\n      pop\n        /* \"#utility.yul\":11075:11168   */\n      tag_266\n        /* \"#utility.yul\":11164:11167   */\n      dup3\n        /* \"#utility.yul\":11075:11168   */\n      tag_129\n      jump\t// in\n    tag_266:\n        /* \"#utility.yul\":11193:11195   */\n      0x40\n        /* \"#utility.yul\":11188:11191   */\n      dup3\n        /* \"#utility.yul\":11184:11196   */\n      add\n        /* \"#utility.yul\":11177:11196   */\n      swap1\n      pop\n        /* \"#utility.yul\":10836:11202   */\n      swap2\n      swap1\n      pop\n      jump\t// out\n        /* \"#utility.yul\":11208:11627   */\n    tag_70:\n        /* \"#utility.yul\":11374:11378   */\n      0x00\n        /* \"#utility.yul\":11412:11414   */\n      0x20\n        /* \"#utility.yul\":11401:11410   */\n      dup3\n        /* \"#utility.yul\":11397:11415   */\n      add\n        /* \"#utility.yul\":11389:11415   */\n      swap1\n      pop\n        /* \"#utility.yul\":11461:11470   */\n      dup2\n        /* \"#utility.yul\":11455:11459   */\n      dup2\n        /* \"#utility.yul\":11451:11471   */\n      sub\n        /* \"#utility.yul\":11447:11448   */\n      0x00\n        /* \"#utility.yul\":11436:11445   */\n      dup4\n        /* \"#utility.yul\":11432:11449   */\n      add\n        /* \"#utility.yul\":11425:11472   */\n      mstore\n        /* \"#utility.yul\":11489:11620   */\n      tag_268\n        /* \"#utility.yul\":11615:11619   */\n      dup2\n        /* \"#utility.yul\":11489:11620   */\n      tag_130\n      jump\t// in\n    tag_268:\n        /* \"#utility.yul\":11481:11620   */\n      swap1\n      pop\n        /* \"#utility.yul\":11208:11627   */\n      swap2\n      swap1\n      pop\n      jump\t// out\n        /* \"#utility.yul\":11633:11812   */\n    tag_131:\n        /* \"#utility.yul\":11773:11804   */\n      0x4573746120646972656363696f6e20657374612070726f686962696461000000\n        /* \"#utility.yul\":11769:11770   */\n      0x00\n        /* \"#utility.yul\":11761:11767   */\n      dup3\n        /* \"#utility.yul\":11757:11771   */\n      add\n        /* \"#utility.yul\":11750:11805   */\n      mstore\n        /* \"#utility.yul\":11633:11812   */\n      pop\n      jump\t// out\n        /* \"#utility.yul\":11818:12184   */\n    tag_132:\n        /* \"#utility.yul\":11960:11963   */\n      0x00\n        /* \"#utility.yul\":11981:12048   */\n      tag_271\n        /* \"#utility.yul\":12045:12047   */\n      0x1d\n        /* \"#utility.yul\":12040:12043   */\n      dup4\n        /* \"#utility.yul\":11981:12048   */\n      tag_104\n      jump\t// in\n    tag_271:\n        /* \"#utility.yul\":11974:12048   */\n      swap2\n      pop\n        /* \"#utility.yul\":12057:12150   */\n      tag_272\n        /* \"#utility.yul\":12146:12149   */\n      dup3\n        /* \"#utility.yul\":12057:12150   */\n      tag_131\n      jump\t// in\n    tag_272:\n        /* \"#utility.yul\":12175:12177   */\n      0x20\n        /* \"#utility.yul\":12170:12173   */\n      dup3\n        /* \"#utility.yul\":12166:12178   */\n      add\n        /* \"#utility.yul\":12159:12178   */\n      swap1\n      pop\n        /* \"#utility.yul\":11818:12184   */\n      swap2\n      swap1\n      pop\n      jump\t// out\n        /* \"#utility.yul\":12190:12609   */\n    tag_73:\n        /* \"#utility.yul\":12356:12360   */\n      0x00\n        /* \"#utility.yul\":12394:12396   */\n      0x20\n        /* \"#utility.yul\":12383:12392   */\n      dup3\n        /* \"#utility.yul\":12379:12397   */\n      add\n        /* \"#utility.yul\":12371:12397   */\n      swap1\n      pop\n        /* \"#utility.yul\":12443:12452   */\n      dup2\n        /* \"#utility.yul\":12437:12441   */\n      dup2\n        /* \"#utility.yul\":12433:12453   */\n      sub\n        /* \"#utility.yul\":12429:12430   */\n      0x00\n        /* \"#utility.yul\":12418:12427   */\n      dup4\n        /* \"#utility.yul\":12414:12431   */\n      add\n        /* \"#utility.yul\":12407:12454   */\n      mstore\n        /* \"#utility.yul\":12471:12602   */\n      tag_274\n        /* \"#utility.yul\":12597:12601   */\n      dup2\n        /* \"#utility.yul\":12471:12602   */\n      tag_132\n      jump\t// in\n    tag_274:\n        /* \"#utility.yul\":12463:12602   */\n      swap1\n      pop\n        /* \"#utility.yul\":12190:12609   */\n      swap2\n      swap1\n      pop\n      jump\t// out\n        /* \"#utility.yul\":12615:13057   */\n    tag_77:\n        /* \"#utility.yul\":12764:12768   */\n      0x00\n        /* \"#utility.yul\":12802:12804   */\n      0x60\n        /* \"#utility.yul\":12791:12800   */\n      dup3\n        /* \"#utility.yul\":12787:12805   */\n      add\n        /* \"#utility.yul\":12779:12805   */\n      swap1\n      pop\n        /* \"#utility.yul\":12815:12886   */\n      tag_276\n        /* \"#utility.yul\":12883:12884   */\n      0x00\n        /* \"#utility.yul\":12872:12881   */\n      dup4\n        /* \"#utility.yul\":12868:12885   */\n      add\n        /* \"#utility.yul\":12859:12865   */\n      dup7\n        /* \"#utility.yul\":12815:12886   */\n      tag_113\n      jump\t// in\n    tag_276:\n        /* \"#utility.yul\":12896:12968   */\n      tag_277\n        /* \"#utility.yul\":12964:12966   */\n      0x20\n        /* \"#utility.yul\":12953:12962   */\n      dup4\n        /* \"#utility.yul\":12949:12967   */\n      add\n        /* \"#utility.yul\":12940:12946   */\n      dup6\n        /* \"#utility.yul\":12896:12968   */\n      tag_113\n      jump\t// in\n    tag_277:\n        /* \"#utility.yul\":12978:13050   */\n      tag_278\n        /* \"#utility.yul\":13046:13048   */\n      0x40\n        /* \"#utility.yul\":13035:13044   */\n      dup4\n        /* \"#utility.yul\":13031:13049   */\n      add\n        /* \"#utility.yul\":13022:13028   */\n      dup5\n        /* \"#utility.yul\":12978:13050   */\n      tag_114\n      jump\t// in\n    tag_278:\n        /* \"#utility.yul\":12615:13057   */\n      swap5\n      swap4\n      pop\n      pop\n      pop\n      pop\n      jump\t// out\n        /* \"#utility.yul\":13063:13283   */\n    tag_133:\n        /* \"#utility.yul\":13203:13237   */\n      0x4573746120646972656363696f6e207961206573746120726567697374726164\n        /* \"#utility.yul\":13199:13200   */\n      0x00\n        /* \"#utility.yul\":13191:13197   */\n      dup3\n        /* \"#utility.yul\":13187:13201   */\n      add\n        /* \"#utility.yul\":13180:13238   */\n      mstore\n        /* \"#utility.yul\":13272:13275   */\n      0x6100000000000000000000000000000000000000000000000000000000000000\n        /* \"#utility.yul\":13267:13269   */\n      0x20\n        /* \"#utility.yul\":13259:13265   */\n      dup3\n        /* \"#utility.yul\":13255:13270   */\n      add\n        /* \"#utility.yul\":13248:13276   */\n      mstore\n        /* \"#utility.yul\":13063:13283   */\n      pop\n      jump\t// out\n        /* \"#utility.yul\":13289:13655   */\n    tag_134:\n        /* \"#utility.yul\":13431:13434   */\n      0x00\n        /* \"#utility.yul\":13452:13519   */\n      tag_281\n        /* \"#utility.yul\":13516:13518   */\n      0x21\n        /* \"#utility.yul\":13511:13514   */\n      dup4\n        /* \"#utility.yul\":13452:13519   */\n      tag_104\n      jump\t// in\n    tag_281:\n        /* \"#utility.yul\":13445:13519   */\n      swap2\n      pop\n        /* \"#utility.yul\":13528:13621   */\n      tag_282\n        /* \"#utility.yul\":13617:13620   */\n      dup3\n        /* \"#utility.yul\":13528:13621   */\n      tag_133\n      jump\t// in\n    tag_282:\n        /* \"#utility.yul\":13646:13648   */\n      0x40\n        /* \"#utility.yul\":13641:13644   */\n      dup3\n        /* \"#utility.yul\":13637:13649   */\n      add\n        /* \"#utility.yul\":13630:13649   */\n      swap1\n      pop\n        /* \"#utility.yul\":13289:13655   */\n      swap2\n      swap1\n      pop\n      jump\t// out\n        /* \"#utility.yul\":13661:14080   */\n    tag_86:\n        /* \"#utility.yul\":13827:13831   */\n      0x00\n        /* \"#utility.yul\":13865:13867   */\n      0x20\n        /* \"#utility.yul\":13854:13863   */\n      dup3\n        /* \"#utility.yul\":13850:13868   */\n      add\n        /* \"#utility.yul\":13842:13868   */\n      swap1\n      pop\n        /* \"#utility.yul\":13914:13923   */\n      dup2\n        /* \"#utility.yul\":13908:13912   */\n      dup2\n        /* \"#utility.yul\":13904:13924   */\n      sub\n        /* \"#utility.yul\":13900:13901   */\n      0x00\n        /* \"#utility.yul\":13889:13898   */\n      dup4\n        /* \"#utility.yul\":13885:13902   */\n      add\n        /* \"#utility.yul\":13878:13925   */\n      mstore\n        /* \"#utility.yul\":13942:14073   */\n      tag_284\n        /* \"#utility.yul\":14068:14072   */\n      dup2\n        /* \"#utility.yul\":13942:14073   */\n      tag_134\n      jump\t// in\n    tag_284:\n        /* \"#utility.yul\":13934:14073   */\n      swap1\n      pop\n        /* \"#utility.yul\":13661:14080   */\n      swap2\n      swap1\n      pop\n      jump\t// out\n        /* \"#utility.yul\":14086:14266   */\n    tag_135:\n        /* \"#utility.yul\":14226:14258   */\n      0x456c206e6f6d627265206e6f20707565646520657374617220766163696f0000\n        /* \"#utility.yul\":14222:14223   */\n      0x00\n        /* \"#utility.yul\":14214:14220   */\n      dup3\n        /* \"#utility.yul\":14210:14224   */\n      add\n        /* \"#utility.yul\":14203:14259   */\n      mstore\n        /* \"#utility.yul\":14086:14266   */\n      pop\n      jump\t// out\n        /* \"#utility.yul\":14272:14638   */\n    tag_136:\n        /* \"#utility.yul\":14414:14417   */\n      0x00\n        /* \"#utility.yul\":14435:14502   */\n      tag_287\n        /* \"#utility.yul\":14499:14501   */\n      0x1e\n        /* \"#utility.yul\":14494:14497   */\n      dup4\n        /* \"#utility.yul\":14435:14502   */\n      tag_104\n      jump\t// in\n    tag_287:\n        /* \"#utility.yul\":14428:14502   */\n      swap2\n      pop\n        /* \"#utility.yul\":14511:14604   */\n      tag_288\n        /* \"#utility.yul\":14600:14603   */\n      dup3\n        /* \"#utility.yul\":14511:14604   */\n      tag_135\n      jump\t// in\n    tag_288:\n        /* \"#utility.yul\":14629:14631   */\n      0x20\n        /* \"#utility.yul\":14624:14627   */\n      dup3\n        /* \"#utility.yul\":14620:14632   */\n      add\n        /* \"#utility.yul\":14613:14632   */\n      swap1\n      pop\n        /* \"#utility.yul\":14272:14638   */\n      swap2\n      swap1\n      pop\n      jump\t// out\n        /* \"#utility.yul\":14644:15063   */\n    tag_89:\n        /* \"#utility.yul\":14810:14814   */\n      0x00\n        /* \"#utility.yul\":14848:14850   */\n      0x20\n        /* \"#utility.yul\":14837:14846   */\n      dup3\n        /* \"#utility.yul\":14833:14851   */\n      add\n        /* \"#utility.yul\":14825:14851   */\n      swap1\n      pop\n        /* \"#utility.yul\":14897:14906   */\n      dup2\n        /* \"#utility.yul\":14891:14895   */\n      dup2\n        /* \"#utility.yul\":14887:14907   */\n      sub\n        /* \"#utility.yul\":14883:14884   */\n      0x00\n        /* \"#utility.yul\":14872:14881   */\n      dup4\n        /* \"#utility.yul\":14868:14885   */\n      add\n        /* \"#utility.yul\":14861:14908   */\n      mstore\n        /* \"#utility.yul\":14925:15056   */\n      tag_290\n        /* \"#utility.yul\":15051:15055   */\n      dup2\n        /* \"#utility.yul\":14925:15056   */\n      tag_136\n      jump\t// in\n    tag_290:\n        /* \"#utility.yul\":14917:15056   */\n      swap1\n      pop\n        /* \"#utility.yul\":14644:15063   */\n      swap2\n      swap1\n      pop\n      jump\t// out\n        /* \"#utility.yul\":15069:15210   */\n    tag_137:\n        /* \"#utility.yul\":15118:15122   */\n      0x00\n        /* \"#utility.yul\":15141:15144   */\n      dup2\n        /* \"#utility.yul\":15133:15144   */\n      swap1\n      pop\n        /* \"#utility.yul\":15164:15167   */\n      dup2\n        /* \"#utility.yul\":15161:15162   */\n      0x00\n        /* \"#utility.yul\":15154:15168   */\n      mstore\n        /* \"#utility.yul\":15198:15202   */\n      0x20\n        /* \"#utility.yul\":15195:15196   */\n      0x00\n        /* \"#utility.yul\":15185:15203   */\n      keccak256\n        /* \"#utility.yul\":15177:15203   */\n      swap1\n      pop\n        /* \"#utility.yul\":15069:15210   */\n      swap2\n      swap1\n      pop\n      jump\t// out\n        /* \"#utility.yul\":15216:15309   */\n    tag_138:\n        /* \"#utility.yul\":15253:15259   */\n      0x00\n        /* \"#utility.yul\":15300:15302   */\n      0x20\n        /* \"#utility.yul\":15295:15297   */\n      0x1f\n        /* \"#utility.yul\":15288:15293   */\n      dup4\n        /* \"#utility.yul\":15284:15298   */\n      add\n        /* \"#utility.yul\":15280:15303   */\n      div\n        /* \"#utility.yul\":15270:15303   */\n      swap1\n      pop\n        /* \"#utility.yul\":15216:15309   */\n      swap2\n      swap1\n      pop\n      jump\t// out\n        /* \"#utility.yul\":15315:15422   */\n    tag_139:\n        /* \"#utility.yul\":15359:15367   */\n      0x00\n        /* \"#utility.yul\":15409:15414   */\n      dup3\n        /* \"#utility.yul\":15403:15407   */\n      dup3\n        /* \"#utility.yul\":15399:15415   */\n      shl\n        /* \"#utility.yul\":15378:15415   */\n      swap1\n      pop\n        /* \"#utility.yul\":15315:15422   */\n      swap3\n      swap2\n      pop\n      pop\n      jump\t// out\n        /* \"#utility.yul\":15428:15821   */\n    tag_140:\n        /* \"#utility.yul\":15497:15503   */\n      0x00\n        /* \"#utility.yul\":15547:15548   */\n      0x08\n        /* \"#utility.yul\":15535:15545   */\n      dup4\n        /* \"#utility.yul\":15531:15549   */\n      mul\n        /* \"#utility.yul\":15570:15667   */\n      tag_295\n        /* \"#utility.yul\":15600:15666   */\n      0xffffffffffffffffffffffffffffffffffffffffffffffffffffffffffffffff\n        /* \"#utility.yul\":15589:15598   */\n      dup3\n        /* \"#utility.yul\":15570:15667   */\n      tag_139\n      jump\t// in\n    tag_295:\n        /* \"#utility.yul\":15688:15727   */\n      tag_296\n        /* \"#utility.yul\":15718:15726   */\n      dup7\n        /* \"#utility.yul\":15707:15716   */\n      dup4\n        /* \"#utility.yul\":15688:15727   */\n      tag_139\n      jump\t// in\n    tag_296:\n        /* \"#utility.yul\":15676:15727   */\n      swap6\n      pop\n        /* \"#utility.yul\":15760:15764   */\n      dup1\n        /* \"#utility.yul\":15756:15765   */\n      not\n        /* \"#utility.yul\":15749:15754   */\n      dup5\n        /* \"#utility.yul\":15745:15766   */\n      and\n        /* \"#utility.yul\":15736:15766   */\n      swap4\n      pop\n        /* \"#utility.yul\":15809:15813   */\n      dup1\n        /* \"#utility.yul\":15799:15807   */\n      dup7\n        /* \"#utility.yul\":15795:15814   */\n      and\n        /* \"#utility.yul\":15788:15793   */\n      dup5\n        /* \"#utility.yul\":15785:15815   */\n      or\n        /* \"#utility.yul\":15775:15815   */\n      swap3\n      pop\n        /* \"#utility.yul\":15504:15821   */\n      pop\n      pop\n        /* \"#utility.yul\":15428:15821   */\n      swap4\n      swap3\n      pop\n      pop\n      pop\n      jump\t// out\n        /* \"#utility.yul\":15827:15887   */\n    tag_141:\n        /* \"#utility.yul\":15855:15858   */\n      0x00\n        /* \"#utility.yul\":15876:15881   */\n      dup2\n        /* \"#utility.yul\":15869:15881   */\n      swap1\n      pop\n        /* \"#utility.yul\":15827:15887   */\n      swap2\n      swap1\n      pop\n      jump\t// out\n        /* \"#utility.yul\":15893:16035   */\n    tag_142:\n        /* \"#utility.yul\":15943:15952   */\n      0x00\n        /* \"#utility.yul\":15976:16029   */\n      tag_299\n        /* \"#utility.yul\":15994:16028   */\n      tag_300\n        /* \"#utility.yul\":16003:16027   */\n      tag_301\n        /* \"#utility.yul\":16021:16026   */\n      dup5\n        /* \"#utility.yul\":16003:16027   */\n      tag_110\n      jump\t// in\n    tag_301:\n        /* \"#utility.yul\":15994:16028   */\n      tag_141\n      jump\t// in\n    tag_300:\n        /* \"#utility.yul\":15976:16029   */\n      tag_110\n      jump\t// in\n    tag_299:\n        /* \"#utility.yul\":15963:16029   */\n      swap1\n      pop\n        /* \"#utility.yul\":15893:16035   */\n      swap2\n      swap1\n      pop\n      jump\t// out\n        /* \"#utility.yul\":16041:16116   */\n    tag_143:\n        /* \"#utility.yul\":16084:16087   */\n      0x00\n        /* \"#utility.yul\":16105:16110   */\n      dup2\n        /* \"#utility.yul\":16098:16110   */\n      swap1\n      pop\n        /* \"#utility.yul\":16041:16116   */\n      swap2\n      swap1\n      pop\n      jump\t// out\n        /* \"#utility.yul\":16122:16391   */\n    tag_144:\n        /* \"#utility.yul\":16232:16271   */\n      tag_304\n        /* \"#utility.yul\":16263:16270   */\n      dup4\n        /* \"#utility.yul\":16232:16271   */\n      tag_142\n      jump\t// in\n    tag_304:\n        /* \"#utility.yul\":16293:16384   */\n      tag_305\n        /* \"#utility.yul\":16342:16383   */\n      tag_306\n        /* \"#utility.yul\":16366:16382   */\n      dup3\n        /* \"#utility.yul\":16342:16383   */\n      tag_143\n      jump\t// in\n    tag_306:\n        /* \"#utility.yul\":16334:16340   */\n      dup5\n        /* \"#utility.yul\":16327:16331   */\n      dup5\n        /* \"#utility.yul\":16321:16332   */\n      sload\n        /* \"#utility.yul\":16293:16384   */\n      tag_140\n      jump\t// in\n    tag_305:\n        /* \"#utility.yul\":16287:16291   */\n      dup3\n        /* \"#utility.yul\":16280:16385   */\n      sstore\n        /* \"#utility.yul\":16198:16391   */\n      pop\n        /* \"#utility.yul\":16122:16391   */\n      pop\n      pop\n      pop\n      jump\t// out\n        /* \"#utility.yul\":16397:16470   */\n    tag_145:\n        /* \"#utility.yul\":16442:16445   */\n      0x00\n        /* \"#utility.yul\":16397:16470   */\n      swap1\n      jump\t// out\n        /* \"#utility.yul\":16476:16665   */\n    tag_146:\n        /* \"#utility.yul\":16553:16585   */\n      tag_309\n      tag_145\n      jump\t// in\n    tag_309:\n        /* \"#utility.yul\":16594:16659   */\n      tag_310\n        /* \"#utility.yul\":16652:16658   */\n      dup2\n        /* \"#utility.yul\":16644:16650   */\n      dup5\n        /* \"#utility.yul\":16638:16642   */\n      dup5\n        /* \"#utility.yul\":16594:16659   */\n      tag_144\n      jump\t// in\n    tag_310:\n        /* \"#utility.yul\":16529:16665   */\n      pop\n        /* \"#utility.yul\":16476:16665   */\n      pop\n      pop\n      jump\t// out\n        /* \"#utility.yul\":16671:16857   */\n    tag_147:\n        /* \"#utility.yul\":16731:16851   */\n    tag_312:\n        /* \"#utility.yul\":16748:16751   */\n      dup2\n        /* \"#utility.yul\":16741:16746   */\n      dup2\n        /* \"#utility.yul\":16738:16752   */\n      lt\n        /* \"#utility.yul\":16731:16851   */\n      iszero\n      tag_314\n      jumpi\n        /* \"#utility.yul\":16802:16841   */\n      tag_315\n        /* \"#utility.yul\":16839:16840   */\n      0x00\n        /* \"#utility.yul\":16832:16837   */\n      dup3\n        /* \"#utility.yul\":16802:16841   */\n      tag_146\n      jump\t// in\n    tag_315:\n        /* \"#utility.yul\":16775:16776   */\n      0x01\n        /* \"#utility.yul\":16768:16773   */\n      dup2\n        /* \"#utility.yul\":16764:16777   */\n      add\n        /* \"#utility.yul\":16755:16777   */\n      swap1\n      pop\n        /* \"#utility.yul\":16731:16851   */\n      jump(tag_312)\n    tag_314:\n        /* \"#utility.yul\":16671:16857   */\n      pop\n      pop\n      jump\t// out\n        /* \"#utility.yul\":16863:17406   */\n    tag_148:\n        /* \"#utility.yul\":16964:16966   */\n      0x1f\n        /* \"#utility.yul\":16959:16962   */\n      dup3\n        /* \"#utility.yul\":16956:16967   */\n      gt\n        /* \"#utility.yul\":16953:17399   */\n      iszero\n      tag_317\n      jumpi\n        /* \"#utility.yul\":16998:17036   */\n      tag_318\n        /* \"#utility.yul\":17030:17035   */\n      dup2\n        /* \"#utility.yul\":16998:17036   */\n      tag_137\n      jump\t// in\n    tag_318:\n        /* \"#utility.yul\":17082:17111   */\n      tag_319\n        /* \"#utility.yul\":17100:17110   */\n      dup5\n        /* \"#utility.yul\":17082:17111   */\n      tag_138\n      jump\t// in\n    tag_319:\n        /* \"#utility.yul\":17072:17080   */\n      dup2\n        /* \"#utility.yul\":17068:17112   */\n      add\n        /* \"#utility.yul\":17265:17267   */\n      0x20\n        /* \"#utility.yul\":17253:17263   */\n      dup6\n        /* \"#utility.yul\":17250:17268   */\n      lt\n        /* \"#utility.yul\":17247:17296   */\n      iszero\n      tag_320\n      jumpi\n        /* \"#utility.yul\":17286:17294   */\n      dup2\n        /* \"#utility.yul\":17271:17294   */\n      swap1\n      pop\n        /* \"#utility.yul\":17247:17296   */\n    tag_320:\n        /* \"#utility.yul\":17309:17389   */\n      tag_321\n        /* \"#utility.yul\":17365:17387   */\n      tag_322\n        /* \"#utility.yul\":17383:17386   */\n      dup6\n        /* \"#utility.yul\":17365:17387   */\n      tag_138\n      jump\t// in\n    tag_322:\n        /* \"#utility.yul\":17355:17363   */\n      dup4\n        /* \"#utility.yul\":17351:17388   */\n      add\n        /* \"#utility.yul\":17338:17349   */\n      dup3\n        /* \"#utility.yul\":17309:17389   */\n      tag_147\n      jump\t// in\n    tag_321:\n        /* \"#utility.yul\":16968:17399   */\n      pop\n      pop\n        /* \"#utility.yul\":16953:17399   */\n    tag_317:\n        /* \"#utility.yul\":16863:17406   */\n      pop\n      pop\n      pop\n      jump\t// out\n        /* \"#utility.yul\":17412:17529   */\n    tag_149:\n        /* \"#utility.yul\":17466:17474   */\n      0x00\n        /* \"#utility.yul\":17516:17521   */\n      dup3\n        /* \"#utility.yul\":17510:17514   */\n      dup3\n        /* \"#utility.yul\":17506:17522   */\n      shr\n        /* \"#utility.yul\":17485:17522   */\n      swap1\n      pop\n        /* \"#utility.yul\":17412:17529   */\n      swap3\n      swap2\n      pop\n      pop\n      jump\t// out\n        /* \"#utility.yul\":17535:17704   */\n    tag_150:\n        /* \"#utility.yul\":17579:17585   */\n      0x00\n        /* \"#utility.yul\":17612:17663   */\n      tag_325\n        /* \"#utility.yul\":17660:17661   */\n      0x00\n        /* \"#utility.yul\":17656:17662   */\n      not\n        /* \"#utility.yul\":17648:17653   */\n      dup5\n        /* \"#utility.yul\":17645:17646   */\n      0x08\n        /* \"#utility.yul\":17641:17654   */\n      mul\n        /* \"#utility.yul\":17612:17663   */\n      tag_149\n      jump\t// in\n    tag_325:\n        /* \"#utility.yul\":17608:17664   */\n      not\n        /* \"#utility.yul\":17693:17697   */\n      dup1\n        /* \"#utility.yul\":17687:17691   */\n      dup4\n        /* \"#utility.yul\":17683:17698   */\n      and\n        /* \"#utility.yul\":17673:17698   */\n      swap2\n      pop\n        /* \"#utility.yul\":17586:17704   */\n      pop\n        /* \"#utility.yul\":17535:17704   */\n      swap3\n      swap2\n      pop\n      pop\n      jump\t// out\n        /* \"#utility.yul\":17709:18004   */\n    tag_151:\n        /* \"#utility.yul\":17785:17789   */\n      0x00\n        /* \"#utility.yul\":17931:17960   */\n      tag_327\n        /* \"#utility.yul\":17956:17959   */\n      dup4\n        /* \"#utility.yul\":17950:17954   */\n      dup4\n        /* \"#utility.yul\":17931:17960   */\n      tag_150\n      jump\t// in\n    tag_327:\n        /* \"#utility.yul\":17923:17960   */\n      swap2\n      pop\n        /* \"#utility.yul\":17993:17996   */\n      dup3\n        /* \"#utility.yul\":17990:17991   */\n      0x02\n        /* \"#utility.yul\":17986:17997   */\n      mul\n        /* \"#utility.yul\":17980:17984   */\n      dup3\n        /* \"#utility.yul\":17977:17998   */\n      or\n        /* \"#utility.yul\":17969:17998   */\n      swap1\n      pop\n        /* \"#utility.yul\":17709:18004   */\n      swap3\n      swap2\n      pop\n      pop\n      jump\t// out\n        /* \"#utility.yul\":18009:19404   */\n    tag_91:\n        /* \"#utility.yul\":18126:18163   */\n      tag_329\n        /* \"#utility.yul\":18159:18162   */\n      dup3\n        /* \"#utility.yul\":18126:18163   */\n      tag_103\n      jump\t// in\n    tag_329:\n        /* \"#utility.yul\":18228:18246   */\n      0xffffffffffffffff\n        /* \"#utility.yul\":18220:18226   */\n      dup2\n        /* \"#utility.yul\":18217:18247   */\n      gt\n        /* \"#utility.yul\":18214:18270   */\n      iszero\n      tag_330\n      jumpi\n        /* \"#utility.yul\":18250:18268   */\n      tag_331\n      tag_117\n      jump\t// in\n    tag_331:\n        /* \"#utility.yul\":18214:18270   */\n    tag_330:\n        /* \"#utility.yul\":18294:18332   */\n      tag_332\n        /* \"#utility.yul\":18326:18330   */\n      dup3\n        /* \"#utility.yul\":18320:18331   */\n      sload\n        /* \"#utility.yul\":18294:18332   */\n      tag_55\n      jump\t// in\n    tag_332:\n        /* \"#utility.yul\":18379:18446   */\n      tag_333\n        /* \"#utility.yul\":18439:18445   */\n      dup3\n        /* \"#utility.yul\":18431:18437   */\n      dup3\n        /* \"#utility.yul\":18425:18429   */\n      dup6\n        /* \"#utility.yul\":18379:18446   */\n      tag_148\n      jump\t// in\n    tag_333:\n        /* \"#utility.yul\":18473:18474   */\n      0x00\n        /* \"#utility.yul\":18497:18501   */\n      0x20\n        /* \"#utility.yul\":18484:18501   */\n      swap1\n      pop\n        /* \"#utility.yul\":18529:18531   */\n      0x1f\n        /* \"#utility.yul\":18521:18527   */\n      dup4\n        /* \"#utility.yul\":18518:18532   */\n      gt\n        /* \"#utility.yul\":18546:18547   */\n      0x01\n        /* \"#utility.yul\":18541:19159   */\n      dup2\n      eq\n      tag_335\n      jumpi\n        /* \"#utility.yul\":19203:19204   */\n      0x00\n        /* \"#utility.yul\":19220:19226   */\n      dup5\n        /* \"#utility.yul\":19217:19294   */\n      iszero\n      tag_336\n      jumpi\n        /* \"#utility.yul\":19269:19278   */\n      dup3\n        /* \"#utility.yul\":19264:19267   */\n      dup8\n        /* \"#utility.yul\":19260:19279   */\n      add\n        /* \"#utility.yul\":19254:19280   */\n      mload\n        /* \"#utility.yul\":19245:19280   */\n      swap1\n      pop\n        /* \"#utility.yul\":19217:19294   */\n    tag_336:\n        /* \"#utility.yul\":19320:19387   */\n      tag_337\n        /* \"#utility.yul\":19380:19386   */\n      dup6\n        /* \"#utility.yul\":19373:19378   */\n      dup3\n        /* \"#utility.yul\":19320:19387   */\n      tag_151\n      jump\t// in\n    tag_337:\n        /* \"#utility.yul\":19314:19318   */\n      dup7\n        /* \"#utility.yul\":19307:19388   */\n      sstore\n        /* \"#utility.yul\":19176:19398   */\n      pop\n        /* \"#utility.yul\":18511:19398   */\n      jump(tag_334)\n        /* \"#utility.yul\":18541:19159   */\n    tag_335:\n        /* \"#utility.yul\":18593:18597   */\n      0x1f\n        /* \"#utility.yul\":18589:18598   */\n      not\n        /* \"#utility.yul\":18581:18587   */\n      dup5\n        /* \"#utility.yul\":18577:18599   */\n      and\n        /* \"#utility.yul\":18627:18664   */\n      tag_338\n        /* \"#utility.yul\":18659:18663   */\n      dup7\n        /* \"#utility.yul\":18627:18664   */\n      tag_137\n      jump\t// in\n    tag_338:\n        /* \"#utility.yul\":18686:18687   */\n      0x00\n        /* \"#utility.yul\":18700:18908   */\n    tag_339:\n        /* \"#utility.yul\":18714:18721   */\n      dup3\n        /* \"#utility.yul\":18711:18712   */\n      dup2\n        /* \"#utility.yul\":18708:18722   */\n      lt\n        /* \"#utility.yul\":18700:18908   */\n      iszero\n      tag_341\n      jumpi\n        /* \"#utility.yul\":18793:18802   */\n      dup5\n        /* \"#utility.yul\":18788:18791   */\n      dup10\n        /* \"#utility.yul\":18784:18803   */\n      add\n        /* \"#utility.yul\":18778:18804   */\n      mload\n        /* \"#utility.yul\":18770:18776   */\n      dup3\n        /* \"#utility.yul\":18763:18805   */\n      sstore\n        /* \"#utility.yul\":18844:18845   */\n      0x01\n        /* \"#utility.yul\":18836:18842   */\n      dup3\n        /* \"#utility.yul\":18832:18846   */\n      add\n        /* \"#utility.yul\":18822:18846   */\n      swap2\n      pop\n        /* \"#utility.yul\":18891:18893   */\n      0x20\n        /* \"#utility.yul\":18880:18889   */\n      dup6\n        /* \"#utility.yul\":18876:18894   */\n      add\n        /* \"#utility.yul\":18863:18894   */\n      swap5\n      pop\n        /* \"#utility.yul\":18737:18741   */\n      0x20\n        /* \"#utility.yul\":18734:18735   */\n      dup2\n        /* \"#utility.yul\":18730:18742   */\n      add\n        /* \"#utility.yul\":18725:18742   */\n      swap1\n      pop\n        /* \"#utility.yul\":18700:18908   */\n      jump(tag_339)\n    tag_341:\n        /* \"#utility.yul\":18936:18942   */\n      dup7\n        /* \"#utility.yul\":18927:18934   */\n      dup4\n        /* \"#utility.yul\":18924:18943   */\n      lt\n        /* \"#utility.yul\":18921:19100   */\n      iszero\n      tag_342\n      jumpi\n        /* \"#utility.yul\":18994:19003   */\n      dup5\n        /* \"#utility.yul\":18989:18992   */\n      dup10\n        /* \"#utility.yul\":18985:19004   */\n      add\n        /* \"#utility.yul\":18979:19005   */\n      mload\n        /* \"#utility.yul\":19037:19085   */\n      tag_343\n        /* \"#utility.yul\":19079:19083   */\n      0x1f\n        /* \"#utility.yul\":19071:19077   */\n      dup10\n        /* \"#utility.yul\":19067:19084   */\n      and\n        /* \"#utility.yul\":19056:19065   */\n      dup3\n        /* \"#utility.yul\":19037:19085   */\n      tag_150\n      jump\t// in\n    tag_343:\n        /* \"#utility.yul\":19029:19035   */\n      dup4\n        /* \"#utility.yul\":19022:19086   */\n      sstore\n        /* \"#utility.yul\":18944:19100   */\n      pop\n        /* \"#utility.yul\":18921:19100   */\n    tag_342:\n        /* \"#utility.yul\":19146:19147   */\n      0x01\n        /* \"#utility.yul\":19142:19143   */\n      0x02\n        /* \"#utility.yul\":19134:19140   */\n      dup9\n        /* \"#utility.yul\":19130:19144   */\n      mul\n        /* \"#utility.yul\":19126:19148   */\n      add\n        /* \"#utility.yul\":19120:19124   */\n      dup9\n        /* \"#utility.yul\":19113:19149   */\n      sstore\n        /* \"#utility.yul\":18548:19159   */\n      pop\n      pop\n      pop\n        /* \"#utility.yul\":18511:19398   */\n    tag_334:\n      pop\n        /* \"#utility.yul\":18101:19404   */\n      pop\n      pop\n      pop\n        /* \"#utility.yul\":18009:19404   */\n      pop\n      pop\n      jump\t// out\n        /* \"#utility.yul\":19410:19833   */\n    tag_93:\n        /* \"#utility.yul\":19551:19555   */\n      0x00\n        /* \"#utility.yul\":19589:19591   */\n      0x40\n        /* \"#utility.yul\":19578:19587   */\n      dup3\n        /* \"#utility.yul\":19574:19592   */\n      add\n        /* \"#utility.yul\":19566:19592   */\n      swap1\n      pop\n        /* \"#utility.yul\":19602:19673   */\n      tag_345\n        /* \"#utility.yul\":19670:19671   */\n      0x00\n        /* \"#utility.yul\":19659:19668   */\n      dup4\n        /* \"#utility.yul\":19655:19672   */\n      add\n        /* \"#utility.yul\":19646:19652   */\n      dup6\n        /* \"#utility.yul\":19602:19673   */\n      tag_113\n      jump\t// in\n    tag_345:\n        /* \"#utility.yul\":19720:19729   */\n      dup2\n        /* \"#utility.yul\":19714:19718   */\n      dup2\n        /* \"#utility.yul\":19710:19730   */\n      sub\n        /* \"#utility.yul\":19705:19707   */\n      0x20\n        /* \"#utility.yul\":19694:19703   */\n      dup4\n        /* \"#utility.yul\":19690:19708   */\n      add\n        /* \"#utility.yul\":19683:19731   */\n      mstore\n        /* \"#utility.yul\":19748:19826   */\n      tag_346\n        /* \"#utility.yul\":19821:19825   */\n      dup2\n        /* \"#utility.yul\":19812:19818   */\n      dup5\n        /* \"#utility.yul\":19748:19826   */\n      tag_107\n      jump\t// in\n    tag_346:\n        /* \"#utility.yul\":19740:19826   */\n      swap1\n      pop\n        /* \"#utility.yul\":19410:19833   */\n      swap4\n      swap3\n      pop\n      pop\n      pop\n      jump\t// out\n        /* \"#utility.yul\":19839:20019   */\n    tag_152:\n        /* \"#utility.yul\":19887:19964   */\n      0x4e487b7100000000000000000000000000000000000000000000000000000000\n        /* \"#utility.yul\":19884:19885   */\n      0x00\n        /* \"#utility.yul\":19877:19965   */\n      mstore\n        /* \"#utility.yul\":19984:19988   */\n      0x11\n        /* \"#utility.yul\":19981:19982   */\n      0x04\n        /* \"#utility.yul\":19974:19989   */\n      mstore\n        /* \"#utility.yul\":20008:20012   */\n      0x24\n        /* \"#utility.yul\":20005:20006   */\n      0x00\n        /* \"#utility.yul\":19998:20013   */\n      revert\n        /* \"#utility.yul\":20025:20258   */\n    tag_95:\n        /* \"#utility.yul\":20064:20067   */\n      0x00\n        /* \"#utility.yul\":20087:20111   */\n      tag_349\n        /* \"#utility.yul\":20105:20110   */\n      dup3\n        /* \"#utility.yul\":20087:20111   */\n      tag_110\n      jump\t// in\n    tag_349:\n        /* \"#utility.yul\":20078:20111   */\n      swap2\n      pop\n        /* \"#utility.yul\":20133:20199   */\n      0xffffffffffffffffffffffffffffffffffffffffffffffffffffffffffffffff\n        /* \"#utility.yul\":20126:20131   */\n      dup3\n        /* \"#utility.yul\":20123:20200   */\n      sub\n        /* \"#utility.yul\":20120:20223   */\n      tag_350\n      jumpi\n        /* \"#utility.yul\":20203:20221   */\n      tag_351\n      tag_152\n      jump\t// in\n    tag_351:\n        /* \"#utility.yul\":20120:20223   */\n    tag_350:\n        /* \"#utility.yul\":20250:20251   */\n      0x01\n        /* \"#utility.yul\":20243:20248   */\n      dup3\n        /* \"#utility.yul\":20239:20252   */\n      add\n        /* \"#utility.yul\":20232:20252   */\n      swap1\n      pop\n        /* \"#utility.yul\":20025:20258   */\n      swap2\n      swap1\n      pop\n      jump\t// out\n\n    auxdata: 0xa2646970667358221220ba50afa2630accdd143781ef1504a930d77731ed084e01c91aba8dec7b71f23c64736f6c63430008120033\n}\n",
				"bytecode": {
					"linkReferences": {},
					"object": "608060405234801561001057600080fd5b50336000806101000a81548173ffffffffffffffffffffffffffffffffffffffff021916908373ffffffffffffffffffffffffffffffffffffffff16021790555060016000815480929190610064906100b5565b9190505550600260009054906101000a9050506100fd565b7f4e487b7100000000000000000000000000000000000000000000000000000000600052601160045260246000fd5b6000819050919050565b60006100c0826100ab565b91507fffffffffffffffffffffffffffffffffffffffffffffffffffffffffffffffff82036100f2576100f161007c565b5b600182019050919050565b6113728061010c6000396000f3fe60806040526004361061007b5760003560e01c8063439e04e41161004e578063439e04e4146101415780638f764ac41461017f578063a71c7ca4146101aa578063f124516a146101d55761007b565b806307a4f5a7146100805780631a78db75146100bd5780632a306d74146100fa5780633c4f81cd14610116575b600080fd5b34801561008c57600080fd5b506100a760048036038101906100a29190610893565b6101fe565b6040516100b49190610950565b60405180910390f35b3480156100c957600080fd5b506100e460048036038101906100df9190610893565b61029e565b6040516100f1919061098d565b60405180910390f35b610114600480360381019061010f91906109de565b6102be565b005b34801561012257600080fd5b5061012b6104e7565b6040516101389190610a2d565b60405180910390f35b34801561014d57600080fd5b5061016860048036038101906101639190610a48565b61050b565b604051610176929190610a75565b60405180910390f35b34801561018b57600080fd5b506101946105d7565b6040516101a19190610a2d565b60405180910390f35b3480156101b657600080fd5b506101bf6105fd565b6040516101cc9190610ab4565b60405180910390f35b3480156101e157600080fd5b506101fc60048036038101906101f79190610c04565b610603565b005b6003602052806000526040600020600091509050805461021d90610c8f565b80601f016020809104026020016040519081016040528092919081815260200182805461024990610c8f565b80156102965780601f1061026b57610100808354040283529160200191610296565b820191906000526020600020905b81548152906001019060200180831161027957829003601f168201915b505050505081565b60046020528060005260406000206000915054906101000a900460ff1681565b803414610300576040517f08c379a00000000000000000000000000000000000000000000000000000000081526004016102f790610d32565b60405180910390fd5b60008111610343576040517f08c379a000000000000000000000000000000000000000000000000000000000815260040161033a90610dc4565b60405180910390fd5b6000600360008473ffffffffffffffffffffffffffffffffffffffff1673ffffffffffffffffffffffffffffffffffffffff168152602001908152602001600020805461038f90610c8f565b9050116103d1576040517f08c379a00000000000000000000000000000000000000000000000000000000081526004016103c890610e56565b60405180910390fd5b600260009054906101000a900473ffffffffffffffffffffffffffffffffffffffff1673ffffffffffffffffffffffffffffffffffffffff163373ffffffffffffffffffffffffffffffffffffffff1603610461576040517f08c379a000000000000000000000000000000000000000000000000000000000815260040161045890610ec2565b60405180910390fd5b8173ffffffffffffffffffffffffffffffffffffffff166108fc829081150290604051600060405180830381858888f193505050501580156104a7573d6000803e3d6000fd5b507f2f641ba41d9ffcd1429d0ba546668473c4ca6ce96378f7df063a257fbf5a6d8d3383836040516104db93929190610ee2565b60405180910390a15050565b60008054906101000a900473ffffffffffffffffffffffffffffffffffffffff1681565b600560205280600052604060002060009150905080600001805461052e90610c8f565b80601f016020809104026020016040519081016040528092919081815260200182805461055a90610c8f565b80156105a75780601f1061057c576101008083540402835291602001916105a7565b820191906000526020600020905b81548152906001019060200180831161058a57829003601f168201915b5050505050908060010160009054906101000a900473ffffffffffffffffffffffffffffffffffffffff16905082565b600260009054906101000a900473ffffffffffffffffffffffffffffffffffffffff1681565b60015481565b600460008273ffffffffffffffffffffffffffffffffffffffff1673ffffffffffffffffffffffffffffffffffffffff16815260200190815260200160002060009054906101000a900460ff1615610690576040517f08c379a000000000000000000000000000000000000000000000000000000000815260040161068790610f8b565b60405180910390fd5b60008251116106d4576040517f08c379a00000000000000000000000000000000000000000000000000000000081526004016106cb90610ff7565b60405180910390fd5b60405180604001604052808381526020018273ffffffffffffffffffffffffffffffffffffffff16815250600560006001548152602001908152602001600020600082015181600001908161072991906111c3565b5060208201518160010160006101000a81548173ffffffffffffffffffffffffffffffffffffffff021916908373ffffffffffffffffffffffffffffffffffffffff1602179055509050506001600460008373ffffffffffffffffffffffffffffffffffffffff1673ffffffffffffffffffffffffffffffffffffffff16815260200190815260200160002060006101000a81548160ff0219169083151502179055507ff25bbb4ba1e76aa825e9a6d9e2fc02876f02bb78e95e79f4a5a541387dc5b3a033836040516107fd929190611295565b60405180910390a160016000815480929190610818906112f4565b91905055505050565b6000604051905090565b600080fd5b600080fd5b600073ffffffffffffffffffffffffffffffffffffffff82169050919050565b600061086082610835565b9050919050565b61087081610855565b811461087b57600080fd5b50565b60008135905061088d81610867565b92915050565b6000602082840312156108a9576108a861082b565b5b60006108b78482850161087e565b91505092915050565b600081519050919050565b600082825260208201905092915050565b60005b838110156108fa5780820151818401526020810190506108df565b60008484015250505050565b6000601f19601f8301169050919050565b6000610922826108c0565b61092c81856108cb565b935061093c8185602086016108dc565b61094581610906565b840191505092915050565b6000602082019050818103600083015261096a8184610917565b905092915050565b60008115159050919050565b61098781610972565b82525050565b60006020820190506109a2600083018461097e565b92915050565b6000819050919050565b6109bb816109a8565b81146109c657600080fd5b50565b6000813590506109d8816109b2565b92915050565b600080604083850312156109f5576109f461082b565b5b6000610a038582860161087e565b9250506020610a14858286016109c9565b9150509250929050565b610a2781610855565b82525050565b6000602082019050610a426000830184610a1e565b92915050565b600060208284031215610a5e57610a5d61082b565b5b6000610a6c848285016109c9565b91505092915050565b60006040820190508181036000830152610a8f8185610917565b9050610a9e6020830184610a1e565b9392505050565b610aae816109a8565b82525050565b6000602082019050610ac96000830184610aa5565b92915050565b600080fd5b600080fd5b7f4e487b7100000000000000000000000000000000000000000000000000000000600052604160045260246000fd5b610b1182610906565b810181811067ffffffffffffffff82111715610b3057610b2f610ad9565b5b80604052505050565b6000610b43610821565b9050610b4f8282610b08565b919050565b600067ffffffffffffffff821115610b6f57610b6e610ad9565b5b610b7882610906565b9050602081019050919050565b82818337600083830152505050565b6000610ba7610ba284610b54565b610b39565b905082815260208101848484011115610bc357610bc2610ad4565b5b610bce848285610b85565b509392505050565b600082601f830112610beb57610bea610acf565b5b8135610bfb848260208601610b94565b91505092915050565b60008060408385031215610c1b57610c1a61082b565b5b600083013567ffffffffffffffff811115610c3957610c38610830565b5b610c4585828601610bd6565b9250506020610c568582860161087e565b9150509250929050565b7f4e487b7100000000000000000000000000000000000000000000000000000000600052602260045260246000fd5b60006002820490506001821680610ca757607f821691505b602082108103610cba57610cb9610c60565b5b50919050565b7f4c6120646f6e6163696f6e20646562652073657220696775616c2061206c612060008201527f63616e746964616420656e766961646100000000000000000000000000000000602082015250565b6000610d1c6030836108cb565b9150610d2782610cc0565b604082019050919050565b60006020820190508181036000830152610d4b81610d0f565b9050919050565b7f4c6120646f6e6163696f6e20646562652073657220756e2076616c6f7220706f60008201527f73697469766f0000000000000000000000000000000000000000000000000000602082015250565b6000610dae6026836108cb565b9150610db982610d52565b604082019050919050565b60006020820190508181036000830152610ddd81610da1565b9050919050565b7f4c61206f7267616e697a6163696f6e2064652063617269646164206e6f20657360008201527f7461207265676973747261646100000000000000000000000000000000000000602082015250565b6000610e40602d836108cb565b9150610e4b82610de4565b604082019050919050565b60006020820190508181036000830152610e6f81610e33565b9050919050565b7f4573746120646972656363696f6e20657374612070726f686962696461000000600082015250565b6000610eac601d836108cb565b9150610eb782610e76565b602082019050919050565b60006020820190508181036000830152610edb81610e9f565b9050919050565b6000606082019050610ef76000830186610a1e565b610f046020830185610a1e565b610f116040830184610aa5565b949350505050565b7f4573746120646972656363696f6e20796120657374612072656769737472616460008201527f6100000000000000000000000000000000000000000000000000000000000000602082015250565b6000610f756021836108cb565b9150610f8082610f19565b604082019050919050565b60006020820190508181036000830152610fa481610f68565b9050919050565b7f456c206e6f6d627265206e6f20707565646520657374617220766163696f0000600082015250565b6000610fe1601e836108cb565b9150610fec82610fab565b602082019050919050565b6000602082019050818103600083015261101081610fd4565b9050919050565b60008190508160005260206000209050919050565b60006020601f8301049050919050565b600082821b905092915050565b6000600883026110797fffffffffffffffffffffffffffffffffffffffffffffffffffffffffffffffff8261103c565b611083868361103c565b95508019841693508086168417925050509392505050565b6000819050919050565b60006110c06110bb6110b6846109a8565b61109b565b6109a8565b9050919050565b6000819050919050565b6110da836110a5565b6110ee6110e6826110c7565b848454611049565b825550505050565b600090565b6111036110f6565b61110e8184846110d1565b505050565b5b81811015611132576111276000826110fb565b600181019050611114565b5050565b601f8211156111775761114881611017565b6111518461102c565b81016020851015611160578190505b61117461116c8561102c565b830182611113565b50505b505050565b600082821c905092915050565b600061119a6000198460080261117c565b1980831691505092915050565b60006111b38383611189565b9150826002028217905092915050565b6111cc826108c0565b67ffffffffffffffff8111156111e5576111e4610ad9565b5b6111ef8254610c8f565b6111fa828285611136565b600060209050601f83116001811461122d576000841561121b578287015190505b61122585826111a7565b86555061128d565b601f19841661123b86611017565b60005b828110156112635784890151825560018201915060208501945060208101905061123e565b86831015611280578489015161127c601f891682611189565b8355505b6001600288020188555050505b505050505050565b60006040820190506112aa6000830185610a1e565b81810360208301526112bc8184610917565b90509392505050565b7f4e487b7100000000000000000000000000000000000000000000000000000000600052601160045260246000fd5b60006112ff826109a8565b91507fffffffffffffffffffffffffffffffffffffffffffffffffffffffffffffffff8203611331576113306112c5565b5b60018201905091905056fea2646970667358221220ba50afa2630accdd143781ef1504a930d77731ed084e01c91aba8dec7b71f23c64736f6c63430008120033",
					"opcodes": "PUSH1 0x80 PUSH1 0x40 MSTORE CALLVALUE DUP1 ISZERO PUSH2 0x10 JUMPI PUSH1 0x0 DUP1 REVERT JUMPDEST POP CALLER PUSH1 0x0 DUP1 PUSH2 0x100 EXP DUP2 SLOAD DUP2 PUSH20 0xFFFFFFFFFFFFFFFFFFFFFFFFFFFFFFFFFFFFFFFF MUL NOT AND SWAP1 DUP4 PUSH20 0xFFFFFFFFFFFFFFFFFFFFFFFFFFFFFFFFFFFFFFFF AND MUL OR SWAP1 SSTORE POP PUSH1 0x1 PUSH1 0x0 DUP2 SLOAD DUP1 SWAP3 SWAP2 SWAP1 PUSH2 0x64 SWAP1 PUSH2 0xB5 JUMP JUMPDEST SWAP2 SWAP1 POP SSTORE POP PUSH1 0x2 PUSH1 0x0 SWAP1 SLOAD SWAP1 PUSH2 0x100 EXP SWAP1 POP POP PUSH2 0xFD JUMP JUMPDEST PUSH32 0x4E487B7100000000000000000000000000000000000000000000000000000000 PUSH1 0x0 MSTORE PUSH1 0x11 PUSH1 0x4 MSTORE PUSH1 0x24 PUSH1 0x0 REVERT JUMPDEST PUSH1 0x0 DUP2 SWAP1 POP SWAP2 SWAP1 POP JUMP JUMPDEST PUSH1 0x0 PUSH2 0xC0 DUP3 PUSH2 0xAB JUMP JUMPDEST SWAP2 POP PUSH32 0xFFFFFFFFFFFFFFFFFFFFFFFFFFFFFFFFFFFFFFFFFFFFFFFFFFFFFFFFFFFFFFFF DUP3 SUB PUSH2 0xF2 JUMPI PUSH2 0xF1 PUSH2 0x7C JUMP JUMPDEST JUMPDEST PUSH1 0x1 DUP3 ADD SWAP1 POP SWAP2 SWAP1 POP JUMP JUMPDEST PUSH2 0x1372 DUP1 PUSH2 0x10C PUSH1 0x0 CODECOPY PUSH1 0x0 RETURN INVALID PUSH1 0x80 PUSH1 0x40 MSTORE PUSH1 0x4 CALLDATASIZE LT PUSH2 0x7B JUMPI PUSH1 0x0 CALLDATALOAD PUSH1 0xE0 SHR DUP1 PUSH4 0x439E04E4 GT PUSH2 0x4E JUMPI DUP1 PUSH4 0x439E04E4 EQ PUSH2 0x141 JUMPI DUP1 PUSH4 0x8F764AC4 EQ PUSH2 0x17F JUMPI DUP1 PUSH4 0xA71C7CA4 EQ PUSH2 0x1AA JUMPI DUP1 PUSH4 0xF124516A EQ PUSH2 0x1D5 JUMPI PUSH2 0x7B JUMP JUMPDEST DUP1 PUSH4 0x7A4F5A7 EQ PUSH2 0x80 JUMPI DUP1 PUSH4 0x1A78DB75 EQ PUSH2 0xBD JUMPI DUP1 PUSH4 0x2A306D74 EQ PUSH2 0xFA JUMPI DUP1 PUSH4 0x3C4F81CD EQ PUSH2 0x116 JUMPI JUMPDEST PUSH1 0x0 DUP1 REVERT JUMPDEST CALLVALUE DUP1 ISZERO PUSH2 0x8C JUMPI PUSH1 0x0 DUP1 REVERT JUMPDEST POP PUSH2 0xA7 PUSH1 0x4 DUP1 CALLDATASIZE SUB DUP2 ADD SWAP1 PUSH2 0xA2 SWAP2 SWAP1 PUSH2 0x893 JUMP JUMPDEST PUSH2 0x1FE JUMP JUMPDEST PUSH1 0x40 MLOAD PUSH2 0xB4 SWAP2 SWAP1 PUSH2 0x950 JUMP JUMPDEST PUSH1 0x40 MLOAD DUP1 SWAP2 SUB SWAP1 RETURN JUMPDEST CALLVALUE DUP1 ISZERO PUSH2 0xC9 JUMPI PUSH1 0x0 DUP1 REVERT JUMPDEST POP PUSH2 0xE4 PUSH1 0x4 DUP1 CALLDATASIZE SUB DUP2 ADD SWAP1 PUSH2 0xDF SWAP2 SWAP1 PUSH2 0x893 JUMP JUMPDEST PUSH2 0x29E JUMP JUMPDEST PUSH1 0x40 MLOAD PUSH2 0xF1 SWAP2 SWAP1 PUSH2 0x98D JUMP JUMPDEST PUSH1 0x40 MLOAD DUP1 SWAP2 SUB SWAP1 RETURN JUMPDEST PUSH2 0x114 PUSH1 0x4 DUP1 CALLDATASIZE SUB DUP2 ADD SWAP1 PUSH2 0x10F SWAP2 SWAP1 PUSH2 0x9DE JUMP JUMPDEST PUSH2 0x2BE JUMP JUMPDEST STOP JUMPDEST CALLVALUE DUP1 ISZERO PUSH2 0x122 JUMPI PUSH1 0x0 DUP1 REVERT JUMPDEST POP PUSH2 0x12B PUSH2 0x4E7 JUMP JUMPDEST PUSH1 0x40 MLOAD PUSH2 0x138 SWAP2 SWAP1 PUSH2 0xA2D JUMP JUMPDEST PUSH1 0x40 MLOAD DUP1 SWAP2 SUB SWAP1 RETURN JUMPDEST CALLVALUE DUP1 ISZERO PUSH2 0x14D JUMPI PUSH1 0x0 DUP1 REVERT JUMPDEST POP PUSH2 0x168 PUSH1 0x4 DUP1 CALLDATASIZE SUB DUP2 ADD SWAP1 PUSH2 0x163 SWAP2 SWAP1 PUSH2 0xA48 JUMP JUMPDEST PUSH2 0x50B JUMP JUMPDEST PUSH1 0x40 MLOAD PUSH2 0x176 SWAP3 SWAP2 SWAP1 PUSH2 0xA75 JUMP JUMPDEST PUSH1 0x40 MLOAD DUP1 SWAP2 SUB SWAP1 RETURN JUMPDEST CALLVALUE DUP1 ISZERO PUSH2 0x18B JUMPI PUSH1 0x0 DUP1 REVERT JUMPDEST POP PUSH2 0x194 PUSH2 0x5D7 JUMP JUMPDEST PUSH1 0x40 MLOAD PUSH2 0x1A1 SWAP2 SWAP1 PUSH2 0xA2D JUMP JUMPDEST PUSH1 0x40 MLOAD DUP1 SWAP2 SUB SWAP1 RETURN JUMPDEST CALLVALUE DUP1 ISZERO PUSH2 0x1B6 JUMPI PUSH1 0x0 DUP1 REVERT JUMPDEST POP PUSH2 0x1BF PUSH2 0x5FD JUMP JUMPDEST PUSH1 0x40 MLOAD PUSH2 0x1CC SWAP2 SWAP1 PUSH2 0xAB4 JUMP JUMPDEST PUSH1 0x40 MLOAD DUP1 SWAP2 SUB SWAP1 RETURN JUMPDEST CALLVALUE DUP1 ISZERO PUSH2 0x1E1 JUMPI PUSH1 0x0 DUP1 REVERT JUMPDEST POP PUSH2 0x1FC PUSH1 0x4 DUP1 CALLDATASIZE SUB DUP2 ADD SWAP1 PUSH2 0x1F7 SWAP2 SWAP1 PUSH2 0xC04 JUMP JUMPDEST PUSH2 0x603 JUMP JUMPDEST STOP JUMPDEST PUSH1 0x3 PUSH1 0x20 MSTORE DUP1 PUSH1 0x0 MSTORE PUSH1 0x40 PUSH1 0x0 KECCAK256 PUSH1 0x0 SWAP2 POP SWAP1 POP DUP1 SLOAD PUSH2 0x21D SWAP1 PUSH2 0xC8F JUMP JUMPDEST DUP1 PUSH1 0x1F ADD PUSH1 0x20 DUP1 SWAP2 DIV MUL PUSH1 0x20 ADD PUSH1 0x40 MLOAD SWAP1 DUP2 ADD PUSH1 0x40 MSTORE DUP1 SWAP3 SWAP2 SWAP1 DUP2 DUP2 MSTORE PUSH1 0x20 ADD DUP3 DUP1 SLOAD PUSH2 0x249 SWAP1 PUSH2 0xC8F JUMP JUMPDEST DUP1 ISZERO PUSH2 0x296 JUMPI DUP1 PUSH1 0x1F LT PUSH2 0x26B JUMPI PUSH2 0x100 DUP1 DUP4 SLOAD DIV MUL DUP4 MSTORE SWAP2 PUSH1 0x20 ADD SWAP2 PUSH2 0x296 JUMP JUMPDEST DUP3 ADD SWAP2 SWAP1 PUSH1 0x0 MSTORE PUSH1 0x20 PUSH1 0x0 KECCAK256 SWAP1 JUMPDEST DUP2 SLOAD DUP2 MSTORE SWAP1 PUSH1 0x1 ADD SWAP1 PUSH1 0x20 ADD DUP1 DUP4 GT PUSH2 0x279 JUMPI DUP3 SWAP1 SUB PUSH1 0x1F AND DUP3 ADD SWAP2 JUMPDEST POP POP POP POP POP DUP2 JUMP JUMPDEST PUSH1 0x4 PUSH1 0x20 MSTORE DUP1 PUSH1 0x0 MSTORE PUSH1 0x40 PUSH1 0x0 KECCAK256 PUSH1 0x0 SWAP2 POP SLOAD SWAP1 PUSH2 0x100 EXP SWAP1 DIV PUSH1 0xFF AND DUP2 JUMP JUMPDEST DUP1 CALLVALUE EQ PUSH2 0x300 JUMPI PUSH1 0x40 MLOAD PUSH32 0x8C379A000000000000000000000000000000000000000000000000000000000 DUP2 MSTORE PUSH1 0x4 ADD PUSH2 0x2F7 SWAP1 PUSH2 0xD32 JUMP JUMPDEST PUSH1 0x40 MLOAD DUP1 SWAP2 SUB SWAP1 REVERT JUMPDEST PUSH1 0x0 DUP2 GT PUSH2 0x343 JUMPI PUSH1 0x40 MLOAD PUSH32 0x8C379A000000000000000000000000000000000000000000000000000000000 DUP2 MSTORE PUSH1 0x4 ADD PUSH2 0x33A SWAP1 PUSH2 0xDC4 JUMP JUMPDEST PUSH1 0x40 MLOAD DUP1 SWAP2 SUB SWAP1 REVERT JUMPDEST PUSH1 0x0 PUSH1 0x3 PUSH1 0x0 DUP5 PUSH20 0xFFFFFFFFFFFFFFFFFFFFFFFFFFFFFFFFFFFFFFFF AND PUSH20 0xFFFFFFFFFFFFFFFFFFFFFFFFFFFFFFFFFFFFFFFF AND DUP2 MSTORE PUSH1 0x20 ADD SWAP1 DUP2 MSTORE PUSH1 0x20 ADD PUSH1 0x0 KECCAK256 DUP1 SLOAD PUSH2 0x38F SWAP1 PUSH2 0xC8F JUMP JUMPDEST SWAP1 POP GT PUSH2 0x3D1 JUMPI PUSH1 0x40 MLOAD PUSH32 0x8C379A000000000000000000000000000000000000000000000000000000000 DUP2 MSTORE PUSH1 0x4 ADD PUSH2 0x3C8 SWAP1 PUSH2 0xE56 JUMP JUMPDEST PUSH1 0x40 MLOAD DUP1 SWAP2 SUB SWAP1 REVERT JUMPDEST PUSH1 0x2 PUSH1 0x0 SWAP1 SLOAD SWAP1 PUSH2 0x100 EXP SWAP1 DIV PUSH20 0xFFFFFFFFFFFFFFFFFFFFFFFFFFFFFFFFFFFFFFFF AND PUSH20 0xFFFFFFFFFFFFFFFFFFFFFFFFFFFFFFFFFFFFFFFF AND CALLER PUSH20 0xFFFFFFFFFFFFFFFFFFFFFFFFFFFFFFFFFFFFFFFF AND SUB PUSH2 0x461 JUMPI PUSH1 0x40 MLOAD PUSH32 0x8C379A000000000000000000000000000000000000000000000000000000000 DUP2 MSTORE PUSH1 0x4 ADD PUSH2 0x458 SWAP1 PUSH2 0xEC2 JUMP JUMPDEST PUSH1 0x40 MLOAD DUP1 SWAP2 SUB SWAP1 REVERT JUMPDEST DUP2 PUSH20 0xFFFFFFFFFFFFFFFFFFFFFFFFFFFFFFFFFFFFFFFF AND PUSH2 0x8FC DUP3 SWAP1 DUP2 ISZERO MUL SWAP1 PUSH1 0x40 MLOAD PUSH1 0x0 PUSH1 0x40 MLOAD DUP1 DUP4 SUB DUP2 DUP6 DUP9 DUP9 CALL SWAP4 POP POP POP POP ISZERO DUP1 ISZERO PUSH2 0x4A7 JUMPI RETURNDATASIZE PUSH1 0x0 DUP1 RETURNDATACOPY RETURNDATASIZE PUSH1 0x0 REVERT JUMPDEST POP PUSH32 0x2F641BA41D9FFCD1429D0BA546668473C4CA6CE96378F7DF063A257FBF5A6D8D CALLER DUP4 DUP4 PUSH1 0x40 MLOAD PUSH2 0x4DB SWAP4 SWAP3 SWAP2 SWAP1 PUSH2 0xEE2 JUMP JUMPDEST PUSH1 0x40 MLOAD DUP1 SWAP2 SUB SWAP1 LOG1 POP POP JUMP JUMPDEST PUSH1 0x0 DUP1 SLOAD SWAP1 PUSH2 0x100 EXP SWAP1 DIV PUSH20 0xFFFFFFFFFFFFFFFFFFFFFFFFFFFFFFFFFFFFFFFF AND DUP2 JUMP JUMPDEST PUSH1 0x5 PUSH1 0x20 MSTORE DUP1 PUSH1 0x0 MSTORE PUSH1 0x40 PUSH1 0x0 KECCAK256 PUSH1 0x0 SWAP2 POP SWAP1 POP DUP1 PUSH1 0x0 ADD DUP1 SLOAD PUSH2 0x52E SWAP1 PUSH2 0xC8F JUMP JUMPDEST DUP1 PUSH1 0x1F ADD PUSH1 0x20 DUP1 SWAP2 DIV MUL PUSH1 0x20 ADD PUSH1 0x40 MLOAD SWAP1 DUP2 ADD PUSH1 0x40 MSTORE DUP1 SWAP3 SWAP2 SWAP1 DUP2 DUP2 MSTORE PUSH1 0x20 ADD DUP3 DUP1 SLOAD PUSH2 0x55A SWAP1 PUSH2 0xC8F JUMP JUMPDEST DUP1 ISZERO PUSH2 0x5A7 JUMPI DUP1 PUSH1 0x1F LT PUSH2 0x57C JUMPI PUSH2 0x100 DUP1 DUP4 SLOAD DIV MUL DUP4 MSTORE SWAP2 PUSH1 0x20 ADD SWAP2 PUSH2 0x5A7 JUMP JUMPDEST DUP3 ADD SWAP2 SWAP1 PUSH1 0x0 MSTORE PUSH1 0x20 PUSH1 0x0 KECCAK256 SWAP1 JUMPDEST DUP2 SLOAD DUP2 MSTORE SWAP1 PUSH1 0x1 ADD SWAP1 PUSH1 0x20 ADD DUP1 DUP4 GT PUSH2 0x58A JUMPI DUP3 SWAP1 SUB PUSH1 0x1F AND DUP3 ADD SWAP2 JUMPDEST POP POP POP POP POP SWAP1 DUP1 PUSH1 0x1 ADD PUSH1 0x0 SWAP1 SLOAD SWAP1 PUSH2 0x100 EXP SWAP1 DIV PUSH20 0xFFFFFFFFFFFFFFFFFFFFFFFFFFFFFFFFFFFFFFFF AND SWAP1 POP DUP3 JUMP JUMPDEST PUSH1 0x2 PUSH1 0x0 SWAP1 SLOAD SWAP1 PUSH2 0x100 EXP SWAP1 DIV PUSH20 0xFFFFFFFFFFFFFFFFFFFFFFFFFFFFFFFFFFFFFFFF AND DUP2 JUMP JUMPDEST PUSH1 0x1 SLOAD DUP2 JUMP JUMPDEST PUSH1 0x4 PUSH1 0x0 DUP3 PUSH20 0xFFFFFFFFFFFFFFFFFFFFFFFFFFFFFFFFFFFFFFFF AND PUSH20 0xFFFFFFFFFFFFFFFFFFFFFFFFFFFFFFFFFFFFFFFF AND DUP2 MSTORE PUSH1 0x20 ADD SWAP1 DUP2 MSTORE PUSH1 0x20 ADD PUSH1 0x0 KECCAK256 PUSH1 0x0 SWAP1 SLOAD SWAP1 PUSH2 0x100 EXP SWAP1 DIV PUSH1 0xFF AND ISZERO PUSH2 0x690 JUMPI PUSH1 0x40 MLOAD PUSH32 0x8C379A000000000000000000000000000000000000000000000000000000000 DUP2 MSTORE PUSH1 0x4 ADD PUSH2 0x687 SWAP1 PUSH2 0xF8B JUMP JUMPDEST PUSH1 0x40 MLOAD DUP1 SWAP2 SUB SWAP1 REVERT JUMPDEST PUSH1 0x0 DUP3 MLOAD GT PUSH2 0x6D4 JUMPI PUSH1 0x40 MLOAD PUSH32 0x8C379A000000000000000000000000000000000000000000000000000000000 DUP2 MSTORE PUSH1 0x4 ADD PUSH2 0x6CB SWAP1 PUSH2 0xFF7 JUMP JUMPDEST PUSH1 0x40 MLOAD DUP1 SWAP2 SUB SWAP1 REVERT JUMPDEST PUSH1 0x40 MLOAD DUP1 PUSH1 0x40 ADD PUSH1 0x40 MSTORE DUP1 DUP4 DUP2 MSTORE PUSH1 0x20 ADD DUP3 PUSH20 0xFFFFFFFFFFFFFFFFFFFFFFFFFFFFFFFFFFFFFFFF AND DUP2 MSTORE POP PUSH1 0x5 PUSH1 0x0 PUSH1 0x1 SLOAD DUP2 MSTORE PUSH1 0x20 ADD SWAP1 DUP2 MSTORE PUSH1 0x20 ADD PUSH1 0x0 KECCAK256 PUSH1 0x0 DUP3 ADD MLOAD DUP2 PUSH1 0x0 ADD SWAP1 DUP2 PUSH2 0x729 SWAP2 SWAP1 PUSH2 0x11C3 JUMP JUMPDEST POP PUSH1 0x20 DUP3 ADD MLOAD DUP2 PUSH1 0x1 ADD PUSH1 0x0 PUSH2 0x100 EXP DUP2 SLOAD DUP2 PUSH20 0xFFFFFFFFFFFFFFFFFFFFFFFFFFFFFFFFFFFFFFFF MUL NOT AND SWAP1 DUP4 PUSH20 0xFFFFFFFFFFFFFFFFFFFFFFFFFFFFFFFFFFFFFFFF AND MUL OR SWAP1 SSTORE POP SWAP1 POP POP PUSH1 0x1 PUSH1 0x4 PUSH1 0x0 DUP4 PUSH20 0xFFFFFFFFFFFFFFFFFFFFFFFFFFFFFFFFFFFFFFFF AND PUSH20 0xFFFFFFFFFFFFFFFFFFFFFFFFFFFFFFFFFFFFFFFF AND DUP2 MSTORE PUSH1 0x20 ADD SWAP1 DUP2 MSTORE PUSH1 0x20 ADD PUSH1 0x0 KECCAK256 PUSH1 0x0 PUSH2 0x100 EXP DUP2 SLOAD DUP2 PUSH1 0xFF MUL NOT AND SWAP1 DUP4 ISZERO ISZERO MUL OR SWAP1 SSTORE POP PUSH32 0xF25BBB4BA1E76AA825E9A6D9E2FC02876F02BB78E95E79F4A5A541387DC5B3A0 CALLER DUP4 PUSH1 0x40 MLOAD PUSH2 0x7FD SWAP3 SWAP2 SWAP1 PUSH2 0x1295 JUMP JUMPDEST PUSH1 0x40 MLOAD DUP1 SWAP2 SUB SWAP1 LOG1 PUSH1 0x1 PUSH1 0x0 DUP2 SLOAD DUP1 SWAP3 SWAP2 SWAP1 PUSH2 0x818 SWAP1 PUSH2 0x12F4 JUMP JUMPDEST SWAP2 SWAP1 POP SSTORE POP POP POP JUMP JUMPDEST PUSH1 0x0 PUSH1 0x40 MLOAD SWAP1 POP SWAP1 JUMP JUMPDEST PUSH1 0x0 DUP1 REVERT JUMPDEST PUSH1 0x0 DUP1 REVERT JUMPDEST PUSH1 0x0 PUSH20 0xFFFFFFFFFFFFFFFFFFFFFFFFFFFFFFFFFFFFFFFF DUP3 AND SWAP1 POP SWAP2 SWAP1 POP JUMP JUMPDEST PUSH1 0x0 PUSH2 0x860 DUP3 PUSH2 0x835 JUMP JUMPDEST SWAP1 POP SWAP2 SWAP1 POP JUMP JUMPDEST PUSH2 0x870 DUP2 PUSH2 0x855 JUMP JUMPDEST DUP2 EQ PUSH2 0x87B JUMPI PUSH1 0x0 DUP1 REVERT JUMPDEST POP JUMP JUMPDEST PUSH1 0x0 DUP2 CALLDATALOAD SWAP1 POP PUSH2 0x88D DUP2 PUSH2 0x867 JUMP JUMPDEST SWAP3 SWAP2 POP POP JUMP JUMPDEST PUSH1 0x0 PUSH1 0x20 DUP3 DUP5 SUB SLT ISZERO PUSH2 0x8A9 JUMPI PUSH2 0x8A8 PUSH2 0x82B JUMP JUMPDEST JUMPDEST PUSH1 0x0 PUSH2 0x8B7 DUP5 DUP3 DUP6 ADD PUSH2 0x87E JUMP JUMPDEST SWAP2 POP POP SWAP3 SWAP2 POP POP JUMP JUMPDEST PUSH1 0x0 DUP2 MLOAD SWAP1 POP SWAP2 SWAP1 POP JUMP JUMPDEST PUSH1 0x0 DUP3 DUP3 MSTORE PUSH1 0x20 DUP3 ADD SWAP1 POP SWAP3 SWAP2 POP POP JUMP JUMPDEST PUSH1 0x0 JUMPDEST DUP4 DUP2 LT ISZERO PUSH2 0x8FA JUMPI DUP1 DUP3 ADD MLOAD DUP2 DUP5 ADD MSTORE PUSH1 0x20 DUP2 ADD SWAP1 POP PUSH2 0x8DF JUMP JUMPDEST PUSH1 0x0 DUP5 DUP5 ADD MSTORE POP POP POP POP JUMP JUMPDEST PUSH1 0x0 PUSH1 0x1F NOT PUSH1 0x1F DUP4 ADD AND SWAP1 POP SWAP2 SWAP1 POP JUMP JUMPDEST PUSH1 0x0 PUSH2 0x922 DUP3 PUSH2 0x8C0 JUMP JUMPDEST PUSH2 0x92C DUP2 DUP6 PUSH2 0x8CB JUMP JUMPDEST SWAP4 POP PUSH2 0x93C DUP2 DUP6 PUSH1 0x20 DUP7 ADD PUSH2 0x8DC JUMP JUMPDEST PUSH2 0x945 DUP2 PUSH2 0x906 JUMP JUMPDEST DUP5 ADD SWAP2 POP POP SWAP3 SWAP2 POP POP JUMP JUMPDEST PUSH1 0x0 PUSH1 0x20 DUP3 ADD SWAP1 POP DUP2 DUP2 SUB PUSH1 0x0 DUP4 ADD MSTORE PUSH2 0x96A DUP2 DUP5 PUSH2 0x917 JUMP JUMPDEST SWAP1 POP SWAP3 SWAP2 POP POP JUMP JUMPDEST PUSH1 0x0 DUP2 ISZERO ISZERO SWAP1 POP SWAP2 SWAP1 POP JUMP JUMPDEST PUSH2 0x987 DUP2 PUSH2 0x972 JUMP JUMPDEST DUP3 MSTORE POP POP JUMP JUMPDEST PUSH1 0x0 PUSH1 0x20 DUP3 ADD SWAP1 POP PUSH2 0x9A2 PUSH1 0x0 DUP4 ADD DUP5 PUSH2 0x97E JUMP JUMPDEST SWAP3 SWAP2 POP POP JUMP JUMPDEST PUSH1 0x0 DUP2 SWAP1 POP SWAP2 SWAP1 POP JUMP JUMPDEST PUSH2 0x9BB DUP2 PUSH2 0x9A8 JUMP JUMPDEST DUP2 EQ PUSH2 0x9C6 JUMPI PUSH1 0x0 DUP1 REVERT JUMPDEST POP JUMP JUMPDEST PUSH1 0x0 DUP2 CALLDATALOAD SWAP1 POP PUSH2 0x9D8 DUP2 PUSH2 0x9B2 JUMP JUMPDEST SWAP3 SWAP2 POP POP JUMP JUMPDEST PUSH1 0x0 DUP1 PUSH1 0x40 DUP4 DUP6 SUB SLT ISZERO PUSH2 0x9F5 JUMPI PUSH2 0x9F4 PUSH2 0x82B JUMP JUMPDEST JUMPDEST PUSH1 0x0 PUSH2 0xA03 DUP6 DUP3 DUP7 ADD PUSH2 0x87E JUMP JUMPDEST SWAP3 POP POP PUSH1 0x20 PUSH2 0xA14 DUP6 DUP3 DUP7 ADD PUSH2 0x9C9 JUMP JUMPDEST SWAP2 POP POP SWAP3 POP SWAP3 SWAP1 POP JUMP JUMPDEST PUSH2 0xA27 DUP2 PUSH2 0x855 JUMP JUMPDEST DUP3 MSTORE POP POP JUMP JUMPDEST PUSH1 0x0 PUSH1 0x20 DUP3 ADD SWAP1 POP PUSH2 0xA42 PUSH1 0x0 DUP4 ADD DUP5 PUSH2 0xA1E JUMP JUMPDEST SWAP3 SWAP2 POP POP JUMP JUMPDEST PUSH1 0x0 PUSH1 0x20 DUP3 DUP5 SUB SLT ISZERO PUSH2 0xA5E JUMPI PUSH2 0xA5D PUSH2 0x82B JUMP JUMPDEST JUMPDEST PUSH1 0x0 PUSH2 0xA6C DUP5 DUP3 DUP6 ADD PUSH2 0x9C9 JUMP JUMPDEST SWAP2 POP POP SWAP3 SWAP2 POP POP JUMP JUMPDEST PUSH1 0x0 PUSH1 0x40 DUP3 ADD SWAP1 POP DUP2 DUP2 SUB PUSH1 0x0 DUP4 ADD MSTORE PUSH2 0xA8F DUP2 DUP6 PUSH2 0x917 JUMP JUMPDEST SWAP1 POP PUSH2 0xA9E PUSH1 0x20 DUP4 ADD DUP5 PUSH2 0xA1E JUMP JUMPDEST SWAP4 SWAP3 POP POP POP JUMP JUMPDEST PUSH2 0xAAE DUP2 PUSH2 0x9A8 JUMP JUMPDEST DUP3 MSTORE POP POP JUMP JUMPDEST PUSH1 0x0 PUSH1 0x20 DUP3 ADD SWAP1 POP PUSH2 0xAC9 PUSH1 0x0 DUP4 ADD DUP5 PUSH2 0xAA5 JUMP JUMPDEST SWAP3 SWAP2 POP POP JUMP JUMPDEST PUSH1 0x0 DUP1 REVERT JUMPDEST PUSH1 0x0 DUP1 REVERT JUMPDEST PUSH32 0x4E487B7100000000000000000000000000000000000000000000000000000000 PUSH1 0x0 MSTORE PUSH1 0x41 PUSH1 0x4 MSTORE PUSH1 0x24 PUSH1 0x0 REVERT JUMPDEST PUSH2 0xB11 DUP3 PUSH2 0x906 JUMP JUMPDEST DUP2 ADD DUP2 DUP2 LT PUSH8 0xFFFFFFFFFFFFFFFF DUP3 GT OR ISZERO PUSH2 0xB30 JUMPI PUSH2 0xB2F PUSH2 0xAD9 JUMP JUMPDEST JUMPDEST DUP1 PUSH1 0x40 MSTORE POP POP POP JUMP JUMPDEST PUSH1 0x0 PUSH2 0xB43 PUSH2 0x821 JUMP JUMPDEST SWAP1 POP PUSH2 0xB4F DUP3 DUP3 PUSH2 0xB08 JUMP JUMPDEST SWAP2 SWAP1 POP JUMP JUMPDEST PUSH1 0x0 PUSH8 0xFFFFFFFFFFFFFFFF DUP3 GT ISZERO PUSH2 0xB6F JUMPI PUSH2 0xB6E PUSH2 0xAD9 JUMP JUMPDEST JUMPDEST PUSH2 0xB78 DUP3 PUSH2 0x906 JUMP JUMPDEST SWAP1 POP PUSH1 0x20 DUP2 ADD SWAP1 POP SWAP2 SWAP1 POP JUMP JUMPDEST DUP3 DUP2 DUP4 CALLDATACOPY PUSH1 0x0 DUP4 DUP4 ADD MSTORE POP POP POP JUMP JUMPDEST PUSH1 0x0 PUSH2 0xBA7 PUSH2 0xBA2 DUP5 PUSH2 0xB54 JUMP JUMPDEST PUSH2 0xB39 JUMP JUMPDEST SWAP1 POP DUP3 DUP2 MSTORE PUSH1 0x20 DUP2 ADD DUP5 DUP5 DUP5 ADD GT ISZERO PUSH2 0xBC3 JUMPI PUSH2 0xBC2 PUSH2 0xAD4 JUMP JUMPDEST JUMPDEST PUSH2 0xBCE DUP5 DUP3 DUP6 PUSH2 0xB85 JUMP JUMPDEST POP SWAP4 SWAP3 POP POP POP JUMP JUMPDEST PUSH1 0x0 DUP3 PUSH1 0x1F DUP4 ADD SLT PUSH2 0xBEB JUMPI PUSH2 0xBEA PUSH2 0xACF JUMP JUMPDEST JUMPDEST DUP2 CALLDATALOAD PUSH2 0xBFB DUP5 DUP3 PUSH1 0x20 DUP7 ADD PUSH2 0xB94 JUMP JUMPDEST SWAP2 POP POP SWAP3 SWAP2 POP POP JUMP JUMPDEST PUSH1 0x0 DUP1 PUSH1 0x40 DUP4 DUP6 SUB SLT ISZERO PUSH2 0xC1B JUMPI PUSH2 0xC1A PUSH2 0x82B JUMP JUMPDEST JUMPDEST PUSH1 0x0 DUP4 ADD CALLDATALOAD PUSH8 0xFFFFFFFFFFFFFFFF DUP2 GT ISZERO PUSH2 0xC39 JUMPI PUSH2 0xC38 PUSH2 0x830 JUMP JUMPDEST JUMPDEST PUSH2 0xC45 DUP6 DUP3 DUP7 ADD PUSH2 0xBD6 JUMP JUMPDEST SWAP3 POP POP PUSH1 0x20 PUSH2 0xC56 DUP6 DUP3 DUP7 ADD PUSH2 0x87E JUMP JUMPDEST SWAP2 POP POP SWAP3 POP SWAP3 SWAP1 POP JUMP JUMPDEST PUSH32 0x4E487B7100000000000000000000000000000000000000000000000000000000 PUSH1 0x0 MSTORE PUSH1 0x22 PUSH1 0x4 MSTORE PUSH1 0x24 PUSH1 0x0 REVERT JUMPDEST PUSH1 0x0 PUSH1 0x2 DUP3 DIV SWAP1 POP PUSH1 0x1 DUP3 AND DUP1 PUSH2 0xCA7 JUMPI PUSH1 0x7F DUP3 AND SWAP2 POP JUMPDEST PUSH1 0x20 DUP3 LT DUP2 SUB PUSH2 0xCBA JUMPI PUSH2 0xCB9 PUSH2 0xC60 JUMP JUMPDEST JUMPDEST POP SWAP2 SWAP1 POP JUMP JUMPDEST PUSH32 0x4C6120646F6E6163696F6E20646562652073657220696775616C2061206C6120 PUSH1 0x0 DUP3 ADD MSTORE PUSH32 0x63616E746964616420656E766961646100000000000000000000000000000000 PUSH1 0x20 DUP3 ADD MSTORE POP JUMP JUMPDEST PUSH1 0x0 PUSH2 0xD1C PUSH1 0x30 DUP4 PUSH2 0x8CB JUMP JUMPDEST SWAP2 POP PUSH2 0xD27 DUP3 PUSH2 0xCC0 JUMP JUMPDEST PUSH1 0x40 DUP3 ADD SWAP1 POP SWAP2 SWAP1 POP JUMP JUMPDEST PUSH1 0x0 PUSH1 0x20 DUP3 ADD SWAP1 POP DUP2 DUP2 SUB PUSH1 0x0 DUP4 ADD MSTORE PUSH2 0xD4B DUP2 PUSH2 0xD0F JUMP JUMPDEST SWAP1 POP SWAP2 SWAP1 POP JUMP JUMPDEST PUSH32 0x4C6120646F6E6163696F6E20646562652073657220756E2076616C6F7220706F PUSH1 0x0 DUP3 ADD MSTORE PUSH32 0x73697469766F0000000000000000000000000000000000000000000000000000 PUSH1 0x20 DUP3 ADD MSTORE POP JUMP JUMPDEST PUSH1 0x0 PUSH2 0xDAE PUSH1 0x26 DUP4 PUSH2 0x8CB JUMP JUMPDEST SWAP2 POP PUSH2 0xDB9 DUP3 PUSH2 0xD52 JUMP JUMPDEST PUSH1 0x40 DUP3 ADD SWAP1 POP SWAP2 SWAP1 POP JUMP JUMPDEST PUSH1 0x0 PUSH1 0x20 DUP3 ADD SWAP1 POP DUP2 DUP2 SUB PUSH1 0x0 DUP4 ADD MSTORE PUSH2 0xDDD DUP2 PUSH2 0xDA1 JUMP JUMPDEST SWAP1 POP SWAP2 SWAP1 POP JUMP JUMPDEST PUSH32 0x4C61206F7267616E697A6163696F6E2064652063617269646164206E6F206573 PUSH1 0x0 DUP3 ADD MSTORE PUSH32 0x7461207265676973747261646100000000000000000000000000000000000000 PUSH1 0x20 DUP3 ADD MSTORE POP JUMP JUMPDEST PUSH1 0x0 PUSH2 0xE40 PUSH1 0x2D DUP4 PUSH2 0x8CB JUMP JUMPDEST SWAP2 POP PUSH2 0xE4B DUP3 PUSH2 0xDE4 JUMP JUMPDEST PUSH1 0x40 DUP3 ADD SWAP1 POP SWAP2 SWAP1 POP JUMP JUMPDEST PUSH1 0x0 PUSH1 0x20 DUP3 ADD SWAP1 POP DUP2 DUP2 SUB PUSH1 0x0 DUP4 ADD MSTORE PUSH2 0xE6F DUP2 PUSH2 0xE33 JUMP JUMPDEST SWAP1 POP SWAP2 SWAP1 POP JUMP JUMPDEST PUSH32 0x4573746120646972656363696F6E20657374612070726F686962696461000000 PUSH1 0x0 DUP3 ADD MSTORE POP JUMP JUMPDEST PUSH1 0x0 PUSH2 0xEAC PUSH1 0x1D DUP4 PUSH2 0x8CB JUMP JUMPDEST SWAP2 POP PUSH2 0xEB7 DUP3 PUSH2 0xE76 JUMP JUMPDEST PUSH1 0x20 DUP3 ADD SWAP1 POP SWAP2 SWAP1 POP JUMP JUMPDEST PUSH1 0x0 PUSH1 0x20 DUP3 ADD SWAP1 POP DUP2 DUP2 SUB PUSH1 0x0 DUP4 ADD MSTORE PUSH2 0xEDB DUP2 PUSH2 0xE9F JUMP JUMPDEST SWAP1 POP SWAP2 SWAP1 POP JUMP JUMPDEST PUSH1 0x0 PUSH1 0x60 DUP3 ADD SWAP1 POP PUSH2 0xEF7 PUSH1 0x0 DUP4 ADD DUP7 PUSH2 0xA1E JUMP JUMPDEST PUSH2 0xF04 PUSH1 0x20 DUP4 ADD DUP6 PUSH2 0xA1E JUMP JUMPDEST PUSH2 0xF11 PUSH1 0x40 DUP4 ADD DUP5 PUSH2 0xAA5 JUMP JUMPDEST SWAP5 SWAP4 POP POP POP POP JUMP JUMPDEST PUSH32 0x4573746120646972656363696F6E207961206573746120726567697374726164 PUSH1 0x0 DUP3 ADD MSTORE PUSH32 0x6100000000000000000000000000000000000000000000000000000000000000 PUSH1 0x20 DUP3 ADD MSTORE POP JUMP JUMPDEST PUSH1 0x0 PUSH2 0xF75 PUSH1 0x21 DUP4 PUSH2 0x8CB JUMP JUMPDEST SWAP2 POP PUSH2 0xF80 DUP3 PUSH2 0xF19 JUMP JUMPDEST PUSH1 0x40 DUP3 ADD SWAP1 POP SWAP2 SWAP1 POP JUMP JUMPDEST PUSH1 0x0 PUSH1 0x20 DUP3 ADD SWAP1 POP DUP2 DUP2 SUB PUSH1 0x0 DUP4 ADD MSTORE PUSH2 0xFA4 DUP2 PUSH2 0xF68 JUMP JUMPDEST SWAP1 POP SWAP2 SWAP1 POP JUMP JUMPDEST PUSH32 0x456C206E6F6D627265206E6F20707565646520657374617220766163696F0000 PUSH1 0x0 DUP3 ADD MSTORE POP JUMP JUMPDEST PUSH1 0x0 PUSH2 0xFE1 PUSH1 0x1E DUP4 PUSH2 0x8CB JUMP JUMPDEST SWAP2 POP PUSH2 0xFEC DUP3 PUSH2 0xFAB JUMP JUMPDEST PUSH1 0x20 DUP3 ADD SWAP1 POP SWAP2 SWAP1 POP JUMP JUMPDEST PUSH1 0x0 PUSH1 0x20 DUP3 ADD SWAP1 POP DUP2 DUP2 SUB PUSH1 0x0 DUP4 ADD MSTORE PUSH2 0x1010 DUP2 PUSH2 0xFD4 JUMP JUMPDEST SWAP1 POP SWAP2 SWAP1 POP JUMP JUMPDEST PUSH1 0x0 DUP2 SWAP1 POP DUP2 PUSH1 0x0 MSTORE PUSH1 0x20 PUSH1 0x0 KECCAK256 SWAP1 POP SWAP2 SWAP1 POP JUMP JUMPDEST PUSH1 0x0 PUSH1 0x20 PUSH1 0x1F DUP4 ADD DIV SWAP1 POP SWAP2 SWAP1 POP JUMP JUMPDEST PUSH1 0x0 DUP3 DUP3 SHL SWAP1 POP SWAP3 SWAP2 POP POP JUMP JUMPDEST PUSH1 0x0 PUSH1 0x8 DUP4 MUL PUSH2 0x1079 PUSH32 0xFFFFFFFFFFFFFFFFFFFFFFFFFFFFFFFFFFFFFFFFFFFFFFFFFFFFFFFFFFFFFFFF DUP3 PUSH2 0x103C JUMP JUMPDEST PUSH2 0x1083 DUP7 DUP4 PUSH2 0x103C JUMP JUMPDEST SWAP6 POP DUP1 NOT DUP5 AND SWAP4 POP DUP1 DUP7 AND DUP5 OR SWAP3 POP POP POP SWAP4 SWAP3 POP POP POP JUMP JUMPDEST PUSH1 0x0 DUP2 SWAP1 POP SWAP2 SWAP1 POP JUMP JUMPDEST PUSH1 0x0 PUSH2 0x10C0 PUSH2 0x10BB PUSH2 0x10B6 DUP5 PUSH2 0x9A8 JUMP JUMPDEST PUSH2 0x109B JUMP JUMPDEST PUSH2 0x9A8 JUMP JUMPDEST SWAP1 POP SWAP2 SWAP1 POP JUMP JUMPDEST PUSH1 0x0 DUP2 SWAP1 POP SWAP2 SWAP1 POP JUMP JUMPDEST PUSH2 0x10DA DUP4 PUSH2 0x10A5 JUMP JUMPDEST PUSH2 0x10EE PUSH2 0x10E6 DUP3 PUSH2 0x10C7 JUMP JUMPDEST DUP5 DUP5 SLOAD PUSH2 0x1049 JUMP JUMPDEST DUP3 SSTORE POP POP POP POP JUMP JUMPDEST PUSH1 0x0 SWAP1 JUMP JUMPDEST PUSH2 0x1103 PUSH2 0x10F6 JUMP JUMPDEST PUSH2 0x110E DUP2 DUP5 DUP5 PUSH2 0x10D1 JUMP JUMPDEST POP POP POP JUMP JUMPDEST JUMPDEST DUP2 DUP2 LT ISZERO PUSH2 0x1132 JUMPI PUSH2 0x1127 PUSH1 0x0 DUP3 PUSH2 0x10FB JUMP JUMPDEST PUSH1 0x1 DUP2 ADD SWAP1 POP PUSH2 0x1114 JUMP JUMPDEST POP POP JUMP JUMPDEST PUSH1 0x1F DUP3 GT ISZERO PUSH2 0x1177 JUMPI PUSH2 0x1148 DUP2 PUSH2 0x1017 JUMP JUMPDEST PUSH2 0x1151 DUP5 PUSH2 0x102C JUMP JUMPDEST DUP2 ADD PUSH1 0x20 DUP6 LT ISZERO PUSH2 0x1160 JUMPI DUP2 SWAP1 POP JUMPDEST PUSH2 0x1174 PUSH2 0x116C DUP6 PUSH2 0x102C JUMP JUMPDEST DUP4 ADD DUP3 PUSH2 0x1113 JUMP JUMPDEST POP POP JUMPDEST POP POP POP JUMP JUMPDEST PUSH1 0x0 DUP3 DUP3 SHR SWAP1 POP SWAP3 SWAP2 POP POP JUMP JUMPDEST PUSH1 0x0 PUSH2 0x119A PUSH1 0x0 NOT DUP5 PUSH1 0x8 MUL PUSH2 0x117C JUMP JUMPDEST NOT DUP1 DUP4 AND SWAP2 POP POP SWAP3 SWAP2 POP POP JUMP JUMPDEST PUSH1 0x0 PUSH2 0x11B3 DUP4 DUP4 PUSH2 0x1189 JUMP JUMPDEST SWAP2 POP DUP3 PUSH1 0x2 MUL DUP3 OR SWAP1 POP SWAP3 SWAP2 POP POP JUMP JUMPDEST PUSH2 0x11CC DUP3 PUSH2 0x8C0 JUMP JUMPDEST PUSH8 0xFFFFFFFFFFFFFFFF DUP2 GT ISZERO PUSH2 0x11E5 JUMPI PUSH2 0x11E4 PUSH2 0xAD9 JUMP JUMPDEST JUMPDEST PUSH2 0x11EF DUP3 SLOAD PUSH2 0xC8F JUMP JUMPDEST PUSH2 0x11FA DUP3 DUP3 DUP6 PUSH2 0x1136 JUMP JUMPDEST PUSH1 0x0 PUSH1 0x20 SWAP1 POP PUSH1 0x1F DUP4 GT PUSH1 0x1 DUP2 EQ PUSH2 0x122D JUMPI PUSH1 0x0 DUP5 ISZERO PUSH2 0x121B JUMPI DUP3 DUP8 ADD MLOAD SWAP1 POP JUMPDEST PUSH2 0x1225 DUP6 DUP3 PUSH2 0x11A7 JUMP JUMPDEST DUP7 SSTORE POP PUSH2 0x128D JUMP JUMPDEST PUSH1 0x1F NOT DUP5 AND PUSH2 0x123B DUP7 PUSH2 0x1017 JUMP JUMPDEST PUSH1 0x0 JUMPDEST DUP3 DUP2 LT ISZERO PUSH2 0x1263 JUMPI DUP5 DUP10 ADD MLOAD DUP3 SSTORE PUSH1 0x1 DUP3 ADD SWAP2 POP PUSH1 0x20 DUP6 ADD SWAP5 POP PUSH1 0x20 DUP2 ADD SWAP1 POP PUSH2 0x123E JUMP JUMPDEST DUP7 DUP4 LT ISZERO PUSH2 0x1280 JUMPI DUP5 DUP10 ADD MLOAD PUSH2 0x127C PUSH1 0x1F DUP10 AND DUP3 PUSH2 0x1189 JUMP JUMPDEST DUP4 SSTORE POP JUMPDEST PUSH1 0x1 PUSH1 0x2 DUP9 MUL ADD DUP9 SSTORE POP POP POP JUMPDEST POP POP POP POP POP POP JUMP JUMPDEST PUSH1 0x0 PUSH1 0x40 DUP3 ADD SWAP1 POP PUSH2 0x12AA PUSH1 0x0 DUP4 ADD DUP6 PUSH2 0xA1E JUMP JUMPDEST DUP2 DUP2 SUB PUSH1 0x20 DUP4 ADD MSTORE PUSH2 0x12BC DUP2 DUP5 PUSH2 0x917 JUMP JUMPDEST SWAP1 POP SWAP4 SWAP3 POP POP POP JUMP JUMPDEST PUSH32 0x4E487B7100000000000000000000000000000000000000000000000000000000 PUSH1 0x0 MSTORE PUSH1 0x11 PUSH1 0x4 MSTORE PUSH1 0x24 PUSH1 0x0 REVERT JUMPDEST PUSH1 0x0 PUSH2 0x12FF DUP3 PUSH2 0x9A8 JUMP JUMPDEST SWAP2 POP PUSH32 0xFFFFFFFFFFFFFFFFFFFFFFFFFFFFFFFFFFFFFFFFFFFFFFFFFFFFFFFFFFFFFFFF DUP3 SUB PUSH2 0x1331 JUMPI PUSH2 0x1330 PUSH2 0x12C5 JUMP JUMPDEST JUMPDEST PUSH1 0x1 DUP3 ADD SWAP1 POP SWAP2 SWAP1 POP JUMP INVALID LOG2 PUSH5 0x6970667358 0x22 SLT KECCAK256 0xBA POP 0xAF LOG2 PUSH4 0xACCDD14 CALLDATACOPY DUP2 0xEF ISZERO DIV 0xA9 ADDRESS 0xD7 PUSH24 0x31ED084E01C91ABA8DEC7B71F23C64736F6C634300081200 CALLER "
				},
				"gasEstimates": {
					"creation": {
						"codeDepositCost": "995600",
						"executionCost": "51801",
						"totalCost": "1047401"
					},
					"external": {
						"Organizaciones(uint256)": "infinite",
						"contadorOrganizaciones()": "2473",
						"direccionProhibida()": "2536",
						"direccionRegistrada(address)": "2868",
						"donar(address,uint256)": "infinite",
						"organizacionesBeneficas(address)": "infinite",
						"propietario()": "2578",
						"registrarOrganizacion(string,address)": "infinite"
					}
				},
				"methodIdentifiers": {
					"Organizaciones(uint256)": "439e04e4",
					"contadorOrganizaciones()": "a71c7ca4",
					"direccionProhibida()": "8f764ac4",
					"direccionRegistrada(address)": "1a78db75",
					"donar(address,uint256)": "2a306d74",
					"organizacionesBeneficas(address)": "07a4f5a7",
					"propietario()": "3c4f81cd",
					"registrarOrganizacion(string,address)": "f124516a"
				}
			},
			"storageLayout": {
				"storage": [
					{
						"astId": 3,
						"contract": "contracts/donacionesOrg.sol:donacionesOrg",
						"label": "propietario",
						"offset": 0,
						"slot": "0",
						"type": "t_address"
					},
					{
						"astId": 5,
						"contract": "contracts/donacionesOrg.sol:donacionesOrg",
						"label": "contadorOrganizaciones",
						"offset": 0,
						"slot": "1",
						"type": "t_uint256"
					},
					{
						"astId": 7,
						"contract": "contracts/donacionesOrg.sol:donacionesOrg",
						"label": "direccionProhibida",
						"offset": 0,
						"slot": "2",
						"type": "t_address"
					},
					{
						"astId": 25,
						"contract": "contracts/donacionesOrg.sol:donacionesOrg",
						"label": "organizacionesBeneficas",
						"offset": 0,
						"slot": "3",
						"type": "t_mapping(t_address,t_string_storage)"
					},
					{
						"astId": 29,
						"contract": "contracts/donacionesOrg.sol:donacionesOrg",
						"label": "direccionRegistrada",
						"offset": 0,
						"slot": "4",
						"type": "t_mapping(t_address,t_bool)"
					},
					{
						"astId": 53,
						"contract": "contracts/donacionesOrg.sol:donacionesOrg",
						"label": "Organizaciones",
						"offset": 0,
						"slot": "5",
						"type": "t_mapping(t_uint256,t_struct(Organizacion)48_storage)"
					}
				],
				"types": {
					"t_address": {
						"encoding": "inplace",
						"label": "address",
						"numberOfBytes": "20"
					},
					"t_bool": {
						"encoding": "inplace",
						"label": "bool",
						"numberOfBytes": "1"
					},
					"t_mapping(t_address,t_bool)": {
						"encoding": "mapping",
						"key": "t_address",
						"label": "mapping(address => bool)",
						"numberOfBytes": "32",
						"value": "t_bool"
					},
					"t_mapping(t_address,t_string_storage)": {
						"encoding": "mapping",
						"key": "t_address",
						"label": "mapping(address => string)",
						"numberOfBytes": "32",
						"value": "t_string_storage"
					},
					"t_mapping(t_uint256,t_struct(Organizacion)48_storage)": {
						"encoding": "mapping",
						"key": "t_uint256",
						"label": "mapping(uint256 => struct donacionesOrg.Organizacion)",
						"numberOfBytes": "32",
						"value": "t_struct(Organizacion)48_storage"
					},
					"t_string_storage": {
						"encoding": "bytes",
						"label": "string",
						"numberOfBytes": "32"
					},
					"t_struct(Organizacion)48_storage": {
						"encoding": "inplace",
						"label": "struct donacionesOrg.Organizacion",
						"members": [
							{
								"astId": 45,
								"contract": "contracts/donacionesOrg.sol:donacionesOrg",
								"label": "nombre",
								"offset": 0,
								"slot": "0",
								"type": "t_string_storage"
							},
							{
								"astId": 47,
								"contract": "contracts/donacionesOrg.sol:donacionesOrg",
								"label": "direccion",
								"offset": 0,
								"slot": "1",
								"type": "t_address"
							}
						],
						"numberOfBytes": "64"
					},
					"t_uint256": {
						"encoding": "inplace",
						"label": "uint256",
						"numberOfBytes": "32"
					}
				}
			},
			"userdoc": {
				"kind": "user",
				"methods": {},
				"version": 1
			}
		}
	}
}