{
	"contracts/agregarInvetarioPOS.sol": {
		"TaskContract": {
			"abi": [
				{
					"inputs": [],
					"stateMutability": "nonpayable",
					"type": "constructor"
				},
				{
					"anonymous": false,
					"inputs": [
						{
							"indexed": false,
							"internalType": "uint256",
							"name": "_id",
							"type": "uint256"
						},
						{
							"indexed": false,
							"internalType": "bool",
							"name": "estado",
							"type": "bool"
						}
					],
					"name": "CambioDeMiTarea",
					"type": "event"
				},
				{
					"anonymous": false,
					"inputs": [
						{
							"indexed": false,
							"internalType": "uint256",
							"name": "productId",
							"type": "uint256"
						},
						{
							"indexed": false,
							"internalType": "string",
							"name": "name",
							"type": "string"
						},
						{
							"indexed": false,
							"internalType": "string",
							"name": "description",
							"type": "string"
						},
						{
							"indexed": false,
							"internalType": "uint256",
							"name": "stock",
							"type": "uint256"
						},
						{
							"indexed": false,
							"internalType": "string",
							"name": "expirationDate",
							"type": "string"
						},
						{
							"indexed": false,
							"internalType": "uint256",
							"name": "price",
							"type": "uint256"
						},
						{
							"indexed": false,
							"internalType": "address",
							"name": "seller",
							"type": "address"
						}
					],
					"name": "ProductAdded",
					"type": "event"
				},
				{
					"anonymous": false,
					"inputs": [
						{
							"indexed": false,
							"internalType": "uint256",
							"name": "productId",
							"type": "uint256"
						},
						{
							"indexed": false,
							"internalType": "string",
							"name": "name",
							"type": "string"
						},
						{
							"indexed": false,
							"internalType": "uint256",
							"name": "quantity",
							"type": "uint256"
						},
						{
							"indexed": false,
							"internalType": "uint256",
							"name": "totalPrice",
							"type": "uint256"
						},
						{
							"indexed": false,
							"internalType": "address",
							"name": "buyer",
							"type": "address"
						}
					],
					"name": "ProductPurchased",
					"type": "event"
				},
				{
					"anonymous": false,
					"inputs": [
						{
							"indexed": false,
							"internalType": "uint256",
							"name": "id",
							"type": "uint256"
						},
						{
							"indexed": false,
							"internalType": "string",
							"name": "title",
							"type": "string"
						},
						{
							"indexed": false,
							"internalType": "string",
							"name": "description",
							"type": "string"
						},
						{
							"indexed": false,
							"internalType": "bool",
							"name": "done",
							"type": "bool"
						},
						{
							"indexed": false,
							"internalType": "uint256",
							"name": "creatAt",
							"type": "uint256"
						}
					],
					"name": "TaskCreated",
					"type": "event"
				},
				{
					"inputs": [
						{
							"internalType": "string",
							"name": "_name",
							"type": "string"
						},
						{
							"internalType": "string",
							"name": "_description",
							"type": "string"
						},
						{
							"internalType": "uint256",
							"name": "_stock",
							"type": "uint256"
						},
						{
							"internalType": "string",
							"name": "_expirationDate",
							"type": "string"
						},
						{
							"internalType": "uint256",
							"name": "_price",
							"type": "uint256"
						}
					],
					"name": "addProduct",
					"outputs": [],
					"stateMutability": "nonpayable",
					"type": "function"
				},
				{
					"inputs": [
						{
							"internalType": "uint256",
							"name": "_id",
							"type": "uint256"
						}
					],
					"name": "cambioEstado",
					"outputs": [],
					"stateMutability": "nonpayable",
					"type": "function"
				},
				{
					"inputs": [
						{
							"internalType": "string",
							"name": "_title",
							"type": "string"
						},
						{
							"internalType": "string",
							"name": "_description",
							"type": "string"
						}
					],
					"name": "createTask",
					"outputs": [],
					"stateMutability": "nonpayable",
					"type": "function"
				},
				{
					"inputs": [
						{
							"internalType": "uint256",
							"name": "_productId",
							"type": "uint256"
						}
					],
					"name": "getProductDetails",
					"outputs": [
						{
							"internalType": "string",
							"name": "name",
							"type": "string"
						},
						{
							"internalType": "string",
							"name": "description",
							"type": "string"
						},
						{
							"internalType": "uint256",
							"name": "stock",
							"type": "uint256"
						},
						{
							"internalType": "string",
							"name": "expirationDate",
							"type": "string"
						},
						{
							"internalType": "uint256",
							"name": "price",
							"type": "uint256"
						}
					],
					"stateMutability": "view",
					"type": "function"
				},
				{
					"inputs": [],
					"name": "owner",
					"outputs": [
						{
							"internalType": "address",
							"name": "",
							"type": "address"
						}
					],
					"stateMutability": "view",
					"type": "function"
				},
				{
					"inputs": [],
					"name": "productCount",
					"outputs": [
						{
							"internalType": "uint256",
							"name": "",
							"type": "uint256"
						}
					],
					"stateMutability": "view",
					"type": "function"
				},
				{
					"inputs": [
						{
							"internalType": "uint256",
							"name": "",
							"type": "uint256"
						}
					],
					"name": "products",
					"outputs": [
						{
							"internalType": "uint256",
							"name": "id",
							"type": "uint256"
						},
						{
							"internalType": "string",
							"name": "name",
							"type": "string"
						},
						{
							"internalType": "string",
							"name": "description",
							"type": "string"
						},
						{
							"internalType": "uint256",
							"name": "stock",
							"type": "uint256"
						},
						{
							"internalType": "string",
							"name": "expirationDate",
							"type": "string"
						},
						{
							"internalType": "uint256",
							"name": "price",
							"type": "uint256"
						}
					],
					"stateMutability": "view",
					"type": "function"
				},
				{
					"inputs": [
						{
							"internalType": "uint256",
							"name": "_productId",
							"type": "uint256"
						},
						{
							"internalType": "uint256",
							"name": "_quantity",
							"type": "uint256"
						}
					],
					"name": "purchaseProduct",
					"outputs": [],
					"stateMutability": "payable",
					"type": "function"
				},
				{
					"inputs": [],
					"name": "taskCounter",
					"outputs": [
						{
							"internalType": "uint256",
							"name": "",
							"type": "uint256"
						}
					],
					"stateMutability": "view",
					"type": "function"
				},
				{
					"inputs": [
						{
							"internalType": "uint256",
							"name": "",
							"type": "uint256"
						}
					],
					"name": "tasks",
					"outputs": [
						{
							"internalType": "uint256",
							"name": "id",
							"type": "uint256"
						},
						{
							"internalType": "string",
							"name": "title",
							"type": "string"
						},
						{
							"internalType": "string",
							"name": "description",
							"type": "string"
						},
						{
							"internalType": "bool",
							"name": "done",
							"type": "bool"
						},
						{
							"internalType": "uint256",
							"name": "creatAt",
							"type": "uint256"
						}
					],
					"stateMutability": "view",
					"type": "function"
				}
			],
			"devdoc": {
				"kind": "dev",
				"methods": {},
				"version": 1
			},
			"evm": {
				"assembly": "    /* \"contracts/agregarInvetarioPOS.sol\":65:3812  contract TaskContract{... */\n  mstore(0x40, 0x80)\n    /* \"contracts/agregarInvetarioPOS.sol\":149:150  0 */\n  0x00\n    /* \"contracts/agregarInvetarioPOS.sol\":123:150  uint public taskCounter = 0 */\n  dup1\n  sstore\n    /* \"contracts/agregarInvetarioPOS.sol\":1703:1778  constructor() {... */\n  callvalue\n  dup1\n  iszero\n  tag_1\n  jumpi\n  0x00\n  dup1\n  revert\ntag_1:\n  pop\n    /* \"contracts/agregarInvetarioPOS.sol\":1735:1745  msg.sender */\n  caller\n    /* \"contracts/agregarInvetarioPOS.sol\":1727:1732  owner */\n  0x02\n  0x00\n    /* \"contracts/agregarInvetarioPOS.sol\":1727:1745  owner = msg.sender */\n  0x0100\n  exp\n  dup2\n  sload\n  dup2\n  0xffffffffffffffffffffffffffffffffffffffff\n  mul\n  not\n  and\n  swap1\n  dup4\n  0xffffffffffffffffffffffffffffffffffffffff\n  and\n  mul\n  or\n  swap1\n  sstore\n  pop\n    /* \"contracts/agregarInvetarioPOS.sol\":1770:1771  0 */\n  0x00\n    /* \"contracts/agregarInvetarioPOS.sol\":1755:1767  productCount */\n  0x03\n    /* \"contracts/agregarInvetarioPOS.sol\":1755:1771  productCount = 0 */\n  dup2\n  swap1\n  sstore\n  pop\n    /* \"contracts/agregarInvetarioPOS.sol\":65:3812  contract TaskContract{... */\n  dataSize(sub_0)\n  dup1\n  dataOffset(sub_0)\n  0x00\n  codecopy\n  0x00\n  return\nstop\n\nsub_0: assembly {\n        /* \"contracts/agregarInvetarioPOS.sol\":65:3812  contract TaskContract{... */\n      mstore(0x40, 0x80)\n      jumpi(tag_1, lt(calldatasize, 0x04))\n      shr(0xe0, calldataload(0x00))\n      dup1\n      0x8da5cb5b\n      gt\n      tag_12\n      jumpi\n      dup1\n      0x8da5cb5b\n      eq\n      tag_7\n      jumpi\n      dup1\n      0xa0440426\n      eq\n      tag_8\n      jumpi\n      dup1\n      0xa49eefa0\n      eq\n      tag_9\n      jumpi\n      dup1\n      0xe0f6ef87\n      eq\n      tag_10\n      jumpi\n      dup1\n      0xe324eb43\n      eq\n      tag_11\n      jumpi\n      jump(tag_1)\n    tag_12:\n      dup1\n      0x292a4585\n      eq\n      tag_2\n      jumpi\n      dup1\n      0x58671730\n      eq\n      tag_3\n      jumpi\n      dup1\n      0x6813b53b\n      eq\n      tag_4\n      jumpi\n      dup1\n      0x7acc0b20\n      eq\n      tag_5\n      jumpi\n      dup1\n      0x8d977672\n      eq\n      tag_6\n      jumpi\n    tag_1:\n      0x00\n      dup1\n      revert\n        /* \"contracts/agregarInvetarioPOS.sol\":550:839  function createTask(string memory _title, string memory _description) public {... */\n    tag_2:\n      callvalue\n      dup1\n      iszero\n      tag_13\n      jumpi\n      0x00\n      dup1\n      revert\n    tag_13:\n      pop\n      tag_14\n      0x04\n      dup1\n      calldatasize\n      sub\n      dup2\n      add\n      swap1\n      tag_15\n      swap2\n      swap1\n      tag_16\n      jump\t// in\n    tag_15:\n      tag_17\n      jump\t// in\n    tag_14:\n      stop\n        /* \"contracts/agregarInvetarioPOS.sol\":123:150  uint public taskCounter = 0 */\n    tag_3:\n      callvalue\n      dup1\n      iszero\n      tag_18\n      jumpi\n      0x00\n      dup1\n      revert\n    tag_18:\n      pop\n      tag_19\n      tag_20\n      jump\t// in\n    tag_19:\n      mload(0x40)\n      tag_21\n      swap2\n      swap1\n      tag_22\n      jump\t// in\n    tag_21:\n      mload(0x40)\n      dup1\n      swap2\n      sub\n      swap1\n      return\n        /* \"contracts/agregarInvetarioPOS.sol\":3382:3810  function getProductDetails(uint256 _productId) public view returns (string memory name, string memory description, uint256 stock, string memory expirationDate, uint256 price){... */\n    tag_4:\n      callvalue\n      dup1\n      iszero\n      tag_23\n      jumpi\n      0x00\n      dup1\n      revert\n    tag_23:\n      pop\n      tag_24\n      0x04\n      dup1\n      calldatasize\n      sub\n      dup2\n      add\n      swap1\n      tag_25\n      swap2\n      swap1\n      tag_26\n      jump\t// in\n    tag_25:\n      tag_27\n      jump\t// in\n    tag_24:\n      mload(0x40)\n      tag_28\n      swap6\n      swap5\n      swap4\n      swap3\n      swap2\n      swap1\n      tag_29\n      jump\t// in\n    tag_28:\n      mload(0x40)\n      dup1\n      swap2\n      sub\n      swap1\n      return\n        /* \"contracts/agregarInvetarioPOS.sol\":1394:1437  mapping(uint256 => Product) public products */\n    tag_5:\n      callvalue\n      dup1\n      iszero\n      tag_30\n      jumpi\n      0x00\n      dup1\n      revert\n    tag_30:\n      pop\n      tag_31\n      0x04\n      dup1\n      calldatasize\n      sub\n      dup2\n      add\n      swap1\n      tag_32\n      swap2\n      swap1\n      tag_26\n      jump\t// in\n    tag_32:\n      tag_33\n      jump\t// in\n    tag_31:\n      mload(0x40)\n      tag_34\n      swap7\n      swap6\n      swap5\n      swap4\n      swap3\n      swap2\n      swap1\n      tag_35\n      jump\t// in\n    tag_34:\n      mload(0x40)\n      dup1\n      swap2\n      sub\n      swap1\n      return\n        /* \"contracts/agregarInvetarioPOS.sol\":503:543  mapping ( uint256 => Task ) public tasks */\n    tag_6:\n      callvalue\n      dup1\n      iszero\n      tag_36\n      jumpi\n      0x00\n      dup1\n      revert\n    tag_36:\n      pop\n      tag_37\n      0x04\n      dup1\n      calldatasize\n      sub\n      dup2\n      add\n      swap1\n      tag_38\n      swap2\n      swap1\n      tag_26\n      jump\t// in\n    tag_38:\n      tag_39\n      jump\t// in\n    tag_37:\n      mload(0x40)\n      tag_40\n      swap6\n      swap5\n      swap4\n      swap3\n      swap2\n      swap1\n      tag_41\n      jump\t// in\n    tag_40:\n      mload(0x40)\n      dup1\n      swap2\n      sub\n      swap1\n      return\n        /* \"contracts/agregarInvetarioPOS.sol\":1160:1180  address public owner */\n    tag_7:\n      callvalue\n      dup1\n      iszero\n      tag_42\n      jumpi\n      0x00\n      dup1\n      revert\n    tag_42:\n      pop\n      tag_43\n      tag_44\n      jump\t// in\n    tag_43:\n      mload(0x40)\n      tag_45\n      swap2\n      swap1\n      tag_46\n      jump\t// in\n    tag_45:\n      mload(0x40)\n      dup1\n      swap2\n      sub\n      swap1\n      return\n        /* \"contracts/agregarInvetarioPOS.sol\":2726:3376  function purchaseProduct(uint256 _productId, uint256 _quantity) public payable {... */\n    tag_8:\n      tag_47\n      0x04\n      dup1\n      calldatasize\n      sub\n      dup2\n      add\n      swap1\n      tag_48\n      swap2\n      swap1\n      tag_49\n      jump\t// in\n    tag_48:\n      tag_50\n      jump\t// in\n    tag_47:\n      stop\n        /* \"contracts/agregarInvetarioPOS.sol\":845:1098  function cambioEstado(uint _id) public {... */\n    tag_9:\n      callvalue\n      dup1\n      iszero\n      tag_51\n      jumpi\n      0x00\n      dup1\n      revert\n    tag_51:\n      pop\n      tag_52\n      0x04\n      dup1\n      calldatasize\n      sub\n      dup2\n      add\n      swap1\n      tag_53\n      swap2\n      swap1\n      tag_26\n      jump\t// in\n    tag_53:\n      tag_54\n      jump\t// in\n    tag_52:\n      stop\n        /* \"contracts/agregarInvetarioPOS.sol\":1186:1213  uint256 public productCount */\n    tag_10:\n      callvalue\n      dup1\n      iszero\n      tag_55\n      jumpi\n      0x00\n      dup1\n      revert\n    tag_55:\n      pop\n      tag_56\n      tag_57\n      jump\t// in\n    tag_56:\n      mload(0x40)\n      tag_58\n      swap2\n      swap1\n      tag_22\n      jump\t// in\n    tag_58:\n      mload(0x40)\n      dup1\n      swap2\n      sub\n      swap1\n      return\n        /* \"contracts/agregarInvetarioPOS.sol\":1908:2720  function addProduct(string memory _name, string memory _description, uint256 _stock, string memory _expirationDate, uint256 _price) public onlyOwner {... */\n    tag_11:\n      callvalue\n      dup1\n      iszero\n      tag_59\n      jumpi\n      0x00\n      dup1\n      revert\n    tag_59:\n      pop\n      tag_60\n      0x04\n      dup1\n      calldatasize\n      sub\n      dup2\n      add\n      swap1\n      tag_61\n      swap2\n      swap1\n      tag_62\n      jump\t// in\n    tag_61:\n      tag_63\n      jump\t// in\n    tag_60:\n      stop\n        /* \"contracts/agregarInvetarioPOS.sol\":550:839  function createTask(string memory _title, string memory _description) public {... */\n    tag_17:\n        /* \"contracts/agregarInvetarioPOS.sol\":638:649  taskCounter */\n      0x00\n      dup1\n        /* \"contracts/agregarInvetarioPOS.sol\":638:651  taskCounter++ */\n      dup2\n      sload\n      dup1\n      swap3\n      swap2\n      swap1\n      tag_65\n      swap1\n      tag_66\n      jump\t// in\n    tag_65:\n      swap2\n      swap1\n      pop\n      sstore\n      pop\n        /* \"contracts/agregarInvetarioPOS.sol\":682:745  Task(taskCounter, _title, _description, false, block.timestamp) */\n      mload(0x40)\n      dup1\n      0xa0\n      add\n      0x40\n      mstore\n      dup1\n        /* \"contracts/agregarInvetarioPOS.sol\":687:698  taskCounter */\n      sload(0x00)\n        /* \"contracts/agregarInvetarioPOS.sol\":682:745  Task(taskCounter, _title, _description, false, block.timestamp) */\n      dup2\n      mstore\n      0x20\n      add\n        /* \"contracts/agregarInvetarioPOS.sol\":700:706  _title */\n      dup4\n        /* \"contracts/agregarInvetarioPOS.sol\":682:745  Task(taskCounter, _title, _description, false, block.timestamp) */\n      dup2\n      mstore\n      0x20\n      add\n        /* \"contracts/agregarInvetarioPOS.sol\":708:720  _description */\n      dup3\n        /* \"contracts/agregarInvetarioPOS.sol\":682:745  Task(taskCounter, _title, _description, false, block.timestamp) */\n      dup2\n      mstore\n      0x20\n      add\n        /* \"contracts/agregarInvetarioPOS.sol\":722:727  false */\n      0x00\n        /* \"contracts/agregarInvetarioPOS.sol\":682:745  Task(taskCounter, _title, _description, false, block.timestamp) */\n      iszero\n      iszero\n      dup2\n      mstore\n      0x20\n      add\n        /* \"contracts/agregarInvetarioPOS.sol\":729:744  block.timestamp */\n      timestamp\n        /* \"contracts/agregarInvetarioPOS.sol\":682:745  Task(taskCounter, _title, _description, false, block.timestamp) */\n      dup2\n      mstore\n      pop\n        /* \"contracts/agregarInvetarioPOS.sol\":661:666  tasks */\n      0x01\n        /* \"contracts/agregarInvetarioPOS.sol\":661:679  tasks[taskCounter] */\n      0x00\n        /* \"contracts/agregarInvetarioPOS.sol\":667:678  taskCounter */\n      dup1\n      sload\n        /* \"contracts/agregarInvetarioPOS.sol\":661:679  tasks[taskCounter] */\n      dup2\n      mstore\n      0x20\n      add\n      swap1\n      dup2\n      mstore\n      0x20\n      add\n      0x00\n      keccak256\n        /* \"contracts/agregarInvetarioPOS.sol\":661:745  tasks[taskCounter] = Task(taskCounter, _title, _description, false, block.timestamp) */\n      0x00\n      dup3\n      add\n      mload\n      dup2\n      0x00\n      add\n      sstore\n      0x20\n      dup3\n      add\n      mload\n      dup2\n      0x01\n      add\n      swap1\n      dup2\n      tag_67\n      swap2\n      swap1\n      tag_68\n      jump\t// in\n    tag_67:\n      pop\n      0x40\n      dup3\n      add\n      mload\n      dup2\n      0x02\n      add\n      swap1\n      dup2\n      tag_69\n      swap2\n      swap1\n      tag_68\n      jump\t// in\n    tag_69:\n      pop\n      0x60\n      dup3\n      add\n      mload\n      dup2\n      0x03\n      add\n      exp(0x0100, 0x00)\n      dup2\n      sload\n      dup2\n      0xff\n      mul\n      not\n      and\n      swap1\n      dup4\n      iszero\n      iszero\n      mul\n      or\n      swap1\n      sstore\n      pop\n      0x80\n      dup3\n      add\n      mload\n      dup2\n      0x04\n      add\n      sstore\n      swap1\n      pop\n      pop\n        /* \"contracts/agregarInvetarioPOS.sol\":761:831  TaskCreated(taskCounter, _title, _description, false, block.timestamp) */\n      0x6549102bed7d1bb5ec529ee14e2ca60ffc1f47f66d4cc6ca713220613cc64c25\n        /* \"contracts/agregarInvetarioPOS.sol\":773:784  taskCounter */\n      sload(0x00)\n        /* \"contracts/agregarInvetarioPOS.sol\":786:792  _title */\n      dup4\n        /* \"contracts/agregarInvetarioPOS.sol\":794:806  _description */\n      dup4\n        /* \"contracts/agregarInvetarioPOS.sol\":808:813  false */\n      0x00\n        /* \"contracts/agregarInvetarioPOS.sol\":815:830  block.timestamp */\n      timestamp\n        /* \"contracts/agregarInvetarioPOS.sol\":761:831  TaskCreated(taskCounter, _title, _description, false, block.timestamp) */\n      mload(0x40)\n      tag_70\n      swap6\n      swap5\n      swap4\n      swap3\n      swap2\n      swap1\n      tag_41\n      jump\t// in\n    tag_70:\n      mload(0x40)\n      dup1\n      swap2\n      sub\n      swap1\n      log1\n        /* \"contracts/agregarInvetarioPOS.sol\":550:839  function createTask(string memory _title, string memory _description) public {... */\n      pop\n      pop\n      jump\t// out\n        /* \"contracts/agregarInvetarioPOS.sol\":123:150  uint public taskCounter = 0 */\n    tag_20:\n      sload(0x00)\n      dup2\n      jump\t// out\n        /* \"contracts/agregarInvetarioPOS.sol\":3382:3810  function getProductDetails(uint256 _productId) public view returns (string memory name, string memory description, uint256 stock, string memory expirationDate, uint256 price){... */\n    tag_27:\n        /* \"contracts/agregarInvetarioPOS.sol\":3450:3468  string memory name */\n      0x60\n        /* \"contracts/agregarInvetarioPOS.sol\":3470:3495  string memory description */\n      dup1\n        /* \"contracts/agregarInvetarioPOS.sol\":3497:3510  uint256 stock */\n      0x00\n        /* \"contracts/agregarInvetarioPOS.sol\":3512:3540  string memory expirationDate */\n      0x60\n        /* \"contracts/agregarInvetarioPOS.sol\":3542:3555  uint256 price */\n      0x00\n        /* \"contracts/agregarInvetarioPOS.sol\":3587:3588  0 */\n      dup1\n        /* \"contracts/agregarInvetarioPOS.sol\":3574:3584  _productId */\n      dup7\n        /* \"contracts/agregarInvetarioPOS.sol\":3574:3588  _productId > 0 */\n      gt\n        /* \"contracts/agregarInvetarioPOS.sol\":3574:3618  _productId > 0 && _productId <= productCount */\n      dup1\n      iszero\n      tag_72\n      jumpi\n      pop\n        /* \"contracts/agregarInvetarioPOS.sol\":3606:3618  productCount */\n      sload(0x03)\n        /* \"contracts/agregarInvetarioPOS.sol\":3592:3602  _productId */\n      dup7\n        /* \"contracts/agregarInvetarioPOS.sol\":3592:3618  _productId <= productCount */\n      gt\n      iszero\n        /* \"contracts/agregarInvetarioPOS.sol\":3574:3618  _productId > 0 && _productId <= productCount */\n    tag_72:\n        /* \"contracts/agregarInvetarioPOS.sol\":3566:3641  require(_productId > 0 && _productId <= productCount, \"Invalid product ID\") */\n      tag_73\n      jumpi\n      mload(0x40)\n      0x08c379a000000000000000000000000000000000000000000000000000000000\n      dup2\n      mstore\n      0x04\n      add\n      tag_74\n      swap1\n      tag_75\n      jump\t// in\n    tag_74:\n      mload(0x40)\n      dup1\n      swap2\n      sub\n      swap1\n      revert\n    tag_73:\n        /* \"contracts/agregarInvetarioPOS.sol\":3651:3674  Product storage product */\n      0x00\n        /* \"contracts/agregarInvetarioPOS.sol\":3677:3685  products */\n      0x04\n        /* \"contracts/agregarInvetarioPOS.sol\":3677:3697  products[_productId] */\n      0x00\n        /* \"contracts/agregarInvetarioPOS.sol\":3686:3696  _productId */\n      dup9\n        /* \"contracts/agregarInvetarioPOS.sol\":3677:3697  products[_productId] */\n      dup2\n      mstore\n      0x20\n      add\n      swap1\n      dup2\n      mstore\n      0x20\n      add\n      0x00\n      keccak256\n        /* \"contracts/agregarInvetarioPOS.sol\":3651:3697  Product storage product = products[_productId] */\n      swap1\n      pop\n        /* \"contracts/agregarInvetarioPOS.sol\":3715:3722  product */\n      dup1\n        /* \"contracts/agregarInvetarioPOS.sol\":3715:3727  product.name */\n      0x01\n      add\n        /* \"contracts/agregarInvetarioPOS.sol\":3729:3736  product */\n      dup2\n        /* \"contracts/agregarInvetarioPOS.sol\":3729:3748  product.description */\n      0x02\n      add\n        /* \"contracts/agregarInvetarioPOS.sol\":3750:3757  product */\n      dup3\n        /* \"contracts/agregarInvetarioPOS.sol\":3750:3763  product.stock */\n      0x03\n      add\n      sload\n        /* \"contracts/agregarInvetarioPOS.sol\":3765:3772  product */\n      dup4\n        /* \"contracts/agregarInvetarioPOS.sol\":3765:3787  product.expirationDate */\n      0x04\n      add\n        /* \"contracts/agregarInvetarioPOS.sol\":3789:3796  product */\n      dup5\n        /* \"contracts/agregarInvetarioPOS.sol\":3789:3802  product.price */\n      0x05\n      add\n      sload\n        /* \"contracts/agregarInvetarioPOS.sol\":3707:3803  return (product.name, product.description, product.stock, product.expirationDate, product.price) */\n      dup5\n      dup1\n      sload\n      tag_76\n      swap1\n      tag_77\n      jump\t// in\n    tag_76:\n      dup1\n      0x1f\n      add\n      0x20\n      dup1\n      swap2\n      div\n      mul\n      0x20\n      add\n      mload(0x40)\n      swap1\n      dup2\n      add\n      0x40\n      mstore\n      dup1\n      swap3\n      swap2\n      swap1\n      dup2\n      dup2\n      mstore\n      0x20\n      add\n      dup3\n      dup1\n      sload\n      tag_78\n      swap1\n      tag_77\n      jump\t// in\n    tag_78:\n      dup1\n      iszero\n      tag_79\n      jumpi\n      dup1\n      0x1f\n      lt\n      tag_80\n      jumpi\n      0x0100\n      dup1\n      dup4\n      sload\n      div\n      mul\n      dup4\n      mstore\n      swap2\n      0x20\n      add\n      swap2\n      jump(tag_79)\n    tag_80:\n      dup3\n      add\n      swap2\n      swap1\n      0x00\n      mstore\n      keccak256(0x00, 0x20)\n      swap1\n    tag_81:\n      dup2\n      sload\n      dup2\n      mstore\n      swap1\n      0x01\n      add\n      swap1\n      0x20\n      add\n      dup1\n      dup4\n      gt\n      tag_81\n      jumpi\n      dup3\n      swap1\n      sub\n      0x1f\n      and\n      dup3\n      add\n      swap2\n    tag_79:\n      pop\n      pop\n      pop\n      pop\n      pop\n      swap5\n      pop\n      dup4\n      dup1\n      sload\n      tag_82\n      swap1\n      tag_77\n      jump\t// in\n    tag_82:\n      dup1\n      0x1f\n      add\n      0x20\n      dup1\n      swap2\n      div\n      mul\n      0x20\n      add\n      mload(0x40)\n      swap1\n      dup2\n      add\n      0x40\n      mstore\n      dup1\n      swap3\n      swap2\n      swap1\n      dup2\n      dup2\n      mstore\n      0x20\n      add\n      dup3\n      dup1\n      sload\n      tag_83\n      swap1\n      tag_77\n      jump\t// in\n    tag_83:\n      dup1\n      iszero\n      tag_84\n      jumpi\n      dup1\n      0x1f\n      lt\n      tag_85\n      jumpi\n      0x0100\n      dup1\n      dup4\n      sload\n      div\n      mul\n      dup4\n      mstore\n      swap2\n      0x20\n      add\n      swap2\n      jump(tag_84)\n    tag_85:\n      dup3\n      add\n      swap2\n      swap1\n      0x00\n      mstore\n      keccak256(0x00, 0x20)\n      swap1\n    tag_86:\n      dup2\n      sload\n      dup2\n      mstore\n      swap1\n      0x01\n      add\n      swap1\n      0x20\n      add\n      dup1\n      dup4\n      gt\n      tag_86\n      jumpi\n      dup3\n      swap1\n      sub\n      0x1f\n      and\n      dup3\n      add\n      swap2\n    tag_84:\n      pop\n      pop\n      pop\n      pop\n      pop\n      swap4\n      pop\n      dup2\n      dup1\n      sload\n      tag_87\n      swap1\n      tag_77\n      jump\t// in\n    tag_87:\n      dup1\n      0x1f\n      add\n      0x20\n      dup1\n      swap2\n      div\n      mul\n      0x20\n      add\n      mload(0x40)\n      swap1\n      dup2\n      add\n      0x40\n      mstore\n      dup1\n      swap3\n      swap2\n      swap1\n      dup2\n      dup2\n      mstore\n      0x20\n      add\n      dup3\n      dup1\n      sload\n      tag_88\n      swap1\n      tag_77\n      jump\t// in\n    tag_88:\n      dup1\n      iszero\n      tag_89\n      jumpi\n      dup1\n      0x1f\n      lt\n      tag_90\n      jumpi\n      0x0100\n      dup1\n      dup4\n      sload\n      div\n      mul\n      dup4\n      mstore\n      swap2\n      0x20\n      add\n      swap2\n      jump(tag_89)\n    tag_90:\n      dup3\n      add\n      swap2\n      swap1\n      0x00\n      mstore\n      keccak256(0x00, 0x20)\n      swap1\n    tag_91:\n      dup2\n      sload\n      dup2\n      mstore\n      swap1\n      0x01\n      add\n      swap1\n      0x20\n      add\n      dup1\n      dup4\n      gt\n      tag_91\n      jumpi\n      dup3\n      swap1\n      sub\n      0x1f\n      and\n      dup3\n      add\n      swap2\n    tag_89:\n      pop\n      pop\n      pop\n      pop\n      pop\n      swap2\n      pop\n      swap6\n      pop\n      swap6\n      pop\n      swap6\n      pop\n      swap6\n      pop\n      swap6\n      pop\n      pop\n        /* \"contracts/agregarInvetarioPOS.sol\":3382:3810  function getProductDetails(uint256 _productId) public view returns (string memory name, string memory description, uint256 stock, string memory expirationDate, uint256 price){... */\n      swap2\n      swap4\n      swap6\n      swap1\n      swap3\n      swap5\n      pop\n      jump\t// out\n        /* \"contracts/agregarInvetarioPOS.sol\":1394:1437  mapping(uint256 => Product) public products */\n    tag_33:\n      mstore(0x20, 0x04)\n      dup1\n      0x00\n      mstore\n      keccak256(0x00, 0x40)\n      0x00\n      swap2\n      pop\n      swap1\n      pop\n      dup1\n      0x00\n      add\n      sload\n      swap1\n      dup1\n      0x01\n      add\n      dup1\n      sload\n      tag_92\n      swap1\n      tag_77\n      jump\t// in\n    tag_92:\n      dup1\n      0x1f\n      add\n      0x20\n      dup1\n      swap2\n      div\n      mul\n      0x20\n      add\n      mload(0x40)\n      swap1\n      dup2\n      add\n      0x40\n      mstore\n      dup1\n      swap3\n      swap2\n      swap1\n      dup2\n      dup2\n      mstore\n      0x20\n      add\n      dup3\n      dup1\n      sload\n      tag_93\n      swap1\n      tag_77\n      jump\t// in\n    tag_93:\n      dup1\n      iszero\n      tag_94\n      jumpi\n      dup1\n      0x1f\n      lt\n      tag_95\n      jumpi\n      0x0100\n      dup1\n      dup4\n      sload\n      div\n      mul\n      dup4\n      mstore\n      swap2\n      0x20\n      add\n      swap2\n      jump(tag_94)\n    tag_95:\n      dup3\n      add\n      swap2\n      swap1\n      0x00\n      mstore\n      keccak256(0x00, 0x20)\n      swap1\n    tag_96:\n      dup2\n      sload\n      dup2\n      mstore\n      swap1\n      0x01\n      add\n      swap1\n      0x20\n      add\n      dup1\n      dup4\n      gt\n      tag_96\n      jumpi\n      dup3\n      swap1\n      sub\n      0x1f\n      and\n      dup3\n      add\n      swap2\n    tag_94:\n      pop\n      pop\n      pop\n      pop\n      pop\n      swap1\n      dup1\n      0x02\n      add\n      dup1\n      sload\n      tag_97\n      swap1\n      tag_77\n      jump\t// in\n    tag_97:\n      dup1\n      0x1f\n      add\n      0x20\n      dup1\n      swap2\n      div\n      mul\n      0x20\n      add\n      mload(0x40)\n      swap1\n      dup2\n      add\n      0x40\n      mstore\n      dup1\n      swap3\n      swap2\n      swap1\n      dup2\n      dup2\n      mstore\n      0x20\n      add\n      dup3\n      dup1\n      sload\n      tag_98\n      swap1\n      tag_77\n      jump\t// in\n    tag_98:\n      dup1\n      iszero\n      tag_99\n      jumpi\n      dup1\n      0x1f\n      lt\n      tag_100\n      jumpi\n      0x0100\n      dup1\n      dup4\n      sload\n      div\n      mul\n      dup4\n      mstore\n      swap2\n      0x20\n      add\n      swap2\n      jump(tag_99)\n    tag_100:\n      dup3\n      add\n      swap2\n      swap1\n      0x00\n      mstore\n      keccak256(0x00, 0x20)\n      swap1\n    tag_101:\n      dup2\n      sload\n      dup2\n      mstore\n      swap1\n      0x01\n      add\n      swap1\n      0x20\n      add\n      dup1\n      dup4\n      gt\n      tag_101\n      jumpi\n      dup3\n      swap1\n      sub\n      0x1f\n      and\n      dup3\n      add\n      swap2\n    tag_99:\n      pop\n      pop\n      pop\n      pop\n      pop\n      swap1\n      dup1\n      0x03\n      add\n      sload\n      swap1\n      dup1\n      0x04\n      add\n      dup1\n      sload\n      tag_102\n      swap1\n      tag_77\n      jump\t// in\n    tag_102:\n      dup1\n      0x1f\n      add\n      0x20\n      dup1\n      swap2\n      div\n      mul\n      0x20\n      add\n      mload(0x40)\n      swap1\n      dup2\n      add\n      0x40\n      mstore\n      dup1\n      swap3\n      swap2\n      swap1\n      dup2\n      dup2\n      mstore\n      0x20\n      add\n      dup3\n      dup1\n      sload\n      tag_103\n      swap1\n      tag_77\n      jump\t// in\n    tag_103:\n      dup1\n      iszero\n      tag_104\n      jumpi\n      dup1\n      0x1f\n      lt\n      tag_105\n      jumpi\n      0x0100\n      dup1\n      dup4\n      sload\n      div\n      mul\n      dup4\n      mstore\n      swap2\n      0x20\n      add\n      swap2\n      jump(tag_104)\n    tag_105:\n      dup3\n      add\n      swap2\n      swap1\n      0x00\n      mstore\n      keccak256(0x00, 0x20)\n      swap1\n    tag_106:\n      dup2\n      sload\n      dup2\n      mstore\n      swap1\n      0x01\n      add\n      swap1\n      0x20\n      add\n      dup1\n      dup4\n      gt\n      tag_106\n      jumpi\n      dup3\n      swap1\n      sub\n      0x1f\n      and\n      dup3\n      add\n      swap2\n    tag_104:\n      pop\n      pop\n      pop\n      pop\n      pop\n      swap1\n      dup1\n      0x05\n      add\n      sload\n      swap1\n      pop\n      dup7\n      jump\t// out\n        /* \"contracts/agregarInvetarioPOS.sol\":503:543  mapping ( uint256 => Task ) public tasks */\n    tag_39:\n      mstore(0x20, 0x01)\n      dup1\n      0x00\n      mstore\n      keccak256(0x00, 0x40)\n      0x00\n      swap2\n      pop\n      swap1\n      pop\n      dup1\n      0x00\n      add\n      sload\n      swap1\n      dup1\n      0x01\n      add\n      dup1\n      sload\n      tag_107\n      swap1\n      tag_77\n      jump\t// in\n    tag_107:\n      dup1\n      0x1f\n      add\n      0x20\n      dup1\n      swap2\n      div\n      mul\n      0x20\n      add\n      mload(0x40)\n      swap1\n      dup2\n      add\n      0x40\n      mstore\n      dup1\n      swap3\n      swap2\n      swap1\n      dup2\n      dup2\n      mstore\n      0x20\n      add\n      dup3\n      dup1\n      sload\n      tag_108\n      swap1\n      tag_77\n      jump\t// in\n    tag_108:\n      dup1\n      iszero\n      tag_109\n      jumpi\n      dup1\n      0x1f\n      lt\n      tag_110\n      jumpi\n      0x0100\n      dup1\n      dup4\n      sload\n      div\n      mul\n      dup4\n      mstore\n      swap2\n      0x20\n      add\n      swap2\n      jump(tag_109)\n    tag_110:\n      dup3\n      add\n      swap2\n      swap1\n      0x00\n      mstore\n      keccak256(0x00, 0x20)\n      swap1\n    tag_111:\n      dup2\n      sload\n      dup2\n      mstore\n      swap1\n      0x01\n      add\n      swap1\n      0x20\n      add\n      dup1\n      dup4\n      gt\n      tag_111\n      jumpi\n      dup3\n      swap1\n      sub\n      0x1f\n      and\n      dup3\n      add\n      swap2\n    tag_109:\n      pop\n      pop\n      pop\n      pop\n      pop\n      swap1\n      dup1\n      0x02\n      add\n      dup1\n      sload\n      tag_112\n      swap1\n      tag_77\n      jump\t// in\n    tag_112:\n      dup1\n      0x1f\n      add\n      0x20\n      dup1\n      swap2\n      div\n      mul\n      0x20\n      add\n      mload(0x40)\n      swap1\n      dup2\n      add\n      0x40\n      mstore\n      dup1\n      swap3\n      swap2\n      swap1\n      dup2\n      dup2\n      mstore\n      0x20\n      add\n      dup3\n      dup1\n      sload\n      tag_113\n      swap1\n      tag_77\n      jump\t// in\n    tag_113:\n      dup1\n      iszero\n      tag_114\n      jumpi\n      dup1\n      0x1f\n      lt\n      tag_115\n      jumpi\n      0x0100\n      dup1\n      dup4\n      sload\n      div\n      mul\n      dup4\n      mstore\n      swap2\n      0x20\n      add\n      swap2\n      jump(tag_114)\n    tag_115:\n      dup3\n      add\n      swap2\n      swap1\n      0x00\n      mstore\n      keccak256(0x00, 0x20)\n      swap1\n    tag_116:\n      dup2\n      sload\n      dup2\n      mstore\n      swap1\n      0x01\n      add\n      swap1\n      0x20\n      add\n      dup1\n      dup4\n      gt\n      tag_116\n      jumpi\n      dup3\n      swap1\n      sub\n      0x1f\n      and\n      dup3\n      add\n      swap2\n    tag_114:\n      pop\n      pop\n      pop\n      pop\n      pop\n      swap1\n      dup1\n      0x03\n      add\n      0x00\n      swap1\n      sload\n      swap1\n      0x0100\n      exp\n      swap1\n      div\n      0xff\n      and\n      swap1\n      dup1\n      0x04\n      add\n      sload\n      swap1\n      pop\n      dup6\n      jump\t// out\n        /* \"contracts/agregarInvetarioPOS.sol\":1160:1180  address public owner */\n    tag_44:\n      0x02\n      0x00\n      swap1\n      sload\n      swap1\n      0x0100\n      exp\n      swap1\n      div\n      0xffffffffffffffffffffffffffffffffffffffff\n      and\n      dup2\n      jump\t// out\n        /* \"contracts/agregarInvetarioPOS.sol\":2726:3376  function purchaseProduct(uint256 _productId, uint256 _quantity) public payable {... */\n    tag_50:\n        /* \"contracts/agregarInvetarioPOS.sol\":2836:2837  0 */\n      0x00\n        /* \"contracts/agregarInvetarioPOS.sol\":2823:2833  _productId */\n      dup3\n        /* \"contracts/agregarInvetarioPOS.sol\":2823:2837  _productId > 0 */\n      gt\n        /* \"contracts/agregarInvetarioPOS.sol\":2823:2867  _productId > 0 && _productId <= productCount */\n      dup1\n      iszero\n      tag_118\n      jumpi\n      pop\n        /* \"contracts/agregarInvetarioPOS.sol\":2855:2867  productCount */\n      sload(0x03)\n        /* \"contracts/agregarInvetarioPOS.sol\":2841:2851  _productId */\n      dup3\n        /* \"contracts/agregarInvetarioPOS.sol\":2841:2867  _productId <= productCount */\n      gt\n      iszero\n        /* \"contracts/agregarInvetarioPOS.sol\":2823:2867  _productId > 0 && _productId <= productCount */\n    tag_118:\n        /* \"contracts/agregarInvetarioPOS.sol\":2815:2890  require(_productId > 0 && _productId <= productCount, \"Invalid product ID\") */\n      tag_119\n      jumpi\n      mload(0x40)\n      0x08c379a000000000000000000000000000000000000000000000000000000000\n      dup2\n      mstore\n      0x04\n      add\n      tag_120\n      swap1\n      tag_75\n      jump\t// in\n    tag_120:\n      mload(0x40)\n      dup1\n      swap2\n      sub\n      swap1\n      revert\n    tag_119:\n        /* \"contracts/agregarInvetarioPOS.sol\":2900:2923  Product storage product */\n      0x00\n        /* \"contracts/agregarInvetarioPOS.sol\":2926:2934  products */\n      0x04\n        /* \"contracts/agregarInvetarioPOS.sol\":2926:2946  products[_productId] */\n      0x00\n        /* \"contracts/agregarInvetarioPOS.sol\":2935:2945  _productId */\n      dup5\n        /* \"contracts/agregarInvetarioPOS.sol\":2926:2946  products[_productId] */\n      dup2\n      mstore\n      0x20\n      add\n      swap1\n      dup2\n      mstore\n      0x20\n      add\n      0x00\n      keccak256\n        /* \"contracts/agregarInvetarioPOS.sol\":2900:2946  Product storage product = products[_productId] */\n      swap1\n      pop\n        /* \"contracts/agregarInvetarioPOS.sol\":2981:2990  _quantity */\n      dup2\n        /* \"contracts/agregarInvetarioPOS.sol\":2964:2971  product */\n      dup2\n        /* \"contracts/agregarInvetarioPOS.sol\":2964:2977  product.stock */\n      0x03\n      add\n      sload\n        /* \"contracts/agregarInvetarioPOS.sol\":2964:2990  product.stock >= _quantity */\n      lt\n      iszero\n        /* \"contracts/agregarInvetarioPOS.sol\":2956:3021  require(product.stock >= _quantity, \"Not enough stock available\") */\n      tag_121\n      jumpi\n      mload(0x40)\n      0x08c379a000000000000000000000000000000000000000000000000000000000\n      dup2\n      mstore\n      0x04\n      add\n      tag_122\n      swap1\n      tag_123\n      jump\t// in\n    tag_122:\n      mload(0x40)\n      dup1\n      swap2\n      sub\n      swap1\n      revert\n    tag_121:\n        /* \"contracts/agregarInvetarioPOS.sol\":3068:3077  _quantity */\n      dup2\n        /* \"contracts/agregarInvetarioPOS.sol\":3052:3059  product */\n      dup2\n        /* \"contracts/agregarInvetarioPOS.sol\":3052:3065  product.price */\n      0x05\n      add\n      sload\n        /* \"contracts/agregarInvetarioPOS.sol\":3052:3077  product.price * _quantity */\n      tag_124\n      swap2\n      swap1\n      tag_125\n      jump\t// in\n    tag_124:\n        /* \"contracts/agregarInvetarioPOS.sol\":3039:3048  msg.value */\n      callvalue\n        /* \"contracts/agregarInvetarioPOS.sol\":3039:3077  msg.value == product.price * _quantity */\n      eq\n        /* \"contracts/agregarInvetarioPOS.sol\":3031:3106  require(msg.value == product.price * _quantity, \"Incorrect payment amount\") */\n      tag_126\n      jumpi\n      mload(0x40)\n      0x08c379a000000000000000000000000000000000000000000000000000000000\n      dup2\n      mstore\n      0x04\n      add\n      tag_127\n      swap1\n      tag_128\n      jump\t// in\n    tag_127:\n      mload(0x40)\n      dup1\n      swap2\n      sub\n      swap1\n      revert\n    tag_126:\n        /* \"contracts/agregarInvetarioPOS.sol\":3171:3176  owner */\n      0x02\n      0x00\n      swap1\n      sload\n      swap1\n      0x0100\n      exp\n      swap1\n      div\n      0xffffffffffffffffffffffffffffffffffffffff\n      and\n        /* \"contracts/agregarInvetarioPOS.sol\":3163:3186  payable(owner).transfer */\n      0xffffffffffffffffffffffffffffffffffffffff\n      and\n        /* \"contracts/agregarInvetarioPOS.sol\":3163:3197  payable(owner).transfer(msg.value) */\n      0x08fc\n        /* \"contracts/agregarInvetarioPOS.sol\":3187:3196  msg.value */\n      callvalue\n        /* \"contracts/agregarInvetarioPOS.sol\":3163:3197  payable(owner).transfer(msg.value) */\n      swap1\n      dup2\n      iszero\n      mul\n      swap1\n      mload(0x40)\n      0x00\n      mload(0x40)\n      dup1\n      dup4\n      sub\n      dup2\n      dup6\n      dup9\n      dup9\n      call\n      swap4\n      pop\n      pop\n      pop\n      pop\n      iszero\n      dup1\n      iszero\n      tag_130\n      jumpi\n      returndatasize\n      0x00\n      dup1\n      returndatacopy\n      revert(0x00, returndatasize)\n    tag_130:\n      pop\n        /* \"contracts/agregarInvetarioPOS.sol\":3268:3277  _quantity */\n      dup2\n        /* \"contracts/agregarInvetarioPOS.sol\":3251:3258  product */\n      dup2\n        /* \"contracts/agregarInvetarioPOS.sol\":3251:3264  product.stock */\n      0x03\n      add\n      0x00\n        /* \"contracts/agregarInvetarioPOS.sol\":3251:3277  product.stock -= _quantity */\n      dup3\n      dup3\n      sload\n      tag_131\n      swap2\n      swap1\n      tag_132\n      jump\t// in\n    tag_131:\n      swap3\n      pop\n      pop\n      dup2\n      swap1\n      sstore\n      pop\n        /* \"contracts/agregarInvetarioPOS.sol\":3293:3369  ProductPurchased(_productId, product.name, _quantity, msg.value, msg.sender) */\n      0xd922a2fffde7c04efb85e105cb4324b2ebe96919a6a107b6c63afb85484b8da9\n        /* \"contracts/agregarInvetarioPOS.sol\":3310:3320  _productId */\n      dup4\n        /* \"contracts/agregarInvetarioPOS.sol\":3322:3329  product */\n      dup3\n        /* \"contracts/agregarInvetarioPOS.sol\":3322:3334  product.name */\n      0x01\n      add\n        /* \"contracts/agregarInvetarioPOS.sol\":3336:3345  _quantity */\n      dup5\n        /* \"contracts/agregarInvetarioPOS.sol\":3347:3356  msg.value */\n      callvalue\n        /* \"contracts/agregarInvetarioPOS.sol\":3358:3368  msg.sender */\n      caller\n        /* \"contracts/agregarInvetarioPOS.sol\":3293:3369  ProductPurchased(_productId, product.name, _quantity, msg.value, msg.sender) */\n      mload(0x40)\n      tag_133\n      swap6\n      swap5\n      swap4\n      swap3\n      swap2\n      swap1\n      tag_134\n      jump\t// in\n    tag_133:\n      mload(0x40)\n      dup1\n      swap2\n      sub\n      swap1\n      log1\n        /* \"contracts/agregarInvetarioPOS.sol\":2805:3376  {... */\n      pop\n        /* \"contracts/agregarInvetarioPOS.sol\":2726:3376  function purchaseProduct(uint256 _productId, uint256 _quantity) public payable {... */\n      pop\n      pop\n      jump\t// out\n        /* \"contracts/agregarInvetarioPOS.sol\":845:1098  function cambioEstado(uint _id) public {... */\n    tag_54:\n        /* \"contracts/agregarInvetarioPOS.sol\":895:912  Task memory _task */\n      0x00\n        /* \"contracts/agregarInvetarioPOS.sol\":915:920  tasks */\n      0x01\n        /* \"contracts/agregarInvetarioPOS.sol\":915:925  tasks[_id] */\n      0x00\n        /* \"contracts/agregarInvetarioPOS.sol\":921:924  _id */\n      dup4\n        /* \"contracts/agregarInvetarioPOS.sol\":915:925  tasks[_id] */\n      dup2\n      mstore\n      0x20\n      add\n      swap1\n      dup2\n      mstore\n      0x20\n      add\n      0x00\n      keccak256\n        /* \"contracts/agregarInvetarioPOS.sol\":895:925  Task memory _task = tasks[_id] */\n      mload(0x40)\n      dup1\n      0xa0\n      add\n      0x40\n      mstore\n      swap1\n      dup2\n      0x00\n      dup3\n      add\n      sload\n      dup2\n      mstore\n      0x20\n      add\n      0x01\n      dup3\n      add\n      dup1\n      sload\n      tag_136\n      swap1\n      tag_77\n      jump\t// in\n    tag_136:\n      dup1\n      0x1f\n      add\n      0x20\n      dup1\n      swap2\n      div\n      mul\n      0x20\n      add\n      mload(0x40)\n      swap1\n      dup2\n      add\n      0x40\n      mstore\n      dup1\n      swap3\n      swap2\n      swap1\n      dup2\n      dup2\n      mstore\n      0x20\n      add\n      dup3\n      dup1\n      sload\n      tag_137\n      swap1\n      tag_77\n      jump\t// in\n    tag_137:\n      dup1\n      iszero\n      tag_138\n      jumpi\n      dup1\n      0x1f\n      lt\n      tag_139\n      jumpi\n      0x0100\n      dup1\n      dup4\n      sload\n      div\n      mul\n      dup4\n      mstore\n      swap2\n      0x20\n      add\n      swap2\n      jump(tag_138)\n    tag_139:\n      dup3\n      add\n      swap2\n      swap1\n      0x00\n      mstore\n      keccak256(0x00, 0x20)\n      swap1\n    tag_140:\n      dup2\n      sload\n      dup2\n      mstore\n      swap1\n      0x01\n      add\n      swap1\n      0x20\n      add\n      dup1\n      dup4\n      gt\n      tag_140\n      jumpi\n      dup3\n      swap1\n      sub\n      0x1f\n      and\n      dup3\n      add\n      swap2\n    tag_138:\n      pop\n      pop\n      pop\n      pop\n      pop\n      dup2\n      mstore\n      0x20\n      add\n      0x02\n      dup3\n      add\n      dup1\n      sload\n      tag_141\n      swap1\n      tag_77\n      jump\t// in\n    tag_141:\n      dup1\n      0x1f\n      add\n      0x20\n      dup1\n      swap2\n      div\n      mul\n      0x20\n      add\n      mload(0x40)\n      swap1\n      dup2\n      add\n      0x40\n      mstore\n      dup1\n      swap3\n      swap2\n      swap1\n      dup2\n      dup2\n      mstore\n      0x20\n      add\n      dup3\n      dup1\n      sload\n      tag_142\n      swap1\n      tag_77\n      jump\t// in\n    tag_142:\n      dup1\n      iszero\n      tag_143\n      jumpi\n      dup1\n      0x1f\n      lt\n      tag_144\n      jumpi\n      0x0100\n      dup1\n      dup4\n      sload\n      div\n      mul\n      dup4\n      mstore\n      swap2\n      0x20\n      add\n      swap2\n      jump(tag_143)\n    tag_144:\n      dup3\n      add\n      swap2\n      swap1\n      0x00\n      mstore\n      keccak256(0x00, 0x20)\n      swap1\n    tag_145:\n      dup2\n      sload\n      dup2\n      mstore\n      swap1\n      0x01\n      add\n      swap1\n      0x20\n      add\n      dup1\n      dup4\n      gt\n      tag_145\n      jumpi\n      dup3\n      swap1\n      sub\n      0x1f\n      and\n      dup3\n      add\n      swap2\n    tag_143:\n      pop\n      pop\n      pop\n      pop\n      pop\n      dup2\n      mstore\n      0x20\n      add\n      0x03\n      dup3\n      add\n      0x00\n      swap1\n      sload\n      swap1\n      0x0100\n      exp\n      swap1\n      div\n      0xff\n      and\n      iszero\n      iszero\n      iszero\n      iszero\n      dup2\n      mstore\n      0x20\n      add\n      0x04\n      dup3\n      add\n      sload\n      dup2\n      mstore\n      pop\n      pop\n      swap1\n      pop\n        /* \"contracts/agregarInvetarioPOS.sol\":966:971  _task */\n      dup1\n        /* \"contracts/agregarInvetarioPOS.sol\":966:976  _task.done */\n      0x60\n      add\n      mload\n        /* \"contracts/agregarInvetarioPOS.sol\":965:976  !_task.done */\n      iszero\n        /* \"contracts/agregarInvetarioPOS.sol\":952:957  _task */\n      dup2\n        /* \"contracts/agregarInvetarioPOS.sol\":952:962  _task.done */\n      0x60\n      add\n        /* \"contracts/agregarInvetarioPOS.sol\":952:976  _task.done = !_task.done */\n      swap1\n      iszero\n      iszero\n      swap1\n      dup2\n      iszero\n      iszero\n      dup2\n      mstore\n      pop\n      pop\n        /* \"contracts/agregarInvetarioPOS.sol\":1018:1023  _task */\n      dup1\n        /* \"contracts/agregarInvetarioPOS.sol\":1005:1010  tasks */\n      0x01\n        /* \"contracts/agregarInvetarioPOS.sol\":1005:1015  tasks[_id] */\n      0x00\n        /* \"contracts/agregarInvetarioPOS.sol\":1011:1014  _id */\n      dup5\n        /* \"contracts/agregarInvetarioPOS.sol\":1005:1015  tasks[_id] */\n      dup2\n      mstore\n      0x20\n      add\n      swap1\n      dup2\n      mstore\n      0x20\n      add\n      0x00\n      keccak256\n        /* \"contracts/agregarInvetarioPOS.sol\":1005:1023  tasks[_id] = _task */\n      0x00\n      dup3\n      add\n      mload\n      dup2\n      0x00\n      add\n      sstore\n      0x20\n      dup3\n      add\n      mload\n      dup2\n      0x01\n      add\n      swap1\n      dup2\n      tag_146\n      swap2\n      swap1\n      tag_68\n      jump\t// in\n    tag_146:\n      pop\n      0x40\n      dup3\n      add\n      mload\n      dup2\n      0x02\n      add\n      swap1\n      dup2\n      tag_147\n      swap2\n      swap1\n      tag_68\n      jump\t// in\n    tag_147:\n      pop\n      0x60\n      dup3\n      add\n      mload\n      dup2\n      0x03\n      add\n      exp(0x0100, 0x00)\n      dup2\n      sload\n      dup2\n      0xff\n      mul\n      not\n      and\n      swap1\n      dup4\n      iszero\n      iszero\n      mul\n      or\n      swap1\n      sstore\n      pop\n      0x80\n      dup3\n      add\n      mload\n      dup2\n      0x04\n      add\n      sstore\n      swap1\n      pop\n      pop\n        /* \"contracts/agregarInvetarioPOS.sol\":1059:1091  CambioDeMiTarea(_id, _task.done) */\n      0x54cf0d6dc9bb13ae254bd967765b3f04057bb2b7a01ca4207bd72e7f5f32c5cd\n        /* \"contracts/agregarInvetarioPOS.sol\":1075:1078  _id */\n      dup3\n        /* \"contracts/agregarInvetarioPOS.sol\":1080:1085  _task */\n      dup3\n        /* \"contracts/agregarInvetarioPOS.sol\":1080:1090  _task.done */\n      0x60\n      add\n      mload\n        /* \"contracts/agregarInvetarioPOS.sol\":1059:1091  CambioDeMiTarea(_id, _task.done) */\n      mload(0x40)\n      tag_148\n      swap3\n      swap2\n      swap1\n      tag_149\n      jump\t// in\n    tag_148:\n      mload(0x40)\n      dup1\n      swap2\n      sub\n      swap1\n      log1\n        /* \"contracts/agregarInvetarioPOS.sol\":884:1098  {... */\n      pop\n        /* \"contracts/agregarInvetarioPOS.sol\":845:1098  function cambioEstado(uint _id) public {... */\n      pop\n      jump\t// out\n        /* \"contracts/agregarInvetarioPOS.sol\":1186:1213  uint256 public productCount */\n    tag_57:\n      sload(0x03)\n      dup2\n      jump\t// out\n        /* \"contracts/agregarInvetarioPOS.sol\":1908:2720  function addProduct(string memory _name, string memory _description, uint256 _stock, string memory _expirationDate, uint256 _price) public onlyOwner {... */\n    tag_63:\n        /* \"contracts/agregarInvetarioPOS.sol\":1837:1842  owner */\n      0x02\n      0x00\n      swap1\n      sload\n      swap1\n      0x0100\n      exp\n      swap1\n      div\n      0xffffffffffffffffffffffffffffffffffffffff\n      and\n        /* \"contracts/agregarInvetarioPOS.sol\":1823:1842  msg.sender == owner */\n      0xffffffffffffffffffffffffffffffffffffffff\n      and\n        /* \"contracts/agregarInvetarioPOS.sol\":1823:1833  msg.sender */\n      caller\n        /* \"contracts/agregarInvetarioPOS.sol\":1823:1842  msg.sender == owner */\n      0xffffffffffffffffffffffffffffffffffffffff\n      and\n      eq\n        /* \"contracts/agregarInvetarioPOS.sol\":1815:1884  require(msg.sender == owner, \"Only the owner can call this function\") */\n      tag_151\n      jumpi\n      mload(0x40)\n      0x08c379a000000000000000000000000000000000000000000000000000000000\n      dup2\n      mstore\n      0x04\n      add\n      tag_152\n      swap1\n      tag_153\n      jump\t// in\n    tag_152:\n      mload(0x40)\n      dup1\n      swap2\n      sub\n      swap1\n      revert\n    tag_151:\n        /* \"contracts/agregarInvetarioPOS.sol\":2097:2098  0 */\n      0x00\n        /* \"contracts/agregarInvetarioPOS.sol\":2081:2086  _name */\n      dup6\n        /* \"contracts/agregarInvetarioPOS.sol\":2075:2094  bytes(_name).length */\n      mload\n        /* \"contracts/agregarInvetarioPOS.sol\":2075:2098  bytes(_name).length > 0 */\n      gt\n        /* \"contracts/agregarInvetarioPOS.sol\":2067:2131  require(bytes(_name).length > 0, \"Product name cannot be empty\") */\n      tag_155\n      jumpi\n      mload(0x40)\n      0x08c379a000000000000000000000000000000000000000000000000000000000\n      dup2\n      mstore\n      0x04\n      add\n      tag_156\n      swap1\n      tag_157\n      jump\t// in\n    tag_156:\n      mload(0x40)\n      dup1\n      swap2\n      sub\n      swap1\n      revert\n    tag_155:\n        /* \"contracts/agregarInvetarioPOS.sol\":2178:2179  0 */\n      0x00\n        /* \"contracts/agregarInvetarioPOS.sol\":2155:2167  _description */\n      dup5\n        /* \"contracts/agregarInvetarioPOS.sol\":2149:2175  bytes(_description).length */\n      mload\n        /* \"contracts/agregarInvetarioPOS.sol\":2149:2179  bytes(_description).length > 0 */\n      gt\n        /* \"contracts/agregarInvetarioPOS.sol\":2141:2219  require(bytes(_description).length > 0, \"Product description cannot be empty\") */\n      tag_158\n      jumpi\n      mload(0x40)\n      0x08c379a000000000000000000000000000000000000000000000000000000000\n      dup2\n      mstore\n      0x04\n      add\n      tag_159\n      swap1\n      tag_160\n      jump\t// in\n    tag_159:\n      mload(0x40)\n      dup1\n      swap2\n      sub\n      swap1\n      revert\n    tag_158:\n        /* \"contracts/agregarInvetarioPOS.sol\":2246:2247  0 */\n      0x00\n        /* \"contracts/agregarInvetarioPOS.sol\":2237:2243  _stock */\n      dup4\n        /* \"contracts/agregarInvetarioPOS.sol\":2237:2247  _stock > 0 */\n      gt\n        /* \"contracts/agregarInvetarioPOS.sol\":2229:2288  require(_stock > 0, \"Product stock must be greater than 0\") */\n      tag_161\n      jumpi\n      mload(0x40)\n      0x08c379a000000000000000000000000000000000000000000000000000000000\n      dup2\n      mstore\n      0x04\n      add\n      tag_162\n      swap1\n      tag_163\n      jump\t// in\n    tag_162:\n      mload(0x40)\n      dup1\n      swap2\n      sub\n      swap1\n      revert\n    tag_161:\n        /* \"contracts/agregarInvetarioPOS.sol\":2338:2339  0 */\n      0x00\n        /* \"contracts/agregarInvetarioPOS.sol\":2312:2327  _expirationDate */\n      dup3\n        /* \"contracts/agregarInvetarioPOS.sol\":2306:2335  bytes(_expirationDate).length */\n      mload\n        /* \"contracts/agregarInvetarioPOS.sol\":2306:2339  bytes(_expirationDate).length > 0 */\n      gt\n        /* \"contracts/agregarInvetarioPOS.sol\":2298:2383  require(bytes(_expirationDate).length > 0, \"Product expiration date cannot be empty\") */\n      tag_164\n      jumpi\n      mload(0x40)\n      0x08c379a000000000000000000000000000000000000000000000000000000000\n      dup2\n      mstore\n      0x04\n      add\n      tag_165\n      swap1\n      tag_166\n      jump\t// in\n    tag_165:\n      mload(0x40)\n      dup1\n      swap2\n      sub\n      swap1\n      revert\n    tag_164:\n        /* \"contracts/agregarInvetarioPOS.sol\":2411:2412  0 */\n      0x00\n        /* \"contracts/agregarInvetarioPOS.sol\":2401:2407  _price */\n      dup2\n        /* \"contracts/agregarInvetarioPOS.sol\":2401:2412  _price >= 0 */\n      lt\n      iszero\n        /* \"contracts/agregarInvetarioPOS.sol\":2393:2449  require(_price >= 0, \"Product price cannot be negative\") */\n      tag_167\n      jumpi\n      mload(0x40)\n      0x08c379a000000000000000000000000000000000000000000000000000000000\n      dup2\n      mstore\n      0x04\n      add\n      tag_168\n      swap1\n      tag_169\n      jump\t// in\n    tag_168:\n      mload(0x40)\n      dup1\n      swap2\n      sub\n      swap1\n      revert\n    tag_167:\n        /* \"contracts/agregarInvetarioPOS.sol\":2482:2494  productCount */\n      0x03\n      0x00\n        /* \"contracts/agregarInvetarioPOS.sol\":2482:2496  productCount++ */\n      dup2\n      sload\n      dup1\n      swap3\n      swap2\n      swap1\n      tag_170\n      swap1\n      tag_66\n      jump\t// in\n    tag_170:\n      swap2\n      swap1\n      pop\n      sstore\n      pop\n        /* \"contracts/agregarInvetarioPOS.sol\":2531:2606  Product(productCount, _name, _description, _stock, _expirationDate, _price) */\n      mload(0x40)\n      dup1\n      0xc0\n      add\n      0x40\n      mstore\n      dup1\n        /* \"contracts/agregarInvetarioPOS.sol\":2539:2551  productCount */\n      sload(0x03)\n        /* \"contracts/agregarInvetarioPOS.sol\":2531:2606  Product(productCount, _name, _description, _stock, _expirationDate, _price) */\n      dup2\n      mstore\n      0x20\n      add\n        /* \"contracts/agregarInvetarioPOS.sol\":2553:2558  _name */\n      dup7\n        /* \"contracts/agregarInvetarioPOS.sol\":2531:2606  Product(productCount, _name, _description, _stock, _expirationDate, _price) */\n      dup2\n      mstore\n      0x20\n      add\n        /* \"contracts/agregarInvetarioPOS.sol\":2560:2572  _description */\n      dup6\n        /* \"contracts/agregarInvetarioPOS.sol\":2531:2606  Product(productCount, _name, _description, _stock, _expirationDate, _price) */\n      dup2\n      mstore\n      0x20\n      add\n        /* \"contracts/agregarInvetarioPOS.sol\":2574:2580  _stock */\n      dup5\n        /* \"contracts/agregarInvetarioPOS.sol\":2531:2606  Product(productCount, _name, _description, _stock, _expirationDate, _price) */\n      dup2\n      mstore\n      0x20\n      add\n        /* \"contracts/agregarInvetarioPOS.sol\":2582:2597  _expirationDate */\n      dup4\n        /* \"contracts/agregarInvetarioPOS.sol\":2531:2606  Product(productCount, _name, _description, _stock, _expirationDate, _price) */\n      dup2\n      mstore\n      0x20\n      add\n        /* \"contracts/agregarInvetarioPOS.sol\":2599:2605  _price */\n      dup3\n        /* \"contracts/agregarInvetarioPOS.sol\":2531:2606  Product(productCount, _name, _description, _stock, _expirationDate, _price) */\n      dup2\n      mstore\n      pop\n        /* \"contracts/agregarInvetarioPOS.sol\":2506:2514  products */\n      0x04\n        /* \"contracts/agregarInvetarioPOS.sol\":2506:2528  products[productCount] */\n      0x00\n        /* \"contracts/agregarInvetarioPOS.sol\":2515:2527  productCount */\n      sload(0x03)\n        /* \"contracts/agregarInvetarioPOS.sol\":2506:2528  products[productCount] */\n      dup2\n      mstore\n      0x20\n      add\n      swap1\n      dup2\n      mstore\n      0x20\n      add\n      0x00\n      keccak256\n        /* \"contracts/agregarInvetarioPOS.sol\":2506:2606  products[productCount] = Product(productCount, _name, _description, _stock, _expirationDate, _price) */\n      0x00\n      dup3\n      add\n      mload\n      dup2\n      0x00\n      add\n      sstore\n      0x20\n      dup3\n      add\n      mload\n      dup2\n      0x01\n      add\n      swap1\n      dup2\n      tag_171\n      swap2\n      swap1\n      tag_68\n      jump\t// in\n    tag_171:\n      pop\n      0x40\n      dup3\n      add\n      mload\n      dup2\n      0x02\n      add\n      swap1\n      dup2\n      tag_172\n      swap2\n      swap1\n      tag_68\n      jump\t// in\n    tag_172:\n      pop\n      0x60\n      dup3\n      add\n      mload\n      dup2\n      0x03\n      add\n      sstore\n      0x80\n      dup3\n      add\n      mload\n      dup2\n      0x04\n      add\n      swap1\n      dup2\n      tag_173\n      swap2\n      swap1\n      tag_68\n      jump\t// in\n    tag_173:\n      pop\n      0xa0\n      dup3\n      add\n      mload\n      dup2\n      0x05\n      add\n      sstore\n      swap1\n      pop\n      pop\n        /* \"contracts/agregarInvetarioPOS.sol\":2621:2713  ProductAdded(productCount, _name, _description, _stock, _expirationDate, _price, msg.sender) */\n      0x5b97192fbdac5f86e3c2357b10ae099eb30b9263a92be777b80f46d3c59c8648\n        /* \"contracts/agregarInvetarioPOS.sol\":2634:2646  productCount */\n      sload(0x03)\n        /* \"contracts/agregarInvetarioPOS.sol\":2648:2653  _name */\n      dup7\n        /* \"contracts/agregarInvetarioPOS.sol\":2655:2667  _description */\n      dup7\n        /* \"contracts/agregarInvetarioPOS.sol\":2669:2675  _stock */\n      dup7\n        /* \"contracts/agregarInvetarioPOS.sol\":2677:2692  _expirationDate */\n      dup7\n        /* \"contracts/agregarInvetarioPOS.sol\":2694:2700  _price */\n      dup7\n        /* \"contracts/agregarInvetarioPOS.sol\":2702:2712  msg.sender */\n      caller\n        /* \"contracts/agregarInvetarioPOS.sol\":2621:2713  ProductAdded(productCount, _name, _description, _stock, _expirationDate, _price, msg.sender) */\n      mload(0x40)\n      tag_174\n      swap8\n      swap7\n      swap6\n      swap5\n      swap4\n      swap3\n      swap2\n      swap1\n      tag_175\n      jump\t// in\n    tag_174:\n      mload(0x40)\n      dup1\n      swap2\n      sub\n      swap1\n      log1\n        /* \"contracts/agregarInvetarioPOS.sol\":1908:2720  function addProduct(string memory _name, string memory _description, uint256 _stock, string memory _expirationDate, uint256 _price) public onlyOwner {... */\n      pop\n      pop\n      pop\n      pop\n      pop\n      jump\t// out\n        /* \"#utility.yul\":7:82   */\n    tag_176:\n        /* \"#utility.yul\":40:46   */\n      0x00\n        /* \"#utility.yul\":73:75   */\n      0x40\n        /* \"#utility.yul\":67:76   */\n      mload\n        /* \"#utility.yul\":57:76   */\n      swap1\n      pop\n        /* \"#utility.yul\":7:82   */\n      swap1\n      jump\t// out\n        /* \"#utility.yul\":88:205   */\n    tag_177:\n        /* \"#utility.yul\":197:198   */\n      0x00\n        /* \"#utility.yul\":194:195   */\n      dup1\n        /* \"#utility.yul\":187:199   */\n      revert\n        /* \"#utility.yul\":211:328   */\n    tag_178:\n        /* \"#utility.yul\":320:321   */\n      0x00\n        /* \"#utility.yul\":317:318   */\n      dup1\n        /* \"#utility.yul\":310:322   */\n      revert\n        /* \"#utility.yul\":334:451   */\n    tag_179:\n        /* \"#utility.yul\":443:444   */\n      0x00\n        /* \"#utility.yul\":440:441   */\n      dup1\n        /* \"#utility.yul\":433:445   */\n      revert\n        /* \"#utility.yul\":457:574   */\n    tag_180:\n        /* \"#utility.yul\":566:567   */\n      0x00\n        /* \"#utility.yul\":563:564   */\n      dup1\n        /* \"#utility.yul\":556:568   */\n      revert\n        /* \"#utility.yul\":580:682   */\n    tag_181:\n        /* \"#utility.yul\":621:627   */\n      0x00\n        /* \"#utility.yul\":672:674   */\n      0x1f\n        /* \"#utility.yul\":668:675   */\n      not\n        /* \"#utility.yul\":663:665   */\n      0x1f\n        /* \"#utility.yul\":656:661   */\n      dup4\n        /* \"#utility.yul\":652:666   */\n      add\n        /* \"#utility.yul\":648:676   */\n      and\n        /* \"#utility.yul\":638:676   */\n      swap1\n      pop\n        /* \"#utility.yul\":580:682   */\n      swap2\n      swap1\n      pop\n      jump\t// out\n        /* \"#utility.yul\":688:868   */\n    tag_182:\n        /* \"#utility.yul\":736:813   */\n      0x4e487b7100000000000000000000000000000000000000000000000000000000\n        /* \"#utility.yul\":733:734   */\n      0x00\n        /* \"#utility.yul\":726:814   */\n      mstore\n        /* \"#utility.yul\":833:837   */\n      0x41\n        /* \"#utility.yul\":830:831   */\n      0x04\n        /* \"#utility.yul\":823:838   */\n      mstore\n        /* \"#utility.yul\":857:861   */\n      0x24\n        /* \"#utility.yul\":854:855   */\n      0x00\n        /* \"#utility.yul\":847:862   */\n      revert\n        /* \"#utility.yul\":874:1155   */\n    tag_183:\n        /* \"#utility.yul\":957:984   */\n      tag_247\n        /* \"#utility.yul\":979:983   */\n      dup3\n        /* \"#utility.yul\":957:984   */\n      tag_181\n      jump\t// in\n    tag_247:\n        /* \"#utility.yul\":949:955   */\n      dup2\n        /* \"#utility.yul\":945:985   */\n      add\n        /* \"#utility.yul\":1087:1093   */\n      dup2\n        /* \"#utility.yul\":1075:1085   */\n      dup2\n        /* \"#utility.yul\":1072:1094   */\n      lt\n        /* \"#utility.yul\":1051:1069   */\n      0xffffffffffffffff\n        /* \"#utility.yul\":1039:1049   */\n      dup3\n        /* \"#utility.yul\":1036:1070   */\n      gt\n        /* \"#utility.yul\":1033:1095   */\n      or\n        /* \"#utility.yul\":1030:1118   */\n      iszero\n      tag_248\n      jumpi\n        /* \"#utility.yul\":1098:1116   */\n      tag_249\n      tag_182\n      jump\t// in\n    tag_249:\n        /* \"#utility.yul\":1030:1118   */\n    tag_248:\n        /* \"#utility.yul\":1138:1148   */\n      dup1\n        /* \"#utility.yul\":1134:1136   */\n      0x40\n        /* \"#utility.yul\":1127:1149   */\n      mstore\n        /* \"#utility.yul\":917:1155   */\n      pop\n        /* \"#utility.yul\":874:1155   */\n      pop\n      pop\n      jump\t// out\n        /* \"#utility.yul\":1161:1290   */\n    tag_184:\n        /* \"#utility.yul\":1195:1201   */\n      0x00\n        /* \"#utility.yul\":1222:1242   */\n      tag_251\n      tag_176\n      jump\t// in\n    tag_251:\n        /* \"#utility.yul\":1212:1242   */\n      swap1\n      pop\n        /* \"#utility.yul\":1251:1284   */\n      tag_252\n        /* \"#utility.yul\":1279:1283   */\n      dup3\n        /* \"#utility.yul\":1271:1277   */\n      dup3\n        /* \"#utility.yul\":1251:1284   */\n      tag_183\n      jump\t// in\n    tag_252:\n        /* \"#utility.yul\":1161:1290   */\n      swap2\n      swap1\n      pop\n      jump\t// out\n        /* \"#utility.yul\":1296:1604   */\n    tag_185:\n        /* \"#utility.yul\":1358:1362   */\n      0x00\n        /* \"#utility.yul\":1448:1466   */\n      0xffffffffffffffff\n        /* \"#utility.yul\":1440:1446   */\n      dup3\n        /* \"#utility.yul\":1437:1467   */\n      gt\n        /* \"#utility.yul\":1434:1490   */\n      iszero\n      tag_254\n      jumpi\n        /* \"#utility.yul\":1470:1488   */\n      tag_255\n      tag_182\n      jump\t// in\n    tag_255:\n        /* \"#utility.yul\":1434:1490   */\n    tag_254:\n        /* \"#utility.yul\":1508:1537   */\n      tag_256\n        /* \"#utility.yul\":1530:1536   */\n      dup3\n        /* \"#utility.yul\":1508:1537   */\n      tag_181\n      jump\t// in\n    tag_256:\n        /* \"#utility.yul\":1500:1537   */\n      swap1\n      pop\n        /* \"#utility.yul\":1592:1596   */\n      0x20\n        /* \"#utility.yul\":1586:1590   */\n      dup2\n        /* \"#utility.yul\":1582:1597   */\n      add\n        /* \"#utility.yul\":1574:1597   */\n      swap1\n      pop\n        /* \"#utility.yul\":1296:1604   */\n      swap2\n      swap1\n      pop\n      jump\t// out\n        /* \"#utility.yul\":1610:1756   */\n    tag_186:\n        /* \"#utility.yul\":1707:1713   */\n      dup3\n        /* \"#utility.yul\":1702:1705   */\n      dup2\n        /* \"#utility.yul\":1697:1700   */\n      dup4\n        /* \"#utility.yul\":1684:1714   */\n      calldatacopy\n        /* \"#utility.yul\":1748:1749   */\n      0x00\n        /* \"#utility.yul\":1739:1745   */\n      dup4\n        /* \"#utility.yul\":1734:1737   */\n      dup4\n        /* \"#utility.yul\":1730:1746   */\n      add\n        /* \"#utility.yul\":1723:1750   */\n      mstore\n        /* \"#utility.yul\":1610:1756   */\n      pop\n      pop\n      pop\n      jump\t// out\n        /* \"#utility.yul\":1762:2187   */\n    tag_187:\n        /* \"#utility.yul\":1840:1845   */\n      0x00\n        /* \"#utility.yul\":1865:1931   */\n      tag_259\n        /* \"#utility.yul\":1881:1930   */\n      tag_260\n        /* \"#utility.yul\":1923:1929   */\n      dup5\n        /* \"#utility.yul\":1881:1930   */\n      tag_185\n      jump\t// in\n    tag_260:\n        /* \"#utility.yul\":1865:1931   */\n      tag_184\n      jump\t// in\n    tag_259:\n        /* \"#utility.yul\":1856:1931   */\n      swap1\n      pop\n        /* \"#utility.yul\":1954:1960   */\n      dup3\n        /* \"#utility.yul\":1947:1952   */\n      dup2\n        /* \"#utility.yul\":1940:1961   */\n      mstore\n        /* \"#utility.yul\":1992:1996   */\n      0x20\n        /* \"#utility.yul\":1985:1990   */\n      dup2\n        /* \"#utility.yul\":1981:1997   */\n      add\n        /* \"#utility.yul\":2030:2033   */\n      dup5\n        /* \"#utility.yul\":2021:2027   */\n      dup5\n        /* \"#utility.yul\":2016:2019   */\n      dup5\n        /* \"#utility.yul\":2012:2028   */\n      add\n        /* \"#utility.yul\":2009:2034   */\n      gt\n        /* \"#utility.yul\":2006:2118   */\n      iszero\n      tag_261\n      jumpi\n        /* \"#utility.yul\":2037:2116   */\n      tag_262\n      tag_180\n      jump\t// in\n    tag_262:\n        /* \"#utility.yul\":2006:2118   */\n    tag_261:\n        /* \"#utility.yul\":2127:2181   */\n      tag_263\n        /* \"#utility.yul\":2174:2180   */\n      dup5\n        /* \"#utility.yul\":2169:2172   */\n      dup3\n        /* \"#utility.yul\":2164:2167   */\n      dup6\n        /* \"#utility.yul\":2127:2181   */\n      tag_186\n      jump\t// in\n    tag_263:\n        /* \"#utility.yul\":1846:2187   */\n      pop\n        /* \"#utility.yul\":1762:2187   */\n      swap4\n      swap3\n      pop\n      pop\n      pop\n      jump\t// out\n        /* \"#utility.yul\":2207:2547   */\n    tag_188:\n        /* \"#utility.yul\":2263:2268   */\n      0x00\n        /* \"#utility.yul\":2312:2315   */\n      dup3\n        /* \"#utility.yul\":2305:2309   */\n      0x1f\n        /* \"#utility.yul\":2297:2303   */\n      dup4\n        /* \"#utility.yul\":2293:2310   */\n      add\n        /* \"#utility.yul\":2289:2316   */\n      slt\n        /* \"#utility.yul\":2279:2401   */\n      tag_265\n      jumpi\n        /* \"#utility.yul\":2320:2399   */\n      tag_266\n      tag_179\n      jump\t// in\n    tag_266:\n        /* \"#utility.yul\":2279:2401   */\n    tag_265:\n        /* \"#utility.yul\":2437:2443   */\n      dup2\n        /* \"#utility.yul\":2424:2444   */\n      calldataload\n        /* \"#utility.yul\":2462:2541   */\n      tag_267\n        /* \"#utility.yul\":2537:2540   */\n      dup5\n        /* \"#utility.yul\":2529:2535   */\n      dup3\n        /* \"#utility.yul\":2522:2526   */\n      0x20\n        /* \"#utility.yul\":2514:2520   */\n      dup7\n        /* \"#utility.yul\":2510:2527   */\n      add\n        /* \"#utility.yul\":2462:2541   */\n      tag_187\n      jump\t// in\n    tag_267:\n        /* \"#utility.yul\":2453:2541   */\n      swap2\n      pop\n        /* \"#utility.yul\":2269:2547   */\n      pop\n        /* \"#utility.yul\":2207:2547   */\n      swap3\n      swap2\n      pop\n      pop\n      jump\t// out\n        /* \"#utility.yul\":2553:3387   */\n    tag_16:\n        /* \"#utility.yul\":2641:2647   */\n      0x00\n        /* \"#utility.yul\":2649:2655   */\n      dup1\n        /* \"#utility.yul\":2698:2700   */\n      0x40\n        /* \"#utility.yul\":2686:2695   */\n      dup4\n        /* \"#utility.yul\":2677:2684   */\n      dup6\n        /* \"#utility.yul\":2673:2696   */\n      sub\n        /* \"#utility.yul\":2669:2701   */\n      slt\n        /* \"#utility.yul\":2666:2785   */\n      iszero\n      tag_269\n      jumpi\n        /* \"#utility.yul\":2704:2783   */\n      tag_270\n      tag_177\n      jump\t// in\n    tag_270:\n        /* \"#utility.yul\":2666:2785   */\n    tag_269:\n        /* \"#utility.yul\":2852:2853   */\n      0x00\n        /* \"#utility.yul\":2841:2850   */\n      dup4\n        /* \"#utility.yul\":2837:2854   */\n      add\n        /* \"#utility.yul\":2824:2855   */\n      calldataload\n        /* \"#utility.yul\":2882:2900   */\n      0xffffffffffffffff\n        /* \"#utility.yul\":2874:2880   */\n      dup2\n        /* \"#utility.yul\":2871:2901   */\n      gt\n        /* \"#utility.yul\":2868:2985   */\n      iszero\n      tag_271\n      jumpi\n        /* \"#utility.yul\":2904:2983   */\n      tag_272\n      tag_178\n      jump\t// in\n    tag_272:\n        /* \"#utility.yul\":2868:2985   */\n    tag_271:\n        /* \"#utility.yul\":3009:3072   */\n      tag_273\n        /* \"#utility.yul\":3064:3071   */\n      dup6\n        /* \"#utility.yul\":3055:3061   */\n      dup3\n        /* \"#utility.yul\":3044:3053   */\n      dup7\n        /* \"#utility.yul\":3040:3062   */\n      add\n        /* \"#utility.yul\":3009:3072   */\n      tag_188\n      jump\t// in\n    tag_273:\n        /* \"#utility.yul\":2999:3072   */\n      swap3\n      pop\n        /* \"#utility.yul\":2795:3082   */\n      pop\n        /* \"#utility.yul\":3149:3151   */\n      0x20\n        /* \"#utility.yul\":3138:3147   */\n      dup4\n        /* \"#utility.yul\":3134:3152   */\n      add\n        /* \"#utility.yul\":3121:3153   */\n      calldataload\n        /* \"#utility.yul\":3180:3198   */\n      0xffffffffffffffff\n        /* \"#utility.yul\":3172:3178   */\n      dup2\n        /* \"#utility.yul\":3169:3199   */\n      gt\n        /* \"#utility.yul\":3166:3283   */\n      iszero\n      tag_274\n      jumpi\n        /* \"#utility.yul\":3202:3281   */\n      tag_275\n      tag_178\n      jump\t// in\n    tag_275:\n        /* \"#utility.yul\":3166:3283   */\n    tag_274:\n        /* \"#utility.yul\":3307:3370   */\n      tag_276\n        /* \"#utility.yul\":3362:3369   */\n      dup6\n        /* \"#utility.yul\":3353:3359   */\n      dup3\n        /* \"#utility.yul\":3342:3351   */\n      dup7\n        /* \"#utility.yul\":3338:3360   */\n      add\n        /* \"#utility.yul\":3307:3370   */\n      tag_188\n      jump\t// in\n    tag_276:\n        /* \"#utility.yul\":3297:3370   */\n      swap2\n      pop\n        /* \"#utility.yul\":3092:3380   */\n      pop\n        /* \"#utility.yul\":2553:3387   */\n      swap3\n      pop\n      swap3\n      swap1\n      pop\n      jump\t// out\n        /* \"#utility.yul\":3393:3470   */\n    tag_189:\n        /* \"#utility.yul\":3430:3437   */\n      0x00\n        /* \"#utility.yul\":3459:3464   */\n      dup2\n        /* \"#utility.yul\":3448:3464   */\n      swap1\n      pop\n        /* \"#utility.yul\":3393:3470   */\n      swap2\n      swap1\n      pop\n      jump\t// out\n        /* \"#utility.yul\":3476:3594   */\n    tag_190:\n        /* \"#utility.yul\":3563:3587   */\n      tag_279\n        /* \"#utility.yul\":3581:3586   */\n      dup2\n        /* \"#utility.yul\":3563:3587   */\n      tag_189\n      jump\t// in\n    tag_279:\n        /* \"#utility.yul\":3558:3561   */\n      dup3\n        /* \"#utility.yul\":3551:3588   */\n      mstore\n        /* \"#utility.yul\":3476:3594   */\n      pop\n      pop\n      jump\t// out\n        /* \"#utility.yul\":3600:3822   */\n    tag_22:\n        /* \"#utility.yul\":3693:3697   */\n      0x00\n        /* \"#utility.yul\":3731:3733   */\n      0x20\n        /* \"#utility.yul\":3720:3729   */\n      dup3\n        /* \"#utility.yul\":3716:3734   */\n      add\n        /* \"#utility.yul\":3708:3734   */\n      swap1\n      pop\n        /* \"#utility.yul\":3744:3815   */\n      tag_281\n        /* \"#utility.yul\":3812:3813   */\n      0x00\n        /* \"#utility.yul\":3801:3810   */\n      dup4\n        /* \"#utility.yul\":3797:3814   */\n      add\n        /* \"#utility.yul\":3788:3794   */\n      dup5\n        /* \"#utility.yul\":3744:3815   */\n      tag_190\n      jump\t// in\n    tag_281:\n        /* \"#utility.yul\":3600:3822   */\n      swap3\n      swap2\n      pop\n      pop\n      jump\t// out\n        /* \"#utility.yul\":3828:3950   */\n    tag_191:\n        /* \"#utility.yul\":3901:3925   */\n      tag_283\n        /* \"#utility.yul\":3919:3924   */\n      dup2\n        /* \"#utility.yul\":3901:3925   */\n      tag_189\n      jump\t// in\n    tag_283:\n        /* \"#utility.yul\":3894:3899   */\n      dup2\n        /* \"#utility.yul\":3891:3926   */\n      eq\n        /* \"#utility.yul\":3881:3944   */\n      tag_284\n      jumpi\n        /* \"#utility.yul\":3940:3941   */\n      0x00\n        /* \"#utility.yul\":3937:3938   */\n      dup1\n        /* \"#utility.yul\":3930:3942   */\n      revert\n        /* \"#utility.yul\":3881:3944   */\n    tag_284:\n        /* \"#utility.yul\":3828:3950   */\n      pop\n      jump\t// out\n        /* \"#utility.yul\":3956:4095   */\n    tag_192:\n        /* \"#utility.yul\":4002:4007   */\n      0x00\n        /* \"#utility.yul\":4040:4046   */\n      dup2\n        /* \"#utility.yul\":4027:4047   */\n      calldataload\n        /* \"#utility.yul\":4018:4047   */\n      swap1\n      pop\n        /* \"#utility.yul\":4056:4089   */\n      tag_286\n        /* \"#utility.yul\":4083:4088   */\n      dup2\n        /* \"#utility.yul\":4056:4089   */\n      tag_191\n      jump\t// in\n    tag_286:\n        /* \"#utility.yul\":3956:4095   */\n      swap3\n      swap2\n      pop\n      pop\n      jump\t// out\n        /* \"#utility.yul\":4101:4430   */\n    tag_26:\n        /* \"#utility.yul\":4160:4166   */\n      0x00\n        /* \"#utility.yul\":4209:4211   */\n      0x20\n        /* \"#utility.yul\":4197:4206   */\n      dup3\n        /* \"#utility.yul\":4188:4195   */\n      dup5\n        /* \"#utility.yul\":4184:4207   */\n      sub\n        /* \"#utility.yul\":4180:4212   */\n      slt\n        /* \"#utility.yul\":4177:4296   */\n      iszero\n      tag_288\n      jumpi\n        /* \"#utility.yul\":4215:4294   */\n      tag_289\n      tag_177\n      jump\t// in\n    tag_289:\n        /* \"#utility.yul\":4177:4296   */\n    tag_288:\n        /* \"#utility.yul\":4335:4336   */\n      0x00\n        /* \"#utility.yul\":4360:4413   */\n      tag_290\n        /* \"#utility.yul\":4405:4412   */\n      dup5\n        /* \"#utility.yul\":4396:4402   */\n      dup3\n        /* \"#utility.yul\":4385:4394   */\n      dup6\n        /* \"#utility.yul\":4381:4403   */\n      add\n        /* \"#utility.yul\":4360:4413   */\n      tag_192\n      jump\t// in\n    tag_290:\n        /* \"#utility.yul\":4350:4413   */\n      swap2\n      pop\n        /* \"#utility.yul\":4306:4423   */\n      pop\n        /* \"#utility.yul\":4101:4430   */\n      swap3\n      swap2\n      pop\n      pop\n      jump\t// out\n        /* \"#utility.yul\":4436:4535   */\n    tag_193:\n        /* \"#utility.yul\":4488:4494   */\n      0x00\n        /* \"#utility.yul\":4522:4527   */\n      dup2\n        /* \"#utility.yul\":4516:4528   */\n      mload\n        /* \"#utility.yul\":4506:4528   */\n      swap1\n      pop\n        /* \"#utility.yul\":4436:4535   */\n      swap2\n      swap1\n      pop\n      jump\t// out\n        /* \"#utility.yul\":4541:4710   */\n    tag_194:\n        /* \"#utility.yul\":4625:4636   */\n      0x00\n        /* \"#utility.yul\":4659:4665   */\n      dup3\n        /* \"#utility.yul\":4654:4657   */\n      dup3\n        /* \"#utility.yul\":4647:4666   */\n      mstore\n        /* \"#utility.yul\":4699:4703   */\n      0x20\n        /* \"#utility.yul\":4694:4697   */\n      dup3\n        /* \"#utility.yul\":4690:4704   */\n      add\n        /* \"#utility.yul\":4675:4704   */\n      swap1\n      pop\n        /* \"#utility.yul\":4541:4710   */\n      swap3\n      swap2\n      pop\n      pop\n      jump\t// out\n        /* \"#utility.yul\":4716:4962   */\n    tag_195:\n        /* \"#utility.yul\":4797:4798   */\n      0x00\n        /* \"#utility.yul\":4807:4920   */\n    tag_294:\n        /* \"#utility.yul\":4821:4827   */\n      dup4\n        /* \"#utility.yul\":4818:4819   */\n      dup2\n        /* \"#utility.yul\":4815:4828   */\n      lt\n        /* \"#utility.yul\":4807:4920   */\n      iszero\n      tag_296\n      jumpi\n        /* \"#utility.yul\":4906:4907   */\n      dup1\n        /* \"#utility.yul\":4901:4904   */\n      dup3\n        /* \"#utility.yul\":4897:4908   */\n      add\n        /* \"#utility.yul\":4891:4909   */\n      mload\n        /* \"#utility.yul\":4887:4888   */\n      dup2\n        /* \"#utility.yul\":4882:4885   */\n      dup5\n        /* \"#utility.yul\":4878:4889   */\n      add\n        /* \"#utility.yul\":4871:4910   */\n      mstore\n        /* \"#utility.yul\":4843:4845   */\n      0x20\n        /* \"#utility.yul\":4840:4841   */\n      dup2\n        /* \"#utility.yul\":4836:4846   */\n      add\n        /* \"#utility.yul\":4831:4846   */\n      swap1\n      pop\n        /* \"#utility.yul\":4807:4920   */\n      jump(tag_294)\n    tag_296:\n        /* \"#utility.yul\":4954:4955   */\n      0x00\n        /* \"#utility.yul\":4945:4951   */\n      dup5\n        /* \"#utility.yul\":4940:4943   */\n      dup5\n        /* \"#utility.yul\":4936:4952   */\n      add\n        /* \"#utility.yul\":4929:4956   */\n      mstore\n        /* \"#utility.yul\":4778:4962   */\n      pop\n        /* \"#utility.yul\":4716:4962   */\n      pop\n      pop\n      pop\n      jump\t// out\n        /* \"#utility.yul\":4968:5345   */\n    tag_196:\n        /* \"#utility.yul\":5056:5059   */\n      0x00\n        /* \"#utility.yul\":5084:5123   */\n      tag_298\n        /* \"#utility.yul\":5117:5122   */\n      dup3\n        /* \"#utility.yul\":5084:5123   */\n      tag_193\n      jump\t// in\n    tag_298:\n        /* \"#utility.yul\":5139:5210   */\n      tag_299\n        /* \"#utility.yul\":5203:5209   */\n      dup2\n        /* \"#utility.yul\":5198:5201   */\n      dup6\n        /* \"#utility.yul\":5139:5210   */\n      tag_194\n      jump\t// in\n    tag_299:\n        /* \"#utility.yul\":5132:5210   */\n      swap4\n      pop\n        /* \"#utility.yul\":5219:5284   */\n      tag_300\n        /* \"#utility.yul\":5277:5283   */\n      dup2\n        /* \"#utility.yul\":5272:5275   */\n      dup6\n        /* \"#utility.yul\":5265:5269   */\n      0x20\n        /* \"#utility.yul\":5258:5263   */\n      dup7\n        /* \"#utility.yul\":5254:5270   */\n      add\n        /* \"#utility.yul\":5219:5284   */\n      tag_195\n      jump\t// in\n    tag_300:\n        /* \"#utility.yul\":5309:5338   */\n      tag_301\n        /* \"#utility.yul\":5331:5337   */\n      dup2\n        /* \"#utility.yul\":5309:5338   */\n      tag_181\n      jump\t// in\n    tag_301:\n        /* \"#utility.yul\":5304:5307   */\n      dup5\n        /* \"#utility.yul\":5300:5339   */\n      add\n        /* \"#utility.yul\":5293:5339   */\n      swap2\n      pop\n        /* \"#utility.yul\":5060:5345   */\n      pop\n        /* \"#utility.yul\":4968:5345   */\n      swap3\n      swap2\n      pop\n      pop\n      jump\t// out\n        /* \"#utility.yul\":5351:6288   */\n    tag_29:\n        /* \"#utility.yul\":5616:5620   */\n      0x00\n        /* \"#utility.yul\":5654:5657   */\n      0xa0\n        /* \"#utility.yul\":5643:5652   */\n      dup3\n        /* \"#utility.yul\":5639:5658   */\n      add\n        /* \"#utility.yul\":5631:5658   */\n      swap1\n      pop\n        /* \"#utility.yul\":5704:5713   */\n      dup2\n        /* \"#utility.yul\":5698:5702   */\n      dup2\n        /* \"#utility.yul\":5694:5714   */\n      sub\n        /* \"#utility.yul\":5690:5691   */\n      0x00\n        /* \"#utility.yul\":5679:5688   */\n      dup4\n        /* \"#utility.yul\":5675:5692   */\n      add\n        /* \"#utility.yul\":5668:5715   */\n      mstore\n        /* \"#utility.yul\":5732:5810   */\n      tag_303\n        /* \"#utility.yul\":5805:5809   */\n      dup2\n        /* \"#utility.yul\":5796:5802   */\n      dup9\n        /* \"#utility.yul\":5732:5810   */\n      tag_196\n      jump\t// in\n    tag_303:\n        /* \"#utility.yul\":5724:5810   */\n      swap1\n      pop\n        /* \"#utility.yul\":5857:5866   */\n      dup2\n        /* \"#utility.yul\":5851:5855   */\n      dup2\n        /* \"#utility.yul\":5847:5867   */\n      sub\n        /* \"#utility.yul\":5842:5844   */\n      0x20\n        /* \"#utility.yul\":5831:5840   */\n      dup4\n        /* \"#utility.yul\":5827:5845   */\n      add\n        /* \"#utility.yul\":5820:5868   */\n      mstore\n        /* \"#utility.yul\":5885:5963   */\n      tag_304\n        /* \"#utility.yul\":5958:5962   */\n      dup2\n        /* \"#utility.yul\":5949:5955   */\n      dup8\n        /* \"#utility.yul\":5885:5963   */\n      tag_196\n      jump\t// in\n    tag_304:\n        /* \"#utility.yul\":5877:5963   */\n      swap1\n      pop\n        /* \"#utility.yul\":5973:6045   */\n      tag_305\n        /* \"#utility.yul\":6041:6043   */\n      0x40\n        /* \"#utility.yul\":6030:6039   */\n      dup4\n        /* \"#utility.yul\":6026:6044   */\n      add\n        /* \"#utility.yul\":6017:6023   */\n      dup7\n        /* \"#utility.yul\":5973:6045   */\n      tag_190\n      jump\t// in\n    tag_305:\n        /* \"#utility.yul\":6092:6101   */\n      dup2\n        /* \"#utility.yul\":6086:6090   */\n      dup2\n        /* \"#utility.yul\":6082:6102   */\n      sub\n        /* \"#utility.yul\":6077:6079   */\n      0x60\n        /* \"#utility.yul\":6066:6075   */\n      dup4\n        /* \"#utility.yul\":6062:6080   */\n      add\n        /* \"#utility.yul\":6055:6103   */\n      mstore\n        /* \"#utility.yul\":6120:6198   */\n      tag_306\n        /* \"#utility.yul\":6193:6197   */\n      dup2\n        /* \"#utility.yul\":6184:6190   */\n      dup6\n        /* \"#utility.yul\":6120:6198   */\n      tag_196\n      jump\t// in\n    tag_306:\n        /* \"#utility.yul\":6112:6198   */\n      swap1\n      pop\n        /* \"#utility.yul\":6208:6281   */\n      tag_307\n        /* \"#utility.yul\":6276:6279   */\n      0x80\n        /* \"#utility.yul\":6265:6274   */\n      dup4\n        /* \"#utility.yul\":6261:6280   */\n      add\n        /* \"#utility.yul\":6252:6258   */\n      dup5\n        /* \"#utility.yul\":6208:6281   */\n      tag_190\n      jump\t// in\n    tag_307:\n        /* \"#utility.yul\":5351:6288   */\n      swap7\n      swap6\n      pop\n      pop\n      pop\n      pop\n      pop\n      pop\n      jump\t// out\n        /* \"#utility.yul\":6294:7342   */\n    tag_35:\n        /* \"#utility.yul\":6587:6591   */\n      0x00\n        /* \"#utility.yul\":6625:6628   */\n      0xc0\n        /* \"#utility.yul\":6614:6623   */\n      dup3\n        /* \"#utility.yul\":6610:6629   */\n      add\n        /* \"#utility.yul\":6602:6629   */\n      swap1\n      pop\n        /* \"#utility.yul\":6639:6710   */\n      tag_309\n        /* \"#utility.yul\":6707:6708   */\n      0x00\n        /* \"#utility.yul\":6696:6705   */\n      dup4\n        /* \"#utility.yul\":6692:6709   */\n      add\n        /* \"#utility.yul\":6683:6689   */\n      dup10\n        /* \"#utility.yul\":6639:6710   */\n      tag_190\n      jump\t// in\n    tag_309:\n        /* \"#utility.yul\":6757:6766   */\n      dup2\n        /* \"#utility.yul\":6751:6755   */\n      dup2\n        /* \"#utility.yul\":6747:6767   */\n      sub\n        /* \"#utility.yul\":6742:6744   */\n      0x20\n        /* \"#utility.yul\":6731:6740   */\n      dup4\n        /* \"#utility.yul\":6727:6745   */\n      add\n        /* \"#utility.yul\":6720:6768   */\n      mstore\n        /* \"#utility.yul\":6785:6863   */\n      tag_310\n        /* \"#utility.yul\":6858:6862   */\n      dup2\n        /* \"#utility.yul\":6849:6855   */\n      dup9\n        /* \"#utility.yul\":6785:6863   */\n      tag_196\n      jump\t// in\n    tag_310:\n        /* \"#utility.yul\":6777:6863   */\n      swap1\n      pop\n        /* \"#utility.yul\":6910:6919   */\n      dup2\n        /* \"#utility.yul\":6904:6908   */\n      dup2\n        /* \"#utility.yul\":6900:6920   */\n      sub\n        /* \"#utility.yul\":6895:6897   */\n      0x40\n        /* \"#utility.yul\":6884:6893   */\n      dup4\n        /* \"#utility.yul\":6880:6898   */\n      add\n        /* \"#utility.yul\":6873:6921   */\n      mstore\n        /* \"#utility.yul\":6938:7016   */\n      tag_311\n        /* \"#utility.yul\":7011:7015   */\n      dup2\n        /* \"#utility.yul\":7002:7008   */\n      dup8\n        /* \"#utility.yul\":6938:7016   */\n      tag_196\n      jump\t// in\n    tag_311:\n        /* \"#utility.yul\":6930:7016   */\n      swap1\n      pop\n        /* \"#utility.yul\":7026:7098   */\n      tag_312\n        /* \"#utility.yul\":7094:7096   */\n      0x60\n        /* \"#utility.yul\":7083:7092   */\n      dup4\n        /* \"#utility.yul\":7079:7097   */\n      add\n        /* \"#utility.yul\":7070:7076   */\n      dup7\n        /* \"#utility.yul\":7026:7098   */\n      tag_190\n      jump\t// in\n    tag_312:\n        /* \"#utility.yul\":7146:7155   */\n      dup2\n        /* \"#utility.yul\":7140:7144   */\n      dup2\n        /* \"#utility.yul\":7136:7156   */\n      sub\n        /* \"#utility.yul\":7130:7133   */\n      0x80\n        /* \"#utility.yul\":7119:7128   */\n      dup4\n        /* \"#utility.yul\":7115:7134   */\n      add\n        /* \"#utility.yul\":7108:7157   */\n      mstore\n        /* \"#utility.yul\":7174:7252   */\n      tag_313\n        /* \"#utility.yul\":7247:7251   */\n      dup2\n        /* \"#utility.yul\":7238:7244   */\n      dup6\n        /* \"#utility.yul\":7174:7252   */\n      tag_196\n      jump\t// in\n    tag_313:\n        /* \"#utility.yul\":7166:7252   */\n      swap1\n      pop\n        /* \"#utility.yul\":7262:7335   */\n      tag_314\n        /* \"#utility.yul\":7330:7333   */\n      0xa0\n        /* \"#utility.yul\":7319:7328   */\n      dup4\n        /* \"#utility.yul\":7315:7334   */\n      add\n        /* \"#utility.yul\":7306:7312   */\n      dup5\n        /* \"#utility.yul\":7262:7335   */\n      tag_190\n      jump\t// in\n    tag_314:\n        /* \"#utility.yul\":6294:7342   */\n      swap8\n      swap7\n      pop\n      pop\n      pop\n      pop\n      pop\n      pop\n      pop\n      jump\t// out\n        /* \"#utility.yul\":7348:7438   */\n    tag_197:\n        /* \"#utility.yul\":7382:7389   */\n      0x00\n        /* \"#utility.yul\":7425:7430   */\n      dup2\n        /* \"#utility.yul\":7418:7431   */\n      iszero\n        /* \"#utility.yul\":7411:7432   */\n      iszero\n        /* \"#utility.yul\":7400:7432   */\n      swap1\n      pop\n        /* \"#utility.yul\":7348:7438   */\n      swap2\n      swap1\n      pop\n      jump\t// out\n        /* \"#utility.yul\":7444:7553   */\n    tag_198:\n        /* \"#utility.yul\":7525:7546   */\n      tag_317\n        /* \"#utility.yul\":7540:7545   */\n      dup2\n        /* \"#utility.yul\":7525:7546   */\n      tag_197\n      jump\t// in\n    tag_317:\n        /* \"#utility.yul\":7520:7523   */\n      dup3\n        /* \"#utility.yul\":7513:7547   */\n      mstore\n        /* \"#utility.yul\":7444:7553   */\n      pop\n      pop\n      jump\t// out\n        /* \"#utility.yul\":7559:8393   */\n    tag_41:\n        /* \"#utility.yul\":7798:7802   */\n      0x00\n        /* \"#utility.yul\":7836:7839   */\n      0xa0\n        /* \"#utility.yul\":7825:7834   */\n      dup3\n        /* \"#utility.yul\":7821:7840   */\n      add\n        /* \"#utility.yul\":7813:7840   */\n      swap1\n      pop\n        /* \"#utility.yul\":7850:7921   */\n      tag_319\n        /* \"#utility.yul\":7918:7919   */\n      0x00\n        /* \"#utility.yul\":7907:7916   */\n      dup4\n        /* \"#utility.yul\":7903:7920   */\n      add\n        /* \"#utility.yul\":7894:7900   */\n      dup9\n        /* \"#utility.yul\":7850:7921   */\n      tag_190\n      jump\t// in\n    tag_319:\n        /* \"#utility.yul\":7968:7977   */\n      dup2\n        /* \"#utility.yul\":7962:7966   */\n      dup2\n        /* \"#utility.yul\":7958:7978   */\n      sub\n        /* \"#utility.yul\":7953:7955   */\n      0x20\n        /* \"#utility.yul\":7942:7951   */\n      dup4\n        /* \"#utility.yul\":7938:7956   */\n      add\n        /* \"#utility.yul\":7931:7979   */\n      mstore\n        /* \"#utility.yul\":7996:8074   */\n      tag_320\n        /* \"#utility.yul\":8069:8073   */\n      dup2\n        /* \"#utility.yul\":8060:8066   */\n      dup8\n        /* \"#utility.yul\":7996:8074   */\n      tag_196\n      jump\t// in\n    tag_320:\n        /* \"#utility.yul\":7988:8074   */\n      swap1\n      pop\n        /* \"#utility.yul\":8121:8130   */\n      dup2\n        /* \"#utility.yul\":8115:8119   */\n      dup2\n        /* \"#utility.yul\":8111:8131   */\n      sub\n        /* \"#utility.yul\":8106:8108   */\n      0x40\n        /* \"#utility.yul\":8095:8104   */\n      dup4\n        /* \"#utility.yul\":8091:8109   */\n      add\n        /* \"#utility.yul\":8084:8132   */\n      mstore\n        /* \"#utility.yul\":8149:8227   */\n      tag_321\n        /* \"#utility.yul\":8222:8226   */\n      dup2\n        /* \"#utility.yul\":8213:8219   */\n      dup7\n        /* \"#utility.yul\":8149:8227   */\n      tag_196\n      jump\t// in\n    tag_321:\n        /* \"#utility.yul\":8141:8227   */\n      swap1\n      pop\n        /* \"#utility.yul\":8237:8303   */\n      tag_322\n        /* \"#utility.yul\":8299:8301   */\n      0x60\n        /* \"#utility.yul\":8288:8297   */\n      dup4\n        /* \"#utility.yul\":8284:8302   */\n      add\n        /* \"#utility.yul\":8275:8281   */\n      dup6\n        /* \"#utility.yul\":8237:8303   */\n      tag_198\n      jump\t// in\n    tag_322:\n        /* \"#utility.yul\":8313:8386   */\n      tag_323\n        /* \"#utility.yul\":8381:8384   */\n      0x80\n        /* \"#utility.yul\":8370:8379   */\n      dup4\n        /* \"#utility.yul\":8366:8385   */\n      add\n        /* \"#utility.yul\":8357:8363   */\n      dup5\n        /* \"#utility.yul\":8313:8386   */\n      tag_190\n      jump\t// in\n    tag_323:\n        /* \"#utility.yul\":7559:8393   */\n      swap7\n      swap6\n      pop\n      pop\n      pop\n      pop\n      pop\n      pop\n      jump\t// out\n        /* \"#utility.yul\":8399:8525   */\n    tag_199:\n        /* \"#utility.yul\":8436:8443   */\n      0x00\n        /* \"#utility.yul\":8476:8518   */\n      0xffffffffffffffffffffffffffffffffffffffff\n        /* \"#utility.yul\":8469:8474   */\n      dup3\n        /* \"#utility.yul\":8465:8519   */\n      and\n        /* \"#utility.yul\":8454:8519   */\n      swap1\n      pop\n        /* \"#utility.yul\":8399:8525   */\n      swap2\n      swap1\n      pop\n      jump\t// out\n        /* \"#utility.yul\":8531:8627   */\n    tag_200:\n        /* \"#utility.yul\":8568:8575   */\n      0x00\n        /* \"#utility.yul\":8597:8621   */\n      tag_326\n        /* \"#utility.yul\":8615:8620   */\n      dup3\n        /* \"#utility.yul\":8597:8621   */\n      tag_199\n      jump\t// in\n    tag_326:\n        /* \"#utility.yul\":8586:8621   */\n      swap1\n      pop\n        /* \"#utility.yul\":8531:8627   */\n      swap2\n      swap1\n      pop\n      jump\t// out\n        /* \"#utility.yul\":8633:8751   */\n    tag_201:\n        /* \"#utility.yul\":8720:8744   */\n      tag_328\n        /* \"#utility.yul\":8738:8743   */\n      dup2\n        /* \"#utility.yul\":8720:8744   */\n      tag_200\n      jump\t// in\n    tag_328:\n        /* \"#utility.yul\":8715:8718   */\n      dup3\n        /* \"#utility.yul\":8708:8745   */\n      mstore\n        /* \"#utility.yul\":8633:8751   */\n      pop\n      pop\n      jump\t// out\n        /* \"#utility.yul\":8757:8979   */\n    tag_46:\n        /* \"#utility.yul\":8850:8854   */\n      0x00\n        /* \"#utility.yul\":8888:8890   */\n      0x20\n        /* \"#utility.yul\":8877:8886   */\n      dup3\n        /* \"#utility.yul\":8873:8891   */\n      add\n        /* \"#utility.yul\":8865:8891   */\n      swap1\n      pop\n        /* \"#utility.yul\":8901:8972   */\n      tag_330\n        /* \"#utility.yul\":8969:8970   */\n      0x00\n        /* \"#utility.yul\":8958:8967   */\n      dup4\n        /* \"#utility.yul\":8954:8971   */\n      add\n        /* \"#utility.yul\":8945:8951   */\n      dup5\n        /* \"#utility.yul\":8901:8972   */\n      tag_201\n      jump\t// in\n    tag_330:\n        /* \"#utility.yul\":8757:8979   */\n      swap3\n      swap2\n      pop\n      pop\n      jump\t// out\n        /* \"#utility.yul\":8985:9459   */\n    tag_49:\n        /* \"#utility.yul\":9053:9059   */\n      0x00\n        /* \"#utility.yul\":9061:9067   */\n      dup1\n        /* \"#utility.yul\":9110:9112   */\n      0x40\n        /* \"#utility.yul\":9098:9107   */\n      dup4\n        /* \"#utility.yul\":9089:9096   */\n      dup6\n        /* \"#utility.yul\":9085:9108   */\n      sub\n        /* \"#utility.yul\":9081:9113   */\n      slt\n        /* \"#utility.yul\":9078:9197   */\n      iszero\n      tag_332\n      jumpi\n        /* \"#utility.yul\":9116:9195   */\n      tag_333\n      tag_177\n      jump\t// in\n    tag_333:\n        /* \"#utility.yul\":9078:9197   */\n    tag_332:\n        /* \"#utility.yul\":9236:9237   */\n      0x00\n        /* \"#utility.yul\":9261:9314   */\n      tag_334\n        /* \"#utility.yul\":9306:9313   */\n      dup6\n        /* \"#utility.yul\":9297:9303   */\n      dup3\n        /* \"#utility.yul\":9286:9295   */\n      dup7\n        /* \"#utility.yul\":9282:9304   */\n      add\n        /* \"#utility.yul\":9261:9314   */\n      tag_192\n      jump\t// in\n    tag_334:\n        /* \"#utility.yul\":9251:9314   */\n      swap3\n      pop\n        /* \"#utility.yul\":9207:9324   */\n      pop\n        /* \"#utility.yul\":9363:9365   */\n      0x20\n        /* \"#utility.yul\":9389:9442   */\n      tag_335\n        /* \"#utility.yul\":9434:9441   */\n      dup6\n        /* \"#utility.yul\":9425:9431   */\n      dup3\n        /* \"#utility.yul\":9414:9423   */\n      dup7\n        /* \"#utility.yul\":9410:9432   */\n      add\n        /* \"#utility.yul\":9389:9442   */\n      tag_192\n      jump\t// in\n    tag_335:\n        /* \"#utility.yul\":9379:9442   */\n      swap2\n      pop\n        /* \"#utility.yul\":9334:9452   */\n      pop\n        /* \"#utility.yul\":8985:9459   */\n      swap3\n      pop\n      swap3\n      swap1\n      pop\n      jump\t// out\n        /* \"#utility.yul\":9465:10916   */\n    tag_62:\n        /* \"#utility.yul\":9590:9596   */\n      0x00\n        /* \"#utility.yul\":9598:9604   */\n      dup1\n        /* \"#utility.yul\":9606:9612   */\n      0x00\n        /* \"#utility.yul\":9614:9620   */\n      dup1\n        /* \"#utility.yul\":9622:9628   */\n      0x00\n        /* \"#utility.yul\":9671:9674   */\n      0xa0\n        /* \"#utility.yul\":9659:9668   */\n      dup7\n        /* \"#utility.yul\":9650:9657   */\n      dup9\n        /* \"#utility.yul\":9646:9669   */\n      sub\n        /* \"#utility.yul\":9642:9675   */\n      slt\n        /* \"#utility.yul\":9639:9759   */\n      iszero\n      tag_337\n      jumpi\n        /* \"#utility.yul\":9678:9757   */\n      tag_338\n      tag_177\n      jump\t// in\n    tag_338:\n        /* \"#utility.yul\":9639:9759   */\n    tag_337:\n        /* \"#utility.yul\":9826:9827   */\n      0x00\n        /* \"#utility.yul\":9815:9824   */\n      dup7\n        /* \"#utility.yul\":9811:9828   */\n      add\n        /* \"#utility.yul\":9798:9829   */\n      calldataload\n        /* \"#utility.yul\":9856:9874   */\n      0xffffffffffffffff\n        /* \"#utility.yul\":9848:9854   */\n      dup2\n        /* \"#utility.yul\":9845:9875   */\n      gt\n        /* \"#utility.yul\":9842:9959   */\n      iszero\n      tag_339\n      jumpi\n        /* \"#utility.yul\":9878:9957   */\n      tag_340\n      tag_178\n      jump\t// in\n    tag_340:\n        /* \"#utility.yul\":9842:9959   */\n    tag_339:\n        /* \"#utility.yul\":9983:10046   */\n      tag_341\n        /* \"#utility.yul\":10038:10045   */\n      dup9\n        /* \"#utility.yul\":10029:10035   */\n      dup3\n        /* \"#utility.yul\":10018:10027   */\n      dup10\n        /* \"#utility.yul\":10014:10036   */\n      add\n        /* \"#utility.yul\":9983:10046   */\n      tag_188\n      jump\t// in\n    tag_341:\n        /* \"#utility.yul\":9973:10046   */\n      swap6\n      pop\n        /* \"#utility.yul\":9769:10056   */\n      pop\n        /* \"#utility.yul\":10123:10125   */\n      0x20\n        /* \"#utility.yul\":10112:10121   */\n      dup7\n        /* \"#utility.yul\":10108:10126   */\n      add\n        /* \"#utility.yul\":10095:10127   */\n      calldataload\n        /* \"#utility.yul\":10154:10172   */\n      0xffffffffffffffff\n        /* \"#utility.yul\":10146:10152   */\n      dup2\n        /* \"#utility.yul\":10143:10173   */\n      gt\n        /* \"#utility.yul\":10140:10257   */\n      iszero\n      tag_342\n      jumpi\n        /* \"#utility.yul\":10176:10255   */\n      tag_343\n      tag_178\n      jump\t// in\n    tag_343:\n        /* \"#utility.yul\":10140:10257   */\n    tag_342:\n        /* \"#utility.yul\":10281:10344   */\n      tag_344\n        /* \"#utility.yul\":10336:10343   */\n      dup9\n        /* \"#utility.yul\":10327:10333   */\n      dup3\n        /* \"#utility.yul\":10316:10325   */\n      dup10\n        /* \"#utility.yul\":10312:10334   */\n      add\n        /* \"#utility.yul\":10281:10344   */\n      tag_188\n      jump\t// in\n    tag_344:\n        /* \"#utility.yul\":10271:10344   */\n      swap5\n      pop\n        /* \"#utility.yul\":10066:10354   */\n      pop\n        /* \"#utility.yul\":10393:10395   */\n      0x40\n        /* \"#utility.yul\":10419:10472   */\n      tag_345\n        /* \"#utility.yul\":10464:10471   */\n      dup9\n        /* \"#utility.yul\":10455:10461   */\n      dup3\n        /* \"#utility.yul\":10444:10453   */\n      dup10\n        /* \"#utility.yul\":10440:10462   */\n      add\n        /* \"#utility.yul\":10419:10472   */\n      tag_192\n      jump\t// in\n    tag_345:\n        /* \"#utility.yul\":10409:10472   */\n      swap4\n      pop\n        /* \"#utility.yul\":10364:10482   */\n      pop\n        /* \"#utility.yul\":10549:10551   */\n      0x60\n        /* \"#utility.yul\":10538:10547   */\n      dup7\n        /* \"#utility.yul\":10534:10552   */\n      add\n        /* \"#utility.yul\":10521:10553   */\n      calldataload\n        /* \"#utility.yul\":10580:10598   */\n      0xffffffffffffffff\n        /* \"#utility.yul\":10572:10578   */\n      dup2\n        /* \"#utility.yul\":10569:10599   */\n      gt\n        /* \"#utility.yul\":10566:10683   */\n      iszero\n      tag_346\n      jumpi\n        /* \"#utility.yul\":10602:10681   */\n      tag_347\n      tag_178\n      jump\t// in\n    tag_347:\n        /* \"#utility.yul\":10566:10683   */\n    tag_346:\n        /* \"#utility.yul\":10707:10770   */\n      tag_348\n        /* \"#utility.yul\":10762:10769   */\n      dup9\n        /* \"#utility.yul\":10753:10759   */\n      dup3\n        /* \"#utility.yul\":10742:10751   */\n      dup10\n        /* \"#utility.yul\":10738:10760   */\n      add\n        /* \"#utility.yul\":10707:10770   */\n      tag_188\n      jump\t// in\n    tag_348:\n        /* \"#utility.yul\":10697:10770   */\n      swap3\n      pop\n        /* \"#utility.yul\":10492:10780   */\n      pop\n        /* \"#utility.yul\":10819:10822   */\n      0x80\n        /* \"#utility.yul\":10846:10899   */\n      tag_349\n        /* \"#utility.yul\":10891:10898   */\n      dup9\n        /* \"#utility.yul\":10882:10888   */\n      dup3\n        /* \"#utility.yul\":10871:10880   */\n      dup10\n        /* \"#utility.yul\":10867:10889   */\n      add\n        /* \"#utility.yul\":10846:10899   */\n      tag_192\n      jump\t// in\n    tag_349:\n        /* \"#utility.yul\":10836:10899   */\n      swap2\n      pop\n        /* \"#utility.yul\":10790:10909   */\n      pop\n        /* \"#utility.yul\":9465:10916   */\n      swap3\n      swap6\n      pop\n      swap3\n      swap6\n      swap1\n      swap4\n      pop\n      jump\t// out\n        /* \"#utility.yul\":10922:11102   */\n    tag_202:\n        /* \"#utility.yul\":10970:11047   */\n      0x4e487b7100000000000000000000000000000000000000000000000000000000\n        /* \"#utility.yul\":10967:10968   */\n      0x00\n        /* \"#utility.yul\":10960:11048   */\n      mstore\n        /* \"#utility.yul\":11067:11071   */\n      0x11\n        /* \"#utility.yul\":11064:11065   */\n      0x04\n        /* \"#utility.yul\":11057:11072   */\n      mstore\n        /* \"#utility.yul\":11091:11095   */\n      0x24\n        /* \"#utility.yul\":11088:11089   */\n      0x00\n        /* \"#utility.yul\":11081:11096   */\n      revert\n        /* \"#utility.yul\":11108:11341   */\n    tag_66:\n        /* \"#utility.yul\":11147:11150   */\n      0x00\n        /* \"#utility.yul\":11170:11194   */\n      tag_352\n        /* \"#utility.yul\":11188:11193   */\n      dup3\n        /* \"#utility.yul\":11170:11194   */\n      tag_189\n      jump\t// in\n    tag_352:\n        /* \"#utility.yul\":11161:11194   */\n      swap2\n      pop\n        /* \"#utility.yul\":11216:11282   */\n      0xffffffffffffffffffffffffffffffffffffffffffffffffffffffffffffffff\n        /* \"#utility.yul\":11209:11214   */\n      dup3\n        /* \"#utility.yul\":11206:11283   */\n      sub\n        /* \"#utility.yul\":11203:11306   */\n      tag_353\n      jumpi\n        /* \"#utility.yul\":11286:11304   */\n      tag_354\n      tag_202\n      jump\t// in\n    tag_354:\n        /* \"#utility.yul\":11203:11306   */\n    tag_353:\n        /* \"#utility.yul\":11333:11334   */\n      0x01\n        /* \"#utility.yul\":11326:11331   */\n      dup3\n        /* \"#utility.yul\":11322:11335   */\n      add\n        /* \"#utility.yul\":11315:11335   */\n      swap1\n      pop\n        /* \"#utility.yul\":11108:11341   */\n      swap2\n      swap1\n      pop\n      jump\t// out\n        /* \"#utility.yul\":11347:11527   */\n    tag_203:\n        /* \"#utility.yul\":11395:11472   */\n      0x4e487b7100000000000000000000000000000000000000000000000000000000\n        /* \"#utility.yul\":11392:11393   */\n      0x00\n        /* \"#utility.yul\":11385:11473   */\n      mstore\n        /* \"#utility.yul\":11492:11496   */\n      0x22\n        /* \"#utility.yul\":11489:11490   */\n      0x04\n        /* \"#utility.yul\":11482:11497   */\n      mstore\n        /* \"#utility.yul\":11516:11520   */\n      0x24\n        /* \"#utility.yul\":11513:11514   */\n      0x00\n        /* \"#utility.yul\":11506:11521   */\n      revert\n        /* \"#utility.yul\":11533:11853   */\n    tag_77:\n        /* \"#utility.yul\":11577:11583   */\n      0x00\n        /* \"#utility.yul\":11614:11615   */\n      0x02\n        /* \"#utility.yul\":11608:11612   */\n      dup3\n        /* \"#utility.yul\":11604:11616   */\n      div\n        /* \"#utility.yul\":11594:11616   */\n      swap1\n      pop\n        /* \"#utility.yul\":11661:11662   */\n      0x01\n        /* \"#utility.yul\":11655:11659   */\n      dup3\n        /* \"#utility.yul\":11651:11663   */\n      and\n        /* \"#utility.yul\":11682:11700   */\n      dup1\n        /* \"#utility.yul\":11672:11753   */\n      tag_357\n      jumpi\n        /* \"#utility.yul\":11738:11742   */\n      0x7f\n        /* \"#utility.yul\":11730:11736   */\n      dup3\n        /* \"#utility.yul\":11726:11743   */\n      and\n        /* \"#utility.yul\":11716:11743   */\n      swap2\n      pop\n        /* \"#utility.yul\":11672:11753   */\n    tag_357:\n        /* \"#utility.yul\":11800:11802   */\n      0x20\n        /* \"#utility.yul\":11792:11798   */\n      dup3\n        /* \"#utility.yul\":11789:11803   */\n      lt\n        /* \"#utility.yul\":11769:11787   */\n      dup2\n        /* \"#utility.yul\":11766:11804   */\n      sub\n        /* \"#utility.yul\":11763:11847   */\n      tag_358\n      jumpi\n        /* \"#utility.yul\":11819:11837   */\n      tag_359\n      tag_203\n      jump\t// in\n    tag_359:\n        /* \"#utility.yul\":11763:11847   */\n    tag_358:\n        /* \"#utility.yul\":11584:11853   */\n      pop\n        /* \"#utility.yul\":11533:11853   */\n      swap2\n      swap1\n      pop\n      jump\t// out\n        /* \"#utility.yul\":11859:12000   */\n    tag_204:\n        /* \"#utility.yul\":11908:11912   */\n      0x00\n        /* \"#utility.yul\":11931:11934   */\n      dup2\n        /* \"#utility.yul\":11923:11934   */\n      swap1\n      pop\n        /* \"#utility.yul\":11954:11957   */\n      dup2\n        /* \"#utility.yul\":11951:11952   */\n      0x00\n        /* \"#utility.yul\":11944:11958   */\n      mstore\n        /* \"#utility.yul\":11988:11992   */\n      0x20\n        /* \"#utility.yul\":11985:11986   */\n      0x00\n        /* \"#utility.yul\":11975:11993   */\n      keccak256\n        /* \"#utility.yul\":11967:11993   */\n      swap1\n      pop\n        /* \"#utility.yul\":11859:12000   */\n      swap2\n      swap1\n      pop\n      jump\t// out\n        /* \"#utility.yul\":12006:12099   */\n    tag_205:\n        /* \"#utility.yul\":12043:12049   */\n      0x00\n        /* \"#utility.yul\":12090:12092   */\n      0x20\n        /* \"#utility.yul\":12085:12087   */\n      0x1f\n        /* \"#utility.yul\":12078:12083   */\n      dup4\n        /* \"#utility.yul\":12074:12088   */\n      add\n        /* \"#utility.yul\":12070:12093   */\n      div\n        /* \"#utility.yul\":12060:12093   */\n      swap1\n      pop\n        /* \"#utility.yul\":12006:12099   */\n      swap2\n      swap1\n      pop\n      jump\t// out\n        /* \"#utility.yul\":12105:12212   */\n    tag_206:\n        /* \"#utility.yul\":12149:12157   */\n      0x00\n        /* \"#utility.yul\":12199:12204   */\n      dup3\n        /* \"#utility.yul\":12193:12197   */\n      dup3\n        /* \"#utility.yul\":12189:12205   */\n      shl\n        /* \"#utility.yul\":12168:12205   */\n      swap1\n      pop\n        /* \"#utility.yul\":12105:12212   */\n      swap3\n      swap2\n      pop\n      pop\n      jump\t// out\n        /* \"#utility.yul\":12218:12611   */\n    tag_207:\n        /* \"#utility.yul\":12287:12293   */\n      0x00\n        /* \"#utility.yul\":12337:12338   */\n      0x08\n        /* \"#utility.yul\":12325:12335   */\n      dup4\n        /* \"#utility.yul\":12321:12339   */\n      mul\n        /* \"#utility.yul\":12360:12457   */\n      tag_364\n        /* \"#utility.yul\":12390:12456   */\n      0xffffffffffffffffffffffffffffffffffffffffffffffffffffffffffffffff\n        /* \"#utility.yul\":12379:12388   */\n      dup3\n        /* \"#utility.yul\":12360:12457   */\n      tag_206\n      jump\t// in\n    tag_364:\n        /* \"#utility.yul\":12478:12517   */\n      tag_365\n        /* \"#utility.yul\":12508:12516   */\n      dup7\n        /* \"#utility.yul\":12497:12506   */\n      dup4\n        /* \"#utility.yul\":12478:12517   */\n      tag_206\n      jump\t// in\n    tag_365:\n        /* \"#utility.yul\":12466:12517   */\n      swap6\n      pop\n        /* \"#utility.yul\":12550:12554   */\n      dup1\n        /* \"#utility.yul\":12546:12555   */\n      not\n        /* \"#utility.yul\":12539:12544   */\n      dup5\n        /* \"#utility.yul\":12535:12556   */\n      and\n        /* \"#utility.yul\":12526:12556   */\n      swap4\n      pop\n        /* \"#utility.yul\":12599:12603   */\n      dup1\n        /* \"#utility.yul\":12589:12597   */\n      dup7\n        /* \"#utility.yul\":12585:12604   */\n      and\n        /* \"#utility.yul\":12578:12583   */\n      dup5\n        /* \"#utility.yul\":12575:12605   */\n      or\n        /* \"#utility.yul\":12565:12605   */\n      swap3\n      pop\n        /* \"#utility.yul\":12294:12611   */\n      pop\n      pop\n        /* \"#utility.yul\":12218:12611   */\n      swap4\n      swap3\n      pop\n      pop\n      pop\n      jump\t// out\n        /* \"#utility.yul\":12617:12677   */\n    tag_208:\n        /* \"#utility.yul\":12645:12648   */\n      0x00\n        /* \"#utility.yul\":12666:12671   */\n      dup2\n        /* \"#utility.yul\":12659:12671   */\n      swap1\n      pop\n        /* \"#utility.yul\":12617:12677   */\n      swap2\n      swap1\n      pop\n      jump\t// out\n        /* \"#utility.yul\":12683:12825   */\n    tag_209:\n        /* \"#utility.yul\":12733:12742   */\n      0x00\n        /* \"#utility.yul\":12766:12819   */\n      tag_368\n        /* \"#utility.yul\":12784:12818   */\n      tag_369\n        /* \"#utility.yul\":12793:12817   */\n      tag_370\n        /* \"#utility.yul\":12811:12816   */\n      dup5\n        /* \"#utility.yul\":12793:12817   */\n      tag_189\n      jump\t// in\n    tag_370:\n        /* \"#utility.yul\":12784:12818   */\n      tag_208\n      jump\t// in\n    tag_369:\n        /* \"#utility.yul\":12766:12819   */\n      tag_189\n      jump\t// in\n    tag_368:\n        /* \"#utility.yul\":12753:12819   */\n      swap1\n      pop\n        /* \"#utility.yul\":12683:12825   */\n      swap2\n      swap1\n      pop\n      jump\t// out\n        /* \"#utility.yul\":12831:12906   */\n    tag_210:\n        /* \"#utility.yul\":12874:12877   */\n      0x00\n        /* \"#utility.yul\":12895:12900   */\n      dup2\n        /* \"#utility.yul\":12888:12900   */\n      swap1\n      pop\n        /* \"#utility.yul\":12831:12906   */\n      swap2\n      swap1\n      pop\n      jump\t// out\n        /* \"#utility.yul\":12912:13181   */\n    tag_211:\n        /* \"#utility.yul\":13022:13061   */\n      tag_373\n        /* \"#utility.yul\":13053:13060   */\n      dup4\n        /* \"#utility.yul\":13022:13061   */\n      tag_209\n      jump\t// in\n    tag_373:\n        /* \"#utility.yul\":13083:13174   */\n      tag_374\n        /* \"#utility.yul\":13132:13173   */\n      tag_375\n        /* \"#utility.yul\":13156:13172   */\n      dup3\n        /* \"#utility.yul\":13132:13173   */\n      tag_210\n      jump\t// in\n    tag_375:\n        /* \"#utility.yul\":13124:13130   */\n      dup5\n        /* \"#utility.yul\":13117:13121   */\n      dup5\n        /* \"#utility.yul\":13111:13122   */\n      sload\n        /* \"#utility.yul\":13083:13174   */\n      tag_207\n      jump\t// in\n    tag_374:\n        /* \"#utility.yul\":13077:13081   */\n      dup3\n        /* \"#utility.yul\":13070:13175   */\n      sstore\n        /* \"#utility.yul\":12988:13181   */\n      pop\n        /* \"#utility.yul\":12912:13181   */\n      pop\n      pop\n      pop\n      jump\t// out\n        /* \"#utility.yul\":13187:13260   */\n    tag_212:\n        /* \"#utility.yul\":13232:13235   */\n      0x00\n        /* \"#utility.yul\":13187:13260   */\n      swap1\n      jump\t// out\n        /* \"#utility.yul\":13266:13455   */\n    tag_213:\n        /* \"#utility.yul\":13343:13375   */\n      tag_378\n      tag_212\n      jump\t// in\n    tag_378:\n        /* \"#utility.yul\":13384:13449   */\n      tag_379\n        /* \"#utility.yul\":13442:13448   */\n      dup2\n        /* \"#utility.yul\":13434:13440   */\n      dup5\n        /* \"#utility.yul\":13428:13432   */\n      dup5\n        /* \"#utility.yul\":13384:13449   */\n      tag_211\n      jump\t// in\n    tag_379:\n        /* \"#utility.yul\":13319:13455   */\n      pop\n        /* \"#utility.yul\":13266:13455   */\n      pop\n      pop\n      jump\t// out\n        /* \"#utility.yul\":13461:13647   */\n    tag_214:\n        /* \"#utility.yul\":13521:13641   */\n    tag_381:\n        /* \"#utility.yul\":13538:13541   */\n      dup2\n        /* \"#utility.yul\":13531:13536   */\n      dup2\n        /* \"#utility.yul\":13528:13542   */\n      lt\n        /* \"#utility.yul\":13521:13641   */\n      iszero\n      tag_383\n      jumpi\n        /* \"#utility.yul\":13592:13631   */\n      tag_384\n        /* \"#utility.yul\":13629:13630   */\n      0x00\n        /* \"#utility.yul\":13622:13627   */\n      dup3\n        /* \"#utility.yul\":13592:13631   */\n      tag_213\n      jump\t// in\n    tag_384:\n        /* \"#utility.yul\":13565:13566   */\n      0x01\n        /* \"#utility.yul\":13558:13563   */\n      dup2\n        /* \"#utility.yul\":13554:13567   */\n      add\n        /* \"#utility.yul\":13545:13567   */\n      swap1\n      pop\n        /* \"#utility.yul\":13521:13641   */\n      jump(tag_381)\n    tag_383:\n        /* \"#utility.yul\":13461:13647   */\n      pop\n      pop\n      jump\t// out\n        /* \"#utility.yul\":13653:14196   */\n    tag_215:\n        /* \"#utility.yul\":13754:13756   */\n      0x1f\n        /* \"#utility.yul\":13749:13752   */\n      dup3\n        /* \"#utility.yul\":13746:13757   */\n      gt\n        /* \"#utility.yul\":13743:14189   */\n      iszero\n      tag_386\n      jumpi\n        /* \"#utility.yul\":13788:13826   */\n      tag_387\n        /* \"#utility.yul\":13820:13825   */\n      dup2\n        /* \"#utility.yul\":13788:13826   */\n      tag_204\n      jump\t// in\n    tag_387:\n        /* \"#utility.yul\":13872:13901   */\n      tag_388\n        /* \"#utility.yul\":13890:13900   */\n      dup5\n        /* \"#utility.yul\":13872:13901   */\n      tag_205\n      jump\t// in\n    tag_388:\n        /* \"#utility.yul\":13862:13870   */\n      dup2\n        /* \"#utility.yul\":13858:13902   */\n      add\n        /* \"#utility.yul\":14055:14057   */\n      0x20\n        /* \"#utility.yul\":14043:14053   */\n      dup6\n        /* \"#utility.yul\":14040:14058   */\n      lt\n        /* \"#utility.yul\":14037:14086   */\n      iszero\n      tag_389\n      jumpi\n        /* \"#utility.yul\":14076:14084   */\n      dup2\n        /* \"#utility.yul\":14061:14084   */\n      swap1\n      pop\n        /* \"#utility.yul\":14037:14086   */\n    tag_389:\n        /* \"#utility.yul\":14099:14179   */\n      tag_390\n        /* \"#utility.yul\":14155:14177   */\n      tag_391\n        /* \"#utility.yul\":14173:14176   */\n      dup6\n        /* \"#utility.yul\":14155:14177   */\n      tag_205\n      jump\t// in\n    tag_391:\n        /* \"#utility.yul\":14145:14153   */\n      dup4\n        /* \"#utility.yul\":14141:14178   */\n      add\n        /* \"#utility.yul\":14128:14139   */\n      dup3\n        /* \"#utility.yul\":14099:14179   */\n      tag_214\n      jump\t// in\n    tag_390:\n        /* \"#utility.yul\":13758:14189   */\n      pop\n      pop\n        /* \"#utility.yul\":13743:14189   */\n    tag_386:\n        /* \"#utility.yul\":13653:14196   */\n      pop\n      pop\n      pop\n      jump\t// out\n        /* \"#utility.yul\":14202:14319   */\n    tag_216:\n        /* \"#utility.yul\":14256:14264   */\n      0x00\n        /* \"#utility.yul\":14306:14311   */\n      dup3\n        /* \"#utility.yul\":14300:14304   */\n      dup3\n        /* \"#utility.yul\":14296:14312   */\n      shr\n        /* \"#utility.yul\":14275:14312   */\n      swap1\n      pop\n        /* \"#utility.yul\":14202:14319   */\n      swap3\n      swap2\n      pop\n      pop\n      jump\t// out\n        /* \"#utility.yul\":14325:14494   */\n    tag_217:\n        /* \"#utility.yul\":14369:14375   */\n      0x00\n        /* \"#utility.yul\":14402:14453   */\n      tag_394\n        /* \"#utility.yul\":14450:14451   */\n      0x00\n        /* \"#utility.yul\":14446:14452   */\n      not\n        /* \"#utility.yul\":14438:14443   */\n      dup5\n        /* \"#utility.yul\":14435:14436   */\n      0x08\n        /* \"#utility.yul\":14431:14444   */\n      mul\n        /* \"#utility.yul\":14402:14453   */\n      tag_216\n      jump\t// in\n    tag_394:\n        /* \"#utility.yul\":14398:14454   */\n      not\n        /* \"#utility.yul\":14483:14487   */\n      dup1\n        /* \"#utility.yul\":14477:14481   */\n      dup4\n        /* \"#utility.yul\":14473:14488   */\n      and\n        /* \"#utility.yul\":14463:14488   */\n      swap2\n      pop\n        /* \"#utility.yul\":14376:14494   */\n      pop\n        /* \"#utility.yul\":14325:14494   */\n      swap3\n      swap2\n      pop\n      pop\n      jump\t// out\n        /* \"#utility.yul\":14499:14794   */\n    tag_218:\n        /* \"#utility.yul\":14575:14579   */\n      0x00\n        /* \"#utility.yul\":14721:14750   */\n      tag_396\n        /* \"#utility.yul\":14746:14749   */\n      dup4\n        /* \"#utility.yul\":14740:14744   */\n      dup4\n        /* \"#utility.yul\":14721:14750   */\n      tag_217\n      jump\t// in\n    tag_396:\n        /* \"#utility.yul\":14713:14750   */\n      swap2\n      pop\n        /* \"#utility.yul\":14783:14786   */\n      dup3\n        /* \"#utility.yul\":14780:14781   */\n      0x02\n        /* \"#utility.yul\":14776:14787   */\n      mul\n        /* \"#utility.yul\":14770:14774   */\n      dup3\n        /* \"#utility.yul\":14767:14788   */\n      or\n        /* \"#utility.yul\":14759:14788   */\n      swap1\n      pop\n        /* \"#utility.yul\":14499:14794   */\n      swap3\n      swap2\n      pop\n      pop\n      jump\t// out\n        /* \"#utility.yul\":14799:16194   */\n    tag_68:\n        /* \"#utility.yul\":14916:14953   */\n      tag_398\n        /* \"#utility.yul\":14949:14952   */\n      dup3\n        /* \"#utility.yul\":14916:14953   */\n      tag_193\n      jump\t// in\n    tag_398:\n        /* \"#utility.yul\":15018:15036   */\n      0xffffffffffffffff\n        /* \"#utility.yul\":15010:15016   */\n      dup2\n        /* \"#utility.yul\":15007:15037   */\n      gt\n        /* \"#utility.yul\":15004:15060   */\n      iszero\n      tag_399\n      jumpi\n        /* \"#utility.yul\":15040:15058   */\n      tag_400\n      tag_182\n      jump\t// in\n    tag_400:\n        /* \"#utility.yul\":15004:15060   */\n    tag_399:\n        /* \"#utility.yul\":15084:15122   */\n      tag_401\n        /* \"#utility.yul\":15116:15120   */\n      dup3\n        /* \"#utility.yul\":15110:15121   */\n      sload\n        /* \"#utility.yul\":15084:15122   */\n      tag_77\n      jump\t// in\n    tag_401:\n        /* \"#utility.yul\":15169:15236   */\n      tag_402\n        /* \"#utility.yul\":15229:15235   */\n      dup3\n        /* \"#utility.yul\":15221:15227   */\n      dup3\n        /* \"#utility.yul\":15215:15219   */\n      dup6\n        /* \"#utility.yul\":15169:15236   */\n      tag_215\n      jump\t// in\n    tag_402:\n        /* \"#utility.yul\":15263:15264   */\n      0x00\n        /* \"#utility.yul\":15287:15291   */\n      0x20\n        /* \"#utility.yul\":15274:15291   */\n      swap1\n      pop\n        /* \"#utility.yul\":15319:15321   */\n      0x1f\n        /* \"#utility.yul\":15311:15317   */\n      dup4\n        /* \"#utility.yul\":15308:15322   */\n      gt\n        /* \"#utility.yul\":15336:15337   */\n      0x01\n        /* \"#utility.yul\":15331:15949   */\n      dup2\n      eq\n      tag_404\n      jumpi\n        /* \"#utility.yul\":15993:15994   */\n      0x00\n        /* \"#utility.yul\":16010:16016   */\n      dup5\n        /* \"#utility.yul\":16007:16084   */\n      iszero\n      tag_405\n      jumpi\n        /* \"#utility.yul\":16059:16068   */\n      dup3\n        /* \"#utility.yul\":16054:16057   */\n      dup8\n        /* \"#utility.yul\":16050:16069   */\n      add\n        /* \"#utility.yul\":16044:16070   */\n      mload\n        /* \"#utility.yul\":16035:16070   */\n      swap1\n      pop\n        /* \"#utility.yul\":16007:16084   */\n    tag_405:\n        /* \"#utility.yul\":16110:16177   */\n      tag_406\n        /* \"#utility.yul\":16170:16176   */\n      dup6\n        /* \"#utility.yul\":16163:16168   */\n      dup3\n        /* \"#utility.yul\":16110:16177   */\n      tag_218\n      jump\t// in\n    tag_406:\n        /* \"#utility.yul\":16104:16108   */\n      dup7\n        /* \"#utility.yul\":16097:16178   */\n      sstore\n        /* \"#utility.yul\":15966:16188   */\n      pop\n        /* \"#utility.yul\":15301:16188   */\n      jump(tag_403)\n        /* \"#utility.yul\":15331:15949   */\n    tag_404:\n        /* \"#utility.yul\":15383:15387   */\n      0x1f\n        /* \"#utility.yul\":15379:15388   */\n      not\n        /* \"#utility.yul\":15371:15377   */\n      dup5\n        /* \"#utility.yul\":15367:15389   */\n      and\n        /* \"#utility.yul\":15417:15454   */\n      tag_407\n        /* \"#utility.yul\":15449:15453   */\n      dup7\n        /* \"#utility.yul\":15417:15454   */\n      tag_204\n      jump\t// in\n    tag_407:\n        /* \"#utility.yul\":15476:15477   */\n      0x00\n        /* \"#utility.yul\":15490:15698   */\n    tag_408:\n        /* \"#utility.yul\":15504:15511   */\n      dup3\n        /* \"#utility.yul\":15501:15502   */\n      dup2\n        /* \"#utility.yul\":15498:15512   */\n      lt\n        /* \"#utility.yul\":15490:15698   */\n      iszero\n      tag_410\n      jumpi\n        /* \"#utility.yul\":15583:15592   */\n      dup5\n        /* \"#utility.yul\":15578:15581   */\n      dup10\n        /* \"#utility.yul\":15574:15593   */\n      add\n        /* \"#utility.yul\":15568:15594   */\n      mload\n        /* \"#utility.yul\":15560:15566   */\n      dup3\n        /* \"#utility.yul\":15553:15595   */\n      sstore\n        /* \"#utility.yul\":15634:15635   */\n      0x01\n        /* \"#utility.yul\":15626:15632   */\n      dup3\n        /* \"#utility.yul\":15622:15636   */\n      add\n        /* \"#utility.yul\":15612:15636   */\n      swap2\n      pop\n        /* \"#utility.yul\":15681:15683   */\n      0x20\n        /* \"#utility.yul\":15670:15679   */\n      dup6\n        /* \"#utility.yul\":15666:15684   */\n      add\n        /* \"#utility.yul\":15653:15684   */\n      swap5\n      pop\n        /* \"#utility.yul\":15527:15531   */\n      0x20\n        /* \"#utility.yul\":15524:15525   */\n      dup2\n        /* \"#utility.yul\":15520:15532   */\n      add\n        /* \"#utility.yul\":15515:15532   */\n      swap1\n      pop\n        /* \"#utility.yul\":15490:15698   */\n      jump(tag_408)\n    tag_410:\n        /* \"#utility.yul\":15726:15732   */\n      dup7\n        /* \"#utility.yul\":15717:15724   */\n      dup4\n        /* \"#utility.yul\":15714:15733   */\n      lt\n        /* \"#utility.yul\":15711:15890   */\n      iszero\n      tag_411\n      jumpi\n        /* \"#utility.yul\":15784:15793   */\n      dup5\n        /* \"#utility.yul\":15779:15782   */\n      dup10\n        /* \"#utility.yul\":15775:15794   */\n      add\n        /* \"#utility.yul\":15769:15795   */\n      mload\n        /* \"#utility.yul\":15827:15875   */\n      tag_412\n        /* \"#utility.yul\":15869:15873   */\n      0x1f\n        /* \"#utility.yul\":15861:15867   */\n      dup10\n        /* \"#utility.yul\":15857:15874   */\n      and\n        /* \"#utility.yul\":15846:15855   */\n      dup3\n        /* \"#utility.yul\":15827:15875   */\n      tag_217\n      jump\t// in\n    tag_412:\n        /* \"#utility.yul\":15819:15825   */\n      dup4\n        /* \"#utility.yul\":15812:15876   */\n      sstore\n        /* \"#utility.yul\":15734:15890   */\n      pop\n        /* \"#utility.yul\":15711:15890   */\n    tag_411:\n        /* \"#utility.yul\":15936:15937   */\n      0x01\n        /* \"#utility.yul\":15932:15933   */\n      0x02\n        /* \"#utility.yul\":15924:15930   */\n      dup9\n        /* \"#utility.yul\":15920:15934   */\n      mul\n        /* \"#utility.yul\":15916:15938   */\n      add\n        /* \"#utility.yul\":15910:15914   */\n      dup9\n        /* \"#utility.yul\":15903:15939   */\n      sstore\n        /* \"#utility.yul\":15338:15949   */\n      pop\n      pop\n      pop\n        /* \"#utility.yul\":15301:16188   */\n    tag_403:\n      pop\n        /* \"#utility.yul\":14891:16194   */\n      pop\n      pop\n      pop\n        /* \"#utility.yul\":14799:16194   */\n      pop\n      pop\n      jump\t// out\n        /* \"#utility.yul\":16200:16368   */\n    tag_219:\n        /* \"#utility.yul\":16340:16360   */\n      0x496e76616c69642070726f647563742049440000000000000000000000000000\n        /* \"#utility.yul\":16336:16337   */\n      0x00\n        /* \"#utility.yul\":16328:16334   */\n      dup3\n        /* \"#utility.yul\":16324:16338   */\n      add\n        /* \"#utility.yul\":16317:16361   */\n      mstore\n        /* \"#utility.yul\":16200:16368   */\n      pop\n      jump\t// out\n        /* \"#utility.yul\":16374:16740   */\n    tag_220:\n        /* \"#utility.yul\":16516:16519   */\n      0x00\n        /* \"#utility.yul\":16537:16604   */\n      tag_415\n        /* \"#utility.yul\":16601:16603   */\n      0x12\n        /* \"#utility.yul\":16596:16599   */\n      dup4\n        /* \"#utility.yul\":16537:16604   */\n      tag_194\n      jump\t// in\n    tag_415:\n        /* \"#utility.yul\":16530:16604   */\n      swap2\n      pop\n        /* \"#utility.yul\":16613:16706   */\n      tag_416\n        /* \"#utility.yul\":16702:16705   */\n      dup3\n        /* \"#utility.yul\":16613:16706   */\n      tag_219\n      jump\t// in\n    tag_416:\n        /* \"#utility.yul\":16731:16733   */\n      0x20\n        /* \"#utility.yul\":16726:16729   */\n      dup3\n        /* \"#utility.yul\":16722:16734   */\n      add\n        /* \"#utility.yul\":16715:16734   */\n      swap1\n      pop\n        /* \"#utility.yul\":16374:16740   */\n      swap2\n      swap1\n      pop\n      jump\t// out\n        /* \"#utility.yul\":16746:17165   */\n    tag_75:\n        /* \"#utility.yul\":16912:16916   */\n      0x00\n        /* \"#utility.yul\":16950:16952   */\n      0x20\n        /* \"#utility.yul\":16939:16948   */\n      dup3\n        /* \"#utility.yul\":16935:16953   */\n      add\n        /* \"#utility.yul\":16927:16953   */\n      swap1\n      pop\n        /* \"#utility.yul\":16999:17008   */\n      dup2\n        /* \"#utility.yul\":16993:16997   */\n      dup2\n        /* \"#utility.yul\":16989:17009   */\n      sub\n        /* \"#utility.yul\":16985:16986   */\n      0x00\n        /* \"#utility.yul\":16974:16983   */\n      dup4\n        /* \"#utility.yul\":16970:16987   */\n      add\n        /* \"#utility.yul\":16963:17010   */\n      mstore\n        /* \"#utility.yul\":17027:17158   */\n      tag_418\n        /* \"#utility.yul\":17153:17157   */\n      dup2\n        /* \"#utility.yul\":17027:17158   */\n      tag_220\n      jump\t// in\n    tag_418:\n        /* \"#utility.yul\":17019:17158   */\n      swap1\n      pop\n        /* \"#utility.yul\":16746:17165   */\n      swap2\n      swap1\n      pop\n      jump\t// out\n        /* \"#utility.yul\":17171:17347   */\n    tag_221:\n        /* \"#utility.yul\":17311:17339   */\n      0x4e6f7420656e6f7567682073746f636b20617661696c61626c65000000000000\n        /* \"#utility.yul\":17307:17308   */\n      0x00\n        /* \"#utility.yul\":17299:17305   */\n      dup3\n        /* \"#utility.yul\":17295:17309   */\n      add\n        /* \"#utility.yul\":17288:17340   */\n      mstore\n        /* \"#utility.yul\":17171:17347   */\n      pop\n      jump\t// out\n        /* \"#utility.yul\":17353:17719   */\n    tag_222:\n        /* \"#utility.yul\":17495:17498   */\n      0x00\n        /* \"#utility.yul\":17516:17583   */\n      tag_421\n        /* \"#utility.yul\":17580:17582   */\n      0x1a\n        /* \"#utility.yul\":17575:17578   */\n      dup4\n        /* \"#utility.yul\":17516:17583   */\n      tag_194\n      jump\t// in\n    tag_421:\n        /* \"#utility.yul\":17509:17583   */\n      swap2\n      pop\n        /* \"#utility.yul\":17592:17685   */\n      tag_422\n        /* \"#utility.yul\":17681:17684   */\n      dup3\n        /* \"#utility.yul\":17592:17685   */\n      tag_221\n      jump\t// in\n    tag_422:\n        /* \"#utility.yul\":17710:17712   */\n      0x20\n        /* \"#utility.yul\":17705:17708   */\n      dup3\n        /* \"#utility.yul\":17701:17713   */\n      add\n        /* \"#utility.yul\":17694:17713   */\n      swap1\n      pop\n        /* \"#utility.yul\":17353:17719   */\n      swap2\n      swap1\n      pop\n      jump\t// out\n        /* \"#utility.yul\":17725:18144   */\n    tag_123:\n        /* \"#utility.yul\":17891:17895   */\n      0x00\n        /* \"#utility.yul\":17929:17931   */\n      0x20\n        /* \"#utility.yul\":17918:17927   */\n      dup3\n        /* \"#utility.yul\":17914:17932   */\n      add\n        /* \"#utility.yul\":17906:17932   */\n      swap1\n      pop\n        /* \"#utility.yul\":17978:17987   */\n      dup2\n        /* \"#utility.yul\":17972:17976   */\n      dup2\n        /* \"#utility.yul\":17968:17988   */\n      sub\n        /* \"#utility.yul\":17964:17965   */\n      0x00\n        /* \"#utility.yul\":17953:17962   */\n      dup4\n        /* \"#utility.yul\":17949:17966   */\n      add\n        /* \"#utility.yul\":17942:17989   */\n      mstore\n        /* \"#utility.yul\":18006:18137   */\n      tag_424\n        /* \"#utility.yul\":18132:18136   */\n      dup2\n        /* \"#utility.yul\":18006:18137   */\n      tag_222\n      jump\t// in\n    tag_424:\n        /* \"#utility.yul\":17998:18137   */\n      swap1\n      pop\n        /* \"#utility.yul\":17725:18144   */\n      swap2\n      swap1\n      pop\n      jump\t// out\n        /* \"#utility.yul\":18150:18560   */\n    tag_125:\n        /* \"#utility.yul\":18190:18197   */\n      0x00\n        /* \"#utility.yul\":18213:18233   */\n      tag_426\n        /* \"#utility.yul\":18231:18232   */\n      dup3\n        /* \"#utility.yul\":18213:18233   */\n      tag_189\n      jump\t// in\n    tag_426:\n        /* \"#utility.yul\":18208:18233   */\n      swap2\n      pop\n        /* \"#utility.yul\":18247:18267   */\n      tag_427\n        /* \"#utility.yul\":18265:18266   */\n      dup4\n        /* \"#utility.yul\":18247:18267   */\n      tag_189\n      jump\t// in\n    tag_427:\n        /* \"#utility.yul\":18242:18267   */\n      swap3\n      pop\n        /* \"#utility.yul\":18302:18303   */\n      dup3\n        /* \"#utility.yul\":18299:18300   */\n      dup3\n        /* \"#utility.yul\":18295:18304   */\n      mul\n        /* \"#utility.yul\":18324:18354   */\n      tag_428\n        /* \"#utility.yul\":18342:18353   */\n      dup2\n        /* \"#utility.yul\":18324:18354   */\n      tag_189\n      jump\t// in\n    tag_428:\n        /* \"#utility.yul\":18313:18354   */\n      swap2\n      pop\n        /* \"#utility.yul\":18503:18504   */\n      dup3\n        /* \"#utility.yul\":18494:18501   */\n      dup3\n        /* \"#utility.yul\":18490:18505   */\n      div\n        /* \"#utility.yul\":18487:18488   */\n      dup5\n        /* \"#utility.yul\":18484:18506   */\n      eq\n        /* \"#utility.yul\":18464:18465   */\n      dup4\n        /* \"#utility.yul\":18457:18466   */\n      iszero\n        /* \"#utility.yul\":18437:18520   */\n      or\n        /* \"#utility.yul\":18414:18553   */\n      tag_429\n      jumpi\n        /* \"#utility.yul\":18533:18551   */\n      tag_430\n      tag_202\n      jump\t// in\n    tag_430:\n        /* \"#utility.yul\":18414:18553   */\n    tag_429:\n        /* \"#utility.yul\":18198:18560   */\n      pop\n        /* \"#utility.yul\":18150:18560   */\n      swap3\n      swap2\n      pop\n      pop\n      jump\t// out\n        /* \"#utility.yul\":18566:18740   */\n    tag_223:\n        /* \"#utility.yul\":18706:18732   */\n      0x496e636f7272656374207061796d656e7420616d6f756e740000000000000000\n        /* \"#utility.yul\":18702:18703   */\n      0x00\n        /* \"#utility.yul\":18694:18700   */\n      dup3\n        /* \"#utility.yul\":18690:18704   */\n      add\n        /* \"#utility.yul\":18683:18733   */\n      mstore\n        /* \"#utility.yul\":18566:18740   */\n      pop\n      jump\t// out\n        /* \"#utility.yul\":18746:19112   */\n    tag_224:\n        /* \"#utility.yul\":18888:18891   */\n      0x00\n        /* \"#utility.yul\":18909:18976   */\n      tag_433\n        /* \"#utility.yul\":18973:18975   */\n      0x18\n        /* \"#utility.yul\":18968:18971   */\n      dup4\n        /* \"#utility.yul\":18909:18976   */\n      tag_194\n      jump\t// in\n    tag_433:\n        /* \"#utility.yul\":18902:18976   */\n      swap2\n      pop\n        /* \"#utility.yul\":18985:19078   */\n      tag_434\n        /* \"#utility.yul\":19074:19077   */\n      dup3\n        /* \"#utility.yul\":18985:19078   */\n      tag_223\n      jump\t// in\n    tag_434:\n        /* \"#utility.yul\":19103:19105   */\n      0x20\n        /* \"#utility.yul\":19098:19101   */\n      dup3\n        /* \"#utility.yul\":19094:19106   */\n      add\n        /* \"#utility.yul\":19087:19106   */\n      swap1\n      pop\n        /* \"#utility.yul\":18746:19112   */\n      swap2\n      swap1\n      pop\n      jump\t// out\n        /* \"#utility.yul\":19118:19537   */\n    tag_128:\n        /* \"#utility.yul\":19284:19288   */\n      0x00\n        /* \"#utility.yul\":19322:19324   */\n      0x20\n        /* \"#utility.yul\":19311:19320   */\n      dup3\n        /* \"#utility.yul\":19307:19325   */\n      add\n        /* \"#utility.yul\":19299:19325   */\n      swap1\n      pop\n        /* \"#utility.yul\":19371:19380   */\n      dup2\n        /* \"#utility.yul\":19365:19369   */\n      dup2\n        /* \"#utility.yul\":19361:19381   */\n      sub\n        /* \"#utility.yul\":19357:19358   */\n      0x00\n        /* \"#utility.yul\":19346:19355   */\n      dup4\n        /* \"#utility.yul\":19342:19359   */\n      add\n        /* \"#utility.yul\":19335:19382   */\n      mstore\n        /* \"#utility.yul\":19399:19530   */\n      tag_436\n        /* \"#utility.yul\":19525:19529   */\n      dup2\n        /* \"#utility.yul\":19399:19530   */\n      tag_224\n      jump\t// in\n    tag_436:\n        /* \"#utility.yul\":19391:19530   */\n      swap1\n      pop\n        /* \"#utility.yul\":19118:19537   */\n      swap2\n      swap1\n      pop\n      jump\t// out\n        /* \"#utility.yul\":19543:19737   */\n    tag_132:\n        /* \"#utility.yul\":19583:19587   */\n      0x00\n        /* \"#utility.yul\":19603:19623   */\n      tag_438\n        /* \"#utility.yul\":19621:19622   */\n      dup3\n        /* \"#utility.yul\":19603:19623   */\n      tag_189\n      jump\t// in\n    tag_438:\n        /* \"#utility.yul\":19598:19623   */\n      swap2\n      pop\n        /* \"#utility.yul\":19637:19657   */\n      tag_439\n        /* \"#utility.yul\":19655:19656   */\n      dup4\n        /* \"#utility.yul\":19637:19657   */\n      tag_189\n      jump\t// in\n    tag_439:\n        /* \"#utility.yul\":19632:19657   */\n      swap3\n      pop\n        /* \"#utility.yul\":19681:19682   */\n      dup3\n        /* \"#utility.yul\":19678:19679   */\n      dup3\n        /* \"#utility.yul\":19674:19683   */\n      sub\n        /* \"#utility.yul\":19666:19683   */\n      swap1\n      pop\n        /* \"#utility.yul\":19705:19706   */\n      dup2\n        /* \"#utility.yul\":19699:19703   */\n      dup2\n        /* \"#utility.yul\":19696:19707   */\n      gt\n        /* \"#utility.yul\":19693:19730   */\n      iszero\n      tag_440\n      jumpi\n        /* \"#utility.yul\":19710:19728   */\n      tag_441\n      tag_202\n      jump\t// in\n    tag_441:\n        /* \"#utility.yul\":19693:19730   */\n    tag_440:\n        /* \"#utility.yul\":19543:19737   */\n      swap3\n      swap2\n      pop\n      pop\n      jump\t// out\n        /* \"#utility.yul\":19767:20598   */\n    tag_225:\n        /* \"#utility.yul\":19852:19855   */\n      0x00\n        /* \"#utility.yul\":19889:19894   */\n      dup2\n        /* \"#utility.yul\":19883:19895   */\n      sload\n        /* \"#utility.yul\":19918:19954   */\n      tag_443\n        /* \"#utility.yul\":19944:19953   */\n      dup2\n        /* \"#utility.yul\":19918:19954   */\n      tag_77\n      jump\t// in\n    tag_443:\n        /* \"#utility.yul\":19970:20041   */\n      tag_444\n        /* \"#utility.yul\":20034:20040   */\n      dup2\n        /* \"#utility.yul\":20029:20032   */\n      dup7\n        /* \"#utility.yul\":19970:20041   */\n      tag_194\n      jump\t// in\n    tag_444:\n        /* \"#utility.yul\":19963:20041   */\n      swap5\n      pop\n        /* \"#utility.yul\":20072:20073   */\n      0x01\n        /* \"#utility.yul\":20061:20070   */\n      dup3\n        /* \"#utility.yul\":20057:20074   */\n      and\n        /* \"#utility.yul\":20088:20089   */\n      0x00\n        /* \"#utility.yul\":20083:20247   */\n      dup2\n      eq\n      tag_446\n      jumpi\n        /* \"#utility.yul\":20261:20262   */\n      0x01\n        /* \"#utility.yul\":20256:20592   */\n      dup2\n      eq\n      tag_447\n      jumpi\n        /* \"#utility.yul\":20050:20592   */\n      jump(tag_445)\n        /* \"#utility.yul\":20083:20247   */\n    tag_446:\n        /* \"#utility.yul\":20167:20171   */\n      0xff\n        /* \"#utility.yul\":20163:20172   */\n      not\n        /* \"#utility.yul\":20152:20161   */\n      dup4\n        /* \"#utility.yul\":20148:20173   */\n      and\n        /* \"#utility.yul\":20143:20146   */\n      dup7\n        /* \"#utility.yul\":20136:20174   */\n      mstore\n        /* \"#utility.yul\":20227:20233   */\n      dup2\n        /* \"#utility.yul\":20220:20234   */\n      iszero\n        /* \"#utility.yul\":20213:20235   */\n      iszero\n        /* \"#utility.yul\":20207:20211   */\n      0x20\n        /* \"#utility.yul\":20203:20236   */\n      mul\n        /* \"#utility.yul\":20198:20201   */\n      dup7\n        /* \"#utility.yul\":20194:20237   */\n      add\n        /* \"#utility.yul\":20187:20237   */\n      swap4\n      pop\n        /* \"#utility.yul\":20083:20247   */\n      jump(tag_445)\n        /* \"#utility.yul\":20256:20592   */\n    tag_447:\n        /* \"#utility.yul\":20323:20361   */\n      tag_448\n        /* \"#utility.yul\":20355:20360   */\n      dup6\n        /* \"#utility.yul\":20323:20361   */\n      tag_204\n      jump\t// in\n    tag_448:\n        /* \"#utility.yul\":20383:20384   */\n      0x00\n        /* \"#utility.yul\":20397:20551   */\n    tag_449:\n        /* \"#utility.yul\":20411:20417   */\n      dup4\n        /* \"#utility.yul\":20408:20409   */\n      dup2\n        /* \"#utility.yul\":20405:20418   */\n      lt\n        /* \"#utility.yul\":20397:20551   */\n      iszero\n      tag_451\n      jumpi\n        /* \"#utility.yul\":20485:20492   */\n      dup2\n        /* \"#utility.yul\":20479:20493   */\n      sload\n        /* \"#utility.yul\":20475:20476   */\n      dup2\n        /* \"#utility.yul\":20470:20473   */\n      dup10\n        /* \"#utility.yul\":20466:20477   */\n      add\n        /* \"#utility.yul\":20459:20494   */\n      mstore\n        /* \"#utility.yul\":20535:20536   */\n      0x01\n        /* \"#utility.yul\":20526:20533   */\n      dup3\n        /* \"#utility.yul\":20522:20537   */\n      add\n        /* \"#utility.yul\":20511:20537   */\n      swap2\n      pop\n        /* \"#utility.yul\":20433:20437   */\n      0x20\n        /* \"#utility.yul\":20430:20431   */\n      dup2\n        /* \"#utility.yul\":20426:20438   */\n      add\n        /* \"#utility.yul\":20421:20438   */\n      swap1\n      pop\n        /* \"#utility.yul\":20397:20551   */\n      jump(tag_449)\n    tag_451:\n        /* \"#utility.yul\":20580:20581   */\n      dup1\n        /* \"#utility.yul\":20575:20578   */\n      dup9\n        /* \"#utility.yul\":20571:20582   */\n      add\n        /* \"#utility.yul\":20564:20582   */\n      swap6\n      pop\n        /* \"#utility.yul\":20263:20592   */\n      pop\n      pop\n        /* \"#utility.yul\":20050:20592   */\n    tag_445:\n      pop\n        /* \"#utility.yul\":19856:20598   */\n      pop\n      pop\n        /* \"#utility.yul\":19767:20598   */\n      swap3\n      swap2\n      pop\n      pop\n      jump\t// out\n        /* \"#utility.yul\":20604:21353   */\n    tag_134:\n        /* \"#utility.yul\":20826:20830   */\n      0x00\n        /* \"#utility.yul\":20864:20867   */\n      0xa0\n        /* \"#utility.yul\":20853:20862   */\n      dup3\n        /* \"#utility.yul\":20849:20868   */\n      add\n        /* \"#utility.yul\":20841:20868   */\n      swap1\n      pop\n        /* \"#utility.yul\":20878:20949   */\n      tag_453\n        /* \"#utility.yul\":20946:20947   */\n      0x00\n        /* \"#utility.yul\":20935:20944   */\n      dup4\n        /* \"#utility.yul\":20931:20948   */\n      add\n        /* \"#utility.yul\":20922:20928   */\n      dup9\n        /* \"#utility.yul\":20878:20949   */\n      tag_190\n      jump\t// in\n    tag_453:\n        /* \"#utility.yul\":20996:21005   */\n      dup2\n        /* \"#utility.yul\":20990:20994   */\n      dup2\n        /* \"#utility.yul\":20986:21006   */\n      sub\n        /* \"#utility.yul\":20981:20983   */\n      0x20\n        /* \"#utility.yul\":20970:20979   */\n      dup4\n        /* \"#utility.yul\":20966:20984   */\n      add\n        /* \"#utility.yul\":20959:21007   */\n      mstore\n        /* \"#utility.yul\":21024:21099   */\n      tag_454\n        /* \"#utility.yul\":21094:21098   */\n      dup2\n        /* \"#utility.yul\":21085:21091   */\n      dup8\n        /* \"#utility.yul\":21024:21099   */\n      tag_225\n      jump\t// in\n    tag_454:\n        /* \"#utility.yul\":21016:21099   */\n      swap1\n      pop\n        /* \"#utility.yul\":21109:21181   */\n      tag_455\n        /* \"#utility.yul\":21177:21179   */\n      0x40\n        /* \"#utility.yul\":21166:21175   */\n      dup4\n        /* \"#utility.yul\":21162:21180   */\n      add\n        /* \"#utility.yul\":21153:21159   */\n      dup7\n        /* \"#utility.yul\":21109:21181   */\n      tag_190\n      jump\t// in\n    tag_455:\n        /* \"#utility.yul\":21191:21263   */\n      tag_456\n        /* \"#utility.yul\":21259:21261   */\n      0x60\n        /* \"#utility.yul\":21248:21257   */\n      dup4\n        /* \"#utility.yul\":21244:21262   */\n      add\n        /* \"#utility.yul\":21235:21241   */\n      dup6\n        /* \"#utility.yul\":21191:21263   */\n      tag_190\n      jump\t// in\n    tag_456:\n        /* \"#utility.yul\":21273:21346   */\n      tag_457\n        /* \"#utility.yul\":21341:21344   */\n      0x80\n        /* \"#utility.yul\":21330:21339   */\n      dup4\n        /* \"#utility.yul\":21326:21345   */\n      add\n        /* \"#utility.yul\":21317:21323   */\n      dup5\n        /* \"#utility.yul\":21273:21346   */\n      tag_201\n      jump\t// in\n    tag_457:\n        /* \"#utility.yul\":20604:21353   */\n      swap7\n      swap6\n      pop\n      pop\n      pop\n      pop\n      pop\n      pop\n      jump\t// out\n        /* \"#utility.yul\":21359:21679   */\n    tag_149:\n        /* \"#utility.yul\":21474:21478   */\n      0x00\n        /* \"#utility.yul\":21512:21514   */\n      0x40\n        /* \"#utility.yul\":21501:21510   */\n      dup3\n        /* \"#utility.yul\":21497:21515   */\n      add\n        /* \"#utility.yul\":21489:21515   */\n      swap1\n      pop\n        /* \"#utility.yul\":21525:21596   */\n      tag_459\n        /* \"#utility.yul\":21593:21594   */\n      0x00\n        /* \"#utility.yul\":21582:21591   */\n      dup4\n        /* \"#utility.yul\":21578:21595   */\n      add\n        /* \"#utility.yul\":21569:21575   */\n      dup6\n        /* \"#utility.yul\":21525:21596   */\n      tag_190\n      jump\t// in\n    tag_459:\n        /* \"#utility.yul\":21606:21672   */\n      tag_460\n        /* \"#utility.yul\":21668:21670   */\n      0x20\n        /* \"#utility.yul\":21657:21666   */\n      dup4\n        /* \"#utility.yul\":21653:21671   */\n      add\n        /* \"#utility.yul\":21644:21650   */\n      dup5\n        /* \"#utility.yul\":21606:21672   */\n      tag_198\n      jump\t// in\n    tag_460:\n        /* \"#utility.yul\":21359:21679   */\n      swap4\n      swap3\n      pop\n      pop\n      pop\n      jump\t// out\n        /* \"#utility.yul\":21685:21909   */\n    tag_226:\n        /* \"#utility.yul\":21825:21859   */\n      0x4f6e6c7920746865206f776e65722063616e2063616c6c20746869732066756e\n        /* \"#utility.yul\":21821:21822   */\n      0x00\n        /* \"#utility.yul\":21813:21819   */\n      dup3\n        /* \"#utility.yul\":21809:21823   */\n      add\n        /* \"#utility.yul\":21802:21860   */\n      mstore\n        /* \"#utility.yul\":21894:21901   */\n      0x6374696f6e000000000000000000000000000000000000000000000000000000\n        /* \"#utility.yul\":21889:21891   */\n      0x20\n        /* \"#utility.yul\":21881:21887   */\n      dup3\n        /* \"#utility.yul\":21877:21892   */\n      add\n        /* \"#utility.yul\":21870:21902   */\n      mstore\n        /* \"#utility.yul\":21685:21909   */\n      pop\n      jump\t// out\n        /* \"#utility.yul\":21915:22281   */\n    tag_227:\n        /* \"#utility.yul\":22057:22060   */\n      0x00\n        /* \"#utility.yul\":22078:22145   */\n      tag_463\n        /* \"#utility.yul\":22142:22144   */\n      0x25\n        /* \"#utility.yul\":22137:22140   */\n      dup4\n        /* \"#utility.yul\":22078:22145   */\n      tag_194\n      jump\t// in\n    tag_463:\n        /* \"#utility.yul\":22071:22145   */\n      swap2\n      pop\n        /* \"#utility.yul\":22154:22247   */\n      tag_464\n        /* \"#utility.yul\":22243:22246   */\n      dup3\n        /* \"#utility.yul\":22154:22247   */\n      tag_226\n      jump\t// in\n    tag_464:\n        /* \"#utility.yul\":22272:22274   */\n      0x40\n        /* \"#utility.yul\":22267:22270   */\n      dup3\n        /* \"#utility.yul\":22263:22275   */\n      add\n        /* \"#utility.yul\":22256:22275   */\n      swap1\n      pop\n        /* \"#utility.yul\":21915:22281   */\n      swap2\n      swap1\n      pop\n      jump\t// out\n        /* \"#utility.yul\":22287:22706   */\n    tag_153:\n        /* \"#utility.yul\":22453:22457   */\n      0x00\n        /* \"#utility.yul\":22491:22493   */\n      0x20\n        /* \"#utility.yul\":22480:22489   */\n      dup3\n        /* \"#utility.yul\":22476:22494   */\n      add\n        /* \"#utility.yul\":22468:22494   */\n      swap1\n      pop\n        /* \"#utility.yul\":22540:22549   */\n      dup2\n        /* \"#utility.yul\":22534:22538   */\n      dup2\n        /* \"#utility.yul\":22530:22550   */\n      sub\n        /* \"#utility.yul\":22526:22527   */\n      0x00\n        /* \"#utility.yul\":22515:22524   */\n      dup4\n        /* \"#utility.yul\":22511:22528   */\n      add\n        /* \"#utility.yul\":22504:22551   */\n      mstore\n        /* \"#utility.yul\":22568:22699   */\n      tag_466\n        /* \"#utility.yul\":22694:22698   */\n      dup2\n        /* \"#utility.yul\":22568:22699   */\n      tag_227\n      jump\t// in\n    tag_466:\n        /* \"#utility.yul\":22560:22699   */\n      swap1\n      pop\n        /* \"#utility.yul\":22287:22706   */\n      swap2\n      swap1\n      pop\n      jump\t// out\n        /* \"#utility.yul\":22712:22890   */\n    tag_228:\n        /* \"#utility.yul\":22852:22882   */\n      0x50726f64756374206e616d652063616e6e6f7420626520656d70747900000000\n        /* \"#utility.yul\":22848:22849   */\n      0x00\n        /* \"#utility.yul\":22840:22846   */\n      dup3\n        /* \"#utility.yul\":22836:22850   */\n      add\n        /* \"#utility.yul\":22829:22883   */\n      mstore\n        /* \"#utility.yul\":22712:22890   */\n      pop\n      jump\t// out\n        /* \"#utility.yul\":22896:23262   */\n    tag_229:\n        /* \"#utility.yul\":23038:23041   */\n      0x00\n        /* \"#utility.yul\":23059:23126   */\n      tag_469\n        /* \"#utility.yul\":23123:23125   */\n      0x1c\n        /* \"#utility.yul\":23118:23121   */\n      dup4\n        /* \"#utility.yul\":23059:23126   */\n      tag_194\n      jump\t// in\n    tag_469:\n        /* \"#utility.yul\":23052:23126   */\n      swap2\n      pop\n        /* \"#utility.yul\":23135:23228   */\n      tag_470\n        /* \"#utility.yul\":23224:23227   */\n      dup3\n        /* \"#utility.yul\":23135:23228   */\n      tag_228\n      jump\t// in\n    tag_470:\n        /* \"#utility.yul\":23253:23255   */\n      0x20\n        /* \"#utility.yul\":23248:23251   */\n      dup3\n        /* \"#utility.yul\":23244:23256   */\n      add\n        /* \"#utility.yul\":23237:23256   */\n      swap1\n      pop\n        /* \"#utility.yul\":22896:23262   */\n      swap2\n      swap1\n      pop\n      jump\t// out\n        /* \"#utility.yul\":23268:23687   */\n    tag_157:\n        /* \"#utility.yul\":23434:23438   */\n      0x00\n        /* \"#utility.yul\":23472:23474   */\n      0x20\n        /* \"#utility.yul\":23461:23470   */\n      dup3\n        /* \"#utility.yul\":23457:23475   */\n      add\n        /* \"#utility.yul\":23449:23475   */\n      swap1\n      pop\n        /* \"#utility.yul\":23521:23530   */\n      dup2\n        /* \"#utility.yul\":23515:23519   */\n      dup2\n        /* \"#utility.yul\":23511:23531   */\n      sub\n        /* \"#utility.yul\":23507:23508   */\n      0x00\n        /* \"#utility.yul\":23496:23505   */\n      dup4\n        /* \"#utility.yul\":23492:23509   */\n      add\n        /* \"#utility.yul\":23485:23532   */\n      mstore\n        /* \"#utility.yul\":23549:23680   */\n      tag_472\n        /* \"#utility.yul\":23675:23679   */\n      dup2\n        /* \"#utility.yul\":23549:23680   */\n      tag_229\n      jump\t// in\n    tag_472:\n        /* \"#utility.yul\":23541:23680   */\n      swap1\n      pop\n        /* \"#utility.yul\":23268:23687   */\n      swap2\n      swap1\n      pop\n      jump\t// out\n        /* \"#utility.yul\":23693:23915   */\n    tag_230:\n        /* \"#utility.yul\":23833:23867   */\n      0x50726f64756374206465736372697074696f6e2063616e6e6f7420626520656d\n        /* \"#utility.yul\":23829:23830   */\n      0x00\n        /* \"#utility.yul\":23821:23827   */\n      dup3\n        /* \"#utility.yul\":23817:23831   */\n      add\n        /* \"#utility.yul\":23810:23868   */\n      mstore\n        /* \"#utility.yul\":23902:23907   */\n      0x7074790000000000000000000000000000000000000000000000000000000000\n        /* \"#utility.yul\":23897:23899   */\n      0x20\n        /* \"#utility.yul\":23889:23895   */\n      dup3\n        /* \"#utility.yul\":23885:23900   */\n      add\n        /* \"#utility.yul\":23878:23908   */\n      mstore\n        /* \"#utility.yul\":23693:23915   */\n      pop\n      jump\t// out\n        /* \"#utility.yul\":23921:24287   */\n    tag_231:\n        /* \"#utility.yul\":24063:24066   */\n      0x00\n        /* \"#utility.yul\":24084:24151   */\n      tag_475\n        /* \"#utility.yul\":24148:24150   */\n      0x23\n        /* \"#utility.yul\":24143:24146   */\n      dup4\n        /* \"#utility.yul\":24084:24151   */\n      tag_194\n      jump\t// in\n    tag_475:\n        /* \"#utility.yul\":24077:24151   */\n      swap2\n      pop\n        /* \"#utility.yul\":24160:24253   */\n      tag_476\n        /* \"#utility.yul\":24249:24252   */\n      dup3\n        /* \"#utility.yul\":24160:24253   */\n      tag_230\n      jump\t// in\n    tag_476:\n        /* \"#utility.yul\":24278:24280   */\n      0x40\n        /* \"#utility.yul\":24273:24276   */\n      dup3\n        /* \"#utility.yul\":24269:24281   */\n      add\n        /* \"#utility.yul\":24262:24281   */\n      swap1\n      pop\n        /* \"#utility.yul\":23921:24287   */\n      swap2\n      swap1\n      pop\n      jump\t// out\n        /* \"#utility.yul\":24293:24712   */\n    tag_160:\n        /* \"#utility.yul\":24459:24463   */\n      0x00\n        /* \"#utility.yul\":24497:24499   */\n      0x20\n        /* \"#utility.yul\":24486:24495   */\n      dup3\n        /* \"#utility.yul\":24482:24500   */\n      add\n        /* \"#utility.yul\":24474:24500   */\n      swap1\n      pop\n        /* \"#utility.yul\":24546:24555   */\n      dup2\n        /* \"#utility.yul\":24540:24544   */\n      dup2\n        /* \"#utility.yul\":24536:24556   */\n      sub\n        /* \"#utility.yul\":24532:24533   */\n      0x00\n        /* \"#utility.yul\":24521:24530   */\n      dup4\n        /* \"#utility.yul\":24517:24534   */\n      add\n        /* \"#utility.yul\":24510:24557   */\n      mstore\n        /* \"#utility.yul\":24574:24705   */\n      tag_478\n        /* \"#utility.yul\":24700:24704   */\n      dup2\n        /* \"#utility.yul\":24574:24705   */\n      tag_231\n      jump\t// in\n    tag_478:\n        /* \"#utility.yul\":24566:24705   */\n      swap1\n      pop\n        /* \"#utility.yul\":24293:24712   */\n      swap2\n      swap1\n      pop\n      jump\t// out\n        /* \"#utility.yul\":24718:24941   */\n    tag_232:\n        /* \"#utility.yul\":24858:24892   */\n      0x50726f647563742073746f636b206d7573742062652067726561746572207468\n        /* \"#utility.yul\":24854:24855   */\n      0x00\n        /* \"#utility.yul\":24846:24852   */\n      dup3\n        /* \"#utility.yul\":24842:24856   */\n      add\n        /* \"#utility.yul\":24835:24893   */\n      mstore\n        /* \"#utility.yul\":24927:24933   */\n      0x616e203000000000000000000000000000000000000000000000000000000000\n        /* \"#utility.yul\":24922:24924   */\n      0x20\n        /* \"#utility.yul\":24914:24920   */\n      dup3\n        /* \"#utility.yul\":24910:24925   */\n      add\n        /* \"#utility.yul\":24903:24934   */\n      mstore\n        /* \"#utility.yul\":24718:24941   */\n      pop\n      jump\t// out\n        /* \"#utility.yul\":24947:25313   */\n    tag_233:\n        /* \"#utility.yul\":25089:25092   */\n      0x00\n        /* \"#utility.yul\":25110:25177   */\n      tag_481\n        /* \"#utility.yul\":25174:25176   */\n      0x24\n        /* \"#utility.yul\":25169:25172   */\n      dup4\n        /* \"#utility.yul\":25110:25177   */\n      tag_194\n      jump\t// in\n    tag_481:\n        /* \"#utility.yul\":25103:25177   */\n      swap2\n      pop\n        /* \"#utility.yul\":25186:25279   */\n      tag_482\n        /* \"#utility.yul\":25275:25278   */\n      dup3\n        /* \"#utility.yul\":25186:25279   */\n      tag_232\n      jump\t// in\n    tag_482:\n        /* \"#utility.yul\":25304:25306   */\n      0x40\n        /* \"#utility.yul\":25299:25302   */\n      dup3\n        /* \"#utility.yul\":25295:25307   */\n      add\n        /* \"#utility.yul\":25288:25307   */\n      swap1\n      pop\n        /* \"#utility.yul\":24947:25313   */\n      swap2\n      swap1\n      pop\n      jump\t// out\n        /* \"#utility.yul\":25319:25738   */\n    tag_163:\n        /* \"#utility.yul\":25485:25489   */\n      0x00\n        /* \"#utility.yul\":25523:25525   */\n      0x20\n        /* \"#utility.yul\":25512:25521   */\n      dup3\n        /* \"#utility.yul\":25508:25526   */\n      add\n        /* \"#utility.yul\":25500:25526   */\n      swap1\n      pop\n        /* \"#utility.yul\":25572:25581   */\n      dup2\n        /* \"#utility.yul\":25566:25570   */\n      dup2\n        /* \"#utility.yul\":25562:25582   */\n      sub\n        /* \"#utility.yul\":25558:25559   */\n      0x00\n        /* \"#utility.yul\":25547:25556   */\n      dup4\n        /* \"#utility.yul\":25543:25560   */\n      add\n        /* \"#utility.yul\":25536:25583   */\n      mstore\n        /* \"#utility.yul\":25600:25731   */\n      tag_484\n        /* \"#utility.yul\":25726:25730   */\n      dup2\n        /* \"#utility.yul\":25600:25731   */\n      tag_233\n      jump\t// in\n    tag_484:\n        /* \"#utility.yul\":25592:25731   */\n      swap1\n      pop\n        /* \"#utility.yul\":25319:25738   */\n      swap2\n      swap1\n      pop\n      jump\t// out\n        /* \"#utility.yul\":25744:25970   */\n    tag_234:\n        /* \"#utility.yul\":25884:25918   */\n      0x50726f647563742065787069726174696f6e20646174652063616e6e6f742062\n        /* \"#utility.yul\":25880:25881   */\n      0x00\n        /* \"#utility.yul\":25872:25878   */\n      dup3\n        /* \"#utility.yul\":25868:25882   */\n      add\n        /* \"#utility.yul\":25861:25919   */\n      mstore\n        /* \"#utility.yul\":25953:25962   */\n      0x6520656d70747900000000000000000000000000000000000000000000000000\n        /* \"#utility.yul\":25948:25950   */\n      0x20\n        /* \"#utility.yul\":25940:25946   */\n      dup3\n        /* \"#utility.yul\":25936:25951   */\n      add\n        /* \"#utility.yul\":25929:25963   */\n      mstore\n        /* \"#utility.yul\":25744:25970   */\n      pop\n      jump\t// out\n        /* \"#utility.yul\":25976:26342   */\n    tag_235:\n        /* \"#utility.yul\":26118:26121   */\n      0x00\n        /* \"#utility.yul\":26139:26206   */\n      tag_487\n        /* \"#utility.yul\":26203:26205   */\n      0x27\n        /* \"#utility.yul\":26198:26201   */\n      dup4\n        /* \"#utility.yul\":26139:26206   */\n      tag_194\n      jump\t// in\n    tag_487:\n        /* \"#utility.yul\":26132:26206   */\n      swap2\n      pop\n        /* \"#utility.yul\":26215:26308   */\n      tag_488\n        /* \"#utility.yul\":26304:26307   */\n      dup3\n        /* \"#utility.yul\":26215:26308   */\n      tag_234\n      jump\t// in\n    tag_488:\n        /* \"#utility.yul\":26333:26335   */\n      0x40\n        /* \"#utility.yul\":26328:26331   */\n      dup3\n        /* \"#utility.yul\":26324:26336   */\n      add\n        /* \"#utility.yul\":26317:26336   */\n      swap1\n      pop\n        /* \"#utility.yul\":25976:26342   */\n      swap2\n      swap1\n      pop\n      jump\t// out\n        /* \"#utility.yul\":26348:26767   */\n    tag_166:\n        /* \"#utility.yul\":26514:26518   */\n      0x00\n        /* \"#utility.yul\":26552:26554   */\n      0x20\n        /* \"#utility.yul\":26541:26550   */\n      dup3\n        /* \"#utility.yul\":26537:26555   */\n      add\n        /* \"#utility.yul\":26529:26555   */\n      swap1\n      pop\n        /* \"#utility.yul\":26601:26610   */\n      dup2\n        /* \"#utility.yul\":26595:26599   */\n      dup2\n        /* \"#utility.yul\":26591:26611   */\n      sub\n        /* \"#utility.yul\":26587:26588   */\n      0x00\n        /* \"#utility.yul\":26576:26585   */\n      dup4\n        /* \"#utility.yul\":26572:26589   */\n      add\n        /* \"#utility.yul\":26565:26612   */\n      mstore\n        /* \"#utility.yul\":26629:26760   */\n      tag_490\n        /* \"#utility.yul\":26755:26759   */\n      dup2\n        /* \"#utility.yul\":26629:26760   */\n      tag_235\n      jump\t// in\n    tag_490:\n        /* \"#utility.yul\":26621:26760   */\n      swap1\n      pop\n        /* \"#utility.yul\":26348:26767   */\n      swap2\n      swap1\n      pop\n      jump\t// out\n        /* \"#utility.yul\":26773:26955   */\n    tag_236:\n        /* \"#utility.yul\":26913:26947   */\n      0x50726f647563742070726963652063616e6e6f74206265206e65676174697665\n        /* \"#utility.yul\":26909:26910   */\n      0x00\n        /* \"#utility.yul\":26901:26907   */\n      dup3\n        /* \"#utility.yul\":26897:26911   */\n      add\n        /* \"#utility.yul\":26890:26948   */\n      mstore\n        /* \"#utility.yul\":26773:26955   */\n      pop\n      jump\t// out\n        /* \"#utility.yul\":26961:27327   */\n    tag_237:\n        /* \"#utility.yul\":27103:27106   */\n      0x00\n        /* \"#utility.yul\":27124:27191   */\n      tag_493\n        /* \"#utility.yul\":27188:27190   */\n      0x20\n        /* \"#utility.yul\":27183:27186   */\n      dup4\n        /* \"#utility.yul\":27124:27191   */\n      tag_194\n      jump\t// in\n    tag_493:\n        /* \"#utility.yul\":27117:27191   */\n      swap2\n      pop\n        /* \"#utility.yul\":27200:27293   */\n      tag_494\n        /* \"#utility.yul\":27289:27292   */\n      dup3\n        /* \"#utility.yul\":27200:27293   */\n      tag_236\n      jump\t// in\n    tag_494:\n        /* \"#utility.yul\":27318:27320   */\n      0x20\n        /* \"#utility.yul\":27313:27316   */\n      dup3\n        /* \"#utility.yul\":27309:27321   */\n      add\n        /* \"#utility.yul\":27302:27321   */\n      swap1\n      pop\n        /* \"#utility.yul\":26961:27327   */\n      swap2\n      swap1\n      pop\n      jump\t// out\n        /* \"#utility.yul\":27333:27752   */\n    tag_169:\n        /* \"#utility.yul\":27499:27503   */\n      0x00\n        /* \"#utility.yul\":27537:27539   */\n      0x20\n        /* \"#utility.yul\":27526:27535   */\n      dup3\n        /* \"#utility.yul\":27522:27540   */\n      add\n        /* \"#utility.yul\":27514:27540   */\n      swap1\n      pop\n        /* \"#utility.yul\":27586:27595   */\n      dup2\n        /* \"#utility.yul\":27580:27584   */\n      dup2\n        /* \"#utility.yul\":27576:27596   */\n      sub\n        /* \"#utility.yul\":27572:27573   */\n      0x00\n        /* \"#utility.yul\":27561:27570   */\n      dup4\n        /* \"#utility.yul\":27557:27574   */\n      add\n        /* \"#utility.yul\":27550:27597   */\n      mstore\n        /* \"#utility.yul\":27614:27745   */\n      tag_496\n        /* \"#utility.yul\":27740:27744   */\n      dup2\n        /* \"#utility.yul\":27614:27745   */\n      tag_237\n      jump\t// in\n    tag_496:\n        /* \"#utility.yul\":27606:27745   */\n      swap1\n      pop\n        /* \"#utility.yul\":27333:27752   */\n      swap2\n      swap1\n      pop\n      jump\t// out\n        /* \"#utility.yul\":27758:28917   */\n    tag_175:\n        /* \"#utility.yul\":28079:28083   */\n      0x00\n        /* \"#utility.yul\":28117:28120   */\n      0xe0\n        /* \"#utility.yul\":28106:28115   */\n      dup3\n        /* \"#utility.yul\":28102:28121   */\n      add\n        /* \"#utility.yul\":28094:28121   */\n      swap1\n      pop\n        /* \"#utility.yul\":28131:28202   */\n      tag_498\n        /* \"#utility.yul\":28199:28200   */\n      0x00\n        /* \"#utility.yul\":28188:28197   */\n      dup4\n        /* \"#utility.yul\":28184:28201   */\n      add\n        /* \"#utility.yul\":28175:28181   */\n      dup11\n        /* \"#utility.yul\":28131:28202   */\n      tag_190\n      jump\t// in\n    tag_498:\n        /* \"#utility.yul\":28249:28258   */\n      dup2\n        /* \"#utility.yul\":28243:28247   */\n      dup2\n        /* \"#utility.yul\":28239:28259   */\n      sub\n        /* \"#utility.yul\":28234:28236   */\n      0x20\n        /* \"#utility.yul\":28223:28232   */\n      dup4\n        /* \"#utility.yul\":28219:28237   */\n      add\n        /* \"#utility.yul\":28212:28260   */\n      mstore\n        /* \"#utility.yul\":28277:28355   */\n      tag_499\n        /* \"#utility.yul\":28350:28354   */\n      dup2\n        /* \"#utility.yul\":28341:28347   */\n      dup10\n        /* \"#utility.yul\":28277:28355   */\n      tag_196\n      jump\t// in\n    tag_499:\n        /* \"#utility.yul\":28269:28355   */\n      swap1\n      pop\n        /* \"#utility.yul\":28402:28411   */\n      dup2\n        /* \"#utility.yul\":28396:28400   */\n      dup2\n        /* \"#utility.yul\":28392:28412   */\n      sub\n        /* \"#utility.yul\":28387:28389   */\n      0x40\n        /* \"#utility.yul\":28376:28385   */\n      dup4\n        /* \"#utility.yul\":28372:28390   */\n      add\n        /* \"#utility.yul\":28365:28413   */\n      mstore\n        /* \"#utility.yul\":28430:28508   */\n      tag_500\n        /* \"#utility.yul\":28503:28507   */\n      dup2\n        /* \"#utility.yul\":28494:28500   */\n      dup9\n        /* \"#utility.yul\":28430:28508   */\n      tag_196\n      jump\t// in\n    tag_500:\n        /* \"#utility.yul\":28422:28508   */\n      swap1\n      pop\n        /* \"#utility.yul\":28518:28590   */\n      tag_501\n        /* \"#utility.yul\":28586:28588   */\n      0x60\n        /* \"#utility.yul\":28575:28584   */\n      dup4\n        /* \"#utility.yul\":28571:28589   */\n      add\n        /* \"#utility.yul\":28562:28568   */\n      dup8\n        /* \"#utility.yul\":28518:28590   */\n      tag_190\n      jump\t// in\n    tag_501:\n        /* \"#utility.yul\":28638:28647   */\n      dup2\n        /* \"#utility.yul\":28632:28636   */\n      dup2\n        /* \"#utility.yul\":28628:28648   */\n      sub\n        /* \"#utility.yul\":28622:28625   */\n      0x80\n        /* \"#utility.yul\":28611:28620   */\n      dup4\n        /* \"#utility.yul\":28607:28626   */\n      add\n        /* \"#utility.yul\":28600:28649   */\n      mstore\n        /* \"#utility.yul\":28666:28744   */\n      tag_502\n        /* \"#utility.yul\":28739:28743   */\n      dup2\n        /* \"#utility.yul\":28730:28736   */\n      dup7\n        /* \"#utility.yul\":28666:28744   */\n      tag_196\n      jump\t// in\n    tag_502:\n        /* \"#utility.yul\":28658:28744   */\n      swap1\n      pop\n        /* \"#utility.yul\":28754:28827   */\n      tag_503\n        /* \"#utility.yul\":28822:28825   */\n      0xa0\n        /* \"#utility.yul\":28811:28820   */\n      dup4\n        /* \"#utility.yul\":28807:28826   */\n      add\n        /* \"#utility.yul\":28798:28804   */\n      dup6\n        /* \"#utility.yul\":28754:28827   */\n      tag_190\n      jump\t// in\n    tag_503:\n        /* \"#utility.yul\":28837:28910   */\n      tag_504\n        /* \"#utility.yul\":28905:28908   */\n      0xc0\n        /* \"#utility.yul\":28894:28903   */\n      dup4\n        /* \"#utility.yul\":28890:28909   */\n      add\n        /* \"#utility.yul\":28881:28887   */\n      dup5\n        /* \"#utility.yul\":28837:28910   */\n      tag_201\n      jump\t// in\n    tag_504:\n        /* \"#utility.yul\":27758:28917   */\n      swap9\n      swap8\n      pop\n      pop\n      pop\n      pop\n      pop\n      pop\n      pop\n      pop\n      jump\t// out\n\n    auxdata: 0xa2646970667358221220d6e20ceab3e3614e34a65048c289f6136300d470aeda782f747da7b45a62cfdc64736f6c63430008120033\n}\n",
				"bytecode": {
					"linkReferences": {},
					"object": "60806040526000805534801561001457600080fd5b5033600260006101000a81548173ffffffffffffffffffffffffffffffffffffffff021916908373ffffffffffffffffffffffffffffffffffffffff1602179055506000600381905550611f978061006d6000396000f3fe6080604052600436106100915760003560e01c80638da5cb5b116100595780638da5cb5b146101ae578063a0440426146101d9578063a49eefa0146101f5578063e0f6ef871461021e578063e324eb431461024957610091565b8063292a45851461009657806358671730146100bf5780636813b53b146100ea5780637acc0b201461012b5780638d9776721461016d575b600080fd5b3480156100a257600080fd5b506100bd60048036038101906100b8919061115e565b610272565b005b3480156100cb57600080fd5b506100d4610372565b6040516100e191906111ef565b60405180910390f35b3480156100f657600080fd5b50610111600480360381019061010c9190611236565b610378565b6040516101229594939291906112e2565b60405180910390f35b34801561013757600080fd5b50610152600480360381019061014d9190611236565b6105b6565b6040516101649695949392919061134a565b60405180910390f35b34801561017957600080fd5b50610194600480360381019061018f9190611236565b61078a565b6040516101a59594939291906113db565b60405180910390f35b3480156101ba57600080fd5b506101c36108dd565b6040516101d0919061147d565b60405180910390f35b6101f360048036038101906101ee9190611498565b610903565b005b34801561020157600080fd5b5061021c60048036038101906102179190611236565b610ace565b005b34801561022a57600080fd5b50610233610d10565b60405161024091906111ef565b60405180910390f35b34801561025557600080fd5b50610270600480360381019061026b91906114d8565b610d16565b005b600080815480929190610284906115d6565b91905055506040518060a0016040528060005481526020018381526020018281526020016000151581526020014281525060016000805481526020019081526020016000206000820151816000015560208201518160010190816102e8919061182a565b5060408201518160020190816102fe919061182a565b5060608201518160030160006101000a81548160ff021916908315150217905550608082015181600401559050507f6549102bed7d1bb5ec529ee14e2ca60ffc1f47f66d4cc6ca713220613cc64c2560005483836000426040516103669594939291906113db565b60405180910390a15050565b60005481565b606080600060606000808611801561039257506003548611155b6103d1576040517f08c379a00000000000000000000000000000000000000000000000000000000081526004016103c890611948565b60405180910390fd5b60006004600088815260200190815260200160002090508060010181600201826003015483600401846005015484805461040a9061164d565b80601f01602080910402602001604051908101604052809291908181526020018280546104369061164d565b80156104835780601f1061045857610100808354040283529160200191610483565b820191906000526020600020905b81548152906001019060200180831161046657829003601f168201915b505050505094508380546104969061164d565b80601f01602080910402602001604051908101604052809291908181526020018280546104c29061164d565b801561050f5780601f106104e45761010080835404028352916020019161050f565b820191906000526020600020905b8154815290600101906020018083116104f257829003601f168201915b505050505093508180546105229061164d565b80601f016020809104026020016040519081016040528092919081815260200182805461054e9061164d565b801561059b5780601f106105705761010080835404028352916020019161059b565b820191906000526020600020905b81548152906001019060200180831161057e57829003601f168201915b50505050509150955095509550955095505091939590929450565b60046020528060005260406000206000915090508060000154908060010180546105df9061164d565b80601f016020809104026020016040519081016040528092919081815260200182805461060b9061164d565b80156106585780601f1061062d57610100808354040283529160200191610658565b820191906000526020600020905b81548152906001019060200180831161063b57829003601f168201915b50505050509080600201805461066d9061164d565b80601f01602080910402602001604051908101604052809291908181526020018280546106999061164d565b80156106e65780601f106106bb576101008083540402835291602001916106e6565b820191906000526020600020905b8154815290600101906020018083116106c957829003601f168201915b5050505050908060030154908060040180546107019061164d565b80601f016020809104026020016040519081016040528092919081815260200182805461072d9061164d565b801561077a5780601f1061074f5761010080835404028352916020019161077a565b820191906000526020600020905b81548152906001019060200180831161075d57829003601f168201915b5050505050908060050154905086565b60016020528060005260406000206000915090508060000154908060010180546107b39061164d565b80601f01602080910402602001604051908101604052809291908181526020018280546107df9061164d565b801561082c5780601f106108015761010080835404028352916020019161082c565b820191906000526020600020905b81548152906001019060200180831161080f57829003601f168201915b5050505050908060020180546108419061164d565b80601f016020809104026020016040519081016040528092919081815260200182805461086d9061164d565b80156108ba5780601f1061088f576101008083540402835291602001916108ba565b820191906000526020600020905b81548152906001019060200180831161089d57829003601f168201915b5050505050908060030160009054906101000a900460ff16908060040154905085565b600260009054906101000a900473ffffffffffffffffffffffffffffffffffffffff1681565b60008211801561091557506003548211155b610954576040517f08c379a000000000000000000000000000000000000000000000000000000000815260040161094b90611948565b60405180910390fd5b600060046000848152602001908152602001600020905081816003015410156109b2576040517f08c379a00000000000000000000000000000000000000000000000000000000081526004016109a9906119b4565b60405180910390fd5b8181600501546109c291906119d4565b3414610a03576040517f08c379a00000000000000000000000000000000000000000000000000000000081526004016109fa90611a62565b60405180910390fd5b600260009054906101000a900473ffffffffffffffffffffffffffffffffffffffff1673ffffffffffffffffffffffffffffffffffffffff166108fc349081150290604051600060405180830381858888f19350505050158015610a6b573d6000803e3d6000fd5b5081816003016000828254610a809190611a82565b925050819055507fd922a2fffde7c04efb85e105cb4324b2ebe96919a6a107b6c63afb85484b8da98382600101843433604051610ac1959493929190611b3a565b60405180910390a1505050565b6000600160008381526020019081526020016000206040518060a001604052908160008201548152602001600182018054610b089061164d565b80601f0160208091040260200160405190810160405280929190818152602001828054610b349061164d565b8015610b815780601f10610b5657610100808354040283529160200191610b81565b820191906000526020600020905b815481529060010190602001808311610b6457829003601f168201915b50505050508152602001600282018054610b9a9061164d565b80601f0160208091040260200160405190810160405280929190818152602001828054610bc69061164d565b8015610c135780601f10610be857610100808354040283529160200191610c13565b820191906000526020600020905b815481529060010190602001808311610bf657829003601f168201915b505050505081526020016003820160009054906101000a900460ff1615151515815260200160048201548152505090508060600151158160600190151590811515815250508060016000848152602001908152602001600020600082015181600001556020820151816001019081610c8b919061182a565b506040820151816002019081610ca1919061182a565b5060608201518160030160006101000a81548160ff021916908315150217905550608082015181600401559050507f54cf0d6dc9bb13ae254bd967765b3f04057bb2b7a01ca4207bd72e7f5f32c5cd828260600151604051610d04929190611b94565b60405180910390a15050565b60035481565b600260009054906101000a900473ffffffffffffffffffffffffffffffffffffffff1673ffffffffffffffffffffffffffffffffffffffff163373ffffffffffffffffffffffffffffffffffffffff1614610da6576040517f08c379a0000000000000000000000000000000000000000000000000000000008152600401610d9d90611c2f565b60405180910390fd5b6000855111610dea576040517f08c379a0000000000000000000000000000000000000000000000000000000008152600401610de190611c9b565b60405180910390fd5b6000845111610e2e576040517f08c379a0000000000000000000000000000000000000000000000000000000008152600401610e2590611d2d565b60405180910390fd5b60008311610e71576040517f08c379a0000000000000000000000000000000000000000000000000000000008152600401610e6890611dbf565b60405180910390fd5b6000825111610eb5576040517f08c379a0000000000000000000000000000000000000000000000000000000008152600401610eac90611e51565b60405180910390fd5b6000811015610ef9576040517f08c379a0000000000000000000000000000000000000000000000000000000008152600401610ef090611ebd565b60405180910390fd5b60036000815480929190610f0c906115d6565b91905055506040518060c00160405280600354815260200186815260200185815260200184815260200183815260200182815250600460006003548152602001908152602001600020600082015181600001556020820151816001019081610f74919061182a565b506040820151816002019081610f8a919061182a565b50606082015181600301556080820151816004019081610faa919061182a565b5060a082015181600501559050507f5b97192fbdac5f86e3c2357b10ae099eb30b9263a92be777b80f46d3c59c8648600354868686868633604051610ff59796959493929190611edd565b60405180910390a15050505050565b6000604051905090565b600080fd5b600080fd5b600080fd5b600080fd5b6000601f19601f8301169050919050565b7f4e487b7100000000000000000000000000000000000000000000000000000000600052604160045260246000fd5b61106b82611022565b810181811067ffffffffffffffff8211171561108a57611089611033565b5b80604052505050565b600061109d611004565b90506110a98282611062565b919050565b600067ffffffffffffffff8211156110c9576110c8611033565b5b6110d282611022565b9050602081019050919050565b82818337600083830152505050565b60006111016110fc846110ae565b611093565b90508281526020810184848401111561111d5761111c61101d565b5b6111288482856110df565b509392505050565b600082601f83011261114557611144611018565b5b81356111558482602086016110ee565b91505092915050565b600080604083850312156111755761117461100e565b5b600083013567ffffffffffffffff81111561119357611192611013565b5b61119f85828601611130565b925050602083013567ffffffffffffffff8111156111c0576111bf611013565b5b6111cc85828601611130565b9150509250929050565b6000819050919050565b6111e9816111d6565b82525050565b600060208201905061120460008301846111e0565b92915050565b611213816111d6565b811461121e57600080fd5b50565b6000813590506112308161120a565b92915050565b60006020828403121561124c5761124b61100e565b5b600061125a84828501611221565b91505092915050565b600081519050919050565b600082825260208201905092915050565b60005b8381101561129d578082015181840152602081019050611282565b60008484015250505050565b60006112b482611263565b6112be818561126e565b93506112ce81856020860161127f565b6112d781611022565b840191505092915050565b600060a08201905081810360008301526112fc81886112a9565b9050818103602083015261131081876112a9565b905061131f60408301866111e0565b818103606083015261133181856112a9565b905061134060808301846111e0565b9695505050505050565b600060c08201905061135f60008301896111e0565b818103602083015261137181886112a9565b9050818103604083015261138581876112a9565b905061139460608301866111e0565b81810360808301526113a681856112a9565b90506113b560a08301846111e0565b979650505050505050565b60008115159050919050565b6113d5816113c0565b82525050565b600060a0820190506113f060008301886111e0565b818103602083015261140281876112a9565b9050818103604083015261141681866112a9565b905061142560608301856113cc565b61143260808301846111e0565b9695505050505050565b600073ffffffffffffffffffffffffffffffffffffffff82169050919050565b60006114678261143c565b9050919050565b6114778161145c565b82525050565b6000602082019050611492600083018461146e565b92915050565b600080604083850312156114af576114ae61100e565b5b60006114bd85828601611221565b92505060206114ce85828601611221565b9150509250929050565b600080600080600060a086880312156114f4576114f361100e565b5b600086013567ffffffffffffffff81111561151257611511611013565b5b61151e88828901611130565b955050602086013567ffffffffffffffff81111561153f5761153e611013565b5b61154b88828901611130565b945050604061155c88828901611221565b935050606086013567ffffffffffffffff81111561157d5761157c611013565b5b61158988828901611130565b925050608061159a88828901611221565b9150509295509295909350565b7f4e487b7100000000000000000000000000000000000000000000000000000000600052601160045260246000fd5b60006115e1826111d6565b91507fffffffffffffffffffffffffffffffffffffffffffffffffffffffffffffffff8203611613576116126115a7565b5b600182019050919050565b7f4e487b7100000000000000000000000000000000000000000000000000000000600052602260045260246000fd5b6000600282049050600182168061166557607f821691505b6020821081036116785761167761161e565b5b50919050565b60008190508160005260206000209050919050565b60006020601f8301049050919050565b600082821b905092915050565b6000600883026116e07fffffffffffffffffffffffffffffffffffffffffffffffffffffffffffffffff826116a3565b6116ea86836116a3565b95508019841693508086168417925050509392505050565b6000819050919050565b600061172761172261171d846111d6565b611702565b6111d6565b9050919050565b6000819050919050565b6117418361170c565b61175561174d8261172e565b8484546116b0565b825550505050565b600090565b61176a61175d565b611775818484611738565b505050565b5b818110156117995761178e600082611762565b60018101905061177b565b5050565b601f8211156117de576117af8161167e565b6117b884611693565b810160208510156117c7578190505b6117db6117d385611693565b83018261177a565b50505b505050565b600082821c905092915050565b6000611801600019846008026117e3565b1980831691505092915050565b600061181a83836117f0565b9150826002028217905092915050565b61183382611263565b67ffffffffffffffff81111561184c5761184b611033565b5b611856825461164d565b61186182828561179d565b600060209050601f8311600181146118945760008415611882578287015190505b61188c858261180e565b8655506118f4565b601f1984166118a28661167e565b60005b828110156118ca578489015182556001820191506020850194506020810190506118a5565b868310156118e757848901516118e3601f8916826117f0565b8355505b6001600288020188555050505b505050505050565b7f496e76616c69642070726f647563742049440000000000000000000000000000600082015250565b600061193260128361126e565b915061193d826118fc565b602082019050919050565b6000602082019050818103600083015261196181611925565b9050919050565b7f4e6f7420656e6f7567682073746f636b20617661696c61626c65000000000000600082015250565b600061199e601a8361126e565b91506119a982611968565b602082019050919050565b600060208201905081810360008301526119cd81611991565b9050919050565b60006119df826111d6565b91506119ea836111d6565b92508282026119f8816111d6565b91508282048414831517611a0f57611a0e6115a7565b5b5092915050565b7f496e636f7272656374207061796d656e7420616d6f756e740000000000000000600082015250565b6000611a4c60188361126e565b9150611a5782611a16565b602082019050919050565b60006020820190508181036000830152611a7b81611a3f565b9050919050565b6000611a8d826111d6565b9150611a98836111d6565b9250828203905081811115611ab057611aaf6115a7565b5b92915050565b60008154611ac38161164d565b611acd818661126e565b94506001821660008114611ae85760018114611afe57611b31565b60ff198316865281151560200286019350611b31565b611b078561167e565b60005b83811015611b2957815481890152600182019150602081019050611b0a565b808801955050505b50505092915050565b600060a082019050611b4f60008301886111e0565b8181036020830152611b618187611ab6565b9050611b7060408301866111e0565b611b7d60608301856111e0565b611b8a608083018461146e565b9695505050505050565b6000604082019050611ba960008301856111e0565b611bb660208301846113cc565b9392505050565b7f4f6e6c7920746865206f776e65722063616e2063616c6c20746869732066756e60008201527f6374696f6e000000000000000000000000000000000000000000000000000000602082015250565b6000611c1960258361126e565b9150611c2482611bbd565b604082019050919050565b60006020820190508181036000830152611c4881611c0c565b9050919050565b7f50726f64756374206e616d652063616e6e6f7420626520656d70747900000000600082015250565b6000611c85601c8361126e565b9150611c9082611c4f565b602082019050919050565b60006020820190508181036000830152611cb481611c78565b9050919050565b7f50726f64756374206465736372697074696f6e2063616e6e6f7420626520656d60008201527f7074790000000000000000000000000000000000000000000000000000000000602082015250565b6000611d1760238361126e565b9150611d2282611cbb565b604082019050919050565b60006020820190508181036000830152611d4681611d0a565b9050919050565b7f50726f647563742073746f636b206d757374206265206772656174657220746860008201527f616e203000000000000000000000000000000000000000000000000000000000602082015250565b6000611da960248361126e565b9150611db482611d4d565b604082019050919050565b60006020820190508181036000830152611dd881611d9c565b9050919050565b7f50726f647563742065787069726174696f6e20646174652063616e6e6f74206260008201527f6520656d70747900000000000000000000000000000000000000000000000000602082015250565b6000611e3b60278361126e565b9150611e4682611ddf565b604082019050919050565b60006020820190508181036000830152611e6a81611e2e565b9050919050565b7f50726f647563742070726963652063616e6e6f74206265206e65676174697665600082015250565b6000611ea760208361126e565b9150611eb282611e71565b602082019050919050565b60006020820190508181036000830152611ed681611e9a565b9050919050565b600060e082019050611ef2600083018a6111e0565b8181036020830152611f0481896112a9565b90508181036040830152611f1881886112a9565b9050611f2760608301876111e0565b8181036080830152611f3981866112a9565b9050611f4860a08301856111e0565b611f5560c083018461146e565b9897505050505050505056fea2646970667358221220d6e20ceab3e3614e34a65048c289f6136300d470aeda782f747da7b45a62cfdc64736f6c63430008120033",
					"opcodes": "PUSH1 0x80 PUSH1 0x40 MSTORE PUSH1 0x0 DUP1 SSTORE CALLVALUE DUP1 ISZERO PUSH2 0x14 JUMPI PUSH1 0x0 DUP1 REVERT JUMPDEST POP CALLER PUSH1 0x2 PUSH1 0x0 PUSH2 0x100 EXP DUP2 SLOAD DUP2 PUSH20 0xFFFFFFFFFFFFFFFFFFFFFFFFFFFFFFFFFFFFFFFF MUL NOT AND SWAP1 DUP4 PUSH20 0xFFFFFFFFFFFFFFFFFFFFFFFFFFFFFFFFFFFFFFFF AND MUL OR SWAP1 SSTORE POP PUSH1 0x0 PUSH1 0x3 DUP2 SWAP1 SSTORE POP PUSH2 0x1F97 DUP1 PUSH2 0x6D PUSH1 0x0 CODECOPY PUSH1 0x0 RETURN INVALID PUSH1 0x80 PUSH1 0x40 MSTORE PUSH1 0x4 CALLDATASIZE LT PUSH2 0x91 JUMPI PUSH1 0x0 CALLDATALOAD PUSH1 0xE0 SHR DUP1 PUSH4 0x8DA5CB5B GT PUSH2 0x59 JUMPI DUP1 PUSH4 0x8DA5CB5B EQ PUSH2 0x1AE JUMPI DUP1 PUSH4 0xA0440426 EQ PUSH2 0x1D9 JUMPI DUP1 PUSH4 0xA49EEFA0 EQ PUSH2 0x1F5 JUMPI DUP1 PUSH4 0xE0F6EF87 EQ PUSH2 0x21E JUMPI DUP1 PUSH4 0xE324EB43 EQ PUSH2 0x249 JUMPI PUSH2 0x91 JUMP JUMPDEST DUP1 PUSH4 0x292A4585 EQ PUSH2 0x96 JUMPI DUP1 PUSH4 0x58671730 EQ PUSH2 0xBF JUMPI DUP1 PUSH4 0x6813B53B EQ PUSH2 0xEA JUMPI DUP1 PUSH4 0x7ACC0B20 EQ PUSH2 0x12B JUMPI DUP1 PUSH4 0x8D977672 EQ PUSH2 0x16D JUMPI JUMPDEST PUSH1 0x0 DUP1 REVERT JUMPDEST CALLVALUE DUP1 ISZERO PUSH2 0xA2 JUMPI PUSH1 0x0 DUP1 REVERT JUMPDEST POP PUSH2 0xBD PUSH1 0x4 DUP1 CALLDATASIZE SUB DUP2 ADD SWAP1 PUSH2 0xB8 SWAP2 SWAP1 PUSH2 0x115E JUMP JUMPDEST PUSH2 0x272 JUMP JUMPDEST STOP JUMPDEST CALLVALUE DUP1 ISZERO PUSH2 0xCB JUMPI PUSH1 0x0 DUP1 REVERT JUMPDEST POP PUSH2 0xD4 PUSH2 0x372 JUMP JUMPDEST PUSH1 0x40 MLOAD PUSH2 0xE1 SWAP2 SWAP1 PUSH2 0x11EF JUMP JUMPDEST PUSH1 0x40 MLOAD DUP1 SWAP2 SUB SWAP1 RETURN JUMPDEST CALLVALUE DUP1 ISZERO PUSH2 0xF6 JUMPI PUSH1 0x0 DUP1 REVERT JUMPDEST POP PUSH2 0x111 PUSH1 0x4 DUP1 CALLDATASIZE SUB DUP2 ADD SWAP1 PUSH2 0x10C SWAP2 SWAP1 PUSH2 0x1236 JUMP JUMPDEST PUSH2 0x378 JUMP JUMPDEST PUSH1 0x40 MLOAD PUSH2 0x122 SWAP6 SWAP5 SWAP4 SWAP3 SWAP2 SWAP1 PUSH2 0x12E2 JUMP JUMPDEST PUSH1 0x40 MLOAD DUP1 SWAP2 SUB SWAP1 RETURN JUMPDEST CALLVALUE DUP1 ISZERO PUSH2 0x137 JUMPI PUSH1 0x0 DUP1 REVERT JUMPDEST POP PUSH2 0x152 PUSH1 0x4 DUP1 CALLDATASIZE SUB DUP2 ADD SWAP1 PUSH2 0x14D SWAP2 SWAP1 PUSH2 0x1236 JUMP JUMPDEST PUSH2 0x5B6 JUMP JUMPDEST PUSH1 0x40 MLOAD PUSH2 0x164 SWAP7 SWAP6 SWAP5 SWAP4 SWAP3 SWAP2 SWAP1 PUSH2 0x134A JUMP JUMPDEST PUSH1 0x40 MLOAD DUP1 SWAP2 SUB SWAP1 RETURN JUMPDEST CALLVALUE DUP1 ISZERO PUSH2 0x179 JUMPI PUSH1 0x0 DUP1 REVERT JUMPDEST POP PUSH2 0x194 PUSH1 0x4 DUP1 CALLDATASIZE SUB DUP2 ADD SWAP1 PUSH2 0x18F SWAP2 SWAP1 PUSH2 0x1236 JUMP JUMPDEST PUSH2 0x78A JUMP JUMPDEST PUSH1 0x40 MLOAD PUSH2 0x1A5 SWAP6 SWAP5 SWAP4 SWAP3 SWAP2 SWAP1 PUSH2 0x13DB JUMP JUMPDEST PUSH1 0x40 MLOAD DUP1 SWAP2 SUB SWAP1 RETURN JUMPDEST CALLVALUE DUP1 ISZERO PUSH2 0x1BA JUMPI PUSH1 0x0 DUP1 REVERT JUMPDEST POP PUSH2 0x1C3 PUSH2 0x8DD JUMP JUMPDEST PUSH1 0x40 MLOAD PUSH2 0x1D0 SWAP2 SWAP1 PUSH2 0x147D JUMP JUMPDEST PUSH1 0x40 MLOAD DUP1 SWAP2 SUB SWAP1 RETURN JUMPDEST PUSH2 0x1F3 PUSH1 0x4 DUP1 CALLDATASIZE SUB DUP2 ADD SWAP1 PUSH2 0x1EE SWAP2 SWAP1 PUSH2 0x1498 JUMP JUMPDEST PUSH2 0x903 JUMP JUMPDEST STOP JUMPDEST CALLVALUE DUP1 ISZERO PUSH2 0x201 JUMPI PUSH1 0x0 DUP1 REVERT JUMPDEST POP PUSH2 0x21C PUSH1 0x4 DUP1 CALLDATASIZE SUB DUP2 ADD SWAP1 PUSH2 0x217 SWAP2 SWAP1 PUSH2 0x1236 JUMP JUMPDEST PUSH2 0xACE JUMP JUMPDEST STOP JUMPDEST CALLVALUE DUP1 ISZERO PUSH2 0x22A JUMPI PUSH1 0x0 DUP1 REVERT JUMPDEST POP PUSH2 0x233 PUSH2 0xD10 JUMP JUMPDEST PUSH1 0x40 MLOAD PUSH2 0x240 SWAP2 SWAP1 PUSH2 0x11EF JUMP JUMPDEST PUSH1 0x40 MLOAD DUP1 SWAP2 SUB SWAP1 RETURN JUMPDEST CALLVALUE DUP1 ISZERO PUSH2 0x255 JUMPI PUSH1 0x0 DUP1 REVERT JUMPDEST POP PUSH2 0x270 PUSH1 0x4 DUP1 CALLDATASIZE SUB DUP2 ADD SWAP1 PUSH2 0x26B SWAP2 SWAP1 PUSH2 0x14D8 JUMP JUMPDEST PUSH2 0xD16 JUMP JUMPDEST STOP JUMPDEST PUSH1 0x0 DUP1 DUP2 SLOAD DUP1 SWAP3 SWAP2 SWAP1 PUSH2 0x284 SWAP1 PUSH2 0x15D6 JUMP JUMPDEST SWAP2 SWAP1 POP SSTORE POP PUSH1 0x40 MLOAD DUP1 PUSH1 0xA0 ADD PUSH1 0x40 MSTORE DUP1 PUSH1 0x0 SLOAD DUP2 MSTORE PUSH1 0x20 ADD DUP4 DUP2 MSTORE PUSH1 0x20 ADD DUP3 DUP2 MSTORE PUSH1 0x20 ADD PUSH1 0x0 ISZERO ISZERO DUP2 MSTORE PUSH1 0x20 ADD TIMESTAMP DUP2 MSTORE POP PUSH1 0x1 PUSH1 0x0 DUP1 SLOAD DUP2 MSTORE PUSH1 0x20 ADD SWAP1 DUP2 MSTORE PUSH1 0x20 ADD PUSH1 0x0 KECCAK256 PUSH1 0x0 DUP3 ADD MLOAD DUP2 PUSH1 0x0 ADD SSTORE PUSH1 0x20 DUP3 ADD MLOAD DUP2 PUSH1 0x1 ADD SWAP1 DUP2 PUSH2 0x2E8 SWAP2 SWAP1 PUSH2 0x182A JUMP JUMPDEST POP PUSH1 0x40 DUP3 ADD MLOAD DUP2 PUSH1 0x2 ADD SWAP1 DUP2 PUSH2 0x2FE SWAP2 SWAP1 PUSH2 0x182A JUMP JUMPDEST POP PUSH1 0x60 DUP3 ADD MLOAD DUP2 PUSH1 0x3 ADD PUSH1 0x0 PUSH2 0x100 EXP DUP2 SLOAD DUP2 PUSH1 0xFF MUL NOT AND SWAP1 DUP4 ISZERO ISZERO MUL OR SWAP1 SSTORE POP PUSH1 0x80 DUP3 ADD MLOAD DUP2 PUSH1 0x4 ADD SSTORE SWAP1 POP POP PUSH32 0x6549102BED7D1BB5EC529EE14E2CA60FFC1F47F66D4CC6CA713220613CC64C25 PUSH1 0x0 SLOAD DUP4 DUP4 PUSH1 0x0 TIMESTAMP PUSH1 0x40 MLOAD PUSH2 0x366 SWAP6 SWAP5 SWAP4 SWAP3 SWAP2 SWAP1 PUSH2 0x13DB JUMP JUMPDEST PUSH1 0x40 MLOAD DUP1 SWAP2 SUB SWAP1 LOG1 POP POP JUMP JUMPDEST PUSH1 0x0 SLOAD DUP2 JUMP JUMPDEST PUSH1 0x60 DUP1 PUSH1 0x0 PUSH1 0x60 PUSH1 0x0 DUP1 DUP7 GT DUP1 ISZERO PUSH2 0x392 JUMPI POP PUSH1 0x3 SLOAD DUP7 GT ISZERO JUMPDEST PUSH2 0x3D1 JUMPI PUSH1 0x40 MLOAD PUSH32 0x8C379A000000000000000000000000000000000000000000000000000000000 DUP2 MSTORE PUSH1 0x4 ADD PUSH2 0x3C8 SWAP1 PUSH2 0x1948 JUMP JUMPDEST PUSH1 0x40 MLOAD DUP1 SWAP2 SUB SWAP1 REVERT JUMPDEST PUSH1 0x0 PUSH1 0x4 PUSH1 0x0 DUP9 DUP2 MSTORE PUSH1 0x20 ADD SWAP1 DUP2 MSTORE PUSH1 0x20 ADD PUSH1 0x0 KECCAK256 SWAP1 POP DUP1 PUSH1 0x1 ADD DUP2 PUSH1 0x2 ADD DUP3 PUSH1 0x3 ADD SLOAD DUP4 PUSH1 0x4 ADD DUP5 PUSH1 0x5 ADD SLOAD DUP5 DUP1 SLOAD PUSH2 0x40A SWAP1 PUSH2 0x164D JUMP JUMPDEST DUP1 PUSH1 0x1F ADD PUSH1 0x20 DUP1 SWAP2 DIV MUL PUSH1 0x20 ADD PUSH1 0x40 MLOAD SWAP1 DUP2 ADD PUSH1 0x40 MSTORE DUP1 SWAP3 SWAP2 SWAP1 DUP2 DUP2 MSTORE PUSH1 0x20 ADD DUP3 DUP1 SLOAD PUSH2 0x436 SWAP1 PUSH2 0x164D JUMP JUMPDEST DUP1 ISZERO PUSH2 0x483 JUMPI DUP1 PUSH1 0x1F LT PUSH2 0x458 JUMPI PUSH2 0x100 DUP1 DUP4 SLOAD DIV MUL DUP4 MSTORE SWAP2 PUSH1 0x20 ADD SWAP2 PUSH2 0x483 JUMP JUMPDEST DUP3 ADD SWAP2 SWAP1 PUSH1 0x0 MSTORE PUSH1 0x20 PUSH1 0x0 KECCAK256 SWAP1 JUMPDEST DUP2 SLOAD DUP2 MSTORE SWAP1 PUSH1 0x1 ADD SWAP1 PUSH1 0x20 ADD DUP1 DUP4 GT PUSH2 0x466 JUMPI DUP3 SWAP1 SUB PUSH1 0x1F AND DUP3 ADD SWAP2 JUMPDEST POP POP POP POP POP SWAP5 POP DUP4 DUP1 SLOAD PUSH2 0x496 SWAP1 PUSH2 0x164D JUMP JUMPDEST DUP1 PUSH1 0x1F ADD PUSH1 0x20 DUP1 SWAP2 DIV MUL PUSH1 0x20 ADD PUSH1 0x40 MLOAD SWAP1 DUP2 ADD PUSH1 0x40 MSTORE DUP1 SWAP3 SWAP2 SWAP1 DUP2 DUP2 MSTORE PUSH1 0x20 ADD DUP3 DUP1 SLOAD PUSH2 0x4C2 SWAP1 PUSH2 0x164D JUMP JUMPDEST DUP1 ISZERO PUSH2 0x50F JUMPI DUP1 PUSH1 0x1F LT PUSH2 0x4E4 JUMPI PUSH2 0x100 DUP1 DUP4 SLOAD DIV MUL DUP4 MSTORE SWAP2 PUSH1 0x20 ADD SWAP2 PUSH2 0x50F JUMP JUMPDEST DUP3 ADD SWAP2 SWAP1 PUSH1 0x0 MSTORE PUSH1 0x20 PUSH1 0x0 KECCAK256 SWAP1 JUMPDEST DUP2 SLOAD DUP2 MSTORE SWAP1 PUSH1 0x1 ADD SWAP1 PUSH1 0x20 ADD DUP1 DUP4 GT PUSH2 0x4F2 JUMPI DUP3 SWAP1 SUB PUSH1 0x1F AND DUP3 ADD SWAP2 JUMPDEST POP POP POP POP POP SWAP4 POP DUP2 DUP1 SLOAD PUSH2 0x522 SWAP1 PUSH2 0x164D JUMP JUMPDEST DUP1 PUSH1 0x1F ADD PUSH1 0x20 DUP1 SWAP2 DIV MUL PUSH1 0x20 ADD PUSH1 0x40 MLOAD SWAP1 DUP2 ADD PUSH1 0x40 MSTORE DUP1 SWAP3 SWAP2 SWAP1 DUP2 DUP2 MSTORE PUSH1 0x20 ADD DUP3 DUP1 SLOAD PUSH2 0x54E SWAP1 PUSH2 0x164D JUMP JUMPDEST DUP1 ISZERO PUSH2 0x59B JUMPI DUP1 PUSH1 0x1F LT PUSH2 0x570 JUMPI PUSH2 0x100 DUP1 DUP4 SLOAD DIV MUL DUP4 MSTORE SWAP2 PUSH1 0x20 ADD SWAP2 PUSH2 0x59B JUMP JUMPDEST DUP3 ADD SWAP2 SWAP1 PUSH1 0x0 MSTORE PUSH1 0x20 PUSH1 0x0 KECCAK256 SWAP1 JUMPDEST DUP2 SLOAD DUP2 MSTORE SWAP1 PUSH1 0x1 ADD SWAP1 PUSH1 0x20 ADD DUP1 DUP4 GT PUSH2 0x57E JUMPI DUP3 SWAP1 SUB PUSH1 0x1F AND DUP3 ADD SWAP2 JUMPDEST POP POP POP POP POP SWAP2 POP SWAP6 POP SWAP6 POP SWAP6 POP SWAP6 POP SWAP6 POP POP SWAP2 SWAP4 SWAP6 SWAP1 SWAP3 SWAP5 POP JUMP JUMPDEST PUSH1 0x4 PUSH1 0x20 MSTORE DUP1 PUSH1 0x0 MSTORE PUSH1 0x40 PUSH1 0x0 KECCAK256 PUSH1 0x0 SWAP2 POP SWAP1 POP DUP1 PUSH1 0x0 ADD SLOAD SWAP1 DUP1 PUSH1 0x1 ADD DUP1 SLOAD PUSH2 0x5DF SWAP1 PUSH2 0x164D JUMP JUMPDEST DUP1 PUSH1 0x1F ADD PUSH1 0x20 DUP1 SWAP2 DIV MUL PUSH1 0x20 ADD PUSH1 0x40 MLOAD SWAP1 DUP2 ADD PUSH1 0x40 MSTORE DUP1 SWAP3 SWAP2 SWAP1 DUP2 DUP2 MSTORE PUSH1 0x20 ADD DUP3 DUP1 SLOAD PUSH2 0x60B SWAP1 PUSH2 0x164D JUMP JUMPDEST DUP1 ISZERO PUSH2 0x658 JUMPI DUP1 PUSH1 0x1F LT PUSH2 0x62D JUMPI PUSH2 0x100 DUP1 DUP4 SLOAD DIV MUL DUP4 MSTORE SWAP2 PUSH1 0x20 ADD SWAP2 PUSH2 0x658 JUMP JUMPDEST DUP3 ADD SWAP2 SWAP1 PUSH1 0x0 MSTORE PUSH1 0x20 PUSH1 0x0 KECCAK256 SWAP1 JUMPDEST DUP2 SLOAD DUP2 MSTORE SWAP1 PUSH1 0x1 ADD SWAP1 PUSH1 0x20 ADD DUP1 DUP4 GT PUSH2 0x63B JUMPI DUP3 SWAP1 SUB PUSH1 0x1F AND DUP3 ADD SWAP2 JUMPDEST POP POP POP POP POP SWAP1 DUP1 PUSH1 0x2 ADD DUP1 SLOAD PUSH2 0x66D SWAP1 PUSH2 0x164D JUMP JUMPDEST DUP1 PUSH1 0x1F ADD PUSH1 0x20 DUP1 SWAP2 DIV MUL PUSH1 0x20 ADD PUSH1 0x40 MLOAD SWAP1 DUP2 ADD PUSH1 0x40 MSTORE DUP1 SWAP3 SWAP2 SWAP1 DUP2 DUP2 MSTORE PUSH1 0x20 ADD DUP3 DUP1 SLOAD PUSH2 0x699 SWAP1 PUSH2 0x164D JUMP JUMPDEST DUP1 ISZERO PUSH2 0x6E6 JUMPI DUP1 PUSH1 0x1F LT PUSH2 0x6BB JUMPI PUSH2 0x100 DUP1 DUP4 SLOAD DIV MUL DUP4 MSTORE SWAP2 PUSH1 0x20 ADD SWAP2 PUSH2 0x6E6 JUMP JUMPDEST DUP3 ADD SWAP2 SWAP1 PUSH1 0x0 MSTORE PUSH1 0x20 PUSH1 0x0 KECCAK256 SWAP1 JUMPDEST DUP2 SLOAD DUP2 MSTORE SWAP1 PUSH1 0x1 ADD SWAP1 PUSH1 0x20 ADD DUP1 DUP4 GT PUSH2 0x6C9 JUMPI DUP3 SWAP1 SUB PUSH1 0x1F AND DUP3 ADD SWAP2 JUMPDEST POP POP POP POP POP SWAP1 DUP1 PUSH1 0x3 ADD SLOAD SWAP1 DUP1 PUSH1 0x4 ADD DUP1 SLOAD PUSH2 0x701 SWAP1 PUSH2 0x164D JUMP JUMPDEST DUP1 PUSH1 0x1F ADD PUSH1 0x20 DUP1 SWAP2 DIV MUL PUSH1 0x20 ADD PUSH1 0x40 MLOAD SWAP1 DUP2 ADD PUSH1 0x40 MSTORE DUP1 SWAP3 SWAP2 SWAP1 DUP2 DUP2 MSTORE PUSH1 0x20 ADD DUP3 DUP1 SLOAD PUSH2 0x72D SWAP1 PUSH2 0x164D JUMP JUMPDEST DUP1 ISZERO PUSH2 0x77A JUMPI DUP1 PUSH1 0x1F LT PUSH2 0x74F JUMPI PUSH2 0x100 DUP1 DUP4 SLOAD DIV MUL DUP4 MSTORE SWAP2 PUSH1 0x20 ADD SWAP2 PUSH2 0x77A JUMP JUMPDEST DUP3 ADD SWAP2 SWAP1 PUSH1 0x0 MSTORE PUSH1 0x20 PUSH1 0x0 KECCAK256 SWAP1 JUMPDEST DUP2 SLOAD DUP2 MSTORE SWAP1 PUSH1 0x1 ADD SWAP1 PUSH1 0x20 ADD DUP1 DUP4 GT PUSH2 0x75D JUMPI DUP3 SWAP1 SUB PUSH1 0x1F AND DUP3 ADD SWAP2 JUMPDEST POP POP POP POP POP SWAP1 DUP1 PUSH1 0x5 ADD SLOAD SWAP1 POP DUP7 JUMP JUMPDEST PUSH1 0x1 PUSH1 0x20 MSTORE DUP1 PUSH1 0x0 MSTORE PUSH1 0x40 PUSH1 0x0 KECCAK256 PUSH1 0x0 SWAP2 POP SWAP1 POP DUP1 PUSH1 0x0 ADD SLOAD SWAP1 DUP1 PUSH1 0x1 ADD DUP1 SLOAD PUSH2 0x7B3 SWAP1 PUSH2 0x164D JUMP JUMPDEST DUP1 PUSH1 0x1F ADD PUSH1 0x20 DUP1 SWAP2 DIV MUL PUSH1 0x20 ADD PUSH1 0x40 MLOAD SWAP1 DUP2 ADD PUSH1 0x40 MSTORE DUP1 SWAP3 SWAP2 SWAP1 DUP2 DUP2 MSTORE PUSH1 0x20 ADD DUP3 DUP1 SLOAD PUSH2 0x7DF SWAP1 PUSH2 0x164D JUMP JUMPDEST DUP1 ISZERO PUSH2 0x82C JUMPI DUP1 PUSH1 0x1F LT PUSH2 0x801 JUMPI PUSH2 0x100 DUP1 DUP4 SLOAD DIV MUL DUP4 MSTORE SWAP2 PUSH1 0x20 ADD SWAP2 PUSH2 0x82C JUMP JUMPDEST DUP3 ADD SWAP2 SWAP1 PUSH1 0x0 MSTORE PUSH1 0x20 PUSH1 0x0 KECCAK256 SWAP1 JUMPDEST DUP2 SLOAD DUP2 MSTORE SWAP1 PUSH1 0x1 ADD SWAP1 PUSH1 0x20 ADD DUP1 DUP4 GT PUSH2 0x80F JUMPI DUP3 SWAP1 SUB PUSH1 0x1F AND DUP3 ADD SWAP2 JUMPDEST POP POP POP POP POP SWAP1 DUP1 PUSH1 0x2 ADD DUP1 SLOAD PUSH2 0x841 SWAP1 PUSH2 0x164D JUMP JUMPDEST DUP1 PUSH1 0x1F ADD PUSH1 0x20 DUP1 SWAP2 DIV MUL PUSH1 0x20 ADD PUSH1 0x40 MLOAD SWAP1 DUP2 ADD PUSH1 0x40 MSTORE DUP1 SWAP3 SWAP2 SWAP1 DUP2 DUP2 MSTORE PUSH1 0x20 ADD DUP3 DUP1 SLOAD PUSH2 0x86D SWAP1 PUSH2 0x164D JUMP JUMPDEST DUP1 ISZERO PUSH2 0x8BA JUMPI DUP1 PUSH1 0x1F LT PUSH2 0x88F JUMPI PUSH2 0x100 DUP1 DUP4 SLOAD DIV MUL DUP4 MSTORE SWAP2 PUSH1 0x20 ADD SWAP2 PUSH2 0x8BA JUMP JUMPDEST DUP3 ADD SWAP2 SWAP1 PUSH1 0x0 MSTORE PUSH1 0x20 PUSH1 0x0 KECCAK256 SWAP1 JUMPDEST DUP2 SLOAD DUP2 MSTORE SWAP1 PUSH1 0x1 ADD SWAP1 PUSH1 0x20 ADD DUP1 DUP4 GT PUSH2 0x89D JUMPI DUP3 SWAP1 SUB PUSH1 0x1F AND DUP3 ADD SWAP2 JUMPDEST POP POP POP POP POP SWAP1 DUP1 PUSH1 0x3 ADD PUSH1 0x0 SWAP1 SLOAD SWAP1 PUSH2 0x100 EXP SWAP1 DIV PUSH1 0xFF AND SWAP1 DUP1 PUSH1 0x4 ADD SLOAD SWAP1 POP DUP6 JUMP JUMPDEST PUSH1 0x2 PUSH1 0x0 SWAP1 SLOAD SWAP1 PUSH2 0x100 EXP SWAP1 DIV PUSH20 0xFFFFFFFFFFFFFFFFFFFFFFFFFFFFFFFFFFFFFFFF AND DUP2 JUMP JUMPDEST PUSH1 0x0 DUP3 GT DUP1 ISZERO PUSH2 0x915 JUMPI POP PUSH1 0x3 SLOAD DUP3 GT ISZERO JUMPDEST PUSH2 0x954 JUMPI PUSH1 0x40 MLOAD PUSH32 0x8C379A000000000000000000000000000000000000000000000000000000000 DUP2 MSTORE PUSH1 0x4 ADD PUSH2 0x94B SWAP1 PUSH2 0x1948 JUMP JUMPDEST PUSH1 0x40 MLOAD DUP1 SWAP2 SUB SWAP1 REVERT JUMPDEST PUSH1 0x0 PUSH1 0x4 PUSH1 0x0 DUP5 DUP2 MSTORE PUSH1 0x20 ADD SWAP1 DUP2 MSTORE PUSH1 0x20 ADD PUSH1 0x0 KECCAK256 SWAP1 POP DUP2 DUP2 PUSH1 0x3 ADD SLOAD LT ISZERO PUSH2 0x9B2 JUMPI PUSH1 0x40 MLOAD PUSH32 0x8C379A000000000000000000000000000000000000000000000000000000000 DUP2 MSTORE PUSH1 0x4 ADD PUSH2 0x9A9 SWAP1 PUSH2 0x19B4 JUMP JUMPDEST PUSH1 0x40 MLOAD DUP1 SWAP2 SUB SWAP1 REVERT JUMPDEST DUP2 DUP2 PUSH1 0x5 ADD SLOAD PUSH2 0x9C2 SWAP2 SWAP1 PUSH2 0x19D4 JUMP JUMPDEST CALLVALUE EQ PUSH2 0xA03 JUMPI PUSH1 0x40 MLOAD PUSH32 0x8C379A000000000000000000000000000000000000000000000000000000000 DUP2 MSTORE PUSH1 0x4 ADD PUSH2 0x9FA SWAP1 PUSH2 0x1A62 JUMP JUMPDEST PUSH1 0x40 MLOAD DUP1 SWAP2 SUB SWAP1 REVERT JUMPDEST PUSH1 0x2 PUSH1 0x0 SWAP1 SLOAD SWAP1 PUSH2 0x100 EXP SWAP1 DIV PUSH20 0xFFFFFFFFFFFFFFFFFFFFFFFFFFFFFFFFFFFFFFFF AND PUSH20 0xFFFFFFFFFFFFFFFFFFFFFFFFFFFFFFFFFFFFFFFF AND PUSH2 0x8FC CALLVALUE SWAP1 DUP2 ISZERO MUL SWAP1 PUSH1 0x40 MLOAD PUSH1 0x0 PUSH1 0x40 MLOAD DUP1 DUP4 SUB DUP2 DUP6 DUP9 DUP9 CALL SWAP4 POP POP POP POP ISZERO DUP1 ISZERO PUSH2 0xA6B JUMPI RETURNDATASIZE PUSH1 0x0 DUP1 RETURNDATACOPY RETURNDATASIZE PUSH1 0x0 REVERT JUMPDEST POP DUP2 DUP2 PUSH1 0x3 ADD PUSH1 0x0 DUP3 DUP3 SLOAD PUSH2 0xA80 SWAP2 SWAP1 PUSH2 0x1A82 JUMP JUMPDEST SWAP3 POP POP DUP2 SWAP1 SSTORE POP PUSH32 0xD922A2FFFDE7C04EFB85E105CB4324B2EBE96919A6A107B6C63AFB85484B8DA9 DUP4 DUP3 PUSH1 0x1 ADD DUP5 CALLVALUE CALLER PUSH1 0x40 MLOAD PUSH2 0xAC1 SWAP6 SWAP5 SWAP4 SWAP3 SWAP2 SWAP1 PUSH2 0x1B3A JUMP JUMPDEST PUSH1 0x40 MLOAD DUP1 SWAP2 SUB SWAP1 LOG1 POP POP POP JUMP JUMPDEST PUSH1 0x0 PUSH1 0x1 PUSH1 0x0 DUP4 DUP2 MSTORE PUSH1 0x20 ADD SWAP1 DUP2 MSTORE PUSH1 0x20 ADD PUSH1 0x0 KECCAK256 PUSH1 0x40 MLOAD DUP1 PUSH1 0xA0 ADD PUSH1 0x40 MSTORE SWAP1 DUP2 PUSH1 0x0 DUP3 ADD SLOAD DUP2 MSTORE PUSH1 0x20 ADD PUSH1 0x1 DUP3 ADD DUP1 SLOAD PUSH2 0xB08 SWAP1 PUSH2 0x164D JUMP JUMPDEST DUP1 PUSH1 0x1F ADD PUSH1 0x20 DUP1 SWAP2 DIV MUL PUSH1 0x20 ADD PUSH1 0x40 MLOAD SWAP1 DUP2 ADD PUSH1 0x40 MSTORE DUP1 SWAP3 SWAP2 SWAP1 DUP2 DUP2 MSTORE PUSH1 0x20 ADD DUP3 DUP1 SLOAD PUSH2 0xB34 SWAP1 PUSH2 0x164D JUMP JUMPDEST DUP1 ISZERO PUSH2 0xB81 JUMPI DUP1 PUSH1 0x1F LT PUSH2 0xB56 JUMPI PUSH2 0x100 DUP1 DUP4 SLOAD DIV MUL DUP4 MSTORE SWAP2 PUSH1 0x20 ADD SWAP2 PUSH2 0xB81 JUMP JUMPDEST DUP3 ADD SWAP2 SWAP1 PUSH1 0x0 MSTORE PUSH1 0x20 PUSH1 0x0 KECCAK256 SWAP1 JUMPDEST DUP2 SLOAD DUP2 MSTORE SWAP1 PUSH1 0x1 ADD SWAP1 PUSH1 0x20 ADD DUP1 DUP4 GT PUSH2 0xB64 JUMPI DUP3 SWAP1 SUB PUSH1 0x1F AND DUP3 ADD SWAP2 JUMPDEST POP POP POP POP POP DUP2 MSTORE PUSH1 0x20 ADD PUSH1 0x2 DUP3 ADD DUP1 SLOAD PUSH2 0xB9A SWAP1 PUSH2 0x164D JUMP JUMPDEST DUP1 PUSH1 0x1F ADD PUSH1 0x20 DUP1 SWAP2 DIV MUL PUSH1 0x20 ADD PUSH1 0x40 MLOAD SWAP1 DUP2 ADD PUSH1 0x40 MSTORE DUP1 SWAP3 SWAP2 SWAP1 DUP2 DUP2 MSTORE PUSH1 0x20 ADD DUP3 DUP1 SLOAD PUSH2 0xBC6 SWAP1 PUSH2 0x164D JUMP JUMPDEST DUP1 ISZERO PUSH2 0xC13 JUMPI DUP1 PUSH1 0x1F LT PUSH2 0xBE8 JUMPI PUSH2 0x100 DUP1 DUP4 SLOAD DIV MUL DUP4 MSTORE SWAP2 PUSH1 0x20 ADD SWAP2 PUSH2 0xC13 JUMP JUMPDEST DUP3 ADD SWAP2 SWAP1 PUSH1 0x0 MSTORE PUSH1 0x20 PUSH1 0x0 KECCAK256 SWAP1 JUMPDEST DUP2 SLOAD DUP2 MSTORE SWAP1 PUSH1 0x1 ADD SWAP1 PUSH1 0x20 ADD DUP1 DUP4 GT PUSH2 0xBF6 JUMPI DUP3 SWAP1 SUB PUSH1 0x1F AND DUP3 ADD SWAP2 JUMPDEST POP POP POP POP POP DUP2 MSTORE PUSH1 0x20 ADD PUSH1 0x3 DUP3 ADD PUSH1 0x0 SWAP1 SLOAD SWAP1 PUSH2 0x100 EXP SWAP1 DIV PUSH1 0xFF AND ISZERO ISZERO ISZERO ISZERO DUP2 MSTORE PUSH1 0x20 ADD PUSH1 0x4 DUP3 ADD SLOAD DUP2 MSTORE POP POP SWAP1 POP DUP1 PUSH1 0x60 ADD MLOAD ISZERO DUP2 PUSH1 0x60 ADD SWAP1 ISZERO ISZERO SWAP1 DUP2 ISZERO ISZERO DUP2 MSTORE POP POP DUP1 PUSH1 0x1 PUSH1 0x0 DUP5 DUP2 MSTORE PUSH1 0x20 ADD SWAP1 DUP2 MSTORE PUSH1 0x20 ADD PUSH1 0x0 KECCAK256 PUSH1 0x0 DUP3 ADD MLOAD DUP2 PUSH1 0x0 ADD SSTORE PUSH1 0x20 DUP3 ADD MLOAD DUP2 PUSH1 0x1 ADD SWAP1 DUP2 PUSH2 0xC8B SWAP2 SWAP1 PUSH2 0x182A JUMP JUMPDEST POP PUSH1 0x40 DUP3 ADD MLOAD DUP2 PUSH1 0x2 ADD SWAP1 DUP2 PUSH2 0xCA1 SWAP2 SWAP1 PUSH2 0x182A JUMP JUMPDEST POP PUSH1 0x60 DUP3 ADD MLOAD DUP2 PUSH1 0x3 ADD PUSH1 0x0 PUSH2 0x100 EXP DUP2 SLOAD DUP2 PUSH1 0xFF MUL NOT AND SWAP1 DUP4 ISZERO ISZERO MUL OR SWAP1 SSTORE POP PUSH1 0x80 DUP3 ADD MLOAD DUP2 PUSH1 0x4 ADD SSTORE SWAP1 POP POP PUSH32 0x54CF0D6DC9BB13AE254BD967765B3F04057BB2B7A01CA4207BD72E7F5F32C5CD DUP3 DUP3 PUSH1 0x60 ADD MLOAD PUSH1 0x40 MLOAD PUSH2 0xD04 SWAP3 SWAP2 SWAP1 PUSH2 0x1B94 JUMP JUMPDEST PUSH1 0x40 MLOAD DUP1 SWAP2 SUB SWAP1 LOG1 POP POP JUMP JUMPDEST PUSH1 0x3 SLOAD DUP2 JUMP JUMPDEST PUSH1 0x2 PUSH1 0x0 SWAP1 SLOAD SWAP1 PUSH2 0x100 EXP SWAP1 DIV PUSH20 0xFFFFFFFFFFFFFFFFFFFFFFFFFFFFFFFFFFFFFFFF AND PUSH20 0xFFFFFFFFFFFFFFFFFFFFFFFFFFFFFFFFFFFFFFFF AND CALLER PUSH20 0xFFFFFFFFFFFFFFFFFFFFFFFFFFFFFFFFFFFFFFFF AND EQ PUSH2 0xDA6 JUMPI PUSH1 0x40 MLOAD PUSH32 0x8C379A000000000000000000000000000000000000000000000000000000000 DUP2 MSTORE PUSH1 0x4 ADD PUSH2 0xD9D SWAP1 PUSH2 0x1C2F JUMP JUMPDEST PUSH1 0x40 MLOAD DUP1 SWAP2 SUB SWAP1 REVERT JUMPDEST PUSH1 0x0 DUP6 MLOAD GT PUSH2 0xDEA JUMPI PUSH1 0x40 MLOAD PUSH32 0x8C379A000000000000000000000000000000000000000000000000000000000 DUP2 MSTORE PUSH1 0x4 ADD PUSH2 0xDE1 SWAP1 PUSH2 0x1C9B JUMP JUMPDEST PUSH1 0x40 MLOAD DUP1 SWAP2 SUB SWAP1 REVERT JUMPDEST PUSH1 0x0 DUP5 MLOAD GT PUSH2 0xE2E JUMPI PUSH1 0x40 MLOAD PUSH32 0x8C379A000000000000000000000000000000000000000000000000000000000 DUP2 MSTORE PUSH1 0x4 ADD PUSH2 0xE25 SWAP1 PUSH2 0x1D2D JUMP JUMPDEST PUSH1 0x40 MLOAD DUP1 SWAP2 SUB SWAP1 REVERT JUMPDEST PUSH1 0x0 DUP4 GT PUSH2 0xE71 JUMPI PUSH1 0x40 MLOAD PUSH32 0x8C379A000000000000000000000000000000000000000000000000000000000 DUP2 MSTORE PUSH1 0x4 ADD PUSH2 0xE68 SWAP1 PUSH2 0x1DBF JUMP JUMPDEST PUSH1 0x40 MLOAD DUP1 SWAP2 SUB SWAP1 REVERT JUMPDEST PUSH1 0x0 DUP3 MLOAD GT PUSH2 0xEB5 JUMPI PUSH1 0x40 MLOAD PUSH32 0x8C379A000000000000000000000000000000000000000000000000000000000 DUP2 MSTORE PUSH1 0x4 ADD PUSH2 0xEAC SWAP1 PUSH2 0x1E51 JUMP JUMPDEST PUSH1 0x40 MLOAD DUP1 SWAP2 SUB SWAP1 REVERT JUMPDEST PUSH1 0x0 DUP2 LT ISZERO PUSH2 0xEF9 JUMPI PUSH1 0x40 MLOAD PUSH32 0x8C379A000000000000000000000000000000000000000000000000000000000 DUP2 MSTORE PUSH1 0x4 ADD PUSH2 0xEF0 SWAP1 PUSH2 0x1EBD JUMP JUMPDEST PUSH1 0x40 MLOAD DUP1 SWAP2 SUB SWAP1 REVERT JUMPDEST PUSH1 0x3 PUSH1 0x0 DUP2 SLOAD DUP1 SWAP3 SWAP2 SWAP1 PUSH2 0xF0C SWAP1 PUSH2 0x15D6 JUMP JUMPDEST SWAP2 SWAP1 POP SSTORE POP PUSH1 0x40 MLOAD DUP1 PUSH1 0xC0 ADD PUSH1 0x40 MSTORE DUP1 PUSH1 0x3 SLOAD DUP2 MSTORE PUSH1 0x20 ADD DUP7 DUP2 MSTORE PUSH1 0x20 ADD DUP6 DUP2 MSTORE PUSH1 0x20 ADD DUP5 DUP2 MSTORE PUSH1 0x20 ADD DUP4 DUP2 MSTORE PUSH1 0x20 ADD DUP3 DUP2 MSTORE POP PUSH1 0x4 PUSH1 0x0 PUSH1 0x3 SLOAD DUP2 MSTORE PUSH1 0x20 ADD SWAP1 DUP2 MSTORE PUSH1 0x20 ADD PUSH1 0x0 KECCAK256 PUSH1 0x0 DUP3 ADD MLOAD DUP2 PUSH1 0x0 ADD SSTORE PUSH1 0x20 DUP3 ADD MLOAD DUP2 PUSH1 0x1 ADD SWAP1 DUP2 PUSH2 0xF74 SWAP2 SWAP1 PUSH2 0x182A JUMP JUMPDEST POP PUSH1 0x40 DUP3 ADD MLOAD DUP2 PUSH1 0x2 ADD SWAP1 DUP2 PUSH2 0xF8A SWAP2 SWAP1 PUSH2 0x182A JUMP JUMPDEST POP PUSH1 0x60 DUP3 ADD MLOAD DUP2 PUSH1 0x3 ADD SSTORE PUSH1 0x80 DUP3 ADD MLOAD DUP2 PUSH1 0x4 ADD SWAP1 DUP2 PUSH2 0xFAA SWAP2 SWAP1 PUSH2 0x182A JUMP JUMPDEST POP PUSH1 0xA0 DUP3 ADD MLOAD DUP2 PUSH1 0x5 ADD SSTORE SWAP1 POP POP PUSH32 0x5B97192FBDAC5F86E3C2357B10AE099EB30B9263A92BE777B80F46D3C59C8648 PUSH1 0x3 SLOAD DUP7 DUP7 DUP7 DUP7 DUP7 CALLER PUSH1 0x40 MLOAD PUSH2 0xFF5 SWAP8 SWAP7 SWAP6 SWAP5 SWAP4 SWAP3 SWAP2 SWAP1 PUSH2 0x1EDD JUMP JUMPDEST PUSH1 0x40 MLOAD DUP1 SWAP2 SUB SWAP1 LOG1 POP POP POP POP POP JUMP JUMPDEST PUSH1 0x0 PUSH1 0x40 MLOAD SWAP1 POP SWAP1 JUMP JUMPDEST PUSH1 0x0 DUP1 REVERT JUMPDEST PUSH1 0x0 DUP1 REVERT JUMPDEST PUSH1 0x0 DUP1 REVERT JUMPDEST PUSH1 0x0 DUP1 REVERT JUMPDEST PUSH1 0x0 PUSH1 0x1F NOT PUSH1 0x1F DUP4 ADD AND SWAP1 POP SWAP2 SWAP1 POP JUMP JUMPDEST PUSH32 0x4E487B7100000000000000000000000000000000000000000000000000000000 PUSH1 0x0 MSTORE PUSH1 0x41 PUSH1 0x4 MSTORE PUSH1 0x24 PUSH1 0x0 REVERT JUMPDEST PUSH2 0x106B DUP3 PUSH2 0x1022 JUMP JUMPDEST DUP2 ADD DUP2 DUP2 LT PUSH8 0xFFFFFFFFFFFFFFFF DUP3 GT OR ISZERO PUSH2 0x108A JUMPI PUSH2 0x1089 PUSH2 0x1033 JUMP JUMPDEST JUMPDEST DUP1 PUSH1 0x40 MSTORE POP POP POP JUMP JUMPDEST PUSH1 0x0 PUSH2 0x109D PUSH2 0x1004 JUMP JUMPDEST SWAP1 POP PUSH2 0x10A9 DUP3 DUP3 PUSH2 0x1062 JUMP JUMPDEST SWAP2 SWAP1 POP JUMP JUMPDEST PUSH1 0x0 PUSH8 0xFFFFFFFFFFFFFFFF DUP3 GT ISZERO PUSH2 0x10C9 JUMPI PUSH2 0x10C8 PUSH2 0x1033 JUMP JUMPDEST JUMPDEST PUSH2 0x10D2 DUP3 PUSH2 0x1022 JUMP JUMPDEST SWAP1 POP PUSH1 0x20 DUP2 ADD SWAP1 POP SWAP2 SWAP1 POP JUMP JUMPDEST DUP3 DUP2 DUP4 CALLDATACOPY PUSH1 0x0 DUP4 DUP4 ADD MSTORE POP POP POP JUMP JUMPDEST PUSH1 0x0 PUSH2 0x1101 PUSH2 0x10FC DUP5 PUSH2 0x10AE JUMP JUMPDEST PUSH2 0x1093 JUMP JUMPDEST SWAP1 POP DUP3 DUP2 MSTORE PUSH1 0x20 DUP2 ADD DUP5 DUP5 DUP5 ADD GT ISZERO PUSH2 0x111D JUMPI PUSH2 0x111C PUSH2 0x101D JUMP JUMPDEST JUMPDEST PUSH2 0x1128 DUP5 DUP3 DUP6 PUSH2 0x10DF JUMP JUMPDEST POP SWAP4 SWAP3 POP POP POP JUMP JUMPDEST PUSH1 0x0 DUP3 PUSH1 0x1F DUP4 ADD SLT PUSH2 0x1145 JUMPI PUSH2 0x1144 PUSH2 0x1018 JUMP JUMPDEST JUMPDEST DUP2 CALLDATALOAD PUSH2 0x1155 DUP5 DUP3 PUSH1 0x20 DUP7 ADD PUSH2 0x10EE JUMP JUMPDEST SWAP2 POP POP SWAP3 SWAP2 POP POP JUMP JUMPDEST PUSH1 0x0 DUP1 PUSH1 0x40 DUP4 DUP6 SUB SLT ISZERO PUSH2 0x1175 JUMPI PUSH2 0x1174 PUSH2 0x100E JUMP JUMPDEST JUMPDEST PUSH1 0x0 DUP4 ADD CALLDATALOAD PUSH8 0xFFFFFFFFFFFFFFFF DUP2 GT ISZERO PUSH2 0x1193 JUMPI PUSH2 0x1192 PUSH2 0x1013 JUMP JUMPDEST JUMPDEST PUSH2 0x119F DUP6 DUP3 DUP7 ADD PUSH2 0x1130 JUMP JUMPDEST SWAP3 POP POP PUSH1 0x20 DUP4 ADD CALLDATALOAD PUSH8 0xFFFFFFFFFFFFFFFF DUP2 GT ISZERO PUSH2 0x11C0 JUMPI PUSH2 0x11BF PUSH2 0x1013 JUMP JUMPDEST JUMPDEST PUSH2 0x11CC DUP6 DUP3 DUP7 ADD PUSH2 0x1130 JUMP JUMPDEST SWAP2 POP POP SWAP3 POP SWAP3 SWAP1 POP JUMP JUMPDEST PUSH1 0x0 DUP2 SWAP1 POP SWAP2 SWAP1 POP JUMP JUMPDEST PUSH2 0x11E9 DUP2 PUSH2 0x11D6 JUMP JUMPDEST DUP3 MSTORE POP POP JUMP JUMPDEST PUSH1 0x0 PUSH1 0x20 DUP3 ADD SWAP1 POP PUSH2 0x1204 PUSH1 0x0 DUP4 ADD DUP5 PUSH2 0x11E0 JUMP JUMPDEST SWAP3 SWAP2 POP POP JUMP JUMPDEST PUSH2 0x1213 DUP2 PUSH2 0x11D6 JUMP JUMPDEST DUP2 EQ PUSH2 0x121E JUMPI PUSH1 0x0 DUP1 REVERT JUMPDEST POP JUMP JUMPDEST PUSH1 0x0 DUP2 CALLDATALOAD SWAP1 POP PUSH2 0x1230 DUP2 PUSH2 0x120A JUMP JUMPDEST SWAP3 SWAP2 POP POP JUMP JUMPDEST PUSH1 0x0 PUSH1 0x20 DUP3 DUP5 SUB SLT ISZERO PUSH2 0x124C JUMPI PUSH2 0x124B PUSH2 0x100E JUMP JUMPDEST JUMPDEST PUSH1 0x0 PUSH2 0x125A DUP5 DUP3 DUP6 ADD PUSH2 0x1221 JUMP JUMPDEST SWAP2 POP POP SWAP3 SWAP2 POP POP JUMP JUMPDEST PUSH1 0x0 DUP2 MLOAD SWAP1 POP SWAP2 SWAP1 POP JUMP JUMPDEST PUSH1 0x0 DUP3 DUP3 MSTORE PUSH1 0x20 DUP3 ADD SWAP1 POP SWAP3 SWAP2 POP POP JUMP JUMPDEST PUSH1 0x0 JUMPDEST DUP4 DUP2 LT ISZERO PUSH2 0x129D JUMPI DUP1 DUP3 ADD MLOAD DUP2 DUP5 ADD MSTORE PUSH1 0x20 DUP2 ADD SWAP1 POP PUSH2 0x1282 JUMP JUMPDEST PUSH1 0x0 DUP5 DUP5 ADD MSTORE POP POP POP POP JUMP JUMPDEST PUSH1 0x0 PUSH2 0x12B4 DUP3 PUSH2 0x1263 JUMP JUMPDEST PUSH2 0x12BE DUP2 DUP6 PUSH2 0x126E JUMP JUMPDEST SWAP4 POP PUSH2 0x12CE DUP2 DUP6 PUSH1 0x20 DUP7 ADD PUSH2 0x127F JUMP JUMPDEST PUSH2 0x12D7 DUP2 PUSH2 0x1022 JUMP JUMPDEST DUP5 ADD SWAP2 POP POP SWAP3 SWAP2 POP POP JUMP JUMPDEST PUSH1 0x0 PUSH1 0xA0 DUP3 ADD SWAP1 POP DUP2 DUP2 SUB PUSH1 0x0 DUP4 ADD MSTORE PUSH2 0x12FC DUP2 DUP9 PUSH2 0x12A9 JUMP JUMPDEST SWAP1 POP DUP2 DUP2 SUB PUSH1 0x20 DUP4 ADD MSTORE PUSH2 0x1310 DUP2 DUP8 PUSH2 0x12A9 JUMP JUMPDEST SWAP1 POP PUSH2 0x131F PUSH1 0x40 DUP4 ADD DUP7 PUSH2 0x11E0 JUMP JUMPDEST DUP2 DUP2 SUB PUSH1 0x60 DUP4 ADD MSTORE PUSH2 0x1331 DUP2 DUP6 PUSH2 0x12A9 JUMP JUMPDEST SWAP1 POP PUSH2 0x1340 PUSH1 0x80 DUP4 ADD DUP5 PUSH2 0x11E0 JUMP JUMPDEST SWAP7 SWAP6 POP POP POP POP POP POP JUMP JUMPDEST PUSH1 0x0 PUSH1 0xC0 DUP3 ADD SWAP1 POP PUSH2 0x135F PUSH1 0x0 DUP4 ADD DUP10 PUSH2 0x11E0 JUMP JUMPDEST DUP2 DUP2 SUB PUSH1 0x20 DUP4 ADD MSTORE PUSH2 0x1371 DUP2 DUP9 PUSH2 0x12A9 JUMP JUMPDEST SWAP1 POP DUP2 DUP2 SUB PUSH1 0x40 DUP4 ADD MSTORE PUSH2 0x1385 DUP2 DUP8 PUSH2 0x12A9 JUMP JUMPDEST SWAP1 POP PUSH2 0x1394 PUSH1 0x60 DUP4 ADD DUP7 PUSH2 0x11E0 JUMP JUMPDEST DUP2 DUP2 SUB PUSH1 0x80 DUP4 ADD MSTORE PUSH2 0x13A6 DUP2 DUP6 PUSH2 0x12A9 JUMP JUMPDEST SWAP1 POP PUSH2 0x13B5 PUSH1 0xA0 DUP4 ADD DUP5 PUSH2 0x11E0 JUMP JUMPDEST SWAP8 SWAP7 POP POP POP POP POP POP POP JUMP JUMPDEST PUSH1 0x0 DUP2 ISZERO ISZERO SWAP1 POP SWAP2 SWAP1 POP JUMP JUMPDEST PUSH2 0x13D5 DUP2 PUSH2 0x13C0 JUMP JUMPDEST DUP3 MSTORE POP POP JUMP JUMPDEST PUSH1 0x0 PUSH1 0xA0 DUP3 ADD SWAP1 POP PUSH2 0x13F0 PUSH1 0x0 DUP4 ADD DUP9 PUSH2 0x11E0 JUMP JUMPDEST DUP2 DUP2 SUB PUSH1 0x20 DUP4 ADD MSTORE PUSH2 0x1402 DUP2 DUP8 PUSH2 0x12A9 JUMP JUMPDEST SWAP1 POP DUP2 DUP2 SUB PUSH1 0x40 DUP4 ADD MSTORE PUSH2 0x1416 DUP2 DUP7 PUSH2 0x12A9 JUMP JUMPDEST SWAP1 POP PUSH2 0x1425 PUSH1 0x60 DUP4 ADD DUP6 PUSH2 0x13CC JUMP JUMPDEST PUSH2 0x1432 PUSH1 0x80 DUP4 ADD DUP5 PUSH2 0x11E0 JUMP JUMPDEST SWAP7 SWAP6 POP POP POP POP POP POP JUMP JUMPDEST PUSH1 0x0 PUSH20 0xFFFFFFFFFFFFFFFFFFFFFFFFFFFFFFFFFFFFFFFF DUP3 AND SWAP1 POP SWAP2 SWAP1 POP JUMP JUMPDEST PUSH1 0x0 PUSH2 0x1467 DUP3 PUSH2 0x143C JUMP JUMPDEST SWAP1 POP SWAP2 SWAP1 POP JUMP JUMPDEST PUSH2 0x1477 DUP2 PUSH2 0x145C JUMP JUMPDEST DUP3 MSTORE POP POP JUMP JUMPDEST PUSH1 0x0 PUSH1 0x20 DUP3 ADD SWAP1 POP PUSH2 0x1492 PUSH1 0x0 DUP4 ADD DUP5 PUSH2 0x146E JUMP JUMPDEST SWAP3 SWAP2 POP POP JUMP JUMPDEST PUSH1 0x0 DUP1 PUSH1 0x40 DUP4 DUP6 SUB SLT ISZERO PUSH2 0x14AF JUMPI PUSH2 0x14AE PUSH2 0x100E JUMP JUMPDEST JUMPDEST PUSH1 0x0 PUSH2 0x14BD DUP6 DUP3 DUP7 ADD PUSH2 0x1221 JUMP JUMPDEST SWAP3 POP POP PUSH1 0x20 PUSH2 0x14CE DUP6 DUP3 DUP7 ADD PUSH2 0x1221 JUMP JUMPDEST SWAP2 POP POP SWAP3 POP SWAP3 SWAP1 POP JUMP JUMPDEST PUSH1 0x0 DUP1 PUSH1 0x0 DUP1 PUSH1 0x0 PUSH1 0xA0 DUP7 DUP9 SUB SLT ISZERO PUSH2 0x14F4 JUMPI PUSH2 0x14F3 PUSH2 0x100E JUMP JUMPDEST JUMPDEST PUSH1 0x0 DUP7 ADD CALLDATALOAD PUSH8 0xFFFFFFFFFFFFFFFF DUP2 GT ISZERO PUSH2 0x1512 JUMPI PUSH2 0x1511 PUSH2 0x1013 JUMP JUMPDEST JUMPDEST PUSH2 0x151E DUP9 DUP3 DUP10 ADD PUSH2 0x1130 JUMP JUMPDEST SWAP6 POP POP PUSH1 0x20 DUP7 ADD CALLDATALOAD PUSH8 0xFFFFFFFFFFFFFFFF DUP2 GT ISZERO PUSH2 0x153F JUMPI PUSH2 0x153E PUSH2 0x1013 JUMP JUMPDEST JUMPDEST PUSH2 0x154B DUP9 DUP3 DUP10 ADD PUSH2 0x1130 JUMP JUMPDEST SWAP5 POP POP PUSH1 0x40 PUSH2 0x155C DUP9 DUP3 DUP10 ADD PUSH2 0x1221 JUMP JUMPDEST SWAP4 POP POP PUSH1 0x60 DUP7 ADD CALLDATALOAD PUSH8 0xFFFFFFFFFFFFFFFF DUP2 GT ISZERO PUSH2 0x157D JUMPI PUSH2 0x157C PUSH2 0x1013 JUMP JUMPDEST JUMPDEST PUSH2 0x1589 DUP9 DUP3 DUP10 ADD PUSH2 0x1130 JUMP JUMPDEST SWAP3 POP POP PUSH1 0x80 PUSH2 0x159A DUP9 DUP3 DUP10 ADD PUSH2 0x1221 JUMP JUMPDEST SWAP2 POP POP SWAP3 SWAP6 POP SWAP3 SWAP6 SWAP1 SWAP4 POP JUMP JUMPDEST PUSH32 0x4E487B7100000000000000000000000000000000000000000000000000000000 PUSH1 0x0 MSTORE PUSH1 0x11 PUSH1 0x4 MSTORE PUSH1 0x24 PUSH1 0x0 REVERT JUMPDEST PUSH1 0x0 PUSH2 0x15E1 DUP3 PUSH2 0x11D6 JUMP JUMPDEST SWAP2 POP PUSH32 0xFFFFFFFFFFFFFFFFFFFFFFFFFFFFFFFFFFFFFFFFFFFFFFFFFFFFFFFFFFFFFFFF DUP3 SUB PUSH2 0x1613 JUMPI PUSH2 0x1612 PUSH2 0x15A7 JUMP JUMPDEST JUMPDEST PUSH1 0x1 DUP3 ADD SWAP1 POP SWAP2 SWAP1 POP JUMP JUMPDEST PUSH32 0x4E487B7100000000000000000000000000000000000000000000000000000000 PUSH1 0x0 MSTORE PUSH1 0x22 PUSH1 0x4 MSTORE PUSH1 0x24 PUSH1 0x0 REVERT JUMPDEST PUSH1 0x0 PUSH1 0x2 DUP3 DIV SWAP1 POP PUSH1 0x1 DUP3 AND DUP1 PUSH2 0x1665 JUMPI PUSH1 0x7F DUP3 AND SWAP2 POP JUMPDEST PUSH1 0x20 DUP3 LT DUP2 SUB PUSH2 0x1678 JUMPI PUSH2 0x1677 PUSH2 0x161E JUMP JUMPDEST JUMPDEST POP SWAP2 SWAP1 POP JUMP JUMPDEST PUSH1 0x0 DUP2 SWAP1 POP DUP2 PUSH1 0x0 MSTORE PUSH1 0x20 PUSH1 0x0 KECCAK256 SWAP1 POP SWAP2 SWAP1 POP JUMP JUMPDEST PUSH1 0x0 PUSH1 0x20 PUSH1 0x1F DUP4 ADD DIV SWAP1 POP SWAP2 SWAP1 POP JUMP JUMPDEST PUSH1 0x0 DUP3 DUP3 SHL SWAP1 POP SWAP3 SWAP2 POP POP JUMP JUMPDEST PUSH1 0x0 PUSH1 0x8 DUP4 MUL PUSH2 0x16E0 PUSH32 0xFFFFFFFFFFFFFFFFFFFFFFFFFFFFFFFFFFFFFFFFFFFFFFFFFFFFFFFFFFFFFFFF DUP3 PUSH2 0x16A3 JUMP JUMPDEST PUSH2 0x16EA DUP7 DUP4 PUSH2 0x16A3 JUMP JUMPDEST SWAP6 POP DUP1 NOT DUP5 AND SWAP4 POP DUP1 DUP7 AND DUP5 OR SWAP3 POP POP POP SWAP4 SWAP3 POP POP POP JUMP JUMPDEST PUSH1 0x0 DUP2 SWAP1 POP SWAP2 SWAP1 POP JUMP JUMPDEST PUSH1 0x0 PUSH2 0x1727 PUSH2 0x1722 PUSH2 0x171D DUP5 PUSH2 0x11D6 JUMP JUMPDEST PUSH2 0x1702 JUMP JUMPDEST PUSH2 0x11D6 JUMP JUMPDEST SWAP1 POP SWAP2 SWAP1 POP JUMP JUMPDEST PUSH1 0x0 DUP2 SWAP1 POP SWAP2 SWAP1 POP JUMP JUMPDEST PUSH2 0x1741 DUP4 PUSH2 0x170C JUMP JUMPDEST PUSH2 0x1755 PUSH2 0x174D DUP3 PUSH2 0x172E JUMP JUMPDEST DUP5 DUP5 SLOAD PUSH2 0x16B0 JUMP JUMPDEST DUP3 SSTORE POP POP POP POP JUMP JUMPDEST PUSH1 0x0 SWAP1 JUMP JUMPDEST PUSH2 0x176A PUSH2 0x175D JUMP JUMPDEST PUSH2 0x1775 DUP2 DUP5 DUP5 PUSH2 0x1738 JUMP JUMPDEST POP POP POP JUMP JUMPDEST JUMPDEST DUP2 DUP2 LT ISZERO PUSH2 0x1799 JUMPI PUSH2 0x178E PUSH1 0x0 DUP3 PUSH2 0x1762 JUMP JUMPDEST PUSH1 0x1 DUP2 ADD SWAP1 POP PUSH2 0x177B JUMP JUMPDEST POP POP JUMP JUMPDEST PUSH1 0x1F DUP3 GT ISZERO PUSH2 0x17DE JUMPI PUSH2 0x17AF DUP2 PUSH2 0x167E JUMP JUMPDEST PUSH2 0x17B8 DUP5 PUSH2 0x1693 JUMP JUMPDEST DUP2 ADD PUSH1 0x20 DUP6 LT ISZERO PUSH2 0x17C7 JUMPI DUP2 SWAP1 POP JUMPDEST PUSH2 0x17DB PUSH2 0x17D3 DUP6 PUSH2 0x1693 JUMP JUMPDEST DUP4 ADD DUP3 PUSH2 0x177A JUMP JUMPDEST POP POP JUMPDEST POP POP POP JUMP JUMPDEST PUSH1 0x0 DUP3 DUP3 SHR SWAP1 POP SWAP3 SWAP2 POP POP JUMP JUMPDEST PUSH1 0x0 PUSH2 0x1801 PUSH1 0x0 NOT DUP5 PUSH1 0x8 MUL PUSH2 0x17E3 JUMP JUMPDEST NOT DUP1 DUP4 AND SWAP2 POP POP SWAP3 SWAP2 POP POP JUMP JUMPDEST PUSH1 0x0 PUSH2 0x181A DUP4 DUP4 PUSH2 0x17F0 JUMP JUMPDEST SWAP2 POP DUP3 PUSH1 0x2 MUL DUP3 OR SWAP1 POP SWAP3 SWAP2 POP POP JUMP JUMPDEST PUSH2 0x1833 DUP3 PUSH2 0x1263 JUMP JUMPDEST PUSH8 0xFFFFFFFFFFFFFFFF DUP2 GT ISZERO PUSH2 0x184C JUMPI PUSH2 0x184B PUSH2 0x1033 JUMP JUMPDEST JUMPDEST PUSH2 0x1856 DUP3 SLOAD PUSH2 0x164D JUMP JUMPDEST PUSH2 0x1861 DUP3 DUP3 DUP6 PUSH2 0x179D JUMP JUMPDEST PUSH1 0x0 PUSH1 0x20 SWAP1 POP PUSH1 0x1F DUP4 GT PUSH1 0x1 DUP2 EQ PUSH2 0x1894 JUMPI PUSH1 0x0 DUP5 ISZERO PUSH2 0x1882 JUMPI DUP3 DUP8 ADD MLOAD SWAP1 POP JUMPDEST PUSH2 0x188C DUP6 DUP3 PUSH2 0x180E JUMP JUMPDEST DUP7 SSTORE POP PUSH2 0x18F4 JUMP JUMPDEST PUSH1 0x1F NOT DUP5 AND PUSH2 0x18A2 DUP7 PUSH2 0x167E JUMP JUMPDEST PUSH1 0x0 JUMPDEST DUP3 DUP2 LT ISZERO PUSH2 0x18CA JUMPI DUP5 DUP10 ADD MLOAD DUP3 SSTORE PUSH1 0x1 DUP3 ADD SWAP2 POP PUSH1 0x20 DUP6 ADD SWAP5 POP PUSH1 0x20 DUP2 ADD SWAP1 POP PUSH2 0x18A5 JUMP JUMPDEST DUP7 DUP4 LT ISZERO PUSH2 0x18E7 JUMPI DUP5 DUP10 ADD MLOAD PUSH2 0x18E3 PUSH1 0x1F DUP10 AND DUP3 PUSH2 0x17F0 JUMP JUMPDEST DUP4 SSTORE POP JUMPDEST PUSH1 0x1 PUSH1 0x2 DUP9 MUL ADD DUP9 SSTORE POP POP POP JUMPDEST POP POP POP POP POP POP JUMP JUMPDEST PUSH32 0x496E76616C69642070726F647563742049440000000000000000000000000000 PUSH1 0x0 DUP3 ADD MSTORE POP JUMP JUMPDEST PUSH1 0x0 PUSH2 0x1932 PUSH1 0x12 DUP4 PUSH2 0x126E JUMP JUMPDEST SWAP2 POP PUSH2 0x193D DUP3 PUSH2 0x18FC JUMP JUMPDEST PUSH1 0x20 DUP3 ADD SWAP1 POP SWAP2 SWAP1 POP JUMP JUMPDEST PUSH1 0x0 PUSH1 0x20 DUP3 ADD SWAP1 POP DUP2 DUP2 SUB PUSH1 0x0 DUP4 ADD MSTORE PUSH2 0x1961 DUP2 PUSH2 0x1925 JUMP JUMPDEST SWAP1 POP SWAP2 SWAP1 POP JUMP JUMPDEST PUSH32 0x4E6F7420656E6F7567682073746F636B20617661696C61626C65000000000000 PUSH1 0x0 DUP3 ADD MSTORE POP JUMP JUMPDEST PUSH1 0x0 PUSH2 0x199E PUSH1 0x1A DUP4 PUSH2 0x126E JUMP JUMPDEST SWAP2 POP PUSH2 0x19A9 DUP3 PUSH2 0x1968 JUMP JUMPDEST PUSH1 0x20 DUP3 ADD SWAP1 POP SWAP2 SWAP1 POP JUMP JUMPDEST PUSH1 0x0 PUSH1 0x20 DUP3 ADD SWAP1 POP DUP2 DUP2 SUB PUSH1 0x0 DUP4 ADD MSTORE PUSH2 0x19CD DUP2 PUSH2 0x1991 JUMP JUMPDEST SWAP1 POP SWAP2 SWAP1 POP JUMP JUMPDEST PUSH1 0x0 PUSH2 0x19DF DUP3 PUSH2 0x11D6 JUMP JUMPDEST SWAP2 POP PUSH2 0x19EA DUP4 PUSH2 0x11D6 JUMP JUMPDEST SWAP3 POP DUP3 DUP3 MUL PUSH2 0x19F8 DUP2 PUSH2 0x11D6 JUMP JUMPDEST SWAP2 POP DUP3 DUP3 DIV DUP5 EQ DUP4 ISZERO OR PUSH2 0x1A0F JUMPI PUSH2 0x1A0E PUSH2 0x15A7 JUMP JUMPDEST JUMPDEST POP SWAP3 SWAP2 POP POP JUMP JUMPDEST PUSH32 0x496E636F7272656374207061796D656E7420616D6F756E740000000000000000 PUSH1 0x0 DUP3 ADD MSTORE POP JUMP JUMPDEST PUSH1 0x0 PUSH2 0x1A4C PUSH1 0x18 DUP4 PUSH2 0x126E JUMP JUMPDEST SWAP2 POP PUSH2 0x1A57 DUP3 PUSH2 0x1A16 JUMP JUMPDEST PUSH1 0x20 DUP3 ADD SWAP1 POP SWAP2 SWAP1 POP JUMP JUMPDEST PUSH1 0x0 PUSH1 0x20 DUP3 ADD SWAP1 POP DUP2 DUP2 SUB PUSH1 0x0 DUP4 ADD MSTORE PUSH2 0x1A7B DUP2 PUSH2 0x1A3F JUMP JUMPDEST SWAP1 POP SWAP2 SWAP1 POP JUMP JUMPDEST PUSH1 0x0 PUSH2 0x1A8D DUP3 PUSH2 0x11D6 JUMP JUMPDEST SWAP2 POP PUSH2 0x1A98 DUP4 PUSH2 0x11D6 JUMP JUMPDEST SWAP3 POP DUP3 DUP3 SUB SWAP1 POP DUP2 DUP2 GT ISZERO PUSH2 0x1AB0 JUMPI PUSH2 0x1AAF PUSH2 0x15A7 JUMP JUMPDEST JUMPDEST SWAP3 SWAP2 POP POP JUMP JUMPDEST PUSH1 0x0 DUP2 SLOAD PUSH2 0x1AC3 DUP2 PUSH2 0x164D JUMP JUMPDEST PUSH2 0x1ACD DUP2 DUP7 PUSH2 0x126E JUMP JUMPDEST SWAP5 POP PUSH1 0x1 DUP3 AND PUSH1 0x0 DUP2 EQ PUSH2 0x1AE8 JUMPI PUSH1 0x1 DUP2 EQ PUSH2 0x1AFE JUMPI PUSH2 0x1B31 JUMP JUMPDEST PUSH1 0xFF NOT DUP4 AND DUP7 MSTORE DUP2 ISZERO ISZERO PUSH1 0x20 MUL DUP7 ADD SWAP4 POP PUSH2 0x1B31 JUMP JUMPDEST PUSH2 0x1B07 DUP6 PUSH2 0x167E JUMP JUMPDEST PUSH1 0x0 JUMPDEST DUP4 DUP2 LT ISZERO PUSH2 0x1B29 JUMPI DUP2 SLOAD DUP2 DUP10 ADD MSTORE PUSH1 0x1 DUP3 ADD SWAP2 POP PUSH1 0x20 DUP2 ADD SWAP1 POP PUSH2 0x1B0A JUMP JUMPDEST DUP1 DUP9 ADD SWAP6 POP POP POP JUMPDEST POP POP POP SWAP3 SWAP2 POP POP JUMP JUMPDEST PUSH1 0x0 PUSH1 0xA0 DUP3 ADD SWAP1 POP PUSH2 0x1B4F PUSH1 0x0 DUP4 ADD DUP9 PUSH2 0x11E0 JUMP JUMPDEST DUP2 DUP2 SUB PUSH1 0x20 DUP4 ADD MSTORE PUSH2 0x1B61 DUP2 DUP8 PUSH2 0x1AB6 JUMP JUMPDEST SWAP1 POP PUSH2 0x1B70 PUSH1 0x40 DUP4 ADD DUP7 PUSH2 0x11E0 JUMP JUMPDEST PUSH2 0x1B7D PUSH1 0x60 DUP4 ADD DUP6 PUSH2 0x11E0 JUMP JUMPDEST PUSH2 0x1B8A PUSH1 0x80 DUP4 ADD DUP5 PUSH2 0x146E JUMP JUMPDEST SWAP7 SWAP6 POP POP POP POP POP POP JUMP JUMPDEST PUSH1 0x0 PUSH1 0x40 DUP3 ADD SWAP1 POP PUSH2 0x1BA9 PUSH1 0x0 DUP4 ADD DUP6 PUSH2 0x11E0 JUMP JUMPDEST PUSH2 0x1BB6 PUSH1 0x20 DUP4 ADD DUP5 PUSH2 0x13CC JUMP JUMPDEST SWAP4 SWAP3 POP POP POP JUMP JUMPDEST PUSH32 0x4F6E6C7920746865206F776E65722063616E2063616C6C20746869732066756E PUSH1 0x0 DUP3 ADD MSTORE PUSH32 0x6374696F6E000000000000000000000000000000000000000000000000000000 PUSH1 0x20 DUP3 ADD MSTORE POP JUMP JUMPDEST PUSH1 0x0 PUSH2 0x1C19 PUSH1 0x25 DUP4 PUSH2 0x126E JUMP JUMPDEST SWAP2 POP PUSH2 0x1C24 DUP3 PUSH2 0x1BBD JUMP JUMPDEST PUSH1 0x40 DUP3 ADD SWAP1 POP SWAP2 SWAP1 POP JUMP JUMPDEST PUSH1 0x0 PUSH1 0x20 DUP3 ADD SWAP1 POP DUP2 DUP2 SUB PUSH1 0x0 DUP4 ADD MSTORE PUSH2 0x1C48 DUP2 PUSH2 0x1C0C JUMP JUMPDEST SWAP1 POP SWAP2 SWAP1 POP JUMP JUMPDEST PUSH32 0x50726F64756374206E616D652063616E6E6F7420626520656D70747900000000 PUSH1 0x0 DUP3 ADD MSTORE POP JUMP JUMPDEST PUSH1 0x0 PUSH2 0x1C85 PUSH1 0x1C DUP4 PUSH2 0x126E JUMP JUMPDEST SWAP2 POP PUSH2 0x1C90 DUP3 PUSH2 0x1C4F JUMP JUMPDEST PUSH1 0x20 DUP3 ADD SWAP1 POP SWAP2 SWAP1 POP JUMP JUMPDEST PUSH1 0x0 PUSH1 0x20 DUP3 ADD SWAP1 POP DUP2 DUP2 SUB PUSH1 0x0 DUP4 ADD MSTORE PUSH2 0x1CB4 DUP2 PUSH2 0x1C78 JUMP JUMPDEST SWAP1 POP SWAP2 SWAP1 POP JUMP JUMPDEST PUSH32 0x50726F64756374206465736372697074696F6E2063616E6E6F7420626520656D PUSH1 0x0 DUP3 ADD MSTORE PUSH32 0x7074790000000000000000000000000000000000000000000000000000000000 PUSH1 0x20 DUP3 ADD MSTORE POP JUMP JUMPDEST PUSH1 0x0 PUSH2 0x1D17 PUSH1 0x23 DUP4 PUSH2 0x126E JUMP JUMPDEST SWAP2 POP PUSH2 0x1D22 DUP3 PUSH2 0x1CBB JUMP JUMPDEST PUSH1 0x40 DUP3 ADD SWAP1 POP SWAP2 SWAP1 POP JUMP JUMPDEST PUSH1 0x0 PUSH1 0x20 DUP3 ADD SWAP1 POP DUP2 DUP2 SUB PUSH1 0x0 DUP4 ADD MSTORE PUSH2 0x1D46 DUP2 PUSH2 0x1D0A JUMP JUMPDEST SWAP1 POP SWAP2 SWAP1 POP JUMP JUMPDEST PUSH32 0x50726F647563742073746F636B206D7573742062652067726561746572207468 PUSH1 0x0 DUP3 ADD MSTORE PUSH32 0x616E203000000000000000000000000000000000000000000000000000000000 PUSH1 0x20 DUP3 ADD MSTORE POP JUMP JUMPDEST PUSH1 0x0 PUSH2 0x1DA9 PUSH1 0x24 DUP4 PUSH2 0x126E JUMP JUMPDEST SWAP2 POP PUSH2 0x1DB4 DUP3 PUSH2 0x1D4D JUMP JUMPDEST PUSH1 0x40 DUP3 ADD SWAP1 POP SWAP2 SWAP1 POP JUMP JUMPDEST PUSH1 0x0 PUSH1 0x20 DUP3 ADD SWAP1 POP DUP2 DUP2 SUB PUSH1 0x0 DUP4 ADD MSTORE PUSH2 0x1DD8 DUP2 PUSH2 0x1D9C JUMP JUMPDEST SWAP1 POP SWAP2 SWAP1 POP JUMP JUMPDEST PUSH32 0x50726F647563742065787069726174696F6E20646174652063616E6E6F742062 PUSH1 0x0 DUP3 ADD MSTORE PUSH32 0x6520656D70747900000000000000000000000000000000000000000000000000 PUSH1 0x20 DUP3 ADD MSTORE POP JUMP JUMPDEST PUSH1 0x0 PUSH2 0x1E3B PUSH1 0x27 DUP4 PUSH2 0x126E JUMP JUMPDEST SWAP2 POP PUSH2 0x1E46 DUP3 PUSH2 0x1DDF JUMP JUMPDEST PUSH1 0x40 DUP3 ADD SWAP1 POP SWAP2 SWAP1 POP JUMP JUMPDEST PUSH1 0x0 PUSH1 0x20 DUP3 ADD SWAP1 POP DUP2 DUP2 SUB PUSH1 0x0 DUP4 ADD MSTORE PUSH2 0x1E6A DUP2 PUSH2 0x1E2E JUMP JUMPDEST SWAP1 POP SWAP2 SWAP1 POP JUMP JUMPDEST PUSH32 0x50726F647563742070726963652063616E6E6F74206265206E65676174697665 PUSH1 0x0 DUP3 ADD MSTORE POP JUMP JUMPDEST PUSH1 0x0 PUSH2 0x1EA7 PUSH1 0x20 DUP4 PUSH2 0x126E JUMP JUMPDEST SWAP2 POP PUSH2 0x1EB2 DUP3 PUSH2 0x1E71 JUMP JUMPDEST PUSH1 0x20 DUP3 ADD SWAP1 POP SWAP2 SWAP1 POP JUMP JUMPDEST PUSH1 0x0 PUSH1 0x20 DUP3 ADD SWAP1 POP DUP2 DUP2 SUB PUSH1 0x0 DUP4 ADD MSTORE PUSH2 0x1ED6 DUP2 PUSH2 0x1E9A JUMP JUMPDEST SWAP1 POP SWAP2 SWAP1 POP JUMP JUMPDEST PUSH1 0x0 PUSH1 0xE0 DUP3 ADD SWAP1 POP PUSH2 0x1EF2 PUSH1 0x0 DUP4 ADD DUP11 PUSH2 0x11E0 JUMP JUMPDEST DUP2 DUP2 SUB PUSH1 0x20 DUP4 ADD MSTORE PUSH2 0x1F04 DUP2 DUP10 PUSH2 0x12A9 JUMP JUMPDEST SWAP1 POP DUP2 DUP2 SUB PUSH1 0x40 DUP4 ADD MSTORE PUSH2 0x1F18 DUP2 DUP9 PUSH2 0x12A9 JUMP JUMPDEST SWAP1 POP PUSH2 0x1F27 PUSH1 0x60 DUP4 ADD DUP8 PUSH2 0x11E0 JUMP JUMPDEST DUP2 DUP2 SUB PUSH1 0x80 DUP4 ADD MSTORE PUSH2 0x1F39 DUP2 DUP7 PUSH2 0x12A9 JUMP JUMPDEST SWAP1 POP PUSH2 0x1F48 PUSH1 0xA0 DUP4 ADD DUP6 PUSH2 0x11E0 JUMP JUMPDEST PUSH2 0x1F55 PUSH1 0xC0 DUP4 ADD DUP5 PUSH2 0x146E JUMP JUMPDEST SWAP9 SWAP8 POP POP POP POP POP POP POP POP JUMP INVALID LOG2 PUSH5 0x6970667358 0x22 SLT KECCAK256 0xD6 0xE2 0xC 0xEA 0xB3 0xE3 PUSH2 0x4E34 0xA6 POP BASEFEE 0xC2 DUP10 0xF6 SGT PUSH4 0xD470AE 0xDA PUSH25 0x2F747DA7B45A62CFDC64736F6C634300081200330000000000 "
				},
				"gasEstimates": {
					"creation": {
						"codeDepositCost": "1617400",
						"executionCost": "35980",
						"totalCost": "1653380"
					},
					"external": {
						"addProduct(string,string,uint256,string,uint256)": "infinite",
						"cambioEstado(uint256)": "infinite",
						"createTask(string,string)": "infinite",
						"getProductDetails(uint256)": "infinite",
						"owner()": "2514",
						"productCount()": "2495",
						"products(uint256)": "infinite",
						"purchaseProduct(uint256,uint256)": "infinite",
						"taskCounter()": "2452",
						"tasks(uint256)": "infinite"
					}
				},
				"methodIdentifiers": {
					"addProduct(string,string,uint256,string,uint256)": "e324eb43",
					"cambioEstado(uint256)": "a49eefa0",
					"createTask(string,string)": "292a4585",
					"getProductDetails(uint256)": "6813b53b",
					"owner()": "8da5cb5b",
					"productCount()": "e0f6ef87",
					"products(uint256)": "7acc0b20",
					"purchaseProduct(uint256,uint256)": "a0440426",
					"taskCounter()": "58671730",
					"tasks(uint256)": "8d977672"
				}
			},
			"storageLayout": {
				"storage": [
					{
						"astId": 4,
						"contract": "contracts/agregarInvetarioPOS.sol:TaskContract",
						"label": "taskCounter",
						"offset": 0,
						"slot": "0",
						"type": "t_uint256"
					},
					{
						"astId": 38,
						"contract": "contracts/agregarInvetarioPOS.sol:TaskContract",
						"label": "tasks",
						"offset": 0,
						"slot": "1",
						"type": "t_mapping(t_uint256,t_struct(Task)33_storage)"
					},
					{
						"astId": 106,
						"contract": "contracts/agregarInvetarioPOS.sol:TaskContract",
						"label": "owner",
						"offset": 0,
						"slot": "2",
						"type": "t_address"
					},
					{
						"astId": 108,
						"contract": "contracts/agregarInvetarioPOS.sol:TaskContract",
						"label": "productCount",
						"offset": 0,
						"slot": "3",
						"type": "t_uint256"
					},
					{
						"astId": 126,
						"contract": "contracts/agregarInvetarioPOS.sol:TaskContract",
						"label": "products",
						"offset": 0,
						"slot": "4",
						"type": "t_mapping(t_uint256,t_struct(Product)121_storage)"
					}
				],
				"types": {
					"t_address": {
						"encoding": "inplace",
						"label": "address",
						"numberOfBytes": "20"
					},
					"t_bool": {
						"encoding": "inplace",
						"label": "bool",
						"numberOfBytes": "1"
					},
					"t_mapping(t_uint256,t_struct(Product)121_storage)": {
						"encoding": "mapping",
						"key": "t_uint256",
						"label": "mapping(uint256 => struct TaskContract.Product)",
						"numberOfBytes": "32",
						"value": "t_struct(Product)121_storage"
					},
					"t_mapping(t_uint256,t_struct(Task)33_storage)": {
						"encoding": "mapping",
						"key": "t_uint256",
						"label": "mapping(uint256 => struct TaskContract.Task)",
						"numberOfBytes": "32",
						"value": "t_struct(Task)33_storage"
					},
					"t_string_storage": {
						"encoding": "bytes",
						"label": "string",
						"numberOfBytes": "32"
					},
					"t_struct(Product)121_storage": {
						"encoding": "inplace",
						"label": "struct TaskContract.Product",
						"members": [
							{
								"astId": 110,
								"contract": "contracts/agregarInvetarioPOS.sol:TaskContract",
								"label": "id",
								"offset": 0,
								"slot": "0",
								"type": "t_uint256"
							},
							{
								"astId": 112,
								"contract": "contracts/agregarInvetarioPOS.sol:TaskContract",
								"label": "name",
								"offset": 0,
								"slot": "1",
								"type": "t_string_storage"
							},
							{
								"astId": 114,
								"contract": "contracts/agregarInvetarioPOS.sol:TaskContract",
								"label": "description",
								"offset": 0,
								"slot": "2",
								"type": "t_string_storage"
							},
							{
								"astId": 116,
								"contract": "contracts/agregarInvetarioPOS.sol:TaskContract",
								"label": "stock",
								"offset": 0,
								"slot": "3",
								"type": "t_uint256"
							},
							{
								"astId": 118,
								"contract": "contracts/agregarInvetarioPOS.sol:TaskContract",
								"label": "expirationDate",
								"offset": 0,
								"slot": "4",
								"type": "t_string_storage"
							},
							{
								"astId": 120,
								"contract": "contracts/agregarInvetarioPOS.sol:TaskContract",
								"label": "price",
								"offset": 0,
								"slot": "5",
								"type": "t_uint256"
							}
						],
						"numberOfBytes": "192"
					},
					"t_struct(Task)33_storage": {
						"encoding": "inplace",
						"label": "struct TaskContract.Task",
						"members": [
							{
								"astId": 24,
								"contract": "contracts/agregarInvetarioPOS.sol:TaskContract",
								"label": "id",
								"offset": 0,
								"slot": "0",
								"type": "t_uint256"
							},
							{
								"astId": 26,
								"contract": "contracts/agregarInvetarioPOS.sol:TaskContract",
								"label": "title",
								"offset": 0,
								"slot": "1",
								"type": "t_string_storage"
							},
							{
								"astId": 28,
								"contract": "contracts/agregarInvetarioPOS.sol:TaskContract",
								"label": "description",
								"offset": 0,
								"slot": "2",
								"type": "t_string_storage"
							},
							{
								"astId": 30,
								"contract": "contracts/agregarInvetarioPOS.sol:TaskContract",
								"label": "done",
								"offset": 0,
								"slot": "3",
								"type": "t_bool"
							},
							{
								"astId": 32,
								"contract": "contracts/agregarInvetarioPOS.sol:TaskContract",
								"label": "creatAt",
								"offset": 0,
								"slot": "4",
								"type": "t_uint256"
							}
						],
						"numberOfBytes": "160"
					},
					"t_uint256": {
						"encoding": "inplace",
						"label": "uint256",
						"numberOfBytes": "32"
					}
				}
			},
			"userdoc": {
				"kind": "user",
				"methods": {},
				"version": 1
			}
		}
	}
}