{
	"contracts/parque/parque.sol": {
		"Disney": {
			"abi": [
				{
					"inputs": [],
					"stateMutability": "nonpayable",
					"type": "constructor"
				},
				{
					"anonymous": false,
					"inputs": [
						{
							"indexed": false,
							"internalType": "string",
							"name": "",
							"type": "string"
						}
					],
					"name": "baja_atraccion",
					"type": "event"
				},
				{
					"anonymous": false,
					"inputs": [
						{
							"indexed": false,
							"internalType": "string",
							"name": "",
							"type": "string"
						}
					],
					"name": "baja_comida",
					"type": "event"
				},
				{
					"anonymous": false,
					"inputs": [
						{
							"indexed": false,
							"internalType": "string",
							"name": "",
							"type": "string"
						},
						{
							"indexed": false,
							"internalType": "uint256",
							"name": "",
							"type": "uint256"
						},
						{
							"indexed": false,
							"internalType": "address",
							"name": "",
							"type": "address"
						}
					],
					"name": "disfruta_atraccion",
					"type": "event"
				},
				{
					"anonymous": false,
					"inputs": [
						{
							"indexed": false,
							"internalType": "string",
							"name": "",
							"type": "string"
						},
						{
							"indexed": false,
							"internalType": "uint256",
							"name": "",
							"type": "uint256"
						},
						{
							"indexed": false,
							"internalType": "address",
							"name": "",
							"type": "address"
						}
					],
					"name": "disfruta_comida",
					"type": "event"
				},
				{
					"anonymous": false,
					"inputs": [
						{
							"indexed": false,
							"internalType": "string",
							"name": "",
							"type": "string"
						},
						{
							"indexed": false,
							"internalType": "uint256",
							"name": "",
							"type": "uint256"
						}
					],
					"name": "nueva_atraccion",
					"type": "event"
				},
				{
					"anonymous": false,
					"inputs": [
						{
							"indexed": false,
							"internalType": "string",
							"name": "",
							"type": "string"
						},
						{
							"indexed": false,
							"internalType": "uint256",
							"name": "",
							"type": "uint256"
						},
						{
							"indexed": false,
							"internalType": "bool",
							"name": "",
							"type": "bool"
						}
					],
					"name": "nueva_comida",
					"type": "event"
				},
				{
					"inputs": [],
					"name": "AtraccionesDisponibles",
					"outputs": [
						{
							"internalType": "string[]",
							"name": "",
							"type": "string[]"
						}
					],
					"stateMutability": "view",
					"type": "function"
				},
				{
					"inputs": [
						{
							"internalType": "string",
							"name": "_nombreAtraccion",
							"type": "string"
						}
					],
					"name": "BajaAtraccion",
					"outputs": [],
					"stateMutability": "nonpayable",
					"type": "function"
				},
				{
					"inputs": [
						{
							"internalType": "string",
							"name": "_nombreComida",
							"type": "string"
						}
					],
					"name": "BajaComida",
					"outputs": [],
					"stateMutability": "nonpayable",
					"type": "function"
				},
				{
					"inputs": [
						{
							"internalType": "address",
							"name": "",
							"type": "address"
						}
					],
					"name": "Clientes",
					"outputs": [
						{
							"internalType": "uint256",
							"name": "tokens_comprados",
							"type": "uint256"
						}
					],
					"stateMutability": "view",
					"type": "function"
				},
				{
					"inputs": [],
					"name": "ComidasDisponibles",
					"outputs": [
						{
							"internalType": "string[]",
							"name": "",
							"type": "string[]"
						}
					],
					"stateMutability": "view",
					"type": "function"
				},
				{
					"inputs": [
						{
							"internalType": "uint256",
							"name": "_numTokens",
							"type": "uint256"
						}
					],
					"name": "CompraTokens",
					"outputs": [],
					"stateMutability": "payable",
					"type": "function"
				},
				{
					"inputs": [
						{
							"internalType": "string",
							"name": "_nombreComida",
							"type": "string"
						}
					],
					"name": "ComprarComida",
					"outputs": [],
					"stateMutability": "nonpayable",
					"type": "function"
				},
				{
					"inputs": [
						{
							"internalType": "uint256",
							"name": "_numTokens",
							"type": "uint256"
						}
					],
					"name": "DevolverTokens",
					"outputs": [],
					"stateMutability": "payable",
					"type": "function"
				},
				{
					"inputs": [
						{
							"internalType": "uint256",
							"name": "_numTokens",
							"type": "uint256"
						}
					],
					"name": "GeneraTokens",
					"outputs": [],
					"stateMutability": "nonpayable",
					"type": "function"
				},
				{
					"inputs": [],
					"name": "Historial",
					"outputs": [
						{
							"internalType": "string[]",
							"name": "",
							"type": "string[]"
						}
					],
					"stateMutability": "view",
					"type": "function"
				},
				{
					"inputs": [],
					"name": "HistorialComida",
					"outputs": [
						{
							"internalType": "string[]",
							"name": "",
							"type": "string[]"
						}
					],
					"stateMutability": "view",
					"type": "function"
				},
				{
					"inputs": [
						{
							"internalType": "string",
							"name": "",
							"type": "string"
						}
					],
					"name": "MappingAtracciones",
					"outputs": [
						{
							"internalType": "string",
							"name": "nombre_atraccion",
							"type": "string"
						},
						{
							"internalType": "uint256",
							"name": "precio_atraccion",
							"type": "uint256"
						},
						{
							"internalType": "bool",
							"name": "estado_atraccion",
							"type": "bool"
						}
					],
					"stateMutability": "view",
					"type": "function"
				},
				{
					"inputs": [
						{
							"internalType": "string",
							"name": "",
							"type": "string"
						}
					],
					"name": "MappingComida",
					"outputs": [
						{
							"internalType": "string",
							"name": "nombre_comida",
							"type": "string"
						},
						{
							"internalType": "uint256",
							"name": "precio_comida",
							"type": "uint256"
						},
						{
							"internalType": "bool",
							"name": "estado_comida",
							"type": "bool"
						}
					],
					"stateMutability": "view",
					"type": "function"
				},
				{
					"inputs": [],
					"name": "MisTokens",
					"outputs": [
						{
							"internalType": "uint256",
							"name": "",
							"type": "uint256"
						}
					],
					"stateMutability": "view",
					"type": "function"
				},
				{
					"inputs": [
						{
							"internalType": "string",
							"name": "_nombreAtraccion",
							"type": "string"
						},
						{
							"internalType": "uint256",
							"name": "_precio",
							"type": "uint256"
						}
					],
					"name": "NuevaAtraccion",
					"outputs": [],
					"stateMutability": "nonpayable",
					"type": "function"
				},
				{
					"inputs": [
						{
							"internalType": "string",
							"name": "_nombreComida",
							"type": "string"
						},
						{
							"internalType": "uint256",
							"name": "_precio",
							"type": "uint256"
						}
					],
					"name": "NuevaComida",
					"outputs": [],
					"stateMutability": "nonpayable",
					"type": "function"
				},
				{
					"inputs": [
						{
							"internalType": "string",
							"name": "_nombreAtraccion",
							"type": "string"
						}
					],
					"name": "SubirseAtraccion",
					"outputs": [],
					"stateMutability": "nonpayable",
					"type": "function"
				},
				{
					"inputs": [],
					"name": "balanceOf",
					"outputs": [
						{
							"internalType": "uint256",
							"name": "",
							"type": "uint256"
						}
					],
					"stateMutability": "view",
					"type": "function"
				},
				{
					"inputs": [],
					"name": "owner",
					"outputs": [
						{
							"internalType": "address payable",
							"name": "",
							"type": "address"
						}
					],
					"stateMutability": "view",
					"type": "function"
				}
			],
			"devdoc": {
				"methods": {}
			},
			"evm": {
				"assembly": "    /* \"contracts/parque/parque.sol\":129:10727  contract Disney{\r... */\n  mstore(0x40, 0x80)\n    /* \"contracts/parque/parque.sol\":434:533  constructor () public {\r... */\n  callvalue\n    /* \"--CODEGEN--\":5:14   */\n  dup1\n    /* \"--CODEGEN--\":2:4   */\n  iszero\n  tag_1\n  jumpi\n    /* \"--CODEGEN--\":27:28   */\n  0x00\n    /* \"--CODEGEN--\":24:25   */\n  dup1\n    /* \"--CODEGEN--\":17:29   */\n  revert\n    /* \"--CODEGEN--\":2:4   */\ntag_1:\n    /* \"contracts/parque/parque.sol\":434:533  constructor () public {\r... */\n  pop\n    /* \"contracts/parque/parque.sol\":490:495  10000 */\n  0x2710\n    /* \"contracts/parque/parque.sol\":475:496  new ERC20Basic(10000) */\n  mload(0x40)\n  tag_4\n  swap1\n  tag_5\n  jump\t// in\ntag_4:\n  tag_6\n  swap2\n  swap1\n  jump(tag_7)\ntag_6:\n  mload(0x40)\n  dup1\n  swap2\n  sub\n  swap1\n  0x00\n  create\n  dup1\n  iszero\n    /* \"--CODEGEN--\":8:17   */\n  dup1\n    /* \"--CODEGEN--\":5:7   */\n  iszero\n  tag_8\n  jumpi\n    /* \"--CODEGEN--\":45:61   */\n  returndatasize\n    /* \"--CODEGEN--\":42:43   */\n  0x00\n    /* \"--CODEGEN--\":39:40   */\n  dup1\n    /* \"--CODEGEN--\":24:62   */\n  returndatacopy\n    /* \"--CODEGEN--\":77:93   */\n  returndatasize\n    /* \"--CODEGEN--\":74:75   */\n  0x00\n    /* \"--CODEGEN--\":67:94   */\n  revert\n    /* \"--CODEGEN--\":5:7   */\ntag_8:\n    /* \"contracts/parque/parque.sol\":475:496  new ERC20Basic(10000) */\n  pop\n    /* \"contracts/parque/parque.sol\":467:472  token */\n  0x00\n  dup1\n    /* \"contracts/parque/parque.sol\":467:496  token = new ERC20Basic(10000) */\n  0x0100\n  exp\n  dup2\n  sload\n  dup2\n  0xffffffffffffffffffffffffffffffffffffffff\n  mul\n  not\n  and\n  swap1\n  dup4\n  0xffffffffffffffffffffffffffffffffffffffff\n  and\n  mul\n  or\n  swap1\n  sstore\n  pop\n    /* \"contracts/parque/parque.sol\":515:525  msg.sender */\n  caller\n    /* \"contracts/parque/parque.sol\":507:512  owner */\n  0x01\n  0x00\n    /* \"contracts/parque/parque.sol\":507:525  owner = msg.sender */\n  0x0100\n  exp\n  dup2\n  sload\n  dup2\n  0xffffffffffffffffffffffffffffffffffffffff\n  mul\n  not\n  and\n  swap1\n  dup4\n  0xffffffffffffffffffffffffffffffffffffffff\n  and\n  mul\n  or\n  swap1\n  sstore\n  pop\n    /* \"contracts/parque/parque.sol\":129:10727  contract Disney{\r... */\n  jump(tag_9)\ntag_5:\n  dataSize(sub_1)\n  dup1\n  dataOffset(sub_1)\n  dup4\n  codecopy\n  add\n  swap1\n  jump\t// out\n    /* \"--CODEGEN--\":5:155   */\ntag_11:\n    /* \"--CODEGEN--\":100:149   */\n  tag_13\n    /* \"--CODEGEN--\":143:148   */\n  dup2\n    /* \"--CODEGEN--\":100:149   */\n  jump(tag_14)\ntag_13:\n    /* \"--CODEGEN--\":95:98   */\n  dup3\n    /* \"--CODEGEN--\":88:150   */\n  mstore\n    /* \"--CODEGEN--\":82:155   */\n  pop\n  pop\n  jump\n    /* \"--CODEGEN--\":162:399   */\ntag_7:\n  0x00\n    /* \"--CODEGEN--\":292:294   */\n  0x20\n    /* \"--CODEGEN--\":281:290   */\n  dup3\n    /* \"--CODEGEN--\":277:295   */\n  add\n    /* \"--CODEGEN--\":269:295   */\n  swap1\n  pop\n    /* \"--CODEGEN--\":306:389   */\n  tag_16\n    /* \"--CODEGEN--\":386:387   */\n  0x00\n    /* \"--CODEGEN--\":375:384   */\n  dup4\n    /* \"--CODEGEN--\":371:388   */\n  add\n    /* \"--CODEGEN--\":362:368   */\n  dup5\n    /* \"--CODEGEN--\":306:389   */\n  jump(tag_11)\ntag_16:\n    /* \"--CODEGEN--\":263:399   */\n  swap3\n  swap2\n  pop\n  pop\n  jump\n    /* \"--CODEGEN--\":406:478   */\ntag_17:\n  0x00\n    /* \"--CODEGEN--\":468:473   */\n  dup2\n    /* \"--CODEGEN--\":457:473   */\n  swap1\n  pop\n    /* \"--CODEGEN--\":451:478   */\n  swap2\n  swap1\n  pop\n  jump\n    /* \"--CODEGEN--\":485:605   */\ntag_14:\n  0x00\n    /* \"--CODEGEN--\":576:600   */\n  tag_20\n    /* \"--CODEGEN--\":594:599   */\n  dup3\n    /* \"--CODEGEN--\":576:600   */\n  jump(tag_17)\ntag_20:\n    /* \"--CODEGEN--\":563:600   */\n  swap1\n  pop\n    /* \"--CODEGEN--\":557:605   */\n  swap2\n  swap1\n  pop\n  jump\n    /* \"contracts/parque/parque.sol\":129:10727  contract Disney{\r... */\ntag_9:\n  dataSize(sub_0)\n  dup1\n  dataOffset(sub_0)\n  0x00\n  codecopy\n  0x00\n  return\nstop\n\nsub_0: assembly {\n        /* \"contracts/parque/parque.sol\":129:10727  contract Disney{\r... */\n      mstore(0x40, 0x80)\n      jumpi(tag_1, lt(calldatasize, 0x04))\n      shr(0xe0, calldataload(0x00))\n      dup1\n      0xc03d2acc\n      gt\n      tag_21\n      jumpi\n      dup1\n      0xd9ef1dff\n      gt\n      tag_22\n      jumpi\n      dup1\n      0xd9ef1dff\n      eq\n      tag_16\n      jumpi\n      dup1\n      0xdbbdc421\n      eq\n      tag_17\n      jumpi\n      dup1\n      0xe33f34a0\n      eq\n      tag_18\n      jumpi\n      dup1\n      0xf7774091\n      eq\n      tag_19\n      jumpi\n      dup1\n      0xff0b5ea9\n      eq\n      tag_20\n      jumpi\n      jump(tag_1)\n    tag_22:\n      dup1\n      0xc03d2acc\n      eq\n      tag_11\n      jumpi\n      dup1\n      0xc66dca40\n      eq\n      tag_12\n      jumpi\n      dup1\n      0xce8f2f38\n      eq\n      tag_13\n      jumpi\n      dup1\n      0xd00df296\n      eq\n      tag_14\n      jumpi\n      dup1\n      0xd203c15b\n      eq\n      tag_15\n      jumpi\n      jump(tag_1)\n    tag_21:\n      dup1\n      0x2076b56c\n      gt\n      tag_23\n      jumpi\n      dup1\n      0x2076b56c\n      eq\n      tag_6\n      jumpi\n      dup1\n      0x4a003dcf\n      eq\n      tag_7\n      jumpi\n      dup1\n      0x6b8f8e15\n      eq\n      tag_8\n      jumpi\n      dup1\n      0x722713f7\n      eq\n      tag_9\n      jumpi\n      dup1\n      0x8da5cb5b\n      eq\n      tag_10\n      jumpi\n      jump(tag_1)\n    tag_23:\n      dup1\n      0x1246f6e2\n      eq\n      tag_2\n      jumpi\n      dup1\n      0x12b91846\n      eq\n      tag_3\n      jumpi\n      dup1\n      0x1890154c\n      eq\n      tag_4\n      jumpi\n      dup1\n      0x1fccb33c\n      eq\n      tag_5\n      jumpi\n    tag_1:\n        /* \"--CODEGEN--\":12:13   */\n      0x00\n        /* \"--CODEGEN--\":9:10   */\n      dup1\n        /* \"--CODEGEN--\":2:14   */\n      revert\n        /* \"contracts/parque/parque.sol\":2530:2654  function GeneraTokens(uint _numTokens) public Unicamente(msg.sender) {\r... */\n    tag_2:\n      callvalue\n        /* \"--CODEGEN--\":5:14   */\n      dup1\n        /* \"--CODEGEN--\":2:4   */\n      iszero\n      tag_24\n      jumpi\n        /* \"--CODEGEN--\":27:28   */\n      0x00\n        /* \"--CODEGEN--\":24:25   */\n      dup1\n        /* \"--CODEGEN--\":17:29   */\n      revert\n        /* \"--CODEGEN--\":2:4   */\n    tag_24:\n        /* \"contracts/parque/parque.sol\":2530:2654  function GeneraTokens(uint _numTokens) public Unicamente(msg.sender) {\r... */\n      pop\n      tag_25\n      0x04\n      dup1\n      calldatasize\n      sub\n      dup2\n      add\n      swap1\n      tag_26\n      swap2\n      swap1\n      jump(tag_27)\n    tag_26:\n      tag_28\n      jump\t// in\n    tag_25:\n      stop\n        /* \"contracts/parque/parque.sol\":6727:8187  function SubirseAtraccion (string memory _nombreAtraccion) public {\r... */\n    tag_3:\n      callvalue\n        /* \"--CODEGEN--\":5:14   */\n      dup1\n        /* \"--CODEGEN--\":2:4   */\n      iszero\n      tag_29\n      jumpi\n        /* \"--CODEGEN--\":27:28   */\n      0x00\n        /* \"--CODEGEN--\":24:25   */\n      dup1\n        /* \"--CODEGEN--\":17:29   */\n      revert\n        /* \"--CODEGEN--\":2:4   */\n    tag_29:\n        /* \"contracts/parque/parque.sol\":6727:8187  function SubirseAtraccion (string memory _nombreAtraccion) public {\r... */\n      pop\n      tag_30\n      0x04\n      dup1\n      calldatasize\n      sub\n      dup2\n      add\n      swap1\n      tag_31\n      swap2\n      swap1\n      jump(tag_32)\n    tag_31:\n      tag_33\n      jump\t// in\n    tag_30:\n      stop\n        /* \"contracts/parque/parque.sol\":10116:10718  function DevolverTokens (uint _numTokens) public payable {\r... */\n    tag_4:\n      tag_34\n      0x04\n      dup1\n      calldatasize\n      sub\n      dup2\n      add\n      swap1\n      tag_35\n      swap2\n      swap1\n      jump(tag_27)\n    tag_35:\n      tag_36\n      jump\t// in\n    tag_34:\n      stop\n        /* \"contracts/parque/parque.sol\":6377:6486  function AtraccionesDisponibles() public view returns (string [] memory){\r... */\n    tag_5:\n      callvalue\n        /* \"--CODEGEN--\":5:14   */\n      dup1\n        /* \"--CODEGEN--\":2:4   */\n      iszero\n      tag_37\n      jumpi\n        /* \"--CODEGEN--\":27:28   */\n      0x00\n        /* \"--CODEGEN--\":24:25   */\n      dup1\n        /* \"--CODEGEN--\":17:29   */\n      revert\n        /* \"--CODEGEN--\":2:4   */\n    tag_37:\n        /* \"contracts/parque/parque.sol\":6377:6486  function AtraccionesDisponibles() public view returns (string [] memory){\r... */\n      pop\n      tag_38\n      tag_39\n      jump\t// in\n    tag_38:\n      mload(0x40)\n      tag_40\n      swap2\n      swap1\n      jump(tag_41)\n    tag_40:\n      mload(0x40)\n      dup1\n      swap2\n      sub\n      swap1\n      return\n        /* \"contracts/parque/parque.sol\":4508:4982  function NuevaAtraccion(string memory _nombreAtraccion, uint _precio) public Unicamente (msg.sender) {\r... */\n    tag_6:\n      callvalue\n        /* \"--CODEGEN--\":5:14   */\n      dup1\n        /* \"--CODEGEN--\":2:4   */\n      iszero\n      tag_42\n      jumpi\n        /* \"--CODEGEN--\":27:28   */\n      0x00\n        /* \"--CODEGEN--\":24:25   */\n      dup1\n        /* \"--CODEGEN--\":17:29   */\n      revert\n        /* \"--CODEGEN--\":2:4   */\n    tag_42:\n        /* \"contracts/parque/parque.sol\":4508:4982  function NuevaAtraccion(string memory _nombreAtraccion, uint _precio) public Unicamente (msg.sender) {\r... */\n      pop\n      tag_43\n      0x04\n      dup1\n      calldatasize\n      sub\n      dup2\n      add\n      swap1\n      tag_44\n      swap2\n      swap1\n      jump(tag_45)\n    tag_44:\n      tag_46\n      jump\t// in\n    tag_43:\n      stop\n        /* \"contracts/parque/parque.sol\":8246:9611  function ComprarComida (string memory _nombreComida) public {\r... */\n    tag_7:\n      callvalue\n        /* \"--CODEGEN--\":5:14   */\n      dup1\n        /* \"--CODEGEN--\":2:4   */\n      iszero\n      tag_47\n      jumpi\n        /* \"--CODEGEN--\":27:28   */\n      0x00\n        /* \"--CODEGEN--\":24:25   */\n      dup1\n        /* \"--CODEGEN--\":17:29   */\n      revert\n        /* \"--CODEGEN--\":2:4   */\n    tag_47:\n        /* \"contracts/parque/parque.sol\":8246:9611  function ComprarComida (string memory _nombreComida) public {\r... */\n      pop\n      tag_48\n      0x04\n      dup1\n      calldatasize\n      sub\n      dup2\n      add\n      swap1\n      tag_49\n      swap2\n      swap1\n      jump(tag_32)\n    tag_49:\n      tag_50\n      jump\t// in\n    tag_48:\n      stop\n        /* \"contracts/parque/parque.sol\":9706:9824  function Historial() public view returns (string [] memory) {\r... */\n    tag_8:\n      callvalue\n        /* \"--CODEGEN--\":5:14   */\n      dup1\n        /* \"--CODEGEN--\":2:4   */\n      iszero\n      tag_51\n      jumpi\n        /* \"--CODEGEN--\":27:28   */\n      0x00\n        /* \"--CODEGEN--\":24:25   */\n      dup1\n        /* \"--CODEGEN--\":17:29   */\n      revert\n        /* \"--CODEGEN--\":2:4   */\n    tag_51:\n        /* \"contracts/parque/parque.sol\":9706:9824  function Historial() public view returns (string [] memory) {\r... */\n      pop\n      tag_52\n      tag_53\n      jump\t// in\n    tag_52:\n      mload(0x40)\n      tag_54\n      swap2\n      swap1\n      jump(tag_41)\n    tag_54:\n      mload(0x40)\n      dup1\n      swap2\n      sub\n      swap1\n      return\n        /* \"contracts/parque/parque.sol\":2197:2301  function balanceOf() public view returns (uint) {\r... */\n    tag_9:\n      callvalue\n        /* \"--CODEGEN--\":5:14   */\n      dup1\n        /* \"--CODEGEN--\":2:4   */\n      iszero\n      tag_55\n      jumpi\n        /* \"--CODEGEN--\":27:28   */\n      0x00\n        /* \"--CODEGEN--\":24:25   */\n      dup1\n        /* \"--CODEGEN--\":17:29   */\n      revert\n        /* \"--CODEGEN--\":2:4   */\n    tag_55:\n        /* \"contracts/parque/parque.sol\":2197:2301  function balanceOf() public view returns (uint) {\r... */\n      pop\n      tag_56\n      tag_57\n      jump\t// in\n    tag_56:\n      mload(0x40)\n      tag_58\n      swap2\n      swap1\n      jump(tag_59)\n    tag_58:\n      mload(0x40)\n      dup1\n      swap2\n      sub\n      swap1\n      return\n        /* \"contracts/parque/parque.sol\":372:400  address payable public owner */\n    tag_10:\n      callvalue\n        /* \"--CODEGEN--\":5:14   */\n      dup1\n        /* \"--CODEGEN--\":2:4   */\n      iszero\n      tag_60\n      jumpi\n        /* \"--CODEGEN--\":27:28   */\n      0x00\n        /* \"--CODEGEN--\":24:25   */\n      dup1\n        /* \"--CODEGEN--\":17:29   */\n      revert\n        /* \"--CODEGEN--\":2:4   */\n    tag_60:\n        /* \"contracts/parque/parque.sol\":372:400  address payable public owner */\n      pop\n      tag_61\n      tag_62\n      jump\t// in\n    tag_61:\n      mload(0x40)\n      tag_63\n      swap2\n      swap1\n      jump(tag_64)\n    tag_63:\n      mload(0x40)\n      dup1\n      swap2\n      sub\n      swap1\n      return\n        /* \"contracts/parque/parque.sol\":6540:6641  function ComidasDisponibles() public view returns (string [] memory){\r... */\n    tag_11:\n      callvalue\n        /* \"--CODEGEN--\":5:14   */\n      dup1\n        /* \"--CODEGEN--\":2:4   */\n      iszero\n      tag_65\n      jumpi\n        /* \"--CODEGEN--\":27:28   */\n      0x00\n        /* \"--CODEGEN--\":24:25   */\n      dup1\n        /* \"--CODEGEN--\":17:29   */\n      revert\n        /* \"--CODEGEN--\":2:4   */\n    tag_65:\n        /* \"contracts/parque/parque.sol\":6540:6641  function ComidasDisponibles() public view returns (string [] memory){\r... */\n      pop\n      tag_66\n      tag_67\n      jump\t// in\n    tag_66:\n      mload(0x40)\n      tag_68\n      swap2\n      swap1\n      jump(tag_41)\n    tag_68:\n      mload(0x40)\n      dup1\n      swap2\n      sub\n      swap1\n      return\n        /* \"contracts/parque/parque.sol\":5601:5946  function BajaAtraccion (string memory _nombreAtraccion) public Unicamente(msg.sender){\r... */\n    tag_12:\n      callvalue\n        /* \"--CODEGEN--\":5:14   */\n      dup1\n        /* \"--CODEGEN--\":2:4   */\n      iszero\n      tag_69\n      jumpi\n        /* \"--CODEGEN--\":27:28   */\n      0x00\n        /* \"--CODEGEN--\":24:25   */\n      dup1\n        /* \"--CODEGEN--\":17:29   */\n      revert\n        /* \"--CODEGEN--\":2:4   */\n    tag_69:\n        /* \"contracts/parque/parque.sol\":5601:5946  function BajaAtraccion (string memory _nombreAtraccion) public Unicamente(msg.sender){\r... */\n      pop\n      tag_70\n      0x04\n      dup1\n      calldatasize\n      sub\n      dup2\n      add\n      swap1\n      tag_71\n      swap2\n      swap1\n      jump(tag_32)\n    tag_71:\n      tag_72\n      jump\t// in\n    tag_70:\n      stop\n        /* \"contracts/parque/parque.sol\":769:813  mapping (address => cliente) public Clientes */\n    tag_13:\n      callvalue\n        /* \"--CODEGEN--\":5:14   */\n      dup1\n        /* \"--CODEGEN--\":2:4   */\n      iszero\n      tag_73\n      jumpi\n        /* \"--CODEGEN--\":27:28   */\n      0x00\n        /* \"--CODEGEN--\":24:25   */\n      dup1\n        /* \"--CODEGEN--\":17:29   */\n      revert\n        /* \"--CODEGEN--\":2:4   */\n    tag_73:\n        /* \"contracts/parque/parque.sol\":769:813  mapping (address => cliente) public Clientes */\n      pop\n      tag_74\n      0x04\n      dup1\n      calldatasize\n      sub\n      dup2\n      add\n      swap1\n      tag_75\n      swap2\n      swap1\n      jump(tag_76)\n    tag_75:\n      tag_77\n      jump\t// in\n    tag_74:\n      mload(0x40)\n      tag_78\n      swap2\n      swap1\n      jump(tag_59)\n    tag_78:\n      mload(0x40)\n      dup1\n      swap2\n      sub\n      swap1\n      return\n        /* \"contracts/parque/parque.sol\":3710:3765  mapping (string => atraccion) public MappingAtracciones */\n    tag_14:\n      callvalue\n        /* \"--CODEGEN--\":5:14   */\n      dup1\n        /* \"--CODEGEN--\":2:4   */\n      iszero\n      tag_79\n      jumpi\n        /* \"--CODEGEN--\":27:28   */\n      0x00\n        /* \"--CODEGEN--\":24:25   */\n      dup1\n        /* \"--CODEGEN--\":17:29   */\n      revert\n        /* \"--CODEGEN--\":2:4   */\n    tag_79:\n        /* \"contracts/parque/parque.sol\":3710:3765  mapping (string => atraccion) public MappingAtracciones */\n      pop\n      tag_80\n      0x04\n      dup1\n      calldatasize\n      sub\n      dup2\n      add\n      swap1\n      tag_81\n      swap2\n      swap1\n      jump(tag_32)\n    tag_81:\n      tag_82\n      jump\t// in\n    tag_80:\n      mload(0x40)\n      tag_83\n      swap4\n      swap3\n      swap2\n      swap1\n      jump(tag_84)\n    tag_83:\n      mload(0x40)\n      dup1\n      swap2\n      sub\n      swap1\n      return\n        /* \"contracts/parque/parque.sol\":3873:3920  mapping (string => comida) public MappingComida */\n    tag_15:\n      callvalue\n        /* \"--CODEGEN--\":5:14   */\n      dup1\n        /* \"--CODEGEN--\":2:4   */\n      iszero\n      tag_85\n      jumpi\n        /* \"--CODEGEN--\":27:28   */\n      0x00\n        /* \"--CODEGEN--\":24:25   */\n      dup1\n        /* \"--CODEGEN--\":17:29   */\n      revert\n        /* \"--CODEGEN--\":2:4   */\n    tag_85:\n        /* \"contracts/parque/parque.sol\":3873:3920  mapping (string => comida) public MappingComida */\n      pop\n      tag_86\n      0x04\n      dup1\n      calldatasize\n      sub\n      dup2\n      add\n      swap1\n      tag_87\n      swap2\n      swap1\n      jump(tag_32)\n    tag_87:\n      tag_88\n      jump\t// in\n    tag_86:\n      mload(0x40)\n      tag_89\n      swap4\n      swap3\n      swap2\n      swap1\n      jump(tag_84)\n    tag_89:\n      mload(0x40)\n      dup1\n      swap2\n      sub\n      swap1\n      return\n        /* \"contracts/parque/parque.sol\":9915:10035  function HistorialComida() public view returns (string [] memory) {\r... */\n    tag_16:\n      callvalue\n        /* \"--CODEGEN--\":5:14   */\n      dup1\n        /* \"--CODEGEN--\":2:4   */\n      iszero\n      tag_90\n      jumpi\n        /* \"--CODEGEN--\":27:28   */\n      0x00\n        /* \"--CODEGEN--\":24:25   */\n      dup1\n        /* \"--CODEGEN--\":17:29   */\n      revert\n        /* \"--CODEGEN--\":2:4   */\n    tag_90:\n        /* \"contracts/parque/parque.sol\":9915:10035  function HistorialComida() public view returns (string [] memory) {\r... */\n      pop\n      tag_91\n      tag_92\n      jump\t// in\n    tag_91:\n      mload(0x40)\n      tag_93\n      swap2\n      swap1\n      jump(tag_41)\n    tag_93:\n      mload(0x40)\n      dup1\n      swap2\n      sub\n      swap1\n      return\n        /* \"contracts/parque/parque.sol\":6001:6319  function BajaComida (string memory _nombreComida) public Unicamente(msg.sender){\r... */\n    tag_17:\n      callvalue\n        /* \"--CODEGEN--\":5:14   */\n      dup1\n        /* \"--CODEGEN--\":2:4   */\n      iszero\n      tag_94\n      jumpi\n        /* \"--CODEGEN--\":27:28   */\n      0x00\n        /* \"--CODEGEN--\":24:25   */\n      dup1\n        /* \"--CODEGEN--\":17:29   */\n      revert\n        /* \"--CODEGEN--\":2:4   */\n    tag_94:\n        /* \"contracts/parque/parque.sol\":6001:6319  function BajaComida (string memory _nombreComida) public Unicamente(msg.sender){\r... */\n      pop\n      tag_95\n      0x04\n      dup1\n      calldatasize\n      sub\n      dup2\n      add\n      swap1\n      tag_96\n      swap2\n      swap1\n      jump(tag_32)\n    tag_96:\n      tag_97\n      jump\t// in\n    tag_95:\n      stop\n        /* \"contracts/parque/parque.sol\":2377:2477  function MisTokens() public view returns (uint){\r... */\n    tag_18:\n      callvalue\n        /* \"--CODEGEN--\":5:14   */\n      dup1\n        /* \"--CODEGEN--\":2:4   */\n      iszero\n      tag_98\n      jumpi\n        /* \"--CODEGEN--\":27:28   */\n      0x00\n        /* \"--CODEGEN--\":24:25   */\n      dup1\n        /* \"--CODEGEN--\":17:29   */\n      revert\n        /* \"--CODEGEN--\":2:4   */\n    tag_98:\n        /* \"contracts/parque/parque.sol\":2377:2477  function MisTokens() public view returns (uint){\r... */\n      pop\n      tag_99\n      tag_100\n      jump\t// in\n    tag_99:\n      mload(0x40)\n      tag_101\n      swap2\n      swap1\n      jump(tag_59)\n    tag_101:\n      mload(0x40)\n      dup1\n      swap2\n      sub\n      swap1\n      return\n        /* \"contracts/parque/parque.sol\":1253:2139  function CompraTokens(uint _numTokens) public payable {\r... */\n    tag_19:\n      tag_102\n      0x04\n      dup1\n      calldatasize\n      sub\n      dup2\n      add\n      swap1\n      tag_103\n      swap2\n      swap1\n      jump(tag_27)\n    tag_103:\n      tag_104\n      jump\t// in\n    tag_102:\n      stop\n        /* \"contracts/parque/parque.sol\":5078:5540  function NuevaComida(string memory _nombreComida, uint _precio) public Unicamente (msg.sender) {\r... */\n    tag_20:\n      callvalue\n        /* \"--CODEGEN--\":5:14   */\n      dup1\n        /* \"--CODEGEN--\":2:4   */\n      iszero\n      tag_105\n      jumpi\n        /* \"--CODEGEN--\":27:28   */\n      0x00\n        /* \"--CODEGEN--\":24:25   */\n      dup1\n        /* \"--CODEGEN--\":17:29   */\n      revert\n        /* \"--CODEGEN--\":2:4   */\n    tag_105:\n        /* \"contracts/parque/parque.sol\":5078:5540  function NuevaComida(string memory _nombreComida, uint _precio) public Unicamente (msg.sender) {\r... */\n      pop\n      tag_106\n      0x04\n      dup1\n      calldatasize\n      sub\n      dup2\n      add\n      swap1\n      tag_107\n      swap2\n      swap1\n      jump(tag_45)\n    tag_107:\n      tag_108\n      jump\t// in\n    tag_106:\n      stop\n        /* \"contracts/parque/parque.sol\":2530:2654  function GeneraTokens(uint _numTokens) public Unicamente(msg.sender) {\r... */\n    tag_28:\n        /* \"contracts/parque/parque.sol\":2587:2597  msg.sender */\n      caller\n        /* \"contracts/parque/parque.sol\":2812:2817  owner */\n      0x01\n      0x00\n      swap1\n      sload\n      swap1\n      0x0100\n      exp\n      swap1\n      div\n      0xffffffffffffffffffffffffffffffffffffffff\n      and\n        /* \"contracts/parque/parque.sol\":2798:2817  _direccion == owner */\n      0xffffffffffffffffffffffffffffffffffffffff\n      and\n        /* \"contracts/parque/parque.sol\":2798:2808  _direccion */\n      dup2\n        /* \"contracts/parque/parque.sol\":2798:2817  _direccion == owner */\n      0xffffffffffffffffffffffffffffffffffffffff\n      and\n      eq\n        /* \"contracts/parque/parque.sol\":2790:2868  require(_direccion == owner, \"No tienes permisos para ejecutar esta funcion.\") */\n      tag_110\n      jumpi\n      mload(0x40)\n      0x08c379a000000000000000000000000000000000000000000000000000000000\n      dup2\n      mstore\n      0x04\n      add\n      tag_111\n      swap1\n      jump(tag_112)\n    tag_111:\n      mload(0x40)\n      dup1\n      swap2\n      sub\n      swap1\n      revert\n    tag_110:\n        /* \"contracts/parque/parque.sol\":2610:2615  token */\n      0x00\n      dup1\n      swap1\n      sload\n      swap1\n      0x0100\n      exp\n      swap1\n      div\n      0xffffffffffffffffffffffffffffffffffffffff\n      and\n        /* \"contracts/parque/parque.sol\":2610:2634  token.increaseTotalSuply */\n      0xffffffffffffffffffffffffffffffffffffffff\n      and\n      0x4ee22adf\n        /* \"contracts/parque/parque.sol\":2635:2645  _numTokens */\n      dup4\n        /* \"contracts/parque/parque.sol\":2610:2646  token.increaseTotalSuply(_numTokens) */\n      mload(0x40)\n      dup3\n      0xffffffff\n      and\n      0xe0\n      shl\n      dup2\n      mstore\n      0x04\n      add\n      tag_114\n      swap2\n      swap1\n      jump(tag_59)\n    tag_114:\n      0x00\n      mload(0x40)\n      dup1\n      dup4\n      sub\n      dup2\n      0x00\n      dup8\n      dup1\n      extcodesize\n      iszero\n        /* \"--CODEGEN--\":5:14   */\n      dup1\n        /* \"--CODEGEN--\":2:4   */\n      iszero\n      tag_115\n      jumpi\n        /* \"--CODEGEN--\":27:28   */\n      0x00\n        /* \"--CODEGEN--\":24:25   */\n      dup1\n        /* \"--CODEGEN--\":17:29   */\n      revert\n        /* \"--CODEGEN--\":2:4   */\n    tag_115:\n        /* \"contracts/parque/parque.sol\":2610:2646  token.increaseTotalSuply(_numTokens) */\n      pop\n      gas\n      call\n      iszero\n        /* \"--CODEGEN--\":8:17   */\n      dup1\n        /* \"--CODEGEN--\":5:7   */\n      iszero\n      tag_117\n      jumpi\n        /* \"--CODEGEN--\":45:61   */\n      returndatasize\n        /* \"--CODEGEN--\":42:43   */\n      0x00\n        /* \"--CODEGEN--\":39:40   */\n      dup1\n        /* \"--CODEGEN--\":24:62   */\n      returndatacopy\n        /* \"--CODEGEN--\":77:93   */\n      returndatasize\n        /* \"--CODEGEN--\":74:75   */\n      0x00\n        /* \"--CODEGEN--\":67:94   */\n      revert\n        /* \"--CODEGEN--\":5:7   */\n    tag_117:\n        /* \"contracts/parque/parque.sol\":2610:2646  token.increaseTotalSuply(_numTokens) */\n      pop\n      pop\n      pop\n      pop\n        /* \"contracts/parque/parque.sol\":2530:2654  function GeneraTokens(uint _numTokens) public Unicamente(msg.sender) {\r... */\n      pop\n      pop\n      jump\t// out\n        /* \"contracts/parque/parque.sol\":6727:8187  function SubirseAtraccion (string memory _nombreAtraccion) public {\r... */\n    tag_33:\n        /* \"contracts/parque/parque.sol\":6851:6872  uint tokens_atraccion */\n      0x00\n        /* \"contracts/parque/parque.sol\":6875:6893  MappingAtracciones */\n      0x03\n        /* \"contracts/parque/parque.sol\":6894:6910  _nombreAtraccion */\n      dup3\n        /* \"contracts/parque/parque.sol\":6875:6911  MappingAtracciones[_nombreAtraccion] */\n      mload(0x40)\n      tag_119\n      swap2\n      swap1\n      jump(tag_120)\n    tag_119:\n      swap1\n      dup2\n      mstore\n      0x20\n      add\n      mload(0x40)\n      dup1\n      swap2\n      sub\n      swap1\n      keccak256\n        /* \"contracts/parque/parque.sol\":6875:6928  MappingAtracciones[_nombreAtraccion].precio_atraccion */\n      0x01\n      add\n      sload\n        /* \"contracts/parque/parque.sol\":6851:6928  uint tokens_atraccion = MappingAtracciones[_nombreAtraccion].precio_atraccion */\n      swap1\n      pop\n        /* \"contracts/parque/parque.sol\":7085:7089  true */\n      0x01\n        /* \"contracts/parque/parque.sol\":7028:7089  MappingAtracciones[_nombreAtraccion].estado_atraccion == true */\n      iszero\n      iszero\n        /* \"contracts/parque/parque.sol\":7028:7046  MappingAtracciones */\n      0x03\n        /* \"contracts/parque/parque.sol\":7047:7063  _nombreAtraccion */\n      dup4\n        /* \"contracts/parque/parque.sol\":7028:7064  MappingAtracciones[_nombreAtraccion] */\n      mload(0x40)\n      tag_121\n      swap2\n      swap1\n      jump(tag_120)\n    tag_121:\n      swap1\n      dup2\n      mstore\n      0x20\n      add\n      mload(0x40)\n      dup1\n      swap2\n      sub\n      swap1\n      keccak256\n        /* \"contracts/parque/parque.sol\":7028:7081  MappingAtracciones[_nombreAtraccion].estado_atraccion */\n      0x02\n      add\n      0x00\n      swap1\n      sload\n      swap1\n      0x0100\n      exp\n      swap1\n      div\n      0xff\n      and\n        /* \"contracts/parque/parque.sol\":7028:7089  MappingAtracciones[_nombreAtraccion].estado_atraccion == true */\n      iszero\n      iszero\n      eq\n        /* \"contracts/parque/parque.sol\":7019:7166  require (MappingAtracciones[_nombreAtraccion].estado_atraccion == true, \r... */\n      tag_122\n      jumpi\n      mload(0x40)\n      0x08c379a000000000000000000000000000000000000000000000000000000000\n      dup2\n      mstore\n      0x04\n      add\n      tag_123\n      swap1\n      jump(tag_124)\n    tag_123:\n      mload(0x40)\n      dup1\n      swap2\n      sub\n      swap1\n      revert\n    tag_122:\n        /* \"contracts/parque/parque.sol\":7296:7307  MisTokens() */\n      tag_125\n        /* \"contracts/parque/parque.sol\":7296:7305  MisTokens */\n      tag_100\n        /* \"contracts/parque/parque.sol\":7296:7307  MisTokens() */\n      jump\t// in\n    tag_125:\n        /* \"contracts/parque/parque.sol\":7276:7292  tokens_atraccion */\n      dup2\n        /* \"contracts/parque/parque.sol\":7276:7307  tokens_atraccion <= MisTokens() */\n      gt\n      iszero\n        /* \"contracts/parque/parque.sol\":7268:7381  require(tokens_atraccion <= MisTokens(), \r... */\n      tag_126\n      jumpi\n      mload(0x40)\n      0x08c379a000000000000000000000000000000000000000000000000000000000\n      dup2\n      mstore\n      0x04\n      add\n      tag_127\n      swap1\n      jump(tag_128)\n    tag_127:\n      mload(0x40)\n      dup1\n      swap2\n      sub\n      swap1\n      revert\n    tag_126:\n        /* \"contracts/parque/parque.sol\":7827:7832  token */\n      0x00\n      dup1\n      swap1\n      sload\n      swap1\n      0x0100\n      exp\n      swap1\n      div\n      0xffffffffffffffffffffffffffffffffffffffff\n      and\n        /* \"contracts/parque/parque.sol\":7827:7853  token.transferencia_disney */\n      0xffffffffffffffffffffffffffffffffffffffff\n      and\n      0xf490a351\n        /* \"contracts/parque/parque.sol\":7854:7864  msg.sender */\n      caller\n        /* \"contracts/parque/parque.sol\":7874:7878  this */\n      address\n        /* \"contracts/parque/parque.sol\":7880:7896  tokens_atraccion */\n      dup5\n        /* \"contracts/parque/parque.sol\":7827:7897  token.transferencia_disney(msg.sender, address(this),tokens_atraccion) */\n      mload(0x40)\n      dup5\n      0xffffffff\n      and\n      0xe0\n      shl\n      dup2\n      mstore\n      0x04\n      add\n      tag_129\n      swap4\n      swap3\n      swap2\n      swap1\n      jump(tag_130)\n    tag_129:\n      0x20\n      mload(0x40)\n      dup1\n      dup4\n      sub\n      dup2\n      0x00\n      dup8\n      dup1\n      extcodesize\n      iszero\n        /* \"--CODEGEN--\":5:14   */\n      dup1\n        /* \"--CODEGEN--\":2:4   */\n      iszero\n      tag_131\n      jumpi\n        /* \"--CODEGEN--\":27:28   */\n      0x00\n        /* \"--CODEGEN--\":24:25   */\n      dup1\n        /* \"--CODEGEN--\":17:29   */\n      revert\n        /* \"--CODEGEN--\":2:4   */\n    tag_131:\n        /* \"contracts/parque/parque.sol\":7827:7897  token.transferencia_disney(msg.sender, address(this),tokens_atraccion) */\n      pop\n      gas\n      call\n      iszero\n        /* \"--CODEGEN--\":8:17   */\n      dup1\n        /* \"--CODEGEN--\":5:7   */\n      iszero\n      tag_133\n      jumpi\n        /* \"--CODEGEN--\":45:61   */\n      returndatasize\n        /* \"--CODEGEN--\":42:43   */\n      0x00\n        /* \"--CODEGEN--\":39:40   */\n      dup1\n        /* \"--CODEGEN--\":24:62   */\n      returndatacopy\n        /* \"--CODEGEN--\":77:93   */\n      returndatasize\n        /* \"--CODEGEN--\":74:75   */\n      0x00\n        /* \"--CODEGEN--\":67:94   */\n      revert\n        /* \"--CODEGEN--\":5:7   */\n    tag_133:\n        /* \"contracts/parque/parque.sol\":7827:7897  token.transferencia_disney(msg.sender, address(this),tokens_atraccion) */\n      pop\n      pop\n      pop\n      pop\n      mload(0x40)\n      returndatasize\n        /* \"--CODEGEN--\":101:105   */\n      0x1f\n        /* \"--CODEGEN--\":97:106   */\n      not\n        /* \"--CODEGEN--\":90:94   */\n      0x1f\n        /* \"--CODEGEN--\":84:88   */\n      dup3\n        /* \"--CODEGEN--\":80:95   */\n      add\n        /* \"--CODEGEN--\":76:107   */\n      and\n        /* \"--CODEGEN--\":69:74   */\n      dup3\n        /* \"--CODEGEN--\":65:108   */\n      add\n        /* \"--CODEGEN--\":126:132   */\n      dup1\n        /* \"--CODEGEN--\":120:124   */\n      0x40\n        /* \"--CODEGEN--\":113:133   */\n      mstore\n        /* \"--CODEGEN--\":0:138   */\n      pop\n        /* \"contracts/parque/parque.sol\":7827:7897  token.transferencia_disney(msg.sender, address(this),tokens_atraccion) */\n      dup2\n      add\n      swap1\n      tag_134\n      swap2\n      swap1\n      jump(tag_135)\n    tag_134:\n      pop\n        /* \"contracts/parque/parque.sol\":7979:7999  HistorialAtracciones */\n      0x07\n        /* \"contracts/parque/parque.sol\":7979:8011  HistorialAtracciones[msg.sender] */\n      0x00\n        /* \"contracts/parque/parque.sol\":8000:8010  msg.sender */\n      caller\n        /* \"contracts/parque/parque.sol\":7979:8011  HistorialAtracciones[msg.sender] */\n      0xffffffffffffffffffffffffffffffffffffffff\n      and\n      0xffffffffffffffffffffffffffffffffffffffff\n      and\n      dup2\n      mstore\n      0x20\n      add\n      swap1\n      dup2\n      mstore\n      0x20\n      add\n      0x00\n      keccak256\n        /* \"contracts/parque/parque.sol\":8017:8033  _nombreAtraccion */\n      dup3\n        /* \"contracts/parque/parque.sol\":7979:8034  HistorialAtracciones[msg.sender].push(_nombreAtraccion) */\n      swap1\n      dup1\n        /* \"--CODEGEN--\":39:40   */\n      0x01\n        /* \"--CODEGEN--\":33:36   */\n      dup2\n        /* \"--CODEGEN--\":27:37   */\n      sload\n        /* \"--CODEGEN--\":23:41   */\n      add\n        /* \"--CODEGEN--\":57:67   */\n      dup1\n        /* \"--CODEGEN--\":52:55   */\n      dup3\n        /* \"--CODEGEN--\":45:68   */\n      sstore\n        /* \"--CODEGEN--\":79:89   */\n      dup1\n        /* \"--CODEGEN--\":72:89   */\n      swap2\n      pop\n        /* \"--CODEGEN--\":0:93   */\n      pop\n        /* \"contracts/parque/parque.sol\":7979:8034  HistorialAtracciones[msg.sender].push(_nombreAtraccion) */\n      0x01\n      swap1\n      sub\n      swap1\n      0x00\n      mstore\n      keccak256(0x00, 0x20)\n      add\n      0x00\n      swap1\n      swap2\n      swap1\n      swap2\n      swap1\n      swap2\n      pop\n      swap1\n      dup1\n      mload\n      swap1\n      0x20\n      add\n      swap1\n      tag_137\n      swap3\n      swap2\n      swap1\n      tag_138\n      jump\t// in\n    tag_137:\n      pop\n        /* \"contracts/parque/parque.sol\":8113:8179  disfruta_atraccion(_nombreAtraccion, tokens_atraccion, msg.sender) */\n      0x7246a03edf415ab10aa2e7868f4768980d024a3a86ab68f98fcc21567c2f26d7\n        /* \"contracts/parque/parque.sol\":8132:8148  _nombreAtraccion */\n      dup3\n        /* \"contracts/parque/parque.sol\":8150:8166  tokens_atraccion */\n      dup3\n        /* \"contracts/parque/parque.sol\":8168:8178  msg.sender */\n      caller\n        /* \"contracts/parque/parque.sol\":8113:8179  disfruta_atraccion(_nombreAtraccion, tokens_atraccion, msg.sender) */\n      mload(0x40)\n      tag_139\n      swap4\n      swap3\n      swap2\n      swap1\n      jump(tag_140)\n    tag_139:\n      mload(0x40)\n      dup1\n      swap2\n      sub\n      swap1\n      log1\n        /* \"contracts/parque/parque.sol\":6727:8187  function SubirseAtraccion (string memory _nombreAtraccion) public {\r... */\n      pop\n      pop\n      jump\t// out\n        /* \"contracts/parque/parque.sol\":10116:10718  function DevolverTokens (uint _numTokens) public payable {\r... */\n    tag_36:\n        /* \"contracts/parque/parque.sol\":10261:10262  0 */\n      0x00\n        /* \"contracts/parque/parque.sol\":10248:10258  _numTokens */\n      dup2\n        /* \"contracts/parque/parque.sol\":10248:10262  _numTokens > 0 */\n      gt\n        /* \"contracts/parque/parque.sol\":10239:10318  require (_numTokens > 0, \"Necesitas devolver una cantidad positiva de tokens.\") */\n      tag_142\n      jumpi\n      mload(0x40)\n      0x08c379a000000000000000000000000000000000000000000000000000000000\n      dup2\n      mstore\n      0x04\n      add\n      tag_143\n      swap1\n      jump(tag_144)\n    tag_143:\n      mload(0x40)\n      dup1\n      swap2\n      sub\n      swap1\n      revert\n    tag_142:\n        /* \"contracts/parque/parque.sol\":10426:10437  MisTokens() */\n      tag_145\n        /* \"contracts/parque/parque.sol\":10426:10435  MisTokens */\n      tag_100\n        /* \"contracts/parque/parque.sol\":10426:10437  MisTokens() */\n      jump\t// in\n    tag_145:\n        /* \"contracts/parque/parque.sol\":10412:10422  _numTokens */\n      dup2\n        /* \"contracts/parque/parque.sol\":10412:10437  _numTokens <= MisTokens() */\n      gt\n      iszero\n        /* \"contracts/parque/parque.sol\":10403:10483  require (_numTokens <= MisTokens(), \"No tienes los tokens que deseas devolver.\") */\n      tag_146\n      jumpi\n      mload(0x40)\n      0x08c379a000000000000000000000000000000000000000000000000000000000\n      dup2\n      mstore\n      0x04\n      add\n      tag_147\n      swap1\n      jump(tag_148)\n    tag_147:\n      mload(0x40)\n      dup1\n      swap2\n      sub\n      swap1\n      revert\n    tag_146:\n        /* \"contracts/parque/parque.sol\":10539:10544  token */\n      0x00\n      dup1\n      swap1\n      sload\n      swap1\n      0x0100\n      exp\n      swap1\n      div\n      0xffffffffffffffffffffffffffffffffffffffff\n      and\n        /* \"contracts/parque/parque.sol\":10539:10565  token.transferencia_disney */\n      0xffffffffffffffffffffffffffffffffffffffff\n      and\n      0xf490a351\n        /* \"contracts/parque/parque.sol\":10566:10576  msg.sender */\n      caller\n        /* \"contracts/parque/parque.sol\":10586:10590  this */\n      address\n        /* \"contracts/parque/parque.sol\":10592:10602  _numTokens */\n      dup5\n        /* \"contracts/parque/parque.sol\":10539:10603  token.transferencia_disney(msg.sender, address(this),_numTokens) */\n      mload(0x40)\n      dup5\n      0xffffffff\n      and\n      0xe0\n      shl\n      dup2\n      mstore\n      0x04\n      add\n      tag_149\n      swap4\n      swap3\n      swap2\n      swap1\n      jump(tag_130)\n    tag_149:\n      0x20\n      mload(0x40)\n      dup1\n      dup4\n      sub\n      dup2\n      0x00\n      dup8\n      dup1\n      extcodesize\n      iszero\n        /* \"--CODEGEN--\":5:14   */\n      dup1\n        /* \"--CODEGEN--\":2:4   */\n      iszero\n      tag_150\n      jumpi\n        /* \"--CODEGEN--\":27:28   */\n      0x00\n        /* \"--CODEGEN--\":24:25   */\n      dup1\n        /* \"--CODEGEN--\":17:29   */\n      revert\n        /* \"--CODEGEN--\":2:4   */\n    tag_150:\n        /* \"contracts/parque/parque.sol\":10539:10603  token.transferencia_disney(msg.sender, address(this),_numTokens) */\n      pop\n      gas\n      call\n      iszero\n        /* \"--CODEGEN--\":8:17   */\n      dup1\n        /* \"--CODEGEN--\":5:7   */\n      iszero\n      tag_152\n      jumpi\n        /* \"--CODEGEN--\":45:61   */\n      returndatasize\n        /* \"--CODEGEN--\":42:43   */\n      0x00\n        /* \"--CODEGEN--\":39:40   */\n      dup1\n        /* \"--CODEGEN--\":24:62   */\n      returndatacopy\n        /* \"--CODEGEN--\":77:93   */\n      returndatasize\n        /* \"--CODEGEN--\":74:75   */\n      0x00\n        /* \"--CODEGEN--\":67:94   */\n      revert\n        /* \"--CODEGEN--\":5:7   */\n    tag_152:\n        /* \"contracts/parque/parque.sol\":10539:10603  token.transferencia_disney(msg.sender, address(this),_numTokens) */\n      pop\n      pop\n      pop\n      pop\n      mload(0x40)\n      returndatasize\n        /* \"--CODEGEN--\":101:105   */\n      0x1f\n        /* \"--CODEGEN--\":97:106   */\n      not\n        /* \"--CODEGEN--\":90:94   */\n      0x1f\n        /* \"--CODEGEN--\":84:88   */\n      dup3\n        /* \"--CODEGEN--\":80:95   */\n      add\n        /* \"--CODEGEN--\":76:107   */\n      and\n        /* \"--CODEGEN--\":69:74   */\n      dup3\n        /* \"--CODEGEN--\":65:108   */\n      add\n        /* \"--CODEGEN--\":126:132   */\n      dup1\n        /* \"--CODEGEN--\":120:124   */\n      0x40\n        /* \"--CODEGEN--\":113:133   */\n      mstore\n        /* \"--CODEGEN--\":0:138   */\n      pop\n        /* \"contracts/parque/parque.sol\":10539:10603  token.transferencia_disney(msg.sender, address(this),_numTokens) */\n      dup2\n      add\n      swap1\n      tag_153\n      swap2\n      swap1\n      jump(tag_135)\n    tag_153:\n      pop\n        /* \"contracts/parque/parque.sol\":10665:10675  msg.sender */\n      caller\n        /* \"contracts/parque/parque.sol\":10665:10684  msg.sender.transfer */\n      0xffffffffffffffffffffffffffffffffffffffff\n      and\n        /* \"contracts/parque/parque.sol\":10665:10710  msg.sender.transfer(PrecioTokens(_numTokens)) */\n      0x08fc\n        /* \"contracts/parque/parque.sol\":10685:10709  PrecioTokens(_numTokens) */\n      tag_154\n        /* \"contracts/parque/parque.sol\":10698:10708  _numTokens */\n      dup4\n        /* \"contracts/parque/parque.sol\":10685:10697  PrecioTokens */\n      tag_155\n        /* \"contracts/parque/parque.sol\":10685:10709  PrecioTokens(_numTokens) */\n      jump\t// in\n    tag_154:\n        /* \"contracts/parque/parque.sol\":10665:10710  msg.sender.transfer(PrecioTokens(_numTokens)) */\n      swap1\n      dup2\n      iszero\n      mul\n      swap1\n      mload(0x40)\n      0x00\n      mload(0x40)\n      dup1\n      dup4\n      sub\n      dup2\n      dup6\n      dup9\n      dup9\n      call\n      swap4\n      pop\n      pop\n      pop\n      pop\n      iszero\n        /* \"--CODEGEN--\":8:17   */\n      dup1\n        /* \"--CODEGEN--\":5:7   */\n      iszero\n      tag_157\n      jumpi\n        /* \"--CODEGEN--\":45:61   */\n      returndatasize\n        /* \"--CODEGEN--\":42:43   */\n      0x00\n        /* \"--CODEGEN--\":39:40   */\n      dup1\n        /* \"--CODEGEN--\":24:62   */\n      returndatacopy\n        /* \"--CODEGEN--\":77:93   */\n      returndatasize\n        /* \"--CODEGEN--\":74:75   */\n      0x00\n        /* \"--CODEGEN--\":67:94   */\n      revert\n        /* \"--CODEGEN--\":5:7   */\n    tag_157:\n        /* \"contracts/parque/parque.sol\":10665:10710  msg.sender.transfer(PrecioTokens(_numTokens)) */\n      pop\n        /* \"contracts/parque/parque.sol\":10116:10718  function DevolverTokens (uint _numTokens) public payable {\r... */\n      pop\n      jump\t// out\n        /* \"contracts/parque/parque.sol\":6377:6486  function AtraccionesDisponibles() public view returns (string [] memory){\r... */\n    tag_39:\n        /* \"contracts/parque/parque.sol\":6432:6448  string [] memory */\n      0x60\n        /* \"contracts/parque/parque.sol\":6467:6478  Atracciones */\n      0x05\n        /* \"contracts/parque/parque.sol\":6460:6478  return Atracciones */\n      dup1\n      sload\n      dup1\n      0x20\n      mul\n      0x20\n      add\n      mload(0x40)\n      swap1\n      dup2\n      add\n      0x40\n      mstore\n      dup1\n      swap3\n      swap2\n      swap1\n      dup2\n      dup2\n      mstore\n      0x20\n      add\n      0x00\n      swap1\n    tag_159:\n      dup3\n      dup3\n      lt\n      iszero\n      tag_160\n      jumpi\n      dup4\n      dup3\n      swap1\n      0x00\n      mstore\n      keccak256(0x00, 0x20)\n      add\n      dup1\n      sload\n      0x01\n      dup2\n      0x01\n      and\n      iszero\n      0x0100\n      mul\n      sub\n      and\n      0x02\n      swap1\n      div\n      dup1\n      0x1f\n      add\n      0x20\n      dup1\n      swap2\n      div\n      mul\n      0x20\n      add\n      mload(0x40)\n      swap1\n      dup2\n      add\n      0x40\n      mstore\n      dup1\n      swap3\n      swap2\n      swap1\n      dup2\n      dup2\n      mstore\n      0x20\n      add\n      dup3\n      dup1\n      sload\n      0x01\n      dup2\n      0x01\n      and\n      iszero\n      0x0100\n      mul\n      sub\n      and\n      0x02\n      swap1\n      div\n      dup1\n      iszero\n      tag_162\n      jumpi\n      dup1\n      0x1f\n      lt\n      tag_163\n      jumpi\n      0x0100\n      dup1\n      dup4\n      sload\n      div\n      mul\n      dup4\n      mstore\n      swap2\n      0x20\n      add\n      swap2\n      jump(tag_162)\n    tag_163:\n      dup3\n      add\n      swap2\n      swap1\n      0x00\n      mstore\n      keccak256(0x00, 0x20)\n      swap1\n    tag_164:\n      dup2\n      sload\n      dup2\n      mstore\n      swap1\n      0x01\n      add\n      swap1\n      0x20\n      add\n      dup1\n      dup4\n      gt\n      tag_164\n      jumpi\n      dup3\n      swap1\n      sub\n      0x1f\n      and\n      dup3\n      add\n      swap2\n    tag_162:\n      pop\n      pop\n      pop\n      pop\n      pop\n      dup2\n      mstore\n      0x20\n      add\n      swap1\n      0x01\n      add\n      swap1\n      jump(tag_159)\n    tag_160:\n      pop\n      pop\n      pop\n      pop\n      swap1\n      pop\n        /* \"contracts/parque/parque.sol\":6377:6486  function AtraccionesDisponibles() public view returns (string [] memory){\r... */\n      swap1\n      jump\t// out\n        /* \"contracts/parque/parque.sol\":4508:4982  function NuevaAtraccion(string memory _nombreAtraccion, uint _precio) public Unicamente (msg.sender) {\r... */\n    tag_46:\n        /* \"contracts/parque/parque.sol\":4597:4607  msg.sender */\n      caller\n        /* \"contracts/parque/parque.sol\":2812:2817  owner */\n      0x01\n      0x00\n      swap1\n      sload\n      swap1\n      0x0100\n      exp\n      swap1\n      div\n      0xffffffffffffffffffffffffffffffffffffffff\n      and\n        /* \"contracts/parque/parque.sol\":2798:2817  _direccion == owner */\n      0xffffffffffffffffffffffffffffffffffffffff\n      and\n        /* \"contracts/parque/parque.sol\":2798:2808  _direccion */\n      dup2\n        /* \"contracts/parque/parque.sol\":2798:2817  _direccion == owner */\n      0xffffffffffffffffffffffffffffffffffffffff\n      and\n      eq\n        /* \"contracts/parque/parque.sol\":2790:2868  require(_direccion == owner, \"No tienes permisos para ejecutar esta funcion.\") */\n      tag_166\n      jumpi\n      mload(0x40)\n      0x08c379a000000000000000000000000000000000000000000000000000000000\n      dup2\n      mstore\n      0x04\n      add\n      tag_167\n      swap1\n      jump(tag_112)\n    tag_167:\n      mload(0x40)\n      dup1\n      swap2\n      sub\n      swap1\n      revert\n    tag_166:\n        /* \"contracts/parque/parque.sol\":4708:4749  atraccion(_nombreAtraccion,_precio, true) */\n      mload(0x40)\n      dup1\n      0x60\n      add\n      0x40\n      mstore\n      dup1\n        /* \"contracts/parque/parque.sol\":4718:4734  _nombreAtraccion */\n      dup5\n        /* \"contracts/parque/parque.sol\":4708:4749  atraccion(_nombreAtraccion,_precio, true) */\n      dup2\n      mstore\n      0x20\n      add\n        /* \"contracts/parque/parque.sol\":4735:4742  _precio */\n      dup4\n        /* \"contracts/parque/parque.sol\":4708:4749  atraccion(_nombreAtraccion,_precio, true) */\n      dup2\n      mstore\n      0x20\n      add\n        /* \"contracts/parque/parque.sol\":4744:4748  true */\n      0x01\n        /* \"contracts/parque/parque.sol\":4708:4749  atraccion(_nombreAtraccion,_precio, true) */\n      iszero\n      iszero\n      dup2\n      mstore\n      pop\n        /* \"contracts/parque/parque.sol\":4669:4687  MappingAtracciones */\n      0x03\n        /* \"contracts/parque/parque.sol\":4688:4704  _nombreAtraccion */\n      dup5\n        /* \"contracts/parque/parque.sol\":4669:4705  MappingAtracciones[_nombreAtraccion] */\n      mload(0x40)\n      tag_169\n      swap2\n      swap1\n      jump(tag_120)\n    tag_169:\n      swap1\n      dup2\n      mstore\n      0x20\n      add\n      mload(0x40)\n      dup1\n      swap2\n      sub\n      swap1\n      keccak256\n        /* \"contracts/parque/parque.sol\":4669:4749  MappingAtracciones[_nombreAtraccion] = atraccion(_nombreAtraccion,_precio, true) */\n      0x00\n      dup3\n      add\n      mload\n      dup2\n      0x00\n      add\n      swap1\n      dup1\n      mload\n      swap1\n      0x20\n      add\n      swap1\n      tag_170\n      swap3\n      swap2\n      swap1\n      tag_138\n      jump\t// in\n    tag_170:\n      pop\n      0x20\n      dup3\n      add\n      mload\n      dup2\n      0x01\n      add\n      sstore\n      0x40\n      dup3\n      add\n      mload\n      dup2\n      0x02\n      add\n      exp(0x0100, 0x00)\n      dup2\n      sload\n      dup2\n      0xff\n      mul\n      not\n      and\n      swap1\n      dup4\n      iszero\n      iszero\n      mul\n      or\n      swap1\n      sstore\n      pop\n      swap1\n      pop\n      pop\n        /* \"contracts/parque/parque.sol\":4826:4837  Atracciones */\n      0x05\n        /* \"contracts/parque/parque.sol\":4843:4859  _nombreAtraccion */\n      dup4\n        /* \"contracts/parque/parque.sol\":4826:4860  Atracciones.push(_nombreAtraccion) */\n      swap1\n      dup1\n        /* \"--CODEGEN--\":39:40   */\n      0x01\n        /* \"--CODEGEN--\":33:36   */\n      dup2\n        /* \"--CODEGEN--\":27:37   */\n      sload\n        /* \"--CODEGEN--\":23:41   */\n      add\n        /* \"--CODEGEN--\":57:67   */\n      dup1\n        /* \"--CODEGEN--\":52:55   */\n      dup3\n        /* \"--CODEGEN--\":45:68   */\n      sstore\n        /* \"--CODEGEN--\":79:89   */\n      dup1\n        /* \"--CODEGEN--\":72:89   */\n      swap2\n      pop\n        /* \"--CODEGEN--\":0:93   */\n      pop\n        /* \"contracts/parque/parque.sol\":4826:4860  Atracciones.push(_nombreAtraccion) */\n      0x01\n      swap1\n      sub\n      swap1\n      0x00\n      mstore\n      keccak256(0x00, 0x20)\n      add\n      0x00\n      swap1\n      swap2\n      swap1\n      swap2\n      swap1\n      swap2\n      pop\n      swap1\n      dup1\n      mload\n      swap1\n      0x20\n      add\n      swap1\n      tag_172\n      swap3\n      swap2\n      swap1\n      tag_138\n      jump\t// in\n    tag_172:\n      pop\n        /* \"contracts/parque/parque.sol\":4932:4974  nueva_atraccion(_nombreAtraccion, _precio) */\n      0xfc9ecd7a6c2ca96d38526a0b9cc22f2474ff8e596dd348edaab06be905ebe378\n        /* \"contracts/parque/parque.sol\":4948:4964  _nombreAtraccion */\n      dup4\n        /* \"contracts/parque/parque.sol\":4966:4973  _precio */\n      dup4\n        /* \"contracts/parque/parque.sol\":4932:4974  nueva_atraccion(_nombreAtraccion, _precio) */\n      mload(0x40)\n      tag_173\n      swap3\n      swap2\n      swap1\n      jump(tag_174)\n    tag_173:\n      mload(0x40)\n      dup1\n      swap2\n      sub\n      swap1\n      log1\n        /* \"contracts/parque/parque.sol\":4508:4982  function NuevaAtraccion(string memory _nombreAtraccion, uint _precio) public Unicamente (msg.sender) {\r... */\n      pop\n      pop\n      pop\n      jump\t// out\n        /* \"contracts/parque/parque.sol\":8246:9611  function ComprarComida (string memory _nombreComida) public {\r... */\n    tag_50:\n        /* \"contracts/parque/parque.sol\":8361:8379  uint tokens_comida */\n      0x00\n        /* \"contracts/parque/parque.sol\":8382:8395  MappingComida */\n      0x04\n        /* \"contracts/parque/parque.sol\":8396:8409  _nombreComida */\n      dup3\n        /* \"contracts/parque/parque.sol\":8382:8410  MappingComida[_nombreComida] */\n      mload(0x40)\n      tag_176\n      swap2\n      swap1\n      jump(tag_120)\n    tag_176:\n      swap1\n      dup2\n      mstore\n      0x20\n      add\n      mload(0x40)\n      dup1\n      swap2\n      sub\n      swap1\n      keccak256\n        /* \"contracts/parque/parque.sol\":8382:8424  MappingComida[_nombreComida].precio_comida */\n      0x01\n      add\n      sload\n        /* \"contracts/parque/parque.sol\":8361:8424  uint tokens_comida = MappingComida[_nombreComida].precio_comida */\n      swap1\n      pop\n        /* \"contracts/parque/parque.sol\":8555:8559  true */\n      0x01\n        /* \"contracts/parque/parque.sol\":8509:8559  MappingComida[_nombreComida].estado_comida == true */\n      iszero\n      iszero\n        /* \"contracts/parque/parque.sol\":8509:8522  MappingComida */\n      0x04\n        /* \"contracts/parque/parque.sol\":8523:8536  _nombreComida */\n      dup4\n        /* \"contracts/parque/parque.sol\":8509:8537  MappingComida[_nombreComida] */\n      mload(0x40)\n      tag_177\n      swap2\n      swap1\n      jump(tag_120)\n    tag_177:\n      swap1\n      dup2\n      mstore\n      0x20\n      add\n      mload(0x40)\n      dup1\n      swap2\n      sub\n      swap1\n      keccak256\n        /* \"contracts/parque/parque.sol\":8509:8551  MappingComida[_nombreComida].estado_comida */\n      0x02\n      add\n      0x00\n      swap1\n      sload\n      swap1\n      0x0100\n      exp\n      swap1\n      div\n      0xff\n      and\n        /* \"contracts/parque/parque.sol\":8509:8559  MappingComida[_nombreComida].estado_comida == true */\n      iszero\n      iszero\n      eq\n        /* \"contracts/parque/parque.sol\":8500:8633  require (MappingComida[_nombreComida].estado_comida == true, \r... */\n      tag_178\n      jumpi\n      mload(0x40)\n      0x08c379a000000000000000000000000000000000000000000000000000000000\n      dup2\n      mstore\n      0x04\n      add\n      tag_179\n      swap1\n      jump(tag_180)\n    tag_179:\n      mload(0x40)\n      dup1\n      swap2\n      sub\n      swap1\n      revert\n    tag_178:\n        /* \"contracts/parque/parque.sol\":8753:8764  MisTokens() */\n      tag_181\n        /* \"contracts/parque/parque.sol\":8753:8762  MisTokens */\n      tag_100\n        /* \"contracts/parque/parque.sol\":8753:8764  MisTokens() */\n      jump\t// in\n    tag_181:\n        /* \"contracts/parque/parque.sol\":8736:8749  tokens_comida */\n      dup2\n        /* \"contracts/parque/parque.sol\":8736:8764  tokens_comida <= MisTokens() */\n      gt\n      iszero\n        /* \"contracts/parque/parque.sol\":8728:8831  require(tokens_comida <= MisTokens(), \r... */\n      tag_182\n      jumpi\n      mload(0x40)\n      0x08c379a000000000000000000000000000000000000000000000000000000000\n      dup2\n      mstore\n      0x04\n      add\n      tag_183\n      swap1\n      jump(tag_184)\n    tag_183:\n      mload(0x40)\n      dup1\n      swap2\n      sub\n      swap1\n      revert\n    tag_182:\n        /* \"contracts/parque/parque.sol\":9277:9282  token */\n      0x00\n      dup1\n      swap1\n      sload\n      swap1\n      0x0100\n      exp\n      swap1\n      div\n      0xffffffffffffffffffffffffffffffffffffffff\n      and\n        /* \"contracts/parque/parque.sol\":9277:9303  token.transferencia_disney */\n      0xffffffffffffffffffffffffffffffffffffffff\n      and\n      0xf490a351\n        /* \"contracts/parque/parque.sol\":9304:9314  msg.sender */\n      caller\n        /* \"contracts/parque/parque.sol\":9324:9328  this */\n      address\n        /* \"contracts/parque/parque.sol\":9330:9343  tokens_comida */\n      dup5\n        /* \"contracts/parque/parque.sol\":9277:9344  token.transferencia_disney(msg.sender, address(this),tokens_comida) */\n      mload(0x40)\n      dup5\n      0xffffffff\n      and\n      0xe0\n      shl\n      dup2\n      mstore\n      0x04\n      add\n      tag_185\n      swap4\n      swap3\n      swap2\n      swap1\n      jump(tag_130)\n    tag_185:\n      0x20\n      mload(0x40)\n      dup1\n      dup4\n      sub\n      dup2\n      0x00\n      dup8\n      dup1\n      extcodesize\n      iszero\n        /* \"--CODEGEN--\":5:14   */\n      dup1\n        /* \"--CODEGEN--\":2:4   */\n      iszero\n      tag_186\n      jumpi\n        /* \"--CODEGEN--\":27:28   */\n      0x00\n        /* \"--CODEGEN--\":24:25   */\n      dup1\n        /* \"--CODEGEN--\":17:29   */\n      revert\n        /* \"--CODEGEN--\":2:4   */\n    tag_186:\n        /* \"contracts/parque/parque.sol\":9277:9344  token.transferencia_disney(msg.sender, address(this),tokens_comida) */\n      pop\n      gas\n      call\n      iszero\n        /* \"--CODEGEN--\":8:17   */\n      dup1\n        /* \"--CODEGEN--\":5:7   */\n      iszero\n      tag_188\n      jumpi\n        /* \"--CODEGEN--\":45:61   */\n      returndatasize\n        /* \"--CODEGEN--\":42:43   */\n      0x00\n        /* \"--CODEGEN--\":39:40   */\n      dup1\n        /* \"--CODEGEN--\":24:62   */\n      returndatacopy\n        /* \"--CODEGEN--\":77:93   */\n      returndatasize\n        /* \"--CODEGEN--\":74:75   */\n      0x00\n        /* \"--CODEGEN--\":67:94   */\n      revert\n        /* \"--CODEGEN--\":5:7   */\n    tag_188:\n        /* \"contracts/parque/parque.sol\":9277:9344  token.transferencia_disney(msg.sender, address(this),tokens_comida) */\n      pop\n      pop\n      pop\n      pop\n      mload(0x40)\n      returndatasize\n        /* \"--CODEGEN--\":101:105   */\n      0x1f\n        /* \"--CODEGEN--\":97:106   */\n      not\n        /* \"--CODEGEN--\":90:94   */\n      0x1f\n        /* \"--CODEGEN--\":84:88   */\n      dup3\n        /* \"--CODEGEN--\":80:95   */\n      add\n        /* \"--CODEGEN--\":76:107   */\n      and\n        /* \"--CODEGEN--\":69:74   */\n      dup3\n        /* \"--CODEGEN--\":65:108   */\n      add\n        /* \"--CODEGEN--\":126:132   */\n      dup1\n        /* \"--CODEGEN--\":120:124   */\n      0x40\n        /* \"--CODEGEN--\":113:133   */\n      mstore\n        /* \"--CODEGEN--\":0:138   */\n      pop\n        /* \"contracts/parque/parque.sol\":9277:9344  token.transferencia_disney(msg.sender, address(this),tokens_comida) */\n      dup2\n      add\n      swap1\n      tag_189\n      swap2\n      swap1\n      jump(tag_135)\n    tag_189:\n      pop\n        /* \"contracts/parque/parque.sol\":9422:9438  HistorialComidas */\n      0x08\n        /* \"contracts/parque/parque.sol\":9422:9450  HistorialComidas[msg.sender] */\n      0x00\n        /* \"contracts/parque/parque.sol\":9439:9449  msg.sender */\n      caller\n        /* \"contracts/parque/parque.sol\":9422:9450  HistorialComidas[msg.sender] */\n      0xffffffffffffffffffffffffffffffffffffffff\n      and\n      0xffffffffffffffffffffffffffffffffffffffff\n      and\n      dup2\n      mstore\n      0x20\n      add\n      swap1\n      dup2\n      mstore\n      0x20\n      add\n      0x00\n      keccak256\n        /* \"contracts/parque/parque.sol\":9456:9469  _nombreComida */\n      dup3\n        /* \"contracts/parque/parque.sol\":9422:9470  HistorialComidas[msg.sender].push(_nombreComida) */\n      swap1\n      dup1\n        /* \"--CODEGEN--\":39:40   */\n      0x01\n        /* \"--CODEGEN--\":33:36   */\n      dup2\n        /* \"--CODEGEN--\":27:37   */\n      sload\n        /* \"--CODEGEN--\":23:41   */\n      add\n        /* \"--CODEGEN--\":57:67   */\n      dup1\n        /* \"--CODEGEN--\":52:55   */\n      dup3\n        /* \"--CODEGEN--\":45:68   */\n      sstore\n        /* \"--CODEGEN--\":79:89   */\n      dup1\n        /* \"--CODEGEN--\":72:89   */\n      swap2\n      pop\n        /* \"--CODEGEN--\":0:93   */\n      pop\n        /* \"contracts/parque/parque.sol\":9422:9470  HistorialComidas[msg.sender].push(_nombreComida) */\n      0x01\n      swap1\n      sub\n      swap1\n      0x00\n      mstore\n      keccak256(0x00, 0x20)\n      add\n      0x00\n      swap1\n      swap2\n      swap1\n      swap2\n      swap1\n      swap2\n      pop\n      swap1\n      dup1\n      mload\n      swap1\n      0x20\n      add\n      swap1\n      tag_191\n      swap3\n      swap2\n      swap1\n      tag_138\n      jump\t// in\n    tag_191:\n      pop\n        /* \"contracts/parque/parque.sol\":9546:9603  disfruta_comida(_nombreComida, tokens_comida, msg.sender) */\n      0x85ef3e0aa2f5a1974f940061956e15261f5ce81cdb010a26d5760e9d0c47b4d3\n        /* \"contracts/parque/parque.sol\":9562:9575  _nombreComida */\n      dup3\n        /* \"contracts/parque/parque.sol\":9577:9590  tokens_comida */\n      dup3\n        /* \"contracts/parque/parque.sol\":9592:9602  msg.sender */\n      caller\n        /* \"contracts/parque/parque.sol\":9546:9603  disfruta_comida(_nombreComida, tokens_comida, msg.sender) */\n      mload(0x40)\n      tag_192\n      swap4\n      swap3\n      swap2\n      swap1\n      jump(tag_140)\n    tag_192:\n      mload(0x40)\n      dup1\n      swap2\n      sub\n      swap1\n      log1\n        /* \"contracts/parque/parque.sol\":8246:9611  function ComprarComida (string memory _nombreComida) public {\r... */\n      pop\n      pop\n      jump\t// out\n        /* \"contracts/parque/parque.sol\":9706:9824  function Historial() public view returns (string [] memory) {\r... */\n    tag_53:\n        /* \"contracts/parque/parque.sol\":9748:9764  string [] memory */\n      0x60\n        /* \"contracts/parque/parque.sol\":9784:9804  HistorialAtracciones */\n      0x07\n        /* \"contracts/parque/parque.sol\":9784:9816  HistorialAtracciones[msg.sender] */\n      0x00\n        /* \"contracts/parque/parque.sol\":9805:9815  msg.sender */\n      caller\n        /* \"contracts/parque/parque.sol\":9784:9816  HistorialAtracciones[msg.sender] */\n      0xffffffffffffffffffffffffffffffffffffffff\n      and\n      0xffffffffffffffffffffffffffffffffffffffff\n      and\n      dup2\n      mstore\n      0x20\n      add\n      swap1\n      dup2\n      mstore\n      0x20\n      add\n      0x00\n      keccak256\n        /* \"contracts/parque/parque.sol\":9777:9816  return HistorialAtracciones[msg.sender] */\n      dup1\n      sload\n      dup1\n      0x20\n      mul\n      0x20\n      add\n      mload(0x40)\n      swap1\n      dup2\n      add\n      0x40\n      mstore\n      dup1\n      swap3\n      swap2\n      swap1\n      dup2\n      dup2\n      mstore\n      0x20\n      add\n      0x00\n      swap1\n    tag_194:\n      dup3\n      dup3\n      lt\n      iszero\n      tag_195\n      jumpi\n      dup4\n      dup3\n      swap1\n      0x00\n      mstore\n      keccak256(0x00, 0x20)\n      add\n      dup1\n      sload\n      0x01\n      dup2\n      0x01\n      and\n      iszero\n      0x0100\n      mul\n      sub\n      and\n      0x02\n      swap1\n      div\n      dup1\n      0x1f\n      add\n      0x20\n      dup1\n      swap2\n      div\n      mul\n      0x20\n      add\n      mload(0x40)\n      swap1\n      dup2\n      add\n      0x40\n      mstore\n      dup1\n      swap3\n      swap2\n      swap1\n      dup2\n      dup2\n      mstore\n      0x20\n      add\n      dup3\n      dup1\n      sload\n      0x01\n      dup2\n      0x01\n      and\n      iszero\n      0x0100\n      mul\n      sub\n      and\n      0x02\n      swap1\n      div\n      dup1\n      iszero\n      tag_197\n      jumpi\n      dup1\n      0x1f\n      lt\n      tag_198\n      jumpi\n      0x0100\n      dup1\n      dup4\n      sload\n      div\n      mul\n      dup4\n      mstore\n      swap2\n      0x20\n      add\n      swap2\n      jump(tag_197)\n    tag_198:\n      dup3\n      add\n      swap2\n      swap1\n      0x00\n      mstore\n      keccak256(0x00, 0x20)\n      swap1\n    tag_199:\n      dup2\n      sload\n      dup2\n      mstore\n      swap1\n      0x01\n      add\n      swap1\n      0x20\n      add\n      dup1\n      dup4\n      gt\n      tag_199\n      jumpi\n      dup3\n      swap1\n      sub\n      0x1f\n      and\n      dup3\n      add\n      swap2\n    tag_197:\n      pop\n      pop\n      pop\n      pop\n      pop\n      dup2\n      mstore\n      0x20\n      add\n      swap1\n      0x01\n      add\n      swap1\n      jump(tag_194)\n    tag_195:\n      pop\n      pop\n      pop\n      pop\n      swap1\n      pop\n        /* \"contracts/parque/parque.sol\":9706:9824  function Historial() public view returns (string [] memory) {\r... */\n      swap1\n      jump\t// out\n        /* \"contracts/parque/parque.sol\":2197:2301  function balanceOf() public view returns (uint) {\r... */\n    tag_57:\n        /* \"contracts/parque/parque.sol\":2239:2243  uint */\n      0x00\n        /* \"contracts/parque/parque.sol\":2263:2268  token */\n      dup1\n      0x00\n      swap1\n      sload\n      swap1\n      0x0100\n      exp\n      swap1\n      div\n      0xffffffffffffffffffffffffffffffffffffffff\n      and\n        /* \"contracts/parque/parque.sol\":2263:2278  token.balanceOf */\n      0xffffffffffffffffffffffffffffffffffffffff\n      and\n      0x70a08231\n        /* \"contracts/parque/parque.sol\":2287:2291  this */\n      address\n        /* \"contracts/parque/parque.sol\":2263:2293  token.balanceOf(address(this)) */\n      mload(0x40)\n      dup3\n      0xffffffff\n      and\n      0xe0\n      shl\n      dup2\n      mstore\n      0x04\n      add\n      tag_201\n      swap2\n      swap1\n      jump(tag_202)\n    tag_201:\n      0x20\n      mload(0x40)\n      dup1\n      dup4\n      sub\n      dup2\n      dup7\n      dup1\n      extcodesize\n      iszero\n        /* \"--CODEGEN--\":5:14   */\n      dup1\n        /* \"--CODEGEN--\":2:4   */\n      iszero\n      tag_203\n      jumpi\n        /* \"--CODEGEN--\":27:28   */\n      0x00\n        /* \"--CODEGEN--\":24:25   */\n      dup1\n        /* \"--CODEGEN--\":17:29   */\n      revert\n        /* \"--CODEGEN--\":2:4   */\n    tag_203:\n        /* \"contracts/parque/parque.sol\":2263:2293  token.balanceOf(address(this)) */\n      pop\n      gas\n      staticcall\n      iszero\n        /* \"--CODEGEN--\":8:17   */\n      dup1\n        /* \"--CODEGEN--\":5:7   */\n      iszero\n      tag_205\n      jumpi\n        /* \"--CODEGEN--\":45:61   */\n      returndatasize\n        /* \"--CODEGEN--\":42:43   */\n      0x00\n        /* \"--CODEGEN--\":39:40   */\n      dup1\n        /* \"--CODEGEN--\":24:62   */\n      returndatacopy\n        /* \"--CODEGEN--\":77:93   */\n      returndatasize\n        /* \"--CODEGEN--\":74:75   */\n      0x00\n        /* \"--CODEGEN--\":67:94   */\n      revert\n        /* \"--CODEGEN--\":5:7   */\n    tag_205:\n        /* \"contracts/parque/parque.sol\":2263:2293  token.balanceOf(address(this)) */\n      pop\n      pop\n      pop\n      pop\n      mload(0x40)\n      returndatasize\n        /* \"--CODEGEN--\":101:105   */\n      0x1f\n        /* \"--CODEGEN--\":97:106   */\n      not\n        /* \"--CODEGEN--\":90:94   */\n      0x1f\n        /* \"--CODEGEN--\":84:88   */\n      dup3\n        /* \"--CODEGEN--\":80:95   */\n      add\n        /* \"--CODEGEN--\":76:107   */\n      and\n        /* \"--CODEGEN--\":69:74   */\n      dup3\n        /* \"--CODEGEN--\":65:108   */\n      add\n        /* \"--CODEGEN--\":126:132   */\n      dup1\n        /* \"--CODEGEN--\":120:124   */\n      0x40\n        /* \"--CODEGEN--\":113:133   */\n      mstore\n        /* \"--CODEGEN--\":0:138   */\n      pop\n        /* \"contracts/parque/parque.sol\":2263:2293  token.balanceOf(address(this)) */\n      dup2\n      add\n      swap1\n      tag_206\n      swap2\n      swap1\n      jump(tag_207)\n    tag_206:\n        /* \"contracts/parque/parque.sol\":2256:2293  return token.balanceOf(address(this)) */\n      swap1\n      pop\n        /* \"contracts/parque/parque.sol\":2197:2301  function balanceOf() public view returns (uint) {\r... */\n      swap1\n      jump\t// out\n        /* \"contracts/parque/parque.sol\":372:400  address payable public owner */\n    tag_62:\n      0x01\n      0x00\n      swap1\n      sload\n      swap1\n      0x0100\n      exp\n      swap1\n      div\n      0xffffffffffffffffffffffffffffffffffffffff\n      and\n      dup2\n      jump\t// out\n        /* \"contracts/parque/parque.sol\":6540:6641  function ComidasDisponibles() public view returns (string [] memory){\r... */\n    tag_67:\n        /* \"contracts/parque/parque.sol\":6591:6607  string [] memory */\n      0x60\n        /* \"contracts/parque/parque.sol\":6626:6633  Comidas */\n      0x06\n        /* \"contracts/parque/parque.sol\":6619:6633  return Comidas */\n      dup1\n      sload\n      dup1\n      0x20\n      mul\n      0x20\n      add\n      mload(0x40)\n      swap1\n      dup2\n      add\n      0x40\n      mstore\n      dup1\n      swap3\n      swap2\n      swap1\n      dup2\n      dup2\n      mstore\n      0x20\n      add\n      0x00\n      swap1\n    tag_209:\n      dup3\n      dup3\n      lt\n      iszero\n      tag_210\n      jumpi\n      dup4\n      dup3\n      swap1\n      0x00\n      mstore\n      keccak256(0x00, 0x20)\n      add\n      dup1\n      sload\n      0x01\n      dup2\n      0x01\n      and\n      iszero\n      0x0100\n      mul\n      sub\n      and\n      0x02\n      swap1\n      div\n      dup1\n      0x1f\n      add\n      0x20\n      dup1\n      swap2\n      div\n      mul\n      0x20\n      add\n      mload(0x40)\n      swap1\n      dup2\n      add\n      0x40\n      mstore\n      dup1\n      swap3\n      swap2\n      swap1\n      dup2\n      dup2\n      mstore\n      0x20\n      add\n      dup3\n      dup1\n      sload\n      0x01\n      dup2\n      0x01\n      and\n      iszero\n      0x0100\n      mul\n      sub\n      and\n      0x02\n      swap1\n      div\n      dup1\n      iszero\n      tag_212\n      jumpi\n      dup1\n      0x1f\n      lt\n      tag_213\n      jumpi\n      0x0100\n      dup1\n      dup4\n      sload\n      div\n      mul\n      dup4\n      mstore\n      swap2\n      0x20\n      add\n      swap2\n      jump(tag_212)\n    tag_213:\n      dup3\n      add\n      swap2\n      swap1\n      0x00\n      mstore\n      keccak256(0x00, 0x20)\n      swap1\n    tag_214:\n      dup2\n      sload\n      dup2\n      mstore\n      swap1\n      0x01\n      add\n      swap1\n      0x20\n      add\n      dup1\n      dup4\n      gt\n      tag_214\n      jumpi\n      dup3\n      swap1\n      sub\n      0x1f\n      and\n      dup3\n      add\n      swap2\n    tag_212:\n      pop\n      pop\n      pop\n      pop\n      pop\n      dup2\n      mstore\n      0x20\n      add\n      swap1\n      0x01\n      add\n      swap1\n      jump(tag_209)\n    tag_210:\n      pop\n      pop\n      pop\n      pop\n      swap1\n      pop\n        /* \"contracts/parque/parque.sol\":6540:6641  function ComidasDisponibles() public view returns (string [] memory){\r... */\n      swap1\n      jump\t// out\n        /* \"contracts/parque/parque.sol\":5601:5946  function BajaAtraccion (string memory _nombreAtraccion) public Unicamente(msg.sender){\r... */\n    tag_72:\n        /* \"contracts/parque/parque.sol\":5675:5685  msg.sender */\n      caller\n        /* \"contracts/parque/parque.sol\":2812:2817  owner */\n      0x01\n      0x00\n      swap1\n      sload\n      swap1\n      0x0100\n      exp\n      swap1\n      div\n      0xffffffffffffffffffffffffffffffffffffffff\n      and\n        /* \"contracts/parque/parque.sol\":2798:2817  _direccion == owner */\n      0xffffffffffffffffffffffffffffffffffffffff\n      and\n        /* \"contracts/parque/parque.sol\":2798:2808  _direccion */\n      dup2\n        /* \"contracts/parque/parque.sol\":2798:2817  _direccion == owner */\n      0xffffffffffffffffffffffffffffffffffffffff\n      and\n      eq\n        /* \"contracts/parque/parque.sol\":2790:2868  require(_direccion == owner, \"No tienes permisos para ejecutar esta funcion.\") */\n      tag_216\n      jumpi\n      mload(0x40)\n      0x08c379a000000000000000000000000000000000000000000000000000000000\n      dup2\n      mstore\n      0x04\n      add\n      tag_217\n      swap1\n      jump(tag_112)\n    tag_217:\n      mload(0x40)\n      dup1\n      swap2\n      sub\n      swap1\n      revert\n    tag_216:\n        /* \"contracts/parque/parque.sol\":5823:5828  false */\n      0x00\n        /* \"contracts/parque/parque.sol\":5767:5785  MappingAtracciones */\n      0x03\n        /* \"contracts/parque/parque.sol\":5786:5802  _nombreAtraccion */\n      dup4\n        /* \"contracts/parque/parque.sol\":5767:5803  MappingAtracciones[_nombreAtraccion] */\n      mload(0x40)\n      tag_219\n      swap2\n      swap1\n      jump(tag_120)\n    tag_219:\n      swap1\n      dup2\n      mstore\n      0x20\n      add\n      mload(0x40)\n      dup1\n      swap2\n      sub\n      swap1\n      keccak256\n        /* \"contracts/parque/parque.sol\":5767:5820  MappingAtracciones[_nombreAtraccion].estado_atraccion */\n      0x02\n      add\n      0x00\n        /* \"contracts/parque/parque.sol\":5767:5828  MappingAtracciones[_nombreAtraccion].estado_atraccion = false */\n      0x0100\n      exp\n      dup2\n      sload\n      dup2\n      0xff\n      mul\n      not\n      and\n      swap1\n      dup4\n      iszero\n      iszero\n      mul\n      or\n      swap1\n      sstore\n      pop\n        /* \"contracts/parque/parque.sol\":5905:5937  baja_atraccion(_nombreAtraccion) */\n      0x24ba6c881728980191398db8dcfd8ed4f6aeb1c08df349d63f3b85075f3e86dd\n        /* \"contracts/parque/parque.sol\":5920:5936  _nombreAtraccion */\n      dup3\n        /* \"contracts/parque/parque.sol\":5905:5937  baja_atraccion(_nombreAtraccion) */\n      mload(0x40)\n      tag_220\n      swap2\n      swap1\n      jump(tag_221)\n    tag_220:\n      mload(0x40)\n      dup1\n      swap2\n      sub\n      swap1\n      log1\n        /* \"contracts/parque/parque.sol\":5601:5946  function BajaAtraccion (string memory _nombreAtraccion) public Unicamente(msg.sender){\r... */\n      pop\n      pop\n      jump\t// out\n        /* \"contracts/parque/parque.sol\":769:813  mapping (address => cliente) public Clientes */\n    tag_77:\n      mstore(0x20, 0x02)\n      dup1\n      0x00\n      mstore\n      keccak256(0x00, 0x40)\n      0x00\n      swap2\n      pop\n      swap1\n      pop\n      dup1\n      0x00\n      add\n      sload\n      swap1\n      pop\n      dup2\n      jump\t// out\n        /* \"contracts/parque/parque.sol\":3710:3765  mapping (string => atraccion) public MappingAtracciones */\n    tag_82:\n      0x03\n      dup2\n        /* \"--CODEGEN--\":28:35   */\n      dup1\n        /* \"--CODEGEN--\":22:36   */\n      mload\n        /* \"--CODEGEN--\":169:173   */\n      0x20\n        /* \"--CODEGEN--\":160:167   */\n      dup2\n        /* \"--CODEGEN--\":156:174   */\n      add\n        /* \"--CODEGEN--\":147:154   */\n      dup3\n        /* \"--CODEGEN--\":143:175   */\n      add\n        /* \"--CODEGEN--\":204:217   */\n      dup1\n        /* \"--CODEGEN--\":198:218   */\n      mload\n        /* \"--CODEGEN--\":246:254   */\n      dup5\n        /* \"--CODEGEN--\":231:244   */\n      dup3\n        /* \"--CODEGEN--\":224:255   */\n      mstore\n        /* \"--CODEGEN--\":316:320   */\n      0x20\n        /* \"--CODEGEN--\":307:314   */\n      dup4\n        /* \"--CODEGEN--\":303:321   */\n      add\n        /* \"--CODEGEN--\":296:300   */\n      0x20\n        /* \"--CODEGEN--\":287:294   */\n      dup6\n        /* \"--CODEGEN--\":283:301   */\n      add\n        /* \"--CODEGEN--\":273:322   */\n      keccak256\n        /* \"--CODEGEN--\":350:359   */\n      dup2\n        /* \"--CODEGEN--\":335:348   */\n      dup4\n        /* \"--CODEGEN--\":328:360   */\n      mstore\n        /* \"--CODEGEN--\":378:382   */\n      dup1\n        /* \"--CODEGEN--\":366:382   */\n      swap6\n      pop\n        /* \"--CODEGEN--\":0:388   */\n      pop\n      pop\n      pop\n      pop\n        /* \"contracts/parque/parque.sol\":3710:3765  mapping (string => atraccion) public MappingAtracciones */\n      pop\n      0x00\n      swap2\n      pop\n      swap1\n      pop\n      dup1\n      0x00\n      add\n      dup1\n      sload\n      0x01\n      dup2\n      0x01\n      and\n      iszero\n      0x0100\n      mul\n      sub\n      and\n      0x02\n      swap1\n      div\n      dup1\n      0x1f\n      add\n      0x20\n      dup1\n      swap2\n      div\n      mul\n      0x20\n      add\n      mload(0x40)\n      swap1\n      dup2\n      add\n      0x40\n      mstore\n      dup1\n      swap3\n      swap2\n      swap1\n      dup2\n      dup2\n      mstore\n      0x20\n      add\n      dup3\n      dup1\n      sload\n      0x01\n      dup2\n      0x01\n      and\n      iszero\n      0x0100\n      mul\n      sub\n      and\n      0x02\n      swap1\n      div\n      dup1\n      iszero\n      tag_222\n      jumpi\n      dup1\n      0x1f\n      lt\n      tag_223\n      jumpi\n      0x0100\n      dup1\n      dup4\n      sload\n      div\n      mul\n      dup4\n      mstore\n      swap2\n      0x20\n      add\n      swap2\n      jump(tag_222)\n    tag_223:\n      dup3\n      add\n      swap2\n      swap1\n      0x00\n      mstore\n      keccak256(0x00, 0x20)\n      swap1\n    tag_224:\n      dup2\n      sload\n      dup2\n      mstore\n      swap1\n      0x01\n      add\n      swap1\n      0x20\n      add\n      dup1\n      dup4\n      gt\n      tag_224\n      jumpi\n      dup3\n      swap1\n      sub\n      0x1f\n      and\n      dup3\n      add\n      swap2\n    tag_222:\n      pop\n      pop\n      pop\n      pop\n      pop\n      swap1\n      dup1\n      0x01\n      add\n      sload\n      swap1\n      dup1\n      0x02\n      add\n      0x00\n      swap1\n      sload\n      swap1\n      0x0100\n      exp\n      swap1\n      div\n      0xff\n      and\n      swap1\n      pop\n      dup4\n      jump\t// out\n        /* \"contracts/parque/parque.sol\":3873:3920  mapping (string => comida) public MappingComida */\n    tag_88:\n      0x04\n      dup2\n        /* \"--CODEGEN--\":28:35   */\n      dup1\n        /* \"--CODEGEN--\":22:36   */\n      mload\n        /* \"--CODEGEN--\":169:173   */\n      0x20\n        /* \"--CODEGEN--\":160:167   */\n      dup2\n        /* \"--CODEGEN--\":156:174   */\n      add\n        /* \"--CODEGEN--\":147:154   */\n      dup3\n        /* \"--CODEGEN--\":143:175   */\n      add\n        /* \"--CODEGEN--\":204:217   */\n      dup1\n        /* \"--CODEGEN--\":198:218   */\n      mload\n        /* \"--CODEGEN--\":246:254   */\n      dup5\n        /* \"--CODEGEN--\":231:244   */\n      dup3\n        /* \"--CODEGEN--\":224:255   */\n      mstore\n        /* \"--CODEGEN--\":316:320   */\n      0x20\n        /* \"--CODEGEN--\":307:314   */\n      dup4\n        /* \"--CODEGEN--\":303:321   */\n      add\n        /* \"--CODEGEN--\":296:300   */\n      0x20\n        /* \"--CODEGEN--\":287:294   */\n      dup6\n        /* \"--CODEGEN--\":283:301   */\n      add\n        /* \"--CODEGEN--\":273:322   */\n      keccak256\n        /* \"--CODEGEN--\":350:359   */\n      dup2\n        /* \"--CODEGEN--\":335:348   */\n      dup4\n        /* \"--CODEGEN--\":328:360   */\n      mstore\n        /* \"--CODEGEN--\":378:382   */\n      dup1\n        /* \"--CODEGEN--\":366:382   */\n      swap6\n      pop\n        /* \"--CODEGEN--\":0:388   */\n      pop\n      pop\n      pop\n      pop\n        /* \"contracts/parque/parque.sol\":3873:3920  mapping (string => comida) public MappingComida */\n      pop\n      0x00\n      swap2\n      pop\n      swap1\n      pop\n      dup1\n      0x00\n      add\n      dup1\n      sload\n      0x01\n      dup2\n      0x01\n      and\n      iszero\n      0x0100\n      mul\n      sub\n      and\n      0x02\n      swap1\n      div\n      dup1\n      0x1f\n      add\n      0x20\n      dup1\n      swap2\n      div\n      mul\n      0x20\n      add\n      mload(0x40)\n      swap1\n      dup2\n      add\n      0x40\n      mstore\n      dup1\n      swap3\n      swap2\n      swap1\n      dup2\n      dup2\n      mstore\n      0x20\n      add\n      dup3\n      dup1\n      sload\n      0x01\n      dup2\n      0x01\n      and\n      iszero\n      0x0100\n      mul\n      sub\n      and\n      0x02\n      swap1\n      div\n      dup1\n      iszero\n      tag_225\n      jumpi\n      dup1\n      0x1f\n      lt\n      tag_226\n      jumpi\n      0x0100\n      dup1\n      dup4\n      sload\n      div\n      mul\n      dup4\n      mstore\n      swap2\n      0x20\n      add\n      swap2\n      jump(tag_225)\n    tag_226:\n      dup3\n      add\n      swap2\n      swap1\n      0x00\n      mstore\n      keccak256(0x00, 0x20)\n      swap1\n    tag_227:\n      dup2\n      sload\n      dup2\n      mstore\n      swap1\n      0x01\n      add\n      swap1\n      0x20\n      add\n      dup1\n      dup4\n      gt\n      tag_227\n      jumpi\n      dup3\n      swap1\n      sub\n      0x1f\n      and\n      dup3\n      add\n      swap2\n    tag_225:\n      pop\n      pop\n      pop\n      pop\n      pop\n      swap1\n      dup1\n      0x01\n      add\n      sload\n      swap1\n      dup1\n      0x02\n      add\n      0x00\n      swap1\n      sload\n      swap1\n      0x0100\n      exp\n      swap1\n      div\n      0xff\n      and\n      swap1\n      pop\n      dup4\n      jump\t// out\n        /* \"contracts/parque/parque.sol\":9915:10035  function HistorialComida() public view returns (string [] memory) {\r... */\n    tag_92:\n        /* \"contracts/parque/parque.sol\":9963:9979  string [] memory */\n      0x60\n        /* \"contracts/parque/parque.sol\":9999:10015  HistorialComidas */\n      0x08\n        /* \"contracts/parque/parque.sol\":9999:10027  HistorialComidas[msg.sender] */\n      0x00\n        /* \"contracts/parque/parque.sol\":10016:10026  msg.sender */\n      caller\n        /* \"contracts/parque/parque.sol\":9999:10027  HistorialComidas[msg.sender] */\n      0xffffffffffffffffffffffffffffffffffffffff\n      and\n      0xffffffffffffffffffffffffffffffffffffffff\n      and\n      dup2\n      mstore\n      0x20\n      add\n      swap1\n      dup2\n      mstore\n      0x20\n      add\n      0x00\n      keccak256\n        /* \"contracts/parque/parque.sol\":9992:10027  return HistorialComidas[msg.sender] */\n      dup1\n      sload\n      dup1\n      0x20\n      mul\n      0x20\n      add\n      mload(0x40)\n      swap1\n      dup2\n      add\n      0x40\n      mstore\n      dup1\n      swap3\n      swap2\n      swap1\n      dup2\n      dup2\n      mstore\n      0x20\n      add\n      0x00\n      swap1\n    tag_229:\n      dup3\n      dup3\n      lt\n      iszero\n      tag_230\n      jumpi\n      dup4\n      dup3\n      swap1\n      0x00\n      mstore\n      keccak256(0x00, 0x20)\n      add\n      dup1\n      sload\n      0x01\n      dup2\n      0x01\n      and\n      iszero\n      0x0100\n      mul\n      sub\n      and\n      0x02\n      swap1\n      div\n      dup1\n      0x1f\n      add\n      0x20\n      dup1\n      swap2\n      div\n      mul\n      0x20\n      add\n      mload(0x40)\n      swap1\n      dup2\n      add\n      0x40\n      mstore\n      dup1\n      swap3\n      swap2\n      swap1\n      dup2\n      dup2\n      mstore\n      0x20\n      add\n      dup3\n      dup1\n      sload\n      0x01\n      dup2\n      0x01\n      and\n      iszero\n      0x0100\n      mul\n      sub\n      and\n      0x02\n      swap1\n      div\n      dup1\n      iszero\n      tag_232\n      jumpi\n      dup1\n      0x1f\n      lt\n      tag_233\n      jumpi\n      0x0100\n      dup1\n      dup4\n      sload\n      div\n      mul\n      dup4\n      mstore\n      swap2\n      0x20\n      add\n      swap2\n      jump(tag_232)\n    tag_233:\n      dup3\n      add\n      swap2\n      swap1\n      0x00\n      mstore\n      keccak256(0x00, 0x20)\n      swap1\n    tag_234:\n      dup2\n      sload\n      dup2\n      mstore\n      swap1\n      0x01\n      add\n      swap1\n      0x20\n      add\n      dup1\n      dup4\n      gt\n      tag_234\n      jumpi\n      dup3\n      swap1\n      sub\n      0x1f\n      and\n      dup3\n      add\n      swap2\n    tag_232:\n      pop\n      pop\n      pop\n      pop\n      pop\n      dup2\n      mstore\n      0x20\n      add\n      swap1\n      0x01\n      add\n      swap1\n      jump(tag_229)\n    tag_230:\n      pop\n      pop\n      pop\n      pop\n      swap1\n      pop\n        /* \"contracts/parque/parque.sol\":9915:10035  function HistorialComida() public view returns (string [] memory) {\r... */\n      swap1\n      jump\t// out\n        /* \"contracts/parque/parque.sol\":6001:6319  function BajaComida (string memory _nombreComida) public Unicamente(msg.sender){\r... */\n    tag_97:\n        /* \"contracts/parque/parque.sol\":6069:6079  msg.sender */\n      caller\n        /* \"contracts/parque/parque.sol\":2812:2817  owner */\n      0x01\n      0x00\n      swap1\n      sload\n      swap1\n      0x0100\n      exp\n      swap1\n      div\n      0xffffffffffffffffffffffffffffffffffffffff\n      and\n        /* \"contracts/parque/parque.sol\":2798:2817  _direccion == owner */\n      0xffffffffffffffffffffffffffffffffffffffff\n      and\n        /* \"contracts/parque/parque.sol\":2798:2808  _direccion */\n      dup2\n        /* \"contracts/parque/parque.sol\":2798:2817  _direccion == owner */\n      0xffffffffffffffffffffffffffffffffffffffff\n      and\n      eq\n        /* \"contracts/parque/parque.sol\":2790:2868  require(_direccion == owner, \"No tienes permisos para ejecutar esta funcion.\") */\n      tag_236\n      jumpi\n      mload(0x40)\n      0x08c379a000000000000000000000000000000000000000000000000000000000\n      dup2\n      mstore\n      0x04\n      add\n      tag_237\n      swap1\n      jump(tag_112)\n    tag_237:\n      mload(0x40)\n      dup1\n      swap2\n      sub\n      swap1\n      revert\n    tag_236:\n        /* \"contracts/parque/parque.sol\":6205:6210  false */\n      0x00\n        /* \"contracts/parque/parque.sol\":6160:6173  MappingComida */\n      0x04\n        /* \"contracts/parque/parque.sol\":6174:6187  _nombreComida */\n      dup4\n        /* \"contracts/parque/parque.sol\":6160:6188  MappingComida[_nombreComida] */\n      mload(0x40)\n      tag_239\n      swap2\n      swap1\n      jump(tag_120)\n    tag_239:\n      swap1\n      dup2\n      mstore\n      0x20\n      add\n      mload(0x40)\n      dup1\n      swap2\n      sub\n      swap1\n      keccak256\n        /* \"contracts/parque/parque.sol\":6160:6202  MappingComida[_nombreComida].estado_comida */\n      0x02\n      add\n      0x00\n        /* \"contracts/parque/parque.sol\":6160:6210  MappingComida[_nombreComida].estado_comida = false */\n      0x0100\n      exp\n      dup2\n      sload\n      dup2\n      0xff\n      mul\n      not\n      and\n      swap1\n      dup4\n      iszero\n      iszero\n      mul\n      or\n      swap1\n      sstore\n      pop\n        /* \"contracts/parque/parque.sol\":6284:6310  baja_comida(_nombreComida) */\n      0xc08b02ec29b10837b03ba712be7196ccd02824c57a727dbd6c9718051c9437c6\n        /* \"contracts/parque/parque.sol\":6296:6309  _nombreComida */\n      dup3\n        /* \"contracts/parque/parque.sol\":6284:6310  baja_comida(_nombreComida) */\n      mload(0x40)\n      tag_240\n      swap2\n      swap1\n      jump(tag_221)\n    tag_240:\n      mload(0x40)\n      dup1\n      swap2\n      sub\n      swap1\n      log1\n        /* \"contracts/parque/parque.sol\":6001:6319  function BajaComida (string memory _nombreComida) public Unicamente(msg.sender){\r... */\n      pop\n      pop\n      jump\t// out\n        /* \"contracts/parque/parque.sol\":2377:2477  function MisTokens() public view returns (uint){\r... */\n    tag_100:\n        /* \"contracts/parque/parque.sol\":2419:2423  uint */\n      0x00\n        /* \"contracts/parque/parque.sol\":2442:2447  token */\n      dup1\n      0x00\n      swap1\n      sload\n      swap1\n      0x0100\n      exp\n      swap1\n      div\n      0xffffffffffffffffffffffffffffffffffffffff\n      and\n        /* \"contracts/parque/parque.sol\":2442:2457  token.balanceOf */\n      0xffffffffffffffffffffffffffffffffffffffff\n      and\n      0x70a08231\n        /* \"contracts/parque/parque.sol\":2458:2468  msg.sender */\n      caller\n        /* \"contracts/parque/parque.sol\":2442:2469  token.balanceOf(msg.sender) */\n      mload(0x40)\n      dup3\n      0xffffffff\n      and\n      0xe0\n      shl\n      dup2\n      mstore\n      0x04\n      add\n      tag_242\n      swap2\n      swap1\n      jump(tag_243)\n    tag_242:\n      0x20\n      mload(0x40)\n      dup1\n      dup4\n      sub\n      dup2\n      dup7\n      dup1\n      extcodesize\n      iszero\n        /* \"--CODEGEN--\":5:14   */\n      dup1\n        /* \"--CODEGEN--\":2:4   */\n      iszero\n      tag_244\n      jumpi\n        /* \"--CODEGEN--\":27:28   */\n      0x00\n        /* \"--CODEGEN--\":24:25   */\n      dup1\n        /* \"--CODEGEN--\":17:29   */\n      revert\n        /* \"--CODEGEN--\":2:4   */\n    tag_244:\n        /* \"contracts/parque/parque.sol\":2442:2469  token.balanceOf(msg.sender) */\n      pop\n      gas\n      staticcall\n      iszero\n        /* \"--CODEGEN--\":8:17   */\n      dup1\n        /* \"--CODEGEN--\":5:7   */\n      iszero\n      tag_246\n      jumpi\n        /* \"--CODEGEN--\":45:61   */\n      returndatasize\n        /* \"--CODEGEN--\":42:43   */\n      0x00\n        /* \"--CODEGEN--\":39:40   */\n      dup1\n        /* \"--CODEGEN--\":24:62   */\n      returndatacopy\n        /* \"--CODEGEN--\":77:93   */\n      returndatasize\n        /* \"--CODEGEN--\":74:75   */\n      0x00\n        /* \"--CODEGEN--\":67:94   */\n      revert\n        /* \"--CODEGEN--\":5:7   */\n    tag_246:\n        /* \"contracts/parque/parque.sol\":2442:2469  token.balanceOf(msg.sender) */\n      pop\n      pop\n      pop\n      pop\n      mload(0x40)\n      returndatasize\n        /* \"--CODEGEN--\":101:105   */\n      0x1f\n        /* \"--CODEGEN--\":97:106   */\n      not\n        /* \"--CODEGEN--\":90:94   */\n      0x1f\n        /* \"--CODEGEN--\":84:88   */\n      dup3\n        /* \"--CODEGEN--\":80:95   */\n      add\n        /* \"--CODEGEN--\":76:107   */\n      and\n        /* \"--CODEGEN--\":69:74   */\n      dup3\n        /* \"--CODEGEN--\":65:108   */\n      add\n        /* \"--CODEGEN--\":126:132   */\n      dup1\n        /* \"--CODEGEN--\":120:124   */\n      0x40\n        /* \"--CODEGEN--\":113:133   */\n      mstore\n        /* \"--CODEGEN--\":0:138   */\n      pop\n        /* \"contracts/parque/parque.sol\":2442:2469  token.balanceOf(msg.sender) */\n      dup2\n      add\n      swap1\n      tag_247\n      swap2\n      swap1\n      jump(tag_207)\n    tag_247:\n        /* \"contracts/parque/parque.sol\":2435:2469  return token.balanceOf(msg.sender) */\n      swap1\n      pop\n        /* \"contracts/parque/parque.sol\":2377:2477  function MisTokens() public view returns (uint){\r... */\n      swap1\n      jump\t// out\n        /* \"contracts/parque/parque.sol\":1253:2139  function CompraTokens(uint _numTokens) public payable {\r... */\n    tag_104:\n        /* \"contracts/parque/parque.sol\":1365:1375  uint coste */\n      0x00\n        /* \"contracts/parque/parque.sol\":1378:1402  PrecioTokens(_numTokens) */\n      tag_249\n        /* \"contracts/parque/parque.sol\":1391:1401  _numTokens */\n      dup3\n        /* \"contracts/parque/parque.sol\":1378:1390  PrecioTokens */\n      tag_155\n        /* \"contracts/parque/parque.sol\":1378:1402  PrecioTokens(_numTokens) */\n      jump\t// in\n    tag_249:\n        /* \"contracts/parque/parque.sol\":1365:1402  uint coste = PrecioTokens(_numTokens) */\n      swap1\n      pop\n        /* \"contracts/parque/parque.sol\":1502:1507  coste */\n      dup1\n        /* \"contracts/parque/parque.sol\":1489:1498  msg.value */\n      callvalue\n        /* \"contracts/parque/parque.sol\":1489:1507  msg.value >= coste */\n      lt\n      iszero\n        /* \"contracts/parque/parque.sol\":1480:1554  require (msg.value >= coste, \"Compra menos Tokens o paga con mas ethers.\") */\n      tag_250\n      jumpi\n      mload(0x40)\n      0x08c379a000000000000000000000000000000000000000000000000000000000\n      dup2\n      mstore\n      0x04\n      add\n      tag_251\n      swap1\n      jump(tag_252)\n    tag_251:\n      mload(0x40)\n      dup1\n      swap2\n      sub\n      swap1\n      revert\n    tag_250:\n        /* \"contracts/parque/parque.sol\":1614:1630  uint returnValue */\n      0x00\n        /* \"contracts/parque/parque.sol\":1645:1650  coste */\n      dup2\n        /* \"contracts/parque/parque.sol\":1633:1642  msg.value */\n      callvalue\n        /* \"contracts/parque/parque.sol\":1633:1650  msg.value - coste */\n      sub\n        /* \"contracts/parque/parque.sol\":1614:1650  uint returnValue = msg.value - coste */\n      swap1\n      pop\n        /* \"contracts/parque/parque.sol\":1721:1731  msg.sender */\n      caller\n        /* \"contracts/parque/parque.sol\":1721:1740  msg.sender.transfer */\n      0xffffffffffffffffffffffffffffffffffffffff\n      and\n        /* \"contracts/parque/parque.sol\":1721:1753  msg.sender.transfer(returnValue) */\n      0x08fc\n        /* \"contracts/parque/parque.sol\":1741:1752  returnValue */\n      dup3\n        /* \"contracts/parque/parque.sol\":1721:1753  msg.sender.transfer(returnValue) */\n      swap1\n      dup2\n      iszero\n      mul\n      swap1\n      mload(0x40)\n      0x00\n      mload(0x40)\n      dup1\n      dup4\n      sub\n      dup2\n      dup6\n      dup9\n      dup9\n      call\n      swap4\n      pop\n      pop\n      pop\n      pop\n      iszero\n        /* \"--CODEGEN--\":8:17   */\n      dup1\n        /* \"--CODEGEN--\":5:7   */\n      iszero\n      tag_254\n      jumpi\n        /* \"--CODEGEN--\":45:61   */\n      returndatasize\n        /* \"--CODEGEN--\":42:43   */\n      0x00\n        /* \"--CODEGEN--\":39:40   */\n      dup1\n        /* \"--CODEGEN--\":24:62   */\n      returndatacopy\n        /* \"--CODEGEN--\":77:93   */\n      returndatasize\n        /* \"--CODEGEN--\":74:75   */\n      0x00\n        /* \"--CODEGEN--\":67:94   */\n      revert\n        /* \"--CODEGEN--\":5:7   */\n    tag_254:\n        /* \"contracts/parque/parque.sol\":1721:1753  msg.sender.transfer(returnValue) */\n      pop\n        /* \"contracts/parque/parque.sol\":1819:1831  uint Balance */\n      0x00\n        /* \"contracts/parque/parque.sol\":1834:1845  balanceOf() */\n      tag_255\n        /* \"contracts/parque/parque.sol\":1834:1843  balanceOf */\n      tag_57\n        /* \"contracts/parque/parque.sol\":1834:1845  balanceOf() */\n      jump\t// in\n    tag_255:\n        /* \"contracts/parque/parque.sol\":1819:1845  uint Balance = balanceOf() */\n      swap1\n      pop\n        /* \"contracts/parque/parque.sol\":1878:1885  Balance */\n      dup1\n        /* \"contracts/parque/parque.sol\":1864:1874  _numTokens */\n      dup5\n        /* \"contracts/parque/parque.sol\":1864:1885  _numTokens <= Balance */\n      gt\n      iszero\n        /* \"contracts/parque/parque.sol\":1856:1922  require(_numTokens <= Balance, \"Compra un numero menor de Tokens\") */\n      tag_256\n      jumpi\n      mload(0x40)\n      0x08c379a000000000000000000000000000000000000000000000000000000000\n      dup2\n      mstore\n      0x04\n      add\n      tag_257\n      swap1\n      jump(tag_258)\n    tag_257:\n      mload(0x40)\n      dup1\n      swap2\n      sub\n      swap1\n      revert\n    tag_256:\n        /* \"contracts/parque/parque.sol\":1990:1995  token */\n      0x00\n      dup1\n      swap1\n      sload\n      swap1\n      0x0100\n      exp\n      swap1\n      div\n      0xffffffffffffffffffffffffffffffffffffffff\n      and\n        /* \"contracts/parque/parque.sol\":1990:2004  token.transfer */\n      0xffffffffffffffffffffffffffffffffffffffff\n      and\n      0xa9059cbb\n        /* \"contracts/parque/parque.sol\":2005:2015  msg.sender */\n      caller\n        /* \"contracts/parque/parque.sol\":2017:2027  _numTokens */\n      dup7\n        /* \"contracts/parque/parque.sol\":1990:2028  token.transfer(msg.sender, _numTokens) */\n      mload(0x40)\n      dup4\n      0xffffffff\n      and\n      0xe0\n      shl\n      dup2\n      mstore\n      0x04\n      add\n      tag_259\n      swap3\n      swap2\n      swap1\n      jump(tag_260)\n    tag_259:\n      0x20\n      mload(0x40)\n      dup1\n      dup4\n      sub\n      dup2\n      0x00\n      dup8\n      dup1\n      extcodesize\n      iszero\n        /* \"--CODEGEN--\":5:14   */\n      dup1\n        /* \"--CODEGEN--\":2:4   */\n      iszero\n      tag_261\n      jumpi\n        /* \"--CODEGEN--\":27:28   */\n      0x00\n        /* \"--CODEGEN--\":24:25   */\n      dup1\n        /* \"--CODEGEN--\":17:29   */\n      revert\n        /* \"--CODEGEN--\":2:4   */\n    tag_261:\n        /* \"contracts/parque/parque.sol\":1990:2028  token.transfer(msg.sender, _numTokens) */\n      pop\n      gas\n      call\n      iszero\n        /* \"--CODEGEN--\":8:17   */\n      dup1\n        /* \"--CODEGEN--\":5:7   */\n      iszero\n      tag_263\n      jumpi\n        /* \"--CODEGEN--\":45:61   */\n      returndatasize\n        /* \"--CODEGEN--\":42:43   */\n      0x00\n        /* \"--CODEGEN--\":39:40   */\n      dup1\n        /* \"--CODEGEN--\":24:62   */\n      returndatacopy\n        /* \"--CODEGEN--\":77:93   */\n      returndatasize\n        /* \"--CODEGEN--\":74:75   */\n      0x00\n        /* \"--CODEGEN--\":67:94   */\n      revert\n        /* \"--CODEGEN--\":5:7   */\n    tag_263:\n        /* \"contracts/parque/parque.sol\":1990:2028  token.transfer(msg.sender, _numTokens) */\n      pop\n      pop\n      pop\n      pop\n      mload(0x40)\n      returndatasize\n        /* \"--CODEGEN--\":101:105   */\n      0x1f\n        /* \"--CODEGEN--\":97:106   */\n      not\n        /* \"--CODEGEN--\":90:94   */\n      0x1f\n        /* \"--CODEGEN--\":84:88   */\n      dup3\n        /* \"--CODEGEN--\":80:95   */\n      add\n        /* \"--CODEGEN--\":76:107   */\n      and\n        /* \"--CODEGEN--\":69:74   */\n      dup3\n        /* \"--CODEGEN--\":65:108   */\n      add\n        /* \"--CODEGEN--\":126:132   */\n      dup1\n        /* \"--CODEGEN--\":120:124   */\n      0x40\n        /* \"--CODEGEN--\":113:133   */\n      mstore\n        /* \"--CODEGEN--\":0:138   */\n      pop\n        /* \"contracts/parque/parque.sol\":1990:2028  token.transfer(msg.sender, _numTokens) */\n      dup2\n      add\n      swap1\n      tag_264\n      swap2\n      swap1\n      jump(tag_135)\n    tag_264:\n      pop\n        /* \"contracts/parque/parque.sol\":2121:2131  _numTokens */\n      dup4\n        /* \"contracts/parque/parque.sol\":2080:2088  Clientes */\n      0x02\n        /* \"contracts/parque/parque.sol\":2080:2100  Clientes[msg.sender] */\n      0x00\n        /* \"contracts/parque/parque.sol\":2089:2099  msg.sender */\n      caller\n        /* \"contracts/parque/parque.sol\":2080:2100  Clientes[msg.sender] */\n      0xffffffffffffffffffffffffffffffffffffffff\n      and\n      0xffffffffffffffffffffffffffffffffffffffff\n      and\n      dup2\n      mstore\n      0x20\n      add\n      swap1\n      dup2\n      mstore\n      0x20\n      add\n      0x00\n      keccak256\n        /* \"contracts/parque/parque.sol\":2080:2117  Clientes[msg.sender].tokens_comprados */\n      0x00\n      add\n      0x00\n        /* \"contracts/parque/parque.sol\":2080:2131  Clientes[msg.sender].tokens_comprados += _numTokens */\n      dup3\n      dup3\n      sload\n      add\n      swap3\n      pop\n      pop\n      dup2\n      swap1\n      sstore\n      pop\n        /* \"contracts/parque/parque.sol\":1253:2139  function CompraTokens(uint _numTokens) public payable {\r... */\n      pop\n      pop\n      pop\n      pop\n      jump\t// out\n        /* \"contracts/parque/parque.sol\":5078:5540  function NuevaComida(string memory _nombreComida, uint _precio) public Unicamente (msg.sender) {\r... */\n    tag_108:\n        /* \"contracts/parque/parque.sol\":5161:5171  msg.sender */\n      caller\n        /* \"contracts/parque/parque.sol\":2812:2817  owner */\n      0x01\n      0x00\n      swap1\n      sload\n      swap1\n      0x0100\n      exp\n      swap1\n      div\n      0xffffffffffffffffffffffffffffffffffffffff\n      and\n        /* \"contracts/parque/parque.sol\":2798:2817  _direccion == owner */\n      0xffffffffffffffffffffffffffffffffffffffff\n      and\n        /* \"contracts/parque/parque.sol\":2798:2808  _direccion */\n      dup2\n        /* \"contracts/parque/parque.sol\":2798:2817  _direccion == owner */\n      0xffffffffffffffffffffffffffffffffffffffff\n      and\n      eq\n        /* \"contracts/parque/parque.sol\":2790:2868  require(_direccion == owner, \"No tienes permisos para ejecutar esta funcion.\") */\n      tag_266\n      jumpi\n      mload(0x40)\n      0x08c379a000000000000000000000000000000000000000000000000000000000\n      dup2\n      mstore\n      0x04\n      add\n      tag_267\n      swap1\n      jump(tag_112)\n    tag_267:\n      mload(0x40)\n      dup1\n      swap2\n      sub\n      swap1\n      revert\n    tag_266:\n        /* \"contracts/parque/parque.sol\":5260:5296  comida(_nombreComida, _precio, true) */\n      mload(0x40)\n      dup1\n      0x60\n      add\n      0x40\n      mstore\n      dup1\n        /* \"contracts/parque/parque.sol\":5267:5280  _nombreComida */\n      dup5\n        /* \"contracts/parque/parque.sol\":5260:5296  comida(_nombreComida, _precio, true) */\n      dup2\n      mstore\n      0x20\n      add\n        /* \"contracts/parque/parque.sol\":5282:5289  _precio */\n      dup4\n        /* \"contracts/parque/parque.sol\":5260:5296  comida(_nombreComida, _precio, true) */\n      dup2\n      mstore\n      0x20\n      add\n        /* \"contracts/parque/parque.sol\":5291:5295  true */\n      0x01\n        /* \"contracts/parque/parque.sol\":5260:5296  comida(_nombreComida, _precio, true) */\n      iszero\n      iszero\n      dup2\n      mstore\n      pop\n        /* \"contracts/parque/parque.sol\":5229:5242  MappingComida */\n      0x04\n        /* \"contracts/parque/parque.sol\":5243:5256  _nombreComida */\n      dup5\n        /* \"contracts/parque/parque.sol\":5229:5257  MappingComida[_nombreComida] */\n      mload(0x40)\n      tag_269\n      swap2\n      swap1\n      jump(tag_120)\n    tag_269:\n      swap1\n      dup2\n      mstore\n      0x20\n      add\n      mload(0x40)\n      dup1\n      swap2\n      sub\n      swap1\n      keccak256\n        /* \"contracts/parque/parque.sol\":5229:5296  MappingComida[_nombreComida] = comida(_nombreComida, _precio, true) */\n      0x00\n      dup3\n      add\n      mload\n      dup2\n      0x00\n      add\n      swap1\n      dup1\n      mload\n      swap1\n      0x20\n      add\n      swap1\n      tag_270\n      swap3\n      swap2\n      swap1\n      tag_138\n      jump\t// in\n    tag_270:\n      pop\n      0x20\n      dup3\n      add\n      mload\n      dup2\n      0x01\n      add\n      sstore\n      0x40\n      dup3\n      add\n      mload\n      dup2\n      0x02\n      add\n      exp(0x0100, 0x00)\n      dup2\n      sload\n      dup2\n      0xff\n      mul\n      not\n      and\n      swap1\n      dup4\n      iszero\n      iszero\n      mul\n      or\n      swap1\n      sstore\n      pop\n      swap1\n      pop\n      pop\n        /* \"contracts/parque/parque.sol\":5384:5391  Comidas */\n      0x06\n        /* \"contracts/parque/parque.sol\":5397:5410  _nombreComida */\n      dup4\n        /* \"contracts/parque/parque.sol\":5384:5411  Comidas.push(_nombreComida) */\n      swap1\n      dup1\n        /* \"--CODEGEN--\":39:40   */\n      0x01\n        /* \"--CODEGEN--\":33:36   */\n      dup2\n        /* \"--CODEGEN--\":27:37   */\n      sload\n        /* \"--CODEGEN--\":23:41   */\n      add\n        /* \"--CODEGEN--\":57:67   */\n      dup1\n        /* \"--CODEGEN--\":52:55   */\n      dup3\n        /* \"--CODEGEN--\":45:68   */\n      sstore\n        /* \"--CODEGEN--\":79:89   */\n      dup1\n        /* \"--CODEGEN--\":72:89   */\n      swap2\n      pop\n        /* \"--CODEGEN--\":0:93   */\n      pop\n        /* \"contracts/parque/parque.sol\":5384:5411  Comidas.push(_nombreComida) */\n      0x01\n      swap1\n      sub\n      swap1\n      0x00\n      mstore\n      keccak256(0x00, 0x20)\n      add\n      0x00\n      swap1\n      swap2\n      swap1\n      swap2\n      swap1\n      swap2\n      pop\n      swap1\n      dup1\n      mload\n      swap1\n      0x20\n      add\n      swap1\n      tag_272\n      swap3\n      swap2\n      swap1\n      tag_138\n      jump\t// in\n    tag_272:\n      pop\n        /* \"contracts/parque/parque.sol\":5490:5532  nueva_comida(_nombreComida, _precio, true) */\n      0x6d1a05b4fa2e9450b7aa20d1d87bec6ab6f8de4ab150be94c86f38e98c3c95dd\n        /* \"contracts/parque/parque.sol\":5503:5516  _nombreComida */\n      dup4\n        /* \"contracts/parque/parque.sol\":5518:5525  _precio */\n      dup4\n        /* \"contracts/parque/parque.sol\":5527:5531  true */\n      0x01\n        /* \"contracts/parque/parque.sol\":5490:5532  nueva_comida(_nombreComida, _precio, true) */\n      mload(0x40)\n      tag_273\n      swap4\n      swap3\n      swap2\n      swap1\n      jump(tag_84)\n    tag_273:\n      mload(0x40)\n      dup1\n      swap2\n      sub\n      swap1\n      log1\n        /* \"contracts/parque/parque.sol\":5078:5540  function NuevaComida(string memory _nombreComida, uint _precio) public Unicamente (msg.sender) {\r... */\n      pop\n      pop\n      pop\n      jump\t// out\n        /* \"contracts/parque/parque.sol\":987:1163  function PrecioTokens(uint _numTokens) internal pure returns (uint) {\r... */\n    tag_155:\n        /* \"contracts/parque/parque.sol\":1049:1053  uint */\n      0x00\n        /* \"contracts/parque/parque.sol\":1147:1154  1 ether */\n      0x0de0b6b3a7640000\n        /* \"contracts/parque/parque.sol\":1135:1145  _numTokens */\n      dup3\n        /* \"contracts/parque/parque.sol\":1135:1155  _numTokens*(1 ether) */\n      mul\n        /* \"contracts/parque/parque.sol\":1128:1155  return _numTokens*(1 ether) */\n      swap1\n      pop\n        /* \"contracts/parque/parque.sol\":987:1163  function PrecioTokens(uint _numTokens) internal pure returns (uint) {\r... */\n      swap2\n      swap1\n      pop\n      jump\t// out\n        /* \"contracts/parque/parque.sol\":129:10727  contract Disney{\r... */\n    tag_138:\n      dup3\n      dup1\n      sload\n      0x01\n      dup2\n      0x01\n      and\n      iszero\n      0x0100\n      mul\n      sub\n      and\n      0x02\n      swap1\n      div\n      swap1\n      0x00\n      mstore\n      keccak256(0x00, 0x20)\n      swap1\n      0x1f\n      add\n      0x20\n      swap1\n      div\n      dup2\n      add\n      swap3\n      dup3\n      0x1f\n      lt\n      tag_276\n      jumpi\n      dup1\n      mload\n      not(0xff)\n      and\n      dup4\n      dup1\n      add\n      or\n      dup6\n      sstore\n      jump(tag_275)\n    tag_276:\n      dup3\n      dup1\n      add\n      0x01\n      add\n      dup6\n      sstore\n      dup3\n      iszero\n      tag_275\n      jumpi\n      swap2\n      dup3\n      add\n    tag_277:\n      dup3\n      dup2\n      gt\n      iszero\n      tag_278\n      jumpi\n      dup3\n      mload\n      dup3\n      sstore\n      swap2\n      0x20\n      add\n      swap2\n      swap1\n      0x01\n      add\n      swap1\n      jump(tag_277)\n    tag_278:\n    tag_275:\n      pop\n      swap1\n      pop\n      tag_279\n      swap2\n      swap1\n      tag_280\n      jump\t// in\n    tag_279:\n      pop\n      swap1\n      jump\t// out\n    tag_280:\n      tag_281\n      swap2\n      swap1\n    tag_282:\n      dup1\n      dup3\n      gt\n      iszero\n      tag_283\n      jumpi\n      0x00\n      dup2\n      0x00\n      swap1\n      sstore\n      pop\n      0x01\n      add\n      jump(tag_282)\n    tag_283:\n      pop\n      swap1\n      jump\n    tag_281:\n      swap1\n      jump\t// out\n        /* \"--CODEGEN--\":5:135   */\n    tag_285:\n      0x00\n        /* \"--CODEGEN--\":85:91   */\n      dup2\n        /* \"--CODEGEN--\":72:92   */\n      calldataload\n        /* \"--CODEGEN--\":63:92   */\n      swap1\n      pop\n        /* \"--CODEGEN--\":97:130   */\n      tag_287\n        /* \"--CODEGEN--\":124:129   */\n      dup2\n        /* \"--CODEGEN--\":97:130   */\n      jump(tag_288)\n    tag_287:\n        /* \"--CODEGEN--\":57:135   */\n      swap3\n      swap2\n      pop\n      pop\n      jump\n        /* \"--CODEGEN--\":142:270   */\n    tag_289:\n      0x00\n        /* \"--CODEGEN--\":223:229   */\n      dup2\n        /* \"--CODEGEN--\":217:230   */\n      mload\n        /* \"--CODEGEN--\":208:230   */\n      swap1\n      pop\n        /* \"--CODEGEN--\":235:265   */\n      tag_291\n        /* \"--CODEGEN--\":259:264   */\n      dup2\n        /* \"--CODEGEN--\":235:265   */\n      jump(tag_292)\n    tag_291:\n        /* \"--CODEGEN--\":202:270   */\n      swap3\n      swap2\n      pop\n      pop\n      jump\n        /* \"--CODEGEN--\":278:720   */\n    tag_293:\n      0x00\n        /* \"--CODEGEN--\":380:383   */\n      dup3\n        /* \"--CODEGEN--\":373:377   */\n      0x1f\n        /* \"--CODEGEN--\":365:371   */\n      dup4\n        /* \"--CODEGEN--\":361:378   */\n      add\n        /* \"--CODEGEN--\":357:384   */\n      slt\n        /* \"--CODEGEN--\":347:349   */\n      tag_295\n      jumpi\n        /* \"--CODEGEN--\":398:399   */\n      0x00\n        /* \"--CODEGEN--\":395:396   */\n      dup1\n        /* \"--CODEGEN--\":388:400   */\n      revert\n        /* \"--CODEGEN--\":347:349   */\n    tag_295:\n        /* \"--CODEGEN--\":435:441   */\n      dup2\n        /* \"--CODEGEN--\":422:442   */\n      calldataload\n        /* \"--CODEGEN--\":457:522   */\n      tag_296\n        /* \"--CODEGEN--\":472:521   */\n      tag_297\n        /* \"--CODEGEN--\":514:520   */\n      dup3\n        /* \"--CODEGEN--\":472:521   */\n      jump(tag_298)\n    tag_297:\n        /* \"--CODEGEN--\":457:522   */\n      jump(tag_299)\n    tag_296:\n        /* \"--CODEGEN--\":448:522   */\n      swap2\n      pop\n        /* \"--CODEGEN--\":542:548   */\n      dup1\n        /* \"--CODEGEN--\":535:540   */\n      dup3\n        /* \"--CODEGEN--\":528:549   */\n      mstore\n        /* \"--CODEGEN--\":578:582   */\n      0x20\n        /* \"--CODEGEN--\":570:576   */\n      dup4\n        /* \"--CODEGEN--\":566:583   */\n      add\n        /* \"--CODEGEN--\":611:615   */\n      0x20\n        /* \"--CODEGEN--\":604:609   */\n      dup4\n        /* \"--CODEGEN--\":600:616   */\n      add\n        /* \"--CODEGEN--\":646:649   */\n      dup6\n        /* \"--CODEGEN--\":637:643   */\n      dup4\n        /* \"--CODEGEN--\":632:635   */\n      dup4\n        /* \"--CODEGEN--\":628:644   */\n      add\n        /* \"--CODEGEN--\":625:650   */\n      gt\n        /* \"--CODEGEN--\":622:624   */\n      iszero\n      tag_300\n      jumpi\n        /* \"--CODEGEN--\":663:664   */\n      0x00\n        /* \"--CODEGEN--\":660:661   */\n      dup1\n        /* \"--CODEGEN--\":653:665   */\n      revert\n        /* \"--CODEGEN--\":622:624   */\n    tag_300:\n        /* \"--CODEGEN--\":673:714   */\n      tag_301\n        /* \"--CODEGEN--\":707:713   */\n      dup4\n        /* \"--CODEGEN--\":702:705   */\n      dup3\n        /* \"--CODEGEN--\":697:700   */\n      dup5\n        /* \"--CODEGEN--\":673:714   */\n      jump(tag_302)\n    tag_301:\n        /* \"--CODEGEN--\":340:720   */\n      pop\n      pop\n      pop\n      swap3\n      swap2\n      pop\n      pop\n      jump\n        /* \"--CODEGEN--\":728:858   */\n    tag_303:\n      0x00\n        /* \"--CODEGEN--\":808:814   */\n      dup2\n        /* \"--CODEGEN--\":795:815   */\n      calldataload\n        /* \"--CODEGEN--\":786:815   */\n      swap1\n      pop\n        /* \"--CODEGEN--\":820:853   */\n      tag_305\n        /* \"--CODEGEN--\":847:852   */\n      dup2\n        /* \"--CODEGEN--\":820:853   */\n      jump(tag_306)\n    tag_305:\n        /* \"--CODEGEN--\":780:858   */\n      swap3\n      swap2\n      pop\n      pop\n      jump\n        /* \"--CODEGEN--\":865:999   */\n    tag_307:\n      0x00\n        /* \"--CODEGEN--\":949:955   */\n      dup2\n        /* \"--CODEGEN--\":943:956   */\n      mload\n        /* \"--CODEGEN--\":934:956   */\n      swap1\n      pop\n        /* \"--CODEGEN--\":961:994   */\n      tag_309\n        /* \"--CODEGEN--\":988:993   */\n      dup2\n        /* \"--CODEGEN--\":961:994   */\n      jump(tag_306)\n    tag_309:\n        /* \"--CODEGEN--\":928:999   */\n      swap3\n      swap2\n      pop\n      pop\n      jump\n        /* \"--CODEGEN--\":1006:1247   */\n    tag_76:\n      0x00\n        /* \"--CODEGEN--\":1110:1112   */\n      0x20\n        /* \"--CODEGEN--\":1098:1107   */\n      dup3\n        /* \"--CODEGEN--\":1089:1096   */\n      dup5\n        /* \"--CODEGEN--\":1085:1108   */\n      sub\n        /* \"--CODEGEN--\":1081:1113   */\n      slt\n        /* \"--CODEGEN--\":1078:1080   */\n      iszero\n      tag_311\n      jumpi\n        /* \"--CODEGEN--\":1126:1127   */\n      0x00\n        /* \"--CODEGEN--\":1123:1124   */\n      dup1\n        /* \"--CODEGEN--\":1116:1128   */\n      revert\n        /* \"--CODEGEN--\":1078:1080   */\n    tag_311:\n        /* \"--CODEGEN--\":1161:1162   */\n      0x00\n        /* \"--CODEGEN--\":1178:1231   */\n      tag_312\n        /* \"--CODEGEN--\":1223:1230   */\n      dup5\n        /* \"--CODEGEN--\":1214:1220   */\n      dup3\n        /* \"--CODEGEN--\":1203:1212   */\n      dup6\n        /* \"--CODEGEN--\":1199:1221   */\n      add\n        /* \"--CODEGEN--\":1178:1231   */\n      jump(tag_285)\n    tag_312:\n        /* \"--CODEGEN--\":1168:1231   */\n      swap2\n      pop\n        /* \"--CODEGEN--\":1140:1237   */\n      pop\n        /* \"--CODEGEN--\":1072:1247   */\n      swap3\n      swap2\n      pop\n      pop\n      jump\n        /* \"--CODEGEN--\":1254:1511   */\n    tag_135:\n      0x00\n        /* \"--CODEGEN--\":1366:1368   */\n      0x20\n        /* \"--CODEGEN--\":1354:1363   */\n      dup3\n        /* \"--CODEGEN--\":1345:1352   */\n      dup5\n        /* \"--CODEGEN--\":1341:1364   */\n      sub\n        /* \"--CODEGEN--\":1337:1369   */\n      slt\n        /* \"--CODEGEN--\":1334:1336   */\n      iszero\n      tag_314\n      jumpi\n        /* \"--CODEGEN--\":1382:1383   */\n      0x00\n        /* \"--CODEGEN--\":1379:1380   */\n      dup1\n        /* \"--CODEGEN--\":1372:1384   */\n      revert\n        /* \"--CODEGEN--\":1334:1336   */\n    tag_314:\n        /* \"--CODEGEN--\":1417:1418   */\n      0x00\n        /* \"--CODEGEN--\":1434:1495   */\n      tag_315\n        /* \"--CODEGEN--\":1487:1494   */\n      dup5\n        /* \"--CODEGEN--\":1478:1484   */\n      dup3\n        /* \"--CODEGEN--\":1467:1476   */\n      dup6\n        /* \"--CODEGEN--\":1463:1485   */\n      add\n        /* \"--CODEGEN--\":1434:1495   */\n      jump(tag_289)\n    tag_315:\n        /* \"--CODEGEN--\":1424:1495   */\n      swap2\n      pop\n        /* \"--CODEGEN--\":1396:1501   */\n      pop\n        /* \"--CODEGEN--\":1328:1511   */\n      swap3\n      swap2\n      pop\n      pop\n      jump\n        /* \"--CODEGEN--\":1518:1865   */\n    tag_32:\n      0x00\n        /* \"--CODEGEN--\":1632:1634   */\n      0x20\n        /* \"--CODEGEN--\":1620:1629   */\n      dup3\n        /* \"--CODEGEN--\":1611:1618   */\n      dup5\n        /* \"--CODEGEN--\":1607:1630   */\n      sub\n        /* \"--CODEGEN--\":1603:1635   */\n      slt\n        /* \"--CODEGEN--\":1600:1602   */\n      iszero\n      tag_317\n      jumpi\n        /* \"--CODEGEN--\":1648:1649   */\n      0x00\n        /* \"--CODEGEN--\":1645:1646   */\n      dup1\n        /* \"--CODEGEN--\":1638:1650   */\n      revert\n        /* \"--CODEGEN--\":1600:1602   */\n    tag_317:\n        /* \"--CODEGEN--\":1711:1712   */\n      0x00\n        /* \"--CODEGEN--\":1700:1709   */\n      dup3\n        /* \"--CODEGEN--\":1696:1713   */\n      add\n        /* \"--CODEGEN--\":1683:1714   */\n      calldataload\n        /* \"--CODEGEN--\":1734:1752   */\n      0xffffffffffffffff\n        /* \"--CODEGEN--\":1726:1732   */\n      dup2\n        /* \"--CODEGEN--\":1723:1753   */\n      gt\n        /* \"--CODEGEN--\":1720:1722   */\n      iszero\n      tag_318\n      jumpi\n        /* \"--CODEGEN--\":1766:1767   */\n      0x00\n        /* \"--CODEGEN--\":1763:1764   */\n      dup1\n        /* \"--CODEGEN--\":1756:1768   */\n      revert\n        /* \"--CODEGEN--\":1720:1722   */\n    tag_318:\n        /* \"--CODEGEN--\":1786:1849   */\n      tag_319\n        /* \"--CODEGEN--\":1841:1848   */\n      dup5\n        /* \"--CODEGEN--\":1832:1838   */\n      dup3\n        /* \"--CODEGEN--\":1821:1830   */\n      dup6\n        /* \"--CODEGEN--\":1817:1839   */\n      add\n        /* \"--CODEGEN--\":1786:1849   */\n      jump(tag_293)\n    tag_319:\n        /* \"--CODEGEN--\":1776:1849   */\n      swap2\n      pop\n        /* \"--CODEGEN--\":1662:1855   */\n      pop\n        /* \"--CODEGEN--\":1594:1865   */\n      swap3\n      swap2\n      pop\n      pop\n      jump\n        /* \"--CODEGEN--\":1872:2344   */\n    tag_45:\n      0x00\n      dup1\n        /* \"--CODEGEN--\":2003:2005   */\n      0x40\n        /* \"--CODEGEN--\":1991:2000   */\n      dup4\n        /* \"--CODEGEN--\":1982:1989   */\n      dup6\n        /* \"--CODEGEN--\":1978:2001   */\n      sub\n        /* \"--CODEGEN--\":1974:2006   */\n      slt\n        /* \"--CODEGEN--\":1971:1973   */\n      iszero\n      tag_321\n      jumpi\n        /* \"--CODEGEN--\":2019:2020   */\n      0x00\n        /* \"--CODEGEN--\":2016:2017   */\n      dup1\n        /* \"--CODEGEN--\":2009:2021   */\n      revert\n        /* \"--CODEGEN--\":1971:1973   */\n    tag_321:\n        /* \"--CODEGEN--\":2082:2083   */\n      0x00\n        /* \"--CODEGEN--\":2071:2080   */\n      dup4\n        /* \"--CODEGEN--\":2067:2084   */\n      add\n        /* \"--CODEGEN--\":2054:2085   */\n      calldataload\n        /* \"--CODEGEN--\":2105:2123   */\n      0xffffffffffffffff\n        /* \"--CODEGEN--\":2097:2103   */\n      dup2\n        /* \"--CODEGEN--\":2094:2124   */\n      gt\n        /* \"--CODEGEN--\":2091:2093   */\n      iszero\n      tag_322\n      jumpi\n        /* \"--CODEGEN--\":2137:2138   */\n      0x00\n        /* \"--CODEGEN--\":2134:2135   */\n      dup1\n        /* \"--CODEGEN--\":2127:2139   */\n      revert\n        /* \"--CODEGEN--\":2091:2093   */\n    tag_322:\n        /* \"--CODEGEN--\":2157:2220   */\n      tag_323\n        /* \"--CODEGEN--\":2212:2219   */\n      dup6\n        /* \"--CODEGEN--\":2203:2209   */\n      dup3\n        /* \"--CODEGEN--\":2192:2201   */\n      dup7\n        /* \"--CODEGEN--\":2188:2210   */\n      add\n        /* \"--CODEGEN--\":2157:2220   */\n      jump(tag_293)\n    tag_323:\n        /* \"--CODEGEN--\":2147:2220   */\n      swap3\n      pop\n        /* \"--CODEGEN--\":2033:2226   */\n      pop\n        /* \"--CODEGEN--\":2257:2259   */\n      0x20\n        /* \"--CODEGEN--\":2275:2328   */\n      tag_324\n        /* \"--CODEGEN--\":2320:2327   */\n      dup6\n        /* \"--CODEGEN--\":2311:2317   */\n      dup3\n        /* \"--CODEGEN--\":2300:2309   */\n      dup7\n        /* \"--CODEGEN--\":2296:2318   */\n      add\n        /* \"--CODEGEN--\":2275:2328   */\n      jump(tag_303)\n    tag_324:\n        /* \"--CODEGEN--\":2265:2328   */\n      swap2\n      pop\n        /* \"--CODEGEN--\":2236:2334   */\n      pop\n        /* \"--CODEGEN--\":1965:2344   */\n      swap3\n      pop\n      swap3\n      swap1\n      pop\n      jump\n        /* \"--CODEGEN--\":2351:2592   */\n    tag_27:\n      0x00\n        /* \"--CODEGEN--\":2455:2457   */\n      0x20\n        /* \"--CODEGEN--\":2443:2452   */\n      dup3\n        /* \"--CODEGEN--\":2434:2441   */\n      dup5\n        /* \"--CODEGEN--\":2430:2453   */\n      sub\n        /* \"--CODEGEN--\":2426:2458   */\n      slt\n        /* \"--CODEGEN--\":2423:2425   */\n      iszero\n      tag_326\n      jumpi\n        /* \"--CODEGEN--\":2471:2472   */\n      0x00\n        /* \"--CODEGEN--\":2468:2469   */\n      dup1\n        /* \"--CODEGEN--\":2461:2473   */\n      revert\n        /* \"--CODEGEN--\":2423:2425   */\n    tag_326:\n        /* \"--CODEGEN--\":2506:2507   */\n      0x00\n        /* \"--CODEGEN--\":2523:2576   */\n      tag_327\n        /* \"--CODEGEN--\":2568:2575   */\n      dup5\n        /* \"--CODEGEN--\":2559:2565   */\n      dup3\n        /* \"--CODEGEN--\":2548:2557   */\n      dup6\n        /* \"--CODEGEN--\":2544:2566   */\n      add\n        /* \"--CODEGEN--\":2523:2576   */\n      jump(tag_303)\n    tag_327:\n        /* \"--CODEGEN--\":2513:2576   */\n      swap2\n      pop\n        /* \"--CODEGEN--\":2485:2582   */\n      pop\n        /* \"--CODEGEN--\":2417:2592   */\n      swap3\n      swap2\n      pop\n      pop\n      jump\n        /* \"--CODEGEN--\":2599:2862   */\n    tag_207:\n      0x00\n        /* \"--CODEGEN--\":2714:2716   */\n      0x20\n        /* \"--CODEGEN--\":2702:2711   */\n      dup3\n        /* \"--CODEGEN--\":2693:2700   */\n      dup5\n        /* \"--CODEGEN--\":2689:2712   */\n      sub\n        /* \"--CODEGEN--\":2685:2717   */\n      slt\n        /* \"--CODEGEN--\":2682:2684   */\n      iszero\n      tag_329\n      jumpi\n        /* \"--CODEGEN--\":2730:2731   */\n      0x00\n        /* \"--CODEGEN--\":2727:2728   */\n      dup1\n        /* \"--CODEGEN--\":2720:2732   */\n      revert\n        /* \"--CODEGEN--\":2682:2684   */\n    tag_329:\n        /* \"--CODEGEN--\":2765:2766   */\n      0x00\n        /* \"--CODEGEN--\":2782:2846   */\n      tag_330\n        /* \"--CODEGEN--\":2838:2845   */\n      dup5\n        /* \"--CODEGEN--\":2829:2835   */\n      dup3\n        /* \"--CODEGEN--\":2818:2827   */\n      dup6\n        /* \"--CODEGEN--\":2814:2836   */\n      add\n        /* \"--CODEGEN--\":2782:2846   */\n      jump(tag_307)\n    tag_330:\n        /* \"--CODEGEN--\":2772:2846   */\n      swap2\n      pop\n        /* \"--CODEGEN--\":2744:2852   */\n      pop\n        /* \"--CODEGEN--\":2676:2862   */\n      swap3\n      swap2\n      pop\n      pop\n      jump\n        /* \"--CODEGEN--\":2870:3063   */\n    tag_331:\n      0x00\n        /* \"--CODEGEN--\":2991:3057   */\n      tag_333\n        /* \"--CODEGEN--\":3053:3056   */\n      dup4\n        /* \"--CODEGEN--\":3045:3051   */\n      dup4\n        /* \"--CODEGEN--\":2991:3057   */\n      jump(tag_334)\n    tag_333:\n        /* \"--CODEGEN--\":2977:3057   */\n      swap1\n      pop\n        /* \"--CODEGEN--\":2970:3063   */\n      swap3\n      swap2\n      pop\n      pop\n      jump\n        /* \"--CODEGEN--\":3071:3213   */\n    tag_335:\n        /* \"--CODEGEN--\":3162:3207   */\n      tag_337\n        /* \"--CODEGEN--\":3201:3206   */\n      dup2\n        /* \"--CODEGEN--\":3162:3207   */\n      jump(tag_338)\n    tag_337:\n        /* \"--CODEGEN--\":3157:3160   */\n      dup3\n        /* \"--CODEGEN--\":3150:3208   */\n      mstore\n        /* \"--CODEGEN--\":3144:3213   */\n      pop\n      pop\n      jump\n        /* \"--CODEGEN--\":3220:3357   */\n    tag_339:\n        /* \"--CODEGEN--\":3319:3351   */\n      tag_341\n        /* \"--CODEGEN--\":3345:3350   */\n      dup2\n        /* \"--CODEGEN--\":3319:3351   */\n      jump(tag_342)\n    tag_341:\n        /* \"--CODEGEN--\":3314:3317   */\n      dup3\n        /* \"--CODEGEN--\":3307:3352   */\n      mstore\n        /* \"--CODEGEN--\":3301:3357   */\n      pop\n      pop\n      jump\n        /* \"--CODEGEN--\":3364:3477   */\n    tag_343:\n        /* \"--CODEGEN--\":3447:3471   */\n      tag_345\n        /* \"--CODEGEN--\":3465:3470   */\n      dup2\n        /* \"--CODEGEN--\":3447:3471   */\n      jump(tag_346)\n    tag_345:\n        /* \"--CODEGEN--\":3442:3445   */\n      dup3\n        /* \"--CODEGEN--\":3435:3472   */\n      mstore\n        /* \"--CODEGEN--\":3429:3477   */\n      pop\n      pop\n      jump\n        /* \"--CODEGEN--\":3513:4441   */\n    tag_347:\n      0x00\n        /* \"--CODEGEN--\":3678:3742   */\n      tag_349\n        /* \"--CODEGEN--\":3736:3741   */\n      dup3\n        /* \"--CODEGEN--\":3678:3742   */\n      jump(tag_350)\n    tag_349:\n        /* \"--CODEGEN--\":3755:3851   */\n      tag_351\n        /* \"--CODEGEN--\":3844:3850   */\n      dup2\n        /* \"--CODEGEN--\":3839:3842   */\n      dup6\n        /* \"--CODEGEN--\":3755:3851   */\n      jump(tag_352)\n    tag_351:\n        /* \"--CODEGEN--\":3748:3851   */\n      swap4\n      pop\n        /* \"--CODEGEN--\":3874:3877   */\n      dup4\n        /* \"--CODEGEN--\":3916:3920   */\n      0x20\n        /* \"--CODEGEN--\":3908:3914   */\n      dup3\n        /* \"--CODEGEN--\":3904:3921   */\n      mul\n        /* \"--CODEGEN--\":3899:3902   */\n      dup6\n        /* \"--CODEGEN--\":3895:3922   */\n      add\n        /* \"--CODEGEN--\":3943:4009   */\n      tag_353\n        /* \"--CODEGEN--\":4003:4008   */\n      dup6\n        /* \"--CODEGEN--\":3943:4009   */\n      jump(tag_354)\n    tag_353:\n        /* \"--CODEGEN--\":4029:4036   */\n      dup1\n        /* \"--CODEGEN--\":4057:4058   */\n      0x00\n        /* \"--CODEGEN--\":4042:4402   */\n    tag_355:\n        /* \"--CODEGEN--\":4067:4073   */\n      dup6\n        /* \"--CODEGEN--\":4064:4065   */\n      dup2\n        /* \"--CODEGEN--\":4061:4074   */\n      lt\n        /* \"--CODEGEN--\":4042:4402   */\n      iszero\n      tag_357\n      jumpi\n        /* \"--CODEGEN--\":4129:4138   */\n      dup5\n        /* \"--CODEGEN--\":4123:4127   */\n      dup5\n        /* \"--CODEGEN--\":4119:4139   */\n      sub\n        /* \"--CODEGEN--\":4114:4117   */\n      dup10\n        /* \"--CODEGEN--\":4107:4140   */\n      mstore\n        /* \"--CODEGEN--\":4174:4180   */\n      dup2\n        /* \"--CODEGEN--\":4168:4181   */\n      mload\n        /* \"--CODEGEN--\":4196:4280   */\n      tag_358\n        /* \"--CODEGEN--\":4275:4279   */\n      dup6\n        /* \"--CODEGEN--\":4260:4273   */\n      dup3\n        /* \"--CODEGEN--\":4196:4280   */\n      jump(tag_331)\n    tag_358:\n        /* \"--CODEGEN--\":4188:4280   */\n      swap5\n      pop\n        /* \"--CODEGEN--\":4297:4367   */\n      tag_359\n        /* \"--CODEGEN--\":4360:4366   */\n      dup4\n        /* \"--CODEGEN--\":4297:4367   */\n      jump(tag_360)\n    tag_359:\n        /* \"--CODEGEN--\":4287:4367   */\n      swap3\n      pop\n        /* \"--CODEGEN--\":4390:4394   */\n      0x20\n        /* \"--CODEGEN--\":4385:4388   */\n      dup11\n        /* \"--CODEGEN--\":4381:4395   */\n      add\n        /* \"--CODEGEN--\":4374:4395   */\n      swap10\n      pop\n        /* \"--CODEGEN--\":4099:4402   */\n      pop\n        /* \"--CODEGEN--\":4089:4090   */\n      0x01\n        /* \"--CODEGEN--\":4086:4087   */\n      dup2\n        /* \"--CODEGEN--\":4082:4091   */\n      add\n        /* \"--CODEGEN--\":4077:4091   */\n      swap1\n      pop\n        /* \"--CODEGEN--\":4042:4402   */\n      jump(tag_355)\n    tag_357:\n        /* \"--CODEGEN--\":4046:4060   */\n      pop\n        /* \"--CODEGEN--\":4415:4419   */\n      dup3\n        /* \"--CODEGEN--\":4408:4419   */\n      swap8\n      pop\n        /* \"--CODEGEN--\":4432:4435   */\n      dup8\n        /* \"--CODEGEN--\":4425:4435   */\n      swap6\n      pop\n        /* \"--CODEGEN--\":3657:4441   */\n      pop\n      pop\n      pop\n      pop\n      pop\n      swap3\n      swap2\n      pop\n      pop\n      jump\n        /* \"--CODEGEN--\":4449:4553   */\n    tag_361:\n        /* \"--CODEGEN--\":4526:4547   */\n      tag_363\n        /* \"--CODEGEN--\":4541:4546   */\n      dup2\n        /* \"--CODEGEN--\":4526:4547   */\n      jump(tag_364)\n    tag_363:\n        /* \"--CODEGEN--\":4521:4524   */\n      dup3\n        /* \"--CODEGEN--\":4514:4548   */\n      mstore\n        /* \"--CODEGEN--\":4508:4553   */\n      pop\n      pop\n      jump\n        /* \"--CODEGEN--\":4560:4887   */\n    tag_334:\n      0x00\n        /* \"--CODEGEN--\":4662:4701   */\n      tag_366\n        /* \"--CODEGEN--\":4695:4700   */\n      dup3\n        /* \"--CODEGEN--\":4662:4701   */\n      jump(tag_367)\n    tag_366:\n        /* \"--CODEGEN--\":4713:4774   */\n      tag_368\n        /* \"--CODEGEN--\":4767:4773   */\n      dup2\n        /* \"--CODEGEN--\":4762:4765   */\n      dup6\n        /* \"--CODEGEN--\":4713:4774   */\n      jump(tag_369)\n    tag_368:\n        /* \"--CODEGEN--\":4706:4774   */\n      swap4\n      pop\n        /* \"--CODEGEN--\":4779:4831   */\n      tag_370\n        /* \"--CODEGEN--\":4824:4830   */\n      dup2\n        /* \"--CODEGEN--\":4819:4822   */\n      dup6\n        /* \"--CODEGEN--\":4812:4816   */\n      0x20\n        /* \"--CODEGEN--\":4805:4810   */\n      dup7\n        /* \"--CODEGEN--\":4801:4817   */\n      add\n        /* \"--CODEGEN--\":4779:4831   */\n      jump(tag_371)\n    tag_370:\n        /* \"--CODEGEN--\":4852:4881   */\n      tag_372\n        /* \"--CODEGEN--\":4874:4880   */\n      dup2\n        /* \"--CODEGEN--\":4852:4881   */\n      jump(tag_373)\n    tag_372:\n        /* \"--CODEGEN--\":4847:4850   */\n      dup5\n        /* \"--CODEGEN--\":4843:4882   */\n      add\n        /* \"--CODEGEN--\":4836:4882   */\n      swap2\n      pop\n        /* \"--CODEGEN--\":4642:4887   */\n      pop\n      swap3\n      swap2\n      pop\n      pop\n      jump\n        /* \"--CODEGEN--\":4894:5241   */\n    tag_374:\n      0x00\n        /* \"--CODEGEN--\":5006:5045   */\n      tag_376\n        /* \"--CODEGEN--\":5039:5044   */\n      dup3\n        /* \"--CODEGEN--\":5006:5045   */\n      jump(tag_367)\n    tag_376:\n        /* \"--CODEGEN--\":5057:5128   */\n      tag_377\n        /* \"--CODEGEN--\":5121:5127   */\n      dup2\n        /* \"--CODEGEN--\":5116:5119   */\n      dup6\n        /* \"--CODEGEN--\":5057:5128   */\n      jump(tag_378)\n    tag_377:\n        /* \"--CODEGEN--\":5050:5128   */\n      swap4\n      pop\n        /* \"--CODEGEN--\":5133:5185   */\n      tag_379\n        /* \"--CODEGEN--\":5178:5184   */\n      dup2\n        /* \"--CODEGEN--\":5173:5176   */\n      dup6\n        /* \"--CODEGEN--\":5166:5170   */\n      0x20\n        /* \"--CODEGEN--\":5159:5164   */\n      dup7\n        /* \"--CODEGEN--\":5155:5171   */\n      add\n        /* \"--CODEGEN--\":5133:5185   */\n      jump(tag_371)\n    tag_379:\n        /* \"--CODEGEN--\":5206:5235   */\n      tag_380\n        /* \"--CODEGEN--\":5228:5234   */\n      dup2\n        /* \"--CODEGEN--\":5206:5235   */\n      jump(tag_373)\n    tag_380:\n        /* \"--CODEGEN--\":5201:5204   */\n      dup5\n        /* \"--CODEGEN--\":5197:5236   */\n      add\n        /* \"--CODEGEN--\":5190:5236   */\n      swap2\n      pop\n        /* \"--CODEGEN--\":4986:5241   */\n      pop\n      swap3\n      swap2\n      pop\n      pop\n      jump\n        /* \"--CODEGEN--\":5248:5608   */\n    tag_381:\n      0x00\n        /* \"--CODEGEN--\":5378:5417   */\n      tag_383\n        /* \"--CODEGEN--\":5411:5416   */\n      dup3\n        /* \"--CODEGEN--\":5378:5417   */\n      jump(tag_367)\n    tag_383:\n        /* \"--CODEGEN--\":5429:5518   */\n      tag_384\n        /* \"--CODEGEN--\":5511:5517   */\n      dup2\n        /* \"--CODEGEN--\":5506:5509   */\n      dup6\n        /* \"--CODEGEN--\":5429:5518   */\n      jump(tag_385)\n    tag_384:\n        /* \"--CODEGEN--\":5422:5518   */\n      swap4\n      pop\n        /* \"--CODEGEN--\":5523:5575   */\n      tag_386\n        /* \"--CODEGEN--\":5568:5574   */\n      dup2\n        /* \"--CODEGEN--\":5563:5566   */\n      dup6\n        /* \"--CODEGEN--\":5556:5560   */\n      0x20\n        /* \"--CODEGEN--\":5549:5554   */\n      dup7\n        /* \"--CODEGEN--\":5545:5561   */\n      add\n        /* \"--CODEGEN--\":5523:5575   */\n      jump(tag_371)\n    tag_386:\n        /* \"--CODEGEN--\":5596:5602   */\n      dup1\n        /* \"--CODEGEN--\":5591:5594   */\n      dup5\n        /* \"--CODEGEN--\":5587:5603   */\n      add\n        /* \"--CODEGEN--\":5580:5603   */\n      swap2\n      pop\n        /* \"--CODEGEN--\":5358:5608   */\n      pop\n      swap3\n      swap2\n      pop\n      pop\n      jump\n        /* \"--CODEGEN--\":5616:6000   */\n    tag_387:\n      0x00\n        /* \"--CODEGEN--\":5776:5843   */\n      tag_389\n        /* \"--CODEGEN--\":5840:5842   */\n      0x2f\n        /* \"--CODEGEN--\":5835:5838   */\n      dup4\n        /* \"--CODEGEN--\":5776:5843   */\n      jump(tag_378)\n    tag_389:\n        /* \"--CODEGEN--\":5769:5843   */\n      swap2\n      pop\n        /* \"--CODEGEN--\":5876:5910   */\n      0x4c6120636f6d696461206e6f206573746120646973706f6e69626c6520656e20\n        /* \"--CODEGEN--\":5872:5873   */\n      0x00\n        /* \"--CODEGEN--\":5867:5870   */\n      dup4\n        /* \"--CODEGEN--\":5863:5874   */\n      add\n        /* \"--CODEGEN--\":5856:5911   */\n      mstore\n        /* \"--CODEGEN--\":5945:5962   */\n      0x6573746f73206d6f6d656e746f732e0000000000000000000000000000000000\n        /* \"--CODEGEN--\":5940:5942   */\n      0x20\n        /* \"--CODEGEN--\":5935:5938   */\n      dup4\n        /* \"--CODEGEN--\":5931:5943   */\n      add\n        /* \"--CODEGEN--\":5924:5963   */\n      mstore\n        /* \"--CODEGEN--\":5991:5993   */\n      0x40\n        /* \"--CODEGEN--\":5986:5989   */\n      dup3\n        /* \"--CODEGEN--\":5982:5994   */\n      add\n        /* \"--CODEGEN--\":5975:5994   */\n      swap1\n      pop\n        /* \"--CODEGEN--\":5762:6000   */\n      swap2\n      swap1\n      pop\n      jump\n        /* \"--CODEGEN--\":6009:6397   */\n    tag_390:\n      0x00\n        /* \"--CODEGEN--\":6169:6236   */\n      tag_392\n        /* \"--CODEGEN--\":6233:6235   */\n      0x33\n        /* \"--CODEGEN--\":6228:6231   */\n      dup4\n        /* \"--CODEGEN--\":6169:6236   */\n      jump(tag_378)\n    tag_392:\n        /* \"--CODEGEN--\":6162:6236   */\n      swap2\n      pop\n        /* \"--CODEGEN--\":6269:6303   */\n      0x4e6563657369746173206465766f6c76657220756e612063616e746964616420\n        /* \"--CODEGEN--\":6265:6266   */\n      0x00\n        /* \"--CODEGEN--\":6260:6263   */\n      dup4\n        /* \"--CODEGEN--\":6256:6267   */\n      add\n        /* \"--CODEGEN--\":6249:6304   */\n      mstore\n        /* \"--CODEGEN--\":6338:6359   */\n      0x706f73697469766120646520746f6b656e732e00000000000000000000000000\n        /* \"--CODEGEN--\":6333:6335   */\n      0x20\n        /* \"--CODEGEN--\":6328:6331   */\n      dup4\n        /* \"--CODEGEN--\":6324:6336   */\n      add\n        /* \"--CODEGEN--\":6317:6360   */\n      mstore\n        /* \"--CODEGEN--\":6388:6390   */\n      0x40\n        /* \"--CODEGEN--\":6383:6386   */\n      dup3\n        /* \"--CODEGEN--\":6379:6391   */\n      add\n        /* \"--CODEGEN--\":6372:6391   */\n      swap1\n      pop\n        /* \"--CODEGEN--\":6155:6397   */\n      swap2\n      swap1\n      pop\n      jump\n        /* \"--CODEGEN--\":6406:6784   */\n    tag_393:\n      0x00\n        /* \"--CODEGEN--\":6566:6633   */\n      tag_395\n        /* \"--CODEGEN--\":6630:6632   */\n      0x29\n        /* \"--CODEGEN--\":6625:6628   */\n      dup4\n        /* \"--CODEGEN--\":6566:6633   */\n      jump(tag_378)\n    tag_395:\n        /* \"--CODEGEN--\":6559:6633   */\n      swap2\n      pop\n        /* \"--CODEGEN--\":6666:6700   */\n      0x4e6f207469656e6573206c6f7320746f6b656e73207175652064657365617320\n        /* \"--CODEGEN--\":6662:6663   */\n      0x00\n        /* \"--CODEGEN--\":6657:6660   */\n      dup4\n        /* \"--CODEGEN--\":6653:6664   */\n      add\n        /* \"--CODEGEN--\":6646:6701   */\n      mstore\n        /* \"--CODEGEN--\":6735:6746   */\n      0x6465766f6c7665722e0000000000000000000000000000000000000000000000\n        /* \"--CODEGEN--\":6730:6732   */\n      0x20\n        /* \"--CODEGEN--\":6725:6728   */\n      dup4\n        /* \"--CODEGEN--\":6721:6733   */\n      add\n        /* \"--CODEGEN--\":6714:6747   */\n      mstore\n        /* \"--CODEGEN--\":6775:6777   */\n      0x40\n        /* \"--CODEGEN--\":6770:6773   */\n      dup3\n        /* \"--CODEGEN--\":6766:6778   */\n      add\n        /* \"--CODEGEN--\":6759:6778   */\n      swap1\n      pop\n        /* \"--CODEGEN--\":6552:6784   */\n      swap2\n      swap1\n      pop\n      jump\n        /* \"--CODEGEN--\":6793:7174   */\n    tag_396:\n      0x00\n        /* \"--CODEGEN--\":6953:7020   */\n      tag_398\n        /* \"--CODEGEN--\":7017:7019   */\n      0x2c\n        /* \"--CODEGEN--\":7012:7015   */\n      dup4\n        /* \"--CODEGEN--\":6953:7020   */\n      jump(tag_378)\n    tag_398:\n        /* \"--CODEGEN--\":6946:7020   */\n      swap2\n      pop\n        /* \"--CODEGEN--\":7053:7087   */\n      0x4e6563657369746173206d617320546f6b656e73207061726120636f6d657220\n        /* \"--CODEGEN--\":7049:7050   */\n      0x00\n        /* \"--CODEGEN--\":7044:7047   */\n      dup4\n        /* \"--CODEGEN--\":7040:7051   */\n      add\n        /* \"--CODEGEN--\":7033:7088   */\n      mstore\n        /* \"--CODEGEN--\":7122:7136   */\n      0x6573746120636f6d6964612e0000000000000000000000000000000000000000\n        /* \"--CODEGEN--\":7117:7119   */\n      0x20\n        /* \"--CODEGEN--\":7112:7115   */\n      dup4\n        /* \"--CODEGEN--\":7108:7120   */\n      add\n        /* \"--CODEGEN--\":7101:7137   */\n      mstore\n        /* \"--CODEGEN--\":7165:7167   */\n      0x40\n        /* \"--CODEGEN--\":7160:7163   */\n      dup3\n        /* \"--CODEGEN--\":7156:7168   */\n      add\n        /* \"--CODEGEN--\":7149:7168   */\n      swap1\n      pop\n        /* \"--CODEGEN--\":6939:7174   */\n      swap2\n      swap1\n      pop\n      jump\n        /* \"--CODEGEN--\":7183:7570   */\n    tag_399:\n      0x00\n        /* \"--CODEGEN--\":7343:7410   */\n      tag_401\n        /* \"--CODEGEN--\":7407:7409   */\n      0x32\n        /* \"--CODEGEN--\":7402:7405   */\n      dup4\n        /* \"--CODEGEN--\":7343:7410   */\n      jump(tag_378)\n    tag_401:\n        /* \"--CODEGEN--\":7336:7410   */\n      swap2\n      pop\n        /* \"--CODEGEN--\":7443:7477   */\n      0x4c6120617472616363696f6e206e6f206573746120646973706f6e69626c6520\n        /* \"--CODEGEN--\":7439:7440   */\n      0x00\n        /* \"--CODEGEN--\":7434:7437   */\n      dup4\n        /* \"--CODEGEN--\":7430:7441   */\n      add\n        /* \"--CODEGEN--\":7423:7478   */\n      mstore\n        /* \"--CODEGEN--\":7512:7532   */\n      0x656e206573746f73206d6f6d656e746f732e0000000000000000000000000000\n        /* \"--CODEGEN--\":7507:7509   */\n      0x20\n        /* \"--CODEGEN--\":7502:7505   */\n      dup4\n        /* \"--CODEGEN--\":7498:7510   */\n      add\n        /* \"--CODEGEN--\":7491:7533   */\n      mstore\n        /* \"--CODEGEN--\":7561:7563   */\n      0x40\n        /* \"--CODEGEN--\":7556:7559   */\n      dup3\n        /* \"--CODEGEN--\":7552:7564   */\n      add\n        /* \"--CODEGEN--\":7545:7564   */\n      swap1\n      pop\n        /* \"--CODEGEN--\":7329:7570   */\n      swap2\n      swap1\n      pop\n      jump\n        /* \"--CODEGEN--\":7579:7962   */\n    tag_402:\n      0x00\n        /* \"--CODEGEN--\":7739:7806   */\n      tag_404\n        /* \"--CODEGEN--\":7803:7805   */\n      0x2e\n        /* \"--CODEGEN--\":7798:7801   */\n      dup4\n        /* \"--CODEGEN--\":7739:7806   */\n      jump(tag_378)\n    tag_404:\n        /* \"--CODEGEN--\":7732:7806   */\n      swap2\n      pop\n        /* \"--CODEGEN--\":7839:7873   */\n      0x4e6f207469656e6573207065726d69736f73207061726120656a656375746172\n        /* \"--CODEGEN--\":7835:7836   */\n      0x00\n        /* \"--CODEGEN--\":7830:7833   */\n      dup4\n        /* \"--CODEGEN--\":7826:7837   */\n      add\n        /* \"--CODEGEN--\":7819:7874   */\n      mstore\n        /* \"--CODEGEN--\":7908:7924   */\n      0x20657374612066756e63696f6e2e000000000000000000000000000000000000\n        /* \"--CODEGEN--\":7903:7905   */\n      0x20\n        /* \"--CODEGEN--\":7898:7901   */\n      dup4\n        /* \"--CODEGEN--\":7894:7906   */\n      add\n        /* \"--CODEGEN--\":7887:7925   */\n      mstore\n        /* \"--CODEGEN--\":7953:7955   */\n      0x40\n        /* \"--CODEGEN--\":7948:7951   */\n      dup3\n        /* \"--CODEGEN--\":7944:7956   */\n      add\n        /* \"--CODEGEN--\":7937:7956   */\n      swap1\n      pop\n        /* \"--CODEGEN--\":7725:7962   */\n      swap2\n      swap1\n      pop\n      jump\n        /* \"--CODEGEN--\":7971:8350   */\n    tag_405:\n      0x00\n        /* \"--CODEGEN--\":8131:8198   */\n      tag_407\n        /* \"--CODEGEN--\":8195:8197   */\n      0x2a\n        /* \"--CODEGEN--\":8190:8193   */\n      dup4\n        /* \"--CODEGEN--\":8131:8198   */\n      jump(tag_378)\n    tag_407:\n        /* \"--CODEGEN--\":8124:8198   */\n      swap2\n      pop\n        /* \"--CODEGEN--\":8231:8265   */\n      0x436f6d707261206d656e6f7320546f6b656e73206f207061676120636f6e206d\n        /* \"--CODEGEN--\":8227:8228   */\n      0x00\n        /* \"--CODEGEN--\":8222:8225   */\n      dup4\n        /* \"--CODEGEN--\":8218:8229   */\n      add\n        /* \"--CODEGEN--\":8211:8266   */\n      mstore\n        /* \"--CODEGEN--\":8300:8312   */\n      0x6173206574686572732e00000000000000000000000000000000000000000000\n        /* \"--CODEGEN--\":8295:8297   */\n      0x20\n        /* \"--CODEGEN--\":8290:8293   */\n      dup4\n        /* \"--CODEGEN--\":8286:8298   */\n      add\n        /* \"--CODEGEN--\":8279:8313   */\n      mstore\n        /* \"--CODEGEN--\":8341:8343   */\n      0x40\n        /* \"--CODEGEN--\":8336:8339   */\n      dup3\n        /* \"--CODEGEN--\":8332:8344   */\n      add\n        /* \"--CODEGEN--\":8325:8344   */\n      swap1\n      pop\n        /* \"--CODEGEN--\":8117:8350   */\n      swap2\n      swap1\n      pop\n      jump\n        /* \"--CODEGEN--\":8359:8691   */\n    tag_408:\n      0x00\n        /* \"--CODEGEN--\":8519:8586   */\n      tag_410\n        /* \"--CODEGEN--\":8583:8585   */\n      0x20\n        /* \"--CODEGEN--\":8578:8581   */\n      dup4\n        /* \"--CODEGEN--\":8519:8586   */\n      jump(tag_378)\n    tag_410:\n        /* \"--CODEGEN--\":8512:8586   */\n      swap2\n      pop\n        /* \"--CODEGEN--\":8619:8653   */\n      0x436f6d70726120756e206e756d65726f206d656e6f7220646520546f6b656e73\n        /* \"--CODEGEN--\":8615:8616   */\n      0x00\n        /* \"--CODEGEN--\":8610:8613   */\n      dup4\n        /* \"--CODEGEN--\":8606:8617   */\n      add\n        /* \"--CODEGEN--\":8599:8654   */\n      mstore\n        /* \"--CODEGEN--\":8682:8684   */\n      0x20\n        /* \"--CODEGEN--\":8677:8680   */\n      dup3\n        /* \"--CODEGEN--\":8673:8685   */\n      add\n        /* \"--CODEGEN--\":8666:8685   */\n      swap1\n      pop\n        /* \"--CODEGEN--\":8505:8691   */\n      swap2\n      swap1\n      pop\n      jump\n        /* \"--CODEGEN--\":8700:9088   */\n    tag_411:\n      0x00\n        /* \"--CODEGEN--\":8860:8927   */\n      tag_413\n        /* \"--CODEGEN--\":8924:8926   */\n      0x33\n        /* \"--CODEGEN--\":8919:8922   */\n      dup4\n        /* \"--CODEGEN--\":8860:8927   */\n      jump(tag_378)\n    tag_413:\n        /* \"--CODEGEN--\":8853:8927   */\n      swap2\n      pop\n        /* \"--CODEGEN--\":8960:8994   */\n      0x4e6563657369746173206d617320546f6b656e73207061726120737562697274\n        /* \"--CODEGEN--\":8956:8957   */\n      0x00\n        /* \"--CODEGEN--\":8951:8954   */\n      dup4\n        /* \"--CODEGEN--\":8947:8958   */\n      add\n        /* \"--CODEGEN--\":8940:8995   */\n      mstore\n        /* \"--CODEGEN--\":9029:9050   */\n      0x652061206573746120617472616363696f6e2e00000000000000000000000000\n        /* \"--CODEGEN--\":9024:9026   */\n      0x20\n        /* \"--CODEGEN--\":9019:9022   */\n      dup4\n        /* \"--CODEGEN--\":9015:9027   */\n      add\n        /* \"--CODEGEN--\":9008:9051   */\n      mstore\n        /* \"--CODEGEN--\":9079:9081   */\n      0x40\n        /* \"--CODEGEN--\":9074:9077   */\n      dup3\n        /* \"--CODEGEN--\":9070:9082   */\n      add\n        /* \"--CODEGEN--\":9063:9082   */\n      swap1\n      pop\n        /* \"--CODEGEN--\":8846:9088   */\n      swap2\n      swap1\n      pop\n      jump\n        /* \"--CODEGEN--\":9096:9209   */\n    tag_414:\n        /* \"--CODEGEN--\":9179:9203   */\n      tag_416\n        /* \"--CODEGEN--\":9197:9202   */\n      dup2\n        /* \"--CODEGEN--\":9179:9203   */\n      jump(tag_417)\n    tag_416:\n        /* \"--CODEGEN--\":9174:9177   */\n      dup3\n        /* \"--CODEGEN--\":9167:9204   */\n      mstore\n        /* \"--CODEGEN--\":9161:9209   */\n      pop\n      pop\n      jump\n        /* \"--CODEGEN--\":9216:9482   */\n    tag_120:\n      0x00\n        /* \"--CODEGEN--\":9362:9457   */\n      tag_419\n        /* \"--CODEGEN--\":9453:9456   */\n      dup3\n        /* \"--CODEGEN--\":9444:9450   */\n      dup5\n        /* \"--CODEGEN--\":9362:9457   */\n      jump(tag_381)\n    tag_419:\n        /* \"--CODEGEN--\":9355:9457   */\n      swap2\n      pop\n        /* \"--CODEGEN--\":9474:9477   */\n      dup2\n        /* \"--CODEGEN--\":9467:9477   */\n      swap1\n      pop\n        /* \"--CODEGEN--\":9343:9482   */\n      swap3\n      swap2\n      pop\n      pop\n      jump\n        /* \"--CODEGEN--\":9489:9702   */\n    tag_202:\n      0x00\n        /* \"--CODEGEN--\":9607:9609   */\n      0x20\n        /* \"--CODEGEN--\":9596:9605   */\n      dup3\n        /* \"--CODEGEN--\":9592:9610   */\n      add\n        /* \"--CODEGEN--\":9584:9610   */\n      swap1\n      pop\n        /* \"--CODEGEN--\":9621:9692   */\n      tag_421\n        /* \"--CODEGEN--\":9689:9690   */\n      0x00\n        /* \"--CODEGEN--\":9678:9687   */\n      dup4\n        /* \"--CODEGEN--\":9674:9691   */\n      add\n        /* \"--CODEGEN--\":9665:9671   */\n      dup5\n        /* \"--CODEGEN--\":9621:9692   */\n      jump(tag_343)\n    tag_421:\n        /* \"--CODEGEN--\":9578:9702   */\n      swap3\n      swap2\n      pop\n      pop\n      jump\n        /* \"--CODEGEN--\":9709:9938   */\n    tag_243:\n      0x00\n        /* \"--CODEGEN--\":9835:9837   */\n      0x20\n        /* \"--CODEGEN--\":9824:9833   */\n      dup3\n        /* \"--CODEGEN--\":9820:9838   */\n      add\n        /* \"--CODEGEN--\":9812:9838   */\n      swap1\n      pop\n        /* \"--CODEGEN--\":9849:9928   */\n      tag_423\n        /* \"--CODEGEN--\":9925:9926   */\n      0x00\n        /* \"--CODEGEN--\":9914:9923   */\n      dup4\n        /* \"--CODEGEN--\":9910:9927   */\n      add\n        /* \"--CODEGEN--\":9901:9907   */\n      dup5\n        /* \"--CODEGEN--\":9849:9928   */\n      jump(tag_335)\n    tag_423:\n        /* \"--CODEGEN--\":9806:9938   */\n      swap3\n      swap2\n      pop\n      pop\n      jump\n        /* \"--CODEGEN--\":9945:10190   */\n    tag_64:\n      0x00\n        /* \"--CODEGEN--\":10079:10081   */\n      0x20\n        /* \"--CODEGEN--\":10068:10077   */\n      dup3\n        /* \"--CODEGEN--\":10064:10082   */\n      add\n        /* \"--CODEGEN--\":10056:10082   */\n      swap1\n      pop\n        /* \"--CODEGEN--\":10093:10180   */\n      tag_425\n        /* \"--CODEGEN--\":10177:10178   */\n      0x00\n        /* \"--CODEGEN--\":10166:10175   */\n      dup4\n        /* \"--CODEGEN--\":10162:10179   */\n      add\n        /* \"--CODEGEN--\":10153:10159   */\n      dup5\n        /* \"--CODEGEN--\":10093:10180   */\n      jump(tag_339)\n    tag_425:\n        /* \"--CODEGEN--\":10050:10190   */\n      swap3\n      swap2\n      pop\n      pop\n      jump\n        /* \"--CODEGEN--\":10197:10648   */\n    tag_130:\n      0x00\n        /* \"--CODEGEN--\":10379:10381   */\n      0x60\n        /* \"--CODEGEN--\":10368:10377   */\n      dup3\n        /* \"--CODEGEN--\":10364:10382   */\n      add\n        /* \"--CODEGEN--\":10356:10382   */\n      swap1\n      pop\n        /* \"--CODEGEN--\":10393:10472   */\n      tag_427\n        /* \"--CODEGEN--\":10469:10470   */\n      0x00\n        /* \"--CODEGEN--\":10458:10467   */\n      dup4\n        /* \"--CODEGEN--\":10454:10471   */\n      add\n        /* \"--CODEGEN--\":10445:10451   */\n      dup7\n        /* \"--CODEGEN--\":10393:10472   */\n      jump(tag_335)\n    tag_427:\n        /* \"--CODEGEN--\":10483:10555   */\n      tag_428\n        /* \"--CODEGEN--\":10551:10553   */\n      0x20\n        /* \"--CODEGEN--\":10540:10549   */\n      dup4\n        /* \"--CODEGEN--\":10536:10554   */\n      add\n        /* \"--CODEGEN--\":10527:10533   */\n      dup6\n        /* \"--CODEGEN--\":10483:10555   */\n      jump(tag_343)\n    tag_428:\n        /* \"--CODEGEN--\":10566:10638   */\n      tag_429\n        /* \"--CODEGEN--\":10634:10636   */\n      0x40\n        /* \"--CODEGEN--\":10623:10632   */\n      dup4\n        /* \"--CODEGEN--\":10619:10637   */\n      add\n        /* \"--CODEGEN--\":10610:10616   */\n      dup5\n        /* \"--CODEGEN--\":10566:10638   */\n      jump(tag_414)\n    tag_429:\n        /* \"--CODEGEN--\":10350:10648   */\n      swap5\n      swap4\n      pop\n      pop\n      pop\n      pop\n      jump\n        /* \"--CODEGEN--\":10655:10995   */\n    tag_260:\n      0x00\n        /* \"--CODEGEN--\":10809:10811   */\n      0x40\n        /* \"--CODEGEN--\":10798:10807   */\n      dup3\n        /* \"--CODEGEN--\":10794:10812   */\n      add\n        /* \"--CODEGEN--\":10786:10812   */\n      swap1\n      pop\n        /* \"--CODEGEN--\":10823:10902   */\n      tag_431\n        /* \"--CODEGEN--\":10899:10900   */\n      0x00\n        /* \"--CODEGEN--\":10888:10897   */\n      dup4\n        /* \"--CODEGEN--\":10884:10901   */\n      add\n        /* \"--CODEGEN--\":10875:10881   */\n      dup6\n        /* \"--CODEGEN--\":10823:10902   */\n      jump(tag_335)\n    tag_431:\n        /* \"--CODEGEN--\":10913:10985   */\n      tag_432\n        /* \"--CODEGEN--\":10981:10983   */\n      0x20\n        /* \"--CODEGEN--\":10970:10979   */\n      dup4\n        /* \"--CODEGEN--\":10966:10984   */\n      add\n        /* \"--CODEGEN--\":10957:10963   */\n      dup5\n        /* \"--CODEGEN--\":10913:10985   */\n      jump(tag_414)\n    tag_432:\n        /* \"--CODEGEN--\":10780:10995   */\n      swap4\n      swap3\n      pop\n      pop\n      pop\n      jump\n        /* \"--CODEGEN--\":11002:11403   */\n    tag_41:\n      0x00\n        /* \"--CODEGEN--\":11190:11192   */\n      0x20\n        /* \"--CODEGEN--\":11179:11188   */\n      dup3\n        /* \"--CODEGEN--\":11175:11193   */\n      add\n        /* \"--CODEGEN--\":11167:11193   */\n      swap1\n      pop\n        /* \"--CODEGEN--\":11240:11249   */\n      dup2\n        /* \"--CODEGEN--\":11234:11238   */\n      dup2\n        /* \"--CODEGEN--\":11230:11250   */\n      sub\n        /* \"--CODEGEN--\":11226:11227   */\n      0x00\n        /* \"--CODEGEN--\":11215:11224   */\n      dup4\n        /* \"--CODEGEN--\":11211:11228   */\n      add\n        /* \"--CODEGEN--\":11204:11251   */\n      mstore\n        /* \"--CODEGEN--\":11265:11393   */\n      tag_434\n        /* \"--CODEGEN--\":11388:11392   */\n      dup2\n        /* \"--CODEGEN--\":11379:11385   */\n      dup5\n        /* \"--CODEGEN--\":11265:11393   */\n      jump(tag_347)\n    tag_434:\n        /* \"--CODEGEN--\":11257:11393   */\n      swap1\n      pop\n        /* \"--CODEGEN--\":11161:11403   */\n      swap3\n      swap2\n      pop\n      pop\n      jump\n        /* \"--CODEGEN--\":11410:11711   */\n    tag_221:\n      0x00\n        /* \"--CODEGEN--\":11548:11550   */\n      0x20\n        /* \"--CODEGEN--\":11537:11546   */\n      dup3\n        /* \"--CODEGEN--\":11533:11551   */\n      add\n        /* \"--CODEGEN--\":11525:11551   */\n      swap1\n      pop\n        /* \"--CODEGEN--\":11598:11607   */\n      dup2\n        /* \"--CODEGEN--\":11592:11596   */\n      dup2\n        /* \"--CODEGEN--\":11588:11608   */\n      sub\n        /* \"--CODEGEN--\":11584:11585   */\n      0x00\n        /* \"--CODEGEN--\":11573:11582   */\n      dup4\n        /* \"--CODEGEN--\":11569:11586   */\n      add\n        /* \"--CODEGEN--\":11562:11609   */\n      mstore\n        /* \"--CODEGEN--\":11623:11701   */\n      tag_436\n        /* \"--CODEGEN--\":11696:11700   */\n      dup2\n        /* \"--CODEGEN--\":11687:11693   */\n      dup5\n        /* \"--CODEGEN--\":11623:11701   */\n      jump(tag_374)\n    tag_436:\n        /* \"--CODEGEN--\":11615:11701   */\n      swap1\n      pop\n        /* \"--CODEGEN--\":11519:11711   */\n      swap3\n      swap2\n      pop\n      pop\n      jump\n        /* \"--CODEGEN--\":11718:12130   */\n    tag_174:\n      0x00\n        /* \"--CODEGEN--\":11884:11886   */\n      0x40\n        /* \"--CODEGEN--\":11873:11882   */\n      dup3\n        /* \"--CODEGEN--\":11869:11887   */\n      add\n        /* \"--CODEGEN--\":11861:11887   */\n      swap1\n      pop\n        /* \"--CODEGEN--\":11934:11943   */\n      dup2\n        /* \"--CODEGEN--\":11928:11932   */\n      dup2\n        /* \"--CODEGEN--\":11924:11944   */\n      sub\n        /* \"--CODEGEN--\":11920:11921   */\n      0x00\n        /* \"--CODEGEN--\":11909:11918   */\n      dup4\n        /* \"--CODEGEN--\":11905:11922   */\n      add\n        /* \"--CODEGEN--\":11898:11945   */\n      mstore\n        /* \"--CODEGEN--\":11959:12037   */\n      tag_438\n        /* \"--CODEGEN--\":12032:12036   */\n      dup2\n        /* \"--CODEGEN--\":12023:12029   */\n      dup6\n        /* \"--CODEGEN--\":11959:12037   */\n      jump(tag_374)\n    tag_438:\n        /* \"--CODEGEN--\":11951:12037   */\n      swap1\n      pop\n        /* \"--CODEGEN--\":12048:12120   */\n      tag_439\n        /* \"--CODEGEN--\":12116:12118   */\n      0x20\n        /* \"--CODEGEN--\":12105:12114   */\n      dup4\n        /* \"--CODEGEN--\":12101:12119   */\n      add\n        /* \"--CODEGEN--\":12092:12098   */\n      dup5\n        /* \"--CODEGEN--\":12048:12120   */\n      jump(tag_414)\n    tag_439:\n        /* \"--CODEGEN--\":11855:12130   */\n      swap4\n      swap3\n      pop\n      pop\n      pop\n      jump\n        /* \"--CODEGEN--\":12137:12676   */\n    tag_140:\n      0x00\n        /* \"--CODEGEN--\":12339:12341   */\n      0x60\n        /* \"--CODEGEN--\":12328:12337   */\n      dup3\n        /* \"--CODEGEN--\":12324:12342   */\n      add\n        /* \"--CODEGEN--\":12316:12342   */\n      swap1\n      pop\n        /* \"--CODEGEN--\":12389:12398   */\n      dup2\n        /* \"--CODEGEN--\":12383:12387   */\n      dup2\n        /* \"--CODEGEN--\":12379:12399   */\n      sub\n        /* \"--CODEGEN--\":12375:12376   */\n      0x00\n        /* \"--CODEGEN--\":12364:12373   */\n      dup4\n        /* \"--CODEGEN--\":12360:12377   */\n      add\n        /* \"--CODEGEN--\":12353:12400   */\n      mstore\n        /* \"--CODEGEN--\":12414:12492   */\n      tag_441\n        /* \"--CODEGEN--\":12487:12491   */\n      dup2\n        /* \"--CODEGEN--\":12478:12484   */\n      dup7\n        /* \"--CODEGEN--\":12414:12492   */\n      jump(tag_374)\n    tag_441:\n        /* \"--CODEGEN--\":12406:12492   */\n      swap1\n      pop\n        /* \"--CODEGEN--\":12503:12575   */\n      tag_442\n        /* \"--CODEGEN--\":12571:12573   */\n      0x20\n        /* \"--CODEGEN--\":12560:12569   */\n      dup4\n        /* \"--CODEGEN--\":12556:12574   */\n      add\n        /* \"--CODEGEN--\":12547:12553   */\n      dup6\n        /* \"--CODEGEN--\":12503:12575   */\n      jump(tag_414)\n    tag_442:\n        /* \"--CODEGEN--\":12586:12666   */\n      tag_443\n        /* \"--CODEGEN--\":12662:12664   */\n      0x40\n        /* \"--CODEGEN--\":12651:12660   */\n      dup4\n        /* \"--CODEGEN--\":12647:12665   */\n      add\n        /* \"--CODEGEN--\":12638:12644   */\n      dup5\n        /* \"--CODEGEN--\":12586:12666   */\n      jump(tag_335)\n    tag_443:\n        /* \"--CODEGEN--\":12310:12676   */\n      swap5\n      swap4\n      pop\n      pop\n      pop\n      pop\n      jump\n        /* \"--CODEGEN--\":12683:13194   */\n    tag_84:\n      0x00\n        /* \"--CODEGEN--\":12871:12873   */\n      0x60\n        /* \"--CODEGEN--\":12860:12869   */\n      dup3\n        /* \"--CODEGEN--\":12856:12874   */\n      add\n        /* \"--CODEGEN--\":12848:12874   */\n      swap1\n      pop\n        /* \"--CODEGEN--\":12921:12930   */\n      dup2\n        /* \"--CODEGEN--\":12915:12919   */\n      dup2\n        /* \"--CODEGEN--\":12911:12931   */\n      sub\n        /* \"--CODEGEN--\":12907:12908   */\n      0x00\n        /* \"--CODEGEN--\":12896:12905   */\n      dup4\n        /* \"--CODEGEN--\":12892:12909   */\n      add\n        /* \"--CODEGEN--\":12885:12932   */\n      mstore\n        /* \"--CODEGEN--\":12946:13024   */\n      tag_445\n        /* \"--CODEGEN--\":13019:13023   */\n      dup2\n        /* \"--CODEGEN--\":13010:13016   */\n      dup7\n        /* \"--CODEGEN--\":12946:13024   */\n      jump(tag_374)\n    tag_445:\n        /* \"--CODEGEN--\":12938:13024   */\n      swap1\n      pop\n        /* \"--CODEGEN--\":13035:13107   */\n      tag_446\n        /* \"--CODEGEN--\":13103:13105   */\n      0x20\n        /* \"--CODEGEN--\":13092:13101   */\n      dup4\n        /* \"--CODEGEN--\":13088:13106   */\n      add\n        /* \"--CODEGEN--\":13079:13085   */\n      dup6\n        /* \"--CODEGEN--\":13035:13107   */\n      jump(tag_414)\n    tag_446:\n        /* \"--CODEGEN--\":13118:13184   */\n      tag_447\n        /* \"--CODEGEN--\":13180:13182   */\n      0x40\n        /* \"--CODEGEN--\":13169:13178   */\n      dup4\n        /* \"--CODEGEN--\":13165:13183   */\n      add\n        /* \"--CODEGEN--\":13156:13162   */\n      dup5\n        /* \"--CODEGEN--\":13118:13184   */\n      jump(tag_361)\n    tag_447:\n        /* \"--CODEGEN--\":12842:13194   */\n      swap5\n      swap4\n      pop\n      pop\n      pop\n      pop\n      jump\n        /* \"--CODEGEN--\":13201:13608   */\n    tag_180:\n      0x00\n        /* \"--CODEGEN--\":13392:13394   */\n      0x20\n        /* \"--CODEGEN--\":13381:13390   */\n      dup3\n        /* \"--CODEGEN--\":13377:13395   */\n      add\n        /* \"--CODEGEN--\":13369:13395   */\n      swap1\n      pop\n        /* \"--CODEGEN--\":13442:13451   */\n      dup2\n        /* \"--CODEGEN--\":13436:13440   */\n      dup2\n        /* \"--CODEGEN--\":13432:13452   */\n      sub\n        /* \"--CODEGEN--\":13428:13429   */\n      0x00\n        /* \"--CODEGEN--\":13417:13426   */\n      dup4\n        /* \"--CODEGEN--\":13413:13430   */\n      add\n        /* \"--CODEGEN--\":13406:13453   */\n      mstore\n        /* \"--CODEGEN--\":13467:13598   */\n      tag_449\n        /* \"--CODEGEN--\":13593:13597   */\n      dup2\n        /* \"--CODEGEN--\":13467:13598   */\n      jump(tag_387)\n    tag_449:\n        /* \"--CODEGEN--\":13459:13598   */\n      swap1\n      pop\n        /* \"--CODEGEN--\":13363:13608   */\n      swap2\n      swap1\n      pop\n      jump\n        /* \"--CODEGEN--\":13615:14022   */\n    tag_144:\n      0x00\n        /* \"--CODEGEN--\":13806:13808   */\n      0x20\n        /* \"--CODEGEN--\":13795:13804   */\n      dup3\n        /* \"--CODEGEN--\":13791:13809   */\n      add\n        /* \"--CODEGEN--\":13783:13809   */\n      swap1\n      pop\n        /* \"--CODEGEN--\":13856:13865   */\n      dup2\n        /* \"--CODEGEN--\":13850:13854   */\n      dup2\n        /* \"--CODEGEN--\":13846:13866   */\n      sub\n        /* \"--CODEGEN--\":13842:13843   */\n      0x00\n        /* \"--CODEGEN--\":13831:13840   */\n      dup4\n        /* \"--CODEGEN--\":13827:13844   */\n      add\n        /* \"--CODEGEN--\":13820:13867   */\n      mstore\n        /* \"--CODEGEN--\":13881:14012   */\n      tag_451\n        /* \"--CODEGEN--\":14007:14011   */\n      dup2\n        /* \"--CODEGEN--\":13881:14012   */\n      jump(tag_390)\n    tag_451:\n        /* \"--CODEGEN--\":13873:14012   */\n      swap1\n      pop\n        /* \"--CODEGEN--\":13777:14022   */\n      swap2\n      swap1\n      pop\n      jump\n        /* \"--CODEGEN--\":14029:14436   */\n    tag_148:\n      0x00\n        /* \"--CODEGEN--\":14220:14222   */\n      0x20\n        /* \"--CODEGEN--\":14209:14218   */\n      dup3\n        /* \"--CODEGEN--\":14205:14223   */\n      add\n        /* \"--CODEGEN--\":14197:14223   */\n      swap1\n      pop\n        /* \"--CODEGEN--\":14270:14279   */\n      dup2\n        /* \"--CODEGEN--\":14264:14268   */\n      dup2\n        /* \"--CODEGEN--\":14260:14280   */\n      sub\n        /* \"--CODEGEN--\":14256:14257   */\n      0x00\n        /* \"--CODEGEN--\":14245:14254   */\n      dup4\n        /* \"--CODEGEN--\":14241:14258   */\n      add\n        /* \"--CODEGEN--\":14234:14281   */\n      mstore\n        /* \"--CODEGEN--\":14295:14426   */\n      tag_453\n        /* \"--CODEGEN--\":14421:14425   */\n      dup2\n        /* \"--CODEGEN--\":14295:14426   */\n      jump(tag_393)\n    tag_453:\n        /* \"--CODEGEN--\":14287:14426   */\n      swap1\n      pop\n        /* \"--CODEGEN--\":14191:14436   */\n      swap2\n      swap1\n      pop\n      jump\n        /* \"--CODEGEN--\":14443:14850   */\n    tag_184:\n      0x00\n        /* \"--CODEGEN--\":14634:14636   */\n      0x20\n        /* \"--CODEGEN--\":14623:14632   */\n      dup3\n        /* \"--CODEGEN--\":14619:14637   */\n      add\n        /* \"--CODEGEN--\":14611:14637   */\n      swap1\n      pop\n        /* \"--CODEGEN--\":14684:14693   */\n      dup2\n        /* \"--CODEGEN--\":14678:14682   */\n      dup2\n        /* \"--CODEGEN--\":14674:14694   */\n      sub\n        /* \"--CODEGEN--\":14670:14671   */\n      0x00\n        /* \"--CODEGEN--\":14659:14668   */\n      dup4\n        /* \"--CODEGEN--\":14655:14672   */\n      add\n        /* \"--CODEGEN--\":14648:14695   */\n      mstore\n        /* \"--CODEGEN--\":14709:14840   */\n      tag_455\n        /* \"--CODEGEN--\":14835:14839   */\n      dup2\n        /* \"--CODEGEN--\":14709:14840   */\n      jump(tag_396)\n    tag_455:\n        /* \"--CODEGEN--\":14701:14840   */\n      swap1\n      pop\n        /* \"--CODEGEN--\":14605:14850   */\n      swap2\n      swap1\n      pop\n      jump\n        /* \"--CODEGEN--\":14857:15264   */\n    tag_124:\n      0x00\n        /* \"--CODEGEN--\":15048:15050   */\n      0x20\n        /* \"--CODEGEN--\":15037:15046   */\n      dup3\n        /* \"--CODEGEN--\":15033:15051   */\n      add\n        /* \"--CODEGEN--\":15025:15051   */\n      swap1\n      pop\n        /* \"--CODEGEN--\":15098:15107   */\n      dup2\n        /* \"--CODEGEN--\":15092:15096   */\n      dup2\n        /* \"--CODEGEN--\":15088:15108   */\n      sub\n        /* \"--CODEGEN--\":15084:15085   */\n      0x00\n        /* \"--CODEGEN--\":15073:15082   */\n      dup4\n        /* \"--CODEGEN--\":15069:15086   */\n      add\n        /* \"--CODEGEN--\":15062:15109   */\n      mstore\n        /* \"--CODEGEN--\":15123:15254   */\n      tag_457\n        /* \"--CODEGEN--\":15249:15253   */\n      dup2\n        /* \"--CODEGEN--\":15123:15254   */\n      jump(tag_399)\n    tag_457:\n        /* \"--CODEGEN--\":15115:15254   */\n      swap1\n      pop\n        /* \"--CODEGEN--\":15019:15264   */\n      swap2\n      swap1\n      pop\n      jump\n        /* \"--CODEGEN--\":15271:15678   */\n    tag_112:\n      0x00\n        /* \"--CODEGEN--\":15462:15464   */\n      0x20\n        /* \"--CODEGEN--\":15451:15460   */\n      dup3\n        /* \"--CODEGEN--\":15447:15465   */\n      add\n        /* \"--CODEGEN--\":15439:15465   */\n      swap1\n      pop\n        /* \"--CODEGEN--\":15512:15521   */\n      dup2\n        /* \"--CODEGEN--\":15506:15510   */\n      dup2\n        /* \"--CODEGEN--\":15502:15522   */\n      sub\n        /* \"--CODEGEN--\":15498:15499   */\n      0x00\n        /* \"--CODEGEN--\":15487:15496   */\n      dup4\n        /* \"--CODEGEN--\":15483:15500   */\n      add\n        /* \"--CODEGEN--\":15476:15523   */\n      mstore\n        /* \"--CODEGEN--\":15537:15668   */\n      tag_459\n        /* \"--CODEGEN--\":15663:15667   */\n      dup2\n        /* \"--CODEGEN--\":15537:15668   */\n      jump(tag_402)\n    tag_459:\n        /* \"--CODEGEN--\":15529:15668   */\n      swap1\n      pop\n        /* \"--CODEGEN--\":15433:15678   */\n      swap2\n      swap1\n      pop\n      jump\n        /* \"--CODEGEN--\":15685:16092   */\n    tag_252:\n      0x00\n        /* \"--CODEGEN--\":15876:15878   */\n      0x20\n        /* \"--CODEGEN--\":15865:15874   */\n      dup3\n        /* \"--CODEGEN--\":15861:15879   */\n      add\n        /* \"--CODEGEN--\":15853:15879   */\n      swap1\n      pop\n        /* \"--CODEGEN--\":15926:15935   */\n      dup2\n        /* \"--CODEGEN--\":15920:15924   */\n      dup2\n        /* \"--CODEGEN--\":15916:15936   */\n      sub\n        /* \"--CODEGEN--\":15912:15913   */\n      0x00\n        /* \"--CODEGEN--\":15901:15910   */\n      dup4\n        /* \"--CODEGEN--\":15897:15914   */\n      add\n        /* \"--CODEGEN--\":15890:15937   */\n      mstore\n        /* \"--CODEGEN--\":15951:16082   */\n      tag_461\n        /* \"--CODEGEN--\":16077:16081   */\n      dup2\n        /* \"--CODEGEN--\":15951:16082   */\n      jump(tag_405)\n    tag_461:\n        /* \"--CODEGEN--\":15943:16082   */\n      swap1\n      pop\n        /* \"--CODEGEN--\":15847:16092   */\n      swap2\n      swap1\n      pop\n      jump\n        /* \"--CODEGEN--\":16099:16506   */\n    tag_258:\n      0x00\n        /* \"--CODEGEN--\":16290:16292   */\n      0x20\n        /* \"--CODEGEN--\":16279:16288   */\n      dup3\n        /* \"--CODEGEN--\":16275:16293   */\n      add\n        /* \"--CODEGEN--\":16267:16293   */\n      swap1\n      pop\n        /* \"--CODEGEN--\":16340:16349   */\n      dup2\n        /* \"--CODEGEN--\":16334:16338   */\n      dup2\n        /* \"--CODEGEN--\":16330:16350   */\n      sub\n        /* \"--CODEGEN--\":16326:16327   */\n      0x00\n        /* \"--CODEGEN--\":16315:16324   */\n      dup4\n        /* \"--CODEGEN--\":16311:16328   */\n      add\n        /* \"--CODEGEN--\":16304:16351   */\n      mstore\n        /* \"--CODEGEN--\":16365:16496   */\n      tag_463\n        /* \"--CODEGEN--\":16491:16495   */\n      dup2\n        /* \"--CODEGEN--\":16365:16496   */\n      jump(tag_408)\n    tag_463:\n        /* \"--CODEGEN--\":16357:16496   */\n      swap1\n      pop\n        /* \"--CODEGEN--\":16261:16506   */\n      swap2\n      swap1\n      pop\n      jump\n        /* \"--CODEGEN--\":16513:16920   */\n    tag_128:\n      0x00\n        /* \"--CODEGEN--\":16704:16706   */\n      0x20\n        /* \"--CODEGEN--\":16693:16702   */\n      dup3\n        /* \"--CODEGEN--\":16689:16707   */\n      add\n        /* \"--CODEGEN--\":16681:16707   */\n      swap1\n      pop\n        /* \"--CODEGEN--\":16754:16763   */\n      dup2\n        /* \"--CODEGEN--\":16748:16752   */\n      dup2\n        /* \"--CODEGEN--\":16744:16764   */\n      sub\n        /* \"--CODEGEN--\":16740:16741   */\n      0x00\n        /* \"--CODEGEN--\":16729:16738   */\n      dup4\n        /* \"--CODEGEN--\":16725:16742   */\n      add\n        /* \"--CODEGEN--\":16718:16765   */\n      mstore\n        /* \"--CODEGEN--\":16779:16910   */\n      tag_465\n        /* \"--CODEGEN--\":16905:16909   */\n      dup2\n        /* \"--CODEGEN--\":16779:16910   */\n      jump(tag_411)\n    tag_465:\n        /* \"--CODEGEN--\":16771:16910   */\n      swap1\n      pop\n        /* \"--CODEGEN--\":16675:16920   */\n      swap2\n      swap1\n      pop\n      jump\n        /* \"--CODEGEN--\":16927:17140   */\n    tag_59:\n      0x00\n        /* \"--CODEGEN--\":17045:17047   */\n      0x20\n        /* \"--CODEGEN--\":17034:17043   */\n      dup3\n        /* \"--CODEGEN--\":17030:17048   */\n      add\n        /* \"--CODEGEN--\":17022:17048   */\n      swap1\n      pop\n        /* \"--CODEGEN--\":17059:17130   */\n      tag_467\n        /* \"--CODEGEN--\":17127:17128   */\n      0x00\n        /* \"--CODEGEN--\":17116:17125   */\n      dup4\n        /* \"--CODEGEN--\":17112:17129   */\n      add\n        /* \"--CODEGEN--\":17103:17109   */\n      dup5\n        /* \"--CODEGEN--\":17059:17130   */\n      jump(tag_414)\n    tag_467:\n        /* \"--CODEGEN--\":17016:17140   */\n      swap3\n      swap2\n      pop\n      pop\n      jump\n        /* \"--CODEGEN--\":17147:17403   */\n    tag_299:\n      0x00\n        /* \"--CODEGEN--\":17209:17211   */\n      0x40\n        /* \"--CODEGEN--\":17203:17212   */\n      mload\n        /* \"--CODEGEN--\":17193:17212   */\n      swap1\n      pop\n        /* \"--CODEGEN--\":17247:17251   */\n      dup2\n        /* \"--CODEGEN--\":17239:17245   */\n      dup2\n        /* \"--CODEGEN--\":17235:17252   */\n      add\n        /* \"--CODEGEN--\":17346:17352   */\n      dup2\n        /* \"--CODEGEN--\":17334:17344   */\n      dup2\n        /* \"--CODEGEN--\":17331:17353   */\n      lt\n        /* \"--CODEGEN--\":17310:17328   */\n      0xffffffffffffffff\n        /* \"--CODEGEN--\":17298:17308   */\n      dup3\n        /* \"--CODEGEN--\":17295:17329   */\n      gt\n        /* \"--CODEGEN--\":17292:17354   */\n      or\n        /* \"--CODEGEN--\":17289:17291   */\n      iszero\n      tag_469\n      jumpi\n        /* \"--CODEGEN--\":17367:17368   */\n      0x00\n        /* \"--CODEGEN--\":17364:17365   */\n      dup1\n        /* \"--CODEGEN--\":17357:17369   */\n      revert\n        /* \"--CODEGEN--\":17289:17291   */\n    tag_469:\n        /* \"--CODEGEN--\":17387:17397   */\n      dup1\n        /* \"--CODEGEN--\":17383:17385   */\n      0x40\n        /* \"--CODEGEN--\":17376:17398   */\n      mstore\n        /* \"--CODEGEN--\":17187:17403   */\n      pop\n      swap2\n      swap1\n      pop\n      jump\n        /* \"--CODEGEN--\":17410:17732   */\n    tag_298:\n      0x00\n        /* \"--CODEGEN--\":17554:17572   */\n      0xffffffffffffffff\n        /* \"--CODEGEN--\":17546:17552   */\n      dup3\n        /* \"--CODEGEN--\":17543:17573   */\n      gt\n        /* \"--CODEGEN--\":17540:17542   */\n      iszero\n      tag_471\n      jumpi\n        /* \"--CODEGEN--\":17586:17587   */\n      0x00\n        /* \"--CODEGEN--\":17583:17584   */\n      dup1\n        /* \"--CODEGEN--\":17576:17588   */\n      revert\n        /* \"--CODEGEN--\":17540:17542   */\n    tag_471:\n        /* \"--CODEGEN--\":17653:17657   */\n      0x1f\n        /* \"--CODEGEN--\":17649:17658   */\n      not\n        /* \"--CODEGEN--\":17642:17646   */\n      0x1f\n        /* \"--CODEGEN--\":17634:17640   */\n      dup4\n        /* \"--CODEGEN--\":17630:17647   */\n      add\n        /* \"--CODEGEN--\":17626:17659   */\n      and\n        /* \"--CODEGEN--\":17618:17659   */\n      swap1\n      pop\n        /* \"--CODEGEN--\":17717:17721   */\n      0x20\n        /* \"--CODEGEN--\":17711:17715   */\n      dup2\n        /* \"--CODEGEN--\":17707:17722   */\n      add\n        /* \"--CODEGEN--\":17699:17722   */\n      swap1\n      pop\n        /* \"--CODEGEN--\":17477:17732   */\n      swap2\n      swap1\n      pop\n      jump\n        /* \"--CODEGEN--\":17739:17900   */\n    tag_354:\n      0x00\n        /* \"--CODEGEN--\":17835:17838   */\n      dup2\n        /* \"--CODEGEN--\":17827:17838   */\n      swap1\n      pop\n        /* \"--CODEGEN--\":17873:17877   */\n      0x20\n        /* \"--CODEGEN--\":17868:17871   */\n      dup3\n        /* \"--CODEGEN--\":17864:17878   */\n      add\n        /* \"--CODEGEN--\":17856:17878   */\n      swap1\n      pop\n        /* \"--CODEGEN--\":17821:17900   */\n      swap2\n      swap1\n      pop\n      jump\n        /* \"--CODEGEN--\":17907:18054   */\n    tag_350:\n      0x00\n        /* \"--CODEGEN--\":18026:18031   */\n      dup2\n        /* \"--CODEGEN--\":18020:18032   */\n      mload\n        /* \"--CODEGEN--\":18010:18032   */\n      swap1\n      pop\n        /* \"--CODEGEN--\":17991:18054   */\n      swap2\n      swap1\n      pop\n      jump\n        /* \"--CODEGEN--\":18061:18183   */\n    tag_367:\n      0x00\n        /* \"--CODEGEN--\":18155:18160   */\n      dup2\n        /* \"--CODEGEN--\":18149:18161   */\n      mload\n        /* \"--CODEGEN--\":18139:18161   */\n      swap1\n      pop\n        /* \"--CODEGEN--\":18120:18183   */\n      swap2\n      swap1\n      pop\n      jump\n        /* \"--CODEGEN--\":18190:18308   */\n    tag_360:\n      0x00\n        /* \"--CODEGEN--\":18298:18302   */\n      0x20\n        /* \"--CODEGEN--\":18293:18296   */\n      dup3\n        /* \"--CODEGEN--\":18289:18303   */\n      add\n        /* \"--CODEGEN--\":18281:18303   */\n      swap1\n      pop\n        /* \"--CODEGEN--\":18275:18308   */\n      swap2\n      swap1\n      pop\n      jump\n        /* \"--CODEGEN--\":18316:18504   */\n    tag_352:\n      0x00\n        /* \"--CODEGEN--\":18456:18462   */\n      dup3\n        /* \"--CODEGEN--\":18451:18454   */\n      dup3\n        /* \"--CODEGEN--\":18444:18463   */\n      mstore\n        /* \"--CODEGEN--\":18493:18497   */\n      0x20\n        /* \"--CODEGEN--\":18488:18491   */\n      dup3\n        /* \"--CODEGEN--\":18484:18498   */\n      add\n        /* \"--CODEGEN--\":18469:18498   */\n      swap1\n      pop\n        /* \"--CODEGEN--\":18437:18504   */\n      swap3\n      swap2\n      pop\n      pop\n      jump\n        /* \"--CODEGEN--\":18513:18666   */\n    tag_369:\n      0x00\n        /* \"--CODEGEN--\":18618:18624   */\n      dup3\n        /* \"--CODEGEN--\":18613:18616   */\n      dup3\n        /* \"--CODEGEN--\":18606:18625   */\n      mstore\n        /* \"--CODEGEN--\":18655:18659   */\n      0x20\n        /* \"--CODEGEN--\":18650:18653   */\n      dup3\n        /* \"--CODEGEN--\":18646:18660   */\n      add\n        /* \"--CODEGEN--\":18631:18660   */\n      swap1\n      pop\n        /* \"--CODEGEN--\":18599:18666   */\n      swap3\n      swap2\n      pop\n      pop\n      jump\n        /* \"--CODEGEN--\":18675:18838   */\n    tag_378:\n      0x00\n        /* \"--CODEGEN--\":18790:18796   */\n      dup3\n        /* \"--CODEGEN--\":18785:18788   */\n      dup3\n        /* \"--CODEGEN--\":18778:18797   */\n      mstore\n        /* \"--CODEGEN--\":18827:18831   */\n      0x20\n        /* \"--CODEGEN--\":18822:18825   */\n      dup3\n        /* \"--CODEGEN--\":18818:18832   */\n      add\n        /* \"--CODEGEN--\":18803:18832   */\n      swap1\n      pop\n        /* \"--CODEGEN--\":18771:18838   */\n      swap3\n      swap2\n      pop\n      pop\n      jump\n        /* \"--CODEGEN--\":18847:18992   */\n    tag_385:\n      0x00\n        /* \"--CODEGEN--\":18983:18986   */\n      dup2\n        /* \"--CODEGEN--\":18968:18986   */\n      swap1\n      pop\n        /* \"--CODEGEN--\":18961:18992   */\n      swap3\n      swap2\n      pop\n      pop\n      jump\n        /* \"--CODEGEN--\":19000:19091   */\n    tag_346:\n      0x00\n        /* \"--CODEGEN--\":19062:19086   */\n      tag_481\n        /* \"--CODEGEN--\":19080:19085   */\n      dup3\n        /* \"--CODEGEN--\":19062:19086   */\n      jump(tag_482)\n    tag_481:\n        /* \"--CODEGEN--\":19051:19086   */\n      swap1\n      pop\n        /* \"--CODEGEN--\":19045:19091   */\n      swap2\n      swap1\n      pop\n      jump\n        /* \"--CODEGEN--\":19098:19197   */\n    tag_342:\n      0x00\n        /* \"--CODEGEN--\":19168:19192   */\n      tag_484\n        /* \"--CODEGEN--\":19186:19191   */\n      dup3\n        /* \"--CODEGEN--\":19168:19192   */\n      jump(tag_482)\n    tag_484:\n        /* \"--CODEGEN--\":19157:19192   */\n      swap1\n      pop\n        /* \"--CODEGEN--\":19151:19197   */\n      swap2\n      swap1\n      pop\n      jump\n        /* \"--CODEGEN--\":19204:19289   */\n    tag_364:\n      0x00\n        /* \"--CODEGEN--\":19277:19282   */\n      dup2\n        /* \"--CODEGEN--\":19270:19283   */\n      iszero\n        /* \"--CODEGEN--\":19263:19284   */\n      iszero\n        /* \"--CODEGEN--\":19252:19284   */\n      swap1\n      pop\n        /* \"--CODEGEN--\":19246:19289   */\n      swap2\n      swap1\n      pop\n      jump\n        /* \"--CODEGEN--\":19296:19417   */\n    tag_482:\n      0x00\n        /* \"--CODEGEN--\":19369:19411   */\n      0xffffffffffffffffffffffffffffffffffffffff\n        /* \"--CODEGEN--\":19362:19367   */\n      dup3\n        /* \"--CODEGEN--\":19358:19412   */\n      and\n        /* \"--CODEGEN--\":19347:19412   */\n      swap1\n      pop\n        /* \"--CODEGEN--\":19341:19417   */\n      swap2\n      swap1\n      pop\n      jump\n        /* \"--CODEGEN--\":19424:19496   */\n    tag_417:\n      0x00\n        /* \"--CODEGEN--\":19486:19491   */\n      dup2\n        /* \"--CODEGEN--\":19475:19491   */\n      swap1\n      pop\n        /* \"--CODEGEN--\":19469:19496   */\n      swap2\n      swap1\n      pop\n      jump\n        /* \"--CODEGEN--\":19503:19632   */\n    tag_338:\n      0x00\n        /* \"--CODEGEN--\":19590:19627   */\n      tag_489\n        /* \"--CODEGEN--\":19621:19626   */\n      dup3\n        /* \"--CODEGEN--\":19590:19627   */\n      jump(tag_490)\n    tag_489:\n        /* \"--CODEGEN--\":19577:19627   */\n      swap1\n      pop\n        /* \"--CODEGEN--\":19571:19632   */\n      swap2\n      swap1\n      pop\n      jump\n        /* \"--CODEGEN--\":19639:19760   */\n    tag_490:\n      0x00\n        /* \"--CODEGEN--\":19718:19755   */\n      tag_492\n        /* \"--CODEGEN--\":19749:19754   */\n      dup3\n        /* \"--CODEGEN--\":19718:19755   */\n      jump(tag_493)\n    tag_492:\n        /* \"--CODEGEN--\":19705:19755   */\n      swap1\n      pop\n        /* \"--CODEGEN--\":19699:19760   */\n      swap2\n      swap1\n      pop\n      jump\n        /* \"--CODEGEN--\":19767:19875   */\n    tag_493:\n      0x00\n        /* \"--CODEGEN--\":19846:19870   */\n      tag_495\n        /* \"--CODEGEN--\":19864:19869   */\n      dup3\n        /* \"--CODEGEN--\":19846:19870   */\n      jump(tag_482)\n    tag_495:\n        /* \"--CODEGEN--\":19833:19870   */\n      swap1\n      pop\n        /* \"--CODEGEN--\":19827:19875   */\n      swap2\n      swap1\n      pop\n      jump\n        /* \"--CODEGEN--\":19883:20028   */\n    tag_302:\n        /* \"--CODEGEN--\":19964:19970   */\n      dup3\n        /* \"--CODEGEN--\":19959:19962   */\n      dup2\n        /* \"--CODEGEN--\":19954:19957   */\n      dup4\n        /* \"--CODEGEN--\":19941:19971   */\n      calldatacopy\n        /* \"--CODEGEN--\":20020:20021   */\n      0x00\n        /* \"--CODEGEN--\":20011:20017   */\n      dup4\n        /* \"--CODEGEN--\":20006:20009   */\n      dup4\n        /* \"--CODEGEN--\":20002:20018   */\n      add\n        /* \"--CODEGEN--\":19995:20022   */\n      mstore\n        /* \"--CODEGEN--\":19934:20028   */\n      pop\n      pop\n      pop\n      jump\n        /* \"--CODEGEN--\":20037:20305   */\n    tag_371:\n        /* \"--CODEGEN--\":20102:20103   */\n      0x00\n        /* \"--CODEGEN--\":20109:20210   */\n    tag_498:\n        /* \"--CODEGEN--\":20123:20129   */\n      dup4\n        /* \"--CODEGEN--\":20120:20121   */\n      dup2\n        /* \"--CODEGEN--\":20117:20130   */\n      lt\n        /* \"--CODEGEN--\":20109:20210   */\n      iszero\n      tag_500\n      jumpi\n        /* \"--CODEGEN--\":20199:20200   */\n      dup1\n        /* \"--CODEGEN--\":20194:20197   */\n      dup3\n        /* \"--CODEGEN--\":20190:20201   */\n      add\n        /* \"--CODEGEN--\":20184:20202   */\n      mload\n        /* \"--CODEGEN--\":20180:20181   */\n      dup2\n        /* \"--CODEGEN--\":20175:20178   */\n      dup5\n        /* \"--CODEGEN--\":20171:20182   */\n      add\n        /* \"--CODEGEN--\":20164:20203   */\n      mstore\n        /* \"--CODEGEN--\":20145:20147   */\n      0x20\n        /* \"--CODEGEN--\":20142:20143   */\n      dup2\n        /* \"--CODEGEN--\":20138:20148   */\n      add\n        /* \"--CODEGEN--\":20133:20148   */\n      swap1\n      pop\n        /* \"--CODEGEN--\":20109:20210   */\n      jump(tag_498)\n    tag_500:\n        /* \"--CODEGEN--\":20225:20231   */\n      dup4\n        /* \"--CODEGEN--\":20222:20223   */\n      dup2\n        /* \"--CODEGEN--\":20219:20232   */\n      gt\n        /* \"--CODEGEN--\":20216:20218   */\n      iszero\n      tag_501\n      jumpi\n        /* \"--CODEGEN--\":20290:20291   */\n      0x00\n        /* \"--CODEGEN--\":20281:20287   */\n      dup5\n        /* \"--CODEGEN--\":20276:20279   */\n      dup5\n        /* \"--CODEGEN--\":20272:20288   */\n      add\n        /* \"--CODEGEN--\":20265:20292   */\n      mstore\n        /* \"--CODEGEN--\":20216:20218   */\n    tag_501:\n        /* \"--CODEGEN--\":20086:20305   */\n      pop\n      pop\n      pop\n      pop\n      jump\n        /* \"--CODEGEN--\":20313:20410   */\n    tag_373:\n      0x00\n        /* \"--CODEGEN--\":20401:20403   */\n      0x1f\n        /* \"--CODEGEN--\":20397:20404   */\n      not\n        /* \"--CODEGEN--\":20392:20394   */\n      0x1f\n        /* \"--CODEGEN--\":20385:20390   */\n      dup4\n        /* \"--CODEGEN--\":20381:20395   */\n      add\n        /* \"--CODEGEN--\":20377:20405   */\n      and\n        /* \"--CODEGEN--\":20367:20405   */\n      swap1\n      pop\n        /* \"--CODEGEN--\":20361:20410   */\n      swap2\n      swap1\n      pop\n      jump\n        /* \"--CODEGEN--\":20418:20535   */\n    tag_288:\n        /* \"--CODEGEN--\":20487:20511   */\n      tag_504\n        /* \"--CODEGEN--\":20505:20510   */\n      dup2\n        /* \"--CODEGEN--\":20487:20511   */\n      jump(tag_346)\n    tag_504:\n        /* \"--CODEGEN--\":20480:20485   */\n      dup2\n        /* \"--CODEGEN--\":20477:20512   */\n      eq\n        /* \"--CODEGEN--\":20467:20469   */\n      tag_505\n      jumpi\n        /* \"--CODEGEN--\":20526:20527   */\n      0x00\n        /* \"--CODEGEN--\":20523:20524   */\n      dup1\n        /* \"--CODEGEN--\":20516:20528   */\n      revert\n        /* \"--CODEGEN--\":20467:20469   */\n    tag_505:\n        /* \"--CODEGEN--\":20461:20535   */\n      pop\n      jump\n        /* \"--CODEGEN--\":20542:20653   */\n    tag_292:\n        /* \"--CODEGEN--\":20608:20629   */\n      tag_507\n        /* \"--CODEGEN--\":20623:20628   */\n      dup2\n        /* \"--CODEGEN--\":20608:20629   */\n      jump(tag_364)\n    tag_507:\n        /* \"--CODEGEN--\":20601:20606   */\n      dup2\n        /* \"--CODEGEN--\":20598:20630   */\n      eq\n        /* \"--CODEGEN--\":20588:20590   */\n      tag_508\n      jumpi\n        /* \"--CODEGEN--\":20644:20645   */\n      0x00\n        /* \"--CODEGEN--\":20641:20642   */\n      dup1\n        /* \"--CODEGEN--\":20634:20646   */\n      revert\n        /* \"--CODEGEN--\":20588:20590   */\n    tag_508:\n        /* \"--CODEGEN--\":20582:20653   */\n      pop\n      jump\n        /* \"--CODEGEN--\":20660:20777   */\n    tag_306:\n        /* \"--CODEGEN--\":20729:20753   */\n      tag_510\n        /* \"--CODEGEN--\":20747:20752   */\n      dup2\n        /* \"--CODEGEN--\":20729:20753   */\n      jump(tag_417)\n    tag_510:\n        /* \"--CODEGEN--\":20722:20727   */\n      dup2\n        /* \"--CODEGEN--\":20719:20754   */\n      eq\n        /* \"--CODEGEN--\":20709:20711   */\n      tag_511\n      jumpi\n        /* \"--CODEGEN--\":20768:20769   */\n      0x00\n        /* \"--CODEGEN--\":20765:20766   */\n      dup1\n        /* \"--CODEGEN--\":20758:20770   */\n      revert\n        /* \"--CODEGEN--\":20709:20711   */\n    tag_511:\n        /* \"--CODEGEN--\":20703:20777   */\n      pop\n      jump\n\n    auxdata: 0xa2646970667358221220d46a6c216b6cbee0dc93a40e61292cd9b2197e5cd594115368e5c659a55aa7bf64736f6c63430006070033\n}\n\nsub_1: assembly {\n        /* \"contracts/parque/ERC20.sol\":923:3623  contract ERC20Basic is IERC20 {\r... */\n      mstore(0x40, 0x80)\n        /* \"contracts/parque/ERC20.sol\":1451:1570  constructor (uint256 total) public{\r... */\n      callvalue\n        /* \"--CODEGEN--\":5:14   */\n      dup1\n        /* \"--CODEGEN--\":2:4   */\n      iszero\n      tag_1\n      jumpi\n        /* \"--CODEGEN--\":27:28   */\n      0x00\n        /* \"--CODEGEN--\":24:25   */\n      dup1\n        /* \"--CODEGEN--\":17:29   */\n      revert\n        /* \"--CODEGEN--\":2:4   */\n    tag_1:\n        /* \"contracts/parque/ERC20.sol\":1451:1570  constructor (uint256 total) public{\r... */\n      pop\n      mload(0x40)\n      sub(codesize, bytecodeSize)\n      dup1\n      bytecodeSize\n      dup4\n      codecopy\n      dup2\n      dup2\n      add\n      0x40\n      mstore\n      dup2\n      add\n      swap1\n      tag_2\n      swap2\n      swap1\n      jump(tag_3)\n    tag_2:\n        /* \"contracts/parque/ERC20.sol\":1511:1516  total */\n      dup1\n        /* \"contracts/parque/ERC20.sol\":1496:1508  totalSupply_ */\n      0x02\n        /* \"contracts/parque/ERC20.sol\":1496:1516  totalSupply_ = total */\n      dup2\n      swap1\n      sstore\n      pop\n        /* \"contracts/parque/ERC20.sol\":1550:1562  totalSupply_ */\n      sload(0x02)\n        /* \"contracts/parque/ERC20.sol\":1527:1535  balances */\n      0x00\n        /* \"contracts/parque/ERC20.sol\":1527:1547  balances[msg.sender] */\n      dup1\n        /* \"contracts/parque/ERC20.sol\":1536:1546  msg.sender */\n      caller\n        /* \"contracts/parque/ERC20.sol\":1527:1547  balances[msg.sender] */\n      0xffffffffffffffffffffffffffffffffffffffff\n      and\n      0xffffffffffffffffffffffffffffffffffffffff\n      and\n      dup2\n      mstore\n      0x20\n      add\n      swap1\n      dup2\n      mstore\n      0x20\n      add\n      0x00\n      keccak256\n        /* \"contracts/parque/ERC20.sol\":1527:1562  balances[msg.sender] = totalSupply_ */\n      dup2\n      swap1\n      sstore\n      pop\n        /* \"contracts/parque/ERC20.sol\":1451:1570  constructor (uint256 total) public{\r... */\n      pop\n        /* \"contracts/parque/ERC20.sol\":923:3623  contract ERC20Basic is IERC20 {\r... */\n      jump(tag_6)\n        /* \"--CODEGEN--\":5:139   */\n    tag_8:\n      0x00\n        /* \"--CODEGEN--\":89:95   */\n      dup2\n        /* \"--CODEGEN--\":83:96   */\n      mload\n        /* \"--CODEGEN--\":74:96   */\n      swap1\n      pop\n        /* \"--CODEGEN--\":101:134   */\n      tag_10\n        /* \"--CODEGEN--\":128:133   */\n      dup2\n        /* \"--CODEGEN--\":101:134   */\n      jump(tag_11)\n    tag_10:\n        /* \"--CODEGEN--\":68:139   */\n      swap3\n      swap2\n      pop\n      pop\n      jump\n        /* \"--CODEGEN--\":146:409   */\n    tag_3:\n      0x00\n        /* \"--CODEGEN--\":261:263   */\n      0x20\n        /* \"--CODEGEN--\":249:258   */\n      dup3\n        /* \"--CODEGEN--\":240:247   */\n      dup5\n        /* \"--CODEGEN--\":236:259   */\n      sub\n        /* \"--CODEGEN--\":232:264   */\n      slt\n        /* \"--CODEGEN--\":229:231   */\n      iszero\n      tag_13\n      jumpi\n        /* \"--CODEGEN--\":277:278   */\n      0x00\n        /* \"--CODEGEN--\":274:275   */\n      dup1\n        /* \"--CODEGEN--\":267:279   */\n      revert\n        /* \"--CODEGEN--\":229:231   */\n    tag_13:\n        /* \"--CODEGEN--\":312:313   */\n      0x00\n        /* \"--CODEGEN--\":329:393   */\n      tag_14\n        /* \"--CODEGEN--\":385:392   */\n      dup5\n        /* \"--CODEGEN--\":376:382   */\n      dup3\n        /* \"--CODEGEN--\":365:374   */\n      dup6\n        /* \"--CODEGEN--\":361:383   */\n      add\n        /* \"--CODEGEN--\":329:393   */\n      jump(tag_8)\n    tag_14:\n        /* \"--CODEGEN--\":319:393   */\n      swap2\n      pop\n        /* \"--CODEGEN--\":291:399   */\n      pop\n        /* \"--CODEGEN--\":223:409   */\n      swap3\n      swap2\n      pop\n      pop\n      jump\n        /* \"--CODEGEN--\":416:488   */\n    tag_15:\n      0x00\n        /* \"--CODEGEN--\":478:483   */\n      dup2\n        /* \"--CODEGEN--\":467:483   */\n      swap1\n      pop\n        /* \"--CODEGEN--\":461:488   */\n      swap2\n      swap1\n      pop\n      jump\n        /* \"--CODEGEN--\":495:612   */\n    tag_11:\n        /* \"--CODEGEN--\":564:588   */\n      tag_18\n        /* \"--CODEGEN--\":582:587   */\n      dup2\n        /* \"--CODEGEN--\":564:588   */\n      jump(tag_15)\n    tag_18:\n        /* \"--CODEGEN--\":557:562   */\n      dup2\n        /* \"--CODEGEN--\":554:589   */\n      eq\n        /* \"--CODEGEN--\":544:546   */\n      tag_19\n      jumpi\n        /* \"--CODEGEN--\":603:604   */\n      0x00\n        /* \"--CODEGEN--\":600:601   */\n      dup1\n        /* \"--CODEGEN--\":593:605   */\n      revert\n        /* \"--CODEGEN--\":544:546   */\n    tag_19:\n        /* \"--CODEGEN--\":538:612   */\n      pop\n      jump\n        /* \"contracts/parque/ERC20.sol\":923:3623  contract ERC20Basic is IERC20 {\r... */\n    tag_6:\n      dataSize(sub_0)\n      dup1\n      dataOffset(sub_0)\n      0x00\n      codecopy\n      0x00\n      return\n    stop\n\n    sub_0: assembly {\n            /* \"contracts/parque/ERC20.sol\":923:3623  contract ERC20Basic is IERC20 {\r... */\n          mstore(0x40, 0x80)\n          callvalue\n            /* \"--CODEGEN--\":5:14   */\n          dup1\n            /* \"--CODEGEN--\":2:4   */\n          iszero\n          tag_1\n          jumpi\n            /* \"--CODEGEN--\":27:28   */\n          0x00\n            /* \"--CODEGEN--\":24:25   */\n          dup1\n            /* \"--CODEGEN--\":17:29   */\n          revert\n            /* \"--CODEGEN--\":2:4   */\n        tag_1:\n            /* \"contracts/parque/ERC20.sol\":923:3623  contract ERC20Basic is IERC20 {\r... */\n          pop\n          jumpi(tag_2, lt(calldatasize, 0x04))\n          shr(0xe0, calldataload(0x00))\n          dup1\n          0x4ee22adf\n          gt\n          tag_14\n          jumpi\n          dup1\n          0x4ee22adf\n          eq\n          tag_8\n          jumpi\n          dup1\n          0x70a08231\n          eq\n          tag_9\n          jumpi\n          dup1\n          0x95d89b41\n          eq\n          tag_10\n          jumpi\n          dup1\n          0xa9059cbb\n          eq\n          tag_11\n          jumpi\n          dup1\n          0xdd62ed3e\n          eq\n          tag_12\n          jumpi\n          dup1\n          0xf490a351\n          eq\n          tag_13\n          jumpi\n          jump(tag_2)\n        tag_14:\n          dup1\n          0x06fdde03\n          eq\n          tag_3\n          jumpi\n          dup1\n          0x095ea7b3\n          eq\n          tag_4\n          jumpi\n          dup1\n          0x18160ddd\n          eq\n          tag_5\n          jumpi\n          dup1\n          0x23b872dd\n          eq\n          tag_6\n          jumpi\n          dup1\n          0x313ce567\n          eq\n          tag_7\n          jumpi\n        tag_2:\n            /* \"--CODEGEN--\":12:13   */\n          0x00\n            /* \"--CODEGEN--\":9:10   */\n          dup1\n            /* \"--CODEGEN--\":2:14   */\n          revert\n            /* \"contracts/parque/ERC20.sol\":960:1002  string public constant name = \"ERC20Basic\" */\n        tag_3:\n          tag_15\n          tag_16\n          jump\t// in\n        tag_15:\n          mload(0x40)\n          tag_17\n          swap2\n          swap1\n          jump(tag_18)\n        tag_17:\n          mload(0x40)\n          dup1\n          swap2\n          sub\n          swap1\n          return\n            /* \"contracts/parque/ERC20.sol\":2731:2956  function approve (address delegate, uint256 numTokens) public override returns (bool) {\r... */\n        tag_4:\n          tag_19\n          0x04\n          dup1\n          calldatasize\n          sub\n          dup2\n          add\n          swap1\n          tag_20\n          swap2\n          swap1\n          jump(tag_21)\n        tag_20:\n          tag_22\n          jump\t// in\n        tag_19:\n          mload(0x40)\n          tag_23\n          swap2\n          swap1\n          jump(tag_24)\n        tag_23:\n          mload(0x40)\n          dup1\n          swap2\n          sub\n          swap1\n          return\n            /* \"contracts/parque/ERC20.sol\":1582:1681  function totalSupply() public override view returns (uint256){\r... */\n        tag_5:\n          tag_25\n          tag_26\n          jump\t// in\n        tag_25:\n          mload(0x40)\n          tag_27\n          swap2\n          swap1\n          jump(tag_28)\n        tag_27:\n          mload(0x40)\n          dup1\n          swap2\n          sub\n          swap1\n          return\n            /* \"contracts/parque/ERC20.sol\":3118:3614  function transferFrom(address owner, address buyer, uint256 numTokens) public override returns (bool){\r... */\n        tag_6:\n          tag_29\n          0x04\n          dup1\n          calldatasize\n          sub\n          dup2\n          add\n          swap1\n          tag_30\n          swap2\n          swap1\n          jump(tag_31)\n        tag_30:\n          tag_32\n          jump\t// in\n        tag_29:\n          mload(0x40)\n          tag_33\n          swap2\n          swap1\n          jump(tag_24)\n        tag_33:\n          mload(0x40)\n          dup1\n          swap2\n          sub\n          swap1\n          return\n            /* \"contracts/parque/ERC20.sol\":1059:1093  uint8 public constant decimals = 2 */\n        tag_7:\n          tag_34\n          tag_35\n          jump\t// in\n        tag_34:\n          mload(0x40)\n          tag_36\n          swap2\n          swap1\n          jump(tag_37)\n        tag_36:\n          mload(0x40)\n          dup1\n          swap2\n          sub\n          swap1\n          return\n            /* \"contracts/parque/ERC20.sol\":1693:1831  function increaseTotalSuply(uint newTokens) public{\r... */\n        tag_8:\n          tag_38\n          0x04\n          dup1\n          calldatasize\n          sub\n          dup2\n          add\n          swap1\n          tag_39\n          swap2\n          swap1\n          jump(tag_40)\n        tag_39:\n          tag_41\n          jump\t// in\n        tag_38:\n          stop\n            /* \"contracts/parque/ERC20.sol\":1843:1967  function balanceOf (address tokenOwner) public override view returns (uint256){\r... */\n        tag_9:\n          tag_42\n          0x04\n          dup1\n          calldatasize\n          sub\n          dup2\n          add\n          swap1\n          tag_43\n          swap2\n          swap1\n          jump(tag_44)\n        tag_43:\n          tag_45\n          jump\t// in\n        tag_42:\n          mload(0x40)\n          tag_46\n          swap2\n          swap1\n          jump(tag_28)\n        tag_46:\n          mload(0x40)\n          dup1\n          swap2\n          sub\n          swap1\n          return\n            /* \"contracts/parque/ERC20.sol\":1009:1052  string public constant symbol = \"JBJ-TOKEN\" */\n        tag_10:\n          tag_47\n          tag_48\n          jump\t// in\n        tag_47:\n          mload(0x40)\n          tag_49\n          swap2\n          swap1\n          jump(tag_18)\n        tag_49:\n          mload(0x40)\n          dup1\n          swap2\n          sub\n          swap1\n          return\n            /* \"contracts/parque/ERC20.sol\":1979:2336  function transfer(address receiver, uint256 numTokens) public override returns (bool){\r... */\n        tag_11:\n          tag_50\n          0x04\n          dup1\n          calldatasize\n          sub\n          dup2\n          add\n          swap1\n          tag_51\n          swap2\n          swap1\n          jump(tag_21)\n        tag_51:\n          tag_52\n          jump\t// in\n        tag_50:\n          mload(0x40)\n          tag_53\n          swap2\n          swap1\n          jump(tag_24)\n        tag_53:\n          mload(0x40)\n          dup1\n          swap2\n          sub\n          swap1\n          return\n            /* \"contracts/parque/ERC20.sol\":2968:3106  function allowance (address owner, address delegate) public override view returns (uint){\r... */\n        tag_12:\n          tag_54\n          0x04\n          dup1\n          calldatasize\n          sub\n          dup2\n          add\n          swap1\n          tag_55\n          swap2\n          swap1\n          jump(tag_56)\n        tag_55:\n          tag_57\n          jump\t// in\n        tag_54:\n          mload(0x40)\n          tag_58\n          swap2\n          swap1\n          jump(tag_28)\n        tag_58:\n          mload(0x40)\n          dup1\n          swap2\n          sub\n          swap1\n          return\n            /* \"contracts/parque/ERC20.sol\":2349:2718  function transferencia_disney(address sender, address receiver, uint256 numTokens) public override returns (bool){\r... */\n        tag_13:\n          tag_59\n          0x04\n          dup1\n          calldatasize\n          sub\n          dup2\n          add\n          swap1\n          tag_60\n          swap2\n          swap1\n          jump(tag_31)\n        tag_60:\n          tag_61\n          jump\t// in\n        tag_59:\n          mload(0x40)\n          tag_62\n          swap2\n          swap1\n          jump(tag_24)\n        tag_62:\n          mload(0x40)\n          dup1\n          swap2\n          sub\n          swap1\n          return\n            /* \"contracts/parque/ERC20.sol\":960:1002  string public constant name = \"ERC20Basic\" */\n        tag_16:\n          mload(0x40)\n          dup1\n          0x40\n          add\n          0x40\n          mstore\n          dup1\n          0x0a\n          dup2\n          mstore\n          0x20\n          add\n          0x4552433230426173696300000000000000000000000000000000000000000000\n          dup2\n          mstore\n          pop\n          dup2\n          jump\t// out\n            /* \"contracts/parque/ERC20.sol\":2731:2956  function approve (address delegate, uint256 numTokens) public override returns (bool) {\r... */\n        tag_22:\n            /* \"contracts/parque/ERC20.sol\":2811:2815  bool */\n          0x00\n            /* \"contracts/parque/ERC20.sol\":2860:2869  numTokens */\n          dup2\n            /* \"contracts/parque/ERC20.sol\":2828:2835  allowed */\n          0x01\n            /* \"contracts/parque/ERC20.sol\":2828:2847  allowed[msg.sender] */\n          0x00\n            /* \"contracts/parque/ERC20.sol\":2836:2846  msg.sender */\n          caller\n            /* \"contracts/parque/ERC20.sol\":2828:2847  allowed[msg.sender] */\n          0xffffffffffffffffffffffffffffffffffffffff\n          and\n          0xffffffffffffffffffffffffffffffffffffffff\n          and\n          dup2\n          mstore\n          0x20\n          add\n          swap1\n          dup2\n          mstore\n          0x20\n          add\n          0x00\n          keccak256\n            /* \"contracts/parque/ERC20.sol\":2828:2857  allowed[msg.sender][delegate] */\n          0x00\n            /* \"contracts/parque/ERC20.sol\":2848:2856  delegate */\n          dup6\n            /* \"contracts/parque/ERC20.sol\":2828:2857  allowed[msg.sender][delegate] */\n          0xffffffffffffffffffffffffffffffffffffffff\n          and\n          0xffffffffffffffffffffffffffffffffffffffff\n          and\n          dup2\n          mstore\n          0x20\n          add\n          swap1\n          dup2\n          mstore\n          0x20\n          add\n          0x00\n          keccak256\n            /* \"contracts/parque/ERC20.sol\":2828:2869  allowed[msg.sender][delegate] = numTokens */\n          dup2\n          swap1\n          sstore\n          pop\n            /* \"contracts/parque/ERC20.sol\":2906:2914  delegate */\n          dup3\n            /* \"contracts/parque/ERC20.sol\":2885:2926  Approval(msg.sender, delegate, numTokens) */\n          0xffffffffffffffffffffffffffffffffffffffff\n          and\n            /* \"contracts/parque/ERC20.sol\":2894:2904  msg.sender */\n          caller\n            /* \"contracts/parque/ERC20.sol\":2885:2926  Approval(msg.sender, delegate, numTokens) */\n          0xffffffffffffffffffffffffffffffffffffffff\n          and\n          0x8c5be1e5ebec7d5bd14f71427d1e84f3dd0314c0f7b2291e5b200ac8c7c3b925\n            /* \"contracts/parque/ERC20.sol\":2916:2925  numTokens */\n          dup5\n            /* \"contracts/parque/ERC20.sol\":2885:2926  Approval(msg.sender, delegate, numTokens) */\n          mload(0x40)\n          tag_64\n          swap2\n          swap1\n          jump(tag_28)\n        tag_64:\n          mload(0x40)\n          dup1\n          swap2\n          sub\n          swap1\n          log3\n            /* \"contracts/parque/ERC20.sol\":2944:2948  true */\n          0x01\n            /* \"contracts/parque/ERC20.sol\":2937:2948  return true */\n          swap1\n          pop\n            /* \"contracts/parque/ERC20.sol\":2731:2956  function approve (address delegate, uint256 numTokens) public override returns (bool) {\r... */\n          swap3\n          swap2\n          pop\n          pop\n          jump\t// out\n            /* \"contracts/parque/ERC20.sol\":1582:1681  function totalSupply() public override view returns (uint256){\r... */\n        tag_26:\n            /* \"contracts/parque/ERC20.sol\":1635:1642  uint256 */\n          0x00\n            /* \"contracts/parque/ERC20.sol\":1661:1673  totalSupply_ */\n          sload(0x02)\n            /* \"contracts/parque/ERC20.sol\":1654:1673  return totalSupply_ */\n          swap1\n          pop\n            /* \"contracts/parque/ERC20.sol\":1582:1681  function totalSupply() public override view returns (uint256){\r... */\n          swap1\n          jump\t// out\n            /* \"contracts/parque/ERC20.sol\":3118:3614  function transferFrom(address owner, address buyer, uint256 numTokens) public override returns (bool){\r... */\n        tag_32:\n            /* \"contracts/parque/ERC20.sol\":3214:3218  bool */\n          0x00\n            /* \"contracts/parque/ERC20.sol\":3252:3260  balances */\n          dup1\n            /* \"contracts/parque/ERC20.sol\":3252:3267  balances[owner] */\n          0x00\n            /* \"contracts/parque/ERC20.sol\":3261:3266  owner */\n          dup6\n            /* \"contracts/parque/ERC20.sol\":3252:3267  balances[owner] */\n          0xffffffffffffffffffffffffffffffffffffffff\n          and\n          0xffffffffffffffffffffffffffffffffffffffff\n          and\n          dup2\n          mstore\n          0x20\n          add\n          swap1\n          dup2\n          mstore\n          0x20\n          add\n          0x00\n          keccak256\n          sload\n            /* \"contracts/parque/ERC20.sol\":3239:3248  numTokens */\n          dup3\n            /* \"contracts/parque/ERC20.sol\":3239:3267  numTokens <= balances[owner] */\n          gt\n          iszero\n            /* \"contracts/parque/ERC20.sol\":3230:3268  require (numTokens <= balances[owner]) */\n          tag_67\n          jumpi\n            /* \"--CODEGEN--\":12:13   */\n          0x00\n            /* \"--CODEGEN--\":9:10   */\n          dup1\n            /* \"--CODEGEN--\":2:14   */\n          revert\n            /* \"contracts/parque/ERC20.sol\":3230:3268  require (numTokens <= balances[owner]) */\n        tag_67:\n            /* \"contracts/parque/ERC20.sol\":3301:3308  allowed */\n          0x01\n            /* \"contracts/parque/ERC20.sol\":3301:3315  allowed[owner] */\n          0x00\n            /* \"contracts/parque/ERC20.sol\":3309:3314  owner */\n          dup6\n            /* \"contracts/parque/ERC20.sol\":3301:3315  allowed[owner] */\n          0xffffffffffffffffffffffffffffffffffffffff\n          and\n          0xffffffffffffffffffffffffffffffffffffffff\n          and\n          dup2\n          mstore\n          0x20\n          add\n          swap1\n          dup2\n          mstore\n          0x20\n          add\n          0x00\n          keccak256\n            /* \"contracts/parque/ERC20.sol\":3301:3327  allowed[owner][msg.sender] */\n          0x00\n            /* \"contracts/parque/ERC20.sol\":3316:3326  msg.sender */\n          caller\n            /* \"contracts/parque/ERC20.sol\":3301:3327  allowed[owner][msg.sender] */\n          0xffffffffffffffffffffffffffffffffffffffff\n          and\n          0xffffffffffffffffffffffffffffffffffffffff\n          and\n          dup2\n          mstore\n          0x20\n          add\n          swap1\n          dup2\n          mstore\n          0x20\n          add\n          0x00\n          keccak256\n          sload\n            /* \"contracts/parque/ERC20.sol\":3288:3297  numTokens */\n          dup3\n            /* \"contracts/parque/ERC20.sol\":3288:3327  numTokens <= allowed[owner][msg.sender] */\n          gt\n          iszero\n            /* \"contracts/parque/ERC20.sol\":3279:3328  require (numTokens <= allowed[owner][msg.sender]) */\n          tag_68\n          jumpi\n            /* \"--CODEGEN--\":12:13   */\n          0x00\n            /* \"--CODEGEN--\":9:10   */\n          dup1\n            /* \"--CODEGEN--\":2:14   */\n          revert\n            /* \"contracts/parque/ERC20.sol\":3279:3328  require (numTokens <= allowed[owner][msg.sender]) */\n        tag_68:\n            /* \"contracts/parque/ERC20.sol\":3367:3397  balances[owner].sub(numTokens) */\n          tag_69\n            /* \"contracts/parque/ERC20.sol\":3387:3396  numTokens */\n          dup3\n            /* \"contracts/parque/ERC20.sol\":3367:3375  balances */\n          0x00\n            /* \"contracts/parque/ERC20.sol\":3367:3382  balances[owner] */\n          dup1\n            /* \"contracts/parque/ERC20.sol\":3376:3381  owner */\n          dup8\n            /* \"contracts/parque/ERC20.sol\":3367:3382  balances[owner] */\n          0xffffffffffffffffffffffffffffffffffffffff\n          and\n          0xffffffffffffffffffffffffffffffffffffffff\n          and\n          dup2\n          mstore\n          0x20\n          add\n          swap1\n          dup2\n          mstore\n          0x20\n          add\n          0x00\n          keccak256\n          sload\n            /* \"contracts/parque/ERC20.sol\":3367:3386  balances[owner].sub */\n          tag_70\n          swap1\n            /* \"contracts/parque/ERC20.sol\":3367:3397  balances[owner].sub(numTokens) */\n          swap2\n          swap1\n          0xffffffff\n          and\n          jump\t// in\n        tag_69:\n            /* \"contracts/parque/ERC20.sol\":3349:3357  balances */\n          0x00\n            /* \"contracts/parque/ERC20.sol\":3349:3364  balances[owner] */\n          dup1\n            /* \"contracts/parque/ERC20.sol\":3358:3363  owner */\n          dup7\n            /* \"contracts/parque/ERC20.sol\":3349:3364  balances[owner] */\n          0xffffffffffffffffffffffffffffffffffffffff\n          and\n          0xffffffffffffffffffffffffffffffffffffffff\n          and\n          dup2\n          mstore\n          0x20\n          add\n          swap1\n          dup2\n          mstore\n          0x20\n          add\n          0x00\n          keccak256\n            /* \"contracts/parque/ERC20.sol\":3349:3397  balances[owner] = balances[owner].sub(numTokens) */\n          dup2\n          swap1\n          sstore\n          pop\n            /* \"contracts/parque/ERC20.sol\":3437:3478  allowed[owner][msg.sender].sub(numTokens) */\n          tag_71\n            /* \"contracts/parque/ERC20.sol\":3468:3477  numTokens */\n          dup3\n            /* \"contracts/parque/ERC20.sol\":3437:3444  allowed */\n          0x01\n            /* \"contracts/parque/ERC20.sol\":3437:3451  allowed[owner] */\n          0x00\n            /* \"contracts/parque/ERC20.sol\":3445:3450  owner */\n          dup8\n            /* \"contracts/parque/ERC20.sol\":3437:3451  allowed[owner] */\n          0xffffffffffffffffffffffffffffffffffffffff\n          and\n          0xffffffffffffffffffffffffffffffffffffffff\n          and\n          dup2\n          mstore\n          0x20\n          add\n          swap1\n          dup2\n          mstore\n          0x20\n          add\n          0x00\n          keccak256\n            /* \"contracts/parque/ERC20.sol\":3437:3463  allowed[owner][msg.sender] */\n          0x00\n            /* \"contracts/parque/ERC20.sol\":3452:3462  msg.sender */\n          caller\n            /* \"contracts/parque/ERC20.sol\":3437:3463  allowed[owner][msg.sender] */\n          0xffffffffffffffffffffffffffffffffffffffff\n          and\n          0xffffffffffffffffffffffffffffffffffffffff\n          and\n          dup2\n          mstore\n          0x20\n          add\n          swap1\n          dup2\n          mstore\n          0x20\n          add\n          0x00\n          keccak256\n          sload\n            /* \"contracts/parque/ERC20.sol\":3437:3467  allowed[owner][msg.sender].sub */\n          tag_70\n          swap1\n            /* \"contracts/parque/ERC20.sol\":3437:3478  allowed[owner][msg.sender].sub(numTokens) */\n          swap2\n          swap1\n          0xffffffff\n          and\n          jump\t// in\n        tag_71:\n            /* \"contracts/parque/ERC20.sol\":3408:3415  allowed */\n          0x01\n            /* \"contracts/parque/ERC20.sol\":3408:3422  allowed[owner] */\n          0x00\n            /* \"contracts/parque/ERC20.sol\":3416:3421  owner */\n          dup7\n            /* \"contracts/parque/ERC20.sol\":3408:3422  allowed[owner] */\n          0xffffffffffffffffffffffffffffffffffffffff\n          and\n          0xffffffffffffffffffffffffffffffffffffffff\n          and\n          dup2\n          mstore\n          0x20\n          add\n          swap1\n          dup2\n          mstore\n          0x20\n          add\n          0x00\n          keccak256\n            /* \"contracts/parque/ERC20.sol\":3408:3434  allowed[owner][msg.sender] */\n          0x00\n            /* \"contracts/parque/ERC20.sol\":3423:3433  msg.sender */\n          caller\n            /* \"contracts/parque/ERC20.sol\":3408:3434  allowed[owner][msg.sender] */\n          0xffffffffffffffffffffffffffffffffffffffff\n          and\n          0xffffffffffffffffffffffffffffffffffffffff\n          and\n          dup2\n          mstore\n          0x20\n          add\n          swap1\n          dup2\n          mstore\n          0x20\n          add\n          0x00\n          keccak256\n            /* \"contracts/parque/ERC20.sol\":3408:3478  allowed[owner][msg.sender] = allowed[owner][msg.sender].sub(numTokens) */\n          dup2\n          swap1\n          sstore\n          pop\n            /* \"contracts/parque/ERC20.sol\":3507:3537  balances[buyer].add(numTokens) */\n          tag_72\n            /* \"contracts/parque/ERC20.sol\":3527:3536  numTokens */\n          dup3\n            /* \"contracts/parque/ERC20.sol\":3507:3515  balances */\n          0x00\n            /* \"contracts/parque/ERC20.sol\":3507:3522  balances[buyer] */\n          dup1\n            /* \"contracts/parque/ERC20.sol\":3516:3521  buyer */\n          dup7\n            /* \"contracts/parque/ERC20.sol\":3507:3522  balances[buyer] */\n          0xffffffffffffffffffffffffffffffffffffffff\n          and\n          0xffffffffffffffffffffffffffffffffffffffff\n          and\n          dup2\n          mstore\n          0x20\n          add\n          swap1\n          dup2\n          mstore\n          0x20\n          add\n          0x00\n          keccak256\n          sload\n            /* \"contracts/parque/ERC20.sol\":3507:3526  balances[buyer].add */\n          tag_73\n          swap1\n            /* \"contracts/parque/ERC20.sol\":3507:3537  balances[buyer].add(numTokens) */\n          swap2\n          swap1\n          0xffffffff\n          and\n          jump\t// in\n        tag_72:\n            /* \"contracts/parque/ERC20.sol\":3489:3497  balances */\n          0x00\n            /* \"contracts/parque/ERC20.sol\":3489:3504  balances[buyer] */\n          dup1\n            /* \"contracts/parque/ERC20.sol\":3498:3503  buyer */\n          dup6\n            /* \"contracts/parque/ERC20.sol\":3489:3504  balances[buyer] */\n          0xffffffffffffffffffffffffffffffffffffffff\n          and\n          0xffffffffffffffffffffffffffffffffffffffff\n          and\n          dup2\n          mstore\n          0x20\n          add\n          swap1\n          dup2\n          mstore\n          0x20\n          add\n          0x00\n          keccak256\n            /* \"contracts/parque/ERC20.sol\":3489:3537  balances[buyer] = balances[buyer].add(numTokens) */\n          dup2\n          swap1\n          sstore\n          pop\n            /* \"contracts/parque/ERC20.sol\":3568:3573  buyer */\n          dup3\n            /* \"contracts/parque/ERC20.sol\":3553:3584  Transfer(owner,buyer,numTokens) */\n          0xffffffffffffffffffffffffffffffffffffffff\n          and\n            /* \"contracts/parque/ERC20.sol\":3562:3567  owner */\n          dup5\n            /* \"contracts/parque/ERC20.sol\":3553:3584  Transfer(owner,buyer,numTokens) */\n          0xffffffffffffffffffffffffffffffffffffffff\n          and\n          0xddf252ad1be2c89b69c2b068fc378daa952ba7f163c4a11628f55a4df523b3ef\n            /* \"contracts/parque/ERC20.sol\":3574:3583  numTokens */\n          dup5\n            /* \"contracts/parque/ERC20.sol\":3553:3584  Transfer(owner,buyer,numTokens) */\n          mload(0x40)\n          tag_74\n          swap2\n          swap1\n          jump(tag_28)\n        tag_74:\n          mload(0x40)\n          dup1\n          swap2\n          sub\n          swap1\n          log3\n            /* \"contracts/parque/ERC20.sol\":3602:3606  true */\n          0x01\n            /* \"contracts/parque/ERC20.sol\":3595:3606  return true */\n          swap1\n          pop\n            /* \"contracts/parque/ERC20.sol\":3118:3614  function transferFrom(address owner, address buyer, uint256 numTokens) public override returns (bool){\r... */\n          swap4\n          swap3\n          pop\n          pop\n          pop\n          jump\t// out\n            /* \"contracts/parque/ERC20.sol\":1059:1093  uint8 public constant decimals = 2 */\n        tag_35:\n            /* \"contracts/parque/ERC20.sol\":1092:1093  2 */\n          0x02\n            /* \"contracts/parque/ERC20.sol\":1059:1093  uint8 public constant decimals = 2 */\n          dup2\n          jump\t// out\n            /* \"contracts/parque/ERC20.sol\":1693:1831  function increaseTotalSuply(uint newTokens) public{\r... */\n        tag_41:\n            /* \"contracts/parque/ERC20.sol\":1770:1779  newTokens */\n          dup1\n            /* \"contracts/parque/ERC20.sol\":1754:1766  totalSupply_ */\n          0x02\n          0x00\n            /* \"contracts/parque/ERC20.sol\":1754:1779  totalSupply_ += newTokens */\n          dup3\n          dup3\n          sload\n          add\n          swap3\n          pop\n          pop\n          dup2\n          swap1\n          sstore\n          pop\n            /* \"contracts/parque/ERC20.sol\":1814:1823  newTokens */\n          dup1\n            /* \"contracts/parque/ERC20.sol\":1790:1798  balances */\n          0x00\n            /* \"contracts/parque/ERC20.sol\":1790:1810  balances[msg.sender] */\n          dup1\n            /* \"contracts/parque/ERC20.sol\":1799:1809  msg.sender */\n          caller\n            /* \"contracts/parque/ERC20.sol\":1790:1810  balances[msg.sender] */\n          0xffffffffffffffffffffffffffffffffffffffff\n          and\n          0xffffffffffffffffffffffffffffffffffffffff\n          and\n          dup2\n          mstore\n          0x20\n          add\n          swap1\n          dup2\n          mstore\n          0x20\n          add\n          0x00\n          keccak256\n          0x00\n            /* \"contracts/parque/ERC20.sol\":1790:1823  balances[msg.sender] += newTokens */\n          dup3\n          dup3\n          sload\n          add\n          swap3\n          pop\n          pop\n          dup2\n          swap1\n          sstore\n          pop\n            /* \"contracts/parque/ERC20.sol\":1693:1831  function increaseTotalSuply(uint newTokens) public{\r... */\n          pop\n          jump\t// out\n            /* \"contracts/parque/ERC20.sol\":1843:1967  function balanceOf (address tokenOwner) public override view returns (uint256){\r... */\n        tag_45:\n            /* \"contracts/parque/ERC20.sol\":1913:1920  uint256 */\n          0x00\n            /* \"contracts/parque/ERC20.sol\":1939:1947  balances */\n          dup1\n            /* \"contracts/parque/ERC20.sol\":1939:1959  balances[tokenOwner] */\n          0x00\n            /* \"contracts/parque/ERC20.sol\":1948:1958  tokenOwner */\n          dup4\n            /* \"contracts/parque/ERC20.sol\":1939:1959  balances[tokenOwner] */\n          0xffffffffffffffffffffffffffffffffffffffff\n          and\n          0xffffffffffffffffffffffffffffffffffffffff\n          and\n          dup2\n          mstore\n          0x20\n          add\n          swap1\n          dup2\n          mstore\n          0x20\n          add\n          0x00\n          keccak256\n          sload\n            /* \"contracts/parque/ERC20.sol\":1932:1959  return balances[tokenOwner] */\n          swap1\n          pop\n            /* \"contracts/parque/ERC20.sol\":1843:1967  function balanceOf (address tokenOwner) public override view returns (uint256){\r... */\n          swap2\n          swap1\n          pop\n          jump\t// out\n            /* \"contracts/parque/ERC20.sol\":1009:1052  string public constant symbol = \"JBJ-TOKEN\" */\n        tag_48:\n          mload(0x40)\n          dup1\n          0x40\n          add\n          0x40\n          mstore\n          dup1\n          0x09\n          dup2\n          mstore\n          0x20\n          add\n          0x4a424a2d544f4b454e0000000000000000000000000000000000000000000000\n          dup2\n          mstore\n          pop\n          dup2\n          jump\t// out\n            /* \"contracts/parque/ERC20.sol\":1979:2336  function transfer(address receiver, uint256 numTokens) public override returns (bool){\r... */\n        tag_52:\n            /* \"contracts/parque/ERC20.sol\":2059:2063  bool */\n          0x00\n            /* \"contracts/parque/ERC20.sol\":2096:2104  balances */\n          dup1\n            /* \"contracts/parque/ERC20.sol\":2096:2116  balances[msg.sender] */\n          0x00\n            /* \"contracts/parque/ERC20.sol\":2105:2115  msg.sender */\n          caller\n            /* \"contracts/parque/ERC20.sol\":2096:2116  balances[msg.sender] */\n          0xffffffffffffffffffffffffffffffffffffffff\n          and\n          0xffffffffffffffffffffffffffffffffffffffff\n          and\n          dup2\n          mstore\n          0x20\n          add\n          swap1\n          dup2\n          mstore\n          0x20\n          add\n          0x00\n          keccak256\n          sload\n            /* \"contracts/parque/ERC20.sol\":2083:2092  numTokens */\n          dup3\n            /* \"contracts/parque/ERC20.sol\":2083:2116  numTokens <= balances[msg.sender] */\n          gt\n          iszero\n            /* \"contracts/parque/ERC20.sol\":2075:2117  require(numTokens <= balances[msg.sender]) */\n          tag_78\n          jumpi\n            /* \"--CODEGEN--\":12:13   */\n          0x00\n            /* \"--CODEGEN--\":9:10   */\n          dup1\n            /* \"--CODEGEN--\":2:14   */\n          revert\n            /* \"contracts/parque/ERC20.sol\":2075:2117  require(numTokens <= balances[msg.sender]) */\n        tag_78:\n            /* \"contracts/parque/ERC20.sol\":2151:2186  balances[msg.sender].sub(numTokens) */\n          tag_79\n            /* \"contracts/parque/ERC20.sol\":2176:2185  numTokens */\n          dup3\n            /* \"contracts/parque/ERC20.sol\":2151:2159  balances */\n          0x00\n            /* \"contracts/parque/ERC20.sol\":2151:2171  balances[msg.sender] */\n          dup1\n            /* \"contracts/parque/ERC20.sol\":2160:2170  msg.sender */\n          caller\n            /* \"contracts/parque/ERC20.sol\":2151:2171  balances[msg.sender] */\n          0xffffffffffffffffffffffffffffffffffffffff\n          and\n          0xffffffffffffffffffffffffffffffffffffffff\n          and\n          dup2\n          mstore\n          0x20\n          add\n          swap1\n          dup2\n          mstore\n          0x20\n          add\n          0x00\n          keccak256\n          sload\n            /* \"contracts/parque/ERC20.sol\":2151:2175  balances[msg.sender].sub */\n          tag_70\n          swap1\n            /* \"contracts/parque/ERC20.sol\":2151:2186  balances[msg.sender].sub(numTokens) */\n          swap2\n          swap1\n          0xffffffff\n          and\n          jump\t// in\n        tag_79:\n            /* \"contracts/parque/ERC20.sol\":2128:2136  balances */\n          0x00\n            /* \"contracts/parque/ERC20.sol\":2128:2148  balances[msg.sender] */\n          dup1\n            /* \"contracts/parque/ERC20.sol\":2137:2147  msg.sender */\n          caller\n            /* \"contracts/parque/ERC20.sol\":2128:2148  balances[msg.sender] */\n          0xffffffffffffffffffffffffffffffffffffffff\n          and\n          0xffffffffffffffffffffffffffffffffffffffff\n          and\n          dup2\n          mstore\n          0x20\n          add\n          swap1\n          dup2\n          mstore\n          0x20\n          add\n          0x00\n          keccak256\n            /* \"contracts/parque/ERC20.sol\":2128:2186  balances[msg.sender] = balances[msg.sender].sub(numTokens) */\n          dup2\n          swap1\n          sstore\n          pop\n            /* \"contracts/parque/ERC20.sol\":2218:2251  balances[receiver].add(numTokens) */\n          tag_80\n            /* \"contracts/parque/ERC20.sol\":2241:2250  numTokens */\n          dup3\n            /* \"contracts/parque/ERC20.sol\":2218:2226  balances */\n          0x00\n            /* \"contracts/parque/ERC20.sol\":2218:2236  balances[receiver] */\n          dup1\n            /* \"contracts/parque/ERC20.sol\":2227:2235  receiver */\n          dup7\n            /* \"contracts/parque/ERC20.sol\":2218:2236  balances[receiver] */\n          0xffffffffffffffffffffffffffffffffffffffff\n          and\n          0xffffffffffffffffffffffffffffffffffffffff\n          and\n          dup2\n          mstore\n          0x20\n          add\n          swap1\n          dup2\n          mstore\n          0x20\n          add\n          0x00\n          keccak256\n          sload\n            /* \"contracts/parque/ERC20.sol\":2218:2240  balances[receiver].add */\n          tag_73\n          swap1\n            /* \"contracts/parque/ERC20.sol\":2218:2251  balances[receiver].add(numTokens) */\n          swap2\n          swap1\n          0xffffffff\n          and\n          jump\t// in\n        tag_80:\n            /* \"contracts/parque/ERC20.sol\":2197:2205  balances */\n          0x00\n            /* \"contracts/parque/ERC20.sol\":2197:2215  balances[receiver] */\n          dup1\n            /* \"contracts/parque/ERC20.sol\":2206:2214  receiver */\n          dup6\n            /* \"contracts/parque/ERC20.sol\":2197:2215  balances[receiver] */\n          0xffffffffffffffffffffffffffffffffffffffff\n          and\n          0xffffffffffffffffffffffffffffffffffffffff\n          and\n          dup2\n          mstore\n          0x20\n          add\n          swap1\n          dup2\n          mstore\n          0x20\n          add\n          0x00\n          keccak256\n            /* \"contracts/parque/ERC20.sol\":2197:2251  balances[receiver] = balances[receiver].add(numTokens) */\n          dup2\n          swap1\n          sstore\n          pop\n            /* \"contracts/parque/ERC20.sol\":2287:2295  receiver */\n          dup3\n            /* \"contracts/parque/ERC20.sol\":2267:2306  Transfer(msg.sender,receiver,numTokens) */\n          0xffffffffffffffffffffffffffffffffffffffff\n          and\n            /* \"contracts/parque/ERC20.sol\":2276:2286  msg.sender */\n          caller\n            /* \"contracts/parque/ERC20.sol\":2267:2306  Transfer(msg.sender,receiver,numTokens) */\n          0xffffffffffffffffffffffffffffffffffffffff\n          and\n          0xddf252ad1be2c89b69c2b068fc378daa952ba7f163c4a11628f55a4df523b3ef\n            /* \"contracts/parque/ERC20.sol\":2296:2305  numTokens */\n          dup5\n            /* \"contracts/parque/ERC20.sol\":2267:2306  Transfer(msg.sender,receiver,numTokens) */\n          mload(0x40)\n          tag_81\n          swap2\n          swap1\n          jump(tag_28)\n        tag_81:\n          mload(0x40)\n          dup1\n          swap2\n          sub\n          swap1\n          log3\n            /* \"contracts/parque/ERC20.sol\":2324:2328  true */\n          0x01\n            /* \"contracts/parque/ERC20.sol\":2317:2328  return true */\n          swap1\n          pop\n            /* \"contracts/parque/ERC20.sol\":1979:2336  function transfer(address receiver, uint256 numTokens) public override returns (bool){\r... */\n          swap3\n          swap2\n          pop\n          pop\n          jump\t// out\n            /* \"contracts/parque/ERC20.sol\":2968:3106  function allowance (address owner, address delegate) public override view returns (uint){\r... */\n        tag_57:\n            /* \"contracts/parque/ERC20.sol\":3051:3055  uint */\n          0x00\n            /* \"contracts/parque/ERC20.sol\":3074:3081  allowed */\n          0x01\n            /* \"contracts/parque/ERC20.sol\":3074:3088  allowed[owner] */\n          0x00\n            /* \"contracts/parque/ERC20.sol\":3082:3087  owner */\n          dup5\n            /* \"contracts/parque/ERC20.sol\":3074:3088  allowed[owner] */\n          0xffffffffffffffffffffffffffffffffffffffff\n          and\n          0xffffffffffffffffffffffffffffffffffffffff\n          and\n          dup2\n          mstore\n          0x20\n          add\n          swap1\n          dup2\n          mstore\n          0x20\n          add\n          0x00\n          keccak256\n            /* \"contracts/parque/ERC20.sol\":3074:3098  allowed[owner][delegate] */\n          0x00\n            /* \"contracts/parque/ERC20.sol\":3089:3097  delegate */\n          dup4\n            /* \"contracts/parque/ERC20.sol\":3074:3098  allowed[owner][delegate] */\n          0xffffffffffffffffffffffffffffffffffffffff\n          and\n          0xffffffffffffffffffffffffffffffffffffffff\n          and\n          dup2\n          mstore\n          0x20\n          add\n          swap1\n          dup2\n          mstore\n          0x20\n          add\n          0x00\n          keccak256\n          sload\n            /* \"contracts/parque/ERC20.sol\":3067:3098  return allowed[owner][delegate] */\n          swap1\n          pop\n            /* \"contracts/parque/ERC20.sol\":2968:3106  function allowance (address owner, address delegate) public override view returns (uint){\r... */\n          swap3\n          swap2\n          pop\n          pop\n          jump\t// out\n            /* \"contracts/parque/ERC20.sol\":2349:2718  function transferencia_disney(address sender, address receiver, uint256 numTokens) public override returns (bool){\r... */\n        tag_61:\n            /* \"contracts/parque/ERC20.sol\":2457:2461  bool */\n          0x00\n            /* \"contracts/parque/ERC20.sol\":2494:2502  balances */\n          dup1\n            /* \"contracts/parque/ERC20.sol\":2494:2510  balances[sender] */\n          0x00\n            /* \"contracts/parque/ERC20.sol\":2503:2509  sender */\n          dup6\n            /* \"contracts/parque/ERC20.sol\":2494:2510  balances[sender] */\n          0xffffffffffffffffffffffffffffffffffffffff\n          and\n          0xffffffffffffffffffffffffffffffffffffffff\n          and\n          dup2\n          mstore\n          0x20\n          add\n          swap1\n          dup2\n          mstore\n          0x20\n          add\n          0x00\n          keccak256\n          sload\n            /* \"contracts/parque/ERC20.sol\":2481:2490  numTokens */\n          dup3\n            /* \"contracts/parque/ERC20.sol\":2481:2510  numTokens <= balances[sender] */\n          gt\n          iszero\n            /* \"contracts/parque/ERC20.sol\":2473:2511  require(numTokens <= balances[sender]) */\n          tag_84\n          jumpi\n            /* \"--CODEGEN--\":12:13   */\n          0x00\n            /* \"--CODEGEN--\":9:10   */\n          dup1\n            /* \"--CODEGEN--\":2:14   */\n          revert\n            /* \"contracts/parque/ERC20.sol\":2473:2511  require(numTokens <= balances[sender]) */\n        tag_84:\n            /* \"contracts/parque/ERC20.sol\":2541:2572  balances[sender].sub(numTokens) */\n          tag_85\n            /* \"contracts/parque/ERC20.sol\":2562:2571  numTokens */\n          dup3\n            /* \"contracts/parque/ERC20.sol\":2541:2549  balances */\n          0x00\n            /* \"contracts/parque/ERC20.sol\":2541:2557  balances[sender] */\n          dup1\n            /* \"contracts/parque/ERC20.sol\":2550:2556  sender */\n          dup8\n            /* \"contracts/parque/ERC20.sol\":2541:2557  balances[sender] */\n          0xffffffffffffffffffffffffffffffffffffffff\n          and\n          0xffffffffffffffffffffffffffffffffffffffff\n          and\n          dup2\n          mstore\n          0x20\n          add\n          swap1\n          dup2\n          mstore\n          0x20\n          add\n          0x00\n          keccak256\n          sload\n            /* \"contracts/parque/ERC20.sol\":2541:2561  balances[sender].sub */\n          tag_70\n          swap1\n            /* \"contracts/parque/ERC20.sol\":2541:2572  balances[sender].sub(numTokens) */\n          swap2\n          swap1\n          0xffffffff\n          and\n          jump\t// in\n        tag_85:\n            /* \"contracts/parque/ERC20.sol\":2522:2530  balances */\n          0x00\n            /* \"contracts/parque/ERC20.sol\":2522:2538  balances[sender] */\n          dup1\n            /* \"contracts/parque/ERC20.sol\":2531:2537  sender */\n          dup7\n            /* \"contracts/parque/ERC20.sol\":2522:2538  balances[sender] */\n          0xffffffffffffffffffffffffffffffffffffffff\n          and\n          0xffffffffffffffffffffffffffffffffffffffff\n          and\n          dup2\n          mstore\n          0x20\n          add\n          swap1\n          dup2\n          mstore\n          0x20\n          add\n          0x00\n          keccak256\n            /* \"contracts/parque/ERC20.sol\":2522:2572  balances[sender] = balances[sender].sub(numTokens) */\n          dup2\n          swap1\n          sstore\n          pop\n            /* \"contracts/parque/ERC20.sol\":2604:2637  balances[receiver].add(numTokens) */\n          tag_86\n            /* \"contracts/parque/ERC20.sol\":2627:2636  numTokens */\n          dup3\n            /* \"contracts/parque/ERC20.sol\":2604:2612  balances */\n          0x00\n            /* \"contracts/parque/ERC20.sol\":2604:2622  balances[receiver] */\n          dup1\n            /* \"contracts/parque/ERC20.sol\":2613:2621  receiver */\n          dup7\n            /* \"contracts/parque/ERC20.sol\":2604:2622  balances[receiver] */\n          0xffffffffffffffffffffffffffffffffffffffff\n          and\n          0xffffffffffffffffffffffffffffffffffffffff\n          and\n          dup2\n          mstore\n          0x20\n          add\n          swap1\n          dup2\n          mstore\n          0x20\n          add\n          0x00\n          keccak256\n          sload\n            /* \"contracts/parque/ERC20.sol\":2604:2626  balances[receiver].add */\n          tag_73\n          swap1\n            /* \"contracts/parque/ERC20.sol\":2604:2637  balances[receiver].add(numTokens) */\n          swap2\n          swap1\n          0xffffffff\n          and\n          jump\t// in\n        tag_86:\n            /* \"contracts/parque/ERC20.sol\":2583:2591  balances */\n          0x00\n            /* \"contracts/parque/ERC20.sol\":2583:2601  balances[receiver] */\n          dup1\n            /* \"contracts/parque/ERC20.sol\":2592:2600  receiver */\n          dup6\n            /* \"contracts/parque/ERC20.sol\":2583:2601  balances[receiver] */\n          0xffffffffffffffffffffffffffffffffffffffff\n          and\n          0xffffffffffffffffffffffffffffffffffffffff\n          and\n          dup2\n          mstore\n          0x20\n          add\n          swap1\n          dup2\n          mstore\n          0x20\n          add\n          0x00\n          keccak256\n            /* \"contracts/parque/ERC20.sol\":2583:2637  balances[receiver] = balances[receiver].add(numTokens) */\n          dup2\n          swap1\n          sstore\n          pop\n            /* \"contracts/parque/ERC20.sol\":2669:2677  receiver */\n          dup3\n            /* \"contracts/parque/ERC20.sol\":2653:2688  Transfer(sender,receiver,numTokens) */\n          0xffffffffffffffffffffffffffffffffffffffff\n          and\n            /* \"contracts/parque/ERC20.sol\":2662:2668  sender */\n          dup5\n            /* \"contracts/parque/ERC20.sol\":2653:2688  Transfer(sender,receiver,numTokens) */\n          0xffffffffffffffffffffffffffffffffffffffff\n          and\n          0xddf252ad1be2c89b69c2b068fc378daa952ba7f163c4a11628f55a4df523b3ef\n            /* \"contracts/parque/ERC20.sol\":2678:2687  numTokens */\n          dup5\n            /* \"contracts/parque/ERC20.sol\":2653:2688  Transfer(sender,receiver,numTokens) */\n          mload(0x40)\n          tag_87\n          swap2\n          swap1\n          jump(tag_28)\n        tag_87:\n          mload(0x40)\n          dup1\n          swap2\n          sub\n          swap1\n          log3\n            /* \"contracts/parque/ERC20.sol\":2706:2710  true */\n          0x01\n            /* \"contracts/parque/ERC20.sol\":2699:2710  return true */\n          swap1\n          pop\n            /* \"contracts/parque/ERC20.sol\":2349:2718  function transferencia_disney(address sender, address receiver, uint256 numTokens) public override returns (bool){\r... */\n          swap4\n          swap3\n          pop\n          pop\n          pop\n          jump\t// out\n            /* \"contracts/parque/SafeMath.sol\":322:441  function sub(uint256 a, uint256 b) internal pure returns (uint256) {\r... */\n        tag_70:\n            /* \"contracts/parque/SafeMath.sol\":380:387  uint256 */\n          0x00\n            /* \"contracts/parque/SafeMath.sol\":410:411  a */\n          dup3\n            /* \"contracts/parque/SafeMath.sol\":405:406  b */\n          dup3\n            /* \"contracts/parque/SafeMath.sol\":405:411  b <= a */\n          gt\n          iszero\n            /* \"contracts/parque/SafeMath.sol\":398:412  assert(b <= a) */\n          tag_89\n          jumpi\n          invalid\n        tag_89:\n            /* \"contracts/parque/SafeMath.sol\":432:433  b */\n          dup2\n            /* \"contracts/parque/SafeMath.sol\":428:429  a */\n          dup4\n            /* \"contracts/parque/SafeMath.sol\":428:433  a - b */\n          sub\n            /* \"contracts/parque/SafeMath.sol\":421:433  return a - b */\n          swap1\n          pop\n            /* \"contracts/parque/SafeMath.sol\":322:441  function sub(uint256 a, uint256 b) internal pure returns (uint256) {\r... */\n          swap3\n          swap2\n          pop\n          pop\n          jump\t// out\n            /* \"contracts/parque/SafeMath.sol\":467:608  function add(uint256 a, uint256 b) internal pure returns (uint256) {\r... */\n        tag_73:\n            /* \"contracts/parque/SafeMath.sol\":525:532  uint256 */\n          0x00\n            /* \"contracts/parque/SafeMath.sol\":543:552  uint256 c */\n          dup1\n            /* \"contracts/parque/SafeMath.sol\":559:560  b */\n          dup3\n            /* \"contracts/parque/SafeMath.sol\":555:556  a */\n          dup5\n            /* \"contracts/parque/SafeMath.sol\":555:560  a + b */\n          add\n            /* \"contracts/parque/SafeMath.sol\":543:560  uint256 c = a + b */\n          swap1\n          pop\n            /* \"contracts/parque/SafeMath.sol\":581:582  a */\n          dup4\n            /* \"contracts/parque/SafeMath.sol\":576:577  c */\n          dup2\n            /* \"contracts/parque/SafeMath.sol\":576:582  c >= a */\n          lt\n          iszero\n            /* \"contracts/parque/SafeMath.sol\":569:583  assert(c >= a) */\n          tag_91\n          jumpi\n          invalid\n        tag_91:\n            /* \"contracts/parque/SafeMath.sol\":599:600  c */\n          dup1\n            /* \"contracts/parque/SafeMath.sol\":592:600  return c */\n          swap2\n          pop\n          pop\n            /* \"contracts/parque/SafeMath.sol\":467:608  function add(uint256 a, uint256 b) internal pure returns (uint256) {\r... */\n          swap3\n          swap2\n          pop\n          pop\n          jump\t// out\n            /* \"--CODEGEN--\":5:135   */\n        tag_93:\n          0x00\n            /* \"--CODEGEN--\":85:91   */\n          dup2\n            /* \"--CODEGEN--\":72:92   */\n          calldataload\n            /* \"--CODEGEN--\":63:92   */\n          swap1\n          pop\n            /* \"--CODEGEN--\":97:130   */\n          tag_95\n            /* \"--CODEGEN--\":124:129   */\n          dup2\n            /* \"--CODEGEN--\":97:130   */\n          jump(tag_96)\n        tag_95:\n            /* \"--CODEGEN--\":57:135   */\n          swap3\n          swap2\n          pop\n          pop\n          jump\n            /* \"--CODEGEN--\":142:272   */\n        tag_97:\n          0x00\n            /* \"--CODEGEN--\":222:228   */\n          dup2\n            /* \"--CODEGEN--\":209:229   */\n          calldataload\n            /* \"--CODEGEN--\":200:229   */\n          swap1\n          pop\n            /* \"--CODEGEN--\":234:267   */\n          tag_99\n            /* \"--CODEGEN--\":261:266   */\n          dup2\n            /* \"--CODEGEN--\":234:267   */\n          jump(tag_100)\n        tag_99:\n            /* \"--CODEGEN--\":194:272   */\n          swap3\n          swap2\n          pop\n          pop\n          jump\n            /* \"--CODEGEN--\":279:520   */\n        tag_44:\n          0x00\n            /* \"--CODEGEN--\":383:385   */\n          0x20\n            /* \"--CODEGEN--\":371:380   */\n          dup3\n            /* \"--CODEGEN--\":362:369   */\n          dup5\n            /* \"--CODEGEN--\":358:381   */\n          sub\n            /* \"--CODEGEN--\":354:386   */\n          slt\n            /* \"--CODEGEN--\":351:353   */\n          iszero\n          tag_102\n          jumpi\n            /* \"--CODEGEN--\":399:400   */\n          0x00\n            /* \"--CODEGEN--\":396:397   */\n          dup1\n            /* \"--CODEGEN--\":389:401   */\n          revert\n            /* \"--CODEGEN--\":351:353   */\n        tag_102:\n            /* \"--CODEGEN--\":434:435   */\n          0x00\n            /* \"--CODEGEN--\":451:504   */\n          tag_103\n            /* \"--CODEGEN--\":496:503   */\n          dup5\n            /* \"--CODEGEN--\":487:493   */\n          dup3\n            /* \"--CODEGEN--\":476:485   */\n          dup6\n            /* \"--CODEGEN--\":472:494   */\n          add\n            /* \"--CODEGEN--\":451:504   */\n          jump(tag_93)\n        tag_103:\n            /* \"--CODEGEN--\":441:504   */\n          swap2\n          pop\n            /* \"--CODEGEN--\":413:510   */\n          pop\n            /* \"--CODEGEN--\":345:520   */\n          swap3\n          swap2\n          pop\n          pop\n          jump\n            /* \"--CODEGEN--\":527:893   */\n        tag_56:\n          0x00\n          dup1\n            /* \"--CODEGEN--\":648:650   */\n          0x40\n            /* \"--CODEGEN--\":636:645   */\n          dup4\n            /* \"--CODEGEN--\":627:634   */\n          dup6\n            /* \"--CODEGEN--\":623:646   */\n          sub\n            /* \"--CODEGEN--\":619:651   */\n          slt\n            /* \"--CODEGEN--\":616:618   */\n          iszero\n          tag_105\n          jumpi\n            /* \"--CODEGEN--\":664:665   */\n          0x00\n            /* \"--CODEGEN--\":661:662   */\n          dup1\n            /* \"--CODEGEN--\":654:666   */\n          revert\n            /* \"--CODEGEN--\":616:618   */\n        tag_105:\n            /* \"--CODEGEN--\":699:700   */\n          0x00\n            /* \"--CODEGEN--\":716:769   */\n          tag_106\n            /* \"--CODEGEN--\":761:768   */\n          dup6\n            /* \"--CODEGEN--\":752:758   */\n          dup3\n            /* \"--CODEGEN--\":741:750   */\n          dup7\n            /* \"--CODEGEN--\":737:759   */\n          add\n            /* \"--CODEGEN--\":716:769   */\n          jump(tag_93)\n        tag_106:\n            /* \"--CODEGEN--\":706:769   */\n          swap3\n          pop\n            /* \"--CODEGEN--\":678:775   */\n          pop\n            /* \"--CODEGEN--\":806:808   */\n          0x20\n            /* \"--CODEGEN--\":824:877   */\n          tag_107\n            /* \"--CODEGEN--\":869:876   */\n          dup6\n            /* \"--CODEGEN--\":860:866   */\n          dup3\n            /* \"--CODEGEN--\":849:858   */\n          dup7\n            /* \"--CODEGEN--\":845:867   */\n          add\n            /* \"--CODEGEN--\":824:877   */\n          jump(tag_93)\n        tag_107:\n            /* \"--CODEGEN--\":814:877   */\n          swap2\n          pop\n            /* \"--CODEGEN--\":785:883   */\n          pop\n            /* \"--CODEGEN--\":610:893   */\n          swap3\n          pop\n          swap3\n          swap1\n          pop\n          jump\n            /* \"--CODEGEN--\":900:1391   */\n        tag_31:\n          0x00\n          dup1\n          0x00\n            /* \"--CODEGEN--\":1038:1040   */\n          0x60\n            /* \"--CODEGEN--\":1026:1035   */\n          dup5\n            /* \"--CODEGEN--\":1017:1024   */\n          dup7\n            /* \"--CODEGEN--\":1013:1036   */\n          sub\n            /* \"--CODEGEN--\":1009:1041   */\n          slt\n            /* \"--CODEGEN--\":1006:1008   */\n          iszero\n          tag_109\n          jumpi\n            /* \"--CODEGEN--\":1054:1055   */\n          0x00\n            /* \"--CODEGEN--\":1051:1052   */\n          dup1\n            /* \"--CODEGEN--\":1044:1056   */\n          revert\n            /* \"--CODEGEN--\":1006:1008   */\n        tag_109:\n            /* \"--CODEGEN--\":1089:1090   */\n          0x00\n            /* \"--CODEGEN--\":1106:1159   */\n          tag_110\n            /* \"--CODEGEN--\":1151:1158   */\n          dup7\n            /* \"--CODEGEN--\":1142:1148   */\n          dup3\n            /* \"--CODEGEN--\":1131:1140   */\n          dup8\n            /* \"--CODEGEN--\":1127:1149   */\n          add\n            /* \"--CODEGEN--\":1106:1159   */\n          jump(tag_93)\n        tag_110:\n            /* \"--CODEGEN--\":1096:1159   */\n          swap4\n          pop\n            /* \"--CODEGEN--\":1068:1165   */\n          pop\n            /* \"--CODEGEN--\":1196:1198   */\n          0x20\n            /* \"--CODEGEN--\":1214:1267   */\n          tag_111\n            /* \"--CODEGEN--\":1259:1266   */\n          dup7\n            /* \"--CODEGEN--\":1250:1256   */\n          dup3\n            /* \"--CODEGEN--\":1239:1248   */\n          dup8\n            /* \"--CODEGEN--\":1235:1257   */\n          add\n            /* \"--CODEGEN--\":1214:1267   */\n          jump(tag_93)\n        tag_111:\n            /* \"--CODEGEN--\":1204:1267   */\n          swap3\n          pop\n            /* \"--CODEGEN--\":1175:1273   */\n          pop\n            /* \"--CODEGEN--\":1304:1306   */\n          0x40\n            /* \"--CODEGEN--\":1322:1375   */\n          tag_112\n            /* \"--CODEGEN--\":1367:1374   */\n          dup7\n            /* \"--CODEGEN--\":1358:1364   */\n          dup3\n            /* \"--CODEGEN--\":1347:1356   */\n          dup8\n            /* \"--CODEGEN--\":1343:1365   */\n          add\n            /* \"--CODEGEN--\":1322:1375   */\n          jump(tag_97)\n        tag_112:\n            /* \"--CODEGEN--\":1312:1375   */\n          swap2\n          pop\n            /* \"--CODEGEN--\":1283:1381   */\n          pop\n            /* \"--CODEGEN--\":1000:1391   */\n          swap3\n          pop\n          swap3\n          pop\n          swap3\n          jump\n            /* \"--CODEGEN--\":1398:1764   */\n        tag_21:\n          0x00\n          dup1\n            /* \"--CODEGEN--\":1519:1521   */\n          0x40\n            /* \"--CODEGEN--\":1507:1516   */\n          dup4\n            /* \"--CODEGEN--\":1498:1505   */\n          dup6\n            /* \"--CODEGEN--\":1494:1517   */\n          sub\n            /* \"--CODEGEN--\":1490:1522   */\n          slt\n            /* \"--CODEGEN--\":1487:1489   */\n          iszero\n          tag_114\n          jumpi\n            /* \"--CODEGEN--\":1535:1536   */\n          0x00\n            /* \"--CODEGEN--\":1532:1533   */\n          dup1\n            /* \"--CODEGEN--\":1525:1537   */\n          revert\n            /* \"--CODEGEN--\":1487:1489   */\n        tag_114:\n            /* \"--CODEGEN--\":1570:1571   */\n          0x00\n            /* \"--CODEGEN--\":1587:1640   */\n          tag_115\n            /* \"--CODEGEN--\":1632:1639   */\n          dup6\n            /* \"--CODEGEN--\":1623:1629   */\n          dup3\n            /* \"--CODEGEN--\":1612:1621   */\n          dup7\n            /* \"--CODEGEN--\":1608:1630   */\n          add\n            /* \"--CODEGEN--\":1587:1640   */\n          jump(tag_93)\n        tag_115:\n            /* \"--CODEGEN--\":1577:1640   */\n          swap3\n          pop\n            /* \"--CODEGEN--\":1549:1646   */\n          pop\n            /* \"--CODEGEN--\":1677:1679   */\n          0x20\n            /* \"--CODEGEN--\":1695:1748   */\n          tag_116\n            /* \"--CODEGEN--\":1740:1747   */\n          dup6\n            /* \"--CODEGEN--\":1731:1737   */\n          dup3\n            /* \"--CODEGEN--\":1720:1729   */\n          dup7\n            /* \"--CODEGEN--\":1716:1738   */\n          add\n            /* \"--CODEGEN--\":1695:1748   */\n          jump(tag_97)\n        tag_116:\n            /* \"--CODEGEN--\":1685:1748   */\n          swap2\n          pop\n            /* \"--CODEGEN--\":1656:1754   */\n          pop\n            /* \"--CODEGEN--\":1481:1764   */\n          swap3\n          pop\n          swap3\n          swap1\n          pop\n          jump\n            /* \"--CODEGEN--\":1771:2012   */\n        tag_40:\n          0x00\n            /* \"--CODEGEN--\":1875:1877   */\n          0x20\n            /* \"--CODEGEN--\":1863:1872   */\n          dup3\n            /* \"--CODEGEN--\":1854:1861   */\n          dup5\n            /* \"--CODEGEN--\":1850:1873   */\n          sub\n            /* \"--CODEGEN--\":1846:1878   */\n          slt\n            /* \"--CODEGEN--\":1843:1845   */\n          iszero\n          tag_118\n          jumpi\n            /* \"--CODEGEN--\":1891:1892   */\n          0x00\n            /* \"--CODEGEN--\":1888:1889   */\n          dup1\n            /* \"--CODEGEN--\":1881:1893   */\n          revert\n            /* \"--CODEGEN--\":1843:1845   */\n        tag_118:\n            /* \"--CODEGEN--\":1926:1927   */\n          0x00\n            /* \"--CODEGEN--\":1943:1996   */\n          tag_119\n            /* \"--CODEGEN--\":1988:1995   */\n          dup5\n            /* \"--CODEGEN--\":1979:1985   */\n          dup3\n            /* \"--CODEGEN--\":1968:1977   */\n          dup6\n            /* \"--CODEGEN--\":1964:1986   */\n          add\n            /* \"--CODEGEN--\":1943:1996   */\n          jump(tag_97)\n        tag_119:\n            /* \"--CODEGEN--\":1933:1996   */\n          swap2\n          pop\n            /* \"--CODEGEN--\":1905:2002   */\n          pop\n            /* \"--CODEGEN--\":1837:2012   */\n          swap3\n          swap2\n          pop\n          pop\n          jump\n            /* \"--CODEGEN--\":2019:2123   */\n        tag_120:\n            /* \"--CODEGEN--\":2096:2117   */\n          tag_122\n            /* \"--CODEGEN--\":2111:2116   */\n          dup2\n            /* \"--CODEGEN--\":2096:2117   */\n          jump(tag_123)\n        tag_122:\n            /* \"--CODEGEN--\":2091:2094   */\n          dup3\n            /* \"--CODEGEN--\":2084:2118   */\n          mstore\n            /* \"--CODEGEN--\":2078:2123   */\n          pop\n          pop\n          jump\n            /* \"--CODEGEN--\":2130:2477   */\n        tag_124:\n          0x00\n            /* \"--CODEGEN--\":2242:2281   */\n          tag_126\n            /* \"--CODEGEN--\":2275:2280   */\n          dup3\n            /* \"--CODEGEN--\":2242:2281   */\n          jump(tag_127)\n        tag_126:\n            /* \"--CODEGEN--\":2293:2364   */\n          tag_128\n            /* \"--CODEGEN--\":2357:2363   */\n          dup2\n            /* \"--CODEGEN--\":2352:2355   */\n          dup6\n            /* \"--CODEGEN--\":2293:2364   */\n          jump(tag_129)\n        tag_128:\n            /* \"--CODEGEN--\":2286:2364   */\n          swap4\n          pop\n            /* \"--CODEGEN--\":2369:2421   */\n          tag_130\n            /* \"--CODEGEN--\":2414:2420   */\n          dup2\n            /* \"--CODEGEN--\":2409:2412   */\n          dup6\n            /* \"--CODEGEN--\":2402:2406   */\n          0x20\n            /* \"--CODEGEN--\":2395:2400   */\n          dup7\n            /* \"--CODEGEN--\":2391:2407   */\n          add\n            /* \"--CODEGEN--\":2369:2421   */\n          jump(tag_131)\n        tag_130:\n            /* \"--CODEGEN--\":2442:2471   */\n          tag_132\n            /* \"--CODEGEN--\":2464:2470   */\n          dup2\n            /* \"--CODEGEN--\":2442:2471   */\n          jump(tag_133)\n        tag_132:\n            /* \"--CODEGEN--\":2437:2440   */\n          dup5\n            /* \"--CODEGEN--\":2433:2472   */\n          add\n            /* \"--CODEGEN--\":2426:2472   */\n          swap2\n          pop\n            /* \"--CODEGEN--\":2222:2477   */\n          pop\n          swap3\n          swap2\n          pop\n          pop\n          jump\n            /* \"--CODEGEN--\":2484:2597   */\n        tag_134:\n            /* \"--CODEGEN--\":2567:2591   */\n          tag_136\n            /* \"--CODEGEN--\":2585:2590   */\n          dup2\n            /* \"--CODEGEN--\":2567:2591   */\n          jump(tag_137)\n        tag_136:\n            /* \"--CODEGEN--\":2562:2565   */\n          dup3\n            /* \"--CODEGEN--\":2555:2592   */\n          mstore\n            /* \"--CODEGEN--\":2549:2597   */\n          pop\n          pop\n          jump\n            /* \"--CODEGEN--\":2604:2711   */\n        tag_138:\n            /* \"--CODEGEN--\":2683:2705   */\n          tag_140\n            /* \"--CODEGEN--\":2699:2704   */\n          dup2\n            /* \"--CODEGEN--\":2683:2705   */\n          jump(tag_141)\n        tag_140:\n            /* \"--CODEGEN--\":2678:2681   */\n          dup3\n            /* \"--CODEGEN--\":2671:2706   */\n          mstore\n            /* \"--CODEGEN--\":2665:2711   */\n          pop\n          pop\n          jump\n            /* \"--CODEGEN--\":2718:2919   */\n        tag_24:\n          0x00\n            /* \"--CODEGEN--\":2830:2832   */\n          0x20\n            /* \"--CODEGEN--\":2819:2828   */\n          dup3\n            /* \"--CODEGEN--\":2815:2833   */\n          add\n            /* \"--CODEGEN--\":2807:2833   */\n          swap1\n          pop\n            /* \"--CODEGEN--\":2844:2909   */\n          tag_143\n            /* \"--CODEGEN--\":2906:2907   */\n          0x00\n            /* \"--CODEGEN--\":2895:2904   */\n          dup4\n            /* \"--CODEGEN--\":2891:2908   */\n          add\n            /* \"--CODEGEN--\":2882:2888   */\n          dup5\n            /* \"--CODEGEN--\":2844:2909   */\n          jump(tag_120)\n        tag_143:\n            /* \"--CODEGEN--\":2801:2919   */\n          swap3\n          swap2\n          pop\n          pop\n          jump\n            /* \"--CODEGEN--\":2926:3227   */\n        tag_18:\n          0x00\n            /* \"--CODEGEN--\":3064:3066   */\n          0x20\n            /* \"--CODEGEN--\":3053:3062   */\n          dup3\n            /* \"--CODEGEN--\":3049:3067   */\n          add\n            /* \"--CODEGEN--\":3041:3067   */\n          swap1\n          pop\n            /* \"--CODEGEN--\":3114:3123   */\n          dup2\n            /* \"--CODEGEN--\":3108:3112   */\n          dup2\n            /* \"--CODEGEN--\":3104:3124   */\n          sub\n            /* \"--CODEGEN--\":3100:3101   */\n          0x00\n            /* \"--CODEGEN--\":3089:3098   */\n          dup4\n            /* \"--CODEGEN--\":3085:3102   */\n          add\n            /* \"--CODEGEN--\":3078:3125   */\n          mstore\n            /* \"--CODEGEN--\":3139:3217   */\n          tag_145\n            /* \"--CODEGEN--\":3212:3216   */\n          dup2\n            /* \"--CODEGEN--\":3203:3209   */\n          dup5\n            /* \"--CODEGEN--\":3139:3217   */\n          jump(tag_124)\n        tag_145:\n            /* \"--CODEGEN--\":3131:3217   */\n          swap1\n          pop\n            /* \"--CODEGEN--\":3035:3227   */\n          swap3\n          swap2\n          pop\n          pop\n          jump\n            /* \"--CODEGEN--\":3234:3447   */\n        tag_28:\n          0x00\n            /* \"--CODEGEN--\":3352:3354   */\n          0x20\n            /* \"--CODEGEN--\":3341:3350   */\n          dup3\n            /* \"--CODEGEN--\":3337:3355   */\n          add\n            /* \"--CODEGEN--\":3329:3355   */\n          swap1\n          pop\n            /* \"--CODEGEN--\":3366:3437   */\n          tag_147\n            /* \"--CODEGEN--\":3434:3435   */\n          0x00\n            /* \"--CODEGEN--\":3423:3432   */\n          dup4\n            /* \"--CODEGEN--\":3419:3436   */\n          add\n            /* \"--CODEGEN--\":3410:3416   */\n          dup5\n            /* \"--CODEGEN--\":3366:3437   */\n          jump(tag_134)\n        tag_147:\n            /* \"--CODEGEN--\":3323:3447   */\n          swap3\n          swap2\n          pop\n          pop\n          jump\n            /* \"--CODEGEN--\":3454:3659   */\n        tag_37:\n          0x00\n            /* \"--CODEGEN--\":3568:3570   */\n          0x20\n            /* \"--CODEGEN--\":3557:3566   */\n          dup3\n            /* \"--CODEGEN--\":3553:3571   */\n          add\n            /* \"--CODEGEN--\":3545:3571   */\n          swap1\n          pop\n            /* \"--CODEGEN--\":3582:3649   */\n          tag_149\n            /* \"--CODEGEN--\":3646:3647   */\n          0x00\n            /* \"--CODEGEN--\":3635:3644   */\n          dup4\n            /* \"--CODEGEN--\":3631:3648   */\n          add\n            /* \"--CODEGEN--\":3622:3628   */\n          dup5\n            /* \"--CODEGEN--\":3582:3649   */\n          jump(tag_138)\n        tag_149:\n            /* \"--CODEGEN--\":3539:3659   */\n          swap3\n          swap2\n          pop\n          pop\n          jump\n            /* \"--CODEGEN--\":3666:3788   */\n        tag_127:\n          0x00\n            /* \"--CODEGEN--\":3760:3765   */\n          dup2\n            /* \"--CODEGEN--\":3754:3766   */\n          mload\n            /* \"--CODEGEN--\":3744:3766   */\n          swap1\n          pop\n            /* \"--CODEGEN--\":3725:3788   */\n          swap2\n          swap1\n          pop\n          jump\n            /* \"--CODEGEN--\":3796:3959   */\n        tag_129:\n          0x00\n            /* \"--CODEGEN--\":3911:3917   */\n          dup3\n            /* \"--CODEGEN--\":3906:3909   */\n          dup3\n            /* \"--CODEGEN--\":3899:3918   */\n          mstore\n            /* \"--CODEGEN--\":3948:3952   */\n          0x20\n            /* \"--CODEGEN--\":3943:3946   */\n          dup3\n            /* \"--CODEGEN--\":3939:3953   */\n          add\n            /* \"--CODEGEN--\":3924:3953   */\n          swap1\n          pop\n            /* \"--CODEGEN--\":3892:3959   */\n          swap3\n          swap2\n          pop\n          pop\n          jump\n            /* \"--CODEGEN--\":3967:4058   */\n        tag_152:\n          0x00\n            /* \"--CODEGEN--\":4029:4053   */\n          tag_154\n            /* \"--CODEGEN--\":4047:4052   */\n          dup3\n            /* \"--CODEGEN--\":4029:4053   */\n          jump(tag_155)\n        tag_154:\n            /* \"--CODEGEN--\":4018:4053   */\n          swap1\n          pop\n            /* \"--CODEGEN--\":4012:4058   */\n          swap2\n          swap1\n          pop\n          jump\n            /* \"--CODEGEN--\":4065:4150   */\n        tag_123:\n          0x00\n            /* \"--CODEGEN--\":4138:4143   */\n          dup2\n            /* \"--CODEGEN--\":4131:4144   */\n          iszero\n            /* \"--CODEGEN--\":4124:4145   */\n          iszero\n            /* \"--CODEGEN--\":4113:4145   */\n          swap1\n          pop\n            /* \"--CODEGEN--\":4107:4150   */\n          swap2\n          swap1\n          pop\n          jump\n            /* \"--CODEGEN--\":4157:4278   */\n        tag_155:\n          0x00\n            /* \"--CODEGEN--\":4230:4272   */\n          0xffffffffffffffffffffffffffffffffffffffff\n            /* \"--CODEGEN--\":4223:4228   */\n          dup3\n            /* \"--CODEGEN--\":4219:4273   */\n          and\n            /* \"--CODEGEN--\":4208:4273   */\n          swap1\n          pop\n            /* \"--CODEGEN--\":4202:4278   */\n          swap2\n          swap1\n          pop\n          jump\n            /* \"--CODEGEN--\":4285:4357   */\n        tag_137:\n          0x00\n            /* \"--CODEGEN--\":4347:4352   */\n          dup2\n            /* \"--CODEGEN--\":4336:4352   */\n          swap1\n          pop\n            /* \"--CODEGEN--\":4330:4357   */\n          swap2\n          swap1\n          pop\n          jump\n            /* \"--CODEGEN--\":4364:4445   */\n        tag_141:\n          0x00\n            /* \"--CODEGEN--\":4435:4439   */\n          0xff\n            /* \"--CODEGEN--\":4428:4433   */\n          dup3\n            /* \"--CODEGEN--\":4424:4440   */\n          and\n            /* \"--CODEGEN--\":4413:4440   */\n          swap1\n          pop\n            /* \"--CODEGEN--\":4407:4445   */\n          swap2\n          swap1\n          pop\n          jump\n            /* \"--CODEGEN--\":4453:4721   */\n        tag_131:\n            /* \"--CODEGEN--\":4518:4519   */\n          0x00\n            /* \"--CODEGEN--\":4525:4626   */\n        tag_161:\n            /* \"--CODEGEN--\":4539:4545   */\n          dup4\n            /* \"--CODEGEN--\":4536:4537   */\n          dup2\n            /* \"--CODEGEN--\":4533:4546   */\n          lt\n            /* \"--CODEGEN--\":4525:4626   */\n          iszero\n          tag_163\n          jumpi\n            /* \"--CODEGEN--\":4615:4616   */\n          dup1\n            /* \"--CODEGEN--\":4610:4613   */\n          dup3\n            /* \"--CODEGEN--\":4606:4617   */\n          add\n            /* \"--CODEGEN--\":4600:4618   */\n          mload\n            /* \"--CODEGEN--\":4596:4597   */\n          dup2\n            /* \"--CODEGEN--\":4591:4594   */\n          dup5\n            /* \"--CODEGEN--\":4587:4598   */\n          add\n            /* \"--CODEGEN--\":4580:4619   */\n          mstore\n            /* \"--CODEGEN--\":4561:4563   */\n          0x20\n            /* \"--CODEGEN--\":4558:4559   */\n          dup2\n            /* \"--CODEGEN--\":4554:4564   */\n          add\n            /* \"--CODEGEN--\":4549:4564   */\n          swap1\n          pop\n            /* \"--CODEGEN--\":4525:4626   */\n          jump(tag_161)\n        tag_163:\n            /* \"--CODEGEN--\":4641:4647   */\n          dup4\n            /* \"--CODEGEN--\":4638:4639   */\n          dup2\n            /* \"--CODEGEN--\":4635:4648   */\n          gt\n            /* \"--CODEGEN--\":4632:4634   */\n          iszero\n          tag_164\n          jumpi\n            /* \"--CODEGEN--\":4706:4707   */\n          0x00\n            /* \"--CODEGEN--\":4697:4703   */\n          dup5\n            /* \"--CODEGEN--\":4692:4695   */\n          dup5\n            /* \"--CODEGEN--\":4688:4704   */\n          add\n            /* \"--CODEGEN--\":4681:4708   */\n          mstore\n            /* \"--CODEGEN--\":4632:4634   */\n        tag_164:\n            /* \"--CODEGEN--\":4502:4721   */\n          pop\n          pop\n          pop\n          pop\n          jump\n            /* \"--CODEGEN--\":4729:4826   */\n        tag_133:\n          0x00\n            /* \"--CODEGEN--\":4817:4819   */\n          0x1f\n            /* \"--CODEGEN--\":4813:4820   */\n          not\n            /* \"--CODEGEN--\":4808:4810   */\n          0x1f\n            /* \"--CODEGEN--\":4801:4806   */\n          dup4\n            /* \"--CODEGEN--\":4797:4811   */\n          add\n            /* \"--CODEGEN--\":4793:4821   */\n          and\n            /* \"--CODEGEN--\":4783:4821   */\n          swap1\n          pop\n            /* \"--CODEGEN--\":4777:4826   */\n          swap2\n          swap1\n          pop\n          jump\n            /* \"--CODEGEN--\":4834:4951   */\n        tag_96:\n            /* \"--CODEGEN--\":4903:4927   */\n          tag_167\n            /* \"--CODEGEN--\":4921:4926   */\n          dup2\n            /* \"--CODEGEN--\":4903:4927   */\n          jump(tag_152)\n        tag_167:\n            /* \"--CODEGEN--\":4896:4901   */\n          dup2\n            /* \"--CODEGEN--\":4893:4928   */\n          eq\n            /* \"--CODEGEN--\":4883:4885   */\n          tag_168\n          jumpi\n            /* \"--CODEGEN--\":4942:4943   */\n          0x00\n            /* \"--CODEGEN--\":4939:4940   */\n          dup1\n            /* \"--CODEGEN--\":4932:4944   */\n          revert\n            /* \"--CODEGEN--\":4883:4885   */\n        tag_168:\n            /* \"--CODEGEN--\":4877:4951   */\n          pop\n          jump\n            /* \"--CODEGEN--\":4958:5075   */\n        tag_100:\n            /* \"--CODEGEN--\":5027:5051   */\n          tag_170\n            /* \"--CODEGEN--\":5045:5050   */\n          dup2\n            /* \"--CODEGEN--\":5027:5051   */\n          jump(tag_137)\n        tag_170:\n            /* \"--CODEGEN--\":5020:5025   */\n          dup2\n            /* \"--CODEGEN--\":5017:5052   */\n          eq\n            /* \"--CODEGEN--\":5007:5009   */\n          tag_171\n          jumpi\n            /* \"--CODEGEN--\":5066:5067   */\n          0x00\n            /* \"--CODEGEN--\":5063:5064   */\n          dup1\n            /* \"--CODEGEN--\":5056:5068   */\n          revert\n            /* \"--CODEGEN--\":5007:5009   */\n        tag_171:\n            /* \"--CODEGEN--\":5001:5075   */\n          pop\n          jump\n\n        auxdata: 0xa2646970667358221220fb4387d306ba07ce5df068e809f8904cf4c4d0478baf99ca939b6ee4b8984a6964736f6c63430006070033\n    }\n}\n",
				"bytecode": {
					"linkReferences": {},
					"object": "60806040523480156200001157600080fd5b506127106040516200002390620000d3565b6200002f9190620000f2565b604051809103906000f0801580156200004c573d6000803e3d6000fd5b506000806101000a81548173ffffffffffffffffffffffffffffffffffffffff021916908373ffffffffffffffffffffffffffffffffffffffff16021790555033600160006101000a81548173ffffffffffffffffffffffffffffffffffffffff021916908373ffffffffffffffffffffffffffffffffffffffff1602179055506200012d565b61109d806200282f83390190565b620000ec8162000119565b82525050565b6000602082019050620001096000830184620000e1565b92915050565b6000819050919050565b600062000126826200010f565b9050919050565b6126f2806200013d6000396000f3fe6080604052600436106101145760003560e01c8063c03d2acc116100a0578063d9ef1dff11610064578063d9ef1dff14610394578063dbbdc421146103bf578063e33f34a0146103e8578063f777409114610413578063ff0b5ea91461042f57610114565b8063c03d2acc14610285578063c66dca40146102b0578063ce8f2f38146102d9578063d00df29614610316578063d203c15b1461035557610114565b80632076b56c116100e75780632076b56c146101b25780634a003dcf146101db5780636b8f8e1514610204578063722713f71461022f5780638da5cb5b1461025a57610114565b80631246f6e21461011957806312b91846146101425780631890154c1461016b5780631fccb33c14610187575b600080fd5b34801561012557600080fd5b50610140600480360381019061013b9190611c9e565b610458565b005b34801561014e57600080fd5b5061016960048036038101906101649190611c09565b610579565b005b61018560048036038101906101809190611c9e565b6107c7565b005b34801561019357600080fd5b5061019c610957565b6040516101a9919061229f565b60405180910390f35b3480156101be57600080fd5b506101d960048036038101906101d49190611c4a565b610a40565b005b3480156101e757600080fd5b5061020260048036038101906101fd9190611c09565b610bd1565b005b34801561021057600080fd5b50610219610e1f565b604051610226919061229f565b60405180910390f35b34801561023b57600080fd5b50610244610f45565b60405161025191906124af565b60405180910390f35b34801561026657600080fd5b5061026f610ff6565b60405161027c9190612224565b60405180910390f35b34801561029157600080fd5b5061029a61101c565b6040516102a7919061229f565b60405180910390f35b3480156102bc57600080fd5b506102d760048036038101906102d29190611c09565b611105565b005b3480156102e557600080fd5b5061030060048036038101906102fb9190611bb7565b61120b565b60405161030d91906124af565b60405180910390f35b34801561032257600080fd5b5061033d60048036038101906103389190611c09565b611229565b60405161034c93929190612351565b60405180910390f35b34801561036157600080fd5b5061037c60048036038101906103779190611c09565b61130e565b60405161038b93929190612351565b60405180910390f35b3480156103a057600080fd5b506103a96113f3565b6040516103b6919061229f565b60405180910390f35b3480156103cb57600080fd5b506103e660048036038101906103e19190611c09565b611519565b005b3480156103f457600080fd5b506103fd61161f565b60405161040a91906124af565b60405180910390f35b61042d60048036038101906104289190611c9e565b6116d0565b005b34801561043b57600080fd5b5061045660048036038101906104519190611c4a565b6118c2565b005b33600160009054906101000a900473ffffffffffffffffffffffffffffffffffffffff1673ffffffffffffffffffffffffffffffffffffffff168173ffffffffffffffffffffffffffffffffffffffff16146104e9576040517f08c379a00000000000000000000000000000000000000000000000000000000081526004016104e09061242f565b60405180910390fd5b6000809054906101000a900473ffffffffffffffffffffffffffffffffffffffff1673ffffffffffffffffffffffffffffffffffffffff16634ee22adf836040518263ffffffff1660e01b815260040161054391906124af565b600060405180830381600087803b15801561055d57600080fd5b505af1158015610571573d6000803e3d6000fd5b505050505050565b600060038260405161058b91906121d7565b9081526020016040518091039020600101549050600115156003836040516105b391906121d7565b908152602001604051809103902060020160009054906101000a900460ff16151514610614576040517f08c379a000000000000000000000000000000000000000000000000000000000815260040161060b9061240f565b60405180910390fd5b61061c61161f565b81111561065e576040517f08c379a00000000000000000000000000000000000000000000000000000000081526004016106559061248f565b60405180910390fd5b6000809054906101000a900473ffffffffffffffffffffffffffffffffffffffff1673ffffffffffffffffffffffffffffffffffffffff1663f490a3513330846040518463ffffffff1660e01b81526004016106bc9392919061223f565b602060405180830381600087803b1580156106d657600080fd5b505af11580156106ea573d6000803e3d6000fd5b505050506040513d601f19601f8201168201806040525081019061070e9190611be0565b50600760003373ffffffffffffffffffffffffffffffffffffffff1673ffffffffffffffffffffffffffffffffffffffff16815260200190815260200160002082908060018154018082558091505060019003906000526020600020016000909190919091509080519060200190610787929190611a6a565b507f7246a03edf415ab10aa2e7868f4768980d024a3a86ab68f98fcc21567c2f26d78282336040516107bb93929190612313565b60405180910390a15050565b6000811161080a576040517f08c379a0000000000000000000000000000000000000000000000000000000008152600401610801906123af565b60405180910390fd5b61081261161f565b811115610854576040517f08c379a000000000000000000000000000000000000000000000000000000000815260040161084b906123cf565b60405180910390fd5b6000809054906101000a900473ffffffffffffffffffffffffffffffffffffffff1673ffffffffffffffffffffffffffffffffffffffff1663f490a3513330846040518463ffffffff1660e01b81526004016108b29392919061223f565b602060405180830381600087803b1580156108cc57600080fd5b505af11580156108e0573d6000803e3d6000fd5b505050506040513d601f19601f820116820180604052508101906109049190611be0565b503373ffffffffffffffffffffffffffffffffffffffff166108fc61092883611a56565b9081150290604051600060405180830381858888f19350505050158015610953573d6000803e3d6000fd5b5050565b60606005805480602002602001604051908101604052809291908181526020016000905b82821015610a37578382906000526020600020018054600181600116156101000203166002900480601f016020809104026020016040519081016040528092919081815260200182805460018160011615610100020316600290048015610a235780601f106109f857610100808354040283529160200191610a23565b820191906000526020600020905b815481529060010190602001808311610a0657829003601f168201915b50505050508152602001906001019061097b565b50505050905090565b33600160009054906101000a900473ffffffffffffffffffffffffffffffffffffffff1673ffffffffffffffffffffffffffffffffffffffff168173ffffffffffffffffffffffffffffffffffffffff1614610ad1576040517f08c379a0000000000000000000000000000000000000000000000000000000008152600401610ac89061242f565b60405180910390fd5b604051806060016040528084815260200183815260200160011515815250600384604051610aff91906121d7565b90815260200160405180910390206000820151816000019080519060200190610b29929190611a6a565b506020820151816001015560408201518160020160006101000a81548160ff021916908315150217905550905050600583908060018154018082558091505060019003906000526020600020016000909190919091509080519060200190610b92929190611a6a565b507ffc9ecd7a6c2ca96d38526a0b9cc22f2474ff8e596dd348edaab06be905ebe3788383604051610bc49291906122e3565b60405180910390a1505050565b6000600482604051610be391906121d7565b908152602001604051809103902060010154905060011515600483604051610c0b91906121d7565b908152602001604051809103902060020160009054906101000a900460ff16151514610c6c576040517f08c379a0000000000000000000000000000000000000000000000000000000008152600401610c639061238f565b60405180910390fd5b610c7461161f565b811115610cb6576040517f08c379a0000000000000000000000000000000000000000000000000000000008152600401610cad906123ef565b60405180910390fd5b6000809054906101000a900473ffffffffffffffffffffffffffffffffffffffff1673ffffffffffffffffffffffffffffffffffffffff1663f490a3513330846040518463ffffffff1660e01b8152600401610d149392919061223f565b602060405180830381600087803b158015610d2e57600080fd5b505af1158015610d42573d6000803e3d6000fd5b505050506040513d601f19601f82011682018060405250810190610d669190611be0565b50600860003373ffffffffffffffffffffffffffffffffffffffff1673ffffffffffffffffffffffffffffffffffffffff16815260200190815260200160002082908060018154018082558091505060019003906000526020600020016000909190919091509080519060200190610ddf929190611a6a565b507f85ef3e0aa2f5a1974f940061956e15261f5ce81cdb010a26d5760e9d0c47b4d3828233604051610e1393929190612313565b60405180910390a15050565b6060600760003373ffffffffffffffffffffffffffffffffffffffff1673ffffffffffffffffffffffffffffffffffffffff168152602001908152602001600020805480602002602001604051908101604052809291908181526020016000905b82821015610f3c578382906000526020600020018054600181600116156101000203166002900480601f016020809104026020016040519081016040528092919081815260200182805460018160011615610100020316600290048015610f285780601f10610efd57610100808354040283529160200191610f28565b820191906000526020600020905b815481529060010190602001808311610f0b57829003601f168201915b505050505081526020019060010190610e80565b50505050905090565b60008060009054906101000a900473ffffffffffffffffffffffffffffffffffffffff1673ffffffffffffffffffffffffffffffffffffffff166370a08231306040518263ffffffff1660e01b8152600401610fa191906121ee565b60206040518083038186803b158015610fb957600080fd5b505afa158015610fcd573d6000803e3d6000fd5b505050506040513d601f19601f82011682018060405250810190610ff19190611cc7565b905090565b600160009054906101000a900473ffffffffffffffffffffffffffffffffffffffff1681565b60606006805480602002602001604051908101604052809291908181526020016000905b828210156110fc578382906000526020600020018054600181600116156101000203166002900480601f0160208091040260200160405190810160405280929190818152602001828054600181600116156101000203166002900480156110e85780601f106110bd576101008083540402835291602001916110e8565b820191906000526020600020905b8154815290600101906020018083116110cb57829003601f168201915b505050505081526020019060010190611040565b50505050905090565b33600160009054906101000a900473ffffffffffffffffffffffffffffffffffffffff1673ffffffffffffffffffffffffffffffffffffffff168173ffffffffffffffffffffffffffffffffffffffff1614611196576040517f08c379a000000000000000000000000000000000000000000000000000000000815260040161118d9061242f565b60405180910390fd5b60006003836040516111a891906121d7565b908152602001604051809103902060020160006101000a81548160ff0219169083151502179055507f24ba6c881728980191398db8dcfd8ed4f6aeb1c08df349d63f3b85075f3e86dd826040516111ff91906122c1565b60405180910390a15050565b60026020528060005260406000206000915090508060000154905081565b600381805160208101820180518482526020830160208501208183528095505050505050600091509050806000018054600181600116156101000203166002900480601f0160208091040260200160405190810160405280929190818152602001828054600181600116156101000203166002900480156112eb5780601f106112c0576101008083540402835291602001916112eb565b820191906000526020600020905b8154815290600101906020018083116112ce57829003601f168201915b5050505050908060010154908060020160009054906101000a900460ff16905083565b600481805160208101820180518482526020830160208501208183528095505050505050600091509050806000018054600181600116156101000203166002900480601f0160208091040260200160405190810160405280929190818152602001828054600181600116156101000203166002900480156113d05780601f106113a5576101008083540402835291602001916113d0565b820191906000526020600020905b8154815290600101906020018083116113b357829003601f168201915b5050505050908060010154908060020160009054906101000a900460ff16905083565b6060600860003373ffffffffffffffffffffffffffffffffffffffff1673ffffffffffffffffffffffffffffffffffffffff168152602001908152602001600020805480602002602001604051908101604052809291908181526020016000905b82821015611510578382906000526020600020018054600181600116156101000203166002900480601f0160208091040260200160405190810160405280929190818152602001828054600181600116156101000203166002900480156114fc5780601f106114d1576101008083540402835291602001916114fc565b820191906000526020600020905b8154815290600101906020018083116114df57829003601f168201915b505050505081526020019060010190611454565b50505050905090565b33600160009054906101000a900473ffffffffffffffffffffffffffffffffffffffff1673ffffffffffffffffffffffffffffffffffffffff168173ffffffffffffffffffffffffffffffffffffffff16146115aa576040517f08c379a00000000000000000000000000000000000000000000000000000000081526004016115a19061242f565b60405180910390fd5b60006004836040516115bc91906121d7565b908152602001604051809103902060020160006101000a81548160ff0219169083151502179055507fc08b02ec29b10837b03ba712be7196ccd02824c57a727dbd6c9718051c9437c68260405161161391906122c1565b60405180910390a15050565b60008060009054906101000a900473ffffffffffffffffffffffffffffffffffffffff1673ffffffffffffffffffffffffffffffffffffffff166370a08231336040518263ffffffff1660e01b815260040161167b9190612209565b60206040518083038186803b15801561169357600080fd5b505afa1580156116a7573d6000803e3d6000fd5b505050506040513d601f19601f820116820180604052508101906116cb9190611cc7565b905090565b60006116db82611a56565b905080341015611720576040517f08c379a00000000000000000000000000000000000000000000000000000000081526004016117179061244f565b60405180910390fd5b600081340390503373ffffffffffffffffffffffffffffffffffffffff166108fc829081150290604051600060405180830381858888f1935050505015801561176d573d6000803e3d6000fd5b506000611778610f45565b9050808411156117bd576040517f08c379a00000000000000000000000000000000000000000000000000000000081526004016117b49061246f565b60405180910390fd5b6000809054906101000a900473ffffffffffffffffffffffffffffffffffffffff1673ffffffffffffffffffffffffffffffffffffffff1663a9059cbb33866040518363ffffffff1660e01b8152600401611819929190612276565b602060405180830381600087803b15801561183357600080fd5b505af1158015611847573d6000803e3d6000fd5b505050506040513d601f19601f8201168201806040525081019061186b9190611be0565b5083600260003373ffffffffffffffffffffffffffffffffffffffff1673ffffffffffffffffffffffffffffffffffffffff1681526020019081526020016000206000016000828254019250508190555050505050565b33600160009054906101000a900473ffffffffffffffffffffffffffffffffffffffff1673ffffffffffffffffffffffffffffffffffffffff168173ffffffffffffffffffffffffffffffffffffffff1614611953576040517f08c379a000000000000000000000000000000000000000000000000000000000815260040161194a9061242f565b60405180910390fd5b60405180606001604052808481526020018381526020016001151581525060048460405161198191906121d7565b908152602001604051809103902060008201518160000190805190602001906119ab929190611a6a565b506020820151816001015560408201518160020160006101000a81548160ff021916908315150217905550905050600683908060018154018082558091505060019003906000526020600020016000909190919091509080519060200190611a14929190611a6a565b507f6d1a05b4fa2e9450b7aa20d1d87bec6ab6f8de4ab150be94c86f38e98c3c95dd83836001604051611a4993929190612351565b60405180910390a1505050565b6000670de0b6b3a764000082029050919050565b828054600181600116156101000203166002900490600052602060002090601f016020900481019282601f10611aab57805160ff1916838001178555611ad9565b82800160010185558215611ad9579182015b82811115611ad8578251825591602001919060010190611abd565b5b509050611ae69190611aea565b5090565b611b0c91905b80821115611b08576000816000905550600101611af0565b5090565b90565b600081359050611b1e81612677565b92915050565b600081519050611b338161268e565b92915050565b600082601f830112611b4a57600080fd5b8135611b5d611b58826124f7565b6124ca565b91508082526020830160208301858383011115611b7957600080fd5b611b84838284612624565b50505092915050565b600081359050611b9c816126a5565b92915050565b600081519050611bb1816126a5565b92915050565b600060208284031215611bc957600080fd5b6000611bd784828501611b0f565b91505092915050565b600060208284031215611bf257600080fd5b6000611c0084828501611b24565b91505092915050565b600060208284031215611c1b57600080fd5b600082013567ffffffffffffffff811115611c3557600080fd5b611c4184828501611b39565b91505092915050565b60008060408385031215611c5d57600080fd5b600083013567ffffffffffffffff811115611c7757600080fd5b611c8385828601611b39565b9250506020611c9485828601611b8d565b9150509250929050565b600060208284031215611cb057600080fd5b6000611cbe84828501611b8d565b91505092915050565b600060208284031215611cd957600080fd5b6000611ce784828501611ba2565b91505092915050565b6000611cfc8383611db5565b905092915050565b611d0d816125ee565b82525050565b611d1c816125a6565b82525050565b611d2b81612594565b82525050565b6000611d3c82612533565b611d468185612556565b935083602082028501611d5885612523565b8060005b85811015611d945784840389528151611d758582611cf0565b9450611d8083612549565b925060208a01995050600181019050611d5c565b50829750879550505050505092915050565b611daf816125b8565b82525050565b6000611dc08261253e565b611dca8185612567565b9350611dda818560208601612633565b611de381612666565b840191505092915050565b6000611df98261253e565b611e038185612578565b9350611e13818560208601612633565b611e1c81612666565b840191505092915050565b6000611e328261253e565b611e3c8185612589565b9350611e4c818560208601612633565b80840191505092915050565b6000611e65602f83612578565b91507f4c6120636f6d696461206e6f206573746120646973706f6e69626c6520656e2060008301527f6573746f73206d6f6d656e746f732e00000000000000000000000000000000006020830152604082019050919050565b6000611ecb603383612578565b91507f4e6563657369746173206465766f6c76657220756e612063616e74696461642060008301527f706f73697469766120646520746f6b656e732e000000000000000000000000006020830152604082019050919050565b6000611f31602983612578565b91507f4e6f207469656e6573206c6f7320746f6b656e7320717565206465736561732060008301527f6465766f6c7665722e00000000000000000000000000000000000000000000006020830152604082019050919050565b6000611f97602c83612578565b91507f4e6563657369746173206d617320546f6b656e73207061726120636f6d65722060008301527f6573746120636f6d6964612e00000000000000000000000000000000000000006020830152604082019050919050565b6000611ffd603283612578565b91507f4c6120617472616363696f6e206e6f206573746120646973706f6e69626c652060008301527f656e206573746f73206d6f6d656e746f732e00000000000000000000000000006020830152604082019050919050565b6000612063602e83612578565b91507f4e6f207469656e6573207065726d69736f73207061726120656a65637574617260008301527f20657374612066756e63696f6e2e0000000000000000000000000000000000006020830152604082019050919050565b60006120c9602a83612578565b91507f436f6d707261206d656e6f7320546f6b656e73206f207061676120636f6e206d60008301527f6173206574686572732e000000000000000000000000000000000000000000006020830152604082019050919050565b600061212f602083612578565b91507f436f6d70726120756e206e756d65726f206d656e6f7220646520546f6b656e736000830152602082019050919050565b600061216f603383612578565b91507f4e6563657369746173206d617320546f6b656e7320706172612073756269727460008301527f652061206573746120617472616363696f6e2e000000000000000000000000006020830152604082019050919050565b6121d1816125e4565b82525050565b60006121e38284611e27565b915081905092915050565b60006020820190506122036000830184611d22565b92915050565b600060208201905061221e6000830184611d04565b92915050565b60006020820190506122396000830184611d13565b92915050565b60006060820190506122546000830186611d04565b6122616020830185611d22565b61226e60408301846121c8565b949350505050565b600060408201905061228b6000830185611d04565b61229860208301846121c8565b9392505050565b600060208201905081810360008301526122b98184611d31565b905092915050565b600060208201905081810360008301526122db8184611dee565b905092915050565b600060408201905081810360008301526122fd8185611dee565b905061230c60208301846121c8565b9392505050565b6000606082019050818103600083015261232d8186611dee565b905061233c60208301856121c8565b6123496040830184611d04565b949350505050565b6000606082019050818103600083015261236b8186611dee565b905061237a60208301856121c8565b6123876040830184611da6565b949350505050565b600060208201905081810360008301526123a881611e58565b9050919050565b600060208201905081810360008301526123c881611ebe565b9050919050565b600060208201905081810360008301526123e881611f24565b9050919050565b6000602082019050818103600083015261240881611f8a565b9050919050565b6000602082019050818103600083015261242881611ff0565b9050919050565b6000602082019050818103600083015261244881612056565b9050919050565b60006020820190508181036000830152612468816120bc565b9050919050565b6000602082019050818103600083015261248881612122565b9050919050565b600060208201905081810360008301526124a881612162565b9050919050565b60006020820190506124c460008301846121c8565b92915050565b6000604051905081810181811067ffffffffffffffff821117156124ed57600080fd5b8060405250919050565b600067ffffffffffffffff82111561250e57600080fd5b601f19601f8301169050602081019050919050565b6000819050602082019050919050565b600081519050919050565b600081519050919050565b6000602082019050919050565b600082825260208201905092915050565b600082825260208201905092915050565b600082825260208201905092915050565b600081905092915050565b600061259f826125c4565b9050919050565b60006125b1826125c4565b9050919050565b60008115159050919050565b600073ffffffffffffffffffffffffffffffffffffffff82169050919050565b6000819050919050565b60006125f982612600565b9050919050565b600061260b82612612565b9050919050565b600061261d826125c4565b9050919050565b82818337600083830152505050565b60005b83811015612651578082015181840152602081019050612636565b83811115612660576000848401525b50505050565b6000601f19601f8301169050919050565b61268081612594565b811461268b57600080fd5b50565b612697816125b8565b81146126a257600080fd5b50565b6126ae816125e4565b81146126b957600080fd5b5056fea2646970667358221220d46a6c216b6cbee0dc93a40e61292cd9b2197e5cd594115368e5c659a55aa7bf64736f6c63430006070033608060405234801561001057600080fd5b5060405161109d38038061109d83398181016040528101906100329190610099565b806002819055506002546000803373ffffffffffffffffffffffffffffffffffffffff1673ffffffffffffffffffffffffffffffffffffffff16815260200190815260200160002081905550506100e3565b600081519050610093816100cc565b92915050565b6000602082840312156100ab57600080fd5b60006100b984828501610084565b91505092915050565b6000819050919050565b6100d5816100c2565b81146100e057600080fd5b50565b610fab806100f26000396000f3fe608060405234801561001057600080fd5b50600436106100a95760003560e01c80634ee22adf116100715780634ee22adf1461016857806370a082311461018457806395d89b41146101b4578063a9059cbb146101d2578063dd62ed3e14610202578063f490a35114610232576100a9565b806306fdde03146100ae578063095ea7b3146100cc57806318160ddd146100fc57806323b872dd1461011a578063313ce5671461014a575b600080fd5b6100b6610262565b6040516100c39190610e3a565b60405180910390f35b6100e660048036038101906100e19190610d54565b61029b565b6040516100f39190610e1f565b60405180910390f35b61010461038d565b6040516101119190610e5c565b60405180910390f35b610134600480360381019061012f9190610d05565b610397565b6040516101419190610e1f565b60405180910390f35b610152610712565b60405161015f9190610e77565b60405180910390f35b610182600480360381019061017d9190610d90565b610717565b005b61019e60048036038101906101999190610ca0565b610776565b6040516101ab9190610e5c565b60405180910390f35b6101bc6107be565b6040516101c99190610e3a565b60405180910390f35b6101ec60048036038101906101e79190610d54565b6107f7565b6040516101f99190610e1f565b60405180910390f35b61021c60048036038101906102179190610cc9565b6109d9565b6040516102299190610e5c565b60405180910390f35b61024c60048036038101906102479190610d05565b610a60565b6040516102599190610e1f565b60405180910390f35b6040518060400160405280600a81526020017f455243323042617369630000000000000000000000000000000000000000000081525081565b600081600160003373ffffffffffffffffffffffffffffffffffffffff1673ffffffffffffffffffffffffffffffffffffffff16815260200190815260200160002060008573ffffffffffffffffffffffffffffffffffffffff1673ffffffffffffffffffffffffffffffffffffffff168152602001908152602001600020819055508273ffffffffffffffffffffffffffffffffffffffff163373ffffffffffffffffffffffffffffffffffffffff167f8c5be1e5ebec7d5bd14f71427d1e84f3dd0314c0f7b2291e5b200ac8c7c3b9258460405161037b9190610e5c565b60405180910390a36001905092915050565b6000600254905090565b60008060008573ffffffffffffffffffffffffffffffffffffffff1673ffffffffffffffffffffffffffffffffffffffff168152602001908152602001600020548211156103e457600080fd5b600160008573ffffffffffffffffffffffffffffffffffffffff1673ffffffffffffffffffffffffffffffffffffffff16815260200190815260200160002060003373ffffffffffffffffffffffffffffffffffffffff1673ffffffffffffffffffffffffffffffffffffffff1681526020019081526020016000205482111561046d57600080fd5b6104be826000808773ffffffffffffffffffffffffffffffffffffffff1673ffffffffffffffffffffffffffffffffffffffff16815260200190815260200160002054610c4390919063ffffffff16565b6000808673ffffffffffffffffffffffffffffffffffffffff1673ffffffffffffffffffffffffffffffffffffffff1681526020019081526020016000208190555061058f82600160008773ffffffffffffffffffffffffffffffffffffffff1673ffffffffffffffffffffffffffffffffffffffff16815260200190815260200160002060003373ffffffffffffffffffffffffffffffffffffffff1673ffffffffffffffffffffffffffffffffffffffff16815260200190815260200160002054610c4390919063ffffffff16565b600160008673ffffffffffffffffffffffffffffffffffffffff1673ffffffffffffffffffffffffffffffffffffffff16815260200190815260200160002060003373ffffffffffffffffffffffffffffffffffffffff1673ffffffffffffffffffffffffffffffffffffffff16815260200190815260200160002081905550610660826000808673ffffffffffffffffffffffffffffffffffffffff1673ffffffffffffffffffffffffffffffffffffffff16815260200190815260200160002054610c5a90919063ffffffff16565b6000808573ffffffffffffffffffffffffffffffffffffffff1673ffffffffffffffffffffffffffffffffffffffff168152602001908152602001600020819055508273ffffffffffffffffffffffffffffffffffffffff168473ffffffffffffffffffffffffffffffffffffffff167fddf252ad1be2c89b69c2b068fc378daa952ba7f163c4a11628f55a4df523b3ef846040516106ff9190610e5c565b60405180910390a3600190509392505050565b600281565b80600260008282540192505081905550806000803373ffffffffffffffffffffffffffffffffffffffff1673ffffffffffffffffffffffffffffffffffffffff1681526020019081526020016000206000828254019250508190555050565b60008060008373ffffffffffffffffffffffffffffffffffffffff1673ffffffffffffffffffffffffffffffffffffffff168152602001908152602001600020549050919050565b6040518060400160405280600981526020017f4a424a2d544f4b454e000000000000000000000000000000000000000000000081525081565b60008060003373ffffffffffffffffffffffffffffffffffffffff1673ffffffffffffffffffffffffffffffffffffffff1681526020019081526020016000205482111561084457600080fd5b610895826000803373ffffffffffffffffffffffffffffffffffffffff1673ffffffffffffffffffffffffffffffffffffffff16815260200190815260200160002054610c4390919063ffffffff16565b6000803373ffffffffffffffffffffffffffffffffffffffff1673ffffffffffffffffffffffffffffffffffffffff16815260200190815260200160002081905550610928826000808673ffffffffffffffffffffffffffffffffffffffff1673ffffffffffffffffffffffffffffffffffffffff16815260200190815260200160002054610c5a90919063ffffffff16565b6000808573ffffffffffffffffffffffffffffffffffffffff1673ffffffffffffffffffffffffffffffffffffffff168152602001908152602001600020819055508273ffffffffffffffffffffffffffffffffffffffff163373ffffffffffffffffffffffffffffffffffffffff167fddf252ad1be2c89b69c2b068fc378daa952ba7f163c4a11628f55a4df523b3ef846040516109c79190610e5c565b60405180910390a36001905092915050565b6000600160008473ffffffffffffffffffffffffffffffffffffffff1673ffffffffffffffffffffffffffffffffffffffff16815260200190815260200160002060008373ffffffffffffffffffffffffffffffffffffffff1673ffffffffffffffffffffffffffffffffffffffff16815260200190815260200160002054905092915050565b60008060008573ffffffffffffffffffffffffffffffffffffffff1673ffffffffffffffffffffffffffffffffffffffff16815260200190815260200160002054821115610aad57600080fd5b610afe826000808773ffffffffffffffffffffffffffffffffffffffff1673ffffffffffffffffffffffffffffffffffffffff16815260200190815260200160002054610c4390919063ffffffff16565b6000808673ffffffffffffffffffffffffffffffffffffffff1673ffffffffffffffffffffffffffffffffffffffff16815260200190815260200160002081905550610b91826000808673ffffffffffffffffffffffffffffffffffffffff1673ffffffffffffffffffffffffffffffffffffffff16815260200190815260200160002054610c5a90919063ffffffff16565b6000808573ffffffffffffffffffffffffffffffffffffffff1673ffffffffffffffffffffffffffffffffffffffff168152602001908152602001600020819055508273ffffffffffffffffffffffffffffffffffffffff168473ffffffffffffffffffffffffffffffffffffffff167fddf252ad1be2c89b69c2b068fc378daa952ba7f163c4a11628f55a4df523b3ef84604051610c309190610e5c565b60405180910390a3600190509392505050565b600082821115610c4f57fe5b818303905092915050565b600080828401905083811015610c6c57fe5b8091505092915050565b600081359050610c8581610f47565b92915050565b600081359050610c9a81610f5e565b92915050565b600060208284031215610cb257600080fd5b6000610cc084828501610c76565b91505092915050565b60008060408385031215610cdc57600080fd5b6000610cea85828601610c76565b9250506020610cfb85828601610c76565b9150509250929050565b600080600060608486031215610d1a57600080fd5b6000610d2886828701610c76565b9350506020610d3986828701610c76565b9250506040610d4a86828701610c8b565b9150509250925092565b60008060408385031215610d6757600080fd5b6000610d7585828601610c76565b9250506020610d8685828601610c8b565b9150509250929050565b600060208284031215610da257600080fd5b6000610db084828501610c8b565b91505092915050565b610dc281610ec0565b82525050565b6000610dd382610e92565b610ddd8185610e9d565b9350610ded818560208601610f03565b610df681610f36565b840191505092915050565b610e0a81610eec565b82525050565b610e1981610ef6565b82525050565b6000602082019050610e346000830184610db9565b92915050565b60006020820190508181036000830152610e548184610dc8565b905092915050565b6000602082019050610e716000830184610e01565b92915050565b6000602082019050610e8c6000830184610e10565b92915050565b600081519050919050565b600082825260208201905092915050565b6000610eb982610ecc565b9050919050565b60008115159050919050565b600073ffffffffffffffffffffffffffffffffffffffff82169050919050565b6000819050919050565b600060ff82169050919050565b60005b83811015610f21578082015181840152602081019050610f06565b83811115610f30576000848401525b50505050565b6000601f19601f8301169050919050565b610f5081610eae565b8114610f5b57600080fd5b50565b610f6781610eec565b8114610f7257600080fd5b5056fea2646970667358221220fb4387d306ba07ce5df068e809f8904cf4c4d0478baf99ca939b6ee4b8984a6964736f6c63430006070033",
					"opcodes": "PUSH1 0x80 PUSH1 0x40 MSTORE CALLVALUE DUP1 ISZERO PUSH3 0x11 JUMPI PUSH1 0x0 DUP1 REVERT JUMPDEST POP PUSH2 0x2710 PUSH1 0x40 MLOAD PUSH3 0x23 SWAP1 PUSH3 0xD3 JUMP JUMPDEST PUSH3 0x2F SWAP2 SWAP1 PUSH3 0xF2 JUMP JUMPDEST PUSH1 0x40 MLOAD DUP1 SWAP2 SUB SWAP1 PUSH1 0x0 CREATE DUP1 ISZERO DUP1 ISZERO PUSH3 0x4C JUMPI RETURNDATASIZE PUSH1 0x0 DUP1 RETURNDATACOPY RETURNDATASIZE PUSH1 0x0 REVERT JUMPDEST POP PUSH1 0x0 DUP1 PUSH2 0x100 EXP DUP2 SLOAD DUP2 PUSH20 0xFFFFFFFFFFFFFFFFFFFFFFFFFFFFFFFFFFFFFFFF MUL NOT AND SWAP1 DUP4 PUSH20 0xFFFFFFFFFFFFFFFFFFFFFFFFFFFFFFFFFFFFFFFF AND MUL OR SWAP1 SSTORE POP CALLER PUSH1 0x1 PUSH1 0x0 PUSH2 0x100 EXP DUP2 SLOAD DUP2 PUSH20 0xFFFFFFFFFFFFFFFFFFFFFFFFFFFFFFFFFFFFFFFF MUL NOT AND SWAP1 DUP4 PUSH20 0xFFFFFFFFFFFFFFFFFFFFFFFFFFFFFFFFFFFFFFFF AND MUL OR SWAP1 SSTORE POP PUSH3 0x12D JUMP JUMPDEST PUSH2 0x109D DUP1 PUSH3 0x282F DUP4 CODECOPY ADD SWAP1 JUMP JUMPDEST PUSH3 0xEC DUP2 PUSH3 0x119 JUMP JUMPDEST DUP3 MSTORE POP POP JUMP JUMPDEST PUSH1 0x0 PUSH1 0x20 DUP3 ADD SWAP1 POP PUSH3 0x109 PUSH1 0x0 DUP4 ADD DUP5 PUSH3 0xE1 JUMP JUMPDEST SWAP3 SWAP2 POP POP JUMP JUMPDEST PUSH1 0x0 DUP2 SWAP1 POP SWAP2 SWAP1 POP JUMP JUMPDEST PUSH1 0x0 PUSH3 0x126 DUP3 PUSH3 0x10F JUMP JUMPDEST SWAP1 POP SWAP2 SWAP1 POP JUMP JUMPDEST PUSH2 0x26F2 DUP1 PUSH3 0x13D PUSH1 0x0 CODECOPY PUSH1 0x0 RETURN INVALID PUSH1 0x80 PUSH1 0x40 MSTORE PUSH1 0x4 CALLDATASIZE LT PUSH2 0x114 JUMPI PUSH1 0x0 CALLDATALOAD PUSH1 0xE0 SHR DUP1 PUSH4 0xC03D2ACC GT PUSH2 0xA0 JUMPI DUP1 PUSH4 0xD9EF1DFF GT PUSH2 0x64 JUMPI DUP1 PUSH4 0xD9EF1DFF EQ PUSH2 0x394 JUMPI DUP1 PUSH4 0xDBBDC421 EQ PUSH2 0x3BF JUMPI DUP1 PUSH4 0xE33F34A0 EQ PUSH2 0x3E8 JUMPI DUP1 PUSH4 0xF7774091 EQ PUSH2 0x413 JUMPI DUP1 PUSH4 0xFF0B5EA9 EQ PUSH2 0x42F JUMPI PUSH2 0x114 JUMP JUMPDEST DUP1 PUSH4 0xC03D2ACC EQ PUSH2 0x285 JUMPI DUP1 PUSH4 0xC66DCA40 EQ PUSH2 0x2B0 JUMPI DUP1 PUSH4 0xCE8F2F38 EQ PUSH2 0x2D9 JUMPI DUP1 PUSH4 0xD00DF296 EQ PUSH2 0x316 JUMPI DUP1 PUSH4 0xD203C15B EQ PUSH2 0x355 JUMPI PUSH2 0x114 JUMP JUMPDEST DUP1 PUSH4 0x2076B56C GT PUSH2 0xE7 JUMPI DUP1 PUSH4 0x2076B56C EQ PUSH2 0x1B2 JUMPI DUP1 PUSH4 0x4A003DCF EQ PUSH2 0x1DB JUMPI DUP1 PUSH4 0x6B8F8E15 EQ PUSH2 0x204 JUMPI DUP1 PUSH4 0x722713F7 EQ PUSH2 0x22F JUMPI DUP1 PUSH4 0x8DA5CB5B EQ PUSH2 0x25A JUMPI PUSH2 0x114 JUMP JUMPDEST DUP1 PUSH4 0x1246F6E2 EQ PUSH2 0x119 JUMPI DUP1 PUSH4 0x12B91846 EQ PUSH2 0x142 JUMPI DUP1 PUSH4 0x1890154C EQ PUSH2 0x16B JUMPI DUP1 PUSH4 0x1FCCB33C EQ PUSH2 0x187 JUMPI JUMPDEST PUSH1 0x0 DUP1 REVERT JUMPDEST CALLVALUE DUP1 ISZERO PUSH2 0x125 JUMPI PUSH1 0x0 DUP1 REVERT JUMPDEST POP PUSH2 0x140 PUSH1 0x4 DUP1 CALLDATASIZE SUB DUP2 ADD SWAP1 PUSH2 0x13B SWAP2 SWAP1 PUSH2 0x1C9E JUMP JUMPDEST PUSH2 0x458 JUMP JUMPDEST STOP JUMPDEST CALLVALUE DUP1 ISZERO PUSH2 0x14E JUMPI PUSH1 0x0 DUP1 REVERT JUMPDEST POP PUSH2 0x169 PUSH1 0x4 DUP1 CALLDATASIZE SUB DUP2 ADD SWAP1 PUSH2 0x164 SWAP2 SWAP1 PUSH2 0x1C09 JUMP JUMPDEST PUSH2 0x579 JUMP JUMPDEST STOP JUMPDEST PUSH2 0x185 PUSH1 0x4 DUP1 CALLDATASIZE SUB DUP2 ADD SWAP1 PUSH2 0x180 SWAP2 SWAP1 PUSH2 0x1C9E JUMP JUMPDEST PUSH2 0x7C7 JUMP JUMPDEST STOP JUMPDEST CALLVALUE DUP1 ISZERO PUSH2 0x193 JUMPI PUSH1 0x0 DUP1 REVERT JUMPDEST POP PUSH2 0x19C PUSH2 0x957 JUMP JUMPDEST PUSH1 0x40 MLOAD PUSH2 0x1A9 SWAP2 SWAP1 PUSH2 0x229F JUMP JUMPDEST PUSH1 0x40 MLOAD DUP1 SWAP2 SUB SWAP1 RETURN JUMPDEST CALLVALUE DUP1 ISZERO PUSH2 0x1BE JUMPI PUSH1 0x0 DUP1 REVERT JUMPDEST POP PUSH2 0x1D9 PUSH1 0x4 DUP1 CALLDATASIZE SUB DUP2 ADD SWAP1 PUSH2 0x1D4 SWAP2 SWAP1 PUSH2 0x1C4A JUMP JUMPDEST PUSH2 0xA40 JUMP JUMPDEST STOP JUMPDEST CALLVALUE DUP1 ISZERO PUSH2 0x1E7 JUMPI PUSH1 0x0 DUP1 REVERT JUMPDEST POP PUSH2 0x202 PUSH1 0x4 DUP1 CALLDATASIZE SUB DUP2 ADD SWAP1 PUSH2 0x1FD SWAP2 SWAP1 PUSH2 0x1C09 JUMP JUMPDEST PUSH2 0xBD1 JUMP JUMPDEST STOP JUMPDEST CALLVALUE DUP1 ISZERO PUSH2 0x210 JUMPI PUSH1 0x0 DUP1 REVERT JUMPDEST POP PUSH2 0x219 PUSH2 0xE1F JUMP JUMPDEST PUSH1 0x40 MLOAD PUSH2 0x226 SWAP2 SWAP1 PUSH2 0x229F JUMP JUMPDEST PUSH1 0x40 MLOAD DUP1 SWAP2 SUB SWAP1 RETURN JUMPDEST CALLVALUE DUP1 ISZERO PUSH2 0x23B JUMPI PUSH1 0x0 DUP1 REVERT JUMPDEST POP PUSH2 0x244 PUSH2 0xF45 JUMP JUMPDEST PUSH1 0x40 MLOAD PUSH2 0x251 SWAP2 SWAP1 PUSH2 0x24AF JUMP JUMPDEST PUSH1 0x40 MLOAD DUP1 SWAP2 SUB SWAP1 RETURN JUMPDEST CALLVALUE DUP1 ISZERO PUSH2 0x266 JUMPI PUSH1 0x0 DUP1 REVERT JUMPDEST POP PUSH2 0x26F PUSH2 0xFF6 JUMP JUMPDEST PUSH1 0x40 MLOAD PUSH2 0x27C SWAP2 SWAP1 PUSH2 0x2224 JUMP JUMPDEST PUSH1 0x40 MLOAD DUP1 SWAP2 SUB SWAP1 RETURN JUMPDEST CALLVALUE DUP1 ISZERO PUSH2 0x291 JUMPI PUSH1 0x0 DUP1 REVERT JUMPDEST POP PUSH2 0x29A PUSH2 0x101C JUMP JUMPDEST PUSH1 0x40 MLOAD PUSH2 0x2A7 SWAP2 SWAP1 PUSH2 0x229F JUMP JUMPDEST PUSH1 0x40 MLOAD DUP1 SWAP2 SUB SWAP1 RETURN JUMPDEST CALLVALUE DUP1 ISZERO PUSH2 0x2BC JUMPI PUSH1 0x0 DUP1 REVERT JUMPDEST POP PUSH2 0x2D7 PUSH1 0x4 DUP1 CALLDATASIZE SUB DUP2 ADD SWAP1 PUSH2 0x2D2 SWAP2 SWAP1 PUSH2 0x1C09 JUMP JUMPDEST PUSH2 0x1105 JUMP JUMPDEST STOP JUMPDEST CALLVALUE DUP1 ISZERO PUSH2 0x2E5 JUMPI PUSH1 0x0 DUP1 REVERT JUMPDEST POP PUSH2 0x300 PUSH1 0x4 DUP1 CALLDATASIZE SUB DUP2 ADD SWAP1 PUSH2 0x2FB SWAP2 SWAP1 PUSH2 0x1BB7 JUMP JUMPDEST PUSH2 0x120B JUMP JUMPDEST PUSH1 0x40 MLOAD PUSH2 0x30D SWAP2 SWAP1 PUSH2 0x24AF JUMP JUMPDEST PUSH1 0x40 MLOAD DUP1 SWAP2 SUB SWAP1 RETURN JUMPDEST CALLVALUE DUP1 ISZERO PUSH2 0x322 JUMPI PUSH1 0x0 DUP1 REVERT JUMPDEST POP PUSH2 0x33D PUSH1 0x4 DUP1 CALLDATASIZE SUB DUP2 ADD SWAP1 PUSH2 0x338 SWAP2 SWAP1 PUSH2 0x1C09 JUMP JUMPDEST PUSH2 0x1229 JUMP JUMPDEST PUSH1 0x40 MLOAD PUSH2 0x34C SWAP4 SWAP3 SWAP2 SWAP1 PUSH2 0x2351 JUMP JUMPDEST PUSH1 0x40 MLOAD DUP1 SWAP2 SUB SWAP1 RETURN JUMPDEST CALLVALUE DUP1 ISZERO PUSH2 0x361 JUMPI PUSH1 0x0 DUP1 REVERT JUMPDEST POP PUSH2 0x37C PUSH1 0x4 DUP1 CALLDATASIZE SUB DUP2 ADD SWAP1 PUSH2 0x377 SWAP2 SWAP1 PUSH2 0x1C09 JUMP JUMPDEST PUSH2 0x130E JUMP JUMPDEST PUSH1 0x40 MLOAD PUSH2 0x38B SWAP4 SWAP3 SWAP2 SWAP1 PUSH2 0x2351 JUMP JUMPDEST PUSH1 0x40 MLOAD DUP1 SWAP2 SUB SWAP1 RETURN JUMPDEST CALLVALUE DUP1 ISZERO PUSH2 0x3A0 JUMPI PUSH1 0x0 DUP1 REVERT JUMPDEST POP PUSH2 0x3A9 PUSH2 0x13F3 JUMP JUMPDEST PUSH1 0x40 MLOAD PUSH2 0x3B6 SWAP2 SWAP1 PUSH2 0x229F JUMP JUMPDEST PUSH1 0x40 MLOAD DUP1 SWAP2 SUB SWAP1 RETURN JUMPDEST CALLVALUE DUP1 ISZERO PUSH2 0x3CB JUMPI PUSH1 0x0 DUP1 REVERT JUMPDEST POP PUSH2 0x3E6 PUSH1 0x4 DUP1 CALLDATASIZE SUB DUP2 ADD SWAP1 PUSH2 0x3E1 SWAP2 SWAP1 PUSH2 0x1C09 JUMP JUMPDEST PUSH2 0x1519 JUMP JUMPDEST STOP JUMPDEST CALLVALUE DUP1 ISZERO PUSH2 0x3F4 JUMPI PUSH1 0x0 DUP1 REVERT JUMPDEST POP PUSH2 0x3FD PUSH2 0x161F JUMP JUMPDEST PUSH1 0x40 MLOAD PUSH2 0x40A SWAP2 SWAP1 PUSH2 0x24AF JUMP JUMPDEST PUSH1 0x40 MLOAD DUP1 SWAP2 SUB SWAP1 RETURN JUMPDEST PUSH2 0x42D PUSH1 0x4 DUP1 CALLDATASIZE SUB DUP2 ADD SWAP1 PUSH2 0x428 SWAP2 SWAP1 PUSH2 0x1C9E JUMP JUMPDEST PUSH2 0x16D0 JUMP JUMPDEST STOP JUMPDEST CALLVALUE DUP1 ISZERO PUSH2 0x43B JUMPI PUSH1 0x0 DUP1 REVERT JUMPDEST POP PUSH2 0x456 PUSH1 0x4 DUP1 CALLDATASIZE SUB DUP2 ADD SWAP1 PUSH2 0x451 SWAP2 SWAP1 PUSH2 0x1C4A JUMP JUMPDEST PUSH2 0x18C2 JUMP JUMPDEST STOP JUMPDEST CALLER PUSH1 0x1 PUSH1 0x0 SWAP1 SLOAD SWAP1 PUSH2 0x100 EXP SWAP1 DIV PUSH20 0xFFFFFFFFFFFFFFFFFFFFFFFFFFFFFFFFFFFFFFFF AND PUSH20 0xFFFFFFFFFFFFFFFFFFFFFFFFFFFFFFFFFFFFFFFF AND DUP2 PUSH20 0xFFFFFFFFFFFFFFFFFFFFFFFFFFFFFFFFFFFFFFFF AND EQ PUSH2 0x4E9 JUMPI PUSH1 0x40 MLOAD PUSH32 0x8C379A000000000000000000000000000000000000000000000000000000000 DUP2 MSTORE PUSH1 0x4 ADD PUSH2 0x4E0 SWAP1 PUSH2 0x242F JUMP JUMPDEST PUSH1 0x40 MLOAD DUP1 SWAP2 SUB SWAP1 REVERT JUMPDEST PUSH1 0x0 DUP1 SWAP1 SLOAD SWAP1 PUSH2 0x100 EXP SWAP1 DIV PUSH20 0xFFFFFFFFFFFFFFFFFFFFFFFFFFFFFFFFFFFFFFFF AND PUSH20 0xFFFFFFFFFFFFFFFFFFFFFFFFFFFFFFFFFFFFFFFF AND PUSH4 0x4EE22ADF DUP4 PUSH1 0x40 MLOAD DUP3 PUSH4 0xFFFFFFFF AND PUSH1 0xE0 SHL DUP2 MSTORE PUSH1 0x4 ADD PUSH2 0x543 SWAP2 SWAP1 PUSH2 0x24AF JUMP JUMPDEST PUSH1 0x0 PUSH1 0x40 MLOAD DUP1 DUP4 SUB DUP2 PUSH1 0x0 DUP8 DUP1 EXTCODESIZE ISZERO DUP1 ISZERO PUSH2 0x55D JUMPI PUSH1 0x0 DUP1 REVERT JUMPDEST POP GAS CALL ISZERO DUP1 ISZERO PUSH2 0x571 JUMPI RETURNDATASIZE PUSH1 0x0 DUP1 RETURNDATACOPY RETURNDATASIZE PUSH1 0x0 REVERT JUMPDEST POP POP POP POP POP POP JUMP JUMPDEST PUSH1 0x0 PUSH1 0x3 DUP3 PUSH1 0x40 MLOAD PUSH2 0x58B SWAP2 SWAP1 PUSH2 0x21D7 JUMP JUMPDEST SWAP1 DUP2 MSTORE PUSH1 0x20 ADD PUSH1 0x40 MLOAD DUP1 SWAP2 SUB SWAP1 KECCAK256 PUSH1 0x1 ADD SLOAD SWAP1 POP PUSH1 0x1 ISZERO ISZERO PUSH1 0x3 DUP4 PUSH1 0x40 MLOAD PUSH2 0x5B3 SWAP2 SWAP1 PUSH2 0x21D7 JUMP JUMPDEST SWAP1 DUP2 MSTORE PUSH1 0x20 ADD PUSH1 0x40 MLOAD DUP1 SWAP2 SUB SWAP1 KECCAK256 PUSH1 0x2 ADD PUSH1 0x0 SWAP1 SLOAD SWAP1 PUSH2 0x100 EXP SWAP1 DIV PUSH1 0xFF AND ISZERO ISZERO EQ PUSH2 0x614 JUMPI PUSH1 0x40 MLOAD PUSH32 0x8C379A000000000000000000000000000000000000000000000000000000000 DUP2 MSTORE PUSH1 0x4 ADD PUSH2 0x60B SWAP1 PUSH2 0x240F JUMP JUMPDEST PUSH1 0x40 MLOAD DUP1 SWAP2 SUB SWAP1 REVERT JUMPDEST PUSH2 0x61C PUSH2 0x161F JUMP JUMPDEST DUP2 GT ISZERO PUSH2 0x65E JUMPI PUSH1 0x40 MLOAD PUSH32 0x8C379A000000000000000000000000000000000000000000000000000000000 DUP2 MSTORE PUSH1 0x4 ADD PUSH2 0x655 SWAP1 PUSH2 0x248F JUMP JUMPDEST PUSH1 0x40 MLOAD DUP1 SWAP2 SUB SWAP1 REVERT JUMPDEST PUSH1 0x0 DUP1 SWAP1 SLOAD SWAP1 PUSH2 0x100 EXP SWAP1 DIV PUSH20 0xFFFFFFFFFFFFFFFFFFFFFFFFFFFFFFFFFFFFFFFF AND PUSH20 0xFFFFFFFFFFFFFFFFFFFFFFFFFFFFFFFFFFFFFFFF AND PUSH4 0xF490A351 CALLER ADDRESS DUP5 PUSH1 0x40 MLOAD DUP5 PUSH4 0xFFFFFFFF AND PUSH1 0xE0 SHL DUP2 MSTORE PUSH1 0x4 ADD PUSH2 0x6BC SWAP4 SWAP3 SWAP2 SWAP1 PUSH2 0x223F JUMP JUMPDEST PUSH1 0x20 PUSH1 0x40 MLOAD DUP1 DUP4 SUB DUP2 PUSH1 0x0 DUP8 DUP1 EXTCODESIZE ISZERO DUP1 ISZERO PUSH2 0x6D6 JUMPI PUSH1 0x0 DUP1 REVERT JUMPDEST POP GAS CALL ISZERO DUP1 ISZERO PUSH2 0x6EA JUMPI RETURNDATASIZE PUSH1 0x0 DUP1 RETURNDATACOPY RETURNDATASIZE PUSH1 0x0 REVERT JUMPDEST POP POP POP POP PUSH1 0x40 MLOAD RETURNDATASIZE PUSH1 0x1F NOT PUSH1 0x1F DUP3 ADD AND DUP3 ADD DUP1 PUSH1 0x40 MSTORE POP DUP2 ADD SWAP1 PUSH2 0x70E SWAP2 SWAP1 PUSH2 0x1BE0 JUMP JUMPDEST POP PUSH1 0x7 PUSH1 0x0 CALLER PUSH20 0xFFFFFFFFFFFFFFFFFFFFFFFFFFFFFFFFFFFFFFFF AND PUSH20 0xFFFFFFFFFFFFFFFFFFFFFFFFFFFFFFFFFFFFFFFF AND DUP2 MSTORE PUSH1 0x20 ADD SWAP1 DUP2 MSTORE PUSH1 0x20 ADD PUSH1 0x0 KECCAK256 DUP3 SWAP1 DUP1 PUSH1 0x1 DUP2 SLOAD ADD DUP1 DUP3 SSTORE DUP1 SWAP2 POP POP PUSH1 0x1 SWAP1 SUB SWAP1 PUSH1 0x0 MSTORE PUSH1 0x20 PUSH1 0x0 KECCAK256 ADD PUSH1 0x0 SWAP1 SWAP2 SWAP1 SWAP2 SWAP1 SWAP2 POP SWAP1 DUP1 MLOAD SWAP1 PUSH1 0x20 ADD SWAP1 PUSH2 0x787 SWAP3 SWAP2 SWAP1 PUSH2 0x1A6A JUMP JUMPDEST POP PUSH32 0x7246A03EDF415AB10AA2E7868F4768980D024A3A86AB68F98FCC21567C2F26D7 DUP3 DUP3 CALLER PUSH1 0x40 MLOAD PUSH2 0x7BB SWAP4 SWAP3 SWAP2 SWAP1 PUSH2 0x2313 JUMP JUMPDEST PUSH1 0x40 MLOAD DUP1 SWAP2 SUB SWAP1 LOG1 POP POP JUMP JUMPDEST PUSH1 0x0 DUP2 GT PUSH2 0x80A JUMPI PUSH1 0x40 MLOAD PUSH32 0x8C379A000000000000000000000000000000000000000000000000000000000 DUP2 MSTORE PUSH1 0x4 ADD PUSH2 0x801 SWAP1 PUSH2 0x23AF JUMP JUMPDEST PUSH1 0x40 MLOAD DUP1 SWAP2 SUB SWAP1 REVERT JUMPDEST PUSH2 0x812 PUSH2 0x161F JUMP JUMPDEST DUP2 GT ISZERO PUSH2 0x854 JUMPI PUSH1 0x40 MLOAD PUSH32 0x8C379A000000000000000000000000000000000000000000000000000000000 DUP2 MSTORE PUSH1 0x4 ADD PUSH2 0x84B SWAP1 PUSH2 0x23CF JUMP JUMPDEST PUSH1 0x40 MLOAD DUP1 SWAP2 SUB SWAP1 REVERT JUMPDEST PUSH1 0x0 DUP1 SWAP1 SLOAD SWAP1 PUSH2 0x100 EXP SWAP1 DIV PUSH20 0xFFFFFFFFFFFFFFFFFFFFFFFFFFFFFFFFFFFFFFFF AND PUSH20 0xFFFFFFFFFFFFFFFFFFFFFFFFFFFFFFFFFFFFFFFF AND PUSH4 0xF490A351 CALLER ADDRESS DUP5 PUSH1 0x40 MLOAD DUP5 PUSH4 0xFFFFFFFF AND PUSH1 0xE0 SHL DUP2 MSTORE PUSH1 0x4 ADD PUSH2 0x8B2 SWAP4 SWAP3 SWAP2 SWAP1 PUSH2 0x223F JUMP JUMPDEST PUSH1 0x20 PUSH1 0x40 MLOAD DUP1 DUP4 SUB DUP2 PUSH1 0x0 DUP8 DUP1 EXTCODESIZE ISZERO DUP1 ISZERO PUSH2 0x8CC JUMPI PUSH1 0x0 DUP1 REVERT JUMPDEST POP GAS CALL ISZERO DUP1 ISZERO PUSH2 0x8E0 JUMPI RETURNDATASIZE PUSH1 0x0 DUP1 RETURNDATACOPY RETURNDATASIZE PUSH1 0x0 REVERT JUMPDEST POP POP POP POP PUSH1 0x40 MLOAD RETURNDATASIZE PUSH1 0x1F NOT PUSH1 0x1F DUP3 ADD AND DUP3 ADD DUP1 PUSH1 0x40 MSTORE POP DUP2 ADD SWAP1 PUSH2 0x904 SWAP2 SWAP1 PUSH2 0x1BE0 JUMP JUMPDEST POP CALLER PUSH20 0xFFFFFFFFFFFFFFFFFFFFFFFFFFFFFFFFFFFFFFFF AND PUSH2 0x8FC PUSH2 0x928 DUP4 PUSH2 0x1A56 JUMP JUMPDEST SWAP1 DUP2 ISZERO MUL SWAP1 PUSH1 0x40 MLOAD PUSH1 0x0 PUSH1 0x40 MLOAD DUP1 DUP4 SUB DUP2 DUP6 DUP9 DUP9 CALL SWAP4 POP POP POP POP ISZERO DUP1 ISZERO PUSH2 0x953 JUMPI RETURNDATASIZE PUSH1 0x0 DUP1 RETURNDATACOPY RETURNDATASIZE PUSH1 0x0 REVERT JUMPDEST POP POP JUMP JUMPDEST PUSH1 0x60 PUSH1 0x5 DUP1 SLOAD DUP1 PUSH1 0x20 MUL PUSH1 0x20 ADD PUSH1 0x40 MLOAD SWAP1 DUP2 ADD PUSH1 0x40 MSTORE DUP1 SWAP3 SWAP2 SWAP1 DUP2 DUP2 MSTORE PUSH1 0x20 ADD PUSH1 0x0 SWAP1 JUMPDEST DUP3 DUP3 LT ISZERO PUSH2 0xA37 JUMPI DUP4 DUP3 SWAP1 PUSH1 0x0 MSTORE PUSH1 0x20 PUSH1 0x0 KECCAK256 ADD DUP1 SLOAD PUSH1 0x1 DUP2 PUSH1 0x1 AND ISZERO PUSH2 0x100 MUL SUB AND PUSH1 0x2 SWAP1 DIV DUP1 PUSH1 0x1F ADD PUSH1 0x20 DUP1 SWAP2 DIV MUL PUSH1 0x20 ADD PUSH1 0x40 MLOAD SWAP1 DUP2 ADD PUSH1 0x40 MSTORE DUP1 SWAP3 SWAP2 SWAP1 DUP2 DUP2 MSTORE PUSH1 0x20 ADD DUP3 DUP1 SLOAD PUSH1 0x1 DUP2 PUSH1 0x1 AND ISZERO PUSH2 0x100 MUL SUB AND PUSH1 0x2 SWAP1 DIV DUP1 ISZERO PUSH2 0xA23 JUMPI DUP1 PUSH1 0x1F LT PUSH2 0x9F8 JUMPI PUSH2 0x100 DUP1 DUP4 SLOAD DIV MUL DUP4 MSTORE SWAP2 PUSH1 0x20 ADD SWAP2 PUSH2 0xA23 JUMP JUMPDEST DUP3 ADD SWAP2 SWAP1 PUSH1 0x0 MSTORE PUSH1 0x20 PUSH1 0x0 KECCAK256 SWAP1 JUMPDEST DUP2 SLOAD DUP2 MSTORE SWAP1 PUSH1 0x1 ADD SWAP1 PUSH1 0x20 ADD DUP1 DUP4 GT PUSH2 0xA06 JUMPI DUP3 SWAP1 SUB PUSH1 0x1F AND DUP3 ADD SWAP2 JUMPDEST POP POP POP POP POP DUP2 MSTORE PUSH1 0x20 ADD SWAP1 PUSH1 0x1 ADD SWAP1 PUSH2 0x97B JUMP JUMPDEST POP POP POP POP SWAP1 POP SWAP1 JUMP JUMPDEST CALLER PUSH1 0x1 PUSH1 0x0 SWAP1 SLOAD SWAP1 PUSH2 0x100 EXP SWAP1 DIV PUSH20 0xFFFFFFFFFFFFFFFFFFFFFFFFFFFFFFFFFFFFFFFF AND PUSH20 0xFFFFFFFFFFFFFFFFFFFFFFFFFFFFFFFFFFFFFFFF AND DUP2 PUSH20 0xFFFFFFFFFFFFFFFFFFFFFFFFFFFFFFFFFFFFFFFF AND EQ PUSH2 0xAD1 JUMPI PUSH1 0x40 MLOAD PUSH32 0x8C379A000000000000000000000000000000000000000000000000000000000 DUP2 MSTORE PUSH1 0x4 ADD PUSH2 0xAC8 SWAP1 PUSH2 0x242F JUMP JUMPDEST PUSH1 0x40 MLOAD DUP1 SWAP2 SUB SWAP1 REVERT JUMPDEST PUSH1 0x40 MLOAD DUP1 PUSH1 0x60 ADD PUSH1 0x40 MSTORE DUP1 DUP5 DUP2 MSTORE PUSH1 0x20 ADD DUP4 DUP2 MSTORE PUSH1 0x20 ADD PUSH1 0x1 ISZERO ISZERO DUP2 MSTORE POP PUSH1 0x3 DUP5 PUSH1 0x40 MLOAD PUSH2 0xAFF SWAP2 SWAP1 PUSH2 0x21D7 JUMP JUMPDEST SWAP1 DUP2 MSTORE PUSH1 0x20 ADD PUSH1 0x40 MLOAD DUP1 SWAP2 SUB SWAP1 KECCAK256 PUSH1 0x0 DUP3 ADD MLOAD DUP2 PUSH1 0x0 ADD SWAP1 DUP1 MLOAD SWAP1 PUSH1 0x20 ADD SWAP1 PUSH2 0xB29 SWAP3 SWAP2 SWAP1 PUSH2 0x1A6A JUMP JUMPDEST POP PUSH1 0x20 DUP3 ADD MLOAD DUP2 PUSH1 0x1 ADD SSTORE PUSH1 0x40 DUP3 ADD MLOAD DUP2 PUSH1 0x2 ADD PUSH1 0x0 PUSH2 0x100 EXP DUP2 SLOAD DUP2 PUSH1 0xFF MUL NOT AND SWAP1 DUP4 ISZERO ISZERO MUL OR SWAP1 SSTORE POP SWAP1 POP POP PUSH1 0x5 DUP4 SWAP1 DUP1 PUSH1 0x1 DUP2 SLOAD ADD DUP1 DUP3 SSTORE DUP1 SWAP2 POP POP PUSH1 0x1 SWAP1 SUB SWAP1 PUSH1 0x0 MSTORE PUSH1 0x20 PUSH1 0x0 KECCAK256 ADD PUSH1 0x0 SWAP1 SWAP2 SWAP1 SWAP2 SWAP1 SWAP2 POP SWAP1 DUP1 MLOAD SWAP1 PUSH1 0x20 ADD SWAP1 PUSH2 0xB92 SWAP3 SWAP2 SWAP1 PUSH2 0x1A6A JUMP JUMPDEST POP PUSH32 0xFC9ECD7A6C2CA96D38526A0B9CC22F2474FF8E596DD348EDAAB06BE905EBE378 DUP4 DUP4 PUSH1 0x40 MLOAD PUSH2 0xBC4 SWAP3 SWAP2 SWAP1 PUSH2 0x22E3 JUMP JUMPDEST PUSH1 0x40 MLOAD DUP1 SWAP2 SUB SWAP1 LOG1 POP POP POP JUMP JUMPDEST PUSH1 0x0 PUSH1 0x4 DUP3 PUSH1 0x40 MLOAD PUSH2 0xBE3 SWAP2 SWAP1 PUSH2 0x21D7 JUMP JUMPDEST SWAP1 DUP2 MSTORE PUSH1 0x20 ADD PUSH1 0x40 MLOAD DUP1 SWAP2 SUB SWAP1 KECCAK256 PUSH1 0x1 ADD SLOAD SWAP1 POP PUSH1 0x1 ISZERO ISZERO PUSH1 0x4 DUP4 PUSH1 0x40 MLOAD PUSH2 0xC0B SWAP2 SWAP1 PUSH2 0x21D7 JUMP JUMPDEST SWAP1 DUP2 MSTORE PUSH1 0x20 ADD PUSH1 0x40 MLOAD DUP1 SWAP2 SUB SWAP1 KECCAK256 PUSH1 0x2 ADD PUSH1 0x0 SWAP1 SLOAD SWAP1 PUSH2 0x100 EXP SWAP1 DIV PUSH1 0xFF AND ISZERO ISZERO EQ PUSH2 0xC6C JUMPI PUSH1 0x40 MLOAD PUSH32 0x8C379A000000000000000000000000000000000000000000000000000000000 DUP2 MSTORE PUSH1 0x4 ADD PUSH2 0xC63 SWAP1 PUSH2 0x238F JUMP JUMPDEST PUSH1 0x40 MLOAD DUP1 SWAP2 SUB SWAP1 REVERT JUMPDEST PUSH2 0xC74 PUSH2 0x161F JUMP JUMPDEST DUP2 GT ISZERO PUSH2 0xCB6 JUMPI PUSH1 0x40 MLOAD PUSH32 0x8C379A000000000000000000000000000000000000000000000000000000000 DUP2 MSTORE PUSH1 0x4 ADD PUSH2 0xCAD SWAP1 PUSH2 0x23EF JUMP JUMPDEST PUSH1 0x40 MLOAD DUP1 SWAP2 SUB SWAP1 REVERT JUMPDEST PUSH1 0x0 DUP1 SWAP1 SLOAD SWAP1 PUSH2 0x100 EXP SWAP1 DIV PUSH20 0xFFFFFFFFFFFFFFFFFFFFFFFFFFFFFFFFFFFFFFFF AND PUSH20 0xFFFFFFFFFFFFFFFFFFFFFFFFFFFFFFFFFFFFFFFF AND PUSH4 0xF490A351 CALLER ADDRESS DUP5 PUSH1 0x40 MLOAD DUP5 PUSH4 0xFFFFFFFF AND PUSH1 0xE0 SHL DUP2 MSTORE PUSH1 0x4 ADD PUSH2 0xD14 SWAP4 SWAP3 SWAP2 SWAP1 PUSH2 0x223F JUMP JUMPDEST PUSH1 0x20 PUSH1 0x40 MLOAD DUP1 DUP4 SUB DUP2 PUSH1 0x0 DUP8 DUP1 EXTCODESIZE ISZERO DUP1 ISZERO PUSH2 0xD2E JUMPI PUSH1 0x0 DUP1 REVERT JUMPDEST POP GAS CALL ISZERO DUP1 ISZERO PUSH2 0xD42 JUMPI RETURNDATASIZE PUSH1 0x0 DUP1 RETURNDATACOPY RETURNDATASIZE PUSH1 0x0 REVERT JUMPDEST POP POP POP POP PUSH1 0x40 MLOAD RETURNDATASIZE PUSH1 0x1F NOT PUSH1 0x1F DUP3 ADD AND DUP3 ADD DUP1 PUSH1 0x40 MSTORE POP DUP2 ADD SWAP1 PUSH2 0xD66 SWAP2 SWAP1 PUSH2 0x1BE0 JUMP JUMPDEST POP PUSH1 0x8 PUSH1 0x0 CALLER PUSH20 0xFFFFFFFFFFFFFFFFFFFFFFFFFFFFFFFFFFFFFFFF AND PUSH20 0xFFFFFFFFFFFFFFFFFFFFFFFFFFFFFFFFFFFFFFFF AND DUP2 MSTORE PUSH1 0x20 ADD SWAP1 DUP2 MSTORE PUSH1 0x20 ADD PUSH1 0x0 KECCAK256 DUP3 SWAP1 DUP1 PUSH1 0x1 DUP2 SLOAD ADD DUP1 DUP3 SSTORE DUP1 SWAP2 POP POP PUSH1 0x1 SWAP1 SUB SWAP1 PUSH1 0x0 MSTORE PUSH1 0x20 PUSH1 0x0 KECCAK256 ADD PUSH1 0x0 SWAP1 SWAP2 SWAP1 SWAP2 SWAP1 SWAP2 POP SWAP1 DUP1 MLOAD SWAP1 PUSH1 0x20 ADD SWAP1 PUSH2 0xDDF SWAP3 SWAP2 SWAP1 PUSH2 0x1A6A JUMP JUMPDEST POP PUSH32 0x85EF3E0AA2F5A1974F940061956E15261F5CE81CDB010A26D5760E9D0C47B4D3 DUP3 DUP3 CALLER PUSH1 0x40 MLOAD PUSH2 0xE13 SWAP4 SWAP3 SWAP2 SWAP1 PUSH2 0x2313 JUMP JUMPDEST PUSH1 0x40 MLOAD DUP1 SWAP2 SUB SWAP1 LOG1 POP POP JUMP JUMPDEST PUSH1 0x60 PUSH1 0x7 PUSH1 0x0 CALLER PUSH20 0xFFFFFFFFFFFFFFFFFFFFFFFFFFFFFFFFFFFFFFFF AND PUSH20 0xFFFFFFFFFFFFFFFFFFFFFFFFFFFFFFFFFFFFFFFF AND DUP2 MSTORE PUSH1 0x20 ADD SWAP1 DUP2 MSTORE PUSH1 0x20 ADD PUSH1 0x0 KECCAK256 DUP1 SLOAD DUP1 PUSH1 0x20 MUL PUSH1 0x20 ADD PUSH1 0x40 MLOAD SWAP1 DUP2 ADD PUSH1 0x40 MSTORE DUP1 SWAP3 SWAP2 SWAP1 DUP2 DUP2 MSTORE PUSH1 0x20 ADD PUSH1 0x0 SWAP1 JUMPDEST DUP3 DUP3 LT ISZERO PUSH2 0xF3C JUMPI DUP4 DUP3 SWAP1 PUSH1 0x0 MSTORE PUSH1 0x20 PUSH1 0x0 KECCAK256 ADD DUP1 SLOAD PUSH1 0x1 DUP2 PUSH1 0x1 AND ISZERO PUSH2 0x100 MUL SUB AND PUSH1 0x2 SWAP1 DIV DUP1 PUSH1 0x1F ADD PUSH1 0x20 DUP1 SWAP2 DIV MUL PUSH1 0x20 ADD PUSH1 0x40 MLOAD SWAP1 DUP2 ADD PUSH1 0x40 MSTORE DUP1 SWAP3 SWAP2 SWAP1 DUP2 DUP2 MSTORE PUSH1 0x20 ADD DUP3 DUP1 SLOAD PUSH1 0x1 DUP2 PUSH1 0x1 AND ISZERO PUSH2 0x100 MUL SUB AND PUSH1 0x2 SWAP1 DIV DUP1 ISZERO PUSH2 0xF28 JUMPI DUP1 PUSH1 0x1F LT PUSH2 0xEFD JUMPI PUSH2 0x100 DUP1 DUP4 SLOAD DIV MUL DUP4 MSTORE SWAP2 PUSH1 0x20 ADD SWAP2 PUSH2 0xF28 JUMP JUMPDEST DUP3 ADD SWAP2 SWAP1 PUSH1 0x0 MSTORE PUSH1 0x20 PUSH1 0x0 KECCAK256 SWAP1 JUMPDEST DUP2 SLOAD DUP2 MSTORE SWAP1 PUSH1 0x1 ADD SWAP1 PUSH1 0x20 ADD DUP1 DUP4 GT PUSH2 0xF0B JUMPI DUP3 SWAP1 SUB PUSH1 0x1F AND DUP3 ADD SWAP2 JUMPDEST POP POP POP POP POP DUP2 MSTORE PUSH1 0x20 ADD SWAP1 PUSH1 0x1 ADD SWAP1 PUSH2 0xE80 JUMP JUMPDEST POP POP POP POP SWAP1 POP SWAP1 JUMP JUMPDEST PUSH1 0x0 DUP1 PUSH1 0x0 SWAP1 SLOAD SWAP1 PUSH2 0x100 EXP SWAP1 DIV PUSH20 0xFFFFFFFFFFFFFFFFFFFFFFFFFFFFFFFFFFFFFFFF AND PUSH20 0xFFFFFFFFFFFFFFFFFFFFFFFFFFFFFFFFFFFFFFFF AND PUSH4 0x70A08231 ADDRESS PUSH1 0x40 MLOAD DUP3 PUSH4 0xFFFFFFFF AND PUSH1 0xE0 SHL DUP2 MSTORE PUSH1 0x4 ADD PUSH2 0xFA1 SWAP2 SWAP1 PUSH2 0x21EE JUMP JUMPDEST PUSH1 0x20 PUSH1 0x40 MLOAD DUP1 DUP4 SUB DUP2 DUP7 DUP1 EXTCODESIZE ISZERO DUP1 ISZERO PUSH2 0xFB9 JUMPI PUSH1 0x0 DUP1 REVERT JUMPDEST POP GAS STATICCALL ISZERO DUP1 ISZERO PUSH2 0xFCD JUMPI RETURNDATASIZE PUSH1 0x0 DUP1 RETURNDATACOPY RETURNDATASIZE PUSH1 0x0 REVERT JUMPDEST POP POP POP POP PUSH1 0x40 MLOAD RETURNDATASIZE PUSH1 0x1F NOT PUSH1 0x1F DUP3 ADD AND DUP3 ADD DUP1 PUSH1 0x40 MSTORE POP DUP2 ADD SWAP1 PUSH2 0xFF1 SWAP2 SWAP1 PUSH2 0x1CC7 JUMP JUMPDEST SWAP1 POP SWAP1 JUMP JUMPDEST PUSH1 0x1 PUSH1 0x0 SWAP1 SLOAD SWAP1 PUSH2 0x100 EXP SWAP1 DIV PUSH20 0xFFFFFFFFFFFFFFFFFFFFFFFFFFFFFFFFFFFFFFFF AND DUP2 JUMP JUMPDEST PUSH1 0x60 PUSH1 0x6 DUP1 SLOAD DUP1 PUSH1 0x20 MUL PUSH1 0x20 ADD PUSH1 0x40 MLOAD SWAP1 DUP2 ADD PUSH1 0x40 MSTORE DUP1 SWAP3 SWAP2 SWAP1 DUP2 DUP2 MSTORE PUSH1 0x20 ADD PUSH1 0x0 SWAP1 JUMPDEST DUP3 DUP3 LT ISZERO PUSH2 0x10FC JUMPI DUP4 DUP3 SWAP1 PUSH1 0x0 MSTORE PUSH1 0x20 PUSH1 0x0 KECCAK256 ADD DUP1 SLOAD PUSH1 0x1 DUP2 PUSH1 0x1 AND ISZERO PUSH2 0x100 MUL SUB AND PUSH1 0x2 SWAP1 DIV DUP1 PUSH1 0x1F ADD PUSH1 0x20 DUP1 SWAP2 DIV MUL PUSH1 0x20 ADD PUSH1 0x40 MLOAD SWAP1 DUP2 ADD PUSH1 0x40 MSTORE DUP1 SWAP3 SWAP2 SWAP1 DUP2 DUP2 MSTORE PUSH1 0x20 ADD DUP3 DUP1 SLOAD PUSH1 0x1 DUP2 PUSH1 0x1 AND ISZERO PUSH2 0x100 MUL SUB AND PUSH1 0x2 SWAP1 DIV DUP1 ISZERO PUSH2 0x10E8 JUMPI DUP1 PUSH1 0x1F LT PUSH2 0x10BD JUMPI PUSH2 0x100 DUP1 DUP4 SLOAD DIV MUL DUP4 MSTORE SWAP2 PUSH1 0x20 ADD SWAP2 PUSH2 0x10E8 JUMP JUMPDEST DUP3 ADD SWAP2 SWAP1 PUSH1 0x0 MSTORE PUSH1 0x20 PUSH1 0x0 KECCAK256 SWAP1 JUMPDEST DUP2 SLOAD DUP2 MSTORE SWAP1 PUSH1 0x1 ADD SWAP1 PUSH1 0x20 ADD DUP1 DUP4 GT PUSH2 0x10CB JUMPI DUP3 SWAP1 SUB PUSH1 0x1F AND DUP3 ADD SWAP2 JUMPDEST POP POP POP POP POP DUP2 MSTORE PUSH1 0x20 ADD SWAP1 PUSH1 0x1 ADD SWAP1 PUSH2 0x1040 JUMP JUMPDEST POP POP POP POP SWAP1 POP SWAP1 JUMP JUMPDEST CALLER PUSH1 0x1 PUSH1 0x0 SWAP1 SLOAD SWAP1 PUSH2 0x100 EXP SWAP1 DIV PUSH20 0xFFFFFFFFFFFFFFFFFFFFFFFFFFFFFFFFFFFFFFFF AND PUSH20 0xFFFFFFFFFFFFFFFFFFFFFFFFFFFFFFFFFFFFFFFF AND DUP2 PUSH20 0xFFFFFFFFFFFFFFFFFFFFFFFFFFFFFFFFFFFFFFFF AND EQ PUSH2 0x1196 JUMPI PUSH1 0x40 MLOAD PUSH32 0x8C379A000000000000000000000000000000000000000000000000000000000 DUP2 MSTORE PUSH1 0x4 ADD PUSH2 0x118D SWAP1 PUSH2 0x242F JUMP JUMPDEST PUSH1 0x40 MLOAD DUP1 SWAP2 SUB SWAP1 REVERT JUMPDEST PUSH1 0x0 PUSH1 0x3 DUP4 PUSH1 0x40 MLOAD PUSH2 0x11A8 SWAP2 SWAP1 PUSH2 0x21D7 JUMP JUMPDEST SWAP1 DUP2 MSTORE PUSH1 0x20 ADD PUSH1 0x40 MLOAD DUP1 SWAP2 SUB SWAP1 KECCAK256 PUSH1 0x2 ADD PUSH1 0x0 PUSH2 0x100 EXP DUP2 SLOAD DUP2 PUSH1 0xFF MUL NOT AND SWAP1 DUP4 ISZERO ISZERO MUL OR SWAP1 SSTORE POP PUSH32 0x24BA6C881728980191398DB8DCFD8ED4F6AEB1C08DF349D63F3B85075F3E86DD DUP3 PUSH1 0x40 MLOAD PUSH2 0x11FF SWAP2 SWAP1 PUSH2 0x22C1 JUMP JUMPDEST PUSH1 0x40 MLOAD DUP1 SWAP2 SUB SWAP1 LOG1 POP POP JUMP JUMPDEST PUSH1 0x2 PUSH1 0x20 MSTORE DUP1 PUSH1 0x0 MSTORE PUSH1 0x40 PUSH1 0x0 KECCAK256 PUSH1 0x0 SWAP2 POP SWAP1 POP DUP1 PUSH1 0x0 ADD SLOAD SWAP1 POP DUP2 JUMP JUMPDEST PUSH1 0x3 DUP2 DUP1 MLOAD PUSH1 0x20 DUP2 ADD DUP3 ADD DUP1 MLOAD DUP5 DUP3 MSTORE PUSH1 0x20 DUP4 ADD PUSH1 0x20 DUP6 ADD KECCAK256 DUP2 DUP4 MSTORE DUP1 SWAP6 POP POP POP POP POP POP PUSH1 0x0 SWAP2 POP SWAP1 POP DUP1 PUSH1 0x0 ADD DUP1 SLOAD PUSH1 0x1 DUP2 PUSH1 0x1 AND ISZERO PUSH2 0x100 MUL SUB AND PUSH1 0x2 SWAP1 DIV DUP1 PUSH1 0x1F ADD PUSH1 0x20 DUP1 SWAP2 DIV MUL PUSH1 0x20 ADD PUSH1 0x40 MLOAD SWAP1 DUP2 ADD PUSH1 0x40 MSTORE DUP1 SWAP3 SWAP2 SWAP1 DUP2 DUP2 MSTORE PUSH1 0x20 ADD DUP3 DUP1 SLOAD PUSH1 0x1 DUP2 PUSH1 0x1 AND ISZERO PUSH2 0x100 MUL SUB AND PUSH1 0x2 SWAP1 DIV DUP1 ISZERO PUSH2 0x12EB JUMPI DUP1 PUSH1 0x1F LT PUSH2 0x12C0 JUMPI PUSH2 0x100 DUP1 DUP4 SLOAD DIV MUL DUP4 MSTORE SWAP2 PUSH1 0x20 ADD SWAP2 PUSH2 0x12EB JUMP JUMPDEST DUP3 ADD SWAP2 SWAP1 PUSH1 0x0 MSTORE PUSH1 0x20 PUSH1 0x0 KECCAK256 SWAP1 JUMPDEST DUP2 SLOAD DUP2 MSTORE SWAP1 PUSH1 0x1 ADD SWAP1 PUSH1 0x20 ADD DUP1 DUP4 GT PUSH2 0x12CE JUMPI DUP3 SWAP1 SUB PUSH1 0x1F AND DUP3 ADD SWAP2 JUMPDEST POP POP POP POP POP SWAP1 DUP1 PUSH1 0x1 ADD SLOAD SWAP1 DUP1 PUSH1 0x2 ADD PUSH1 0x0 SWAP1 SLOAD SWAP1 PUSH2 0x100 EXP SWAP1 DIV PUSH1 0xFF AND SWAP1 POP DUP4 JUMP JUMPDEST PUSH1 0x4 DUP2 DUP1 MLOAD PUSH1 0x20 DUP2 ADD DUP3 ADD DUP1 MLOAD DUP5 DUP3 MSTORE PUSH1 0x20 DUP4 ADD PUSH1 0x20 DUP6 ADD KECCAK256 DUP2 DUP4 MSTORE DUP1 SWAP6 POP POP POP POP POP POP PUSH1 0x0 SWAP2 POP SWAP1 POP DUP1 PUSH1 0x0 ADD DUP1 SLOAD PUSH1 0x1 DUP2 PUSH1 0x1 AND ISZERO PUSH2 0x100 MUL SUB AND PUSH1 0x2 SWAP1 DIV DUP1 PUSH1 0x1F ADD PUSH1 0x20 DUP1 SWAP2 DIV MUL PUSH1 0x20 ADD PUSH1 0x40 MLOAD SWAP1 DUP2 ADD PUSH1 0x40 MSTORE DUP1 SWAP3 SWAP2 SWAP1 DUP2 DUP2 MSTORE PUSH1 0x20 ADD DUP3 DUP1 SLOAD PUSH1 0x1 DUP2 PUSH1 0x1 AND ISZERO PUSH2 0x100 MUL SUB AND PUSH1 0x2 SWAP1 DIV DUP1 ISZERO PUSH2 0x13D0 JUMPI DUP1 PUSH1 0x1F LT PUSH2 0x13A5 JUMPI PUSH2 0x100 DUP1 DUP4 SLOAD DIV MUL DUP4 MSTORE SWAP2 PUSH1 0x20 ADD SWAP2 PUSH2 0x13D0 JUMP JUMPDEST DUP3 ADD SWAP2 SWAP1 PUSH1 0x0 MSTORE PUSH1 0x20 PUSH1 0x0 KECCAK256 SWAP1 JUMPDEST DUP2 SLOAD DUP2 MSTORE SWAP1 PUSH1 0x1 ADD SWAP1 PUSH1 0x20 ADD DUP1 DUP4 GT PUSH2 0x13B3 JUMPI DUP3 SWAP1 SUB PUSH1 0x1F AND DUP3 ADD SWAP2 JUMPDEST POP POP POP POP POP SWAP1 DUP1 PUSH1 0x1 ADD SLOAD SWAP1 DUP1 PUSH1 0x2 ADD PUSH1 0x0 SWAP1 SLOAD SWAP1 PUSH2 0x100 EXP SWAP1 DIV PUSH1 0xFF AND SWAP1 POP DUP4 JUMP JUMPDEST PUSH1 0x60 PUSH1 0x8 PUSH1 0x0 CALLER PUSH20 0xFFFFFFFFFFFFFFFFFFFFFFFFFFFFFFFFFFFFFFFF AND PUSH20 0xFFFFFFFFFFFFFFFFFFFFFFFFFFFFFFFFFFFFFFFF AND DUP2 MSTORE PUSH1 0x20 ADD SWAP1 DUP2 MSTORE PUSH1 0x20 ADD PUSH1 0x0 KECCAK256 DUP1 SLOAD DUP1 PUSH1 0x20 MUL PUSH1 0x20 ADD PUSH1 0x40 MLOAD SWAP1 DUP2 ADD PUSH1 0x40 MSTORE DUP1 SWAP3 SWAP2 SWAP1 DUP2 DUP2 MSTORE PUSH1 0x20 ADD PUSH1 0x0 SWAP1 JUMPDEST DUP3 DUP3 LT ISZERO PUSH2 0x1510 JUMPI DUP4 DUP3 SWAP1 PUSH1 0x0 MSTORE PUSH1 0x20 PUSH1 0x0 KECCAK256 ADD DUP1 SLOAD PUSH1 0x1 DUP2 PUSH1 0x1 AND ISZERO PUSH2 0x100 MUL SUB AND PUSH1 0x2 SWAP1 DIV DUP1 PUSH1 0x1F ADD PUSH1 0x20 DUP1 SWAP2 DIV MUL PUSH1 0x20 ADD PUSH1 0x40 MLOAD SWAP1 DUP2 ADD PUSH1 0x40 MSTORE DUP1 SWAP3 SWAP2 SWAP1 DUP2 DUP2 MSTORE PUSH1 0x20 ADD DUP3 DUP1 SLOAD PUSH1 0x1 DUP2 PUSH1 0x1 AND ISZERO PUSH2 0x100 MUL SUB AND PUSH1 0x2 SWAP1 DIV DUP1 ISZERO PUSH2 0x14FC JUMPI DUP1 PUSH1 0x1F LT PUSH2 0x14D1 JUMPI PUSH2 0x100 DUP1 DUP4 SLOAD DIV MUL DUP4 MSTORE SWAP2 PUSH1 0x20 ADD SWAP2 PUSH2 0x14FC JUMP JUMPDEST DUP3 ADD SWAP2 SWAP1 PUSH1 0x0 MSTORE PUSH1 0x20 PUSH1 0x0 KECCAK256 SWAP1 JUMPDEST DUP2 SLOAD DUP2 MSTORE SWAP1 PUSH1 0x1 ADD SWAP1 PUSH1 0x20 ADD DUP1 DUP4 GT PUSH2 0x14DF JUMPI DUP3 SWAP1 SUB PUSH1 0x1F AND DUP3 ADD SWAP2 JUMPDEST POP POP POP POP POP DUP2 MSTORE PUSH1 0x20 ADD SWAP1 PUSH1 0x1 ADD SWAP1 PUSH2 0x1454 JUMP JUMPDEST POP POP POP POP SWAP1 POP SWAP1 JUMP JUMPDEST CALLER PUSH1 0x1 PUSH1 0x0 SWAP1 SLOAD SWAP1 PUSH2 0x100 EXP SWAP1 DIV PUSH20 0xFFFFFFFFFFFFFFFFFFFFFFFFFFFFFFFFFFFFFFFF AND PUSH20 0xFFFFFFFFFFFFFFFFFFFFFFFFFFFFFFFFFFFFFFFF AND DUP2 PUSH20 0xFFFFFFFFFFFFFFFFFFFFFFFFFFFFFFFFFFFFFFFF AND EQ PUSH2 0x15AA JUMPI PUSH1 0x40 MLOAD PUSH32 0x8C379A000000000000000000000000000000000000000000000000000000000 DUP2 MSTORE PUSH1 0x4 ADD PUSH2 0x15A1 SWAP1 PUSH2 0x242F JUMP JUMPDEST PUSH1 0x40 MLOAD DUP1 SWAP2 SUB SWAP1 REVERT JUMPDEST PUSH1 0x0 PUSH1 0x4 DUP4 PUSH1 0x40 MLOAD PUSH2 0x15BC SWAP2 SWAP1 PUSH2 0x21D7 JUMP JUMPDEST SWAP1 DUP2 MSTORE PUSH1 0x20 ADD PUSH1 0x40 MLOAD DUP1 SWAP2 SUB SWAP1 KECCAK256 PUSH1 0x2 ADD PUSH1 0x0 PUSH2 0x100 EXP DUP2 SLOAD DUP2 PUSH1 0xFF MUL NOT AND SWAP1 DUP4 ISZERO ISZERO MUL OR SWAP1 SSTORE POP PUSH32 0xC08B02EC29B10837B03BA712BE7196CCD02824C57A727DBD6C9718051C9437C6 DUP3 PUSH1 0x40 MLOAD PUSH2 0x1613 SWAP2 SWAP1 PUSH2 0x22C1 JUMP JUMPDEST PUSH1 0x40 MLOAD DUP1 SWAP2 SUB SWAP1 LOG1 POP POP JUMP JUMPDEST PUSH1 0x0 DUP1 PUSH1 0x0 SWAP1 SLOAD SWAP1 PUSH2 0x100 EXP SWAP1 DIV PUSH20 0xFFFFFFFFFFFFFFFFFFFFFFFFFFFFFFFFFFFFFFFF AND PUSH20 0xFFFFFFFFFFFFFFFFFFFFFFFFFFFFFFFFFFFFFFFF AND PUSH4 0x70A08231 CALLER PUSH1 0x40 MLOAD DUP3 PUSH4 0xFFFFFFFF AND PUSH1 0xE0 SHL DUP2 MSTORE PUSH1 0x4 ADD PUSH2 0x167B SWAP2 SWAP1 PUSH2 0x2209 JUMP JUMPDEST PUSH1 0x20 PUSH1 0x40 MLOAD DUP1 DUP4 SUB DUP2 DUP7 DUP1 EXTCODESIZE ISZERO DUP1 ISZERO PUSH2 0x1693 JUMPI PUSH1 0x0 DUP1 REVERT JUMPDEST POP GAS STATICCALL ISZERO DUP1 ISZERO PUSH2 0x16A7 JUMPI RETURNDATASIZE PUSH1 0x0 DUP1 RETURNDATACOPY RETURNDATASIZE PUSH1 0x0 REVERT JUMPDEST POP POP POP POP PUSH1 0x40 MLOAD RETURNDATASIZE PUSH1 0x1F NOT PUSH1 0x1F DUP3 ADD AND DUP3 ADD DUP1 PUSH1 0x40 MSTORE POP DUP2 ADD SWAP1 PUSH2 0x16CB SWAP2 SWAP1 PUSH2 0x1CC7 JUMP JUMPDEST SWAP1 POP SWAP1 JUMP JUMPDEST PUSH1 0x0 PUSH2 0x16DB DUP3 PUSH2 0x1A56 JUMP JUMPDEST SWAP1 POP DUP1 CALLVALUE LT ISZERO PUSH2 0x1720 JUMPI PUSH1 0x40 MLOAD PUSH32 0x8C379A000000000000000000000000000000000000000000000000000000000 DUP2 MSTORE PUSH1 0x4 ADD PUSH2 0x1717 SWAP1 PUSH2 0x244F JUMP JUMPDEST PUSH1 0x40 MLOAD DUP1 SWAP2 SUB SWAP1 REVERT JUMPDEST PUSH1 0x0 DUP2 CALLVALUE SUB SWAP1 POP CALLER PUSH20 0xFFFFFFFFFFFFFFFFFFFFFFFFFFFFFFFFFFFFFFFF AND PUSH2 0x8FC DUP3 SWAP1 DUP2 ISZERO MUL SWAP1 PUSH1 0x40 MLOAD PUSH1 0x0 PUSH1 0x40 MLOAD DUP1 DUP4 SUB DUP2 DUP6 DUP9 DUP9 CALL SWAP4 POP POP POP POP ISZERO DUP1 ISZERO PUSH2 0x176D JUMPI RETURNDATASIZE PUSH1 0x0 DUP1 RETURNDATACOPY RETURNDATASIZE PUSH1 0x0 REVERT JUMPDEST POP PUSH1 0x0 PUSH2 0x1778 PUSH2 0xF45 JUMP JUMPDEST SWAP1 POP DUP1 DUP5 GT ISZERO PUSH2 0x17BD JUMPI PUSH1 0x40 MLOAD PUSH32 0x8C379A000000000000000000000000000000000000000000000000000000000 DUP2 MSTORE PUSH1 0x4 ADD PUSH2 0x17B4 SWAP1 PUSH2 0x246F JUMP JUMPDEST PUSH1 0x40 MLOAD DUP1 SWAP2 SUB SWAP1 REVERT JUMPDEST PUSH1 0x0 DUP1 SWAP1 SLOAD SWAP1 PUSH2 0x100 EXP SWAP1 DIV PUSH20 0xFFFFFFFFFFFFFFFFFFFFFFFFFFFFFFFFFFFFFFFF AND PUSH20 0xFFFFFFFFFFFFFFFFFFFFFFFFFFFFFFFFFFFFFFFF AND PUSH4 0xA9059CBB CALLER DUP7 PUSH1 0x40 MLOAD DUP4 PUSH4 0xFFFFFFFF AND PUSH1 0xE0 SHL DUP2 MSTORE PUSH1 0x4 ADD PUSH2 0x1819 SWAP3 SWAP2 SWAP1 PUSH2 0x2276 JUMP JUMPDEST PUSH1 0x20 PUSH1 0x40 MLOAD DUP1 DUP4 SUB DUP2 PUSH1 0x0 DUP8 DUP1 EXTCODESIZE ISZERO DUP1 ISZERO PUSH2 0x1833 JUMPI PUSH1 0x0 DUP1 REVERT JUMPDEST POP GAS CALL ISZERO DUP1 ISZERO PUSH2 0x1847 JUMPI RETURNDATASIZE PUSH1 0x0 DUP1 RETURNDATACOPY RETURNDATASIZE PUSH1 0x0 REVERT JUMPDEST POP POP POP POP PUSH1 0x40 MLOAD RETURNDATASIZE PUSH1 0x1F NOT PUSH1 0x1F DUP3 ADD AND DUP3 ADD DUP1 PUSH1 0x40 MSTORE POP DUP2 ADD SWAP1 PUSH2 0x186B SWAP2 SWAP1 PUSH2 0x1BE0 JUMP JUMPDEST POP DUP4 PUSH1 0x2 PUSH1 0x0 CALLER PUSH20 0xFFFFFFFFFFFFFFFFFFFFFFFFFFFFFFFFFFFFFFFF AND PUSH20 0xFFFFFFFFFFFFFFFFFFFFFFFFFFFFFFFFFFFFFFFF AND DUP2 MSTORE PUSH1 0x20 ADD SWAP1 DUP2 MSTORE PUSH1 0x20 ADD PUSH1 0x0 KECCAK256 PUSH1 0x0 ADD PUSH1 0x0 DUP3 DUP3 SLOAD ADD SWAP3 POP POP DUP2 SWAP1 SSTORE POP POP POP POP POP JUMP JUMPDEST CALLER PUSH1 0x1 PUSH1 0x0 SWAP1 SLOAD SWAP1 PUSH2 0x100 EXP SWAP1 DIV PUSH20 0xFFFFFFFFFFFFFFFFFFFFFFFFFFFFFFFFFFFFFFFF AND PUSH20 0xFFFFFFFFFFFFFFFFFFFFFFFFFFFFFFFFFFFFFFFF AND DUP2 PUSH20 0xFFFFFFFFFFFFFFFFFFFFFFFFFFFFFFFFFFFFFFFF AND EQ PUSH2 0x1953 JUMPI PUSH1 0x40 MLOAD PUSH32 0x8C379A000000000000000000000000000000000000000000000000000000000 DUP2 MSTORE PUSH1 0x4 ADD PUSH2 0x194A SWAP1 PUSH2 0x242F JUMP JUMPDEST PUSH1 0x40 MLOAD DUP1 SWAP2 SUB SWAP1 REVERT JUMPDEST PUSH1 0x40 MLOAD DUP1 PUSH1 0x60 ADD PUSH1 0x40 MSTORE DUP1 DUP5 DUP2 MSTORE PUSH1 0x20 ADD DUP4 DUP2 MSTORE PUSH1 0x20 ADD PUSH1 0x1 ISZERO ISZERO DUP2 MSTORE POP PUSH1 0x4 DUP5 PUSH1 0x40 MLOAD PUSH2 0x1981 SWAP2 SWAP1 PUSH2 0x21D7 JUMP JUMPDEST SWAP1 DUP2 MSTORE PUSH1 0x20 ADD PUSH1 0x40 MLOAD DUP1 SWAP2 SUB SWAP1 KECCAK256 PUSH1 0x0 DUP3 ADD MLOAD DUP2 PUSH1 0x0 ADD SWAP1 DUP1 MLOAD SWAP1 PUSH1 0x20 ADD SWAP1 PUSH2 0x19AB SWAP3 SWAP2 SWAP1 PUSH2 0x1A6A JUMP JUMPDEST POP PUSH1 0x20 DUP3 ADD MLOAD DUP2 PUSH1 0x1 ADD SSTORE PUSH1 0x40 DUP3 ADD MLOAD DUP2 PUSH1 0x2 ADD PUSH1 0x0 PUSH2 0x100 EXP DUP2 SLOAD DUP2 PUSH1 0xFF MUL NOT AND SWAP1 DUP4 ISZERO ISZERO MUL OR SWAP1 SSTORE POP SWAP1 POP POP PUSH1 0x6 DUP4 SWAP1 DUP1 PUSH1 0x1 DUP2 SLOAD ADD DUP1 DUP3 SSTORE DUP1 SWAP2 POP POP PUSH1 0x1 SWAP1 SUB SWAP1 PUSH1 0x0 MSTORE PUSH1 0x20 PUSH1 0x0 KECCAK256 ADD PUSH1 0x0 SWAP1 SWAP2 SWAP1 SWAP2 SWAP1 SWAP2 POP SWAP1 DUP1 MLOAD SWAP1 PUSH1 0x20 ADD SWAP1 PUSH2 0x1A14 SWAP3 SWAP2 SWAP1 PUSH2 0x1A6A JUMP JUMPDEST POP PUSH32 0x6D1A05B4FA2E9450B7AA20D1D87BEC6AB6F8DE4AB150BE94C86F38E98C3C95DD DUP4 DUP4 PUSH1 0x1 PUSH1 0x40 MLOAD PUSH2 0x1A49 SWAP4 SWAP3 SWAP2 SWAP1 PUSH2 0x2351 JUMP JUMPDEST PUSH1 0x40 MLOAD DUP1 SWAP2 SUB SWAP1 LOG1 POP POP POP JUMP JUMPDEST PUSH1 0x0 PUSH8 0xDE0B6B3A7640000 DUP3 MUL SWAP1 POP SWAP2 SWAP1 POP JUMP JUMPDEST DUP3 DUP1 SLOAD PUSH1 0x1 DUP2 PUSH1 0x1 AND ISZERO PUSH2 0x100 MUL SUB AND PUSH1 0x2 SWAP1 DIV SWAP1 PUSH1 0x0 MSTORE PUSH1 0x20 PUSH1 0x0 KECCAK256 SWAP1 PUSH1 0x1F ADD PUSH1 0x20 SWAP1 DIV DUP2 ADD SWAP3 DUP3 PUSH1 0x1F LT PUSH2 0x1AAB JUMPI DUP1 MLOAD PUSH1 0xFF NOT AND DUP4 DUP1 ADD OR DUP6 SSTORE PUSH2 0x1AD9 JUMP JUMPDEST DUP3 DUP1 ADD PUSH1 0x1 ADD DUP6 SSTORE DUP3 ISZERO PUSH2 0x1AD9 JUMPI SWAP2 DUP3 ADD JUMPDEST DUP3 DUP2 GT ISZERO PUSH2 0x1AD8 JUMPI DUP3 MLOAD DUP3 SSTORE SWAP2 PUSH1 0x20 ADD SWAP2 SWAP1 PUSH1 0x1 ADD SWAP1 PUSH2 0x1ABD JUMP JUMPDEST JUMPDEST POP SWAP1 POP PUSH2 0x1AE6 SWAP2 SWAP1 PUSH2 0x1AEA JUMP JUMPDEST POP SWAP1 JUMP JUMPDEST PUSH2 0x1B0C SWAP2 SWAP1 JUMPDEST DUP1 DUP3 GT ISZERO PUSH2 0x1B08 JUMPI PUSH1 0x0 DUP2 PUSH1 0x0 SWAP1 SSTORE POP PUSH1 0x1 ADD PUSH2 0x1AF0 JUMP JUMPDEST POP SWAP1 JUMP JUMPDEST SWAP1 JUMP JUMPDEST PUSH1 0x0 DUP2 CALLDATALOAD SWAP1 POP PUSH2 0x1B1E DUP2 PUSH2 0x2677 JUMP JUMPDEST SWAP3 SWAP2 POP POP JUMP JUMPDEST PUSH1 0x0 DUP2 MLOAD SWAP1 POP PUSH2 0x1B33 DUP2 PUSH2 0x268E JUMP JUMPDEST SWAP3 SWAP2 POP POP JUMP JUMPDEST PUSH1 0x0 DUP3 PUSH1 0x1F DUP4 ADD SLT PUSH2 0x1B4A JUMPI PUSH1 0x0 DUP1 REVERT JUMPDEST DUP2 CALLDATALOAD PUSH2 0x1B5D PUSH2 0x1B58 DUP3 PUSH2 0x24F7 JUMP JUMPDEST PUSH2 0x24CA JUMP JUMPDEST SWAP2 POP DUP1 DUP3 MSTORE PUSH1 0x20 DUP4 ADD PUSH1 0x20 DUP4 ADD DUP6 DUP4 DUP4 ADD GT ISZERO PUSH2 0x1B79 JUMPI PUSH1 0x0 DUP1 REVERT JUMPDEST PUSH2 0x1B84 DUP4 DUP3 DUP5 PUSH2 0x2624 JUMP JUMPDEST POP POP POP SWAP3 SWAP2 POP POP JUMP JUMPDEST PUSH1 0x0 DUP2 CALLDATALOAD SWAP1 POP PUSH2 0x1B9C DUP2 PUSH2 0x26A5 JUMP JUMPDEST SWAP3 SWAP2 POP POP JUMP JUMPDEST PUSH1 0x0 DUP2 MLOAD SWAP1 POP PUSH2 0x1BB1 DUP2 PUSH2 0x26A5 JUMP JUMPDEST SWAP3 SWAP2 POP POP JUMP JUMPDEST PUSH1 0x0 PUSH1 0x20 DUP3 DUP5 SUB SLT ISZERO PUSH2 0x1BC9 JUMPI PUSH1 0x0 DUP1 REVERT JUMPDEST PUSH1 0x0 PUSH2 0x1BD7 DUP5 DUP3 DUP6 ADD PUSH2 0x1B0F JUMP JUMPDEST SWAP2 POP POP SWAP3 SWAP2 POP POP JUMP JUMPDEST PUSH1 0x0 PUSH1 0x20 DUP3 DUP5 SUB SLT ISZERO PUSH2 0x1BF2 JUMPI PUSH1 0x0 DUP1 REVERT JUMPDEST PUSH1 0x0 PUSH2 0x1C00 DUP5 DUP3 DUP6 ADD PUSH2 0x1B24 JUMP JUMPDEST SWAP2 POP POP SWAP3 SWAP2 POP POP JUMP JUMPDEST PUSH1 0x0 PUSH1 0x20 DUP3 DUP5 SUB SLT ISZERO PUSH2 0x1C1B JUMPI PUSH1 0x0 DUP1 REVERT JUMPDEST PUSH1 0x0 DUP3 ADD CALLDATALOAD PUSH8 0xFFFFFFFFFFFFFFFF DUP2 GT ISZERO PUSH2 0x1C35 JUMPI PUSH1 0x0 DUP1 REVERT JUMPDEST PUSH2 0x1C41 DUP5 DUP3 DUP6 ADD PUSH2 0x1B39 JUMP JUMPDEST SWAP2 POP POP SWAP3 SWAP2 POP POP JUMP JUMPDEST PUSH1 0x0 DUP1 PUSH1 0x40 DUP4 DUP6 SUB SLT ISZERO PUSH2 0x1C5D JUMPI PUSH1 0x0 DUP1 REVERT JUMPDEST PUSH1 0x0 DUP4 ADD CALLDATALOAD PUSH8 0xFFFFFFFFFFFFFFFF DUP2 GT ISZERO PUSH2 0x1C77 JUMPI PUSH1 0x0 DUP1 REVERT JUMPDEST PUSH2 0x1C83 DUP6 DUP3 DUP7 ADD PUSH2 0x1B39 JUMP JUMPDEST SWAP3 POP POP PUSH1 0x20 PUSH2 0x1C94 DUP6 DUP3 DUP7 ADD PUSH2 0x1B8D JUMP JUMPDEST SWAP2 POP POP SWAP3 POP SWAP3 SWAP1 POP JUMP JUMPDEST PUSH1 0x0 PUSH1 0x20 DUP3 DUP5 SUB SLT ISZERO PUSH2 0x1CB0 JUMPI PUSH1 0x0 DUP1 REVERT JUMPDEST PUSH1 0x0 PUSH2 0x1CBE DUP5 DUP3 DUP6 ADD PUSH2 0x1B8D JUMP JUMPDEST SWAP2 POP POP SWAP3 SWAP2 POP POP JUMP JUMPDEST PUSH1 0x0 PUSH1 0x20 DUP3 DUP5 SUB SLT ISZERO PUSH2 0x1CD9 JUMPI PUSH1 0x0 DUP1 REVERT JUMPDEST PUSH1 0x0 PUSH2 0x1CE7 DUP5 DUP3 DUP6 ADD PUSH2 0x1BA2 JUMP JUMPDEST SWAP2 POP POP SWAP3 SWAP2 POP POP JUMP JUMPDEST PUSH1 0x0 PUSH2 0x1CFC DUP4 DUP4 PUSH2 0x1DB5 JUMP JUMPDEST SWAP1 POP SWAP3 SWAP2 POP POP JUMP JUMPDEST PUSH2 0x1D0D DUP2 PUSH2 0x25EE JUMP JUMPDEST DUP3 MSTORE POP POP JUMP JUMPDEST PUSH2 0x1D1C DUP2 PUSH2 0x25A6 JUMP JUMPDEST DUP3 MSTORE POP POP JUMP JUMPDEST PUSH2 0x1D2B DUP2 PUSH2 0x2594 JUMP JUMPDEST DUP3 MSTORE POP POP JUMP JUMPDEST PUSH1 0x0 PUSH2 0x1D3C DUP3 PUSH2 0x2533 JUMP JUMPDEST PUSH2 0x1D46 DUP2 DUP6 PUSH2 0x2556 JUMP JUMPDEST SWAP4 POP DUP4 PUSH1 0x20 DUP3 MUL DUP6 ADD PUSH2 0x1D58 DUP6 PUSH2 0x2523 JUMP JUMPDEST DUP1 PUSH1 0x0 JUMPDEST DUP6 DUP2 LT ISZERO PUSH2 0x1D94 JUMPI DUP5 DUP5 SUB DUP10 MSTORE DUP2 MLOAD PUSH2 0x1D75 DUP6 DUP3 PUSH2 0x1CF0 JUMP JUMPDEST SWAP5 POP PUSH2 0x1D80 DUP4 PUSH2 0x2549 JUMP JUMPDEST SWAP3 POP PUSH1 0x20 DUP11 ADD SWAP10 POP POP PUSH1 0x1 DUP2 ADD SWAP1 POP PUSH2 0x1D5C JUMP JUMPDEST POP DUP3 SWAP8 POP DUP8 SWAP6 POP POP POP POP POP POP SWAP3 SWAP2 POP POP JUMP JUMPDEST PUSH2 0x1DAF DUP2 PUSH2 0x25B8 JUMP JUMPDEST DUP3 MSTORE POP POP JUMP JUMPDEST PUSH1 0x0 PUSH2 0x1DC0 DUP3 PUSH2 0x253E JUMP JUMPDEST PUSH2 0x1DCA DUP2 DUP6 PUSH2 0x2567 JUMP JUMPDEST SWAP4 POP PUSH2 0x1DDA DUP2 DUP6 PUSH1 0x20 DUP7 ADD PUSH2 0x2633 JUMP JUMPDEST PUSH2 0x1DE3 DUP2 PUSH2 0x2666 JUMP JUMPDEST DUP5 ADD SWAP2 POP POP SWAP3 SWAP2 POP POP JUMP JUMPDEST PUSH1 0x0 PUSH2 0x1DF9 DUP3 PUSH2 0x253E JUMP JUMPDEST PUSH2 0x1E03 DUP2 DUP6 PUSH2 0x2578 JUMP JUMPDEST SWAP4 POP PUSH2 0x1E13 DUP2 DUP6 PUSH1 0x20 DUP7 ADD PUSH2 0x2633 JUMP JUMPDEST PUSH2 0x1E1C DUP2 PUSH2 0x2666 JUMP JUMPDEST DUP5 ADD SWAP2 POP POP SWAP3 SWAP2 POP POP JUMP JUMPDEST PUSH1 0x0 PUSH2 0x1E32 DUP3 PUSH2 0x253E JUMP JUMPDEST PUSH2 0x1E3C DUP2 DUP6 PUSH2 0x2589 JUMP JUMPDEST SWAP4 POP PUSH2 0x1E4C DUP2 DUP6 PUSH1 0x20 DUP7 ADD PUSH2 0x2633 JUMP JUMPDEST DUP1 DUP5 ADD SWAP2 POP POP SWAP3 SWAP2 POP POP JUMP JUMPDEST PUSH1 0x0 PUSH2 0x1E65 PUSH1 0x2F DUP4 PUSH2 0x2578 JUMP JUMPDEST SWAP2 POP PUSH32 0x4C6120636F6D696461206E6F206573746120646973706F6E69626C6520656E20 PUSH1 0x0 DUP4 ADD MSTORE PUSH32 0x6573746F73206D6F6D656E746F732E0000000000000000000000000000000000 PUSH1 0x20 DUP4 ADD MSTORE PUSH1 0x40 DUP3 ADD SWAP1 POP SWAP2 SWAP1 POP JUMP JUMPDEST PUSH1 0x0 PUSH2 0x1ECB PUSH1 0x33 DUP4 PUSH2 0x2578 JUMP JUMPDEST SWAP2 POP PUSH32 0x4E6563657369746173206465766F6C76657220756E612063616E746964616420 PUSH1 0x0 DUP4 ADD MSTORE PUSH32 0x706F73697469766120646520746F6B656E732E00000000000000000000000000 PUSH1 0x20 DUP4 ADD MSTORE PUSH1 0x40 DUP3 ADD SWAP1 POP SWAP2 SWAP1 POP JUMP JUMPDEST PUSH1 0x0 PUSH2 0x1F31 PUSH1 0x29 DUP4 PUSH2 0x2578 JUMP JUMPDEST SWAP2 POP PUSH32 0x4E6F207469656E6573206C6F7320746F6B656E73207175652064657365617320 PUSH1 0x0 DUP4 ADD MSTORE PUSH32 0x6465766F6C7665722E0000000000000000000000000000000000000000000000 PUSH1 0x20 DUP4 ADD MSTORE PUSH1 0x40 DUP3 ADD SWAP1 POP SWAP2 SWAP1 POP JUMP JUMPDEST PUSH1 0x0 PUSH2 0x1F97 PUSH1 0x2C DUP4 PUSH2 0x2578 JUMP JUMPDEST SWAP2 POP PUSH32 0x4E6563657369746173206D617320546F6B656E73207061726120636F6D657220 PUSH1 0x0 DUP4 ADD MSTORE PUSH32 0x6573746120636F6D6964612E0000000000000000000000000000000000000000 PUSH1 0x20 DUP4 ADD MSTORE PUSH1 0x40 DUP3 ADD SWAP1 POP SWAP2 SWAP1 POP JUMP JUMPDEST PUSH1 0x0 PUSH2 0x1FFD PUSH1 0x32 DUP4 PUSH2 0x2578 JUMP JUMPDEST SWAP2 POP PUSH32 0x4C6120617472616363696F6E206E6F206573746120646973706F6E69626C6520 PUSH1 0x0 DUP4 ADD MSTORE PUSH32 0x656E206573746F73206D6F6D656E746F732E0000000000000000000000000000 PUSH1 0x20 DUP4 ADD MSTORE PUSH1 0x40 DUP3 ADD SWAP1 POP SWAP2 SWAP1 POP JUMP JUMPDEST PUSH1 0x0 PUSH2 0x2063 PUSH1 0x2E DUP4 PUSH2 0x2578 JUMP JUMPDEST SWAP2 POP PUSH32 0x4E6F207469656E6573207065726D69736F73207061726120656A656375746172 PUSH1 0x0 DUP4 ADD MSTORE PUSH32 0x20657374612066756E63696F6E2E000000000000000000000000000000000000 PUSH1 0x20 DUP4 ADD MSTORE PUSH1 0x40 DUP3 ADD SWAP1 POP SWAP2 SWAP1 POP JUMP JUMPDEST PUSH1 0x0 PUSH2 0x20C9 PUSH1 0x2A DUP4 PUSH2 0x2578 JUMP JUMPDEST SWAP2 POP PUSH32 0x436F6D707261206D656E6F7320546F6B656E73206F207061676120636F6E206D PUSH1 0x0 DUP4 ADD MSTORE PUSH32 0x6173206574686572732E00000000000000000000000000000000000000000000 PUSH1 0x20 DUP4 ADD MSTORE PUSH1 0x40 DUP3 ADD SWAP1 POP SWAP2 SWAP1 POP JUMP JUMPDEST PUSH1 0x0 PUSH2 0x212F PUSH1 0x20 DUP4 PUSH2 0x2578 JUMP JUMPDEST SWAP2 POP PUSH32 0x436F6D70726120756E206E756D65726F206D656E6F7220646520546F6B656E73 PUSH1 0x0 DUP4 ADD MSTORE PUSH1 0x20 DUP3 ADD SWAP1 POP SWAP2 SWAP1 POP JUMP JUMPDEST PUSH1 0x0 PUSH2 0x216F PUSH1 0x33 DUP4 PUSH2 0x2578 JUMP JUMPDEST SWAP2 POP PUSH32 0x4E6563657369746173206D617320546F6B656E73207061726120737562697274 PUSH1 0x0 DUP4 ADD MSTORE PUSH32 0x652061206573746120617472616363696F6E2E00000000000000000000000000 PUSH1 0x20 DUP4 ADD MSTORE PUSH1 0x40 DUP3 ADD SWAP1 POP SWAP2 SWAP1 POP JUMP JUMPDEST PUSH2 0x21D1 DUP2 PUSH2 0x25E4 JUMP JUMPDEST DUP3 MSTORE POP POP JUMP JUMPDEST PUSH1 0x0 PUSH2 0x21E3 DUP3 DUP5 PUSH2 0x1E27 JUMP JUMPDEST SWAP2 POP DUP2 SWAP1 POP SWAP3 SWAP2 POP POP JUMP JUMPDEST PUSH1 0x0 PUSH1 0x20 DUP3 ADD SWAP1 POP PUSH2 0x2203 PUSH1 0x0 DUP4 ADD DUP5 PUSH2 0x1D22 JUMP JUMPDEST SWAP3 SWAP2 POP POP JUMP JUMPDEST PUSH1 0x0 PUSH1 0x20 DUP3 ADD SWAP1 POP PUSH2 0x221E PUSH1 0x0 DUP4 ADD DUP5 PUSH2 0x1D04 JUMP JUMPDEST SWAP3 SWAP2 POP POP JUMP JUMPDEST PUSH1 0x0 PUSH1 0x20 DUP3 ADD SWAP1 POP PUSH2 0x2239 PUSH1 0x0 DUP4 ADD DUP5 PUSH2 0x1D13 JUMP JUMPDEST SWAP3 SWAP2 POP POP JUMP JUMPDEST PUSH1 0x0 PUSH1 0x60 DUP3 ADD SWAP1 POP PUSH2 0x2254 PUSH1 0x0 DUP4 ADD DUP7 PUSH2 0x1D04 JUMP JUMPDEST PUSH2 0x2261 PUSH1 0x20 DUP4 ADD DUP6 PUSH2 0x1D22 JUMP JUMPDEST PUSH2 0x226E PUSH1 0x40 DUP4 ADD DUP5 PUSH2 0x21C8 JUMP JUMPDEST SWAP5 SWAP4 POP POP POP POP JUMP JUMPDEST PUSH1 0x0 PUSH1 0x40 DUP3 ADD SWAP1 POP PUSH2 0x228B PUSH1 0x0 DUP4 ADD DUP6 PUSH2 0x1D04 JUMP JUMPDEST PUSH2 0x2298 PUSH1 0x20 DUP4 ADD DUP5 PUSH2 0x21C8 JUMP JUMPDEST SWAP4 SWAP3 POP POP POP JUMP JUMPDEST PUSH1 0x0 PUSH1 0x20 DUP3 ADD SWAP1 POP DUP2 DUP2 SUB PUSH1 0x0 DUP4 ADD MSTORE PUSH2 0x22B9 DUP2 DUP5 PUSH2 0x1D31 JUMP JUMPDEST SWAP1 POP SWAP3 SWAP2 POP POP JUMP JUMPDEST PUSH1 0x0 PUSH1 0x20 DUP3 ADD SWAP1 POP DUP2 DUP2 SUB PUSH1 0x0 DUP4 ADD MSTORE PUSH2 0x22DB DUP2 DUP5 PUSH2 0x1DEE JUMP JUMPDEST SWAP1 POP SWAP3 SWAP2 POP POP JUMP JUMPDEST PUSH1 0x0 PUSH1 0x40 DUP3 ADD SWAP1 POP DUP2 DUP2 SUB PUSH1 0x0 DUP4 ADD MSTORE PUSH2 0x22FD DUP2 DUP6 PUSH2 0x1DEE JUMP JUMPDEST SWAP1 POP PUSH2 0x230C PUSH1 0x20 DUP4 ADD DUP5 PUSH2 0x21C8 JUMP JUMPDEST SWAP4 SWAP3 POP POP POP JUMP JUMPDEST PUSH1 0x0 PUSH1 0x60 DUP3 ADD SWAP1 POP DUP2 DUP2 SUB PUSH1 0x0 DUP4 ADD MSTORE PUSH2 0x232D DUP2 DUP7 PUSH2 0x1DEE JUMP JUMPDEST SWAP1 POP PUSH2 0x233C PUSH1 0x20 DUP4 ADD DUP6 PUSH2 0x21C8 JUMP JUMPDEST PUSH2 0x2349 PUSH1 0x40 DUP4 ADD DUP5 PUSH2 0x1D04 JUMP JUMPDEST SWAP5 SWAP4 POP POP POP POP JUMP JUMPDEST PUSH1 0x0 PUSH1 0x60 DUP3 ADD SWAP1 POP DUP2 DUP2 SUB PUSH1 0x0 DUP4 ADD MSTORE PUSH2 0x236B DUP2 DUP7 PUSH2 0x1DEE JUMP JUMPDEST SWAP1 POP PUSH2 0x237A PUSH1 0x20 DUP4 ADD DUP6 PUSH2 0x21C8 JUMP JUMPDEST PUSH2 0x2387 PUSH1 0x40 DUP4 ADD DUP5 PUSH2 0x1DA6 JUMP JUMPDEST SWAP5 SWAP4 POP POP POP POP JUMP JUMPDEST PUSH1 0x0 PUSH1 0x20 DUP3 ADD SWAP1 POP DUP2 DUP2 SUB PUSH1 0x0 DUP4 ADD MSTORE PUSH2 0x23A8 DUP2 PUSH2 0x1E58 JUMP JUMPDEST SWAP1 POP SWAP2 SWAP1 POP JUMP JUMPDEST PUSH1 0x0 PUSH1 0x20 DUP3 ADD SWAP1 POP DUP2 DUP2 SUB PUSH1 0x0 DUP4 ADD MSTORE PUSH2 0x23C8 DUP2 PUSH2 0x1EBE JUMP JUMPDEST SWAP1 POP SWAP2 SWAP1 POP JUMP JUMPDEST PUSH1 0x0 PUSH1 0x20 DUP3 ADD SWAP1 POP DUP2 DUP2 SUB PUSH1 0x0 DUP4 ADD MSTORE PUSH2 0x23E8 DUP2 PUSH2 0x1F24 JUMP JUMPDEST SWAP1 POP SWAP2 SWAP1 POP JUMP JUMPDEST PUSH1 0x0 PUSH1 0x20 DUP3 ADD SWAP1 POP DUP2 DUP2 SUB PUSH1 0x0 DUP4 ADD MSTORE PUSH2 0x2408 DUP2 PUSH2 0x1F8A JUMP JUMPDEST SWAP1 POP SWAP2 SWAP1 POP JUMP JUMPDEST PUSH1 0x0 PUSH1 0x20 DUP3 ADD SWAP1 POP DUP2 DUP2 SUB PUSH1 0x0 DUP4 ADD MSTORE PUSH2 0x2428 DUP2 PUSH2 0x1FF0 JUMP JUMPDEST SWAP1 POP SWAP2 SWAP1 POP JUMP JUMPDEST PUSH1 0x0 PUSH1 0x20 DUP3 ADD SWAP1 POP DUP2 DUP2 SUB PUSH1 0x0 DUP4 ADD MSTORE PUSH2 0x2448 DUP2 PUSH2 0x2056 JUMP JUMPDEST SWAP1 POP SWAP2 SWAP1 POP JUMP JUMPDEST PUSH1 0x0 PUSH1 0x20 DUP3 ADD SWAP1 POP DUP2 DUP2 SUB PUSH1 0x0 DUP4 ADD MSTORE PUSH2 0x2468 DUP2 PUSH2 0x20BC JUMP JUMPDEST SWAP1 POP SWAP2 SWAP1 POP JUMP JUMPDEST PUSH1 0x0 PUSH1 0x20 DUP3 ADD SWAP1 POP DUP2 DUP2 SUB PUSH1 0x0 DUP4 ADD MSTORE PUSH2 0x2488 DUP2 PUSH2 0x2122 JUMP JUMPDEST SWAP1 POP SWAP2 SWAP1 POP JUMP JUMPDEST PUSH1 0x0 PUSH1 0x20 DUP3 ADD SWAP1 POP DUP2 DUP2 SUB PUSH1 0x0 DUP4 ADD MSTORE PUSH2 0x24A8 DUP2 PUSH2 0x2162 JUMP JUMPDEST SWAP1 POP SWAP2 SWAP1 POP JUMP JUMPDEST PUSH1 0x0 PUSH1 0x20 DUP3 ADD SWAP1 POP PUSH2 0x24C4 PUSH1 0x0 DUP4 ADD DUP5 PUSH2 0x21C8 JUMP JUMPDEST SWAP3 SWAP2 POP POP JUMP JUMPDEST PUSH1 0x0 PUSH1 0x40 MLOAD SWAP1 POP DUP2 DUP2 ADD DUP2 DUP2 LT PUSH8 0xFFFFFFFFFFFFFFFF DUP3 GT OR ISZERO PUSH2 0x24ED JUMPI PUSH1 0x0 DUP1 REVERT JUMPDEST DUP1 PUSH1 0x40 MSTORE POP SWAP2 SWAP1 POP JUMP JUMPDEST PUSH1 0x0 PUSH8 0xFFFFFFFFFFFFFFFF DUP3 GT ISZERO PUSH2 0x250E JUMPI PUSH1 0x0 DUP1 REVERT JUMPDEST PUSH1 0x1F NOT PUSH1 0x1F DUP4 ADD AND SWAP1 POP PUSH1 0x20 DUP2 ADD SWAP1 POP SWAP2 SWAP1 POP JUMP JUMPDEST PUSH1 0x0 DUP2 SWAP1 POP PUSH1 0x20 DUP3 ADD SWAP1 POP SWAP2 SWAP1 POP JUMP JUMPDEST PUSH1 0x0 DUP2 MLOAD SWAP1 POP SWAP2 SWAP1 POP JUMP JUMPDEST PUSH1 0x0 DUP2 MLOAD SWAP1 POP SWAP2 SWAP1 POP JUMP JUMPDEST PUSH1 0x0 PUSH1 0x20 DUP3 ADD SWAP1 POP SWAP2 SWAP1 POP JUMP JUMPDEST PUSH1 0x0 DUP3 DUP3 MSTORE PUSH1 0x20 DUP3 ADD SWAP1 POP SWAP3 SWAP2 POP POP JUMP JUMPDEST PUSH1 0x0 DUP3 DUP3 MSTORE PUSH1 0x20 DUP3 ADD SWAP1 POP SWAP3 SWAP2 POP POP JUMP JUMPDEST PUSH1 0x0 DUP3 DUP3 MSTORE PUSH1 0x20 DUP3 ADD SWAP1 POP SWAP3 SWAP2 POP POP JUMP JUMPDEST PUSH1 0x0 DUP2 SWAP1 POP SWAP3 SWAP2 POP POP JUMP JUMPDEST PUSH1 0x0 PUSH2 0x259F DUP3 PUSH2 0x25C4 JUMP JUMPDEST SWAP1 POP SWAP2 SWAP1 POP JUMP JUMPDEST PUSH1 0x0 PUSH2 0x25B1 DUP3 PUSH2 0x25C4 JUMP JUMPDEST SWAP1 POP SWAP2 SWAP1 POP JUMP JUMPDEST PUSH1 0x0 DUP2 ISZERO ISZERO SWAP1 POP SWAP2 SWAP1 POP JUMP JUMPDEST PUSH1 0x0 PUSH20 0xFFFFFFFFFFFFFFFFFFFFFFFFFFFFFFFFFFFFFFFF DUP3 AND SWAP1 POP SWAP2 SWAP1 POP JUMP JUMPDEST PUSH1 0x0 DUP2 SWAP1 POP SWAP2 SWAP1 POP JUMP JUMPDEST PUSH1 0x0 PUSH2 0x25F9 DUP3 PUSH2 0x2600 JUMP JUMPDEST SWAP1 POP SWAP2 SWAP1 POP JUMP JUMPDEST PUSH1 0x0 PUSH2 0x260B DUP3 PUSH2 0x2612 JUMP JUMPDEST SWAP1 POP SWAP2 SWAP1 POP JUMP JUMPDEST PUSH1 0x0 PUSH2 0x261D DUP3 PUSH2 0x25C4 JUMP JUMPDEST SWAP1 POP SWAP2 SWAP1 POP JUMP JUMPDEST DUP3 DUP2 DUP4 CALLDATACOPY PUSH1 0x0 DUP4 DUP4 ADD MSTORE POP POP POP JUMP JUMPDEST PUSH1 0x0 JUMPDEST DUP4 DUP2 LT ISZERO PUSH2 0x2651 JUMPI DUP1 DUP3 ADD MLOAD DUP2 DUP5 ADD MSTORE PUSH1 0x20 DUP2 ADD SWAP1 POP PUSH2 0x2636 JUMP JUMPDEST DUP4 DUP2 GT ISZERO PUSH2 0x2660 JUMPI PUSH1 0x0 DUP5 DUP5 ADD MSTORE JUMPDEST POP POP POP POP JUMP JUMPDEST PUSH1 0x0 PUSH1 0x1F NOT PUSH1 0x1F DUP4 ADD AND SWAP1 POP SWAP2 SWAP1 POP JUMP JUMPDEST PUSH2 0x2680 DUP2 PUSH2 0x2594 JUMP JUMPDEST DUP2 EQ PUSH2 0x268B JUMPI PUSH1 0x0 DUP1 REVERT JUMPDEST POP JUMP JUMPDEST PUSH2 0x2697 DUP2 PUSH2 0x25B8 JUMP JUMPDEST DUP2 EQ PUSH2 0x26A2 JUMPI PUSH1 0x0 DUP1 REVERT JUMPDEST POP JUMP JUMPDEST PUSH2 0x26AE DUP2 PUSH2 0x25E4 JUMP JUMPDEST DUP2 EQ PUSH2 0x26B9 JUMPI PUSH1 0x0 DUP1 REVERT JUMPDEST POP JUMP INVALID LOG2 PUSH5 0x6970667358 0x22 SLT KECCAK256 0xD4 PUSH11 0x6C216B6CBEE0DC93A40E61 0x29 0x2C 0xD9 0xB2 NOT PUSH31 0x5CD594115368E5C659A55AA7BF64736F6C6343000607003360806040523480 ISZERO PUSH2 0x10 JUMPI PUSH1 0x0 DUP1 REVERT JUMPDEST POP PUSH1 0x40 MLOAD PUSH2 0x109D CODESIZE SUB DUP1 PUSH2 0x109D DUP4 CODECOPY DUP2 DUP2 ADD PUSH1 0x40 MSTORE DUP2 ADD SWAP1 PUSH2 0x32 SWAP2 SWAP1 PUSH2 0x99 JUMP JUMPDEST DUP1 PUSH1 0x2 DUP2 SWAP1 SSTORE POP PUSH1 0x2 SLOAD PUSH1 0x0 DUP1 CALLER PUSH20 0xFFFFFFFFFFFFFFFFFFFFFFFFFFFFFFFFFFFFFFFF AND PUSH20 0xFFFFFFFFFFFFFFFFFFFFFFFFFFFFFFFFFFFFFFFF AND DUP2 MSTORE PUSH1 0x20 ADD SWAP1 DUP2 MSTORE PUSH1 0x20 ADD PUSH1 0x0 KECCAK256 DUP2 SWAP1 SSTORE POP POP PUSH2 0xE3 JUMP JUMPDEST PUSH1 0x0 DUP2 MLOAD SWAP1 POP PUSH2 0x93 DUP2 PUSH2 0xCC JUMP JUMPDEST SWAP3 SWAP2 POP POP JUMP JUMPDEST PUSH1 0x0 PUSH1 0x20 DUP3 DUP5 SUB SLT ISZERO PUSH2 0xAB JUMPI PUSH1 0x0 DUP1 REVERT JUMPDEST PUSH1 0x0 PUSH2 0xB9 DUP5 DUP3 DUP6 ADD PUSH2 0x84 JUMP JUMPDEST SWAP2 POP POP SWAP3 SWAP2 POP POP JUMP JUMPDEST PUSH1 0x0 DUP2 SWAP1 POP SWAP2 SWAP1 POP JUMP JUMPDEST PUSH2 0xD5 DUP2 PUSH2 0xC2 JUMP JUMPDEST DUP2 EQ PUSH2 0xE0 JUMPI PUSH1 0x0 DUP1 REVERT JUMPDEST POP JUMP JUMPDEST PUSH2 0xFAB DUP1 PUSH2 0xF2 PUSH1 0x0 CODECOPY PUSH1 0x0 RETURN INVALID PUSH1 0x80 PUSH1 0x40 MSTORE CALLVALUE DUP1 ISZERO PUSH2 0x10 JUMPI PUSH1 0x0 DUP1 REVERT JUMPDEST POP PUSH1 0x4 CALLDATASIZE LT PUSH2 0xA9 JUMPI PUSH1 0x0 CALLDATALOAD PUSH1 0xE0 SHR DUP1 PUSH4 0x4EE22ADF GT PUSH2 0x71 JUMPI DUP1 PUSH4 0x4EE22ADF EQ PUSH2 0x168 JUMPI DUP1 PUSH4 0x70A08231 EQ PUSH2 0x184 JUMPI DUP1 PUSH4 0x95D89B41 EQ PUSH2 0x1B4 JUMPI DUP1 PUSH4 0xA9059CBB EQ PUSH2 0x1D2 JUMPI DUP1 PUSH4 0xDD62ED3E EQ PUSH2 0x202 JUMPI DUP1 PUSH4 0xF490A351 EQ PUSH2 0x232 JUMPI PUSH2 0xA9 JUMP JUMPDEST DUP1 PUSH4 0x6FDDE03 EQ PUSH2 0xAE JUMPI DUP1 PUSH4 0x95EA7B3 EQ PUSH2 0xCC JUMPI DUP1 PUSH4 0x18160DDD EQ PUSH2 0xFC JUMPI DUP1 PUSH4 0x23B872DD EQ PUSH2 0x11A JUMPI DUP1 PUSH4 0x313CE567 EQ PUSH2 0x14A JUMPI JUMPDEST PUSH1 0x0 DUP1 REVERT JUMPDEST PUSH2 0xB6 PUSH2 0x262 JUMP JUMPDEST PUSH1 0x40 MLOAD PUSH2 0xC3 SWAP2 SWAP1 PUSH2 0xE3A JUMP JUMPDEST PUSH1 0x40 MLOAD DUP1 SWAP2 SUB SWAP1 RETURN JUMPDEST PUSH2 0xE6 PUSH1 0x4 DUP1 CALLDATASIZE SUB DUP2 ADD SWAP1 PUSH2 0xE1 SWAP2 SWAP1 PUSH2 0xD54 JUMP JUMPDEST PUSH2 0x29B JUMP JUMPDEST PUSH1 0x40 MLOAD PUSH2 0xF3 SWAP2 SWAP1 PUSH2 0xE1F JUMP JUMPDEST PUSH1 0x40 MLOAD DUP1 SWAP2 SUB SWAP1 RETURN JUMPDEST PUSH2 0x104 PUSH2 0x38D JUMP JUMPDEST PUSH1 0x40 MLOAD PUSH2 0x111 SWAP2 SWAP1 PUSH2 0xE5C JUMP JUMPDEST PUSH1 0x40 MLOAD DUP1 SWAP2 SUB SWAP1 RETURN JUMPDEST PUSH2 0x134 PUSH1 0x4 DUP1 CALLDATASIZE SUB DUP2 ADD SWAP1 PUSH2 0x12F SWAP2 SWAP1 PUSH2 0xD05 JUMP JUMPDEST PUSH2 0x397 JUMP JUMPDEST PUSH1 0x40 MLOAD PUSH2 0x141 SWAP2 SWAP1 PUSH2 0xE1F JUMP JUMPDEST PUSH1 0x40 MLOAD DUP1 SWAP2 SUB SWAP1 RETURN JUMPDEST PUSH2 0x152 PUSH2 0x712 JUMP JUMPDEST PUSH1 0x40 MLOAD PUSH2 0x15F SWAP2 SWAP1 PUSH2 0xE77 JUMP JUMPDEST PUSH1 0x40 MLOAD DUP1 SWAP2 SUB SWAP1 RETURN JUMPDEST PUSH2 0x182 PUSH1 0x4 DUP1 CALLDATASIZE SUB DUP2 ADD SWAP1 PUSH2 0x17D SWAP2 SWAP1 PUSH2 0xD90 JUMP JUMPDEST PUSH2 0x717 JUMP JUMPDEST STOP JUMPDEST PUSH2 0x19E PUSH1 0x4 DUP1 CALLDATASIZE SUB DUP2 ADD SWAP1 PUSH2 0x199 SWAP2 SWAP1 PUSH2 0xCA0 JUMP JUMPDEST PUSH2 0x776 JUMP JUMPDEST PUSH1 0x40 MLOAD PUSH2 0x1AB SWAP2 SWAP1 PUSH2 0xE5C JUMP JUMPDEST PUSH1 0x40 MLOAD DUP1 SWAP2 SUB SWAP1 RETURN JUMPDEST PUSH2 0x1BC PUSH2 0x7BE JUMP JUMPDEST PUSH1 0x40 MLOAD PUSH2 0x1C9 SWAP2 SWAP1 PUSH2 0xE3A JUMP JUMPDEST PUSH1 0x40 MLOAD DUP1 SWAP2 SUB SWAP1 RETURN JUMPDEST PUSH2 0x1EC PUSH1 0x4 DUP1 CALLDATASIZE SUB DUP2 ADD SWAP1 PUSH2 0x1E7 SWAP2 SWAP1 PUSH2 0xD54 JUMP JUMPDEST PUSH2 0x7F7 JUMP JUMPDEST PUSH1 0x40 MLOAD PUSH2 0x1F9 SWAP2 SWAP1 PUSH2 0xE1F JUMP JUMPDEST PUSH1 0x40 MLOAD DUP1 SWAP2 SUB SWAP1 RETURN JUMPDEST PUSH2 0x21C PUSH1 0x4 DUP1 CALLDATASIZE SUB DUP2 ADD SWAP1 PUSH2 0x217 SWAP2 SWAP1 PUSH2 0xCC9 JUMP JUMPDEST PUSH2 0x9D9 JUMP JUMPDEST PUSH1 0x40 MLOAD PUSH2 0x229 SWAP2 SWAP1 PUSH2 0xE5C JUMP JUMPDEST PUSH1 0x40 MLOAD DUP1 SWAP2 SUB SWAP1 RETURN JUMPDEST PUSH2 0x24C PUSH1 0x4 DUP1 CALLDATASIZE SUB DUP2 ADD SWAP1 PUSH2 0x247 SWAP2 SWAP1 PUSH2 0xD05 JUMP JUMPDEST PUSH2 0xA60 JUMP JUMPDEST PUSH1 0x40 MLOAD PUSH2 0x259 SWAP2 SWAP1 PUSH2 0xE1F JUMP JUMPDEST PUSH1 0x40 MLOAD DUP1 SWAP2 SUB SWAP1 RETURN JUMPDEST PUSH1 0x40 MLOAD DUP1 PUSH1 0x40 ADD PUSH1 0x40 MSTORE DUP1 PUSH1 0xA DUP2 MSTORE PUSH1 0x20 ADD PUSH32 0x4552433230426173696300000000000000000000000000000000000000000000 DUP2 MSTORE POP DUP2 JUMP JUMPDEST PUSH1 0x0 DUP2 PUSH1 0x1 PUSH1 0x0 CALLER PUSH20 0xFFFFFFFFFFFFFFFFFFFFFFFFFFFFFFFFFFFFFFFF AND PUSH20 0xFFFFFFFFFFFFFFFFFFFFFFFFFFFFFFFFFFFFFFFF AND DUP2 MSTORE PUSH1 0x20 ADD SWAP1 DUP2 MSTORE PUSH1 0x20 ADD PUSH1 0x0 KECCAK256 PUSH1 0x0 DUP6 PUSH20 0xFFFFFFFFFFFFFFFFFFFFFFFFFFFFFFFFFFFFFFFF AND PUSH20 0xFFFFFFFFFFFFFFFFFFFFFFFFFFFFFFFFFFFFFFFF AND DUP2 MSTORE PUSH1 0x20 ADD SWAP1 DUP2 MSTORE PUSH1 0x20 ADD PUSH1 0x0 KECCAK256 DUP2 SWAP1 SSTORE POP DUP3 PUSH20 0xFFFFFFFFFFFFFFFFFFFFFFFFFFFFFFFFFFFFFFFF AND CALLER PUSH20 0xFFFFFFFFFFFFFFFFFFFFFFFFFFFFFFFFFFFFFFFF AND PUSH32 0x8C5BE1E5EBEC7D5BD14F71427D1E84F3DD0314C0F7B2291E5B200AC8C7C3B925 DUP5 PUSH1 0x40 MLOAD PUSH2 0x37B SWAP2 SWAP1 PUSH2 0xE5C JUMP JUMPDEST PUSH1 0x40 MLOAD DUP1 SWAP2 SUB SWAP1 LOG3 PUSH1 0x1 SWAP1 POP SWAP3 SWAP2 POP POP JUMP JUMPDEST PUSH1 0x0 PUSH1 0x2 SLOAD SWAP1 POP SWAP1 JUMP JUMPDEST PUSH1 0x0 DUP1 PUSH1 0x0 DUP6 PUSH20 0xFFFFFFFFFFFFFFFFFFFFFFFFFFFFFFFFFFFFFFFF AND PUSH20 0xFFFFFFFFFFFFFFFFFFFFFFFFFFFFFFFFFFFFFFFF AND DUP2 MSTORE PUSH1 0x20 ADD SWAP1 DUP2 MSTORE PUSH1 0x20 ADD PUSH1 0x0 KECCAK256 SLOAD DUP3 GT ISZERO PUSH2 0x3E4 JUMPI PUSH1 0x0 DUP1 REVERT JUMPDEST PUSH1 0x1 PUSH1 0x0 DUP6 PUSH20 0xFFFFFFFFFFFFFFFFFFFFFFFFFFFFFFFFFFFFFFFF AND PUSH20 0xFFFFFFFFFFFFFFFFFFFFFFFFFFFFFFFFFFFFFFFF AND DUP2 MSTORE PUSH1 0x20 ADD SWAP1 DUP2 MSTORE PUSH1 0x20 ADD PUSH1 0x0 KECCAK256 PUSH1 0x0 CALLER PUSH20 0xFFFFFFFFFFFFFFFFFFFFFFFFFFFFFFFFFFFFFFFF AND PUSH20 0xFFFFFFFFFFFFFFFFFFFFFFFFFFFFFFFFFFFFFFFF AND DUP2 MSTORE PUSH1 0x20 ADD SWAP1 DUP2 MSTORE PUSH1 0x20 ADD PUSH1 0x0 KECCAK256 SLOAD DUP3 GT ISZERO PUSH2 0x46D JUMPI PUSH1 0x0 DUP1 REVERT JUMPDEST PUSH2 0x4BE DUP3 PUSH1 0x0 DUP1 DUP8 PUSH20 0xFFFFFFFFFFFFFFFFFFFFFFFFFFFFFFFFFFFFFFFF AND PUSH20 0xFFFFFFFFFFFFFFFFFFFFFFFFFFFFFFFFFFFFFFFF AND DUP2 MSTORE PUSH1 0x20 ADD SWAP1 DUP2 MSTORE PUSH1 0x20 ADD PUSH1 0x0 KECCAK256 SLOAD PUSH2 0xC43 SWAP1 SWAP2 SWAP1 PUSH4 0xFFFFFFFF AND JUMP JUMPDEST PUSH1 0x0 DUP1 DUP7 PUSH20 0xFFFFFFFFFFFFFFFFFFFFFFFFFFFFFFFFFFFFFFFF AND PUSH20 0xFFFFFFFFFFFFFFFFFFFFFFFFFFFFFFFFFFFFFFFF AND DUP2 MSTORE PUSH1 0x20 ADD SWAP1 DUP2 MSTORE PUSH1 0x20 ADD PUSH1 0x0 KECCAK256 DUP2 SWAP1 SSTORE POP PUSH2 0x58F DUP3 PUSH1 0x1 PUSH1 0x0 DUP8 PUSH20 0xFFFFFFFFFFFFFFFFFFFFFFFFFFFFFFFFFFFFFFFF AND PUSH20 0xFFFFFFFFFFFFFFFFFFFFFFFFFFFFFFFFFFFFFFFF AND DUP2 MSTORE PUSH1 0x20 ADD SWAP1 DUP2 MSTORE PUSH1 0x20 ADD PUSH1 0x0 KECCAK256 PUSH1 0x0 CALLER PUSH20 0xFFFFFFFFFFFFFFFFFFFFFFFFFFFFFFFFFFFFFFFF AND PUSH20 0xFFFFFFFFFFFFFFFFFFFFFFFFFFFFFFFFFFFFFFFF AND DUP2 MSTORE PUSH1 0x20 ADD SWAP1 DUP2 MSTORE PUSH1 0x20 ADD PUSH1 0x0 KECCAK256 SLOAD PUSH2 0xC43 SWAP1 SWAP2 SWAP1 PUSH4 0xFFFFFFFF AND JUMP JUMPDEST PUSH1 0x1 PUSH1 0x0 DUP7 PUSH20 0xFFFFFFFFFFFFFFFFFFFFFFFFFFFFFFFFFFFFFFFF AND PUSH20 0xFFFFFFFFFFFFFFFFFFFFFFFFFFFFFFFFFFFFFFFF AND DUP2 MSTORE PUSH1 0x20 ADD SWAP1 DUP2 MSTORE PUSH1 0x20 ADD PUSH1 0x0 KECCAK256 PUSH1 0x0 CALLER PUSH20 0xFFFFFFFFFFFFFFFFFFFFFFFFFFFFFFFFFFFFFFFF AND PUSH20 0xFFFFFFFFFFFFFFFFFFFFFFFFFFFFFFFFFFFFFFFF AND DUP2 MSTORE PUSH1 0x20 ADD SWAP1 DUP2 MSTORE PUSH1 0x20 ADD PUSH1 0x0 KECCAK256 DUP2 SWAP1 SSTORE POP PUSH2 0x660 DUP3 PUSH1 0x0 DUP1 DUP7 PUSH20 0xFFFFFFFFFFFFFFFFFFFFFFFFFFFFFFFFFFFFFFFF AND PUSH20 0xFFFFFFFFFFFFFFFFFFFFFFFFFFFFFFFFFFFFFFFF AND DUP2 MSTORE PUSH1 0x20 ADD SWAP1 DUP2 MSTORE PUSH1 0x20 ADD PUSH1 0x0 KECCAK256 SLOAD PUSH2 0xC5A SWAP1 SWAP2 SWAP1 PUSH4 0xFFFFFFFF AND JUMP JUMPDEST PUSH1 0x0 DUP1 DUP6 PUSH20 0xFFFFFFFFFFFFFFFFFFFFFFFFFFFFFFFFFFFFFFFF AND PUSH20 0xFFFFFFFFFFFFFFFFFFFFFFFFFFFFFFFFFFFFFFFF AND DUP2 MSTORE PUSH1 0x20 ADD SWAP1 DUP2 MSTORE PUSH1 0x20 ADD PUSH1 0x0 KECCAK256 DUP2 SWAP1 SSTORE POP DUP3 PUSH20 0xFFFFFFFFFFFFFFFFFFFFFFFFFFFFFFFFFFFFFFFF AND DUP5 PUSH20 0xFFFFFFFFFFFFFFFFFFFFFFFFFFFFFFFFFFFFFFFF AND PUSH32 0xDDF252AD1BE2C89B69C2B068FC378DAA952BA7F163C4A11628F55A4DF523B3EF DUP5 PUSH1 0x40 MLOAD PUSH2 0x6FF SWAP2 SWAP1 PUSH2 0xE5C JUMP JUMPDEST PUSH1 0x40 MLOAD DUP1 SWAP2 SUB SWAP1 LOG3 PUSH1 0x1 SWAP1 POP SWAP4 SWAP3 POP POP POP JUMP JUMPDEST PUSH1 0x2 DUP2 JUMP JUMPDEST DUP1 PUSH1 0x2 PUSH1 0x0 DUP3 DUP3 SLOAD ADD SWAP3 POP POP DUP2 SWAP1 SSTORE POP DUP1 PUSH1 0x0 DUP1 CALLER PUSH20 0xFFFFFFFFFFFFFFFFFFFFFFFFFFFFFFFFFFFFFFFF AND PUSH20 0xFFFFFFFFFFFFFFFFFFFFFFFFFFFFFFFFFFFFFFFF AND DUP2 MSTORE PUSH1 0x20 ADD SWAP1 DUP2 MSTORE PUSH1 0x20 ADD PUSH1 0x0 KECCAK256 PUSH1 0x0 DUP3 DUP3 SLOAD ADD SWAP3 POP POP DUP2 SWAP1 SSTORE POP POP JUMP JUMPDEST PUSH1 0x0 DUP1 PUSH1 0x0 DUP4 PUSH20 0xFFFFFFFFFFFFFFFFFFFFFFFFFFFFFFFFFFFFFFFF AND PUSH20 0xFFFFFFFFFFFFFFFFFFFFFFFFFFFFFFFFFFFFFFFF AND DUP2 MSTORE PUSH1 0x20 ADD SWAP1 DUP2 MSTORE PUSH1 0x20 ADD PUSH1 0x0 KECCAK256 SLOAD SWAP1 POP SWAP2 SWAP1 POP JUMP JUMPDEST PUSH1 0x40 MLOAD DUP1 PUSH1 0x40 ADD PUSH1 0x40 MSTORE DUP1 PUSH1 0x9 DUP2 MSTORE PUSH1 0x20 ADD PUSH32 0x4A424A2D544F4B454E0000000000000000000000000000000000000000000000 DUP2 MSTORE POP DUP2 JUMP JUMPDEST PUSH1 0x0 DUP1 PUSH1 0x0 CALLER PUSH20 0xFFFFFFFFFFFFFFFFFFFFFFFFFFFFFFFFFFFFFFFF AND PUSH20 0xFFFFFFFFFFFFFFFFFFFFFFFFFFFFFFFFFFFFFFFF AND DUP2 MSTORE PUSH1 0x20 ADD SWAP1 DUP2 MSTORE PUSH1 0x20 ADD PUSH1 0x0 KECCAK256 SLOAD DUP3 GT ISZERO PUSH2 0x844 JUMPI PUSH1 0x0 DUP1 REVERT JUMPDEST PUSH2 0x895 DUP3 PUSH1 0x0 DUP1 CALLER PUSH20 0xFFFFFFFFFFFFFFFFFFFFFFFFFFFFFFFFFFFFFFFF AND PUSH20 0xFFFFFFFFFFFFFFFFFFFFFFFFFFFFFFFFFFFFFFFF AND DUP2 MSTORE PUSH1 0x20 ADD SWAP1 DUP2 MSTORE PUSH1 0x20 ADD PUSH1 0x0 KECCAK256 SLOAD PUSH2 0xC43 SWAP1 SWAP2 SWAP1 PUSH4 0xFFFFFFFF AND JUMP JUMPDEST PUSH1 0x0 DUP1 CALLER PUSH20 0xFFFFFFFFFFFFFFFFFFFFFFFFFFFFFFFFFFFFFFFF AND PUSH20 0xFFFFFFFFFFFFFFFFFFFFFFFFFFFFFFFFFFFFFFFF AND DUP2 MSTORE PUSH1 0x20 ADD SWAP1 DUP2 MSTORE PUSH1 0x20 ADD PUSH1 0x0 KECCAK256 DUP2 SWAP1 SSTORE POP PUSH2 0x928 DUP3 PUSH1 0x0 DUP1 DUP7 PUSH20 0xFFFFFFFFFFFFFFFFFFFFFFFFFFFFFFFFFFFFFFFF AND PUSH20 0xFFFFFFFFFFFFFFFFFFFFFFFFFFFFFFFFFFFFFFFF AND DUP2 MSTORE PUSH1 0x20 ADD SWAP1 DUP2 MSTORE PUSH1 0x20 ADD PUSH1 0x0 KECCAK256 SLOAD PUSH2 0xC5A SWAP1 SWAP2 SWAP1 PUSH4 0xFFFFFFFF AND JUMP JUMPDEST PUSH1 0x0 DUP1 DUP6 PUSH20 0xFFFFFFFFFFFFFFFFFFFFFFFFFFFFFFFFFFFFFFFF AND PUSH20 0xFFFFFFFFFFFFFFFFFFFFFFFFFFFFFFFFFFFFFFFF AND DUP2 MSTORE PUSH1 0x20 ADD SWAP1 DUP2 MSTORE PUSH1 0x20 ADD PUSH1 0x0 KECCAK256 DUP2 SWAP1 SSTORE POP DUP3 PUSH20 0xFFFFFFFFFFFFFFFFFFFFFFFFFFFFFFFFFFFFFFFF AND CALLER PUSH20 0xFFFFFFFFFFFFFFFFFFFFFFFFFFFFFFFFFFFFFFFF AND PUSH32 0xDDF252AD1BE2C89B69C2B068FC378DAA952BA7F163C4A11628F55A4DF523B3EF DUP5 PUSH1 0x40 MLOAD PUSH2 0x9C7 SWAP2 SWAP1 PUSH2 0xE5C JUMP JUMPDEST PUSH1 0x40 MLOAD DUP1 SWAP2 SUB SWAP1 LOG3 PUSH1 0x1 SWAP1 POP SWAP3 SWAP2 POP POP JUMP JUMPDEST PUSH1 0x0 PUSH1 0x1 PUSH1 0x0 DUP5 PUSH20 0xFFFFFFFFFFFFFFFFFFFFFFFFFFFFFFFFFFFFFFFF AND PUSH20 0xFFFFFFFFFFFFFFFFFFFFFFFFFFFFFFFFFFFFFFFF AND DUP2 MSTORE PUSH1 0x20 ADD SWAP1 DUP2 MSTORE PUSH1 0x20 ADD PUSH1 0x0 KECCAK256 PUSH1 0x0 DUP4 PUSH20 0xFFFFFFFFFFFFFFFFFFFFFFFFFFFFFFFFFFFFFFFF AND PUSH20 0xFFFFFFFFFFFFFFFFFFFFFFFFFFFFFFFFFFFFFFFF AND DUP2 MSTORE PUSH1 0x20 ADD SWAP1 DUP2 MSTORE PUSH1 0x20 ADD PUSH1 0x0 KECCAK256 SLOAD SWAP1 POP SWAP3 SWAP2 POP POP JUMP JUMPDEST PUSH1 0x0 DUP1 PUSH1 0x0 DUP6 PUSH20 0xFFFFFFFFFFFFFFFFFFFFFFFFFFFFFFFFFFFFFFFF AND PUSH20 0xFFFFFFFFFFFFFFFFFFFFFFFFFFFFFFFFFFFFFFFF AND DUP2 MSTORE PUSH1 0x20 ADD SWAP1 DUP2 MSTORE PUSH1 0x20 ADD PUSH1 0x0 KECCAK256 SLOAD DUP3 GT ISZERO PUSH2 0xAAD JUMPI PUSH1 0x0 DUP1 REVERT JUMPDEST PUSH2 0xAFE DUP3 PUSH1 0x0 DUP1 DUP8 PUSH20 0xFFFFFFFFFFFFFFFFFFFFFFFFFFFFFFFFFFFFFFFF AND PUSH20 0xFFFFFFFFFFFFFFFFFFFFFFFFFFFFFFFFFFFFFFFF AND DUP2 MSTORE PUSH1 0x20 ADD SWAP1 DUP2 MSTORE PUSH1 0x20 ADD PUSH1 0x0 KECCAK256 SLOAD PUSH2 0xC43 SWAP1 SWAP2 SWAP1 PUSH4 0xFFFFFFFF AND JUMP JUMPDEST PUSH1 0x0 DUP1 DUP7 PUSH20 0xFFFFFFFFFFFFFFFFFFFFFFFFFFFFFFFFFFFFFFFF AND PUSH20 0xFFFFFFFFFFFFFFFFFFFFFFFFFFFFFFFFFFFFFFFF AND DUP2 MSTORE PUSH1 0x20 ADD SWAP1 DUP2 MSTORE PUSH1 0x20 ADD PUSH1 0x0 KECCAK256 DUP2 SWAP1 SSTORE POP PUSH2 0xB91 DUP3 PUSH1 0x0 DUP1 DUP7 PUSH20 0xFFFFFFFFFFFFFFFFFFFFFFFFFFFFFFFFFFFFFFFF AND PUSH20 0xFFFFFFFFFFFFFFFFFFFFFFFFFFFFFFFFFFFFFFFF AND DUP2 MSTORE PUSH1 0x20 ADD SWAP1 DUP2 MSTORE PUSH1 0x20 ADD PUSH1 0x0 KECCAK256 SLOAD PUSH2 0xC5A SWAP1 SWAP2 SWAP1 PUSH4 0xFFFFFFFF AND JUMP JUMPDEST PUSH1 0x0 DUP1 DUP6 PUSH20 0xFFFFFFFFFFFFFFFFFFFFFFFFFFFFFFFFFFFFFFFF AND PUSH20 0xFFFFFFFFFFFFFFFFFFFFFFFFFFFFFFFFFFFFFFFF AND DUP2 MSTORE PUSH1 0x20 ADD SWAP1 DUP2 MSTORE PUSH1 0x20 ADD PUSH1 0x0 KECCAK256 DUP2 SWAP1 SSTORE POP DUP3 PUSH20 0xFFFFFFFFFFFFFFFFFFFFFFFFFFFFFFFFFFFFFFFF AND DUP5 PUSH20 0xFFFFFFFFFFFFFFFFFFFFFFFFFFFFFFFFFFFFFFFF AND PUSH32 0xDDF252AD1BE2C89B69C2B068FC378DAA952BA7F163C4A11628F55A4DF523B3EF DUP5 PUSH1 0x40 MLOAD PUSH2 0xC30 SWAP2 SWAP1 PUSH2 0xE5C JUMP JUMPDEST PUSH1 0x40 MLOAD DUP1 SWAP2 SUB SWAP1 LOG3 PUSH1 0x1 SWAP1 POP SWAP4 SWAP3 POP POP POP JUMP JUMPDEST PUSH1 0x0 DUP3 DUP3 GT ISZERO PUSH2 0xC4F JUMPI INVALID JUMPDEST DUP2 DUP4 SUB SWAP1 POP SWAP3 SWAP2 POP POP JUMP JUMPDEST PUSH1 0x0 DUP1 DUP3 DUP5 ADD SWAP1 POP DUP4 DUP2 LT ISZERO PUSH2 0xC6C JUMPI INVALID JUMPDEST DUP1 SWAP2 POP POP SWAP3 SWAP2 POP POP JUMP JUMPDEST PUSH1 0x0 DUP2 CALLDATALOAD SWAP1 POP PUSH2 0xC85 DUP2 PUSH2 0xF47 JUMP JUMPDEST SWAP3 SWAP2 POP POP JUMP JUMPDEST PUSH1 0x0 DUP2 CALLDATALOAD SWAP1 POP PUSH2 0xC9A DUP2 PUSH2 0xF5E JUMP JUMPDEST SWAP3 SWAP2 POP POP JUMP JUMPDEST PUSH1 0x0 PUSH1 0x20 DUP3 DUP5 SUB SLT ISZERO PUSH2 0xCB2 JUMPI PUSH1 0x0 DUP1 REVERT JUMPDEST PUSH1 0x0 PUSH2 0xCC0 DUP5 DUP3 DUP6 ADD PUSH2 0xC76 JUMP JUMPDEST SWAP2 POP POP SWAP3 SWAP2 POP POP JUMP JUMPDEST PUSH1 0x0 DUP1 PUSH1 0x40 DUP4 DUP6 SUB SLT ISZERO PUSH2 0xCDC JUMPI PUSH1 0x0 DUP1 REVERT JUMPDEST PUSH1 0x0 PUSH2 0xCEA DUP6 DUP3 DUP7 ADD PUSH2 0xC76 JUMP JUMPDEST SWAP3 POP POP PUSH1 0x20 PUSH2 0xCFB DUP6 DUP3 DUP7 ADD PUSH2 0xC76 JUMP JUMPDEST SWAP2 POP POP SWAP3 POP SWAP3 SWAP1 POP JUMP JUMPDEST PUSH1 0x0 DUP1 PUSH1 0x0 PUSH1 0x60 DUP5 DUP7 SUB SLT ISZERO PUSH2 0xD1A JUMPI PUSH1 0x0 DUP1 REVERT JUMPDEST PUSH1 0x0 PUSH2 0xD28 DUP7 DUP3 DUP8 ADD PUSH2 0xC76 JUMP JUMPDEST SWAP4 POP POP PUSH1 0x20 PUSH2 0xD39 DUP7 DUP3 DUP8 ADD PUSH2 0xC76 JUMP JUMPDEST SWAP3 POP POP PUSH1 0x40 PUSH2 0xD4A DUP7 DUP3 DUP8 ADD PUSH2 0xC8B JUMP JUMPDEST SWAP2 POP POP SWAP3 POP SWAP3 POP SWAP3 JUMP JUMPDEST PUSH1 0x0 DUP1 PUSH1 0x40 DUP4 DUP6 SUB SLT ISZERO PUSH2 0xD67 JUMPI PUSH1 0x0 DUP1 REVERT JUMPDEST PUSH1 0x0 PUSH2 0xD75 DUP6 DUP3 DUP7 ADD PUSH2 0xC76 JUMP JUMPDEST SWAP3 POP POP PUSH1 0x20 PUSH2 0xD86 DUP6 DUP3 DUP7 ADD PUSH2 0xC8B JUMP JUMPDEST SWAP2 POP POP SWAP3 POP SWAP3 SWAP1 POP JUMP JUMPDEST PUSH1 0x0 PUSH1 0x20 DUP3 DUP5 SUB SLT ISZERO PUSH2 0xDA2 JUMPI PUSH1 0x0 DUP1 REVERT JUMPDEST PUSH1 0x0 PUSH2 0xDB0 DUP5 DUP3 DUP6 ADD PUSH2 0xC8B JUMP JUMPDEST SWAP2 POP POP SWAP3 SWAP2 POP POP JUMP JUMPDEST PUSH2 0xDC2 DUP2 PUSH2 0xEC0 JUMP JUMPDEST DUP3 MSTORE POP POP JUMP JUMPDEST PUSH1 0x0 PUSH2 0xDD3 DUP3 PUSH2 0xE92 JUMP JUMPDEST PUSH2 0xDDD DUP2 DUP6 PUSH2 0xE9D JUMP JUMPDEST SWAP4 POP PUSH2 0xDED DUP2 DUP6 PUSH1 0x20 DUP7 ADD PUSH2 0xF03 JUMP JUMPDEST PUSH2 0xDF6 DUP2 PUSH2 0xF36 JUMP JUMPDEST DUP5 ADD SWAP2 POP POP SWAP3 SWAP2 POP POP JUMP JUMPDEST PUSH2 0xE0A DUP2 PUSH2 0xEEC JUMP JUMPDEST DUP3 MSTORE POP POP JUMP JUMPDEST PUSH2 0xE19 DUP2 PUSH2 0xEF6 JUMP JUMPDEST DUP3 MSTORE POP POP JUMP JUMPDEST PUSH1 0x0 PUSH1 0x20 DUP3 ADD SWAP1 POP PUSH2 0xE34 PUSH1 0x0 DUP4 ADD DUP5 PUSH2 0xDB9 JUMP JUMPDEST SWAP3 SWAP2 POP POP JUMP JUMPDEST PUSH1 0x0 PUSH1 0x20 DUP3 ADD SWAP1 POP DUP2 DUP2 SUB PUSH1 0x0 DUP4 ADD MSTORE PUSH2 0xE54 DUP2 DUP5 PUSH2 0xDC8 JUMP JUMPDEST SWAP1 POP SWAP3 SWAP2 POP POP JUMP JUMPDEST PUSH1 0x0 PUSH1 0x20 DUP3 ADD SWAP1 POP PUSH2 0xE71 PUSH1 0x0 DUP4 ADD DUP5 PUSH2 0xE01 JUMP JUMPDEST SWAP3 SWAP2 POP POP JUMP JUMPDEST PUSH1 0x0 PUSH1 0x20 DUP3 ADD SWAP1 POP PUSH2 0xE8C PUSH1 0x0 DUP4 ADD DUP5 PUSH2 0xE10 JUMP JUMPDEST SWAP3 SWAP2 POP POP JUMP JUMPDEST PUSH1 0x0 DUP2 MLOAD SWAP1 POP SWAP2 SWAP1 POP JUMP JUMPDEST PUSH1 0x0 DUP3 DUP3 MSTORE PUSH1 0x20 DUP3 ADD SWAP1 POP SWAP3 SWAP2 POP POP JUMP JUMPDEST PUSH1 0x0 PUSH2 0xEB9 DUP3 PUSH2 0xECC JUMP JUMPDEST SWAP1 POP SWAP2 SWAP1 POP JUMP JUMPDEST PUSH1 0x0 DUP2 ISZERO ISZERO SWAP1 POP SWAP2 SWAP1 POP JUMP JUMPDEST PUSH1 0x0 PUSH20 0xFFFFFFFFFFFFFFFFFFFFFFFFFFFFFFFFFFFFFFFF DUP3 AND SWAP1 POP SWAP2 SWAP1 POP JUMP JUMPDEST PUSH1 0x0 DUP2 SWAP1 POP SWAP2 SWAP1 POP JUMP JUMPDEST PUSH1 0x0 PUSH1 0xFF DUP3 AND SWAP1 POP SWAP2 SWAP1 POP JUMP JUMPDEST PUSH1 0x0 JUMPDEST DUP4 DUP2 LT ISZERO PUSH2 0xF21 JUMPI DUP1 DUP3 ADD MLOAD DUP2 DUP5 ADD MSTORE PUSH1 0x20 DUP2 ADD SWAP1 POP PUSH2 0xF06 JUMP JUMPDEST DUP4 DUP2 GT ISZERO PUSH2 0xF30 JUMPI PUSH1 0x0 DUP5 DUP5 ADD MSTORE JUMPDEST POP POP POP POP JUMP JUMPDEST PUSH1 0x0 PUSH1 0x1F NOT PUSH1 0x1F DUP4 ADD AND SWAP1 POP SWAP2 SWAP1 POP JUMP JUMPDEST PUSH2 0xF50 DUP2 PUSH2 0xEAE JUMP JUMPDEST DUP2 EQ PUSH2 0xF5B JUMPI PUSH1 0x0 DUP1 REVERT JUMPDEST POP JUMP JUMPDEST PUSH2 0xF67 DUP2 PUSH2 0xEEC JUMP JUMPDEST DUP2 EQ PUSH2 0xF72 JUMPI PUSH1 0x0 DUP1 REVERT JUMPDEST POP JUMP INVALID LOG2 PUSH5 0x6970667358 0x22 SLT KECCAK256 0xFB NUMBER DUP8 0xD3 MOD 0xBA SMOD 0xCE 0x5D CREATE PUSH9 0xE809F8904CF4C4D047 DUP12 0xAF SWAP10 0xCA SWAP4 SWAP12 PUSH15 0xE4B8984A6964736F6C634300060700 CALLER "
				},
				"gasEstimates": {
					"creation": {
						"codeDepositCost": "1994000",
						"executionCost": "infinite",
						"totalCost": "infinite"
					},
					"external": {
						"AtraccionesDisponibles()": "infinite",
						"BajaAtraccion(string)": "infinite",
						"BajaComida(string)": "infinite",
						"Clientes(address)": "1595",
						"ComidasDisponibles()": "infinite",
						"CompraTokens(uint256)": "infinite",
						"ComprarComida(string)": "infinite",
						"DevolverTokens(uint256)": "infinite",
						"GeneraTokens(uint256)": "infinite",
						"Historial()": "infinite",
						"HistorialComida()": "infinite",
						"MappingAtracciones(string)": "infinite",
						"MappingComida(string)": "infinite",
						"MisTokens()": "infinite",
						"NuevaAtraccion(string,uint256)": "infinite",
						"NuevaComida(string,uint256)": "infinite",
						"SubirseAtraccion(string)": "infinite",
						"balanceOf()": "infinite",
						"owner()": "1325"
					},
					"internal": {
						"PrecioTokens(uint256)": "36"
					}
				},
				"methodIdentifiers": {
					"AtraccionesDisponibles()": "1fccb33c",
					"BajaAtraccion(string)": "c66dca40",
					"BajaComida(string)": "dbbdc421",
					"Clientes(address)": "ce8f2f38",
					"ComidasDisponibles()": "c03d2acc",
					"CompraTokens(uint256)": "f7774091",
					"ComprarComida(string)": "4a003dcf",
					"DevolverTokens(uint256)": "1890154c",
					"GeneraTokens(uint256)": "1246f6e2",
					"Historial()": "6b8f8e15",
					"HistorialComida()": "d9ef1dff",
					"MappingAtracciones(string)": "d00df296",
					"MappingComida(string)": "d203c15b",
					"MisTokens()": "e33f34a0",
					"NuevaAtraccion(string,uint256)": "2076b56c",
					"NuevaComida(string,uint256)": "ff0b5ea9",
					"SubirseAtraccion(string)": "12b91846",
					"balanceOf()": "722713f7",
					"owner()": "8da5cb5b"
				}
			},
			"storageLayout": {
				"storage": [
					{
						"astId": 497,
						"contract": "contracts/parque/parque.sol:Disney",
						"label": "token",
						"offset": 0,
						"slot": "0",
						"type": "t_contract(ERC20Basic)409"
					},
					{
						"astId": 499,
						"contract": "contracts/parque/parque.sol:Disney",
						"label": "owner",
						"offset": 0,
						"slot": "1",
						"type": "t_address_payable"
					},
					{
						"astId": 525,
						"contract": "contracts/parque/parque.sol:Disney",
						"label": "Clientes",
						"offset": 0,
						"slot": "2",
						"type": "t_mapping(t_address,t_struct(cliente)521_storage)"
					},
					{
						"astId": 712,
						"contract": "contracts/parque/parque.sol:Disney",
						"label": "MappingAtracciones",
						"offset": 0,
						"slot": "3",
						"type": "t_mapping(t_string_memory_ptr,t_struct(atraccion)701_storage)"
					},
					{
						"astId": 716,
						"contract": "contracts/parque/parque.sol:Disney",
						"label": "MappingComida",
						"offset": 0,
						"slot": "4",
						"type": "t_mapping(t_string_memory_ptr,t_struct(comida)708_storage)"
					},
					{
						"astId": 719,
						"contract": "contracts/parque/parque.sol:Disney",
						"label": "Atracciones",
						"offset": 0,
						"slot": "5",
						"type": "t_array(t_string_storage)dyn_storage"
					},
					{
						"astId": 722,
						"contract": "contracts/parque/parque.sol:Disney",
						"label": "Comidas",
						"offset": 0,
						"slot": "6",
						"type": "t_array(t_string_storage)dyn_storage"
					},
					{
						"astId": 727,
						"contract": "contracts/parque/parque.sol:Disney",
						"label": "HistorialAtracciones",
						"offset": 0,
						"slot": "7",
						"type": "t_mapping(t_address,t_array(t_string_storage)dyn_storage)"
					},
					{
						"astId": 732,
						"contract": "contracts/parque/parque.sol:Disney",
						"label": "HistorialComidas",
						"offset": 0,
						"slot": "8",
						"type": "t_mapping(t_address,t_array(t_string_storage)dyn_storage)"
					}
				],
				"types": {
					"t_address": {
						"encoding": "inplace",
						"label": "address",
						"numberOfBytes": "20"
					},
					"t_address_payable": {
						"encoding": "inplace",
						"label": "address payable",
						"numberOfBytes": "20"
					},
					"t_array(t_string_storage)dyn_storage": {
						"base": "t_string_storage",
						"encoding": "dynamic_array",
						"label": "string[]",
						"numberOfBytes": "32"
					},
					"t_bool": {
						"encoding": "inplace",
						"label": "bool",
						"numberOfBytes": "1"
					},
					"t_contract(ERC20Basic)409": {
						"encoding": "inplace",
						"label": "contract ERC20Basic",
						"numberOfBytes": "20"
					},
					"t_mapping(t_address,t_array(t_string_storage)dyn_storage)": {
						"encoding": "mapping",
						"key": "t_address",
						"label": "mapping(address => string[])",
						"numberOfBytes": "32",
						"value": "t_array(t_string_storage)dyn_storage"
					},
					"t_mapping(t_address,t_struct(cliente)521_storage)": {
						"encoding": "mapping",
						"key": "t_address",
						"label": "mapping(address => struct Disney.cliente)",
						"numberOfBytes": "32",
						"value": "t_struct(cliente)521_storage"
					},
					"t_mapping(t_string_memory_ptr,t_struct(atraccion)701_storage)": {
						"encoding": "mapping",
						"key": "t_string_memory_ptr",
						"label": "mapping(string => struct Disney.atraccion)",
						"numberOfBytes": "32",
						"value": "t_struct(atraccion)701_storage"
					},
					"t_mapping(t_string_memory_ptr,t_struct(comida)708_storage)": {
						"encoding": "mapping",
						"key": "t_string_memory_ptr",
						"label": "mapping(string => struct Disney.comida)",
						"numberOfBytes": "32",
						"value": "t_struct(comida)708_storage"
					},
					"t_string_memory_ptr": {
						"encoding": "bytes",
						"label": "string",
						"numberOfBytes": "32"
					},
					"t_string_storage": {
						"encoding": "bytes",
						"label": "string",
						"numberOfBytes": "32"
					},
					"t_struct(atraccion)701_storage": {
						"encoding": "inplace",
						"label": "struct Disney.atraccion",
						"members": [
							{
								"astId": 696,
								"contract": "contracts/parque/parque.sol:Disney",
								"label": "nombre_atraccion",
								"offset": 0,
								"slot": "0",
								"type": "t_string_storage"
							},
							{
								"astId": 698,
								"contract": "contracts/parque/parque.sol:Disney",
								"label": "precio_atraccion",
								"offset": 0,
								"slot": "1",
								"type": "t_uint256"
							},
							{
								"astId": 700,
								"contract": "contracts/parque/parque.sol:Disney",
								"label": "estado_atraccion",
								"offset": 0,
								"slot": "2",
								"type": "t_bool"
							}
						],
						"numberOfBytes": "96"
					},
					"t_struct(cliente)521_storage": {
						"encoding": "inplace",
						"label": "struct Disney.cliente",
						"members": [
							{
								"astId": 517,
								"contract": "contracts/parque/parque.sol:Disney",
								"label": "tokens_comprados",
								"offset": 0,
								"slot": "0",
								"type": "t_uint256"
							},
							{
								"astId": 520,
								"contract": "contracts/parque/parque.sol:Disney",
								"label": "atracciones_disfrutadas",
								"offset": 0,
								"slot": "1",
								"type": "t_array(t_string_storage)dyn_storage"
							}
						],
						"numberOfBytes": "64"
					},
					"t_struct(comida)708_storage": {
						"encoding": "inplace",
						"label": "struct Disney.comida",
						"members": [
							{
								"astId": 703,
								"contract": "contracts/parque/parque.sol:Disney",
								"label": "nombre_comida",
								"offset": 0,
								"slot": "0",
								"type": "t_string_storage"
							},
							{
								"astId": 705,
								"contract": "contracts/parque/parque.sol:Disney",
								"label": "precio_comida",
								"offset": 0,
								"slot": "1",
								"type": "t_uint256"
							},
							{
								"astId": 707,
								"contract": "contracts/parque/parque.sol:Disney",
								"label": "estado_comida",
								"offset": 0,
								"slot": "2",
								"type": "t_bool"
							}
						],
						"numberOfBytes": "96"
					},
					"t_uint256": {
						"encoding": "inplace",
						"label": "uint256",
						"numberOfBytes": "32"
					}
				}
			},
			"userdoc": {
				"methods": {}
			}
		}
	}
}