{
	"contracts/parque/ERC20.sol": {
		"ERC20Basic": {
			"abi": [
				{
					"inputs": [
						{
							"internalType": "uint256",
							"name": "total",
							"type": "uint256"
						}
					],
					"stateMutability": "nonpayable",
					"type": "constructor"
				},
				{
					"anonymous": false,
					"inputs": [
						{
							"indexed": true,
							"internalType": "address",
							"name": "tokenOwner",
							"type": "address"
						},
						{
							"indexed": true,
							"internalType": "address",
							"name": "spender",
							"type": "address"
						},
						{
							"indexed": false,
							"internalType": "uint256",
							"name": "tokens",
							"type": "uint256"
						}
					],
					"name": "Approval",
					"type": "event"
				},
				{
					"anonymous": false,
					"inputs": [
						{
							"indexed": true,
							"internalType": "address",
							"name": "from",
							"type": "address"
						},
						{
							"indexed": true,
							"internalType": "address",
							"name": "to",
							"type": "address"
						},
						{
							"indexed": false,
							"internalType": "uint256",
							"name": "tokens",
							"type": "uint256"
						}
					],
					"name": "Transfer",
					"type": "event"
				},
				{
					"inputs": [
						{
							"internalType": "address",
							"name": "owner",
							"type": "address"
						},
						{
							"internalType": "address",
							"name": "delegate",
							"type": "address"
						}
					],
					"name": "allowance",
					"outputs": [
						{
							"internalType": "uint256",
							"name": "",
							"type": "uint256"
						}
					],
					"stateMutability": "view",
					"type": "function"
				},
				{
					"inputs": [
						{
							"internalType": "address",
							"name": "delegate",
							"type": "address"
						},
						{
							"internalType": "uint256",
							"name": "numTokens",
							"type": "uint256"
						}
					],
					"name": "approve",
					"outputs": [
						{
							"internalType": "bool",
							"name": "",
							"type": "bool"
						}
					],
					"stateMutability": "nonpayable",
					"type": "function"
				},
				{
					"inputs": [
						{
							"internalType": "address",
							"name": "tokenOwner",
							"type": "address"
						}
					],
					"name": "balanceOf",
					"outputs": [
						{
							"internalType": "uint256",
							"name": "",
							"type": "uint256"
						}
					],
					"stateMutability": "view",
					"type": "function"
				},
				{
					"inputs": [],
					"name": "decimals",
					"outputs": [
						{
							"internalType": "uint8",
							"name": "",
							"type": "uint8"
						}
					],
					"stateMutability": "view",
					"type": "function"
				},
				{
					"inputs": [
						{
							"internalType": "uint256",
							"name": "newTokens",
							"type": "uint256"
						}
					],
					"name": "increaseTotalSuply",
					"outputs": [],
					"stateMutability": "nonpayable",
					"type": "function"
				},
				{
					"inputs": [],
					"name": "name",
					"outputs": [
						{
							"internalType": "string",
							"name": "",
							"type": "string"
						}
					],
					"stateMutability": "view",
					"type": "function"
				},
				{
					"inputs": [],
					"name": "symbol",
					"outputs": [
						{
							"internalType": "string",
							"name": "",
							"type": "string"
						}
					],
					"stateMutability": "view",
					"type": "function"
				},
				{
					"inputs": [],
					"name": "totalSupply",
					"outputs": [
						{
							"internalType": "uint256",
							"name": "",
							"type": "uint256"
						}
					],
					"stateMutability": "view",
					"type": "function"
				},
				{
					"inputs": [
						{
							"internalType": "address",
							"name": "receiver",
							"type": "address"
						},
						{
							"internalType": "uint256",
							"name": "numTokens",
							"type": "uint256"
						}
					],
					"name": "transfer",
					"outputs": [
						{
							"internalType": "bool",
							"name": "",
							"type": "bool"
						}
					],
					"stateMutability": "nonpayable",
					"type": "function"
				},
				{
					"inputs": [
						{
							"internalType": "address",
							"name": "owner",
							"type": "address"
						},
						{
							"internalType": "address",
							"name": "buyer",
							"type": "address"
						},
						{
							"internalType": "uint256",
							"name": "numTokens",
							"type": "uint256"
						}
					],
					"name": "transferFrom",
					"outputs": [
						{
							"internalType": "bool",
							"name": "",
							"type": "bool"
						}
					],
					"stateMutability": "nonpayable",
					"type": "function"
				},
				{
					"inputs": [
						{
							"internalType": "address",
							"name": "sender",
							"type": "address"
						},
						{
							"internalType": "address",
							"name": "receiver",
							"type": "address"
						},
						{
							"internalType": "uint256",
							"name": "numTokens",
							"type": "uint256"
						}
					],
					"name": "transferencia_disney",
					"outputs": [
						{
							"internalType": "bool",
							"name": "",
							"type": "bool"
						}
					],
					"stateMutability": "nonpayable",
					"type": "function"
				}
			],
			"devdoc": {
				"methods": {}
			},
			"evm": {
				"assembly": "    /* \"contracts/parque/ERC20.sol\":923:3623  contract ERC20Basic is IERC20 {\r... */\n  mstore(0x40, 0x80)\n    /* \"contracts/parque/ERC20.sol\":1451:1570  constructor (uint256 total) public{\r... */\n  callvalue\n    /* \"--CODEGEN--\":5:14   */\n  dup1\n    /* \"--CODEGEN--\":2:4   */\n  iszero\n  tag_1\n  jumpi\n    /* \"--CODEGEN--\":27:28   */\n  0x00\n    /* \"--CODEGEN--\":24:25   */\n  dup1\n    /* \"--CODEGEN--\":17:29   */\n  revert\n    /* \"--CODEGEN--\":2:4   */\ntag_1:\n    /* \"contracts/parque/ERC20.sol\":1451:1570  constructor (uint256 total) public{\r... */\n  pop\n  mload(0x40)\n  sub(codesize, bytecodeSize)\n  dup1\n  bytecodeSize\n  dup4\n  codecopy\n  dup2\n  dup2\n  add\n  0x40\n  mstore\n  dup2\n  add\n  swap1\n  tag_2\n  swap2\n  swap1\n  jump(tag_3)\ntag_2:\n    /* \"contracts/parque/ERC20.sol\":1511:1516  total */\n  dup1\n    /* \"contracts/parque/ERC20.sol\":1496:1508  totalSupply_ */\n  0x02\n    /* \"contracts/parque/ERC20.sol\":1496:1516  totalSupply_ = total */\n  dup2\n  swap1\n  sstore\n  pop\n    /* \"contracts/parque/ERC20.sol\":1550:1562  totalSupply_ */\n  sload(0x02)\n    /* \"contracts/parque/ERC20.sol\":1527:1535  balances */\n  0x00\n    /* \"contracts/parque/ERC20.sol\":1527:1547  balances[msg.sender] */\n  dup1\n    /* \"contracts/parque/ERC20.sol\":1536:1546  msg.sender */\n  caller\n    /* \"contracts/parque/ERC20.sol\":1527:1547  balances[msg.sender] */\n  0xffffffffffffffffffffffffffffffffffffffff\n  and\n  0xffffffffffffffffffffffffffffffffffffffff\n  and\n  dup2\n  mstore\n  0x20\n  add\n  swap1\n  dup2\n  mstore\n  0x20\n  add\n  0x00\n  keccak256\n    /* \"contracts/parque/ERC20.sol\":1527:1562  balances[msg.sender] = totalSupply_ */\n  dup2\n  swap1\n  sstore\n  pop\n    /* \"contracts/parque/ERC20.sol\":1451:1570  constructor (uint256 total) public{\r... */\n  pop\n    /* \"contracts/parque/ERC20.sol\":923:3623  contract ERC20Basic is IERC20 {\r... */\n  jump(tag_6)\n    /* \"--CODEGEN--\":5:139   */\ntag_8:\n  0x00\n    /* \"--CODEGEN--\":89:95   */\n  dup2\n    /* \"--CODEGEN--\":83:96   */\n  mload\n    /* \"--CODEGEN--\":74:96   */\n  swap1\n  pop\n    /* \"--CODEGEN--\":101:134   */\n  tag_10\n    /* \"--CODEGEN--\":128:133   */\n  dup2\n    /* \"--CODEGEN--\":101:134   */\n  jump(tag_11)\ntag_10:\n    /* \"--CODEGEN--\":68:139   */\n  swap3\n  swap2\n  pop\n  pop\n  jump\n    /* \"--CODEGEN--\":146:409   */\ntag_3:\n  0x00\n    /* \"--CODEGEN--\":261:263   */\n  0x20\n    /* \"--CODEGEN--\":249:258   */\n  dup3\n    /* \"--CODEGEN--\":240:247   */\n  dup5\n    /* \"--CODEGEN--\":236:259   */\n  sub\n    /* \"--CODEGEN--\":232:264   */\n  slt\n    /* \"--CODEGEN--\":229:231   */\n  iszero\n  tag_13\n  jumpi\n    /* \"--CODEGEN--\":277:278   */\n  0x00\n    /* \"--CODEGEN--\":274:275   */\n  dup1\n    /* \"--CODEGEN--\":267:279   */\n  revert\n    /* \"--CODEGEN--\":229:231   */\ntag_13:\n    /* \"--CODEGEN--\":312:313   */\n  0x00\n    /* \"--CODEGEN--\":329:393   */\n  tag_14\n    /* \"--CODEGEN--\":385:392   */\n  dup5\n    /* \"--CODEGEN--\":376:382   */\n  dup3\n    /* \"--CODEGEN--\":365:374   */\n  dup6\n    /* \"--CODEGEN--\":361:383   */\n  add\n    /* \"--CODEGEN--\":329:393   */\n  jump(tag_8)\ntag_14:\n    /* \"--CODEGEN--\":319:393   */\n  swap2\n  pop\n    /* \"--CODEGEN--\":291:399   */\n  pop\n    /* \"--CODEGEN--\":223:409   */\n  swap3\n  swap2\n  pop\n  pop\n  jump\n    /* \"--CODEGEN--\":416:488   */\ntag_15:\n  0x00\n    /* \"--CODEGEN--\":478:483   */\n  dup2\n    /* \"--CODEGEN--\":467:483   */\n  swap1\n  pop\n    /* \"--CODEGEN--\":461:488   */\n  swap2\n  swap1\n  pop\n  jump\n    /* \"--CODEGEN--\":495:612   */\ntag_11:\n    /* \"--CODEGEN--\":564:588   */\n  tag_18\n    /* \"--CODEGEN--\":582:587   */\n  dup2\n    /* \"--CODEGEN--\":564:588   */\n  jump(tag_15)\ntag_18:\n    /* \"--CODEGEN--\":557:562   */\n  dup2\n    /* \"--CODEGEN--\":554:589   */\n  eq\n    /* \"--CODEGEN--\":544:546   */\n  tag_19\n  jumpi\n    /* \"--CODEGEN--\":603:604   */\n  0x00\n    /* \"--CODEGEN--\":600:601   */\n  dup1\n    /* \"--CODEGEN--\":593:605   */\n  revert\n    /* \"--CODEGEN--\":544:546   */\ntag_19:\n    /* \"--CODEGEN--\":538:612   */\n  pop\n  jump\n    /* \"contracts/parque/ERC20.sol\":923:3623  contract ERC20Basic is IERC20 {\r... */\ntag_6:\n  dataSize(sub_0)\n  dup1\n  dataOffset(sub_0)\n  0x00\n  codecopy\n  0x00\n  return\nstop\n\nsub_0: assembly {\n        /* \"contracts/parque/ERC20.sol\":923:3623  contract ERC20Basic is IERC20 {\r... */\n      mstore(0x40, 0x80)\n      callvalue\n        /* \"--CODEGEN--\":5:14   */\n      dup1\n        /* \"--CODEGEN--\":2:4   */\n      iszero\n      tag_1\n      jumpi\n        /* \"--CODEGEN--\":27:28   */\n      0x00\n        /* \"--CODEGEN--\":24:25   */\n      dup1\n        /* \"--CODEGEN--\":17:29   */\n      revert\n        /* \"--CODEGEN--\":2:4   */\n    tag_1:\n        /* \"contracts/parque/ERC20.sol\":923:3623  contract ERC20Basic is IERC20 {\r... */\n      pop\n      jumpi(tag_2, lt(calldatasize, 0x04))\n      shr(0xe0, calldataload(0x00))\n      dup1\n      0x4ee22adf\n      gt\n      tag_14\n      jumpi\n      dup1\n      0x4ee22adf\n      eq\n      tag_8\n      jumpi\n      dup1\n      0x70a08231\n      eq\n      tag_9\n      jumpi\n      dup1\n      0x95d89b41\n      eq\n      tag_10\n      jumpi\n      dup1\n      0xa9059cbb\n      eq\n      tag_11\n      jumpi\n      dup1\n      0xdd62ed3e\n      eq\n      tag_12\n      jumpi\n      dup1\n      0xf490a351\n      eq\n      tag_13\n      jumpi\n      jump(tag_2)\n    tag_14:\n      dup1\n      0x06fdde03\n      eq\n      tag_3\n      jumpi\n      dup1\n      0x095ea7b3\n      eq\n      tag_4\n      jumpi\n      dup1\n      0x18160ddd\n      eq\n      tag_5\n      jumpi\n      dup1\n      0x23b872dd\n      eq\n      tag_6\n      jumpi\n      dup1\n      0x313ce567\n      eq\n      tag_7\n      jumpi\n    tag_2:\n        /* \"--CODEGEN--\":12:13   */\n      0x00\n        /* \"--CODEGEN--\":9:10   */\n      dup1\n        /* \"--CODEGEN--\":2:14   */\n      revert\n        /* \"contracts/parque/ERC20.sol\":960:1002  string public constant name = \"ERC20Basic\" */\n    tag_3:\n      tag_15\n      tag_16\n      jump\t// in\n    tag_15:\n      mload(0x40)\n      tag_17\n      swap2\n      swap1\n      jump(tag_18)\n    tag_17:\n      mload(0x40)\n      dup1\n      swap2\n      sub\n      swap1\n      return\n        /* \"contracts/parque/ERC20.sol\":2731:2956  function approve (address delegate, uint256 numTokens) public override returns (bool) {\r... */\n    tag_4:\n      tag_19\n      0x04\n      dup1\n      calldatasize\n      sub\n      dup2\n      add\n      swap1\n      tag_20\n      swap2\n      swap1\n      jump(tag_21)\n    tag_20:\n      tag_22\n      jump\t// in\n    tag_19:\n      mload(0x40)\n      tag_23\n      swap2\n      swap1\n      jump(tag_24)\n    tag_23:\n      mload(0x40)\n      dup1\n      swap2\n      sub\n      swap1\n      return\n        /* \"contracts/parque/ERC20.sol\":1582:1681  function totalSupply() public override view returns (uint256){\r... */\n    tag_5:\n      tag_25\n      tag_26\n      jump\t// in\n    tag_25:\n      mload(0x40)\n      tag_27\n      swap2\n      swap1\n      jump(tag_28)\n    tag_27:\n      mload(0x40)\n      dup1\n      swap2\n      sub\n      swap1\n      return\n        /* \"contracts/parque/ERC20.sol\":3118:3614  function transferFrom(address owner, address buyer, uint256 numTokens) public override returns (bool){\r... */\n    tag_6:\n      tag_29\n      0x04\n      dup1\n      calldatasize\n      sub\n      dup2\n      add\n      swap1\n      tag_30\n      swap2\n      swap1\n      jump(tag_31)\n    tag_30:\n      tag_32\n      jump\t// in\n    tag_29:\n      mload(0x40)\n      tag_33\n      swap2\n      swap1\n      jump(tag_24)\n    tag_33:\n      mload(0x40)\n      dup1\n      swap2\n      sub\n      swap1\n      return\n        /* \"contracts/parque/ERC20.sol\":1059:1093  uint8 public constant decimals = 2 */\n    tag_7:\n      tag_34\n      tag_35\n      jump\t// in\n    tag_34:\n      mload(0x40)\n      tag_36\n      swap2\n      swap1\n      jump(tag_37)\n    tag_36:\n      mload(0x40)\n      dup1\n      swap2\n      sub\n      swap1\n      return\n        /* \"contracts/parque/ERC20.sol\":1693:1831  function increaseTotalSuply(uint newTokens) public{\r... */\n    tag_8:\n      tag_38\n      0x04\n      dup1\n      calldatasize\n      sub\n      dup2\n      add\n      swap1\n      tag_39\n      swap2\n      swap1\n      jump(tag_40)\n    tag_39:\n      tag_41\n      jump\t// in\n    tag_38:\n      stop\n        /* \"contracts/parque/ERC20.sol\":1843:1967  function balanceOf (address tokenOwner) public override view returns (uint256){\r... */\n    tag_9:\n      tag_42\n      0x04\n      dup1\n      calldatasize\n      sub\n      dup2\n      add\n      swap1\n      tag_43\n      swap2\n      swap1\n      jump(tag_44)\n    tag_43:\n      tag_45\n      jump\t// in\n    tag_42:\n      mload(0x40)\n      tag_46\n      swap2\n      swap1\n      jump(tag_28)\n    tag_46:\n      mload(0x40)\n      dup1\n      swap2\n      sub\n      swap1\n      return\n        /* \"contracts/parque/ERC20.sol\":1009:1052  string public constant symbol = \"JBJ-TOKEN\" */\n    tag_10:\n      tag_47\n      tag_48\n      jump\t// in\n    tag_47:\n      mload(0x40)\n      tag_49\n      swap2\n      swap1\n      jump(tag_18)\n    tag_49:\n      mload(0x40)\n      dup1\n      swap2\n      sub\n      swap1\n      return\n        /* \"contracts/parque/ERC20.sol\":1979:2336  function transfer(address receiver, uint256 numTokens) public override returns (bool){\r... */\n    tag_11:\n      tag_50\n      0x04\n      dup1\n      calldatasize\n      sub\n      dup2\n      add\n      swap1\n      tag_51\n      swap2\n      swap1\n      jump(tag_21)\n    tag_51:\n      tag_52\n      jump\t// in\n    tag_50:\n      mload(0x40)\n      tag_53\n      swap2\n      swap1\n      jump(tag_24)\n    tag_53:\n      mload(0x40)\n      dup1\n      swap2\n      sub\n      swap1\n      return\n        /* \"contracts/parque/ERC20.sol\":2968:3106  function allowance (address owner, address delegate) public override view returns (uint){\r... */\n    tag_12:\n      tag_54\n      0x04\n      dup1\n      calldatasize\n      sub\n      dup2\n      add\n      swap1\n      tag_55\n      swap2\n      swap1\n      jump(tag_56)\n    tag_55:\n      tag_57\n      jump\t// in\n    tag_54:\n      mload(0x40)\n      tag_58\n      swap2\n      swap1\n      jump(tag_28)\n    tag_58:\n      mload(0x40)\n      dup1\n      swap2\n      sub\n      swap1\n      return\n        /* \"contracts/parque/ERC20.sol\":2349:2718  function transferencia_disney(address sender, address receiver, uint256 numTokens) public override returns (bool){\r... */\n    tag_13:\n      tag_59\n      0x04\n      dup1\n      calldatasize\n      sub\n      dup2\n      add\n      swap1\n      tag_60\n      swap2\n      swap1\n      jump(tag_31)\n    tag_60:\n      tag_61\n      jump\t// in\n    tag_59:\n      mload(0x40)\n      tag_62\n      swap2\n      swap1\n      jump(tag_24)\n    tag_62:\n      mload(0x40)\n      dup1\n      swap2\n      sub\n      swap1\n      return\n        /* \"contracts/parque/ERC20.sol\":960:1002  string public constant name = \"ERC20Basic\" */\n    tag_16:\n      mload(0x40)\n      dup1\n      0x40\n      add\n      0x40\n      mstore\n      dup1\n      0x0a\n      dup2\n      mstore\n      0x20\n      add\n      0x4552433230426173696300000000000000000000000000000000000000000000\n      dup2\n      mstore\n      pop\n      dup2\n      jump\t// out\n        /* \"contracts/parque/ERC20.sol\":2731:2956  function approve (address delegate, uint256 numTokens) public override returns (bool) {\r... */\n    tag_22:\n        /* \"contracts/parque/ERC20.sol\":2811:2815  bool */\n      0x00\n        /* \"contracts/parque/ERC20.sol\":2860:2869  numTokens */\n      dup2\n        /* \"contracts/parque/ERC20.sol\":2828:2835  allowed */\n      0x01\n        /* \"contracts/parque/ERC20.sol\":2828:2847  allowed[msg.sender] */\n      0x00\n        /* \"contracts/parque/ERC20.sol\":2836:2846  msg.sender */\n      caller\n        /* \"contracts/parque/ERC20.sol\":2828:2847  allowed[msg.sender] */\n      0xffffffffffffffffffffffffffffffffffffffff\n      and\n      0xffffffffffffffffffffffffffffffffffffffff\n      and\n      dup2\n      mstore\n      0x20\n      add\n      swap1\n      dup2\n      mstore\n      0x20\n      add\n      0x00\n      keccak256\n        /* \"contracts/parque/ERC20.sol\":2828:2857  allowed[msg.sender][delegate] */\n      0x00\n        /* \"contracts/parque/ERC20.sol\":2848:2856  delegate */\n      dup6\n        /* \"contracts/parque/ERC20.sol\":2828:2857  allowed[msg.sender][delegate] */\n      0xffffffffffffffffffffffffffffffffffffffff\n      and\n      0xffffffffffffffffffffffffffffffffffffffff\n      and\n      dup2\n      mstore\n      0x20\n      add\n      swap1\n      dup2\n      mstore\n      0x20\n      add\n      0x00\n      keccak256\n        /* \"contracts/parque/ERC20.sol\":2828:2869  allowed[msg.sender][delegate] = numTokens */\n      dup2\n      swap1\n      sstore\n      pop\n        /* \"contracts/parque/ERC20.sol\":2906:2914  delegate */\n      dup3\n        /* \"contracts/parque/ERC20.sol\":2885:2926  Approval(msg.sender, delegate, numTokens) */\n      0xffffffffffffffffffffffffffffffffffffffff\n      and\n        /* \"contracts/parque/ERC20.sol\":2894:2904  msg.sender */\n      caller\n        /* \"contracts/parque/ERC20.sol\":2885:2926  Approval(msg.sender, delegate, numTokens) */\n      0xffffffffffffffffffffffffffffffffffffffff\n      and\n      0x8c5be1e5ebec7d5bd14f71427d1e84f3dd0314c0f7b2291e5b200ac8c7c3b925\n        /* \"contracts/parque/ERC20.sol\":2916:2925  numTokens */\n      dup5\n        /* \"contracts/parque/ERC20.sol\":2885:2926  Approval(msg.sender, delegate, numTokens) */\n      mload(0x40)\n      tag_64\n      swap2\n      swap1\n      jump(tag_28)\n    tag_64:\n      mload(0x40)\n      dup1\n      swap2\n      sub\n      swap1\n      log3\n        /* \"contracts/parque/ERC20.sol\":2944:2948  true */\n      0x01\n        /* \"contracts/parque/ERC20.sol\":2937:2948  return true */\n      swap1\n      pop\n        /* \"contracts/parque/ERC20.sol\":2731:2956  function approve (address delegate, uint256 numTokens) public override returns (bool) {\r... */\n      swap3\n      swap2\n      pop\n      pop\n      jump\t// out\n        /* \"contracts/parque/ERC20.sol\":1582:1681  function totalSupply() public override view returns (uint256){\r... */\n    tag_26:\n        /* \"contracts/parque/ERC20.sol\":1635:1642  uint256 */\n      0x00\n        /* \"contracts/parque/ERC20.sol\":1661:1673  totalSupply_ */\n      sload(0x02)\n        /* \"contracts/parque/ERC20.sol\":1654:1673  return totalSupply_ */\n      swap1\n      pop\n        /* \"contracts/parque/ERC20.sol\":1582:1681  function totalSupply() public override view returns (uint256){\r... */\n      swap1\n      jump\t// out\n        /* \"contracts/parque/ERC20.sol\":3118:3614  function transferFrom(address owner, address buyer, uint256 numTokens) public override returns (bool){\r... */\n    tag_32:\n        /* \"contracts/parque/ERC20.sol\":3214:3218  bool */\n      0x00\n        /* \"contracts/parque/ERC20.sol\":3252:3260  balances */\n      dup1\n        /* \"contracts/parque/ERC20.sol\":3252:3267  balances[owner] */\n      0x00\n        /* \"contracts/parque/ERC20.sol\":3261:3266  owner */\n      dup6\n        /* \"contracts/parque/ERC20.sol\":3252:3267  balances[owner] */\n      0xffffffffffffffffffffffffffffffffffffffff\n      and\n      0xffffffffffffffffffffffffffffffffffffffff\n      and\n      dup2\n      mstore\n      0x20\n      add\n      swap1\n      dup2\n      mstore\n      0x20\n      add\n      0x00\n      keccak256\n      sload\n        /* \"contracts/parque/ERC20.sol\":3239:3248  numTokens */\n      dup3\n        /* \"contracts/parque/ERC20.sol\":3239:3267  numTokens <= balances[owner] */\n      gt\n      iszero\n        /* \"contracts/parque/ERC20.sol\":3230:3268  require (numTokens <= balances[owner]) */\n      tag_67\n      jumpi\n        /* \"--CODEGEN--\":12:13   */\n      0x00\n        /* \"--CODEGEN--\":9:10   */\n      dup1\n        /* \"--CODEGEN--\":2:14   */\n      revert\n        /* \"contracts/parque/ERC20.sol\":3230:3268  require (numTokens <= balances[owner]) */\n    tag_67:\n        /* \"contracts/parque/ERC20.sol\":3301:3308  allowed */\n      0x01\n        /* \"contracts/parque/ERC20.sol\":3301:3315  allowed[owner] */\n      0x00\n        /* \"contracts/parque/ERC20.sol\":3309:3314  owner */\n      dup6\n        /* \"contracts/parque/ERC20.sol\":3301:3315  allowed[owner] */\n      0xffffffffffffffffffffffffffffffffffffffff\n      and\n      0xffffffffffffffffffffffffffffffffffffffff\n      and\n      dup2\n      mstore\n      0x20\n      add\n      swap1\n      dup2\n      mstore\n      0x20\n      add\n      0x00\n      keccak256\n        /* \"contracts/parque/ERC20.sol\":3301:3327  allowed[owner][msg.sender] */\n      0x00\n        /* \"contracts/parque/ERC20.sol\":3316:3326  msg.sender */\n      caller\n        /* \"contracts/parque/ERC20.sol\":3301:3327  allowed[owner][msg.sender] */\n      0xffffffffffffffffffffffffffffffffffffffff\n      and\n      0xffffffffffffffffffffffffffffffffffffffff\n      and\n      dup2\n      mstore\n      0x20\n      add\n      swap1\n      dup2\n      mstore\n      0x20\n      add\n      0x00\n      keccak256\n      sload\n        /* \"contracts/parque/ERC20.sol\":3288:3297  numTokens */\n      dup3\n        /* \"contracts/parque/ERC20.sol\":3288:3327  numTokens <= allowed[owner][msg.sender] */\n      gt\n      iszero\n        /* \"contracts/parque/ERC20.sol\":3279:3328  require (numTokens <= allowed[owner][msg.sender]) */\n      tag_68\n      jumpi\n        /* \"--CODEGEN--\":12:13   */\n      0x00\n        /* \"--CODEGEN--\":9:10   */\n      dup1\n        /* \"--CODEGEN--\":2:14   */\n      revert\n        /* \"contracts/parque/ERC20.sol\":3279:3328  require (numTokens <= allowed[owner][msg.sender]) */\n    tag_68:\n        /* \"contracts/parque/ERC20.sol\":3367:3397  balances[owner].sub(numTokens) */\n      tag_69\n        /* \"contracts/parque/ERC20.sol\":3387:3396  numTokens */\n      dup3\n        /* \"contracts/parque/ERC20.sol\":3367:3375  balances */\n      0x00\n        /* \"contracts/parque/ERC20.sol\":3367:3382  balances[owner] */\n      dup1\n        /* \"contracts/parque/ERC20.sol\":3376:3381  owner */\n      dup8\n        /* \"contracts/parque/ERC20.sol\":3367:3382  balances[owner] */\n      0xffffffffffffffffffffffffffffffffffffffff\n      and\n      0xffffffffffffffffffffffffffffffffffffffff\n      and\n      dup2\n      mstore\n      0x20\n      add\n      swap1\n      dup2\n      mstore\n      0x20\n      add\n      0x00\n      keccak256\n      sload\n        /* \"contracts/parque/ERC20.sol\":3367:3386  balances[owner].sub */\n      tag_70\n      swap1\n        /* \"contracts/parque/ERC20.sol\":3367:3397  balances[owner].sub(numTokens) */\n      swap2\n      swap1\n      0xffffffff\n      and\n      jump\t// in\n    tag_69:\n        /* \"contracts/parque/ERC20.sol\":3349:3357  balances */\n      0x00\n        /* \"contracts/parque/ERC20.sol\":3349:3364  balances[owner] */\n      dup1\n        /* \"contracts/parque/ERC20.sol\":3358:3363  owner */\n      dup7\n        /* \"contracts/parque/ERC20.sol\":3349:3364  balances[owner] */\n      0xffffffffffffffffffffffffffffffffffffffff\n      and\n      0xffffffffffffffffffffffffffffffffffffffff\n      and\n      dup2\n      mstore\n      0x20\n      add\n      swap1\n      dup2\n      mstore\n      0x20\n      add\n      0x00\n      keccak256\n        /* \"contracts/parque/ERC20.sol\":3349:3397  balances[owner] = balances[owner].sub(numTokens) */\n      dup2\n      swap1\n      sstore\n      pop\n        /* \"contracts/parque/ERC20.sol\":3437:3478  allowed[owner][msg.sender].sub(numTokens) */\n      tag_71\n        /* \"contracts/parque/ERC20.sol\":3468:3477  numTokens */\n      dup3\n        /* \"contracts/parque/ERC20.sol\":3437:3444  allowed */\n      0x01\n        /* \"contracts/parque/ERC20.sol\":3437:3451  allowed[owner] */\n      0x00\n        /* \"contracts/parque/ERC20.sol\":3445:3450  owner */\n      dup8\n        /* \"contracts/parque/ERC20.sol\":3437:3451  allowed[owner] */\n      0xffffffffffffffffffffffffffffffffffffffff\n      and\n      0xffffffffffffffffffffffffffffffffffffffff\n      and\n      dup2\n      mstore\n      0x20\n      add\n      swap1\n      dup2\n      mstore\n      0x20\n      add\n      0x00\n      keccak256\n        /* \"contracts/parque/ERC20.sol\":3437:3463  allowed[owner][msg.sender] */\n      0x00\n        /* \"contracts/parque/ERC20.sol\":3452:3462  msg.sender */\n      caller\n        /* \"contracts/parque/ERC20.sol\":3437:3463  allowed[owner][msg.sender] */\n      0xffffffffffffffffffffffffffffffffffffffff\n      and\n      0xffffffffffffffffffffffffffffffffffffffff\n      and\n      dup2\n      mstore\n      0x20\n      add\n      swap1\n      dup2\n      mstore\n      0x20\n      add\n      0x00\n      keccak256\n      sload\n        /* \"contracts/parque/ERC20.sol\":3437:3467  allowed[owner][msg.sender].sub */\n      tag_70\n      swap1\n        /* \"contracts/parque/ERC20.sol\":3437:3478  allowed[owner][msg.sender].sub(numTokens) */\n      swap2\n      swap1\n      0xffffffff\n      and\n      jump\t// in\n    tag_71:\n        /* \"contracts/parque/ERC20.sol\":3408:3415  allowed */\n      0x01\n        /* \"contracts/parque/ERC20.sol\":3408:3422  allowed[owner] */\n      0x00\n        /* \"contracts/parque/ERC20.sol\":3416:3421  owner */\n      dup7\n        /* \"contracts/parque/ERC20.sol\":3408:3422  allowed[owner] */\n      0xffffffffffffffffffffffffffffffffffffffff\n      and\n      0xffffffffffffffffffffffffffffffffffffffff\n      and\n      dup2\n      mstore\n      0x20\n      add\n      swap1\n      dup2\n      mstore\n      0x20\n      add\n      0x00\n      keccak256\n        /* \"contracts/parque/ERC20.sol\":3408:3434  allowed[owner][msg.sender] */\n      0x00\n        /* \"contracts/parque/ERC20.sol\":3423:3433  msg.sender */\n      caller\n        /* \"contracts/parque/ERC20.sol\":3408:3434  allowed[owner][msg.sender] */\n      0xffffffffffffffffffffffffffffffffffffffff\n      and\n      0xffffffffffffffffffffffffffffffffffffffff\n      and\n      dup2\n      mstore\n      0x20\n      add\n      swap1\n      dup2\n      mstore\n      0x20\n      add\n      0x00\n      keccak256\n        /* \"contracts/parque/ERC20.sol\":3408:3478  allowed[owner][msg.sender] = allowed[owner][msg.sender].sub(numTokens) */\n      dup2\n      swap1\n      sstore\n      pop\n        /* \"contracts/parque/ERC20.sol\":3507:3537  balances[buyer].add(numTokens) */\n      tag_72\n        /* \"contracts/parque/ERC20.sol\":3527:3536  numTokens */\n      dup3\n        /* \"contracts/parque/ERC20.sol\":3507:3515  balances */\n      0x00\n        /* \"contracts/parque/ERC20.sol\":3507:3522  balances[buyer] */\n      dup1\n        /* \"contracts/parque/ERC20.sol\":3516:3521  buyer */\n      dup7\n        /* \"contracts/parque/ERC20.sol\":3507:3522  balances[buyer] */\n      0xffffffffffffffffffffffffffffffffffffffff\n      and\n      0xffffffffffffffffffffffffffffffffffffffff\n      and\n      dup2\n      mstore\n      0x20\n      add\n      swap1\n      dup2\n      mstore\n      0x20\n      add\n      0x00\n      keccak256\n      sload\n        /* \"contracts/parque/ERC20.sol\":3507:3526  balances[buyer].add */\n      tag_73\n      swap1\n        /* \"contracts/parque/ERC20.sol\":3507:3537  balances[buyer].add(numTokens) */\n      swap2\n      swap1\n      0xffffffff\n      and\n      jump\t// in\n    tag_72:\n        /* \"contracts/parque/ERC20.sol\":3489:3497  balances */\n      0x00\n        /* \"contracts/parque/ERC20.sol\":3489:3504  balances[buyer] */\n      dup1\n        /* \"contracts/parque/ERC20.sol\":3498:3503  buyer */\n      dup6\n        /* \"contracts/parque/ERC20.sol\":3489:3504  balances[buyer] */\n      0xffffffffffffffffffffffffffffffffffffffff\n      and\n      0xffffffffffffffffffffffffffffffffffffffff\n      and\n      dup2\n      mstore\n      0x20\n      add\n      swap1\n      dup2\n      mstore\n      0x20\n      add\n      0x00\n      keccak256\n        /* \"contracts/parque/ERC20.sol\":3489:3537  balances[buyer] = balances[buyer].add(numTokens) */\n      dup2\n      swap1\n      sstore\n      pop\n        /* \"contracts/parque/ERC20.sol\":3568:3573  buyer */\n      dup3\n        /* \"contracts/parque/ERC20.sol\":3553:3584  Transfer(owner,buyer,numTokens) */\n      0xffffffffffffffffffffffffffffffffffffffff\n      and\n        /* \"contracts/parque/ERC20.sol\":3562:3567  owner */\n      dup5\n        /* \"contracts/parque/ERC20.sol\":3553:3584  Transfer(owner,buyer,numTokens) */\n      0xffffffffffffffffffffffffffffffffffffffff\n      and\n      0xddf252ad1be2c89b69c2b068fc378daa952ba7f163c4a11628f55a4df523b3ef\n        /* \"contracts/parque/ERC20.sol\":3574:3583  numTokens */\n      dup5\n        /* \"contracts/parque/ERC20.sol\":3553:3584  Transfer(owner,buyer,numTokens) */\n      mload(0x40)\n      tag_74\n      swap2\n      swap1\n      jump(tag_28)\n    tag_74:\n      mload(0x40)\n      dup1\n      swap2\n      sub\n      swap1\n      log3\n        /* \"contracts/parque/ERC20.sol\":3602:3606  true */\n      0x01\n        /* \"contracts/parque/ERC20.sol\":3595:3606  return true */\n      swap1\n      pop\n        /* \"contracts/parque/ERC20.sol\":3118:3614  function transferFrom(address owner, address buyer, uint256 numTokens) public override returns (bool){\r... */\n      swap4\n      swap3\n      pop\n      pop\n      pop\n      jump\t// out\n        /* \"contracts/parque/ERC20.sol\":1059:1093  uint8 public constant decimals = 2 */\n    tag_35:\n        /* \"contracts/parque/ERC20.sol\":1092:1093  2 */\n      0x02\n        /* \"contracts/parque/ERC20.sol\":1059:1093  uint8 public constant decimals = 2 */\n      dup2\n      jump\t// out\n        /* \"contracts/parque/ERC20.sol\":1693:1831  function increaseTotalSuply(uint newTokens) public{\r... */\n    tag_41:\n        /* \"contracts/parque/ERC20.sol\":1770:1779  newTokens */\n      dup1\n        /* \"contracts/parque/ERC20.sol\":1754:1766  totalSupply_ */\n      0x02\n      0x00\n        /* \"contracts/parque/ERC20.sol\":1754:1779  totalSupply_ += newTokens */\n      dup3\n      dup3\n      sload\n      add\n      swap3\n      pop\n      pop\n      dup2\n      swap1\n      sstore\n      pop\n        /* \"contracts/parque/ERC20.sol\":1814:1823  newTokens */\n      dup1\n        /* \"contracts/parque/ERC20.sol\":1790:1798  balances */\n      0x00\n        /* \"contracts/parque/ERC20.sol\":1790:1810  balances[msg.sender] */\n      dup1\n        /* \"contracts/parque/ERC20.sol\":1799:1809  msg.sender */\n      caller\n        /* \"contracts/parque/ERC20.sol\":1790:1810  balances[msg.sender] */\n      0xffffffffffffffffffffffffffffffffffffffff\n      and\n      0xffffffffffffffffffffffffffffffffffffffff\n      and\n      dup2\n      mstore\n      0x20\n      add\n      swap1\n      dup2\n      mstore\n      0x20\n      add\n      0x00\n      keccak256\n      0x00\n        /* \"contracts/parque/ERC20.sol\":1790:1823  balances[msg.sender] += newTokens */\n      dup3\n      dup3\n      sload\n      add\n      swap3\n      pop\n      pop\n      dup2\n      swap1\n      sstore\n      pop\n        /* \"contracts/parque/ERC20.sol\":1693:1831  function increaseTotalSuply(uint newTokens) public{\r... */\n      pop\n      jump\t// out\n        /* \"contracts/parque/ERC20.sol\":1843:1967  function balanceOf (address tokenOwner) public override view returns (uint256){\r... */\n    tag_45:\n        /* \"contracts/parque/ERC20.sol\":1913:1920  uint256 */\n      0x00\n        /* \"contracts/parque/ERC20.sol\":1939:1947  balances */\n      dup1\n        /* \"contracts/parque/ERC20.sol\":1939:1959  balances[tokenOwner] */\n      0x00\n        /* \"contracts/parque/ERC20.sol\":1948:1958  tokenOwner */\n      dup4\n        /* \"contracts/parque/ERC20.sol\":1939:1959  balances[tokenOwner] */\n      0xffffffffffffffffffffffffffffffffffffffff\n      and\n      0xffffffffffffffffffffffffffffffffffffffff\n      and\n      dup2\n      mstore\n      0x20\n      add\n      swap1\n      dup2\n      mstore\n      0x20\n      add\n      0x00\n      keccak256\n      sload\n        /* \"contracts/parque/ERC20.sol\":1932:1959  return balances[tokenOwner] */\n      swap1\n      pop\n        /* \"contracts/parque/ERC20.sol\":1843:1967  function balanceOf (address tokenOwner) public override view returns (uint256){\r... */\n      swap2\n      swap1\n      pop\n      jump\t// out\n        /* \"contracts/parque/ERC20.sol\":1009:1052  string public constant symbol = \"JBJ-TOKEN\" */\n    tag_48:\n      mload(0x40)\n      dup1\n      0x40\n      add\n      0x40\n      mstore\n      dup1\n      0x09\n      dup2\n      mstore\n      0x20\n      add\n      0x4a424a2d544f4b454e0000000000000000000000000000000000000000000000\n      dup2\n      mstore\n      pop\n      dup2\n      jump\t// out\n        /* \"contracts/parque/ERC20.sol\":1979:2336  function transfer(address receiver, uint256 numTokens) public override returns (bool){\r... */\n    tag_52:\n        /* \"contracts/parque/ERC20.sol\":2059:2063  bool */\n      0x00\n        /* \"contracts/parque/ERC20.sol\":2096:2104  balances */\n      dup1\n        /* \"contracts/parque/ERC20.sol\":2096:2116  balances[msg.sender] */\n      0x00\n        /* \"contracts/parque/ERC20.sol\":2105:2115  msg.sender */\n      caller\n        /* \"contracts/parque/ERC20.sol\":2096:2116  balances[msg.sender] */\n      0xffffffffffffffffffffffffffffffffffffffff\n      and\n      0xffffffffffffffffffffffffffffffffffffffff\n      and\n      dup2\n      mstore\n      0x20\n      add\n      swap1\n      dup2\n      mstore\n      0x20\n      add\n      0x00\n      keccak256\n      sload\n        /* \"contracts/parque/ERC20.sol\":2083:2092  numTokens */\n      dup3\n        /* \"contracts/parque/ERC20.sol\":2083:2116  numTokens <= balances[msg.sender] */\n      gt\n      iszero\n        /* \"contracts/parque/ERC20.sol\":2075:2117  require(numTokens <= balances[msg.sender]) */\n      tag_78\n      jumpi\n        /* \"--CODEGEN--\":12:13   */\n      0x00\n        /* \"--CODEGEN--\":9:10   */\n      dup1\n        /* \"--CODEGEN--\":2:14   */\n      revert\n        /* \"contracts/parque/ERC20.sol\":2075:2117  require(numTokens <= balances[msg.sender]) */\n    tag_78:\n        /* \"contracts/parque/ERC20.sol\":2151:2186  balances[msg.sender].sub(numTokens) */\n      tag_79\n        /* \"contracts/parque/ERC20.sol\":2176:2185  numTokens */\n      dup3\n        /* \"contracts/parque/ERC20.sol\":2151:2159  balances */\n      0x00\n        /* \"contracts/parque/ERC20.sol\":2151:2171  balances[msg.sender] */\n      dup1\n        /* \"contracts/parque/ERC20.sol\":2160:2170  msg.sender */\n      caller\n        /* \"contracts/parque/ERC20.sol\":2151:2171  balances[msg.sender] */\n      0xffffffffffffffffffffffffffffffffffffffff\n      and\n      0xffffffffffffffffffffffffffffffffffffffff\n      and\n      dup2\n      mstore\n      0x20\n      add\n      swap1\n      dup2\n      mstore\n      0x20\n      add\n      0x00\n      keccak256\n      sload\n        /* \"contracts/parque/ERC20.sol\":2151:2175  balances[msg.sender].sub */\n      tag_70\n      swap1\n        /* \"contracts/parque/ERC20.sol\":2151:2186  balances[msg.sender].sub(numTokens) */\n      swap2\n      swap1\n      0xffffffff\n      and\n      jump\t// in\n    tag_79:\n        /* \"contracts/parque/ERC20.sol\":2128:2136  balances */\n      0x00\n        /* \"contracts/parque/ERC20.sol\":2128:2148  balances[msg.sender] */\n      dup1\n        /* \"contracts/parque/ERC20.sol\":2137:2147  msg.sender */\n      caller\n        /* \"contracts/parque/ERC20.sol\":2128:2148  balances[msg.sender] */\n      0xffffffffffffffffffffffffffffffffffffffff\n      and\n      0xffffffffffffffffffffffffffffffffffffffff\n      and\n      dup2\n      mstore\n      0x20\n      add\n      swap1\n      dup2\n      mstore\n      0x20\n      add\n      0x00\n      keccak256\n        /* \"contracts/parque/ERC20.sol\":2128:2186  balances[msg.sender] = balances[msg.sender].sub(numTokens) */\n      dup2\n      swap1\n      sstore\n      pop\n        /* \"contracts/parque/ERC20.sol\":2218:2251  balances[receiver].add(numTokens) */\n      tag_80\n        /* \"contracts/parque/ERC20.sol\":2241:2250  numTokens */\n      dup3\n        /* \"contracts/parque/ERC20.sol\":2218:2226  balances */\n      0x00\n        /* \"contracts/parque/ERC20.sol\":2218:2236  balances[receiver] */\n      dup1\n        /* \"contracts/parque/ERC20.sol\":2227:2235  receiver */\n      dup7\n        /* \"contracts/parque/ERC20.sol\":2218:2236  balances[receiver] */\n      0xffffffffffffffffffffffffffffffffffffffff\n      and\n      0xffffffffffffffffffffffffffffffffffffffff\n      and\n      dup2\n      mstore\n      0x20\n      add\n      swap1\n      dup2\n      mstore\n      0x20\n      add\n      0x00\n      keccak256\n      sload\n        /* \"contracts/parque/ERC20.sol\":2218:2240  balances[receiver].add */\n      tag_73\n      swap1\n        /* \"contracts/parque/ERC20.sol\":2218:2251  balances[receiver].add(numTokens) */\n      swap2\n      swap1\n      0xffffffff\n      and\n      jump\t// in\n    tag_80:\n        /* \"contracts/parque/ERC20.sol\":2197:2205  balances */\n      0x00\n        /* \"contracts/parque/ERC20.sol\":2197:2215  balances[receiver] */\n      dup1\n        /* \"contracts/parque/ERC20.sol\":2206:2214  receiver */\n      dup6\n        /* \"contracts/parque/ERC20.sol\":2197:2215  balances[receiver] */\n      0xffffffffffffffffffffffffffffffffffffffff\n      and\n      0xffffffffffffffffffffffffffffffffffffffff\n      and\n      dup2\n      mstore\n      0x20\n      add\n      swap1\n      dup2\n      mstore\n      0x20\n      add\n      0x00\n      keccak256\n        /* \"contracts/parque/ERC20.sol\":2197:2251  balances[receiver] = balances[receiver].add(numTokens) */\n      dup2\n      swap1\n      sstore\n      pop\n        /* \"contracts/parque/ERC20.sol\":2287:2295  receiver */\n      dup3\n        /* \"contracts/parque/ERC20.sol\":2267:2306  Transfer(msg.sender,receiver,numTokens) */\n      0xffffffffffffffffffffffffffffffffffffffff\n      and\n        /* \"contracts/parque/ERC20.sol\":2276:2286  msg.sender */\n      caller\n        /* \"contracts/parque/ERC20.sol\":2267:2306  Transfer(msg.sender,receiver,numTokens) */\n      0xffffffffffffffffffffffffffffffffffffffff\n      and\n      0xddf252ad1be2c89b69c2b068fc378daa952ba7f163c4a11628f55a4df523b3ef\n        /* \"contracts/parque/ERC20.sol\":2296:2305  numTokens */\n      dup5\n        /* \"contracts/parque/ERC20.sol\":2267:2306  Transfer(msg.sender,receiver,numTokens) */\n      mload(0x40)\n      tag_81\n      swap2\n      swap1\n      jump(tag_28)\n    tag_81:\n      mload(0x40)\n      dup1\n      swap2\n      sub\n      swap1\n      log3\n        /* \"contracts/parque/ERC20.sol\":2324:2328  true */\n      0x01\n        /* \"contracts/parque/ERC20.sol\":2317:2328  return true */\n      swap1\n      pop\n        /* \"contracts/parque/ERC20.sol\":1979:2336  function transfer(address receiver, uint256 numTokens) public override returns (bool){\r... */\n      swap3\n      swap2\n      pop\n      pop\n      jump\t// out\n        /* \"contracts/parque/ERC20.sol\":2968:3106  function allowance (address owner, address delegate) public override view returns (uint){\r... */\n    tag_57:\n        /* \"contracts/parque/ERC20.sol\":3051:3055  uint */\n      0x00\n        /* \"contracts/parque/ERC20.sol\":3074:3081  allowed */\n      0x01\n        /* \"contracts/parque/ERC20.sol\":3074:3088  allowed[owner] */\n      0x00\n        /* \"contracts/parque/ERC20.sol\":3082:3087  owner */\n      dup5\n        /* \"contracts/parque/ERC20.sol\":3074:3088  allowed[owner] */\n      0xffffffffffffffffffffffffffffffffffffffff\n      and\n      0xffffffffffffffffffffffffffffffffffffffff\n      and\n      dup2\n      mstore\n      0x20\n      add\n      swap1\n      dup2\n      mstore\n      0x20\n      add\n      0x00\n      keccak256\n        /* \"contracts/parque/ERC20.sol\":3074:3098  allowed[owner][delegate] */\n      0x00\n        /* \"contracts/parque/ERC20.sol\":3089:3097  delegate */\n      dup4\n        /* \"contracts/parque/ERC20.sol\":3074:3098  allowed[owner][delegate] */\n      0xffffffffffffffffffffffffffffffffffffffff\n      and\n      0xffffffffffffffffffffffffffffffffffffffff\n      and\n      dup2\n      mstore\n      0x20\n      add\n      swap1\n      dup2\n      mstore\n      0x20\n      add\n      0x00\n      keccak256\n      sload\n        /* \"contracts/parque/ERC20.sol\":3067:3098  return allowed[owner][delegate] */\n      swap1\n      pop\n        /* \"contracts/parque/ERC20.sol\":2968:3106  function allowance (address owner, address delegate) public override view returns (uint){\r... */\n      swap3\n      swap2\n      pop\n      pop\n      jump\t// out\n        /* \"contracts/parque/ERC20.sol\":2349:2718  function transferencia_disney(address sender, address receiver, uint256 numTokens) public override returns (bool){\r... */\n    tag_61:\n        /* \"contracts/parque/ERC20.sol\":2457:2461  bool */\n      0x00\n        /* \"contracts/parque/ERC20.sol\":2494:2502  balances */\n      dup1\n        /* \"contracts/parque/ERC20.sol\":2494:2510  balances[sender] */\n      0x00\n        /* \"contracts/parque/ERC20.sol\":2503:2509  sender */\n      dup6\n        /* \"contracts/parque/ERC20.sol\":2494:2510  balances[sender] */\n      0xffffffffffffffffffffffffffffffffffffffff\n      and\n      0xffffffffffffffffffffffffffffffffffffffff\n      and\n      dup2\n      mstore\n      0x20\n      add\n      swap1\n      dup2\n      mstore\n      0x20\n      add\n      0x00\n      keccak256\n      sload\n        /* \"contracts/parque/ERC20.sol\":2481:2490  numTokens */\n      dup3\n        /* \"contracts/parque/ERC20.sol\":2481:2510  numTokens <= balances[sender] */\n      gt\n      iszero\n        /* \"contracts/parque/ERC20.sol\":2473:2511  require(numTokens <= balances[sender]) */\n      tag_84\n      jumpi\n        /* \"--CODEGEN--\":12:13   */\n      0x00\n        /* \"--CODEGEN--\":9:10   */\n      dup1\n        /* \"--CODEGEN--\":2:14   */\n      revert\n        /* \"contracts/parque/ERC20.sol\":2473:2511  require(numTokens <= balances[sender]) */\n    tag_84:\n        /* \"contracts/parque/ERC20.sol\":2541:2572  balances[sender].sub(numTokens) */\n      tag_85\n        /* \"contracts/parque/ERC20.sol\":2562:2571  numTokens */\n      dup3\n        /* \"contracts/parque/ERC20.sol\":2541:2549  balances */\n      0x00\n        /* \"contracts/parque/ERC20.sol\":2541:2557  balances[sender] */\n      dup1\n        /* \"contracts/parque/ERC20.sol\":2550:2556  sender */\n      dup8\n        /* \"contracts/parque/ERC20.sol\":2541:2557  balances[sender] */\n      0xffffffffffffffffffffffffffffffffffffffff\n      and\n      0xffffffffffffffffffffffffffffffffffffffff\n      and\n      dup2\n      mstore\n      0x20\n      add\n      swap1\n      dup2\n      mstore\n      0x20\n      add\n      0x00\n      keccak256\n      sload\n        /* \"contracts/parque/ERC20.sol\":2541:2561  balances[sender].sub */\n      tag_70\n      swap1\n        /* \"contracts/parque/ERC20.sol\":2541:2572  balances[sender].sub(numTokens) */\n      swap2\n      swap1\n      0xffffffff\n      and\n      jump\t// in\n    tag_85:\n        /* \"contracts/parque/ERC20.sol\":2522:2530  balances */\n      0x00\n        /* \"contracts/parque/ERC20.sol\":2522:2538  balances[sender] */\n      dup1\n        /* \"contracts/parque/ERC20.sol\":2531:2537  sender */\n      dup7\n        /* \"contracts/parque/ERC20.sol\":2522:2538  balances[sender] */\n      0xffffffffffffffffffffffffffffffffffffffff\n      and\n      0xffffffffffffffffffffffffffffffffffffffff\n      and\n      dup2\n      mstore\n      0x20\n      add\n      swap1\n      dup2\n      mstore\n      0x20\n      add\n      0x00\n      keccak256\n        /* \"contracts/parque/ERC20.sol\":2522:2572  balances[sender] = balances[sender].sub(numTokens) */\n      dup2\n      swap1\n      sstore\n      pop\n        /* \"contracts/parque/ERC20.sol\":2604:2637  balances[receiver].add(numTokens) */\n      tag_86\n        /* \"contracts/parque/ERC20.sol\":2627:2636  numTokens */\n      dup3\n        /* \"contracts/parque/ERC20.sol\":2604:2612  balances */\n      0x00\n        /* \"contracts/parque/ERC20.sol\":2604:2622  balances[receiver] */\n      dup1\n        /* \"contracts/parque/ERC20.sol\":2613:2621  receiver */\n      dup7\n        /* \"contracts/parque/ERC20.sol\":2604:2622  balances[receiver] */\n      0xffffffffffffffffffffffffffffffffffffffff\n      and\n      0xffffffffffffffffffffffffffffffffffffffff\n      and\n      dup2\n      mstore\n      0x20\n      add\n      swap1\n      dup2\n      mstore\n      0x20\n      add\n      0x00\n      keccak256\n      sload\n        /* \"contracts/parque/ERC20.sol\":2604:2626  balances[receiver].add */\n      tag_73\n      swap1\n        /* \"contracts/parque/ERC20.sol\":2604:2637  balances[receiver].add(numTokens) */\n      swap2\n      swap1\n      0xffffffff\n      and\n      jump\t// in\n    tag_86:\n        /* \"contracts/parque/ERC20.sol\":2583:2591  balances */\n      0x00\n        /* \"contracts/parque/ERC20.sol\":2583:2601  balances[receiver] */\n      dup1\n        /* \"contracts/parque/ERC20.sol\":2592:2600  receiver */\n      dup6\n        /* \"contracts/parque/ERC20.sol\":2583:2601  balances[receiver] */\n      0xffffffffffffffffffffffffffffffffffffffff\n      and\n      0xffffffffffffffffffffffffffffffffffffffff\n      and\n      dup2\n      mstore\n      0x20\n      add\n      swap1\n      dup2\n      mstore\n      0x20\n      add\n      0x00\n      keccak256\n        /* \"contracts/parque/ERC20.sol\":2583:2637  balances[receiver] = balances[receiver].add(numTokens) */\n      dup2\n      swap1\n      sstore\n      pop\n        /* \"contracts/parque/ERC20.sol\":2669:2677  receiver */\n      dup3\n        /* \"contracts/parque/ERC20.sol\":2653:2688  Transfer(sender,receiver,numTokens) */\n      0xffffffffffffffffffffffffffffffffffffffff\n      and\n        /* \"contracts/parque/ERC20.sol\":2662:2668  sender */\n      dup5\n        /* \"contracts/parque/ERC20.sol\":2653:2688  Transfer(sender,receiver,numTokens) */\n      0xffffffffffffffffffffffffffffffffffffffff\n      and\n      0xddf252ad1be2c89b69c2b068fc378daa952ba7f163c4a11628f55a4df523b3ef\n        /* \"contracts/parque/ERC20.sol\":2678:2687  numTokens */\n      dup5\n        /* \"contracts/parque/ERC20.sol\":2653:2688  Transfer(sender,receiver,numTokens) */\n      mload(0x40)\n      tag_87\n      swap2\n      swap1\n      jump(tag_28)\n    tag_87:\n      mload(0x40)\n      dup1\n      swap2\n      sub\n      swap1\n      log3\n        /* \"contracts/parque/ERC20.sol\":2706:2710  true */\n      0x01\n        /* \"contracts/parque/ERC20.sol\":2699:2710  return true */\n      swap1\n      pop\n        /* \"contracts/parque/ERC20.sol\":2349:2718  function transferencia_disney(address sender, address receiver, uint256 numTokens) public override returns (bool){\r... */\n      swap4\n      swap3\n      pop\n      pop\n      pop\n      jump\t// out\n        /* \"contracts/parque/SafeMath.sol\":322:441  function sub(uint256 a, uint256 b) internal pure returns (uint256) {\r... */\n    tag_70:\n        /* \"contracts/parque/SafeMath.sol\":380:387  uint256 */\n      0x00\n        /* \"contracts/parque/SafeMath.sol\":410:411  a */\n      dup3\n        /* \"contracts/parque/SafeMath.sol\":405:406  b */\n      dup3\n        /* \"contracts/parque/SafeMath.sol\":405:411  b <= a */\n      gt\n      iszero\n        /* \"contracts/parque/SafeMath.sol\":398:412  assert(b <= a) */\n      tag_89\n      jumpi\n      invalid\n    tag_89:\n        /* \"contracts/parque/SafeMath.sol\":432:433  b */\n      dup2\n        /* \"contracts/parque/SafeMath.sol\":428:429  a */\n      dup4\n        /* \"contracts/parque/SafeMath.sol\":428:433  a - b */\n      sub\n        /* \"contracts/parque/SafeMath.sol\":421:433  return a - b */\n      swap1\n      pop\n        /* \"contracts/parque/SafeMath.sol\":322:441  function sub(uint256 a, uint256 b) internal pure returns (uint256) {\r... */\n      swap3\n      swap2\n      pop\n      pop\n      jump\t// out\n        /* \"contracts/parque/SafeMath.sol\":467:608  function add(uint256 a, uint256 b) internal pure returns (uint256) {\r... */\n    tag_73:\n        /* \"contracts/parque/SafeMath.sol\":525:532  uint256 */\n      0x00\n        /* \"contracts/parque/SafeMath.sol\":543:552  uint256 c */\n      dup1\n        /* \"contracts/parque/SafeMath.sol\":559:560  b */\n      dup3\n        /* \"contracts/parque/SafeMath.sol\":555:556  a */\n      dup5\n        /* \"contracts/parque/SafeMath.sol\":555:560  a + b */\n      add\n        /* \"contracts/parque/SafeMath.sol\":543:560  uint256 c = a + b */\n      swap1\n      pop\n        /* \"contracts/parque/SafeMath.sol\":581:582  a */\n      dup4\n        /* \"contracts/parque/SafeMath.sol\":576:577  c */\n      dup2\n        /* \"contracts/parque/SafeMath.sol\":576:582  c >= a */\n      lt\n      iszero\n        /* \"contracts/parque/SafeMath.sol\":569:583  assert(c >= a) */\n      tag_91\n      jumpi\n      invalid\n    tag_91:\n        /* \"contracts/parque/SafeMath.sol\":599:600  c */\n      dup1\n        /* \"contracts/parque/SafeMath.sol\":592:600  return c */\n      swap2\n      pop\n      pop\n        /* \"contracts/parque/SafeMath.sol\":467:608  function add(uint256 a, uint256 b) internal pure returns (uint256) {\r... */\n      swap3\n      swap2\n      pop\n      pop\n      jump\t// out\n        /* \"--CODEGEN--\":5:135   */\n    tag_93:\n      0x00\n        /* \"--CODEGEN--\":85:91   */\n      dup2\n        /* \"--CODEGEN--\":72:92   */\n      calldataload\n        /* \"--CODEGEN--\":63:92   */\n      swap1\n      pop\n        /* \"--CODEGEN--\":97:130   */\n      tag_95\n        /* \"--CODEGEN--\":124:129   */\n      dup2\n        /* \"--CODEGEN--\":97:130   */\n      jump(tag_96)\n    tag_95:\n        /* \"--CODEGEN--\":57:135   */\n      swap3\n      swap2\n      pop\n      pop\n      jump\n        /* \"--CODEGEN--\":142:272   */\n    tag_97:\n      0x00\n        /* \"--CODEGEN--\":222:228   */\n      dup2\n        /* \"--CODEGEN--\":209:229   */\n      calldataload\n        /* \"--CODEGEN--\":200:229   */\n      swap1\n      pop\n        /* \"--CODEGEN--\":234:267   */\n      tag_99\n        /* \"--CODEGEN--\":261:266   */\n      dup2\n        /* \"--CODEGEN--\":234:267   */\n      jump(tag_100)\n    tag_99:\n        /* \"--CODEGEN--\":194:272   */\n      swap3\n      swap2\n      pop\n      pop\n      jump\n        /* \"--CODEGEN--\":279:520   */\n    tag_44:\n      0x00\n        /* \"--CODEGEN--\":383:385   */\n      0x20\n        /* \"--CODEGEN--\":371:380   */\n      dup3\n        /* \"--CODEGEN--\":362:369   */\n      dup5\n        /* \"--CODEGEN--\":358:381   */\n      sub\n        /* \"--CODEGEN--\":354:386   */\n      slt\n        /* \"--CODEGEN--\":351:353   */\n      iszero\n      tag_102\n      jumpi\n        /* \"--CODEGEN--\":399:400   */\n      0x00\n        /* \"--CODEGEN--\":396:397   */\n      dup1\n        /* \"--CODEGEN--\":389:401   */\n      revert\n        /* \"--CODEGEN--\":351:353   */\n    tag_102:\n        /* \"--CODEGEN--\":434:435   */\n      0x00\n        /* \"--CODEGEN--\":451:504   */\n      tag_103\n        /* \"--CODEGEN--\":496:503   */\n      dup5\n        /* \"--CODEGEN--\":487:493   */\n      dup3\n        /* \"--CODEGEN--\":476:485   */\n      dup6\n        /* \"--CODEGEN--\":472:494   */\n      add\n        /* \"--CODEGEN--\":451:504   */\n      jump(tag_93)\n    tag_103:\n        /* \"--CODEGEN--\":441:504   */\n      swap2\n      pop\n        /* \"--CODEGEN--\":413:510   */\n      pop\n        /* \"--CODEGEN--\":345:520   */\n      swap3\n      swap2\n      pop\n      pop\n      jump\n        /* \"--CODEGEN--\":527:893   */\n    tag_56:\n      0x00\n      dup1\n        /* \"--CODEGEN--\":648:650   */\n      0x40\n        /* \"--CODEGEN--\":636:645   */\n      dup4\n        /* \"--CODEGEN--\":627:634   */\n      dup6\n        /* \"--CODEGEN--\":623:646   */\n      sub\n        /* \"--CODEGEN--\":619:651   */\n      slt\n        /* \"--CODEGEN--\":616:618   */\n      iszero\n      tag_105\n      jumpi\n        /* \"--CODEGEN--\":664:665   */\n      0x00\n        /* \"--CODEGEN--\":661:662   */\n      dup1\n        /* \"--CODEGEN--\":654:666   */\n      revert\n        /* \"--CODEGEN--\":616:618   */\n    tag_105:\n        /* \"--CODEGEN--\":699:700   */\n      0x00\n        /* \"--CODEGEN--\":716:769   */\n      tag_106\n        /* \"--CODEGEN--\":761:768   */\n      dup6\n        /* \"--CODEGEN--\":752:758   */\n      dup3\n        /* \"--CODEGEN--\":741:750   */\n      dup7\n        /* \"--CODEGEN--\":737:759   */\n      add\n        /* \"--CODEGEN--\":716:769   */\n      jump(tag_93)\n    tag_106:\n        /* \"--CODEGEN--\":706:769   */\n      swap3\n      pop\n        /* \"--CODEGEN--\":678:775   */\n      pop\n        /* \"--CODEGEN--\":806:808   */\n      0x20\n        /* \"--CODEGEN--\":824:877   */\n      tag_107\n        /* \"--CODEGEN--\":869:876   */\n      dup6\n        /* \"--CODEGEN--\":860:866   */\n      dup3\n        /* \"--CODEGEN--\":849:858   */\n      dup7\n        /* \"--CODEGEN--\":845:867   */\n      add\n        /* \"--CODEGEN--\":824:877   */\n      jump(tag_93)\n    tag_107:\n        /* \"--CODEGEN--\":814:877   */\n      swap2\n      pop\n        /* \"--CODEGEN--\":785:883   */\n      pop\n        /* \"--CODEGEN--\":610:893   */\n      swap3\n      pop\n      swap3\n      swap1\n      pop\n      jump\n        /* \"--CODEGEN--\":900:1391   */\n    tag_31:\n      0x00\n      dup1\n      0x00\n        /* \"--CODEGEN--\":1038:1040   */\n      0x60\n        /* \"--CODEGEN--\":1026:1035   */\n      dup5\n        /* \"--CODEGEN--\":1017:1024   */\n      dup7\n        /* \"--CODEGEN--\":1013:1036   */\n      sub\n        /* \"--CODEGEN--\":1009:1041   */\n      slt\n        /* \"--CODEGEN--\":1006:1008   */\n      iszero\n      tag_109\n      jumpi\n        /* \"--CODEGEN--\":1054:1055   */\n      0x00\n        /* \"--CODEGEN--\":1051:1052   */\n      dup1\n        /* \"--CODEGEN--\":1044:1056   */\n      revert\n        /* \"--CODEGEN--\":1006:1008   */\n    tag_109:\n        /* \"--CODEGEN--\":1089:1090   */\n      0x00\n        /* \"--CODEGEN--\":1106:1159   */\n      tag_110\n        /* \"--CODEGEN--\":1151:1158   */\n      dup7\n        /* \"--CODEGEN--\":1142:1148   */\n      dup3\n        /* \"--CODEGEN--\":1131:1140   */\n      dup8\n        /* \"--CODEGEN--\":1127:1149   */\n      add\n        /* \"--CODEGEN--\":1106:1159   */\n      jump(tag_93)\n    tag_110:\n        /* \"--CODEGEN--\":1096:1159   */\n      swap4\n      pop\n        /* \"--CODEGEN--\":1068:1165   */\n      pop\n        /* \"--CODEGEN--\":1196:1198   */\n      0x20\n        /* \"--CODEGEN--\":1214:1267   */\n      tag_111\n        /* \"--CODEGEN--\":1259:1266   */\n      dup7\n        /* \"--CODEGEN--\":1250:1256   */\n      dup3\n        /* \"--CODEGEN--\":1239:1248   */\n      dup8\n        /* \"--CODEGEN--\":1235:1257   */\n      add\n        /* \"--CODEGEN--\":1214:1267   */\n      jump(tag_93)\n    tag_111:\n        /* \"--CODEGEN--\":1204:1267   */\n      swap3\n      pop\n        /* \"--CODEGEN--\":1175:1273   */\n      pop\n        /* \"--CODEGEN--\":1304:1306   */\n      0x40\n        /* \"--CODEGEN--\":1322:1375   */\n      tag_112\n        /* \"--CODEGEN--\":1367:1374   */\n      dup7\n        /* \"--CODEGEN--\":1358:1364   */\n      dup3\n        /* \"--CODEGEN--\":1347:1356   */\n      dup8\n        /* \"--CODEGEN--\":1343:1365   */\n      add\n        /* \"--CODEGEN--\":1322:1375   */\n      jump(tag_97)\n    tag_112:\n        /* \"--CODEGEN--\":1312:1375   */\n      swap2\n      pop\n        /* \"--CODEGEN--\":1283:1381   */\n      pop\n        /* \"--CODEGEN--\":1000:1391   */\n      swap3\n      pop\n      swap3\n      pop\n      swap3\n      jump\n        /* \"--CODEGEN--\":1398:1764   */\n    tag_21:\n      0x00\n      dup1\n        /* \"--CODEGEN--\":1519:1521   */\n      0x40\n        /* \"--CODEGEN--\":1507:1516   */\n      dup4\n        /* \"--CODEGEN--\":1498:1505   */\n      dup6\n        /* \"--CODEGEN--\":1494:1517   */\n      sub\n        /* \"--CODEGEN--\":1490:1522   */\n      slt\n        /* \"--CODEGEN--\":1487:1489   */\n      iszero\n      tag_114\n      jumpi\n        /* \"--CODEGEN--\":1535:1536   */\n      0x00\n        /* \"--CODEGEN--\":1532:1533   */\n      dup1\n        /* \"--CODEGEN--\":1525:1537   */\n      revert\n        /* \"--CODEGEN--\":1487:1489   */\n    tag_114:\n        /* \"--CODEGEN--\":1570:1571   */\n      0x00\n        /* \"--CODEGEN--\":1587:1640   */\n      tag_115\n        /* \"--CODEGEN--\":1632:1639   */\n      dup6\n        /* \"--CODEGEN--\":1623:1629   */\n      dup3\n        /* \"--CODEGEN--\":1612:1621   */\n      dup7\n        /* \"--CODEGEN--\":1608:1630   */\n      add\n        /* \"--CODEGEN--\":1587:1640   */\n      jump(tag_93)\n    tag_115:\n        /* \"--CODEGEN--\":1577:1640   */\n      swap3\n      pop\n        /* \"--CODEGEN--\":1549:1646   */\n      pop\n        /* \"--CODEGEN--\":1677:1679   */\n      0x20\n        /* \"--CODEGEN--\":1695:1748   */\n      tag_116\n        /* \"--CODEGEN--\":1740:1747   */\n      dup6\n        /* \"--CODEGEN--\":1731:1737   */\n      dup3\n        /* \"--CODEGEN--\":1720:1729   */\n      dup7\n        /* \"--CODEGEN--\":1716:1738   */\n      add\n        /* \"--CODEGEN--\":1695:1748   */\n      jump(tag_97)\n    tag_116:\n        /* \"--CODEGEN--\":1685:1748   */\n      swap2\n      pop\n        /* \"--CODEGEN--\":1656:1754   */\n      pop\n        /* \"--CODEGEN--\":1481:1764   */\n      swap3\n      pop\n      swap3\n      swap1\n      pop\n      jump\n        /* \"--CODEGEN--\":1771:2012   */\n    tag_40:\n      0x00\n        /* \"--CODEGEN--\":1875:1877   */\n      0x20\n        /* \"--CODEGEN--\":1863:1872   */\n      dup3\n        /* \"--CODEGEN--\":1854:1861   */\n      dup5\n        /* \"--CODEGEN--\":1850:1873   */\n      sub\n        /* \"--CODEGEN--\":1846:1878   */\n      slt\n        /* \"--CODEGEN--\":1843:1845   */\n      iszero\n      tag_118\n      jumpi\n        /* \"--CODEGEN--\":1891:1892   */\n      0x00\n        /* \"--CODEGEN--\":1888:1889   */\n      dup1\n        /* \"--CODEGEN--\":1881:1893   */\n      revert\n        /* \"--CODEGEN--\":1843:1845   */\n    tag_118:\n        /* \"--CODEGEN--\":1926:1927   */\n      0x00\n        /* \"--CODEGEN--\":1943:1996   */\n      tag_119\n        /* \"--CODEGEN--\":1988:1995   */\n      dup5\n        /* \"--CODEGEN--\":1979:1985   */\n      dup3\n        /* \"--CODEGEN--\":1968:1977   */\n      dup6\n        /* \"--CODEGEN--\":1964:1986   */\n      add\n        /* \"--CODEGEN--\":1943:1996   */\n      jump(tag_97)\n    tag_119:\n        /* \"--CODEGEN--\":1933:1996   */\n      swap2\n      pop\n        /* \"--CODEGEN--\":1905:2002   */\n      pop\n        /* \"--CODEGEN--\":1837:2012   */\n      swap3\n      swap2\n      pop\n      pop\n      jump\n        /* \"--CODEGEN--\":2019:2123   */\n    tag_120:\n        /* \"--CODEGEN--\":2096:2117   */\n      tag_122\n        /* \"--CODEGEN--\":2111:2116   */\n      dup2\n        /* \"--CODEGEN--\":2096:2117   */\n      jump(tag_123)\n    tag_122:\n        /* \"--CODEGEN--\":2091:2094   */\n      dup3\n        /* \"--CODEGEN--\":2084:2118   */\n      mstore\n        /* \"--CODEGEN--\":2078:2123   */\n      pop\n      pop\n      jump\n        /* \"--CODEGEN--\":2130:2477   */\n    tag_124:\n      0x00\n        /* \"--CODEGEN--\":2242:2281   */\n      tag_126\n        /* \"--CODEGEN--\":2275:2280   */\n      dup3\n        /* \"--CODEGEN--\":2242:2281   */\n      jump(tag_127)\n    tag_126:\n        /* \"--CODEGEN--\":2293:2364   */\n      tag_128\n        /* \"--CODEGEN--\":2357:2363   */\n      dup2\n        /* \"--CODEGEN--\":2352:2355   */\n      dup6\n        /* \"--CODEGEN--\":2293:2364   */\n      jump(tag_129)\n    tag_128:\n        /* \"--CODEGEN--\":2286:2364   */\n      swap4\n      pop\n        /* \"--CODEGEN--\":2369:2421   */\n      tag_130\n        /* \"--CODEGEN--\":2414:2420   */\n      dup2\n        /* \"--CODEGEN--\":2409:2412   */\n      dup6\n        /* \"--CODEGEN--\":2402:2406   */\n      0x20\n        /* \"--CODEGEN--\":2395:2400   */\n      dup7\n        /* \"--CODEGEN--\":2391:2407   */\n      add\n        /* \"--CODEGEN--\":2369:2421   */\n      jump(tag_131)\n    tag_130:\n        /* \"--CODEGEN--\":2442:2471   */\n      tag_132\n        /* \"--CODEGEN--\":2464:2470   */\n      dup2\n        /* \"--CODEGEN--\":2442:2471   */\n      jump(tag_133)\n    tag_132:\n        /* \"--CODEGEN--\":2437:2440   */\n      dup5\n        /* \"--CODEGEN--\":2433:2472   */\n      add\n        /* \"--CODEGEN--\":2426:2472   */\n      swap2\n      pop\n        /* \"--CODEGEN--\":2222:2477   */\n      pop\n      swap3\n      swap2\n      pop\n      pop\n      jump\n        /* \"--CODEGEN--\":2484:2597   */\n    tag_134:\n        /* \"--CODEGEN--\":2567:2591   */\n      tag_136\n        /* \"--CODEGEN--\":2585:2590   */\n      dup2\n        /* \"--CODEGEN--\":2567:2591   */\n      jump(tag_137)\n    tag_136:\n        /* \"--CODEGEN--\":2562:2565   */\n      dup3\n        /* \"--CODEGEN--\":2555:2592   */\n      mstore\n        /* \"--CODEGEN--\":2549:2597   */\n      pop\n      pop\n      jump\n        /* \"--CODEGEN--\":2604:2711   */\n    tag_138:\n        /* \"--CODEGEN--\":2683:2705   */\n      tag_140\n        /* \"--CODEGEN--\":2699:2704   */\n      dup2\n        /* \"--CODEGEN--\":2683:2705   */\n      jump(tag_141)\n    tag_140:\n        /* \"--CODEGEN--\":2678:2681   */\n      dup3\n        /* \"--CODEGEN--\":2671:2706   */\n      mstore\n        /* \"--CODEGEN--\":2665:2711   */\n      pop\n      pop\n      jump\n        /* \"--CODEGEN--\":2718:2919   */\n    tag_24:\n      0x00\n        /* \"--CODEGEN--\":2830:2832   */\n      0x20\n        /* \"--CODEGEN--\":2819:2828   */\n      dup3\n        /* \"--CODEGEN--\":2815:2833   */\n      add\n        /* \"--CODEGEN--\":2807:2833   */\n      swap1\n      pop\n        /* \"--CODEGEN--\":2844:2909   */\n      tag_143\n        /* \"--CODEGEN--\":2906:2907   */\n      0x00\n        /* \"--CODEGEN--\":2895:2904   */\n      dup4\n        /* \"--CODEGEN--\":2891:2908   */\n      add\n        /* \"--CODEGEN--\":2882:2888   */\n      dup5\n        /* \"--CODEGEN--\":2844:2909   */\n      jump(tag_120)\n    tag_143:\n        /* \"--CODEGEN--\":2801:2919   */\n      swap3\n      swap2\n      pop\n      pop\n      jump\n        /* \"--CODEGEN--\":2926:3227   */\n    tag_18:\n      0x00\n        /* \"--CODEGEN--\":3064:3066   */\n      0x20\n        /* \"--CODEGEN--\":3053:3062   */\n      dup3\n        /* \"--CODEGEN--\":3049:3067   */\n      add\n        /* \"--CODEGEN--\":3041:3067   */\n      swap1\n      pop\n        /* \"--CODEGEN--\":3114:3123   */\n      dup2\n        /* \"--CODEGEN--\":3108:3112   */\n      dup2\n        /* \"--CODEGEN--\":3104:3124   */\n      sub\n        /* \"--CODEGEN--\":3100:3101   */\n      0x00\n        /* \"--CODEGEN--\":3089:3098   */\n      dup4\n        /* \"--CODEGEN--\":3085:3102   */\n      add\n        /* \"--CODEGEN--\":3078:3125   */\n      mstore\n        /* \"--CODEGEN--\":3139:3217   */\n      tag_145\n        /* \"--CODEGEN--\":3212:3216   */\n      dup2\n        /* \"--CODEGEN--\":3203:3209   */\n      dup5\n        /* \"--CODEGEN--\":3139:3217   */\n      jump(tag_124)\n    tag_145:\n        /* \"--CODEGEN--\":3131:3217   */\n      swap1\n      pop\n        /* \"--CODEGEN--\":3035:3227   */\n      swap3\n      swap2\n      pop\n      pop\n      jump\n        /* \"--CODEGEN--\":3234:3447   */\n    tag_28:\n      0x00\n        /* \"--CODEGEN--\":3352:3354   */\n      0x20\n        /* \"--CODEGEN--\":3341:3350   */\n      dup3\n        /* \"--CODEGEN--\":3337:3355   */\n      add\n        /* \"--CODEGEN--\":3329:3355   */\n      swap1\n      pop\n        /* \"--CODEGEN--\":3366:3437   */\n      tag_147\n        /* \"--CODEGEN--\":3434:3435   */\n      0x00\n        /* \"--CODEGEN--\":3423:3432   */\n      dup4\n        /* \"--CODEGEN--\":3419:3436   */\n      add\n        /* \"--CODEGEN--\":3410:3416   */\n      dup5\n        /* \"--CODEGEN--\":3366:3437   */\n      jump(tag_134)\n    tag_147:\n        /* \"--CODEGEN--\":3323:3447   */\n      swap3\n      swap2\n      pop\n      pop\n      jump\n        /* \"--CODEGEN--\":3454:3659   */\n    tag_37:\n      0x00\n        /* \"--CODEGEN--\":3568:3570   */\n      0x20\n        /* \"--CODEGEN--\":3557:3566   */\n      dup3\n        /* \"--CODEGEN--\":3553:3571   */\n      add\n        /* \"--CODEGEN--\":3545:3571   */\n      swap1\n      pop\n        /* \"--CODEGEN--\":3582:3649   */\n      tag_149\n        /* \"--CODEGEN--\":3646:3647   */\n      0x00\n        /* \"--CODEGEN--\":3635:3644   */\n      dup4\n        /* \"--CODEGEN--\":3631:3648   */\n      add\n        /* \"--CODEGEN--\":3622:3628   */\n      dup5\n        /* \"--CODEGEN--\":3582:3649   */\n      jump(tag_138)\n    tag_149:\n        /* \"--CODEGEN--\":3539:3659   */\n      swap3\n      swap2\n      pop\n      pop\n      jump\n        /* \"--CODEGEN--\":3666:3788   */\n    tag_127:\n      0x00\n        /* \"--CODEGEN--\":3760:3765   */\n      dup2\n        /* \"--CODEGEN--\":3754:3766   */\n      mload\n        /* \"--CODEGEN--\":3744:3766   */\n      swap1\n      pop\n        /* \"--CODEGEN--\":3725:3788   */\n      swap2\n      swap1\n      pop\n      jump\n        /* \"--CODEGEN--\":3796:3959   */\n    tag_129:\n      0x00\n        /* \"--CODEGEN--\":3911:3917   */\n      dup3\n        /* \"--CODEGEN--\":3906:3909   */\n      dup3\n        /* \"--CODEGEN--\":3899:3918   */\n      mstore\n        /* \"--CODEGEN--\":3948:3952   */\n      0x20\n        /* \"--CODEGEN--\":3943:3946   */\n      dup3\n        /* \"--CODEGEN--\":3939:3953   */\n      add\n        /* \"--CODEGEN--\":3924:3953   */\n      swap1\n      pop\n        /* \"--CODEGEN--\":3892:3959   */\n      swap3\n      swap2\n      pop\n      pop\n      jump\n        /* \"--CODEGEN--\":3967:4058   */\n    tag_152:\n      0x00\n        /* \"--CODEGEN--\":4029:4053   */\n      tag_154\n        /* \"--CODEGEN--\":4047:4052   */\n      dup3\n        /* \"--CODEGEN--\":4029:4053   */\n      jump(tag_155)\n    tag_154:\n        /* \"--CODEGEN--\":4018:4053   */\n      swap1\n      pop\n        /* \"--CODEGEN--\":4012:4058   */\n      swap2\n      swap1\n      pop\n      jump\n        /* \"--CODEGEN--\":4065:4150   */\n    tag_123:\n      0x00\n        /* \"--CODEGEN--\":4138:4143   */\n      dup2\n        /* \"--CODEGEN--\":4131:4144   */\n      iszero\n        /* \"--CODEGEN--\":4124:4145   */\n      iszero\n        /* \"--CODEGEN--\":4113:4145   */\n      swap1\n      pop\n        /* \"--CODEGEN--\":4107:4150   */\n      swap2\n      swap1\n      pop\n      jump\n        /* \"--CODEGEN--\":4157:4278   */\n    tag_155:\n      0x00\n        /* \"--CODEGEN--\":4230:4272   */\n      0xffffffffffffffffffffffffffffffffffffffff\n        /* \"--CODEGEN--\":4223:4228   */\n      dup3\n        /* \"--CODEGEN--\":4219:4273   */\n      and\n        /* \"--CODEGEN--\":4208:4273   */\n      swap1\n      pop\n        /* \"--CODEGEN--\":4202:4278   */\n      swap2\n      swap1\n      pop\n      jump\n        /* \"--CODEGEN--\":4285:4357   */\n    tag_137:\n      0x00\n        /* \"--CODEGEN--\":4347:4352   */\n      dup2\n        /* \"--CODEGEN--\":4336:4352   */\n      swap1\n      pop\n        /* \"--CODEGEN--\":4330:4357   */\n      swap2\n      swap1\n      pop\n      jump\n        /* \"--CODEGEN--\":4364:4445   */\n    tag_141:\n      0x00\n        /* \"--CODEGEN--\":4435:4439   */\n      0xff\n        /* \"--CODEGEN--\":4428:4433   */\n      dup3\n        /* \"--CODEGEN--\":4424:4440   */\n      and\n        /* \"--CODEGEN--\":4413:4440   */\n      swap1\n      pop\n        /* \"--CODEGEN--\":4407:4445   */\n      swap2\n      swap1\n      pop\n      jump\n        /* \"--CODEGEN--\":4453:4721   */\n    tag_131:\n        /* \"--CODEGEN--\":4518:4519   */\n      0x00\n        /* \"--CODEGEN--\":4525:4626   */\n    tag_161:\n        /* \"--CODEGEN--\":4539:4545   */\n      dup4\n        /* \"--CODEGEN--\":4536:4537   */\n      dup2\n        /* \"--CODEGEN--\":4533:4546   */\n      lt\n        /* \"--CODEGEN--\":4525:4626   */\n      iszero\n      tag_163\n      jumpi\n        /* \"--CODEGEN--\":4615:4616   */\n      dup1\n        /* \"--CODEGEN--\":4610:4613   */\n      dup3\n        /* \"--CODEGEN--\":4606:4617   */\n      add\n        /* \"--CODEGEN--\":4600:4618   */\n      mload\n        /* \"--CODEGEN--\":4596:4597   */\n      dup2\n        /* \"--CODEGEN--\":4591:4594   */\n      dup5\n        /* \"--CODEGEN--\":4587:4598   */\n      add\n        /* \"--CODEGEN--\":4580:4619   */\n      mstore\n        /* \"--CODEGEN--\":4561:4563   */\n      0x20\n        /* \"--CODEGEN--\":4558:4559   */\n      dup2\n        /* \"--CODEGEN--\":4554:4564   */\n      add\n        /* \"--CODEGEN--\":4549:4564   */\n      swap1\n      pop\n        /* \"--CODEGEN--\":4525:4626   */\n      jump(tag_161)\n    tag_163:\n        /* \"--CODEGEN--\":4641:4647   */\n      dup4\n        /* \"--CODEGEN--\":4638:4639   */\n      dup2\n        /* \"--CODEGEN--\":4635:4648   */\n      gt\n        /* \"--CODEGEN--\":4632:4634   */\n      iszero\n      tag_164\n      jumpi\n        /* \"--CODEGEN--\":4706:4707   */\n      0x00\n        /* \"--CODEGEN--\":4697:4703   */\n      dup5\n        /* \"--CODEGEN--\":4692:4695   */\n      dup5\n        /* \"--CODEGEN--\":4688:4704   */\n      add\n        /* \"--CODEGEN--\":4681:4708   */\n      mstore\n        /* \"--CODEGEN--\":4632:4634   */\n    tag_164:\n        /* \"--CODEGEN--\":4502:4721   */\n      pop\n      pop\n      pop\n      pop\n      jump\n        /* \"--CODEGEN--\":4729:4826   */\n    tag_133:\n      0x00\n        /* \"--CODEGEN--\":4817:4819   */\n      0x1f\n        /* \"--CODEGEN--\":4813:4820   */\n      not\n        /* \"--CODEGEN--\":4808:4810   */\n      0x1f\n        /* \"--CODEGEN--\":4801:4806   */\n      dup4\n        /* \"--CODEGEN--\":4797:4811   */\n      add\n        /* \"--CODEGEN--\":4793:4821   */\n      and\n        /* \"--CODEGEN--\":4783:4821   */\n      swap1\n      pop\n        /* \"--CODEGEN--\":4777:4826   */\n      swap2\n      swap1\n      pop\n      jump\n        /* \"--CODEGEN--\":4834:4951   */\n    tag_96:\n        /* \"--CODEGEN--\":4903:4927   */\n      tag_167\n        /* \"--CODEGEN--\":4921:4926   */\n      dup2\n        /* \"--CODEGEN--\":4903:4927   */\n      jump(tag_152)\n    tag_167:\n        /* \"--CODEGEN--\":4896:4901   */\n      dup2\n        /* \"--CODEGEN--\":4893:4928   */\n      eq\n        /* \"--CODEGEN--\":4883:4885   */\n      tag_168\n      jumpi\n        /* \"--CODEGEN--\":4942:4943   */\n      0x00\n        /* \"--CODEGEN--\":4939:4940   */\n      dup1\n        /* \"--CODEGEN--\":4932:4944   */\n      revert\n        /* \"--CODEGEN--\":4883:4885   */\n    tag_168:\n        /* \"--CODEGEN--\":4877:4951   */\n      pop\n      jump\n        /* \"--CODEGEN--\":4958:5075   */\n    tag_100:\n        /* \"--CODEGEN--\":5027:5051   */\n      tag_170\n        /* \"--CODEGEN--\":5045:5050   */\n      dup2\n        /* \"--CODEGEN--\":5027:5051   */\n      jump(tag_137)\n    tag_170:\n        /* \"--CODEGEN--\":5020:5025   */\n      dup2\n        /* \"--CODEGEN--\":5017:5052   */\n      eq\n        /* \"--CODEGEN--\":5007:5009   */\n      tag_171\n      jumpi\n        /* \"--CODEGEN--\":5066:5067   */\n      0x00\n        /* \"--CODEGEN--\":5063:5064   */\n      dup1\n        /* \"--CODEGEN--\":5056:5068   */\n      revert\n        /* \"--CODEGEN--\":5007:5009   */\n    tag_171:\n        /* \"--CODEGEN--\":5001:5075   */\n      pop\n      jump\n\n    auxdata: 0xa2646970667358221220fb4387d306ba07ce5df068e809f8904cf4c4d0478baf99ca939b6ee4b8984a6964736f6c63430006070033\n}\n",
				"bytecode": {
					"linkReferences": {},
					"object": "608060405234801561001057600080fd5b5060405161109d38038061109d83398181016040528101906100329190610099565b806002819055506002546000803373ffffffffffffffffffffffffffffffffffffffff1673ffffffffffffffffffffffffffffffffffffffff16815260200190815260200160002081905550506100e3565b600081519050610093816100cc565b92915050565b6000602082840312156100ab57600080fd5b60006100b984828501610084565b91505092915050565b6000819050919050565b6100d5816100c2565b81146100e057600080fd5b50565b610fab806100f26000396000f3fe608060405234801561001057600080fd5b50600436106100a95760003560e01c80634ee22adf116100715780634ee22adf1461016857806370a082311461018457806395d89b41146101b4578063a9059cbb146101d2578063dd62ed3e14610202578063f490a35114610232576100a9565b806306fdde03146100ae578063095ea7b3146100cc57806318160ddd146100fc57806323b872dd1461011a578063313ce5671461014a575b600080fd5b6100b6610262565b6040516100c39190610e3a565b60405180910390f35b6100e660048036038101906100e19190610d54565b61029b565b6040516100f39190610e1f565b60405180910390f35b61010461038d565b6040516101119190610e5c565b60405180910390f35b610134600480360381019061012f9190610d05565b610397565b6040516101419190610e1f565b60405180910390f35b610152610712565b60405161015f9190610e77565b60405180910390f35b610182600480360381019061017d9190610d90565b610717565b005b61019e60048036038101906101999190610ca0565b610776565b6040516101ab9190610e5c565b60405180910390f35b6101bc6107be565b6040516101c99190610e3a565b60405180910390f35b6101ec60048036038101906101e79190610d54565b6107f7565b6040516101f99190610e1f565b60405180910390f35b61021c60048036038101906102179190610cc9565b6109d9565b6040516102299190610e5c565b60405180910390f35b61024c60048036038101906102479190610d05565b610a60565b6040516102599190610e1f565b60405180910390f35b6040518060400160405280600a81526020017f455243323042617369630000000000000000000000000000000000000000000081525081565b600081600160003373ffffffffffffffffffffffffffffffffffffffff1673ffffffffffffffffffffffffffffffffffffffff16815260200190815260200160002060008573ffffffffffffffffffffffffffffffffffffffff1673ffffffffffffffffffffffffffffffffffffffff168152602001908152602001600020819055508273ffffffffffffffffffffffffffffffffffffffff163373ffffffffffffffffffffffffffffffffffffffff167f8c5be1e5ebec7d5bd14f71427d1e84f3dd0314c0f7b2291e5b200ac8c7c3b9258460405161037b9190610e5c565b60405180910390a36001905092915050565b6000600254905090565b60008060008573ffffffffffffffffffffffffffffffffffffffff1673ffffffffffffffffffffffffffffffffffffffff168152602001908152602001600020548211156103e457600080fd5b600160008573ffffffffffffffffffffffffffffffffffffffff1673ffffffffffffffffffffffffffffffffffffffff16815260200190815260200160002060003373ffffffffffffffffffffffffffffffffffffffff1673ffffffffffffffffffffffffffffffffffffffff1681526020019081526020016000205482111561046d57600080fd5b6104be826000808773ffffffffffffffffffffffffffffffffffffffff1673ffffffffffffffffffffffffffffffffffffffff16815260200190815260200160002054610c4390919063ffffffff16565b6000808673ffffffffffffffffffffffffffffffffffffffff1673ffffffffffffffffffffffffffffffffffffffff1681526020019081526020016000208190555061058f82600160008773ffffffffffffffffffffffffffffffffffffffff1673ffffffffffffffffffffffffffffffffffffffff16815260200190815260200160002060003373ffffffffffffffffffffffffffffffffffffffff1673ffffffffffffffffffffffffffffffffffffffff16815260200190815260200160002054610c4390919063ffffffff16565b600160008673ffffffffffffffffffffffffffffffffffffffff1673ffffffffffffffffffffffffffffffffffffffff16815260200190815260200160002060003373ffffffffffffffffffffffffffffffffffffffff1673ffffffffffffffffffffffffffffffffffffffff16815260200190815260200160002081905550610660826000808673ffffffffffffffffffffffffffffffffffffffff1673ffffffffffffffffffffffffffffffffffffffff16815260200190815260200160002054610c5a90919063ffffffff16565b6000808573ffffffffffffffffffffffffffffffffffffffff1673ffffffffffffffffffffffffffffffffffffffff168152602001908152602001600020819055508273ffffffffffffffffffffffffffffffffffffffff168473ffffffffffffffffffffffffffffffffffffffff167fddf252ad1be2c89b69c2b068fc378daa952ba7f163c4a11628f55a4df523b3ef846040516106ff9190610e5c565b60405180910390a3600190509392505050565b600281565b80600260008282540192505081905550806000803373ffffffffffffffffffffffffffffffffffffffff1673ffffffffffffffffffffffffffffffffffffffff1681526020019081526020016000206000828254019250508190555050565b60008060008373ffffffffffffffffffffffffffffffffffffffff1673ffffffffffffffffffffffffffffffffffffffff168152602001908152602001600020549050919050565b6040518060400160405280600981526020017f4a424a2d544f4b454e000000000000000000000000000000000000000000000081525081565b60008060003373ffffffffffffffffffffffffffffffffffffffff1673ffffffffffffffffffffffffffffffffffffffff1681526020019081526020016000205482111561084457600080fd5b610895826000803373ffffffffffffffffffffffffffffffffffffffff1673ffffffffffffffffffffffffffffffffffffffff16815260200190815260200160002054610c4390919063ffffffff16565b6000803373ffffffffffffffffffffffffffffffffffffffff1673ffffffffffffffffffffffffffffffffffffffff16815260200190815260200160002081905550610928826000808673ffffffffffffffffffffffffffffffffffffffff1673ffffffffffffffffffffffffffffffffffffffff16815260200190815260200160002054610c5a90919063ffffffff16565b6000808573ffffffffffffffffffffffffffffffffffffffff1673ffffffffffffffffffffffffffffffffffffffff168152602001908152602001600020819055508273ffffffffffffffffffffffffffffffffffffffff163373ffffffffffffffffffffffffffffffffffffffff167fddf252ad1be2c89b69c2b068fc378daa952ba7f163c4a11628f55a4df523b3ef846040516109c79190610e5c565b60405180910390a36001905092915050565b6000600160008473ffffffffffffffffffffffffffffffffffffffff1673ffffffffffffffffffffffffffffffffffffffff16815260200190815260200160002060008373ffffffffffffffffffffffffffffffffffffffff1673ffffffffffffffffffffffffffffffffffffffff16815260200190815260200160002054905092915050565b60008060008573ffffffffffffffffffffffffffffffffffffffff1673ffffffffffffffffffffffffffffffffffffffff16815260200190815260200160002054821115610aad57600080fd5b610afe826000808773ffffffffffffffffffffffffffffffffffffffff1673ffffffffffffffffffffffffffffffffffffffff16815260200190815260200160002054610c4390919063ffffffff16565b6000808673ffffffffffffffffffffffffffffffffffffffff1673ffffffffffffffffffffffffffffffffffffffff16815260200190815260200160002081905550610b91826000808673ffffffffffffffffffffffffffffffffffffffff1673ffffffffffffffffffffffffffffffffffffffff16815260200190815260200160002054610c5a90919063ffffffff16565b6000808573ffffffffffffffffffffffffffffffffffffffff1673ffffffffffffffffffffffffffffffffffffffff168152602001908152602001600020819055508273ffffffffffffffffffffffffffffffffffffffff168473ffffffffffffffffffffffffffffffffffffffff167fddf252ad1be2c89b69c2b068fc378daa952ba7f163c4a11628f55a4df523b3ef84604051610c309190610e5c565b60405180910390a3600190509392505050565b600082821115610c4f57fe5b818303905092915050565b600080828401905083811015610c6c57fe5b8091505092915050565b600081359050610c8581610f47565b92915050565b600081359050610c9a81610f5e565b92915050565b600060208284031215610cb257600080fd5b6000610cc084828501610c76565b91505092915050565b60008060408385031215610cdc57600080fd5b6000610cea85828601610c76565b9250506020610cfb85828601610c76565b9150509250929050565b600080600060608486031215610d1a57600080fd5b6000610d2886828701610c76565b9350506020610d3986828701610c76565b9250506040610d4a86828701610c8b565b9150509250925092565b60008060408385031215610d6757600080fd5b6000610d7585828601610c76565b9250506020610d8685828601610c8b565b9150509250929050565b600060208284031215610da257600080fd5b6000610db084828501610c8b565b91505092915050565b610dc281610ec0565b82525050565b6000610dd382610e92565b610ddd8185610e9d565b9350610ded818560208601610f03565b610df681610f36565b840191505092915050565b610e0a81610eec565b82525050565b610e1981610ef6565b82525050565b6000602082019050610e346000830184610db9565b92915050565b60006020820190508181036000830152610e548184610dc8565b905092915050565b6000602082019050610e716000830184610e01565b92915050565b6000602082019050610e8c6000830184610e10565b92915050565b600081519050919050565b600082825260208201905092915050565b6000610eb982610ecc565b9050919050565b60008115159050919050565b600073ffffffffffffffffffffffffffffffffffffffff82169050919050565b6000819050919050565b600060ff82169050919050565b60005b83811015610f21578082015181840152602081019050610f06565b83811115610f30576000848401525b50505050565b6000601f19601f8301169050919050565b610f5081610eae565b8114610f5b57600080fd5b50565b610f6781610eec565b8114610f7257600080fd5b5056fea2646970667358221220fb4387d306ba07ce5df068e809f8904cf4c4d0478baf99ca939b6ee4b8984a6964736f6c63430006070033",
					"opcodes": "PUSH1 0x80 PUSH1 0x40 MSTORE CALLVALUE DUP1 ISZERO PUSH2 0x10 JUMPI PUSH1 0x0 DUP1 REVERT JUMPDEST POP PUSH1 0x40 MLOAD PUSH2 0x109D CODESIZE SUB DUP1 PUSH2 0x109D DUP4 CODECOPY DUP2 DUP2 ADD PUSH1 0x40 MSTORE DUP2 ADD SWAP1 PUSH2 0x32 SWAP2 SWAP1 PUSH2 0x99 JUMP JUMPDEST DUP1 PUSH1 0x2 DUP2 SWAP1 SSTORE POP PUSH1 0x2 SLOAD PUSH1 0x0 DUP1 CALLER PUSH20 0xFFFFFFFFFFFFFFFFFFFFFFFFFFFFFFFFFFFFFFFF AND PUSH20 0xFFFFFFFFFFFFFFFFFFFFFFFFFFFFFFFFFFFFFFFF AND DUP2 MSTORE PUSH1 0x20 ADD SWAP1 DUP2 MSTORE PUSH1 0x20 ADD PUSH1 0x0 KECCAK256 DUP2 SWAP1 SSTORE POP POP PUSH2 0xE3 JUMP JUMPDEST PUSH1 0x0 DUP2 MLOAD SWAP1 POP PUSH2 0x93 DUP2 PUSH2 0xCC JUMP JUMPDEST SWAP3 SWAP2 POP POP JUMP JUMPDEST PUSH1 0x0 PUSH1 0x20 DUP3 DUP5 SUB SLT ISZERO PUSH2 0xAB JUMPI PUSH1 0x0 DUP1 REVERT JUMPDEST PUSH1 0x0 PUSH2 0xB9 DUP5 DUP3 DUP6 ADD PUSH2 0x84 JUMP JUMPDEST SWAP2 POP POP SWAP3 SWAP2 POP POP JUMP JUMPDEST PUSH1 0x0 DUP2 SWAP1 POP SWAP2 SWAP1 POP JUMP JUMPDEST PUSH2 0xD5 DUP2 PUSH2 0xC2 JUMP JUMPDEST DUP2 EQ PUSH2 0xE0 JUMPI PUSH1 0x0 DUP1 REVERT JUMPDEST POP JUMP JUMPDEST PUSH2 0xFAB DUP1 PUSH2 0xF2 PUSH1 0x0 CODECOPY PUSH1 0x0 RETURN INVALID PUSH1 0x80 PUSH1 0x40 MSTORE CALLVALUE DUP1 ISZERO PUSH2 0x10 JUMPI PUSH1 0x0 DUP1 REVERT JUMPDEST POP PUSH1 0x4 CALLDATASIZE LT PUSH2 0xA9 JUMPI PUSH1 0x0 CALLDATALOAD PUSH1 0xE0 SHR DUP1 PUSH4 0x4EE22ADF GT PUSH2 0x71 JUMPI DUP1 PUSH4 0x4EE22ADF EQ PUSH2 0x168 JUMPI DUP1 PUSH4 0x70A08231 EQ PUSH2 0x184 JUMPI DUP1 PUSH4 0x95D89B41 EQ PUSH2 0x1B4 JUMPI DUP1 PUSH4 0xA9059CBB EQ PUSH2 0x1D2 JUMPI DUP1 PUSH4 0xDD62ED3E EQ PUSH2 0x202 JUMPI DUP1 PUSH4 0xF490A351 EQ PUSH2 0x232 JUMPI PUSH2 0xA9 JUMP JUMPDEST DUP1 PUSH4 0x6FDDE03 EQ PUSH2 0xAE JUMPI DUP1 PUSH4 0x95EA7B3 EQ PUSH2 0xCC JUMPI DUP1 PUSH4 0x18160DDD EQ PUSH2 0xFC JUMPI DUP1 PUSH4 0x23B872DD EQ PUSH2 0x11A JUMPI DUP1 PUSH4 0x313CE567 EQ PUSH2 0x14A JUMPI JUMPDEST PUSH1 0x0 DUP1 REVERT JUMPDEST PUSH2 0xB6 PUSH2 0x262 JUMP JUMPDEST PUSH1 0x40 MLOAD PUSH2 0xC3 SWAP2 SWAP1 PUSH2 0xE3A JUMP JUMPDEST PUSH1 0x40 MLOAD DUP1 SWAP2 SUB SWAP1 RETURN JUMPDEST PUSH2 0xE6 PUSH1 0x4 DUP1 CALLDATASIZE SUB DUP2 ADD SWAP1 PUSH2 0xE1 SWAP2 SWAP1 PUSH2 0xD54 JUMP JUMPDEST PUSH2 0x29B JUMP JUMPDEST PUSH1 0x40 MLOAD PUSH2 0xF3 SWAP2 SWAP1 PUSH2 0xE1F JUMP JUMPDEST PUSH1 0x40 MLOAD DUP1 SWAP2 SUB SWAP1 RETURN JUMPDEST PUSH2 0x104 PUSH2 0x38D JUMP JUMPDEST PUSH1 0x40 MLOAD PUSH2 0x111 SWAP2 SWAP1 PUSH2 0xE5C JUMP JUMPDEST PUSH1 0x40 MLOAD DUP1 SWAP2 SUB SWAP1 RETURN JUMPDEST PUSH2 0x134 PUSH1 0x4 DUP1 CALLDATASIZE SUB DUP2 ADD SWAP1 PUSH2 0x12F SWAP2 SWAP1 PUSH2 0xD05 JUMP JUMPDEST PUSH2 0x397 JUMP JUMPDEST PUSH1 0x40 MLOAD PUSH2 0x141 SWAP2 SWAP1 PUSH2 0xE1F JUMP JUMPDEST PUSH1 0x40 MLOAD DUP1 SWAP2 SUB SWAP1 RETURN JUMPDEST PUSH2 0x152 PUSH2 0x712 JUMP JUMPDEST PUSH1 0x40 MLOAD PUSH2 0x15F SWAP2 SWAP1 PUSH2 0xE77 JUMP JUMPDEST PUSH1 0x40 MLOAD DUP1 SWAP2 SUB SWAP1 RETURN JUMPDEST PUSH2 0x182 PUSH1 0x4 DUP1 CALLDATASIZE SUB DUP2 ADD SWAP1 PUSH2 0x17D SWAP2 SWAP1 PUSH2 0xD90 JUMP JUMPDEST PUSH2 0x717 JUMP JUMPDEST STOP JUMPDEST PUSH2 0x19E PUSH1 0x4 DUP1 CALLDATASIZE SUB DUP2 ADD SWAP1 PUSH2 0x199 SWAP2 SWAP1 PUSH2 0xCA0 JUMP JUMPDEST PUSH2 0x776 JUMP JUMPDEST PUSH1 0x40 MLOAD PUSH2 0x1AB SWAP2 SWAP1 PUSH2 0xE5C JUMP JUMPDEST PUSH1 0x40 MLOAD DUP1 SWAP2 SUB SWAP1 RETURN JUMPDEST PUSH2 0x1BC PUSH2 0x7BE JUMP JUMPDEST PUSH1 0x40 MLOAD PUSH2 0x1C9 SWAP2 SWAP1 PUSH2 0xE3A JUMP JUMPDEST PUSH1 0x40 MLOAD DUP1 SWAP2 SUB SWAP1 RETURN JUMPDEST PUSH2 0x1EC PUSH1 0x4 DUP1 CALLDATASIZE SUB DUP2 ADD SWAP1 PUSH2 0x1E7 SWAP2 SWAP1 PUSH2 0xD54 JUMP JUMPDEST PUSH2 0x7F7 JUMP JUMPDEST PUSH1 0x40 MLOAD PUSH2 0x1F9 SWAP2 SWAP1 PUSH2 0xE1F JUMP JUMPDEST PUSH1 0x40 MLOAD DUP1 SWAP2 SUB SWAP1 RETURN JUMPDEST PUSH2 0x21C PUSH1 0x4 DUP1 CALLDATASIZE SUB DUP2 ADD SWAP1 PUSH2 0x217 SWAP2 SWAP1 PUSH2 0xCC9 JUMP JUMPDEST PUSH2 0x9D9 JUMP JUMPDEST PUSH1 0x40 MLOAD PUSH2 0x229 SWAP2 SWAP1 PUSH2 0xE5C JUMP JUMPDEST PUSH1 0x40 MLOAD DUP1 SWAP2 SUB SWAP1 RETURN JUMPDEST PUSH2 0x24C PUSH1 0x4 DUP1 CALLDATASIZE SUB DUP2 ADD SWAP1 PUSH2 0x247 SWAP2 SWAP1 PUSH2 0xD05 JUMP JUMPDEST PUSH2 0xA60 JUMP JUMPDEST PUSH1 0x40 MLOAD PUSH2 0x259 SWAP2 SWAP1 PUSH2 0xE1F JUMP JUMPDEST PUSH1 0x40 MLOAD DUP1 SWAP2 SUB SWAP1 RETURN JUMPDEST PUSH1 0x40 MLOAD DUP1 PUSH1 0x40 ADD PUSH1 0x40 MSTORE DUP1 PUSH1 0xA DUP2 MSTORE PUSH1 0x20 ADD PUSH32 0x4552433230426173696300000000000000000000000000000000000000000000 DUP2 MSTORE POP DUP2 JUMP JUMPDEST PUSH1 0x0 DUP2 PUSH1 0x1 PUSH1 0x0 CALLER PUSH20 0xFFFFFFFFFFFFFFFFFFFFFFFFFFFFFFFFFFFFFFFF AND PUSH20 0xFFFFFFFFFFFFFFFFFFFFFFFFFFFFFFFFFFFFFFFF AND DUP2 MSTORE PUSH1 0x20 ADD SWAP1 DUP2 MSTORE PUSH1 0x20 ADD PUSH1 0x0 KECCAK256 PUSH1 0x0 DUP6 PUSH20 0xFFFFFFFFFFFFFFFFFFFFFFFFFFFFFFFFFFFFFFFF AND PUSH20 0xFFFFFFFFFFFFFFFFFFFFFFFFFFFFFFFFFFFFFFFF AND DUP2 MSTORE PUSH1 0x20 ADD SWAP1 DUP2 MSTORE PUSH1 0x20 ADD PUSH1 0x0 KECCAK256 DUP2 SWAP1 SSTORE POP DUP3 PUSH20 0xFFFFFFFFFFFFFFFFFFFFFFFFFFFFFFFFFFFFFFFF AND CALLER PUSH20 0xFFFFFFFFFFFFFFFFFFFFFFFFFFFFFFFFFFFFFFFF AND PUSH32 0x8C5BE1E5EBEC7D5BD14F71427D1E84F3DD0314C0F7B2291E5B200AC8C7C3B925 DUP5 PUSH1 0x40 MLOAD PUSH2 0x37B SWAP2 SWAP1 PUSH2 0xE5C JUMP JUMPDEST PUSH1 0x40 MLOAD DUP1 SWAP2 SUB SWAP1 LOG3 PUSH1 0x1 SWAP1 POP SWAP3 SWAP2 POP POP JUMP JUMPDEST PUSH1 0x0 PUSH1 0x2 SLOAD SWAP1 POP SWAP1 JUMP JUMPDEST PUSH1 0x0 DUP1 PUSH1 0x0 DUP6 PUSH20 0xFFFFFFFFFFFFFFFFFFFFFFFFFFFFFFFFFFFFFFFF AND PUSH20 0xFFFFFFFFFFFFFFFFFFFFFFFFFFFFFFFFFFFFFFFF AND DUP2 MSTORE PUSH1 0x20 ADD SWAP1 DUP2 MSTORE PUSH1 0x20 ADD PUSH1 0x0 KECCAK256 SLOAD DUP3 GT ISZERO PUSH2 0x3E4 JUMPI PUSH1 0x0 DUP1 REVERT JUMPDEST PUSH1 0x1 PUSH1 0x0 DUP6 PUSH20 0xFFFFFFFFFFFFFFFFFFFFFFFFFFFFFFFFFFFFFFFF AND PUSH20 0xFFFFFFFFFFFFFFFFFFFFFFFFFFFFFFFFFFFFFFFF AND DUP2 MSTORE PUSH1 0x20 ADD SWAP1 DUP2 MSTORE PUSH1 0x20 ADD PUSH1 0x0 KECCAK256 PUSH1 0x0 CALLER PUSH20 0xFFFFFFFFFFFFFFFFFFFFFFFFFFFFFFFFFFFFFFFF AND PUSH20 0xFFFFFFFFFFFFFFFFFFFFFFFFFFFFFFFFFFFFFFFF AND DUP2 MSTORE PUSH1 0x20 ADD SWAP1 DUP2 MSTORE PUSH1 0x20 ADD PUSH1 0x0 KECCAK256 SLOAD DUP3 GT ISZERO PUSH2 0x46D JUMPI PUSH1 0x0 DUP1 REVERT JUMPDEST PUSH2 0x4BE DUP3 PUSH1 0x0 DUP1 DUP8 PUSH20 0xFFFFFFFFFFFFFFFFFFFFFFFFFFFFFFFFFFFFFFFF AND PUSH20 0xFFFFFFFFFFFFFFFFFFFFFFFFFFFFFFFFFFFFFFFF AND DUP2 MSTORE PUSH1 0x20 ADD SWAP1 DUP2 MSTORE PUSH1 0x20 ADD PUSH1 0x0 KECCAK256 SLOAD PUSH2 0xC43 SWAP1 SWAP2 SWAP1 PUSH4 0xFFFFFFFF AND JUMP JUMPDEST PUSH1 0x0 DUP1 DUP7 PUSH20 0xFFFFFFFFFFFFFFFFFFFFFFFFFFFFFFFFFFFFFFFF AND PUSH20 0xFFFFFFFFFFFFFFFFFFFFFFFFFFFFFFFFFFFFFFFF AND DUP2 MSTORE PUSH1 0x20 ADD SWAP1 DUP2 MSTORE PUSH1 0x20 ADD PUSH1 0x0 KECCAK256 DUP2 SWAP1 SSTORE POP PUSH2 0x58F DUP3 PUSH1 0x1 PUSH1 0x0 DUP8 PUSH20 0xFFFFFFFFFFFFFFFFFFFFFFFFFFFFFFFFFFFFFFFF AND PUSH20 0xFFFFFFFFFFFFFFFFFFFFFFFFFFFFFFFFFFFFFFFF AND DUP2 MSTORE PUSH1 0x20 ADD SWAP1 DUP2 MSTORE PUSH1 0x20 ADD PUSH1 0x0 KECCAK256 PUSH1 0x0 CALLER PUSH20 0xFFFFFFFFFFFFFFFFFFFFFFFFFFFFFFFFFFFFFFFF AND PUSH20 0xFFFFFFFFFFFFFFFFFFFFFFFFFFFFFFFFFFFFFFFF AND DUP2 MSTORE PUSH1 0x20 ADD SWAP1 DUP2 MSTORE PUSH1 0x20 ADD PUSH1 0x0 KECCAK256 SLOAD PUSH2 0xC43 SWAP1 SWAP2 SWAP1 PUSH4 0xFFFFFFFF AND JUMP JUMPDEST PUSH1 0x1 PUSH1 0x0 DUP7 PUSH20 0xFFFFFFFFFFFFFFFFFFFFFFFFFFFFFFFFFFFFFFFF AND PUSH20 0xFFFFFFFFFFFFFFFFFFFFFFFFFFFFFFFFFFFFFFFF AND DUP2 MSTORE PUSH1 0x20 ADD SWAP1 DUP2 MSTORE PUSH1 0x20 ADD PUSH1 0x0 KECCAK256 PUSH1 0x0 CALLER PUSH20 0xFFFFFFFFFFFFFFFFFFFFFFFFFFFFFFFFFFFFFFFF AND PUSH20 0xFFFFFFFFFFFFFFFFFFFFFFFFFFFFFFFFFFFFFFFF AND DUP2 MSTORE PUSH1 0x20 ADD SWAP1 DUP2 MSTORE PUSH1 0x20 ADD PUSH1 0x0 KECCAK256 DUP2 SWAP1 SSTORE POP PUSH2 0x660 DUP3 PUSH1 0x0 DUP1 DUP7 PUSH20 0xFFFFFFFFFFFFFFFFFFFFFFFFFFFFFFFFFFFFFFFF AND PUSH20 0xFFFFFFFFFFFFFFFFFFFFFFFFFFFFFFFFFFFFFFFF AND DUP2 MSTORE PUSH1 0x20 ADD SWAP1 DUP2 MSTORE PUSH1 0x20 ADD PUSH1 0x0 KECCAK256 SLOAD PUSH2 0xC5A SWAP1 SWAP2 SWAP1 PUSH4 0xFFFFFFFF AND JUMP JUMPDEST PUSH1 0x0 DUP1 DUP6 PUSH20 0xFFFFFFFFFFFFFFFFFFFFFFFFFFFFFFFFFFFFFFFF AND PUSH20 0xFFFFFFFFFFFFFFFFFFFFFFFFFFFFFFFFFFFFFFFF AND DUP2 MSTORE PUSH1 0x20 ADD SWAP1 DUP2 MSTORE PUSH1 0x20 ADD PUSH1 0x0 KECCAK256 DUP2 SWAP1 SSTORE POP DUP3 PUSH20 0xFFFFFFFFFFFFFFFFFFFFFFFFFFFFFFFFFFFFFFFF AND DUP5 PUSH20 0xFFFFFFFFFFFFFFFFFFFFFFFFFFFFFFFFFFFFFFFF AND PUSH32 0xDDF252AD1BE2C89B69C2B068FC378DAA952BA7F163C4A11628F55A4DF523B3EF DUP5 PUSH1 0x40 MLOAD PUSH2 0x6FF SWAP2 SWAP1 PUSH2 0xE5C JUMP JUMPDEST PUSH1 0x40 MLOAD DUP1 SWAP2 SUB SWAP1 LOG3 PUSH1 0x1 SWAP1 POP SWAP4 SWAP3 POP POP POP JUMP JUMPDEST PUSH1 0x2 DUP2 JUMP JUMPDEST DUP1 PUSH1 0x2 PUSH1 0x0 DUP3 DUP3 SLOAD ADD SWAP3 POP POP DUP2 SWAP1 SSTORE POP DUP1 PUSH1 0x0 DUP1 CALLER PUSH20 0xFFFFFFFFFFFFFFFFFFFFFFFFFFFFFFFFFFFFFFFF AND PUSH20 0xFFFFFFFFFFFFFFFFFFFFFFFFFFFFFFFFFFFFFFFF AND DUP2 MSTORE PUSH1 0x20 ADD SWAP1 DUP2 MSTORE PUSH1 0x20 ADD PUSH1 0x0 KECCAK256 PUSH1 0x0 DUP3 DUP3 SLOAD ADD SWAP3 POP POP DUP2 SWAP1 SSTORE POP POP JUMP JUMPDEST PUSH1 0x0 DUP1 PUSH1 0x0 DUP4 PUSH20 0xFFFFFFFFFFFFFFFFFFFFFFFFFFFFFFFFFFFFFFFF AND PUSH20 0xFFFFFFFFFFFFFFFFFFFFFFFFFFFFFFFFFFFFFFFF AND DUP2 MSTORE PUSH1 0x20 ADD SWAP1 DUP2 MSTORE PUSH1 0x20 ADD PUSH1 0x0 KECCAK256 SLOAD SWAP1 POP SWAP2 SWAP1 POP JUMP JUMPDEST PUSH1 0x40 MLOAD DUP1 PUSH1 0x40 ADD PUSH1 0x40 MSTORE DUP1 PUSH1 0x9 DUP2 MSTORE PUSH1 0x20 ADD PUSH32 0x4A424A2D544F4B454E0000000000000000000000000000000000000000000000 DUP2 MSTORE POP DUP2 JUMP JUMPDEST PUSH1 0x0 DUP1 PUSH1 0x0 CALLER PUSH20 0xFFFFFFFFFFFFFFFFFFFFFFFFFFFFFFFFFFFFFFFF AND PUSH20 0xFFFFFFFFFFFFFFFFFFFFFFFFFFFFFFFFFFFFFFFF AND DUP2 MSTORE PUSH1 0x20 ADD SWAP1 DUP2 MSTORE PUSH1 0x20 ADD PUSH1 0x0 KECCAK256 SLOAD DUP3 GT ISZERO PUSH2 0x844 JUMPI PUSH1 0x0 DUP1 REVERT JUMPDEST PUSH2 0x895 DUP3 PUSH1 0x0 DUP1 CALLER PUSH20 0xFFFFFFFFFFFFFFFFFFFFFFFFFFFFFFFFFFFFFFFF AND PUSH20 0xFFFFFFFFFFFFFFFFFFFFFFFFFFFFFFFFFFFFFFFF AND DUP2 MSTORE PUSH1 0x20 ADD SWAP1 DUP2 MSTORE PUSH1 0x20 ADD PUSH1 0x0 KECCAK256 SLOAD PUSH2 0xC43 SWAP1 SWAP2 SWAP1 PUSH4 0xFFFFFFFF AND JUMP JUMPDEST PUSH1 0x0 DUP1 CALLER PUSH20 0xFFFFFFFFFFFFFFFFFFFFFFFFFFFFFFFFFFFFFFFF AND PUSH20 0xFFFFFFFFFFFFFFFFFFFFFFFFFFFFFFFFFFFFFFFF AND DUP2 MSTORE PUSH1 0x20 ADD SWAP1 DUP2 MSTORE PUSH1 0x20 ADD PUSH1 0x0 KECCAK256 DUP2 SWAP1 SSTORE POP PUSH2 0x928 DUP3 PUSH1 0x0 DUP1 DUP7 PUSH20 0xFFFFFFFFFFFFFFFFFFFFFFFFFFFFFFFFFFFFFFFF AND PUSH20 0xFFFFFFFFFFFFFFFFFFFFFFFFFFFFFFFFFFFFFFFF AND DUP2 MSTORE PUSH1 0x20 ADD SWAP1 DUP2 MSTORE PUSH1 0x20 ADD PUSH1 0x0 KECCAK256 SLOAD PUSH2 0xC5A SWAP1 SWAP2 SWAP1 PUSH4 0xFFFFFFFF AND JUMP JUMPDEST PUSH1 0x0 DUP1 DUP6 PUSH20 0xFFFFFFFFFFFFFFFFFFFFFFFFFFFFFFFFFFFFFFFF AND PUSH20 0xFFFFFFFFFFFFFFFFFFFFFFFFFFFFFFFFFFFFFFFF AND DUP2 MSTORE PUSH1 0x20 ADD SWAP1 DUP2 MSTORE PUSH1 0x20 ADD PUSH1 0x0 KECCAK256 DUP2 SWAP1 SSTORE POP DUP3 PUSH20 0xFFFFFFFFFFFFFFFFFFFFFFFFFFFFFFFFFFFFFFFF AND CALLER PUSH20 0xFFFFFFFFFFFFFFFFFFFFFFFFFFFFFFFFFFFFFFFF AND PUSH32 0xDDF252AD1BE2C89B69C2B068FC378DAA952BA7F163C4A11628F55A4DF523B3EF DUP5 PUSH1 0x40 MLOAD PUSH2 0x9C7 SWAP2 SWAP1 PUSH2 0xE5C JUMP JUMPDEST PUSH1 0x40 MLOAD DUP1 SWAP2 SUB SWAP1 LOG3 PUSH1 0x1 SWAP1 POP SWAP3 SWAP2 POP POP JUMP JUMPDEST PUSH1 0x0 PUSH1 0x1 PUSH1 0x0 DUP5 PUSH20 0xFFFFFFFFFFFFFFFFFFFFFFFFFFFFFFFFFFFFFFFF AND PUSH20 0xFFFFFFFFFFFFFFFFFFFFFFFFFFFFFFFFFFFFFFFF AND DUP2 MSTORE PUSH1 0x20 ADD SWAP1 DUP2 MSTORE PUSH1 0x20 ADD PUSH1 0x0 KECCAK256 PUSH1 0x0 DUP4 PUSH20 0xFFFFFFFFFFFFFFFFFFFFFFFFFFFFFFFFFFFFFFFF AND PUSH20 0xFFFFFFFFFFFFFFFFFFFFFFFFFFFFFFFFFFFFFFFF AND DUP2 MSTORE PUSH1 0x20 ADD SWAP1 DUP2 MSTORE PUSH1 0x20 ADD PUSH1 0x0 KECCAK256 SLOAD SWAP1 POP SWAP3 SWAP2 POP POP JUMP JUMPDEST PUSH1 0x0 DUP1 PUSH1 0x0 DUP6 PUSH20 0xFFFFFFFFFFFFFFFFFFFFFFFFFFFFFFFFFFFFFFFF AND PUSH20 0xFFFFFFFFFFFFFFFFFFFFFFFFFFFFFFFFFFFFFFFF AND DUP2 MSTORE PUSH1 0x20 ADD SWAP1 DUP2 MSTORE PUSH1 0x20 ADD PUSH1 0x0 KECCAK256 SLOAD DUP3 GT ISZERO PUSH2 0xAAD JUMPI PUSH1 0x0 DUP1 REVERT JUMPDEST PUSH2 0xAFE DUP3 PUSH1 0x0 DUP1 DUP8 PUSH20 0xFFFFFFFFFFFFFFFFFFFFFFFFFFFFFFFFFFFFFFFF AND PUSH20 0xFFFFFFFFFFFFFFFFFFFFFFFFFFFFFFFFFFFFFFFF AND DUP2 MSTORE PUSH1 0x20 ADD SWAP1 DUP2 MSTORE PUSH1 0x20 ADD PUSH1 0x0 KECCAK256 SLOAD PUSH2 0xC43 SWAP1 SWAP2 SWAP1 PUSH4 0xFFFFFFFF AND JUMP JUMPDEST PUSH1 0x0 DUP1 DUP7 PUSH20 0xFFFFFFFFFFFFFFFFFFFFFFFFFFFFFFFFFFFFFFFF AND PUSH20 0xFFFFFFFFFFFFFFFFFFFFFFFFFFFFFFFFFFFFFFFF AND DUP2 MSTORE PUSH1 0x20 ADD SWAP1 DUP2 MSTORE PUSH1 0x20 ADD PUSH1 0x0 KECCAK256 DUP2 SWAP1 SSTORE POP PUSH2 0xB91 DUP3 PUSH1 0x0 DUP1 DUP7 PUSH20 0xFFFFFFFFFFFFFFFFFFFFFFFFFFFFFFFFFFFFFFFF AND PUSH20 0xFFFFFFFFFFFFFFFFFFFFFFFFFFFFFFFFFFFFFFFF AND DUP2 MSTORE PUSH1 0x20 ADD SWAP1 DUP2 MSTORE PUSH1 0x20 ADD PUSH1 0x0 KECCAK256 SLOAD PUSH2 0xC5A SWAP1 SWAP2 SWAP1 PUSH4 0xFFFFFFFF AND JUMP JUMPDEST PUSH1 0x0 DUP1 DUP6 PUSH20 0xFFFFFFFFFFFFFFFFFFFFFFFFFFFFFFFFFFFFFFFF AND PUSH20 0xFFFFFFFFFFFFFFFFFFFFFFFFFFFFFFFFFFFFFFFF AND DUP2 MSTORE PUSH1 0x20 ADD SWAP1 DUP2 MSTORE PUSH1 0x20 ADD PUSH1 0x0 KECCAK256 DUP2 SWAP1 SSTORE POP DUP3 PUSH20 0xFFFFFFFFFFFFFFFFFFFFFFFFFFFFFFFFFFFFFFFF AND DUP5 PUSH20 0xFFFFFFFFFFFFFFFFFFFFFFFFFFFFFFFFFFFFFFFF AND PUSH32 0xDDF252AD1BE2C89B69C2B068FC378DAA952BA7F163C4A11628F55A4DF523B3EF DUP5 PUSH1 0x40 MLOAD PUSH2 0xC30 SWAP2 SWAP1 PUSH2 0xE5C JUMP JUMPDEST PUSH1 0x40 MLOAD DUP1 SWAP2 SUB SWAP1 LOG3 PUSH1 0x1 SWAP1 POP SWAP4 SWAP3 POP POP POP JUMP JUMPDEST PUSH1 0x0 DUP3 DUP3 GT ISZERO PUSH2 0xC4F JUMPI INVALID JUMPDEST DUP2 DUP4 SUB SWAP1 POP SWAP3 SWAP2 POP POP JUMP JUMPDEST PUSH1 0x0 DUP1 DUP3 DUP5 ADD SWAP1 POP DUP4 DUP2 LT ISZERO PUSH2 0xC6C JUMPI INVALID JUMPDEST DUP1 SWAP2 POP POP SWAP3 SWAP2 POP POP JUMP JUMPDEST PUSH1 0x0 DUP2 CALLDATALOAD SWAP1 POP PUSH2 0xC85 DUP2 PUSH2 0xF47 JUMP JUMPDEST SWAP3 SWAP2 POP POP JUMP JUMPDEST PUSH1 0x0 DUP2 CALLDATALOAD SWAP1 POP PUSH2 0xC9A DUP2 PUSH2 0xF5E JUMP JUMPDEST SWAP3 SWAP2 POP POP JUMP JUMPDEST PUSH1 0x0 PUSH1 0x20 DUP3 DUP5 SUB SLT ISZERO PUSH2 0xCB2 JUMPI PUSH1 0x0 DUP1 REVERT JUMPDEST PUSH1 0x0 PUSH2 0xCC0 DUP5 DUP3 DUP6 ADD PUSH2 0xC76 JUMP JUMPDEST SWAP2 POP POP SWAP3 SWAP2 POP POP JUMP JUMPDEST PUSH1 0x0 DUP1 PUSH1 0x40 DUP4 DUP6 SUB SLT ISZERO PUSH2 0xCDC JUMPI PUSH1 0x0 DUP1 REVERT JUMPDEST PUSH1 0x0 PUSH2 0xCEA DUP6 DUP3 DUP7 ADD PUSH2 0xC76 JUMP JUMPDEST SWAP3 POP POP PUSH1 0x20 PUSH2 0xCFB DUP6 DUP3 DUP7 ADD PUSH2 0xC76 JUMP JUMPDEST SWAP2 POP POP SWAP3 POP SWAP3 SWAP1 POP JUMP JUMPDEST PUSH1 0x0 DUP1 PUSH1 0x0 PUSH1 0x60 DUP5 DUP7 SUB SLT ISZERO PUSH2 0xD1A JUMPI PUSH1 0x0 DUP1 REVERT JUMPDEST PUSH1 0x0 PUSH2 0xD28 DUP7 DUP3 DUP8 ADD PUSH2 0xC76 JUMP JUMPDEST SWAP4 POP POP PUSH1 0x20 PUSH2 0xD39 DUP7 DUP3 DUP8 ADD PUSH2 0xC76 JUMP JUMPDEST SWAP3 POP POP PUSH1 0x40 PUSH2 0xD4A DUP7 DUP3 DUP8 ADD PUSH2 0xC8B JUMP JUMPDEST SWAP2 POP POP SWAP3 POP SWAP3 POP SWAP3 JUMP JUMPDEST PUSH1 0x0 DUP1 PUSH1 0x40 DUP4 DUP6 SUB SLT ISZERO PUSH2 0xD67 JUMPI PUSH1 0x0 DUP1 REVERT JUMPDEST PUSH1 0x0 PUSH2 0xD75 DUP6 DUP3 DUP7 ADD PUSH2 0xC76 JUMP JUMPDEST SWAP3 POP POP PUSH1 0x20 PUSH2 0xD86 DUP6 DUP3 DUP7 ADD PUSH2 0xC8B JUMP JUMPDEST SWAP2 POP POP SWAP3 POP SWAP3 SWAP1 POP JUMP JUMPDEST PUSH1 0x0 PUSH1 0x20 DUP3 DUP5 SUB SLT ISZERO PUSH2 0xDA2 JUMPI PUSH1 0x0 DUP1 REVERT JUMPDEST PUSH1 0x0 PUSH2 0xDB0 DUP5 DUP3 DUP6 ADD PUSH2 0xC8B JUMP JUMPDEST SWAP2 POP POP SWAP3 SWAP2 POP POP JUMP JUMPDEST PUSH2 0xDC2 DUP2 PUSH2 0xEC0 JUMP JUMPDEST DUP3 MSTORE POP POP JUMP JUMPDEST PUSH1 0x0 PUSH2 0xDD3 DUP3 PUSH2 0xE92 JUMP JUMPDEST PUSH2 0xDDD DUP2 DUP6 PUSH2 0xE9D JUMP JUMPDEST SWAP4 POP PUSH2 0xDED DUP2 DUP6 PUSH1 0x20 DUP7 ADD PUSH2 0xF03 JUMP JUMPDEST PUSH2 0xDF6 DUP2 PUSH2 0xF36 JUMP JUMPDEST DUP5 ADD SWAP2 POP POP SWAP3 SWAP2 POP POP JUMP JUMPDEST PUSH2 0xE0A DUP2 PUSH2 0xEEC JUMP JUMPDEST DUP3 MSTORE POP POP JUMP JUMPDEST PUSH2 0xE19 DUP2 PUSH2 0xEF6 JUMP JUMPDEST DUP3 MSTORE POP POP JUMP JUMPDEST PUSH1 0x0 PUSH1 0x20 DUP3 ADD SWAP1 POP PUSH2 0xE34 PUSH1 0x0 DUP4 ADD DUP5 PUSH2 0xDB9 JUMP JUMPDEST SWAP3 SWAP2 POP POP JUMP JUMPDEST PUSH1 0x0 PUSH1 0x20 DUP3 ADD SWAP1 POP DUP2 DUP2 SUB PUSH1 0x0 DUP4 ADD MSTORE PUSH2 0xE54 DUP2 DUP5 PUSH2 0xDC8 JUMP JUMPDEST SWAP1 POP SWAP3 SWAP2 POP POP JUMP JUMPDEST PUSH1 0x0 PUSH1 0x20 DUP3 ADD SWAP1 POP PUSH2 0xE71 PUSH1 0x0 DUP4 ADD DUP5 PUSH2 0xE01 JUMP JUMPDEST SWAP3 SWAP2 POP POP JUMP JUMPDEST PUSH1 0x0 PUSH1 0x20 DUP3 ADD SWAP1 POP PUSH2 0xE8C PUSH1 0x0 DUP4 ADD DUP5 PUSH2 0xE10 JUMP JUMPDEST SWAP3 SWAP2 POP POP JUMP JUMPDEST PUSH1 0x0 DUP2 MLOAD SWAP1 POP SWAP2 SWAP1 POP JUMP JUMPDEST PUSH1 0x0 DUP3 DUP3 MSTORE PUSH1 0x20 DUP3 ADD SWAP1 POP SWAP3 SWAP2 POP POP JUMP JUMPDEST PUSH1 0x0 PUSH2 0xEB9 DUP3 PUSH2 0xECC JUMP JUMPDEST SWAP1 POP SWAP2 SWAP1 POP JUMP JUMPDEST PUSH1 0x0 DUP2 ISZERO ISZERO SWAP1 POP SWAP2 SWAP1 POP JUMP JUMPDEST PUSH1 0x0 PUSH20 0xFFFFFFFFFFFFFFFFFFFFFFFFFFFFFFFFFFFFFFFF DUP3 AND SWAP1 POP SWAP2 SWAP1 POP JUMP JUMPDEST PUSH1 0x0 DUP2 SWAP1 POP SWAP2 SWAP1 POP JUMP JUMPDEST PUSH1 0x0 PUSH1 0xFF DUP3 AND SWAP1 POP SWAP2 SWAP1 POP JUMP JUMPDEST PUSH1 0x0 JUMPDEST DUP4 DUP2 LT ISZERO PUSH2 0xF21 JUMPI DUP1 DUP3 ADD MLOAD DUP2 DUP5 ADD MSTORE PUSH1 0x20 DUP2 ADD SWAP1 POP PUSH2 0xF06 JUMP JUMPDEST DUP4 DUP2 GT ISZERO PUSH2 0xF30 JUMPI PUSH1 0x0 DUP5 DUP5 ADD MSTORE JUMPDEST POP POP POP POP JUMP JUMPDEST PUSH1 0x0 PUSH1 0x1F NOT PUSH1 0x1F DUP4 ADD AND SWAP1 POP SWAP2 SWAP1 POP JUMP JUMPDEST PUSH2 0xF50 DUP2 PUSH2 0xEAE JUMP JUMPDEST DUP2 EQ PUSH2 0xF5B JUMPI PUSH1 0x0 DUP1 REVERT JUMPDEST POP JUMP JUMPDEST PUSH2 0xF67 DUP2 PUSH2 0xEEC JUMP JUMPDEST DUP2 EQ PUSH2 0xF72 JUMPI PUSH1 0x0 DUP1 REVERT JUMPDEST POP JUMP INVALID LOG2 PUSH5 0x6970667358 0x22 SLT KECCAK256 0xFB NUMBER DUP8 0xD3 MOD 0xBA SMOD 0xCE 0x5D CREATE PUSH9 0xE809F8904CF4C4D047 DUP12 0xAF SWAP10 0xCA SWAP4 SWAP12 PUSH15 0xE4B8984A6964736F6C634300060700 CALLER "
				},
				"gasEstimates": {
					"creation": {
						"codeDepositCost": "802200",
						"executionCost": "infinite",
						"totalCost": "infinite"
					},
					"external": {
						"allowance(address,address)": "infinite",
						"approve(address,uint256)": "infinite",
						"balanceOf(address)": "1563",
						"decimals()": "424",
						"increaseTotalSuply(uint256)": "42161",
						"name()": "infinite",
						"symbol()": "infinite",
						"totalSupply()": "1182",
						"transfer(address,uint256)": "infinite",
						"transferFrom(address,address,uint256)": "infinite",
						"transferencia_disney(address,address,uint256)": "infinite"
					}
				},
				"methodIdentifiers": {
					"allowance(address,address)": "dd62ed3e",
					"approve(address,uint256)": "095ea7b3",
					"balanceOf(address)": "70a08231",
					"decimals()": "313ce567",
					"increaseTotalSuply(uint256)": "4ee22adf",
					"name()": "06fdde03",
					"symbol()": "95d89b41",
					"totalSupply()": "18160ddd",
					"transfer(address,uint256)": "a9059cbb",
					"transferFrom(address,address,uint256)": "23b872dd",
					"transferencia_disney(address,address,uint256)": "f490a351"
				}
			},
			"storageLayout": {
				"storage": [
					{
						"astId": 112,
						"contract": "contracts/parque/ERC20.sol:ERC20Basic",
						"label": "balances",
						"offset": 0,
						"slot": "0",
						"type": "t_mapping(t_address,t_uint256)"
					},
					{
						"astId": 118,
						"contract": "contracts/parque/ERC20.sol:ERC20Basic",
						"label": "allowed",
						"offset": 0,
						"slot": "1",
						"type": "t_mapping(t_address,t_mapping(t_address,t_uint256))"
					},
					{
						"astId": 120,
						"contract": "contracts/parque/ERC20.sol:ERC20Basic",
						"label": "totalSupply_",
						"offset": 0,
						"slot": "2",
						"type": "t_uint256"
					}
				],
				"types": {
					"t_address": {
						"encoding": "inplace",
						"label": "address",
						"numberOfBytes": "20"
					},
					"t_mapping(t_address,t_mapping(t_address,t_uint256))": {
						"encoding": "mapping",
						"key": "t_address",
						"label": "mapping(address => mapping(address => uint256))",
						"numberOfBytes": "32",
						"value": "t_mapping(t_address,t_uint256)"
					},
					"t_mapping(t_address,t_uint256)": {
						"encoding": "mapping",
						"key": "t_address",
						"label": "mapping(address => uint256)",
						"numberOfBytes": "32",
						"value": "t_uint256"
					},
					"t_uint256": {
						"encoding": "inplace",
						"label": "uint256",
						"numberOfBytes": "32"
					}
				}
			},
			"userdoc": {
				"methods": {}
			}
		}
	}
}